S00F0000536B79466972652E7372656358
S113000044C1000068C1000066C1000064C1000072
S113001062C1000060C100005EC100005CC100005C
S11300205AC1000058C1000056C1000054C100006C
S113003052C1000007C300004EC100004CC10000C3
S11300404AC1000048C1000046C1000044C100008C
S113005042C1000040C100003EC100003CC100009C
S11300603AC1000038C1000036C1000034C10000AC
S113007032C1000030C100002EC100002CC10000BC
S11300802AC1000028C1000026C1000024C10000CC
S113009022C1000020C100001EC100001CC10000DC
S11300A01AC1000018C1000016C1000014C10000EC
S11300B012C1000010C10000F7C200000C94011529
S11300C00AC1000008C1000006C1000004C100000C
S11300D002C1000000C10000FEC00000FCC000001E
S11300E0FAC00000F8C000000C942015F4C0000011
S11300F0F2C00000F0C00000EEC00000ECC0000040
S1130100EAC00000E8C00000E6C00000E4C000004F
S1130110E2C00000E0C00000DEC0000008C1000032
S113012043C100007EC10000B9C10000D4C000007A
S1130130D2C00000D0C00000CEC00000CCC000007F
S1130140CAC00000C8C00000C6C00000C4C000008F
S1130150C2C00000C0C00000BEC00000BCC000009F
S1130160BAC00000B8C00000B6C000000C945A1514
S1130170B2C00000B0C00000AEC00000ACC00000BF
S1130180AAC00000A8C00000A6C00000A4C00000CF
S1130190A2C00000A0C000009EC000009CC00000DF
S11301A09AC0000098C0000096C0000094C00000EF
S11301B092C0000090C000008EC000008CC00000FF
S11301C08AC0000088C0000086C0000084C000000F
S11301D082C0000080C000007EC000007CC000001F
S11301E07AC0000078C0000076C0000074C000002F
S11301F072C0000070C000006EC000000763423689
S1130200B79BD8A71A39685618AEBAAB558C1D3CA3
S1130210B7CC5763BD6DEDFD753EF6177231BF0067
S11302200000803F08000000BE922449123EABAAA1
S1130230AA2ABECDCCCC4C3E00000080BEABAAAAFC
S1130240AA3E00000000BF000000803F0000000044
S113025000084178D3BB4387D1133D190E3CC3BD7D
S11302604282AD2B3E68EC8276BED98FE1A93E4C2A
S113027080EFFFBE01C4FF7F3F0000000000636405
S1130280696E6F70737578585B0011241FBECFEFD1
S1130290CDBFDFE3DEBF00E00CBF18BE19BE1ABE3F
S11302A01BBE10E2A0E0B0E2E0E2F9E400E00BBF24
S11302B002C007900D92AC39B107D9F71BBE21E2F9
S11302C0ACE9B0E201C01D92AE3BB207E1F70E9477
S11302D04D140C948E2494CECF93DF931F92CDB7FC
S11302E0DEB780910D2190910E21E0910921F091CA
S11302F00A21BE016F5F7F4F19958981082E000C7A
S1130300990B0F90DF91CF910895682F80910D2163
S113031090910E21E0910B21F0910C2119959923D4
S11303201CF081E090E008958FEF9FEF08951F92F5
S11303300F920FB60F92112408B60F9218BE09B689
S11303400F9219BE0BB60F921BBE2F933F934F9380
S11303505F936F937F938F939F93AF93BF93EF9329
S1130360FF934091240250912502E0910F21F091D6
S1130370102161E080E092E01995FF91EF91BF9127
S1130380AF919F918F917F916F915F914F913F9129
S11303902F910F900BBE0F9009BE0F9008BE0F90C7
S11303A00FBE0F901F9018951F920F920FB60F92C9
S11303B0112408B60F9218BE09B60F9219BE0BB6D7
S11303C00F921BBE2F933F934F935F936F937F9333
S11303D08F939F93AF93BF93EF93FF9340912C021E
S11303E050912D02E0910F21F091102162E080E004
S11303F092E01995FF91EF91BF91AF919F918F91E9
S11304007F916F915F914F913F912F910F900BBE10
S11304100F9009BE0F9008BE0F900FBE0F901F9053
S113042018951F920F920FB60F92112408B60F92CF
S113043018BE09B60F9219BE0BB60F921BBE2F93AE
S11304403F934F935F936F937F938F939F93AF9358
S1130450BF93EF93FF934091340250913502E091A2
S11304600F21F091102164E080E092E01995FF9152
S1130470EF91BF91AF919F918F917F916F915F9118
S11304804F913F912F910F900BBE0F9009BE0F908B
S113049008BE0F900FBE0F901F9018951F920F92D9
S11304A00FB60F92112408B60F9218BE09B60F9218
S11304B019BE0BB60F921BBE2F933F934F935F93BE
S11304C06F937F938F939F93AF93BF93EF93FF9318
S11304D040913C0250913D02E0910F21F091102196
S11304E068E080E092E01995FF91EF91BF91AF91A0
S11304F09F918F917F916F915F914F913F912F9138
S11305000F900BBE0F9009BE0F9008BE0F900FBE48
S11305100F901F901895CF93DF93E0919C20F0915A
S11305209D20848183FF08C08860848383E0838363
S113053086EF8093A62083C0982F947131F083E0D6
S113054083838FEF8093A6207AC086FF43C0CCE9D3
S1130550D0E2AA81BB818C819D8114962D913C911E
S11305601597821793076CF49C012F5F3F4F2093DC
S1130570A0203093A120A80FB91F11968C918783D6
S11305805EC08091A2209091A32018962D913C9159
S1130590199782179307C8F42091A420222321F0ED
S11305A08681816086834BC016962D913C91179766
S11305B0AC014F5F5F4F4093A2205093A320D90119
S11305C0A80FB91F8C9187833AC083E0838310926C
S11305D0A62035C0882384F5ACE9B0E21296CD910B
S11305E0DC91139716968D919C91179728853985E0
S11305F082179307D8F46E817F819C012F5F3F4F50
S11306002093A2203093A3204781DB01A80FB91FB8
S11306104C93888599852817390718F482E08383D9
S11306200EC087E083831092A62009C083E08383F1
S113063089EF8093A62003C08BEF8093A620DF91DF
S1130640CF9108951F920F920FB60F92112408B6FE
S11306500F9218BE09B60F9219BE0BB60F921BBEAD
S11306602F933F934F935F936F937F938F939F93B6
S1130670AF93BF93EF93FF934EDFFF91EF91BF9141
S1130680AF919F918F917F916F915F914F913F9126
S11306902F910F900BBE0F9009BE0F9008BE0F90C4
S11306A00FBE0F901F9018951F920F920FB60F92C6
S11306B0112408B60F9218BE09B60F9219BE0BB6D4
S11306C00F921BBE2F933F934F935F936F937F9330
S11306D08F939F93AF93BF93EF93FF931CDFFF918F
S11306E0EF91BF91AF919F918F917F916F915F91A6
S11306F04F913F912F910F900BBE0F9009BE0F9019
S113070008BE0F900FBE0F901F901895FC019181A9
S113071095FFFDCF608380E090E00895FC01918116
S11307209923ECF7808108954F925F926F927F92A4
S11307308F929F92AF92BF92EF92FF920F931F936B
S1130740CF937C014A015B0128013901FC018481BA
S113075082FF16C0D901C801689412F8B695A7950E
S1130760979587951694D1F7B901A801032E36E120
S113077076956795579547953A95D1F7302D15C0DD
S1130780D901C801689413F8B695A79597958795EC
S11307901694D1F7B901A801032E37E17695679530
S11307A0579547953A95D1F7302D88159905AA059F
S11307B0BB0508F4A6C084169506A606B70608F479
S11307C0A2C0F701848182FD04C0880C991CAA1C74
S11307D0BB1CC301B201A50194010E94601C2F3F00
S11307E031054105510508F490C08FEF90E0A0E079
S11307F0B0E0C9EF05C0281739074A075B0758F06E
S1130800880F991FAA1FBB1FCD3F0CF48160CF5FD7
S1130810C73089F74FC0CC230CF04CC0D501C401BC
S1130820880F991FAA1FBB1F880F991FAA1FBB1FE0
S1130830880F991FAA1FBB1F481A590A6A0A7B0A04
S1130840CE3FF4F48DEF9FEF8C1B9109C7FD939578
S113085004C0440C551C661C771C8A95D2F7D5013C
S1130860C401B695A79597958795BC01CD01640DF4
S1130870751D861D971DA50194010E94601C37C03B
S113088083E08C0FA501940104C0220F331F441F81
S1130890551F8A95D2F7DA01C901B695A7959795A0
S11308A08795BC01CD01640D751D861D971D0E94A1
S11308B0601C1DC083E08C0FA501940104C0220FAD
S11308C0331F441F551F8A95D2F7DA01C901B69523
S11308D0A79597958795BC01CD01640D751D861D5F
S11308E0971D0E94601C2150310941095109832F31
S11308F08F70C295C07FC82BF701C783268381E020
S113090018C080E016C080E014C0D501C401880F6F
S1130910991FAA1FBB1F880F991FAA1FBB1F880FEF
S1130920991FAA1FBB1F481A590A6A0A7B0AC9EFF2
S113093089CFCF911F910F91FF90EF90BF90AF900F
S11309409F908F907F906F905F904F9008950F933A
S11309501F93CF93DF93EC018B01009709F4BEC082
S1130960803C910521F460E180E0FBD3B7C0C11560
S113097084E0D80721F464E080E0F3D3AFC0C0384A
S1130980E1E0DE0721F462E080E0EBD3A7C0C1150B
S1130990F1E0DF0721F461E080E0E3D39FC0C038D9
S11309A083E0D80721F461E081E0DBD397C0C1156F
S11309B0E2E0DE0721F462E081E0D3D38FC0C032ED
S11309C0F3E0DF0721F464E082E0CBD387C0C115F4
S11309D088E0D80721F461E083E0C3D37FC0C11568
S11309E0E9E0DE0721F461E084E0BBD377C0C11500
S11309F0FAE0DF0721F461E085E0B3D36FC0C034CF
S1130A0088E0D80721F462E083E0ABD367C0C03448
S1130A10E9E0DE0721F462E084E0A3D35FC0C039DB
S1130A20F8E0DF0721F464E083E09BD357C0C039CA
S1130A3089E0D80721F464E084E093D34FC0C0393F
S1130A40EAE0DE0721F464E085E08BD347C0C03CD4
S1130A50F8E0DF0721F468E083E083D33FC0C03CC3
S1130A6089E0D80721F468E084E07BD337C0C03A3A
S1130A70E8E0DE0721F460E183E073D32FC0C03ADD
S1130A80F9E0DF0721F460E184E06BD327C0C03ACA
S1130A908AE0D80721F460E185E063D31FC0C03B3E
S1130AA0E8E0DE0721F460E283E05BD317C0C03BDB
S1130AB0F9E0DF0721F460E284E053D30FC0C038CB
S1130AC084E0D80721F460E483E04BD307C0C03A44
S1130AD0E4E0DE0719F460E485E043D38D818F738D
S1130AE08D83F80195818481892B9681911198E0F9
S1130AF0892B8D83F801408151816281738100E0EB
S1130B0018E428EE31E0CE010FDE9C8198609C83CE
S1130B109C8190619C83DF91CF911F910F910895E7
S1130B20089560913021709131218091322190910A
S1130B3033210895609134217091352180913621BB
S1130B4090913721089560912C2170912D218091ED
S1130B502E2190912F210895E0E0F6E0948188E021
S1130B60892784830895E0E0F6E0808188608083AB
S1130B70F3CF0895FF920F931F93CF93DF9362E017
S1130B8081E0EFD2C0E0D2E0FF24F394F88219822E
S1130B9080E18A8385E08C8361E270E082E0F7D2B1
S1130BA0082F10E0102F002760E270E082E0EFD2FF
S1130BB0082B0C871D87F8A219A2DF91CF911F91F2
S1130BC00F91FF900895CF93DF93CDB7DEB72797AA
S1130BD0CDBFDEBF60E284E0C4D2E0E6F6E080810F
S1130BE080688083E6E0F0E284818D8385818E8352
S1130BF086818F8380819181A281B38189839A8345
S1130C00AB83BC8360E284E0ACD2BE016F5F7F4FF4
S1130C1080EB99E09CDE2796CDBFDEBFDF91CF91BC
S1130C20089504C061507109810991096115710524
S1130C3081059105B9F70895E0E4F6E0948180E137
S1130C40892784830895E0E4F6E0848180618483C5
S1130C50F3DF8EE1B9D060E87EE380E090E0E1DF8D
S1130C60EBDF6BEA79E280E090E0DBCF0895CF938D
S1130C70DF93C82FE1DF8C2FA7D097D0C82FD0E007
S1130C80DC2FCC2792D0C82BD7DFCE01DF91CF91B8
S1130C900895CF93DF9300D01F92CDB7DEB71982AA
S1130CA01A821B821C82C8DF88E48ED066E570ED50
S1130CB080E090E0B6DFC0DFBFDF80E085D075D094
S1130CC090E0A0E0B0E0DC019927882789839A832B
S1130CD0AB83BC836AD049815A816B817C81582B58
S1130CE049835A836B837C8360D049815A816B81A9
S1130CF07C81482B49835A836B837C839DDF698184
S1130D007A818B819C812496CDBFDEBFDF91CF9108
S1130D100895CF93DF9300D01F92CDB7DEB7198229
S1130D201A821B821C8288DF88E54ED066E570ED4E
S1130D3080E090E076DF80DF7FDF80E045D035D053
S1130D4090E0A0E0B0E0DC019927882789839A83AA
S1130D50AB83BC832AD049815A816B817C81582B17
S1130D6049835A836B837C8320D049815A816B8168
S1130D707C81482B49835A836B837C835DDF698143
S1130D807A818B819C812496CDBFDEBFDF91CF9188
S1130D900895E0E4F6E08081806B808368E083E07E
S1130DA0E0D18CE58093C00808959FB7F8948FEF45
S1130DB08093C308E0ECF8E082818823ECF7789410
S1130DC09FBF8091C30808959FB7F8948093C30888
S1130DD0E0ECF8E082818823ECF778949FBF0895D3
S1130DE0CF93DF93EB019ADC8883DF91CF91089551
S1130DF08DCC0895CF93DF93CDB7DEB72797CDBFC2
S1130E00DEBF60E185E0ADD1E0E8F6E08081886096
S1130E10808380EA9AE080930D2190930E2188EFDD
S1130E2096E080930B2190930C2180EF96E08093C1
S1130E30092190930A21EDE0F0E284818D8385817C
S1130E408E8386818F8380819181A281B3818983FE
S1130E509A83AB83BC8360E185E083D1BE016F5F7D
S1130E607F4F80EA9AE073DD6CE671E085E891E0FB
S1130E700E94D51C2796CDBFDEBFDF91CF91089588
S1130E80FF920F931F93CF93DF9362E081E069D1C8
S1130E90C0E0D2E0FF24F394F882198280E18A83CF
S1130EA085E08C8361E270E082E071D1082F10E06C
S1130EB0102F002760E270E082E069D1082B0C87D4
S1130EC01D87F8A619A6DF91CF911F910F91FF906E
S1130ED00895E0E0F2E080A5806880A783A58823D8
S1130EE0E9F380912C0290912D020895CF93DF9322
S1130EF0FC0141155105B1F180E090E020E0880F3C
S1130F00991FDB01A80FB91F8D919C91A281B38118
S1130F10AA0FBB1FC681D781AC0FBD1F8D939C93B5
S1130F2082819381019682839383A081B1818A1700
S1130F309B0711F41282138282819381C481D5812B
S1130F408C179D0749F40196A817B90719F08483F3
S1130F50958302C0148215822F5F822F90E084173C
S1130F60950768F2DF91CF910895FC0112821382F4
S1130F701482158266837783408351830895DC014C
S1130F801296ED91FC911397CB010196E817F9079E
S1130F9078F0E150F048E61BF70BEE0FFF1F1696B2
S1130FA08D919C911797E80FF91F80819181089585
S1130FB02D913C911197E20FF31FE150F048E61B8D
S1130FC0F70BEE0FFF1F16968D919C911797E80F64
S1130FD0F91F808191810895CF92DF92EF92FF9261
S1130FE0CF93DF93FC014115510509F43FC080E024
S1130FF090E020E0880F991F880F991FDB01A80F4C
S1131000B91FCD90DD90ED90FC90A281B381AA0F21
S1131010BB1FAA0FBB1F86819781A80FB91FCD9252
S1131020DD92ED92FC9213978281938101968283E3
S11310309383A081B1818A179B0711F412821382D2
S113104082819381C481D5818C179D0749F40196CF
S1131050A817B90719F08483958302C014821582F6
S11310602F5F822F90E08417950720F2DF91CF91B4
S1131070FF90EF90DF90CF900895FC0112821382CD
S11310801482158266837783408351830895DC013B
S11310901296ED91FC911397CB010196E817F9078D
S11310A098F0E150F04CE61BF70BEE0FFF1FEE0F2C
S11310B0FF1F16968D919C911797E80FF91F608179
S11310C071818281938108952D913C911197E20F52
S11310D0F31FE150F04CE61BF70BEE0FFF1FEE0F72
S11310E0FF1F16968D919C911797E80FF91F608149
S11310F07181828193810895CF93DF931F921F9210
S1131100CDB7DEB78FEF809370008093710080932A
S113111072008093730080937400809375008093B1
S113112076008FB78A83F8949A81E0E5F0E08081B5
S1131130826080839FBF818181FFFDCF61E080E475
S113114090E02FD08FB78983F8949981E0E5F0E09F
S113115080818E7F80839FBF0F900F90DF91CF910E
S11311600895CF93DF931F92CDB7DEB79FB79983CE
S1131170F8949981E82FF0E0E059FF4F6095808161
S1131180682360839FBF0F90DF91CF9108954091B2
S1131190CA01E62FF72F8093CA0184914093CA01B4
S11311A008951BBEFC0128ED24BF6083089504C08C
S11311B061507109810991096115710581059105D4
S11311C0B9F70895CF93DF933EDD82EA90E04FDDD7
S11311D0C5EFD0E28883998384EA90E048DD8A836E
S11311E09B8386EA90E043DD8C839D8388EA90E0CC
S11311F03EDD8E839F838AEA90E039DD8887998774
S11312008CEA90E034DD8A879B87DF91CF91089543
S1131210DADC6BEA79E280E090E0C9DF80E3809376
S1131220B309089580EB94E08093280990932909E9
S113123081E08093072108954F925F926F927F928D
S11312408F929F92AF92BF92CF92DF92EF92FF92D2
S1131250CF93DF931EDD6B017C015BDD0E949C1943
S11312604B015C01C5EFD0E26885798580E090E0B0
S11312700E949C1920E030E040E853E40E94621A86
S11312809B01AC01C501B4010E9460184B015C01D3
S11312906C817D8180E090E00E949C19A5019401FD
S11312A00E94621A20E030E040E05CE30E94621A8F
S11312B02B013C016881798180E090E00E949C19B7
S11312C020E030E040E857E40E94621A9B01AC0140
S11312D0C301B2010E9461182B013C01C701B60190
S11312E00E949C199B01AC01C301B2010E94621AC5
S11312F020E030E040E055E30E94621A6B017C017B
S11313006E817F8180E090E00E949C19A501940188
S11313100E94621A20E030E040E85CE30E94621A16
S11313204B015C016A817B8180E090E00E949C1902
S113133020E030E040E058E40E94621A9B01AC01D6
S1131340C501B4010E9461189B01AC01C701B6013B
S11313500E94601820E030E040E058E30E94621AE6
S1131360DF91CF91FF90EF90DF90CF90BF90AF903F
S11313709F908F907F906F905F904F9008954F92C1
S11313805F926F927F928F929F92AF92BF92CF9211
S1131390DF92EF92FF92CF93DF9300D01F92CDB7ED
S11313A0DEB72B013C01C0901F20D0902020E0909C
S11313B02120F090222080902B2090902C20A0902F
S11313C02D20B0902E202091232030912420409174
S11313D0252050912620C701B6010E94621A20914F
S11313E01B2030911C2040911D2050911E200E94F2
S11313F0C91869837A838B839C83A3019201C501F5
S1131400B4010E94C91829813A814B815C810E94F0
S1131410C51A409027205090282060902920709071
S11314202A208090032190900421A0900521B0905F
S1131430062120E030E040E85FE30E946018A30149
S113144092010E94621AA70196010E94C918A5017F
S113145094010E9460182496CDBFDEBFDF91CF9126
S1131460FF90EF90DF90CF90BF90AF909F908F90C0
S11314707F906F905F904F900895CF92DF92EF929C
S1131480FF9227DDBC0180E090E00E949C1923E4D8
S11314903EE242E05AE30E94621A24EE3AE545EC49
S11314A05DE30E9460186B017C012BE235EB42E1A5
S11314B050E40E94621A9B01AC01C701B6010E946C
S11314C06118FF90EF90DF90CF9008952F923F9294
S11314D04F925F926F927F928F929F92AF92BF9240
S11314E0CF92DF92EF92FF920F931F93CF93DF93EC
S11314F000D000D0CDB7DEB76C01809114208823D2
S113150009F46CC000E010E0412C512C3201862E0D
S1131510912CA12CB12C89829A82AB82BC82B80115
S1131520C6012DDD5C0118012FEF221A320AB10128
S1131530C60125DD7C01B8016E5F7F4FC6011FDD4A
S1131540A501BB0C660B770B8A019B01000F111FD1
S1131550221F331F400F511F621F731F8701FF0C8F
S1131560220B330B78018901EE0CFF1C001F111FA5
S1131570EE0CFF1C001F111F4A015B018E189F080F
S1131580A00AB10AAC01990F660B770BD501C4010F
S1131590840F951FA61FB71F9C01AD0169817A8135
S11315A08B819C810E942A1C0E949E1920E030E0BD
S11315B040E05FE30E94621A9B01AC01C301B201E7
S11315C00E9461182B013C01809114208101282F75
S11315D030E02216330608F4A2CF03C0412C512C6C
S11315E03201682F70E080E090E00E949E199B0118
S11315F0AC01C301B2010E94C91820E030E048ECFC
S113160052E40E94C9182696CDBFDEBFDF91CF9168
S11316101F910F91FF90EF90DF90CF90BF90AF900C
S11316209F908F907F906F905F904F903F902F90FE
S113163008953F924F925F926F927F928F929F9202
S1131640AF92BF92CF92DF92EF92FF920F931F93CC
S1131650CF93DF9300D000D0CDB7DEB78C011982D1
S11316601A82C12CD12C760169817A81C8010FDDDF
S11316704B015C0121E6821A2EEA920A2AE0A20AB0
S1131680B1082FE782162AE1920626E0A206B104E9
S113169080F40E949E1920E030E040EA50E40E9469
S11316A0C9189B01AC01C701B6010E9461186B0106
S11316B07C0189819A81019689839A830597A1F691
S11316C019821A82812C912C540169817A81C80172
S11316D0DEDC2B013C0121E6421A2EEA520A2AE002
S11316E0620A71082FE742162AE1520626E06206D2
S11316F0710490F40E949E19A70196010E9460183B
S11317009B01AC010E94621A9B01AC01C501B401AA
S11317100E9461184B015C0189819A810196898339
S11317209A83059791F620E030E040E85EE3C50136
S1131730B4010E94621A69837A838B839C831D821D
S11317401E82312C412C512C32016D817E81C801C5
S11317509EDC4B015C0121E6821A2EEA920A2AE001
S1131760A20AB1082FE782162AE1920626E0A20611
S1131770B10450F50E949E194B015C01A70196012A
S11317800E9460180E946B199B01772324F422277E
S11317903327261B370BB901330F880B990B0E9493
S11317A09E199B01AC0169817A818B819C810E9485
S11317B05E1A88234CF0A5019401C301B2010E9472
S11317C061182B013C0133948D819E8101968D8398
S11317D09E83059709F0B9CF332069F0632D70E03B
S11317E080E090E00E949C199B01AC01C301B2010E
S11317F00E94C91804C060E070E080E89FEB269660
S1131800CDBFDEBFDF91CF911F910F91FF90EF907D
S1131810DF90CF90BF90AF909F908F907F906F900C
S11318205F904F903F900895AF92BF92CF92DF9216
S1131830EF92FF920F931F93CF93DF9300D000D0CA
S1131840CDB7DEB75C018B01F7DC20E030E040E28D
S113185051E40E94621A0E946B1969837A838B8314
S11318609C8341E050E0BE016F5F7F4FC801B4DB51
S1131870C801DFDE20E030E040E251E40E94C918F4
S11318806B017C0120E030E040E85FEB0E94C5186A
S11318908823D1F1C092D920D092DA20E092DB20C3
S11318A0F092DC20C701B6016ADD6093D120709309
S11318B0D2208093D3209093D4206091D120709132
S11318C0D2208091D3209091D42020E030E048ECC5
S11318D052E40E94621A0E946B196D837E8341E078
S11318E050E0BE016B5F7F4FC50100DB60911720A4
S11318F070911820C501EADD6093C9207093CA2055
S11319008093CB209093CC2083E393E1A5E9B3E4C7
S11319108093D5209093D620A093D720B093D8203D
S1131920ACDD6093CD207093CE208093CF20909334
S1131930D0202696CDBFDEBFDF91CF911F910F91AE
S1131940FF90EF90DF90CF90BF90AF90089560919B
S1131950C9207091CA208091CB209091CC2020E0A6
S113196030E040EA50E40E945E1A1816A4F0609138
S1131970C9207091CA208091CB209091CC200E94E4
S11319806B199B01772324F422273327261B370B5B
S1131990253031053CF480910821823018F41092EE
S11319A0082108956091C9207091CA208091CB20AC
S11319B09091CC2020E030E040EA50EC0E94C51821
S11319C08823A4F46091D1207091D2208091D320F7
S11319D09091D42020E030E041EE53E40E945E1A5E
S11319E0181624F481E08093082108956091C92099
S11319F07091CA208091CB209091CC2020E030E0DF
S1131A0040EA50EC0E94C5188823A4F46091D120C8
S1131A107091D2208091D3209091D42020E030E0A6
S1131A2041EE53E40E94C518882324F482E0809395
S1131A3008210895809108218230A1F46091C92081
S1131A407091CA208091CB209091CC200E946B1978
S1131A509B01772324F422273327261B370B2530B9
S1131A60310524F080910821833019F483E08093B8
S1131A700821089561E084E074DB64E084E071DBB4
S1131A80E0E6F6E0808181608083E0E0F9E085E0D3
S1131A90808383E1818380E197E286A397A38EEE1E
S1131AA092E080A791A708958F929F92AF92BF92E0
S1131AB0CF92DF92EF92FF920F931F93CF93DF9316
S1131AC07C01C0E0D0E000E010E0BE01C70157DABD
S1131AD0080F191F2196CA30D105B9F760E070E0EC
S1131AE0C7014DDAEC016091172070911820C701ED
S1131AF0EDDC6B017C01BE01DD0F880B990B0E94AC
S1131B009E1920E030E0A9010E94621A20E030E032
S1131B1048EC52E40E94C9184B015C01B801110F52
S1131B20880B990B0E949E1920E030E0A9010E94C5
S1131B30621A20E030E048EC52E40E94C9189B018C
S1131B40AC01C501B4010E9461184B015C0120E0A5
S1131B5030E0A901C701B6010E94621A9B01AC01E1
S1131B60C501B4010E94611820E030E84BEB54E455
S1131B700E9461180E9470196093192070931A20B2
S1131B806091192070911A2080E090E00E949C19C5
S1131B9020E030E04AE754E40E94C91820E030E035
S1131BA04AEF53E40E94621A0E9470196093280954
S1131BB070932909DF91CF911F910F91FF90EF90BE
S1131BC0DF90CF90BF90AF909F908F90089561E089
S1131BD085E0C7DAE0E0FAE087E0808381E19AE714
S1131BE086A397A381E0868308958091D92090915C
S1131BF0DA20A091DB20B091DC2080932B209093FD
S1131C002C20A0932D20B0932E2083E393E1A5E90B
S1131C10B3E48093272090932820A0932920B093A5
S1131C202A2008950E9491056093EC207093ED2082
S1131C308093EE209093EF200E949A056093E82011
S1131C407093E9208093EA209093EB200E94A305EF
S1131C506093F0207093F1208093F2209093F3200E
S1131C600895C3DFDFCF08952F923F924F925F9282
S1131C706F927F928F929F92AF92BF92CF92DF9298
S1131C80EF92FF920F931F93CF93DF93CDB7DEB7FD
S1131C90E997CDBFDEBF8091DD209091DE200196D3
S1131CA08093DD209093DE206091A7207091A8207E
S1131CB08091A9209091AA20209108212983409005
S1131CC0AB205090AC206090AD207090AE208090FE
S1131CD0AF209090B020A090B120B090B220C090DE
S1131CE0B320D090B420E090B520F090B62040917D
S1131CF0B7205091B82048AF59AF2091B920309106
S1131D00BA204091BB205091BC202A833B834C8352
S1131D105D832091B9203091BA204091BB2050912D
S1131D20BC202E833F83488759872091BD20309162
S1131D30BE204091BF205091C0202A873B874C870A
S1131D405D872091BD203091BE204091BF205091ED
S1131D50C0202E873F87488B598B2091C12030911A
S1131D60C2204091C3205091C4202A8B3B8B4C8BC2
S1131D705D8B2091C1203091C2204091C3205091AD
S1131D80C4202E8B3F8B488F598F2091C5203091D2
S1131D90C6204091C7205091C8202A8F3B8F4C8F7A
S1131DA05D8F2091C5203091C6204091C72050916D
S1131DB0C8202E8F3F8F48A359A32091C52030916E
S1131DC0C6204091C7205091C8202AA33BA34CA30E
S1131DD05DA32091CD203091CE204091CF20509111
S1131DE0D0202EA33FA348A759A72091D5203091F6
S1131DF0D6204091D7205091D8202AA73BA74CA7A2
S1131E005DA72091D9203091DA204091DB205091B8
S1131E10DC202EA73FA748AB59AB2091D1203091AD
S1131E20D2204091D3205091D4202AAB3BAB4CAB71
S1131E305DAB0091DD201091DE202090E1203090F8
S1131E40E2204091E1205091E2204EAB5FAB0E9432
S1131E506B197F936F931F9259815F93C301B201F2
S1131E600E946B197F936F93C501B4010E946B1993
S1131E707F936F93C701B6010E946B197F936F9391
S1131E8089AD8F9398AD9F936A817B818C819D816D
S1131E900E946B199B01220F331F660F771F660F79
S1131EA0771F660F771FC901860F971F6AE070E0DE
S1131EB00E944D1C9F938F936E817F8188859985A5
S1131EC00E946B197F936F9320E034E244E759E456
S1131ED06A857B858C859D850E94621A0E946B1998
S1131EE020E432E44FE050E00E94821C9B017723FF
S1131EF024F422273327261B370BC901330FAA0BDF
S1131F00BB0BBF93AF939F938F936E857F85888917
S1131F1099890E946B197F936F9320E034E244E720
S1131F2059E46A897B898C899D890E94621A0E947E
S1131F306B1920E432E44FE050E00E94821C9F932E
S1131F408F937F936F936E897F89888D998D0E947B
S1131F506B197F936F936A8D7B8D8C8D9D8D0E9401
S1131F606B190F2EF4E6CF2ED12CE12CF12CF02D91
S1131F70A70196010E94821C7F936F936E8D7F8DC3
S1131F8088A199A10E946B190F2EF0E18F2EF7E220
S1131F909F2EA12CB12CF02DA50194010E94821C2E
S1131FA0A70196010E94821C3F932F936AA17BA1F3
S1131FB08CA19DA10E946B19A50194010E94821C11
S1131FC03F932F936EA17FA188A599A50E946B19B9
S1131FD07F936F9323E333E948E853E46AA57BA531
S1131FE08CA59DA50E9460180E946B197F936F9326
S1131FF06EA57FA588A999A90E946B199F938F93B9
S11320007F936F936AA97BA98CA99DA90E946B19E0
S11320107F936F931F930F939101ADECBCEC0E94DF
S11320209E1C9695879596958795969587959C0180
S1132030220F331F880F991F880F991F880F991F2C
S1132040820F931F281A390A3F922F922EA93FA973
S11320500E949E1C9695879596958795969587954B
S11320609F938F93809116208F93809115208F9347
S113207020E531E23F932F930E94321DCDBFDEBF96
S113208020E531E23F932F930E941F1D0F900F9084
S1132090E996CDBFDEBFDF91CF911F910F91FF90E5
S11320A0EF90DF90CF90BF90AF909F908F907F90F4
S11320B06F905F904F903F902F9008955F926F9232
S11320C07F928F929F92AF92BF92CF92DF92EF92C4
S11320D0FF920F931F93CF93DF93CDB7DEB7A097F3
S11320E0CDBFDEBF60912B2070912C2080912D20DC
S11320F090912E200E943619122F632E742E852E55
S1132100962EA72EB82EC92E6091272070912820D4
S11321108091292090912A200E943619E22F532E73
S1132120D42EE52EF62EB72FA82FF92F1983212FA1
S1132130362D472D582D692D7A2D8B2D9C2D08E099
S11321400E94B91C2A83212F362D472D582D692D25
S11321507A2D8B2D9C2D00E10E94B91C2B83212FFD
S1132160362D472D582D692D7A2D8B2D9C2D08E168
S11321700E94B91C2C83212F362D472D582D692DF3
S11321807A2D8B2D9C2D00E20E94B91C2D83212FCA
S1132190362D472D582D692D7A2D8B2D9C2D08E237
S11321A00E94B91C2E83212F362D472D582D692DC1
S11321B07A2D8B2D9C2D00E30E94B91C2F83212F97
S11321C0362D472D582D692D7A2D8B2D9C2D08E306
S11321D00E94B91C2887E9872E2F352D4D2D5E2DA1
S11321E06F2D7B2F8A2F9F2F08E00E94B91C2A870E
S11321F02E2F352D4D2D5E2D6F2D7B2F8A2F9F2F4A
S113220000E10E94B91C2B872E2F352D4D2D5E2DFC
S11322106F2D7B2F8A2F9F2F08E10E94B91C2C87DA
S11322202E2F352D4D2D5E2D6F2D7B2F8A2F9F2F19
S113223000E20E94B91C2D872E2F352D4D2D5E2DC9
S11322406F2D7B2F8A2F9F2F08E20E94B91C2E87A7
S11322502E2F352D4D2D5E2D6F2D7B2F8A2F9F2FE9
S113226000E30E94B91C2F872E2F352D4D2D5E2D96
S11322706F2D7B2F8A2F9F2F08E30E94B91C288B78
S113228080E1EFE2F0E2DE01519601900D928A9531
S1132290E1F783E38093CA01FE017196CE010196B2
S11322A0AE014F5D5F4F60EC71E02191DB012C9337
S11322B0DC012D91CD01DB0114962C93E417F50775
S11322C0A1F7E0ECF1E085E38287108280E181836D
S11322D088ED84BF81E0838787858823ECF3A0960B
S11322E0CDBFDEBFDF91CF911F910F91FF90EF9093
S11322F0DF90CF90BF90AF909F908F907F906F9022
S11323005F9008950E947C086BEA79E280E090E097
S11323100E94D70878948CEB8093400687E08093E2
S1132320A2000E94B3050E94FA066BEA70EB88E2F1
S113233090E00E94D70880E28093A30A0E940809D3
S11323400E94BA050E9440070E94C9060E94E20842
S11323500E94AC053CDC8EDB66E570ED80E090E02D
S11323600E94D708F4DA0E941C0960932B20709312
S11323702C2080932D2090932E2083E393E1A5E9D4
S1132380B3E48093272090932820A0932920B0932E
S11323902A2094CE0895CF93DF93CDB7DEB72C9740
S11323A0CDBFDEBF6091D1207091D2208091D32027
S11323B09091D42090D779836A838091DD20909185
S11323C0DE209B838091DD209091DE208C838091A0
S11323D0E1209091E2209D838091E1209091E22080
S11323E08E8386E0EFE3F0E2DE01179601900D9212
S11323F08A95E1F783E38093CA01FE013796CE0103
S11324000196AE01435F5F4F60EC71E02191DB0107
S11324102C93DC012D91CD01DB0114962C93E41750
S1132420F507A1F7E0ECF1E085E38287108280E113
S1132430818388ED84BF81E0838787858823ECF3DB
S11324402C96CDBFDEBFDF91CF9108952F923F929E
S11324504F925F926F927F928F929F92AF92BF92B0
S1132460CF92DF92EF92FF920F931F93CF93DF935C
S1132470CDB7DEB7E797CDBFDEBF8091DD20909169
S1132480DE2001968093DD209093DE206091A720CA
S11324907091A8208091A9209091AA2020910821D0
S11324A029834090AB205090AC206090AD20709078
S11324B0AE208090AF209090B020A090B120B0903A
S11324C0B220C090B320D090B420E090B520F0901A
S11324D0B6204091B7205091B8204EAB5FAB20910D
S11324E0B9203091BA204091BB205091BC202A835E
S11324F03B834C835D832091B9203091BA20409175
S1132500BB205091BC202E833F834887598720915C
S1132510BD203091BE204091BF205091C0202A8719
S11325203B874C875D872091BD203091BE20409130
S1132530BF205091C0202E873F87488B598B209114
S1132540C1203091C2204091C3205091C4202A8BD5
S11325503B8B4C8B5D8B2091C1203091C2204091EC
S1132560C3205091C4202E8B3F8B488F598F2091CC
S1132570C5203091C6204091C7205091C8202A8F91
S11325803B8F4C8F5D8F2091C5203091C6204091A8
S1132590C7205091C8202E8F3F8F48A359A3209164
S11325A0C5203091C6204091C7205091C8202AA34D
S11325B03BA34CA35DA32091CD203091CE2040912C
S11325C0CF205091D0202EA33FA348A759A72091F4
S11325D0D5203091D6204091D7205091D8202AA7D9
S11325E03BA74CA75DA72091D9203091DA204091D8
S11325F0DB205091DC202EA73FA748AB59AB20919C
S1132600D1203091D2204091D3205091D4202AABB4
S11326103BAB4CAB5DAB2090DD203090DE200091D5
S1132620E1201091E22057D67F936F931F92398156
S11326303F93C301B2014FD67F936F93C501B40199
S11326404AD67F936F93C701B60145D67F936F93A4
S11326504FA94F935EA95F936A817B818C819D8191
S11326603AD69B01220F331F660F771F660F771F21
S1132670660F771FC901860F971F6AE070E00E94FA
S11326804D1C9F938F936E817F818885998523D676
S11326907F936F9320E034E244E759E46A857B85B5
S11326A08C859D850FD717D620E432E44FE050E0A7
S11326B00E94821C9B01772324F422273327261BA4
S11326C0370BC901330FAA0BBB0BBF93AF939F9377
S11326D08F936E857F8588899989FDD57F936F93C4
S11326E020E034E244E759E46A897B898C899D8936
S11326F0E9D6F1D520E432E44FE050E00E94821C98
S11327009F938F937F936F936E897F89888D998D23
S1132710E2D57F936F936A8D7B8D8C8D9D8DDBD5F8
S11327200F2EF4E6CF2ED12CE12CF12CF02DA701A5
S113273096010E94821C7F936F936E8D7F8D88A17A
S113274099A1C9D50F2EF0E18F2EF7E29F2EA12C6F
S1132750B12CF02DA50194010E94821CA7019601C1
S11327600E94821C3F932F936AA17BA18CA19DA1FF
S1132770B2D5A50194010E94821C3F932F936EA1B0
S11327807FA188A599A5A7D57F936F9323E333E908
S113279048E853E46AA57BA58CA59DA591D49BD557
S11327A07F936F936EA57FA588A999A994D59F93CC
S11327B08F937F936F936AA97BA98CA99DA98BD5CD
S11327C07F936F933F922F921F930F9380911620C4
S11327D08F93809115208F9380E591E29F938F933F
S11327E00E94321DCDBFDEBF80E591E29F938F939F
S11327F00E941F1DD0DD109202210F900F90E796CA
S1132800CDBFDEBFDF91CF911F910F91FF90EF906D
S1132810DF90CF90BF90AF909F908F907F906F90FC
S11328205F904F903F902F90089583E38093CA0167
S113283080E0E0ECF1E09FEF808394838F5F80324F
S1132840D9F7E0ECF1E080E3828788ED84BF81E092
S1132850838787858823ECF30895E7DF8FB7F8949F
S113286098ED94BF91E0909379008FBF08958436DA
S113287091F028F4823669F0833649F0089585365C
S113288021F0863649F4E9CF0895EBC90895ADC91E
S11328900895C8C90895E8C90895CF93DF93CDB7C3
S11328A0DEB7C856D109CDBFDEBF2CDDE0E6F6E0C9
S11328B080818860808384818860848314E1BE0180
S11328C06F5F7F4FFB01812F11928A95E9F74AE0F0
S11328D050E0CE0145960E94B507BE01635E7F4F6E
S11328E088E2FB0111928A95E9F74AE050E0CE01B3
S11328F08B5B9F4F0E943D08BE01635B7F4FFB01D2
S113290011921A95E9F74AE050E0CE018F599F4F92
S11329100E94B50700E010E0BE016B5B7F4FCE0163
S113292045960E94140C13D880910821813031F00F
S1132930C0F1823039F0833071F131C0111131C0EE
S113294011E02FC0111101C011E06091D1207091EC
S1132950D2208091D3209091D42020E030E041EE29
S113296053E4AED3B8D49B01772324F4222733272E
S1132970261B370B2A3031052CF40E9412090E94C1
S113298090050FC080910721882359F0CE018F59FB
S11329909F4F8AD806C0011104C001E002C00E9402
S11329A0A70C80910221882319F050DD1092022196
S11329B080910121882339F08091F42058DF10920E
S11329C0F420109201218091DF209091E020019663
S11329D08093DF209093E0208091E1209091E22089
S11329E0892B09F499CF8091DF209091E0206091A8
S11329F0E1207091E2203DD7609317207093182056
S1132A008BCF1F920F920FB60F92112408B60F921C
S1132A1018BE8F939F938091E1209091E2200196BC
S1132A208093E1209093E22081E0809302219F91A2
S1132A308F910F9008BE0F900FBE0F901F901895A6
S1132A401F920F920FB60F92112408B60F9218BE60
S1132A5009B60F9219BE0BB60F921BBE2F933F936C
S1132A604F935F936F937F938F939F93AF93BF9392
S1132A70EF93FF9380EA9AE00E948E038093F42000
S1132A8081E080930121FF91EF91BF91AF919F91DC
S1132A908F917F916F915F914F913F912F910F9003
S1132AA00BBE0F9009BE0F9008BE0F900FBE0F9083
S1132AB01F9018951F920F920FB60F92112408B60B
S1132AC00F9218BE09B60F9219BE0AB60F921ABE1B
S1132AD00BB60F921BBE8F929F92AF92BF92CF9272
S1132AE0DF92EF92FF921F932F933F934F935F9345
S1132AF06F937F938F939F93AF93BF93EF93FF93C2
S1132B00CF93DF9300D000D0CDB7DEB780EB99E050
S1132B100E948E03182F843251F481E08093E720C1
S1132B201092E6201092E5201092E4205AC28A32D4
S1132B3029F41092E4201092E72053C28C3209F059
S1132B4050C2ECE3F1E280E280838181803209F0BB
S1132B5077C280E380933C2173C280913C218E3202
S1132B6009F0A3C1A9C180913C218E3209F0EFC0C4
S1132B70F5C080913C218E3209F052C058C0919129
S1132B809E3229F401C080E08093E32003C08F5F6C
S1132B908F30A9F7E091E320F0E0E45CFE4D80E2A1
S1132BA080832091E3202F5F2F30C8F4822F90E0A0
S1132BB0FC01E45CFE4D3081303289F040E208C013
S1132BC0822F90E0FC01E45CFE4D3081303239F01C
S1132BD0FC01E45CFE4D40832F5F2F3089F7CE016A
S1132BE001969F938F9384E990E29F938F938CE354
S1132BF091E29F938F935ED769817A818B819C81C7
S1132C009DD36093C5207093C6208093C720909372
S1132C10C8200F900F900F900F900F900F90C3C18A
S1132C20EDE3F1E281E091919E3229F401C080E06C
S1132C308093E32003C08F5F8F30A9F7E091E320F6
S1132C40F0E0E45CFE4D80E280832091E3202F5F7E
S1132C502F3008F5822F90E0FC01E45CFE4D3081BA
S1132C603032C9F050E208C0822F90E0FC01E45CED
S1132C70FE4D3081303279F04091E320FC01E41BB9
S1132C80F109E65BFE4D3083FC01E45CFE4D5083AC
S1132C902F5F2F3049F780914B21803219F480E364
S1132CA080934B21CE0101969F938F9384E990E208
S1132CB09F938F938CE391E29F938F93FBD6CE01E6
S1132CC005969F938F9388E990E29F938F938BE46B
S1132CD091E29F938F93EED689809A80AB80BC80DB
S1132CE06D817E81072E000C880B990B27D320E081
S1132CF030E44CE156E44DD26B017C01C501B401D2
S1132D0024E630E040E050E0FDD549015A0116D3F5
S1132D109B01AC01C701B601D4D120E030E040E70B
S1132D2052E437D26B017C01C501B40107D39B0186
S1132D30AC01C701B601C5D16093C1207093C22014
S1132D408093C3209093C420CDBFDEBF2CC1EDE39C
S1132D50F1E281E091919E3229F401C080E08093F8
S1132D60E32003C08F5F8F30A9F7E091E320F0E008
S1132D70E45CFE4D80E280832091E3202F5F2F30BE
S1132D8008F5822F90E0FC01E45CFE4D3081303286
S1132D90C9F050E208C0822F90E0FC01E45CFE4DD3
S1132DA03081303279F04091E320FC01E41BF109D9
S1132DB0E65BFE4D3083FC01E45CFE4D50832F5FE7
S1132DC02F3049F780914B21803219F480E38093AE
S1132DD04B21CE0101969F938F9384E990E29F93B8
S1132DE08F938CE391E29F938F9364D6CE010596E3
S1132DF09F938F9388E990E29F938F938BE491E262
S1132E009F938F9357D689809A80AB80BC806D81C5
S1132E107E81072E000C880B990B90D220E030E4C1
S1132E204CE156E4B6D16B017C01C501B40124E642
S1132E3030E040E050E066D549015A017FD29B0161
S1132E40AC01C701B6013DD120E030E040E752E4D7
S1132E50A0D16B017C01C501B40170D29B01AC010E
S1132E60C701B6012ED1DC01CB01B0588093BD203F
S1132E709093BE20A093BF20B093C020CDBFDEBFEF
S1132E8092C087EB90E29F938F9388E990E29F939F
S1132E908F938CE391E29F938F930CD60F900F90B6
S1132EA00F900F900F900F907EC0EDE3F1E281E060
S1132EB091919E3229F401C080E08093E32003C005
S1132EC08F5F8F30A9F7E091E320F0E0E45CFE4DE2
S1132ED080E280832091E3202F5F2F3008F5822F3A
S1132EE090E0FC01E45CFE4D30813032C9F050E2E8
S1132EF008C0822F90E0FC01E45CFE4D308130324A
S1132F0079F04091E320FC01E41BF109E65BFE4DFE
S1132F103083FC01E45CFE4D50832F5F2F3049F772
S1132F2080914B21803219F480E380934B21CE01B0
S1132F3001969F938F9384E990E29F938F938CE300
S1132F4091E29F938F93B6D5CE0105969F938F936D
S1132F5088E990E29F938F938BE491E29F938F9300
S1132F60A9D569817A818B819C81E8D16B017C012F
S1132F706D817E81072E000C880B990BDFD120E038
S1132F8030E040E251E405D19B01AC01C701B60138
S1132F9098D06093B9207093BA208093BB2090930B
S1132FA0BC20CDBFDEBF8091E7208823D1F01092F2
S1132FB0E3208091E4208F5F8093E4201092E52049
S1132FC0ECE3F1E22BE431E280E281932E173F0738
S1132FD0E1F7EBE4F1E280E28083818382838383FF
S1132FE084838091E720882309F443C08091E620FC
S1132FF0833019F0843031F009C0173439F010925D
S1133000E72004C0173411F01092E720E091E52086
S1133010F0E0E45CFE4D10838091E5208F5F8093A7
S1133020E5208091E6208F5F8093E62022C0809186
S11330303C218E3209F4A7CDEDE3F1E281E09FCD8E
S113304019821A821B821C821D821E828091E420B6
S1133050843009F488CD30F4813049F3823009F4A6
S113306088CDA1CF873009F40CCF893009F475CD10
S11330709ACF2696CDBFDEBFDF91CF91FF91EF911E
S1133080BF91AF919F918F917F916F915F914F917C
S11330903F912F911F91FF90EF90DF90CF90BF90C1
S11330A0AF909F908F900F900BBE0F900ABE0F9021
S11330B009BE0F9008BE0F900FBE0F901F90189579
S11330C05058BB27AA270ED0BFC1B0D130F0B5D11C
S11330D020F031F49F3F11F41EF495C10EF4E095F5
S11330E0E7FB8BC1E92FC1D180F3BA1762077307DD
S11330F08407950718F071F49EF5D9C10EF4E09594
S11331000B2EBA2FA02D0B01B90190010C01CA019D
S1133110A0011124FF27591B99F0593F50F4503E48
S113312068F11A16F040A22F232F342F4427585F3A
S1133130F3CF469537952795A795F0405395C9F752
S11331407EF41F16BA0B620B730B840BBAF091500A
S1133150A1F0FF0FBB1F661F771F881FC2F70EC0A9
S1133160BA0F621F731F841F48F48795779567957C
S1133170B795F7959E3F08F0B3CF9395880F08F065
S11331809927EE0F97958795089513D108F481E058
S113319008950CD059C151D140F048D130F021F4F8
S11331A05F3F19F02AC1511183C12DC15ED198F33B
S11331B09923C9F35523B1F3951B550BBB27AA27B4
S11331C062177307840738F09F5F5F4F220F331F26
S11331D0441FAA1FA9F333D00E2E3AF0E0E830D0F2
S11331E091505040E695001CCAF729D0FE2F27D0F5
S11331F0660F771F881FBB1F261737074807AB07C3
S1133200B0E809F0BB0B802DBF01FF2793585F4F37
S11332102AF09E3F510568F0F0C04AC15F3FECF3CD
S1133220983EDCF3869577956795B795F7959F5FFC
S1133230C9F7880F911D9695879597F90895E1E050
S1133240660F771F881FBB1F621773078407BA07AF
S113325020F0621B730B840BBA0BEE1F88F7E0950A
S11332600895BEE304D008F490E80895BFE322274C
S11332703327A90102D158F19F5740F1B91738F10A
S1133280BFE3B91B9927B8503AF4660F771F881F1C
S1133290991FB395D2F316C0B8504AF0232F342F98
S11332A0452F562F672F782F8827B850BAF7B85F65
S11332B049F086957795679557954795379527955E
S11332C0BA95B9F70EF4A2D088940895889460E072
S11332D070E0CB01089504D06894B111E9C0089559
S11332E0CCD088F09F5790F0B92F9927B751A0F010
S11332F0D1F0660F771F881F991F1AF0BA95C9F786
S113330012C0B13081F0D3D0B1E00895D0C0672F9E
S1133310782F8827B85F39F0B93FCCF38695779535
S11333206795B395D9F73EF490958095709561951E
S11333307F4F8F4F9F4F0895E89409C097FB3EF449
S113334090958095709561957F4F8F4F9F4F9923EE
S1133350A9F0F92F96E9BB279395F695879577956C
S11333606795B795F111F8CFFAF4BB0F11F460FF2C
S11333701BC06F5F7F4F8F4F9F4F16C0882311F084
S113338096E911C0772321F09EE8872F762F05C098
S1133390662371F096E8862F70E060E02AF09A9533
S11333A0660F771F881FDAF7880F9695879597F928
S11333B00895990F0008550FAA0BE0E8FEEF1616C2
S11333C01706E807F907C0F012161306E407F50715
S11333D098F0621B730B840B950B39F40A2661F089
S11333E0232B242B252B21F408950A2609F4A1402C
S11333F0A6958FEF811D811D089597F99F6780E839
S113340070E060E008959FEF80EC089590958095BA
S11334107095609550954095309521953F4F4F4F4D
S11334205F4F6F4F7F4F8F4F9F4F089500240A9433
S11334301616170618060906089500240A9412168B
S11334401306140605060895092E0394000C11F4BE
S1133450882352F0BB0F40F4BF2B11F460FF04C06B
S11334606F5F7F4F8F4F9F4F089557FD9058440FC4
S1133470551F59F05F3F71F04795880F97FB991FCF
S113348061F09F3F79F0879508951216130614068C
S1133490551FF2CF4695F1DF08C016161706180619
S11334A0991FF1CF86957105610508940895E894F4
S11334B0BB2766277727CB0197F908957ADF08F4AD
S11334C08FEF08950BD0C0CFB1DF28F0B6DF18F02E
S11334D0952309F092CF97CF1124EACFC6DFA0F34A
S11334E0959FD1F3950F50E0551F629FF001729F95
S11334F0BB27F00DB11D639FAA27F00DB11DAA1FB4
S1133500649F6627B00DA11D661F829F2227B00D00
S1133510A11D621F739FB00DA11D621F839FA00D8B
S1133520611D221F749F3327A00D611D231F849FDB
S1133530600D211D822F762F6A2F11249F57504032
S11335408AF0E1F088234AF0EE0FFF1FBB1F661FCD
S1133550771F881F91505040A9F79E3F510570F086
S11335604CCFA6CF5F3FECF3983EDCF3869577957E
S11335706795B795F795E7959F5FC1F7FE2B880F81
S1133580911D9695879597F90895FA01EE0FFF1FFF
S113359030962105310599F16115710561F4803882
S11335A0BFE39B0749F168949038810561F0803846
S11335B0BFEF9B0741F0992342F5FF3FE105310539
S11335C0210511F1E8940894E795D901AA2329F477
S11335D0AB2FBE2FF85FD0F310C0FF5F70F4A69539
S11335E0E0F7F73950F019F0FF3A38F49F779F93DA
S11335F00CD00F9007FC905808953EF004CF60E083
S113360070E080E89FE308954FE79F775F934F93BF
S11336103F932F939ED02F913F914F915F9152DF13
S113362005C019F40EF0E9CE42CFEDCE26DFC8F383
S11336309638C0F707F80F92E8942BE33AEA48EB80
S11336405FE74EDF0F920F920F924DB75EB70F9266
S1133650C0D0ECEFF1E016D04F915F91EF91FF9164
S1133660E595EE1FFF1F49F0FE57E0684427EE0F73
S1133670441FFA95E1F74195550B32D00F9007FEA0
S113368026C00895DF93CF931F930F93FF92EF9279
S1133690DF927B018C01689405C0DA2EEF011EDFF6
S11336A0FE01E894A5912591359145915591AEF38C
S11336B0EF0118DDFE019701A801DA9479F7DF9094
S11336C0EF90FF900F911F91CF91DF9108959B018F
S11336D0AC0160E070E080E89FE35BCD8ECEACC0CF
S11336E0CCDEE8F39923D9F3940F511DBBF3915029
S11336F0504094F059F0882332F0660F771F881FEA
S113370091505040C1F79E3F510544F7880F911DD9
S11337109695879597F908955F3FACF0983E9CF095
S1133720BB27869577956795B79508F4B16093950F
S1133730C1F7BB0F58F711F460FFE8CF6F5F7F4FFD
S11337408F4F9F4FE3CFB4CE0EF076C05CCE68941B
S113375054CE93DEC8F39923D1F3C6F3DF93CF930A
S11337601F930F93FF92C92FDD2788232AF02197F7
S1133770660F771F881FDAF720E030E040E85FEB40
S11337809FE3883920F0803E30F021968F7799DCD2
S1133790E4E2F2E003C095DCE1E5F2E073DF8B01E3
S11337A0BE01EC01FB2E6F5771097595771F880BCD
S11337B0990BC4DD28E132E741E35FE38FDEAF2DEF
S11337C09801AE01FF900F911F91CF91DF918ADC98
S11337D03BCEFA01DC01AA0FBB1F9B01AC01BF5712
S11337E028F422273327442750781FC0B75188F480
S11337F0AB2F0024469537952795011CA395D2F34A
S1133800002069F0220F331F441FB395DAF30DD063
S113381057CC61307105A0E88A07B94630F49B01A2
S1133820AC016627772788279078309621F020838B
S113383031834283538308959F3F31F0915020F4A4
S1133840879577956795B795880F911D9695879578
S113385097F90895DB018F939F937FD0BF91AF9128
S1133860A29F800D911DA39F900DB29F900D1124D6
S11338700895AA1BBB1B51E107C0AA1FBB1FA617B3
S1133880B70710F0A61BB70B881F991F5A95A9F705
S113389080959095BC01CD01089597FB072E16F4F1
S11338A0009406D077FD08D0E4DF07FC05D03EF491
S11338B0909581959F4F0895709561957F4F0895D8
S11338C0A1E21A2EAA1BBB1BFD010DC0AA1FBB1F20
S11338D0EE1FFF1FA217B307E407F50720F0A21B92
S11338E0B30BE40BF50B661F771F881F991F1A94FF
S11338F069F760957095809590959B01AC01BD0129
S1133900CF010895052E97FB16F400940FD057FDB0
S113391005D0D6DF07FC02D046F408C05095409588
S1133920309521953F4F4F4F5F4F08959095809567
S1133930709561957F4F8F4F9F4F0895A29FB0015F
S1133940B39FC001A39F700D811D1124911DB29FCF
S1133950700D811D1124911D0895F0DFA59F900D18
S1133960B49F900DA49F800D911D1124089597FB81
S113397010F8169400080F93083098F00850232F7D
S1133980342F452F562F672F782F892F902DF4CF62
S113399005949795879577956795579547953795A6
S11339A027950A95AAF70F9108950F931F93CF9324
S11339B0DF93009731F46115710519F480E090E00C
S11339C039C08B01EC016EE070E081E090E047D5F6
S11339D0FC01892B99F380E883830115110571F0AB
S11339E00287138781E883838091B4219091B52164
S11339F0892B21F4E093B421F093B5212097C9F0E9
S1133A00C087D1878381826083838091B62190911E
S1133A10B721892B71F4E093B621F093B7218091FB
S1133A20B8219091B921892B21F4E093B821F09326
S1133A30B921CF01DF91CF911F910F910895CF93B9
S1133A40DF93CDB7DEB7AE014A5F5F4FFA016191F4
S1133A507191AF018091B6219091B72146D0DF9149
S1133A60CF9108950F931F93CF93DF93CDB7DEB714
S1133A702E97CDBFDEBF0E891F8986E08C83098314
S1133A801A838FEF9FE78D839E83AE01465E5F4F5F
S1133A90688D798DCE01019628D0EF81F885E00FED
S1133AA0F11F10822E96CDBFDEBFDF91CF911F9103
S1133AB00F910895CF93DF93CDB7DEB72E97CDBF87
S1133AC0DEBF85E08C838C899D8989839A83AE01CE
S1133AD0485E5F4F6E897F89CE010196A9D32E96E9
S1133AE0CDBFDEBFDF91CF9108952F923F924F92C9
S1133AF05F926F927F928F929F92AF92BF92CF927A
S1133B00DF92EF92FF920F931F93CF93DF93CDB782
S1133B10DEB72B97CDBFDEBF6C017B018A01FC01B0
S1133B2016821782838181FFBFC1CE0101963C01B9
S1133B30F6019381F70193FD859193FF81917F01B4
S1133B40882309F4ADC1853239F493FD859193FF3F
S1133B5081917F01853221F4B60190E029D6E8CF26
S1133B60912C212C312CFFE1F315D8F08B3279F014
S1133B7038F4803279F08332A1F4232D20611DC002
S1133B808D3261F0803369F4232D216016C0832DBA
S1133B908260382EE32DE4603E2E2AC0F32DF860B7
S1133BA01DC037FC2DC020ED280F2A3040F08E3286
S1133BB0B9F436FC75C1232D2064322E19C036FEAB
S1133BC006C08AE0989E200D1124922E11C0EAE0CE
S1133BD02E9E200D1124222EF32DF0623F2E08C0BC
S1133BE08C3621F4832D8068382E02C0883641F447
S1133BF0F70193FD859193FF81917F018111B3CFEB
S1133C00982F9F7D9554933028F40C5F1F4F9FE3AA
S1133C1099830DC0833631F0833771F0833509F011
S1133C2055C020C0F801808189830E5F1F4F88240E
S1133C308394912C530112C02801F2E04F0E511CC1
S1133C40F801A080B18036FE03C0692D70E002C087
S1133C506FEF7FEFC50163D54C018201F32DFF7730
S1133C603F2E15C0280122E0420E511CF801A0800D
S1133C70B18036FE03C0692D70E002C06FEF7FEFA4
S1133C80C5013BD54C01F32DF0683F2E820133FC76
S1133C9019C0822D90E088169906A0F4B60180E23E
S1133CA090E086D52A94F5CFF50137FC859137FE4F
S1133CB081915F01B60190E07BD521102A9421E027
S1133CC0821A91088114910479F7E1C0843611F0C5
S1133CD0893639F5F80137FE07C060817181828128
S1133CE093810C5F1F4F08C060817181072E000C07
S1133CF0880B990B0E5F1F4FF32DFF763F2E97FF16
S1133D0009C090958095709561957F4F8F4F9F4F17
S1133D10F0683F2E2AE030E0A3019FD5882E861854
S1133D2044C0853731F4232D2F7EB22E2AE030E0B3
S1133D3025C0932D997FB92E8F36C1F018F488359C
S1133D4079F0AEC0803719F0883721F0A9C0E92F87
S1133D50E061BE2EB4FE0DC0FB2DF460BF2E09C081
S1133D6034FE0AC0292F2660B22E06C028E030E0B7
S1133D7005C020E130E002C020E132E0F801B7FEE6
S1133D8007C060817181828193810C5F1F4F06C0DF
S1133D906081718180E090E00E5F1F4FA3015DD5CB
S1133DA0882E8618FB2DFF773F2E36FE0DC0232D5F
S1133DB02E7FA22E891458F434FE0BC032FC09C0A5
S1133DC0832D8E7EA82E05C0B82CA32C03C0B82C3E
S1133DD001C0B92CA4FE0FC0FE01E80DF11D8081C5
S1133DE0803321F49A2D997EA92E09C0A2FE06C023
S1133DF0B394B39404C08A2D867809F0B394A3FCD9
S1133E0010C0A0FE06C0B21480F4280C922C9B189B
S1133E100DC0B21458F4B60180E290E0C9D4B39452
S1133E20F8CFB21418F42B1802C0982C212CA4FE3D
S1133E300FC0B60180E390E0BBD4A2FE16C0A1FC83
S1133E4003C088E790E002C088E590E0B6010CC0AA
S1133E508A2D867851F0A1FE02C08BE201C080E277
S1133E60A7FC8DE2B60190E0A3D4891430F4B60126
S1133E7080E390E09DD49A94F8CF8A94F301E80DFE
S1133E80F11D8081B60190E093D48110F6CF2220F9
S1133E9009F44ECEB60180E290E08AD42A94F7CF9A
S1133EA0F6018681978102C08FEF9FEF2B96CDBFDD
S1133EB0DEBFDF91CF911F910F91FF90EF90DF90C4
S1133EC0CF90BF90AF909F908F907F906F905F90B6
S1133ED04F903F902F90089520FD09C0FC0123FDD1
S1133EE005C022FF02C07383628351834083089517
S1133EF044FD17C046FD17C0AB01BC01DA01FB014C
S1133F00AA0FBB1FEE1FFF1F1094D1F74A0F5B1FB0
S1133F106E1F7F1FCB01BA01660F771F881F991F81
S1133F2009C033E001C034E0660F771F881F991F72
S1133F303150D1F7620F711D811D911D08950F93AA
S1133F401F93CF93DF938C01C801F4D3EC0197FD49
S1133F5006C0C0D3892BC1F7B801CE0165D4CE0108
S1133F60DF91CF911F910F9108958F929F92AF92FD
S1133F70BF92EF92FF920F931F93CF93DF938C0125
S1133F80D62F7A01B22ED6D39C0133272B3231059A
S1133F9031F02D32310559F48B2D8068B82ED15073
S1133FA011F480E061C0C801C5D397FDFACFCB2DD1
S1133FB0CD7F2B2D2073F9F48033E9F4AA24AA943D
S1133FC0AD0E09F43EC0C801B5D397FD3AC09C01BB
S1133FD02F7D33272835310541F4C264D25089F14D
S1133FE0C801A8D397FF07C02CC0B6FE02C0C260A8
S1133FF001C0C261DA2D812C912C540120ED280FCF
S1134000283078F0C4FF03C0B8010ED417C02A309A
S113401040F0C6FFF9CF2F7D3FEE320F3630A0F7C8
S113402027504C2FC501B40163DF4B015C01C26012
S1134030D15051F0C8017ED397FFE0CFC1FD04C039
S1134040B0CF812C912C5401C7FF08C0B094A09428
S113405090948094811C911CA11CB11C2C2FB5013F
S1134060A401C70139DF81E0DF91CF911F910F9146
S1134070FF90EF90BF90AF909F908F9008955F92C4
S11340806F927F928F929F92AF92BF92CF92DF9264
S1134090EF92FF920F931F93CF93DF93CDB7DEB7C9
S11340A0A097CDBFDEBF5C01962E7A01F9018E0187
S11340B00F5F1F4F680180E2D8011D928A95E9F7CE
S11340C0D50113968C9080E090E0612C712C30E047
S11340D061E070E083FC259183FE21918F01522ED3
S11340E0211103C080E090E090C02E3511F40097B8
S11340F051F1432F50E0481759073CF42D3559F13D
S11341002D3219F4772009F103C0772009F468C02F
S1134110452D469546954695D601A40FB11D452DCE
S113412047708B0102C0000F111F4A95E2F7A801E6
S11341305C91452B4C93651459F0561410F4539428
S1134140E7CF5A94E5CF31E004C07724739401C0DB
S1134150712C0196BFCF772019F08E8180628E83F7
S1134160311103C08824839417C0F6019E012F5D8A
S11341703F4F8081809581932E173F07D1F7F2CF6F
S1134180E114F10429F0D7018C93F70131967F01F2
S11341909A94812C9920E9F0C501CCD297FD17C0DF
S11341A0FC01FF2723E0F595E7952A95E1F7EC0D4F
S11341B0FD1D208130E0AC014770552702C03595C4
S11341C027954A95E2F720FDDBCFB5012DD3811069
S11341D089CFE114F10411F0D7011C92C80115C074
S11341E0422F469546954695D601A40FB11D422F00
S11341F047708B0102C0000F111F4A95E2F7A80116
S11342005C91452B4C93622EA4CFA096CDBFDEBF0C
S1134210DF91CF911F910F91FF90EF90DF90CF909E
S1134220BF90AF909F908F907F906F905F90089514
S11342305F926F927F928F929F92AF92BF92CF9232
S1134240DF92EF92FF920F931F93CF93DF936C0152
S1134250EB015A01FC0116821782512CF601E3800E
S1134260FE01E3FC8591E3FE8191182FEF01882381
S113427009F4E0C090E02ED2892B19F0C6015FDE6C
S1134280EDCF153241F4FE01E3FC1591E3FE1191EB
S1134290EF01153271F4C6014DD297FDC9C0412F0B
S11342A050E09C01332724173507C1F2B601BCD274
S11342B0C1C01A3239F4E3FC1591E3FE1191EF0108
S11342C001E001C000E0F12C20ED210F2A3078F448
S11342D002606F2D70E080E090E040E209DEF62E8F
S11342E0FE01E3FC1591E3FE1191EF01EDCF01FF17
S11342F003C0F11003C09EC0FF24FA94183619F0CD
S11343001C3651F010C0FE01E3FC1591E3FE11913F
S1134310EF01183641F408600460FE01E3FC1591D6
S1134320E3FE1191EF01112309F484C0612F70E0C1
S11343308EE792E0D7D1892B09F47CC000FD07C039
S1134340F50180809180C50102965C0102C0812C38
S1134350912C1E3649F4F6014681578160E070E0E5
S1134360202FC401B9DD7ACF1336A1F401FD02C0B8
S1134370FF24F394C601DED197FD5AC08114910441
S113438029F0F4018083C40101964C01FA94F110E0
S1134390F1CF4AC01B3551F49E01A4016F2DC60113
S11343A06EDEEC01892B09F03FC039C0C601C7DDC0
S11343B097FD3EC01F3649F128F4143621F1193611
S11343C039F125C0133771F01537E9F020C0811495
S11343D0910429F0F4016082C40101964C01FA941D
S11343E0FF2059F0C601A6D13C0197FD06C072D149
S11343F0892B69F3B601C30117D281149104A1F08A
S1134400F401108211C0006203C0006101C00064A5
S1134410202FA4016F2DC601A8DD811105C0F6016E
S11344208381807329F406C000FD18CF539416CFFE
S1134430552019F0852D90E002C08FEF9FEFDF919A
S1134440CF911F910F91FF90EF90DF90CF90BF908D
S1134450AF909F908F907F906F905F9008950F938F
S11344601F93CF93DF93869F8001879F100D969FA4
S1134470100D1124C8010DD0EC01009721F0A80102
S113448060E070E045D1CE01DF91CF911F910F9193
S113449008950F931F93CF93DF938230910510F407
S11344A082E090E0E091BC21F091BD2120E030E079
S11344B0A0E0B0E0309719F140815181028113816D
S11344C048175907C8F08417950769F4109731F015
S11344D012960C93129713961C9327C00093BC2139
S11344E01093BD2122C02115310519F0421753073D
S11344F018F49A01BD01EF01DF01F801DBCF2115AA
S11345003105F9F0281B390B2430310580F48A81F8
S11345109B816115710521F0FB018283938304C0A3
S11345208093BC219093BD21FE01329644C0FE01CC
S1134530E20FF31F81939193225031092883398329
S11345403AC02091BA213091BB21232B41F4209110
S11345500220309103202093BA213093BB21209173
S11345600020309101202115310541F42DB73EB7CB
S11345704091042050910520241B350BE091BA2171
S1134580F091BB21E217F307A0F42E1B3F0B281771
S1134590390778F0AC014E5F5F4F2417350748F0B8
S11345A04E0F5F1F4093BA215093BB218193919387
S11345B002C0E0E0F0E0CF01DF91CF911F910F91B5
S11345C00895CF93DF93009709F481C0FC013297DB
S11345D012821382A091BC21B091BD21109781F465
S11345E020813181820F931F2091BA213091BB2108
S11345F02817390751F5E093BA21F093BB2167C01E
S1134600ED0120E030E0CE17DF0740F44A815B8102
S11346109E0141155105F1F0EA01F5CFC283D38320
S113462040815181840F951FC817D90759F4888197
S11346309981840F951F0296808391838A819B813F
S1134640828393832115310529F4E093BC21F093EF
S1134650BD213DC0E901EA83FB8349915991C40F0F
S1134660D51FEC17FD0761F480819181840F951F9C
S11346700296E90188839983828193818A839B834B
S1134680E0E0F0E012968D919C911397009719F059
S1134690FD01DC01F7CF8D919C9111979D012E5F57
S11346A03F4F820F931F2091BA213091BB212817CD
S11346B0390769F4309729F41092BC211092BD2176
S11346C002C012821382A093BA21B093BB21DF915E
S11346D0CF91089591111FC1803219F089508550EE
S11346E0D0F70895FC010590061621F00020D9F7B3
S11346F0C00108953197CF010895FC0105906150E0
S113470070400110D8F7809590958E0F9F1F0895E3
S1134710DC0101C06D9341505040E0F70895FC0165
S11347206150704001900110D8F7809590958E0FDC
S11347309F1F0895CF93DF93EC012B8120FF33C09B
S113474026FF0AC02F7B2B838E819F8101968E8347
S11347509F838A8190E029C022FF0FC0E881F981FC
S11347608081082E000C990B009719F420622B838A
S11347701AC03196E883F9830EC0EA85FB85199542
S113478097FF09C02B81019611F080E201C080E1FE
S1134790822B8B8308C02E813F812F5F3F4F2E8356
S11347A03F83992702C08FEF9FEFDF91CF91089548
S11347B00F931F93CF93DF93FB01238121FD03C04C
S11347C08FEF9FEF2CC022FF16C0468157812481B2
S11347D035814217530744F4A081B1819D012F5FB5
S11347E03F4F208331838C93268137812F5F3F4F46
S11347F02683378314C08B01EC01FB010084F1850F
S1134800E02D1995892BE1F6D80116968D919C918E
S11348101797019616968D939C931797CE01DF9167
S1134820CF911F910F910895FB01238120FF12C0A6
S113483026FD10C08F3F3FEF930761F082832F7DE9
S113484020642383268137812150310926833783CD
S1134850992708958FEF9FEF0895FA01AA2728302A
S113486051F1203181F1E8946F936E7F6E5F7F4F39
S11348708F4F9F4FAF4FB1E03ED0B4E03CD0670FB5
S1134880781F891F9A1FA11D680F791F8A1F911D08
S1134890A11D6A0F711D811D911DA11D20D009F458
S11348A068943F912AE0269F11243019305D31939A
S11348B0DEF6CF010895462F4770405D4193B3E083
S11348C00FD0C9F7F6CF462F4F70405D4A3318F02A
S11348D0495D31FD4052419302D0A9F7EACFB4E0DB
S11348E0A6959795879577956795BA95C9F7009793
S11348F06105710508959B01AC010A2E0694579534
S1134900479537952795BA95C9F7620F731F841F8A
S1134910951FA01D0895992788270895F894FFCF1F
S11349200000BE2120008025000003000180250036
S1134930000300010345200A00DC050AE81C41F4D9
S1134940FDD4BB69878F433313904380E6C5470981
S11349500A0B0C0D0E0F101213141516171819014B
S11349600004030706353334332C25692C25692CC0
S113497025692C256C692C25692C25692C25303258
S1134980693A253032693A253032692C25692E2559
S11349906C692C25692E256C692C25692E25692CBA
S11349A025692C25692C25692C25692C25692C253C
S10F49B0690A0000256C64002564000006
S9030000FC
