:1000000057C100007BC1000079C1000077C100002A
:1000100075C1000073C1000071C100006FC1000014
:100020006DC100006BC1000069C1000067C1000024
:1000300065C100000C941E0AF2C3000028C4000031
:100040005EC4000094C40000CAC4000000C50000E3
:1000500036C500006CC50000A2C50000D8C5000070
:100060004DC100004BC1000049C1000047C1000064
:1000700045C1000043C1000041C100003FC1000074
:100080003DC100003BC1000039C1000037C1000084
:1000900035C1000033C1000031C100002FC1000094
:1000A0002DC100002BC1000029C1000027C10000A4
:1000B00025C1000023C100000C94500A0C947C2937
:1000C0000C946F080C94A7080C94DF080C94170983
:1000D0000C944F0913C1000011C100000FC10000B2
:1000E0000DC100000BC100000C949B2907C100004A
:1000F00005C1000003C1000001C10000FFC00000F5
:10010000FDC00000FBC00000F9C00000F7C0000007
:1001100021C1000065C10000A9C100008CC200001F
:10012000C7C2000002C300003DC30000E7C00000DA
:10013000E5C00000A4C50000DAC5000010C600003C
:1001400046C600007CC60000B2C60000E8C600003B
:100150001EC7000054C700008AC70000CFC00000BF
:10016000CDC00000CBC00000C9C000000C94D52950
:10017000C5C00000C3C00000C1C00000BFC0000077
:10018000BDC00000BBC00000B9C00000B7C0000087
:10019000B5C00000B3C00000B1C00000AFC0000097
:1001A000ADC00000ABC00000A9C00000A7C00000A7
:1001B000A5C00000A3C00000A1C000009FC00000B7
:1001C0009DC000009BC0000099C0000097C00000C7
:1001D00095C0000093C0000091C000008FC00000D7
:1001E0008DC000008BC0000089C0000087C00000E7
:1001F00085C0000083C0000081C000009F289C28AB
:100200009928A52896289428A728A728A728A728AA
:10021000A728A728A728A728A728A728A728A72866
:10022000A22808000000BE922449123EABAAAA2AC6
:10023000BECDCCCC4C3E00000080BEABAAAAAA3EEC
:1002400000000000BF000000803F00000000000828
:100250004178D3BB4387D1133D190E3CC3BD4282C5
:10026000AD2B3E68EC8276BED98FE1A93E4C80EF83
:10027000FFBE01C4FF7F3F0000000000076342365D
:10028000B79BD8A71A39685618AEBAAB558C1D3C27
:10029000B7CC5763BD6DEDFD753EF6177231BF00EB
:1002A0000000803F6364696E6F70737578585B00FF
:1002B00011241FBECFEFCDBFDFE3DEBF00E00CBFD8
:1002C00018BE19BE1ABE1BBE11E2A0E0B0E2ECE4FB
:1002D000F4E700E00BBF02C007900D92A43AB1070B
:1002E000D9F71BBE22E2A4EAB1E201C01D92AE3FE3
:1002F000B207E1F70E94A8280C94243A81CECF934C
:10030000DF931F92CDB7DEB780914D2290914E22A0
:10031000E0914922F0914A22BE016F5F7F4F19950B
:100320008981082E000C990B0F90DF91CF910895D1
:10033000682F80914D2290914E22E0914B22F091B6
:100340004C22199599231CF081E090E008958FEFDD
:100350009FEF08951F920F920FB60F92112408B6C7
:100360000F9218BE09B60F9219BE0BB60F921BBEA4
:100370002F933F934F935F936F937F938F939F93AD
:10038000AF93BF93EF93FF93E091A521F091A62146
:10039000309779F08091870384FF06C040E060E0E9
:1003A00080E893E0199505C040E860E080E893E0BC
:1003B0001995FF91EF91BF91AF919F918F917F918F
:1003C0006F915F914F913F912F910F900BBE0F90C6
:1003D00009BE0F9008BE0F900FBE0F901F9018958A
:1003E0001F920F920FB60F92112408B60F9218BEEB
:1003F00009B60F9219BE0BB60F921BBE2F933F93F7
:100400004F935F936F937F938F939F93AF93BF931C
:10041000EF93FF93E091A521F091A621309779F019
:100420008091870385FF06C040E061E080E893E0AB
:10043000199505C040E861E080E893E01995FF91C7
:10044000EF91BF91AF919F918F917F916F915F914C
:100450004F913F912F910F900BBE0F9009BE0F90BF
:1004600008BE0F900FBE0F901F9018951F920F920D
:100470000FB60F92112408B60F9218BE09B60F924C
:1004800019BE0BB60F921BBE2F933F934F935F93F2
:100490006F937F938F939F93AF93BF93EF93FF934C
:1004A000E091A521F091A621309739F04091870382
:1004B000407C60E080E893E01995FF91EF91BF9157
:1004C000AF919F918F917F916F915F914F913F91EC
:1004D0002F910F900BBE0F9009BE0F9008BE0F908A
:1004E0000FBE0F901F901895CF92DF92EF92FF9260
:1004F0000F931F93CF93DF931F92CDB7DEB72FB724
:100500002983F894C980803823E09207D9F47A01CE
:10051000D62E8C018091A421811104C061E081E07C
:100520000E945E178091A4218F5F8093A421F70120
:100530008281F8018583F7018381F8018683DD20BC
:1005400019F00BC0CFBE1DC0F7018181F801828375
:10055000F7018081F801808308C0F7018181F801EB
:100560008383F7018081F80181838091A4218150E8
:100570008093A421811104C061E081E00E9474177E
:10058000CFBE0F90DF91CF911F910F91FF90EF9011
:10059000DF90CF900895EF92FF920F931F93CF9328
:1005A000DF931F921F92CDB7DEB72FB72A83F8943F
:1005B000EA80803823E0920709F5F62E8C018091BD
:1005C000A421811104C061E081E00E945E17809146
:1005D000A4218F5F8093A421809144228F3F09F44E
:1005E000FFCF8FB78983F8949981E3E4F2E28181A8
:1005F0008F5F81839FBFFF2019F007C0EFBE0AC045
:10060000F80180818160808304C0F801818181606C
:100610008183EFBE0F900F90DF91CF911F910F91CB
:10062000FF90EF9008958038934021F46093A521C6
:100630007093A62108951F920F920FB60F92112466
:1006400008B60F9218BE09B60F9219BE0BB60F92DC
:100650001BBE2F933F934F935F936F937F938F9323
:100660009F93AF93BF93EF93FF93409124025091D8
:100670002502E0914F22F091502261E080E092E06B
:100680001995FF91EF91BF91AF919F918F917F91BC
:100690006F915F914F913F912F910F900BBE0F90F3
:1006A00009BE0F9008BE0F900FBE0F901F901895B7
:1006B0001F920F920FB60F92112408B60F9218BE18
:1006C00009B60F9219BE0BB60F921BBE2F933F9324
:1006D0004F935F936F937F938F939F93AF93BF934A
:1006E000EF93FF9340912C0250912D02E0914F2205
:1006F000F091502262E080E092E01995FF91EF9135
:10070000BF91AF919F918F917F916F915F914F9129
:100710003F912F910F900BBE0F9009BE0F9008BE16
:100720000F900FBE0F901F9018951F920F920FB64B
:100730000F92112408B60F9218BE09B60F9219BE77
:100740000BB60F921BBE2F933F934F935F936F9304
:100750007F938F939F93AF93BF93EF93FF934091BA
:10076000340250913502E0914F22F091502264E022
:1007700080E092E01995FF91EF91BF91AF919F9129
:100780008F917F916F915F914F913F912F910F903A
:100790000BBE0F9009BE0F9008BE0F900FBE0F90BA
:1007A0001F9018951F920F920FB60F92112408B642
:1007B0000F9218BE09B60F9219BE0BB60F921BBE50
:1007C0002F933F934F935F936F937F938F939F9359
:1007D000AF93BF93EF93FF9340913C0250913D0242
:1007E000E0914F22F091502268E080E092E019956C
:1007F000FF91EF91BF91AF919F918F917F916F91F9
:100800005F914F913F912F910F900BBE0F9009BEBA
:100810000F9008BE0F900FBE0F901F9018951F925B
:100820000F920FB60F92112408B60F9218BE09B698
:100830000F9219BE0BB60F921BBE2F933F934F938F
:100840005F936F937F938F939F93AF93BF93EF9338
:10085000FF93E091D721F091D821309709F01995B5
:10086000FF91EF91BF91AF919F918F917F916F9188
:100870005F914F913F912F910F900BBE0F9009BE4A
:100880000F9008BE0F900FBE0F901F9018951F92EB
:100890000F920FB60F92112408B60F9218BE09B628
:1008A0000F9219BE0BB60F921BBE2F933F934F931F
:1008B0005F936F937F938F939F93AF93BF93EF93C8
:1008C000FF93E091D521F091D621309709F0199549
:1008D000FF91EF91BF91AF919F918F917F916F9118
:1008E0005F914F913F912F910F900BBE0F9009BEDA
:1008F0000F9008BE0F900FBE0F901F9018951F927B
:100900000F920FB60F92112408B60F9218BE09B6B7
:100910000F9219BE0BB60F921BBE2F933F934F93AE
:100920005F936F937F938F939F93AF93BF93EF9357
:10093000FF93E091D321F091D421309709F01995DC
:10094000FF91EF91BF91AF919F918F917F916F91A7
:100950005F914F913F912F910F900BBE0F9009BE69
:100960000F9008BE0F900FBE0F901F9018951F920A
:100970000F920FB60F92112408B60F9218BE09B647
:100980000F9219BE0BB60F921BBE2F933F934F933E
:100990005F936F937F938F939F93AF93BF93EF93E7
:1009A000FF93E091D121F091D221309709F0199570
:1009B000FF91EF91BF91AF919F918F917F916F9137
:1009C0005F914F913F912F910F900BBE0F9009BEF9
:1009D0000F9008BE0F900FBE0F901F9018951F929A
:1009E0000F920FB60F92112408B60F9218BE09B6D7
:1009F0000F9219BE0BB60F921BBE2F933F934F93CE
:100A00005F936F937F938F939F93AF93BF93EF9376
:100A1000FF93E091CF21F091D021309709F0199503
:100A2000FF91EF91BF91AF919F918F917F916F91C6
:100A30005F914F913F912F910F900BBE0F9009BE88
:100A40000F9008BE0F900FBE0F901F9018951F9229
:100A50000F920FB60F92112408B60F9218BE09B666
:100A60000F9219BE0BB60F921BBE2F933F934F935D
:100A70005F936F937F938F939F93AF93BF93EF9306
:100A8000FF93E091CD21F091CE21309709F0199597
:100A9000FF91EF91BF91AF919F918F917F916F9156
:100AA0005F914F913F912F910F900BBE0F9009BE18
:100AB0000F9008BE0F900FBE0F901F9018951F92B9
:100AC0000F920FB60F92112408B60F9218BE09B6F6
:100AD0000F9219BE0BB60F921BBE2F933F934F93ED
:100AE0005F936F937F938F939F93AF93BF93EF9396
:100AF000FF93E091CB21F091CC21309709F019952B
:100B0000FF91EF91BF91AF919F918F917F916F91E5
:100B10005F914F913F912F910F900BBE0F9009BEA7
:100B20000F9008BE0F900FBE0F901F9018951F9248
:100B30000F920FB60F92112408B60F9218BE09B685
:100B40000F9219BE0BB60F921BBE2F933F934F937C
:100B50005F936F937F938F939F93AF93BF93EF9325
:100B6000FF93E091C921F091CA21309709F01995BE
:100B7000FF91EF91BF91AF919F918F917F916F9175
:100B80005F914F913F912F910F900BBE0F9009BE37
:100B90000F9008BE0F900FBE0F901F9018951F92D8
:100BA0000F920FB60F92112408B60F9218BE09B615
:100BB0000F9219BE0BB60F921BBE2F933F934F930C
:100BC0005F936F937F938F939F93AF93BF93EF93B5
:100BD000FF93E091C721F091C821309709F0199552
:100BE000FF91EF91BF91AF919F918F917F916F9105
:100BF0005F914F913F912F910F900BBE0F9009BEC7
:100C00000F9008BE0F900FBE0F901F9018951F9267
:100C10000F920FB60F92112408B60F9218BE09B6A4
:100C20000F9219BE0BB60F921BBE2F933F934F939B
:100C30005F936F937F938F939F93AF93BF93EF9344
:100C4000FF93E091C521F091C621309709F01995E5
:100C5000FF91EF91BF91AF919F918F917F916F9194
:100C60005F914F913F912F910F900BBE0F9009BE56
:100C70000F9008BE0F900FBE0F901F9018951F92F7
:100C80000F920FB60F92112408B60F9218BE09B634
:100C90000F9219BE0BB60F921BBE2F933F934F932B
:100CA0005F936F937F938F939F93AF93BF93EF93D4
:100CB000FF93E091C321F091C421309709F0199579
:100CC000FF91EF91BF91AF919F918F917F916F9124
:100CD0005F914F913F912F910F900BBE0F9009BEE6
:100CE0000F9008BE0F900FBE0F901F9018951F9287
:100CF0000F920FB60F92112408B60F9218BE09B6C4
:100D00000F9219BE0BB60F921BBE2F933F934F93BA
:100D10005F936F937F938F939F93AF93BF93EF9363
:100D2000FF93E091C121F091C221309709F019950C
:100D3000FF91EF91BF91AF919F918F917F916F91B3
:100D40005F914F913F912F910F900BBE0F9009BE75
:100D50000F9008BE0F900FBE0F901F9018951F9216
:100D60000F920FB60F92112408B60F9218BE09B653
:100D70000F9219BE0BB60F921BBE2F933F934F934A
:100D80005F936F937F938F939F93AF93BF93EF93F3
:100D9000FF93E091BF21F091C021309709F01995A0
:100DA000FF91EF91BF91AF919F918F917F916F9143
:100DB0005F914F913F912F910F900BBE0F9009BE05
:100DC0000F9008BE0F900FBE0F901F9018951F92A6
:100DD0000F920FB60F92112408B60F9218BE09B6E3
:100DE0000F9219BE0BB60F921BBE2F933F934F93DA
:100DF0005F936F937F938F939F93AF93BF93EF9383
:100E0000FF93E091BD21F091BE21309709F0199533
:100E1000FF91EF91BF91AF919F918F917F916F91D2
:100E20005F914F913F912F910F900BBE0F9009BE94
:100E30000F9008BE0F900FBE0F901F9018951F9235
:100E40000F920FB60F92112408B60F9218BE09B672
:100E50000F9219BE0BB60F921BBE2F933F934F9369
:100E60005F936F937F938F939F93AF93BF93EF9312
:100E7000FF93E091BB21F091BC21309709F01995C7
:100E8000FF91EF91BF91AF919F918F917F916F9162
:100E90005F914F913F912F910F900BBE0F9009BE24
:100EA0000F9008BE0F900FBE0F901F9018951F92C5
:100EB0000F920FB60F92112408B60F9218BE09B602
:100EC0000F9219BE0BB60F921BBE2F933F934F93F9
:100ED0005F936F937F938F939F93AF93BF93EF93A2
:100EE000FF93E091B921F091BA21309709F019955B
:100EF000FF91EF91BF91AF919F918F917F916F91F2
:100F00005F914F913F912F910F900BBE0F9009BEB3
:100F10000F9008BE0F900FBE0F901F9018951F9254
:100F20000F920FB60F92112408B60F9218BE09B691
:100F30000F9219BE0BB60F921BBE2F933F934F9388
:100F40005F936F937F938F939F93AF93BF93EF9331
:100F5000FF93E091B721F091B821309709F01995EE
:100F6000FF91EF91BF91AF919F918F917F916F9181
:100F70005F914F913F912F910F900BBE0F9009BE43
:100F80000F9008BE0F900FBE0F901F9018951F92E4
:100F90000F920FB60F92112408B60F9218BE09B621
:100FA0000F9219BE0BB60F921BBE2F933F934F9318
:100FB0005F936F937F938F939F93AF93BF93EF93C1
:100FC000FF93E091B521F091B621309709F0199582
:100FD000FF91EF91BF91AF919F918F917F916F9111
:100FE0005F914F913F912F910F900BBE0F9009BED3
:100FF0000F9008BE0F900FBE0F901F9018951F9274
:101000000F920FB60F92112408B60F9218BE09B6B0
:101010000F9219BE0BB60F921BBE2F933F934F93A7
:101020005F936F937F938F939F93AF93BF93EF9350
:10103000FF93E091B321F091B421309709F0199515
:10104000FF91EF91BF91AF919F918F917F916F91A0
:101050005F914F913F912F910F900BBE0F9009BE62
:101060000F9008BE0F900FBE0F901F9018951F9203
:101070000F920FB60F92112408B60F9218BE09B640
:101080000F9219BE0BB60F921BBE2F933F934F9337
:101090005F936F937F938F939F93AF93BF93EF93E0
:1010A000FF93E091B121F091B221309709F01995A9
:1010B000FF91EF91BF91AF919F918F917F916F9130
:1010C0005F914F913F912F910F900BBE0F9009BEF2
:1010D0000F9008BE0F900FBE0F901F9018951F9293
:1010E0000F920FB60F92112408B60F9218BE09B6D0
:1010F0000F9219BE0BB60F921BBE2F933F934F93C7
:101100005F936F937F938F939F93AF93BF93EF936F
:10111000FF93E091AF21F091B021309709F019953C
:10112000FF91EF91BF91AF919F918F917F916F91BF
:101130005F914F913F912F910F900BBE0F9009BE81
:101140000F9008BE0F900FBE0F901F9018951F9222
:101150000F920FB60F92112408B60F9218BE09B65F
:101160000F9219BE0BB60F921BBE2F933F934F9356
:101170005F936F937F938F939F93AF93BF93EF93FF
:10118000FF93E091AD21F091AE21309709F01995D0
:10119000FF91EF91BF91AF919F918F917F916F914F
:1011A0005F914F913F912F910F900BBE0F9009BE11
:1011B0000F9008BE0F900FBE0F901F9018951F92B2
:1011C0000F920FB60F92112408B60F9218BE09B6EF
:1011D0000F9219BE0BB60F921BBE2F933F934F93E6
:1011E0005F936F937F938F939F93AF93BF93EF938F
:1011F000FF93E091AB21F091AC21309709F0199564
:10120000FF91EF91BF91AF919F918F917F916F91DE
:101210005F914F913F912F910F900BBE0F9009BEA0
:101220000F9008BE0F900FBE0F901F9018951F9241
:101230000F920FB60F92112408B60F9218BE09B67E
:101240000F9219BE0BB60F921BBE2F933F934F9375
:101250005F936F937F938F939F93AF93BF93EF931E
:10126000FF93E091A921F091AA21309709F01995F7
:10127000FF91EF91BF91AF919F918F917F916F916E
:101280005F914F913F912F910F900BBE0F9009BE30
:101290000F9008BE0F900FBE0F901F9018951F92D1
:1012A0000F920FB60F92112408B60F9218BE09B60E
:1012B0000F9219BE0BB60F921BBE2F933F934F9305
:1012C0005F936F937F938F939F93AF93BF93EF93AE
:1012D000FF93E091A721F091A821309709F019958B
:1012E000FF91EF91BF91AF919F918F917F916F91FE
:1012F0005F914F913F912F910F900BBE0F9009BEC0
:101300000F9008BE0F900FBE0F901F901895CF93AF
:10131000DF93E091D921F091DA21848183FF08C025
:101320008860848383E0838386EF8093E32183C096
:10133000982F947131F083E083838FEF8093E321C2
:101340007AC086FF43C0C9EDD1E2AA81BB818C81FE
:101350009D8114962D913C911597821793076CF4FB
:101360009C012F5F3F4F2093DD213093DE21A80F9A
:10137000B91F11968C9187835EC08091DF21909177
:10138000E02118962D913C91199782179307C8F484
:101390002091E121222321F08681816086834BC048
:1013A00016962D913C911797AC014F5F5F4F40937C
:1013B000DF215093E021D901A80FB91F8C918783B9
:1013C0003AC083E083831092E32135C0882384F5FB
:1013D000A9EDB1E21296CD91DC91139716968D91FD
:1013E0009C9117972885398582179307D8F46E81C9
:1013F0007F819C012F5F3F4F2093DF213093E021BD
:101400004781DB01A80FB91F4C9388859985281760
:10141000390718F482E083830EC087E0838310923B
:10142000E32109C083E0838389EF8093E32103C034
:101430008BEF8093E321DF91CF9108951F920F925C
:101440000FB60F92112408B60F9218BE09B60F926C
:1014500019BE0BB60F921BBE2F933F934F935F9312
:101460006F937F938F939F93AF93BF93EF93FF936C
:101470004EDFFF91EF91BF91AF919F918F917F913F
:101480006F915F914F913F912F910F900BBE0F90F5
:1014900009BE0F9008BE0F900FBE0F901F901895B9
:1014A0001F920F920FB60F92112408B60F9218BE1A
:1014B00009B60F9219BE0BB60F921BBE2F933F9326
:1014C0004F935F936F937F938F939F93AF93BF934C
:1014D000EF93FF931CDFFF91EF91BF91AF919F912D
:1014E0008F917F916F915F914F913F912F910F90CD
:1014F0000BBE0F9009BE0F9008BE0F900FBE0F904D
:101500001F901895FC01DB0114968C91858388EB64
:10151000818381E08483E9EDF1E211861286E0EABD
:10152000F0E0828182608283789480E00895CF9396
:10153000DF931F92CDB7DEB79C01FB01892B09F425
:1015400051C0309709F450C092858091E2218823E0
:1015500019F09923F1F34AC08FB78983F8948981F0
:10156000A9EDB1E291E019969C93199790E81A962B
:101570009C931A978FBF2D933C93119712966D935E
:101580007C93139714961D921C92159716961D9294
:101590001C92179718964C938081880F64817581EF
:1015A000672B11F4411103C0F901868303C08160E8
:1015B000F9018683E9EDF1E292859038E9F3F901CA
:1015C00084818370813049F0A9EDB1E2ED91FC9105
:1015D0001197848183708130C9F7E9EDF1E282854A
:1015E000118605C088EF03C088EF01C086EF0F9019
:1015F000DF91CF910895FC01918195FFFDCF60832C
:1016000080E090E00895FC0191819923ECF78081BE
:1016100008954F925F926F927F928F929F92AF92B6
:10162000BF92EF92FF920F931F93CF937C014A01D9
:101630005B0128013901FC01848182FF16C0D901B8
:10164000C801689412F8B695A79597958795169452
:10165000D1F7B901A801032E36E176956795579524
:1016600047953A95D1F7302D15C0D901C801689436
:1016700013F8B695A795979587951694D1F7B90164
:10168000A801032E37E176956795579547953A95CA
:10169000D1F7302D88159905AA05BB0508F4A6C019
:1016A00084169506A606B70608F4A2C0F701848141
:1016B00082FD04C0880C991CAA1CBB1CC301B2018A
:1016C000A50194010E941C312F3F310541055105B0
:1016D00008F490C08FEF90E0A0E0B0E0C9EF05C043
:1016E000281739074A075B0758F0880F991FAA1F68
:1016F000BB1FCD3F0CF48160CF5FC73089F74FC06F
:10170000CC230CF04CC0D501C401880F991FAA1F2F
:10171000BB1F880F991FAA1FBB1F880F991FAA1FE5
:10172000BB1F481A590A6A0A7B0ACE3FF4F48DEFB0
:101730009FEF8C1B9109C7FD939504C0440C551C69
:10174000661C771C8A95D2F7D501C401B695A7957A
:1017500097958795BC01CD01640D751D861D971D5C
:10176000A50194010E941C3137C083E08C0FA501B4
:10177000940104C0220F331F441F551F8A95D2F7CE
:10178000DA01C901B695A79597958795BC01CD015A
:10179000640D751D861D971D0E941C311DC083E0C0
:1017A0008C0FA501940104C0220F331F441F551F45
:1017B0008A95D2F7DA01C901B695A79597958795CD
:1017C000BC01CD01640D751D861D971D0E941C3145
:1017D0002150310941095109832F8F70C295C07F73
:1017E000C82BF701C783268381E018C080E016C0AC
:1017F00080E014C0D501C401880F991FAA1FBB1F28
:10180000880F991FAA1FBB1F880F991FAA1FBB1FF4
:10181000481A590A6A0A7B0AC9EF89CFCF911F91EA
:101820000F91FF90EF90BF90AF909F908F907F901F
:101830006F905F904F9008950F931F93CF93DF9316
:10184000EC018B01009709F4D6C0803C910529F486
:1018500060E180E00E945E17CEC0C11584E0D80729
:1018600029F464E080E00E945E17C5C0C038E1E062
:10187000DE0729F462E080E00E945E17BCC0C1155B
:10188000F1E0DF0729F461E080E00E945E17B3C059
:10189000C03883E0D80729F461E081E00E945E1738
:1018A000AAC0C115E2E0DE0729F462E081E00E94EF
:1018B0005E17A1C0C032F3E0DF0729F464E082E0E4
:1018C0000E945E1798C0C11588E0D80729F461E02E
:1018D00083E00E945E178FC0C115E9E0DE0729F49E
:1018E00061E084E00E945E1786C0C115FAE0DF0760
:1018F00029F461E085E00E945E177DC0C03488E075
:10190000D80729F462E083E00E945E1774C0C034F7
:10191000E9E0DE0729F462E084E00E945E176BC014
:10192000C039F8E0DF0729F464E083E00E945E1725
:1019300062C0C03989E0D80729F464E084E00E94DD
:101940005E1759C0C039EAE0DE0729F464E085E09B
:101950000E945E1750C0C03CF8E0DF0729F468E041
:1019600083E00E945E1747C0C03C89E0D80729F495
:1019700068E084E00E945E173EC0C03AE8E0DE07FF
:1019800029F460E183E00E945E1735C0C03AF9E0B7
:10199000DF0729F460E184E00E945E172CC0C03AA2
:1019A0008AE0D80729F460E185E00E945E1723C031
:1019B000C03BE8E0DE0729F460E283E00E945E17A6
:1019C0001AC0C03BF9E0DF0729F460E284E00E941E
:1019D0005E1711C0C03884E0D80729F460E483E0C2
:1019E0000E945E1708C0C03AE4E0DE0721F460E41C
:1019F00085E00E945E178D818F738D83F80195813C
:101A00008481892B9681911198E0892B8D83F8012F
:101A1000408151816281738100E018E428EE31E059
:101A2000CE01F7DD9C8198609C839C8190619C83B2
:101A3000DF91CF911F910F9108951F93CF93DF9363
:101A400000D01F92CDB7DEB719821A821B821C828A
:101A50008093E4219093E521DC011996ED91FC91AE
:101A60001A9721E0AE014E5F5F4F67E018968C91A8
:101A70001995182FA091E421B091E5211B96ED91C5
:101A8000FC911C9721E0AE014F5F5F4F60E018961C
:101A90008C911995180FA091E421B091E5218981CD
:101AA0008C931B96ED91FC911C9721E0AE014F5F4A
:101AB0005F4F61E018968C911995180FA091E42161
:101AC000B091E521898114968C9314971B96ED9122
:101AD000FC911C9721E0AE014F5F5F4F62E01896CA
:101AE0008C911995180FA091E421B091E52189817D
:101AF00015968C9315971B96ED91FC911C9721E000
:101B0000AE014F5F5F4F63E018968C911995180FE7
:101B1000A091E421B091E521898116968C931697C6
:101B20001B96ED91FC911C9721E0AE014F5F5F4F3A
:101B300066E018968C911995180FA091E421B09148
:101B4000E521898117968C9317971B96ED91FC914F
:101B50001C9722E0AE014D5F5F4F64E018968C91B8
:101B60001995180FA091E421B091E5218C8190E0A6
:101B7000982F88272B81822B11968D939C931297F7
:101B80001B96ED91FC911C9721E0AE014F5F5F4FDA
:101B900067E018968C911995E091E421F091E52188
:101BA00099819383810F2496CDBFDEBFDF91CF91C2
:101BB0001F910895A091E421B091E521109759F06B
:101BC000242FAB01682F1996ED91FC911A97189666
:101BD0008C911995089581E808951F93CF93DF9311
:101BE0001F92CDB7DEB71982A091E421B091E52113
:101BF000109741F1182F1B96ED91FC911C9721E055
:101C0000AE014F5F5F4F67E018968C911995811177
:101C10001BC01983A091E421B091E5211996ED91A3
:101C2000FC911A9721E0AE014F5F5F4F67E0189675
:101C30008C911995811109C0E091E421F091E52181
:101C4000138303C081E801C08FEF0F90DF91CF9124
:101C50001F9108950F931F93CF93DF9300D000D06F
:101C6000CDB7DEB78C01FE01319696E0DF011D9203
:101C70009A95E9F7E091E421F091E521309709F494
:101C80003EC08381882359F080E0A7DF882339F0A4
:101C9000E091E421F091E5218381811132C0A0918E
:101CA000E421B091E5211B96ED91FC911C9726E073
:101CB000AE014F5F5F4F6AE118968C9119952A81AA
:101CC000022E000C330B322F22279981292BF80189
:101CD000208331832C81022E000C330B322F2227DC
:101CE0009B81292B228333832E81022E000C330B00
:101CF000322F22279D81292B2483358303C081E83D
:101D000001C08FEF2696CDBFDEBFDF91CF911F912F
:101D10000F9108950F931F93CF93DF9300D000D0BE
:101D2000CDB7DEB78C01FE01319696E0DF011D9242
:101D30009A95E9F7E091E421F091E521309709F4D3
:101D40003EC08381882359F080E047DF882339F043
:101D5000E091E421F091E5218381811132C0A091CD
:101D6000E421B091E5211B96ED91FC911C9726E0B2
:101D7000AE014F5F5F4F68E218968C9119952A81EA
:101D8000022E000C330B322F22279981292BF801C8
:101D9000208331832C81022E000C330B322F22271B
:101DA0009B81292B228333832E81022E000C330B3F
:101DB000322F22279D81292B2483358303C081E87C
:101DC00001C08FEF2696CDBFDEBFDF91CF911F916F
:101DD0000F910895FF920F931F93CF93DF9300D03D
:101DE00000D0CDB7DEB78C0119821A821B821C820B
:101DF0001D821E82CE0101968DDFF82E81113AC020
:101E000069817A81072E000C880B990B0E941C2E89
:101E100020E030E048EC52E40E94472DF801608356
:101E20007183828393836B817C81072E000C880BE6
:101E3000990B0E941C2E20E030E048EC52E40E94F6
:101E4000472DF80164837583868397836D817E8136
:101E5000072E000C880B990B0E941C2E20E030E00E
:101E600048EC52E40E94472DF80160877187828711
:101E7000938702C0FF24FA948F2D2696CDBFDEBF34
:101E8000DF91CF911F910F91FF9008950F931F93B2
:101E9000CF93DF931F92CDB7DEB71982E091E42193
:101EA000F091E521309721F18C018381882359F04D
:101EB00080E093DE882339F0E091E421F091E52180
:101EC0008381811117C0A091E421B091E5211B9677
:101ED000ED91FC911C9721E0AE014F5F5F4F65E3F0
:101EE00018968C91199599819370F801908303C08D
:101EF00081E801C08FEF0F90DF91CF911F910F917B
:101F000008950F931F93CF93DF931F92CDB7DEB742
:101F10001982E091E421F091E521309749F18C019B
:101F20008381882359F080E058DE882339F0E091DE
:101F3000E421F091E521838181111CC0A091E4216D
:101F4000B091E5211B96ED91FC911C9721E0AE012B
:101F50004F5F5F4F65E318968C91199529812C701E
:101F600030E03595279535952795F801208303C0F6
:101F700081E801C08FEF0F90DF91CF911F910F91FA
:101F800008950F931F93CF93DF931F92CDB7DEB7C2
:101F90001982E091E421F091E521309769F18C01FB
:101FA0008381882359F080E018DE882339F0E0919E
:101FB000E421F091E5218381811120C0A091E421E9
:101FC000B091E5211B96ED91FC911C9721E0AE01AB
:101FD0004F5F5F4F65E318968C91199529812073A7
:101FE00030E0359527953595279535952795359585
:101FF0002795F801208303C081E801C08FEF0F907F
:10200000DF91CF911F910F9108950F931F93CF935D
:10201000DF931F92CDB7DEB71982E091E421F091F2
:10202000E521309739F18C018381882359F080E0D4
:10203000D4DD882339F0E091E421F091E52183811A
:1020400081111AC0A091E421B091E5211B96ED9178
:10205000FC911C9721E0AE014F5F5F4F65E318963E
:102060008C91199599819295969596959370F80112
:10207000908303C081E801C08FEF0F90DF91CF9173
:102080001F910F9108950F931F93CF93DF931F928A
:10209000CDB7DEB71982E091E421F091E5213097C8
:1020A00031F18C018381882359F080E096DD88230B
:1020B00039F0E091E421F091E5218381811119C08B
:1020C000A091E421B091E5211B96ED91FC911C9724
:1020D00021E0AE014F5F5F4F6BE318968C9119952D
:1020E000998192FB992790F9F801908303C081E8C8
:1020F00001C08FEF0F90DF91CF911F910F91089545
:102100000F931F93CF93DF931F92CDB7DEB7198242
:10211000E091E421F091E521309721F18C01838158
:10212000882359F080E059DD882339F0E091E421DB
:10213000F091E5218381811117C0A091E421B09134
:10214000E5211B96ED91FC911C9721E0AE014F5FBC
:102150005F4F6DE318968C91199599819F70F801E6
:10216000908303C081E801C08FEF0F90DF91CF9182
:102170001F910F9108950F931F93CF93DF931F9299
:102180001F92CDB7DEB719821A822091E4213091D7
:10219000E521232B09F49CC0082FCE010296B0DF65
:1021A000811198C08A81811135C0A091E421B0913C
:1021B000E5211B96ED91FC911C9721E0AE014F5F4C
:1021C0005F4F6DE318968C911995811185C08981B7
:1021D000982F907F802F8F70892B8983A091E42185
:1021E000B091E5211996ED91FC911A9721E0AE018D
:1021F0004F5F5F4F6DE318968C911995182FE09102
:10220000E421F091E5210584F685E02D88E592E052
:10221000199565C0A091E421B091E5211B96ED913F
:10222000FC911C9721E0AE014F5F5F4F6DE3189664
:102230008C911995182F811114C08981807F898311
:1022400041E0BE016F5F7F4F8DE3B4DC182FE0915A
:10225000E421F091E5210584F685E02D84E190E00C
:1022600019950023E1F1A091E421B091E5211B969D
:10227000ED91FC911C9721E0AE014F5F5F4F6DE344
:1022800018968C911995811129C08981982F907F7A
:10229000802F8F70892B8983A091E421B091E52153
:1022A0001996ED91FC911A9721E0AE014F5F5F4FB7
:1022B0006DE318968C911995182FE091E421F09117
:1022C000E5210584F685E02D88E592E0199507C0A3
:1022D00011E805C01FEF03C0182F01C0182F812F70
:1022E0000F900F90DF91CF911F910F9108950F9351
:1022F0001F93CF93DF931F921F92CDB7DEB7198242
:102300001A822091E4213091E521232B09F444C065
:10231000082FCE010296F4DE811135C08A81882310
:1023200021F080E028DF811130C0A091E421B0913C
:10233000E5211B96ED91FC911C9721E0AE014F5FCA
:102340005F4F6BE318968C911995182F81111EC061
:102350008981982F9B7F802F880F880F8470892B0D
:102360008983A091E421B091E5211996ED91FC912A
:102370001A9721E0AE014F5F5F4F6BE318968C9187
:102380001995182F03C01FEF01C01FEF8A81882302
:1023900029F0F1DE810F03C081E801C0812F0F9089
:1023A0000F90DF91CF911F910F910895EF92FF92BF
:1023B0001F93CF93DF93CDB7DEB72797CDBFDEBF97
:1023C0007C0119821A821B821C821D821E821F823E
:1023D000CE01079658DE182F8F81882319F080E0F0
:1023E00086DF180F11113FC0CE01019633DC811139
:1023F0003CC069817A81072E000C880B990B0E94E2
:102400001C2E20E030E040E85DE30E94632FF701DE
:1024100060837183828393836D817E81072E000C9C
:10242000880B990B0E941C2E20E030E040E85DE311
:102430000E94632FF70160877187828793876B8182
:102440007C81072E000C880B990B0E941C2E20E02B
:1024500030E040E85DE30E94632FF70164837583F9
:102460008683978303C01FEF01C01FEF812F27963C
:10247000CDBFDEBFDF91CF911F91FF90EF90089508
:102480000F931F93CF93DF931F921F92CDB7DEB7A9
:1024900019821A822091E4213091E521232B09F43D
:1024A00042C0082FCE0102962BDE811133C08A81F3
:1024B000882321F080E05FDE81112EC0A091E4210D
:1024C000B091E5211B96ED91FC911C9721E0AE01A6
:1024D0004F5F5F4F6EE318968C911995182F8111FD
:1024E0001CC08981982F9C7F802F8370892B8983C2
:1024F000A091E421B091E5211996ED91FC911A97F4
:1025000021E0AE014F5F5F4F6EE318968C911995F5
:10251000182F03C01FEF01C01FEF8A81882329F005
:102520002ADE810F03C081E801C0812F0F900F9038
:10253000DF91CF911F910F91089504C061507109EF
:10254000810991096115710581059105B9F7089512
:10255000AF92BF92CF92DF92EF92FF920F931F93B1
:10256000CF93DF930097D1F1A12C0F2EF8E4BF2E6B
:10257000F02D0F2EF8EECF2EF02DDD24D394E12C8C
:10258000F12C00E010E0282F392F40E050E060E00F
:1025900070E080E090E00E947C310F2EF6E0AF2EDC
:1025A000F02DB12CC12CD12C0E94CF3129513C4FA0
:1025B0004F4F5F4F6F4F7F4F8F4F9F4F0E94572E50
:1025C00020E030E04AE754E40E94472D0E94B42DF9
:1025D000622F732F842F952FB0DF05C066E070E067
:1025E00080E090E0AADFDF91CF911F910F91FF90E3
:1025F000EF90DF90CF90BF90AF900895CF92DF9291
:10260000FF920F931F93CF93DF93CDB7DEB7CB54D9
:10261000D109CDBFDEBFF82E062F6A01122F22305E
:1026200040F085E590E29F938F930E94B5320F9022
:102630000F901982F60180818A83015023960FAF93
:10264000239781E090E027968EAF9FAF2797229641
:10265000FFAE2297CE01019629968EAF9FAF2997A4
:102660001F5F212F30E02B962EAF3FAF2B972C967C
:102670001FAE2C9740E0BE016F5B7F4F80E894E077
:102680000E94970AC55BDF4FCDBFDEBFDF91CF91C0
:102690001F910F91FF90DF90CF900895AF92BF925E
:1026A000DF92EF92FF920F931F93CF93DF93CDB7FB
:1026B000DEB7CB54D109CDBFDEBF5A01AE014F5FAB
:1026C0005F4F7A0190E4FA0111929A95E9F7239607
:1026D0006FAF239741E050E027964EAF5FAF27974B
:1026E00022968FAF22972996EEAEFFAE2997022F42
:1026F00010E02B960EAF1FAF2B972C961FAE2C978A
:10270000BE016F5B7F4F80E894E00E94970AD82E4D
:10271000A801B701C5010E9462328D2DC55BDF4F54
:10272000CDBFDEBFDF91CF911F910F91FF90EF9052
:10273000DF90BF90AF9008950F931F93CF93DF93D7
:10274000CDB7DEB72A97CDBFDEBF8E010F5F1F4F1B
:1027500089E0F80111928A95E9F780E89AE1A6E00C
:10276000B0E089839A83AB83BC8383E290E0A0E0EE
:10277000B0E08D839E83AF83B88760E483E09ED30F
:10278000B80180E894E00E94820AE0E8F4E08181E8
:1027900088608183E1E5F2E28EEF92E181879287A2
:1027A0008EE493E18387948788EA92E18587968710
:1027B00088E28087CF0141D9882381F0282F082E15
:1027C000000C330B3F938F938BED90E29F938F938D
:1027D0000E94B5320F900F900F900F9080E050DE66
:1027E0008CE0C9DC182F1A86CE010A9689DC8A850E
:1027F0008C3099F0212F012E000C330B3F931F9347
:102800001F929CE09F931F928F938FEF90E29F9374
:102810008F930E94B532CDBFDEBF2A96CDBFDEBFFB
:10282000DF91CF911F910F91089580E692E2D2DA65
:102830008CE692E2BBDD89E792E263DB8BE792E212
:10284000A0DB88E792E222DB8AE792E2DECB089502
:102850006091702270917122809172229091732206
:1028600008956091742270917522809176229091E2
:102870007722089560916C2270916D2280916E2272
:1028800090916F220895E0E0F6E0948188E0892736
:1028900084830895E0E0F6E080818860808384810D
:1028A00088608483F0CF0895FF920F931F93CF9396
:1028B000DF9362E081E002D3C0E0D2E0FF24F39432
:1028C000F882198280E18A8385E08C8361E270E07E
:1028D00082E01FD3082F10E0102F002760E270E085
:1028E00082E017D3082B0C871D87F8A280E389A309
:1028F000DF91CF911F910F91FF900895E0E0F2E0FA
:1029000080A1806880A383A18823E9F380912402B9
:10291000909125020895CF93DF93CDB7DEB7279727
:10292000CDBFDEBF60E284E0C9D2E0E6F6E08081A0
:1029300080688083E6E0F0E284818D8385818E83E8
:1029400086818F8380819181A281B38189839A83DB
:10295000AB83BC8360E284E0B1D2BE016F5F7F4F86
:1029600080EB99E00E941C0C2796CDBFDEBFDF9163
:10297000CF91089504C061507109810991096115D1
:10298000710581059105B9F70895E0E4F6E09481B9
:1029900080E1892784830895E0E4F6E08481806102
:1029A0008483F3DF8EE1B9D060E87EE380E090E0DD
:1029B000E1DFEBDF6BEA79E280E090E0DBCF0895C6
:1029C000CF93DF93C82FE1DF8C2FA7D097D0C82FEC
:1029D000D0E0DC2FCC2792D0C82BD7DFCE01DF91FF
:1029E000CF910895CF93DF9300D01F92CDB7DEB77C
:1029F00019821A821B821C82C8DF88E48ED066E5A9
:102A000070ED80E090E0B6DFC0DFBFDF80E085D012
:102A100075D090E0A0E0B0E0DC0199278827898399
:102A20009A83AB83BC836AD049815A816B817C8154
:102A3000582B49835A836B837C8360D049815A81A8
:102A40006B817C81482B49835A836B837C839DDF18
:102A500069817A818B819C812496CDBFDEBFDF9115
:102A6000CF910895CF93DF9300D01F92CDB7DEB7FB
:102A700019821A821B821C8288DF88E54ED066E5A7
:102A800070ED80E090E076DF80DF7FDF80E045D092
:102A900035D090E0A0E0B0E0DC0199278827898359
:102AA0009A83AB83BC832AD049815A816B817C8114
:102AB000582B49835A836B837C8320D049815A8168
:102AC0006B817C81482B49835A836B837C835DDFD8
:102AD00069817A818B819C812496CDBFDEBFDF9195
:102AE000CF910895E0E4F6E08081806B808368E018
:102AF00083E0E4D180E58093C00808959FB7F894FF
:102B00008FEF8093C308E0ECF8E082818823ECF734
:102B100078949FBF8091C30808959FB7F8948093DD
:102B2000C308E0ECF8E082818823ECF778949FBF3B
:102B30000895CF93DF93EB010E94030B8883DF910D
:102B4000CF9108950C94FB0A0895CF93DF93CDB7EE
:102B5000DEB72797CDBFDEBF60E185E0AFD1E0E80B
:102B6000F6E080818860808380EA9AE080934D223D
:102B700090934E2282EA95E180934B2290934C22CF
:102B800089E995E18093492290934A22EDE0F0E2B1
:102B900084818D8385818E8386818F8380819181DD
:102BA000A281B38189839A83AB83BC8360E185E092
:102BB00085D1BE016F5F7F4F80EA9AE00E941C0CB6
:102BC0006FE771E088E991E00E946B322796CDBFF4
:102BD000DEBFDF91CF910895FF920F931F93CF93A4
:102BE000DF9362E081E06AD1C0E0D2E0FF24F39499
:102BF000F882198280E18A8385E08C8361E270E04B
:102C000082E087D1082F10E0102F002760E270E0EB
:102C100082E07FD1082B0C871D87F8A688E389A75F
:102C2000DF91CF911F910F91FF900895E0E0F2E0C6
:102C300080A5806880A783A58823E9F380912C0272
:102C400090912D020895CF93DF93FC01411551051A
:102C5000B1F180E090E020E0880F991FDB01A80F20
:102C6000B91F8D919C91A281B381AA0FBB1FC68110
:102C7000D781AC0FBD1F8D939C9382819381019668
:102C800082839383A081B1818A179B0711F41282FA
:102C9000138282819381C481D5818C179D0749F469
:102CA0000196A817B90719F08483958302C014828E
:102CB00015822F5F822F90E08417950768F2DF91CD
:102CC000CF910895FC0112821382148215826683CB
:102CD0007783408351830895DC011296ED91FC9136
:102CE0001397CB010196E817F90778F0E150F04807
:102CF000E61BF70BEE0FFF1F16968D919C91179711
:102D0000E80FF91F8081918108952D913C911197D1
:102D1000E20FF31FE150F048E61BF70BEE0FFF1F29
:102D200016968D919C911797E80FF91F80819181DC
:102D30000895CF92DF92EF92FF92CF93DF93FC0141
:102D40004115510509F43FC080E090E020E0880F74
:102D5000991F880F991FDB01A80FB91FCD90DD9037
:102D6000ED90FC90A281B381AA0FBB1FAA0FBB1FDD
:102D700086819781A80FB91FCD92DD92ED92FC92CA
:102D8000139782819381019682839383A081B1817D
:102D90008A179B0711F41282138282819381C48166
:102DA000D5818C179D0749F40196A817B90719F02A
:102DB0008483958302C0148215822F5F822F90E056
:102DC0008417950720F2DF91CF91FF90EF90DF906D
:102DD000CF900895FC0112821382148215826683BB
:102DE0007783408351830895DC011296ED91FC9125
:102DF0001397CB010196E817F90798F0E150F04CD2
:102E0000E61BF70BEE0FFF1FEE0FFF1F16968D91BF
:102E10009C911797E80FF91F6081718182819381DE
:102E200008952D913C911197E20FF31FE150F04C62
:102E3000E61BF70BEE0FFF1FEE0FFF1F16968D918F
:102E40009C911797E80FF91F6081718182819381AE
:102E50000895CF93DF931F921F92CDB7DEB78FEF08
:102E60008093700080937100809372008093730050
:102E70008093740080937500809376008FB78A8367
:102E8000F8949A81E0E5F0E08081826080839FBFC2
:102E9000818181FFFDCF61E080E490E044D08FB775
:102EA0008983F8949981E0E5F0E080818E7F8083CA
:102EB0009FBF0F900F90DF91CF910895CF93DF9335
:102EC0001F92CDB7DEB79FB79983F8949981E82F09
:102ED000F0E0E059FF4F60958081682360839FBFD9
:102EE0000F90DF91CF910895CF93DF931F92CDB7CD
:102EF000DEB79FB79983F8949981E82FF0E0E05905
:102F0000FF4F8081682B60839FBF0F90DF91CF912F
:102F100008954091CA01E62FF72F8093CA0184914A
:102F20004093CA0108951BBEFC0128ED24BF6083B5
:102F3000089504C0615071098109910961157105F5
:102F400081059105B9F70895809128229091292251
:102F5000019680932822909329220895CF93DF939E
:102F60001BDD82EA90E02CDDC3E3D2E28883998303
:102F700084EA90E025DD8A839B8386EA90E020DD69
:102F80008C839D8388EA90E01BDD8E839F838AEA91
:102F900090E016DD888799878CEA90E011DD8A87BA
:102FA0009B87DF91CF910895B6DC6BEA79E280E0F0
:102FB00090E0BFDF80E38093B309089560E483E08D
:102FC0007DDF60E483E07ADFB7DB2FDC41DC6093F8
:102FD0002A2270932B2280932C2290932D2241DC65
:102FE00060932120709322208093232090932420AB
:102FF00041DC60932E2270932F2280933022909395
:1030000031220895CF93DF9300D01F92CDB7DEB762
:1030100084E0FE013196DF01982F1D929A95E9F721
:1030200089838DE28B838FE28A83E0E8F3E08081FD
:103030008860808364EA77E180E893E00E9413036C
:103040008981982F906C99839C81292F207321F07E
:103050009C7F92609C8303C08F70806E8983AE01D9
:103060004F5F5F4F60E080E893E00E94740260E091
:1030700080E893E00E94CB022496CDBFDEBFDF91B3
:10308000CF9108954F925F926F927F928F929F920D
:10309000AF92BF92CF92DF92EF92FF92CF93DF93E6
:1030A000A1DC6B017C01DEDC0E941A2E4B015C016D
:1030B000C3E3D2E26885798580E090E00E941A2E11
:1030C00020E030E040E853E40E94632F9B01AC0114
:1030D000C501B4010E94DE2C4B015C016C817D8135
:1030E00080E090E00E941A2EA50194010E94632FB7
:1030F00020E030E040E05CE30E94632F2B013C01C4
:103100006881798180E090E00E941A2E20E030E012
:1031100040E857E40E94632F9B01AC01C301B20158
:103120000E94DF2C2B013C01C701B6010E941A2E20
:103130009B01AC01C301B2010E94632F20E030E08B
:1031400040E055E30E94632F6B017C016E817F811B
:1031500080E090E00E941A2EA50194010E94632F46
:1031600020E030E040E85CE30E94632F4B015C010B
:103170006A817B8180E090E00E941A2E20E030E09E
:1031800040E058E40E94632F9B01AC01C501B401EB
:103190000E94DF2C9B01AC01C701B6010E94DE2C0E
:1031A00020E030E040E058E30E94632FDF91CF91B0
:1031B000FF90EF90DF90CF90BF90AF909F908F9057
:1031C0007F906F905F904F9008954F925F926F92B3
:1031D0007F928F929F92AF92BF92CF92DF92EF92A7
:1031E000FF92CF93DF931F921F92CDB7DEB786DB9E
:1031F00089839A8369817A8180E090E00E941A2E07
:103200002091192030911A2040911B2050911C20B0
:103210000E94632F20911520309116204091172095
:10322000509118200E94DF2C6B017C019B01AC01A6
:1032300063E373E383E590E40E94DE2C20E030E456
:103240004EE455E40E94632FA70196010E94472D8A
:1032500020E030E44CE156E40E94472D0E94232FE9
:103260006B017C0120E030E040E450E40E94C62F76
:103270004B015C0121EF3BEB46E859E3C701B60186
:103280000E94632F2DE03FEC4BE55BE30E94DF2CB7
:103290002B013C01A7019601C701B6010E94632FD3
:1032A00022E835ED4FE256E30E94632F9B01AC010B
:1032B000C301B2010E94DF2C6B017C012AE633E1DD
:1032C00049E853E3C501B4010E94632F9B01AC019F
:1032D000C701B6010E94DF2C9B01AC0160E070E0E9
:1032E00080E89FE30E94472D0F900F90DF91CF91D0
:1032F000FF90EF90DF90CF90BF90AF909F908F9016
:103300007F906F905F904F9008954F925F926F9271
:103310007F928F929F92AF92BF92CF92DF92EF9265
:10332000FF922B013C01C0902920D0902A20E090F0
:103330002B20F0902C2020912D2030912E20409198
:103340002F2050913020C701B6010E94632F209199
:1033500025203091262040912720509128200E943E
:10336000472D4B015C01A3019201609135207091C2
:10337000362080913720909138200E94472DA5015A
:1033800094010E94C62F20E030E040E85FE30E94F5
:10339000DE2C209131203091322040913320509109
:1033A00034200E94632FA70196010E94472DFF90B1
:1033B000EF90DF90CF90BF90AF909F908F907F90D5
:1033C0006F905F904F900895CF92DF92EF92FF92AF
:1033D0002DDCBC0180E090E00E941A2E2091192083
:1033E00030911A2040911B2050911C200E94632F85
:1033F00020911520309116204091172050911820CF
:103400000E94DF2C6B017C0120E030ED48EE56E499
:103410000E94632F20E030E24BE456E40E94472DE7
:103420009B01AC01C701B6010E94DF2CFF90EF9019
:10343000DF90CF9008952F923F924F925F926F92BC
:103440007F928F929F92AF92BF92CF92DF92EF9234
:10345000FF920F931F93CF93DF9300D000D0CDB78F
:10346000DEB76C0180911420882309F46CC000E061
:1034700010E0412C512C3201862E912CA12CB12C24
:1034800089829A82AB82BC82B801C60125DC5C01CC
:1034900018012FEF221A320AB101C6011DDC7C018E
:1034A000B8016E5F7F4FC60117DCA501BB0C660B30
:1034B000770B8A019B01000F111F221F331F400F42
:1034C000511F621F731F8701FF0C220B330B780102
:1034D0008901EE0CFF1C001F111FEE0CFF1C001FCA
:1034E000111F4A015B018E189F08A00AB10AAC01A6
:1034F000990F660B770BD501C401840F951FA61F8A
:10350000B71F9C01AD0169817A818B819C810E94EA
:10351000E6300E941C2E20E030E040E05FE30E9495
:10352000632F9B01AC01C301B2010E94DF2C2B0170
:103530003C01809114208101282F30E022163306AF
:1035400008F4A2CF03C0412C512C3201682F70E047
:1035500080E090E00E941C2E9B01AC01C301B201EF
:103560000E94472D20E030E048EC52E40E94472DB5
:103570002696CDBFDEBFDF91CF911F910F91FF90B7
:10358000EF90DF90CF90BF90AF909F908F907F9003
:103590006F905F904F903F902F9008953F924F9281
:1035A0005F926F927F928F929F92AF92BF92CF92D3
:1035B000DF92EF92FF920F931F93CF93DF9300D090
:1035C00000D0CDB7DEB78C0119821A82C12CD12C64
:1035D000760169817A81C80107DC4B015C0121E633
:1035E000821A2EEA920A2AE0A20AB1082FE782166E
:1035F0002AE1920626E0A206B10480F40E941C2E65
:1036000020E030E040EA50E40E94472D9B01AC01ED
:10361000C701B6010E94DF2C6B017C0189819A8170
:10362000019689839A830597A1F619821A82812CC3
:10363000912C540169817A81C801D6DB2B013C01B0
:1036400021E6421A2EEA520A2AE0620A71082FE79E
:1036500042162AE1520626E06206710490F40E94A6
:103660001C2EA70196010E94DE2C9B01AC010E943A
:10367000632F9B01AC01C501B4010E94DF2C4B01FB
:103680005C0189819A81019689839A83059791F6D5
:1036900020E030E040E85EE3C501B4010E94632F02
:1036A00069837A838B839C831D821E82312C412CFB
:1036B000512C32016D817E81C80196DB4B015C018A
:1036C00021E6821A2EEA920A2AE0A20AB1082FE71E
:1036D00082162AE1920626E0A206B10450F50E9465
:1036E0001C2E4B015C01A70196010E94DE2C0E945A
:1036F000E92D9B01772324F422273327261B370B40
:10370000B901330F880B990B0E941C2E9B01AC0151
:1037100069817A818B819C810E941A2F88234CF0C9
:10372000A5019401C301B2010E94DF2C2B013C01D1
:1037300033948D819E8101968D839E83059709F038
:10374000B9CF332069F0632D70E080E090E00E94F3
:103750001A2E9B01AC01C301B2010E94472D04C087
:1037600060E070E080E89FEB2696CDBFDEBFDF9182
:10377000CF911F910F91FF90EF90DF90CF90BF906E
:10378000AF909F908F907F906F905F904F903F9001
:103790000895AF92BF92CF92DF92EF92FF920F9374
:1037A0001F93CF93DF9300D000D0CDB7DEB75C017D
:1037B0008B0168DC20E030E040E251E40E94632F9E
:1037C0000E94E92D69837A838B839C8341E050E0DA
:1037D000BE016F5F7F4FC801ACDAC801DFDE20E0B9
:1037E00030E040E251E40E94472D6B017C0120E073
:1037F00030E040E85FEB0E94432D8823D1F1C09276
:103800001822D0921922E0921A22F0921B22C701AC
:10381000B6017BDD609310227093112280931222F7
:1038200090931322609110227091112280911222A4
:103830009091132220E030E048EC52E40E94632F84
:103840000E94E92D6D837E8341E050E0BE016B5FF5
:103850007F4FC501F8D960911F2070912020C501CC
:10386000EADD609308227093092280930A229093E4
:103870000B22ABDC609314227093152280931622E6
:1038800090931722A1DD60930C2270930D228093F8
:103890000E2290930F222696CDBFDEBFDF91CF91EF
:1038A0001F910F91FF90EF90DF90CF90BF90AF905E
:1038B00008952F923F924F925F926F927F928F92D4
:1038C0009F92AF92BF92CF92DF92EF92FF920F93AF
:1038D0001F93CF93DF9300D000D0CDB7DEB71C018C
:1038E0000E9415140E94281420912A2230912B2224
:1038F00040912C2250912D220E94DE2C6B017C01E4
:103900000E943114209121203091222040912320C7
:10391000509124200E94DE2C4B015C010E943A143D
:1039200020912E2230912F2240913022509131222D
:103930000E94DE2C2B013C01C701B6010E94E92D3B
:103940008B01772324F400271127061B170B053B57
:10395000110514F120E030E044EB53E4C701B60157
:103960000E94632F6B837C838D839E83B801110F2C
:10397000880B990B0E941C2E9B01AC016B817C81F2
:103980008D819E810E94472D9B01AC01C701B6012C
:103990000E94DE2C6B017C01C501B4010E94E92D5F
:1039A0008B01772324F400271127061B170B0B35F7
:1039B000110514F120E030E044E353E4C501B40103
:1039C0000E94632F6B837C838D839E83B801110FCC
:1039D000880B990B0E941C2E9B01AC016B817C8192
:1039E0008D819E810E94472D9B01AC01C501B401D0
:1039F0000E94DE2C4B015C01C301B2010E94E92D43
:103A00008B01772324F400271127061B170B053B96
:103A1000110514F120E030E044EB53E4C301B2019E
:103A20000E94632F6B837C838D839E83B801110F6B
:103A3000880B990B0E941C2E9B01AC016B817C8131
:103A40008D819E810E94472D9B01AC01C301B20173
:103A50000E94DE2C2B013C01C701B6010E94E92D1A
:103A60006D547F4F67367140E8F5C501B4010E947F
:103A7000E92D675A7F4F633B7105A0F5C301B20181
:103A80000E94E92D6D547F4F6736714058F5C09202
:103A9000EE21D092EF21E092F021F092F12180927C
:103AA000F2219092F321A092F421B092F52140925C
:103AB000E6215092E7216092E8217092E92120E00E
:103AC00030E048EC52E4C301B2010E94632F0E942F
:103AD000E92D69837A8341E050E0BE016F5F7F4F3B
:103AE000C101B1D82696CDBFDEBFDF91CF911F9126
:103AF0000F91FF90EF90DF90CF90BF90AF909F908D
:103B00008F907F906F905F904F903F902F9008958F
:103B100080914222813081F138F0823009F455C021
:103B2000833009F4F4C07CC06091082270910922AE
:103B300080910A2290910B2220E030E040EA50E48C
:103B40000E94432D88230CF0E2C0609110227091F6
:103B50001122809112229091132220E030E041EE58
:103B600053E40E941A2F18160CF0D1C08091422203
:103B70008F5F8093422208956091082270910922FC
:103B800080910A2290910B2220E030E040EA50E43C
:103B90000E94432D882384F4609110227091112299
:103BA000809112229091132220E030E041EE53E404
:103BB0000E94432D88231CF081E080934122809154
:103BC00042228F5F80934222089560910822709173
:103BD000092280910A2290910B220E94E92D9B01DB
:103BE000772324F422273327261B370B2530310572
:103BF0008CF060911022709111228091122290918C
:103C0000132220E030E040E251E40E94432D88235B
:103C10000CF07DC0809142228F5F809342220895F4
:103C2000609108227091092280910A2290910B22C2
:103C300020E030E040EA50E40E941A2F181614F4F5
:103C400010924222609110227091112280911222D2
:103C50009091132220E030E041EE53E40E941A2FAD
:103C600018169CF4609108227091092280910A2212
:103C700090910B2220E030E040EA50E40E94432D76
:103C800088231CF481E0809342226091102270917D
:103C90001122809112229091132220E030E041EE17
:103CA00053E40E94432D88233CF4809141228823D1
:103CB00019F082E0809342226091082270910922DB
:103CC00080910A2290910B220E94E92D9B0177237B
:103CD00024F422273327261B370B25303105BCF46B
:103CE00060911022709111228091122290911322E2
:103CF00020E030E040E251E40E94432D88233CF470
:103D000080914122882319F083E080934222089514
:103D100061E084E0D3D864E084E0D0D8E0E6F6E067
:103D2000808181608083E0E0F9E085E0808383E149
:103D3000818380E197E286A397A386A197A1885506
:103D4000924080A791A70895E0E0F6E0808184602A
:103D50008083848184608483E0E6F6E080818660ED
:103D60008083E0E0F9E081818066818386A197A16C
:103D70008E5E924082A793A786A197A18E5E924005
:103D800084A795A708958F929F92AF92BF92CF92EA
:103D9000DF92EF92FF920F931F93CF93DF937C01FB
:103DA000C0E0D0E000E010E0BE01C7010E946C1648
:103DB000080F191F2196CA30D105B1F760E070E0F5
:103DC000C7010E946C16EC0160911F2070912020A9
:103DD000C70131DB6B017C01BE01DD0F880B990B44
:103DE0000E941C2E20E030E048EC52E40E94472D57
:103DF0004B015C01B801110F880B990B0E941C2E1E
:103E000020E030E048EC52E40E94472D9B01AC01D9
:103E1000C501B4010E94DF2CA70196010E94DE2C8F
:103E20000E94E92D7F936F938FE991E29F938F9387
:103E30000E94B5320F900F900F900F90DF91CF91AD
:103E40001F910F91FF90EF90DF90CF90BF90AF90B8
:103E50009F908F90089561E085E030D8E0E0FAE02F
:103E600087E0808381E19AE786A397A381E0868338
:103E70000895CF92DF92EF92FF9280912822909145
:103E80002922C090EA21D090EB21E090EC21F09023
:103E9000ED212CE3289FB001299F700D112480E0B3
:103EA00090E00E941A2EA70196010E94DF2C20E0CC
:103EB00030E040E05FE30E94632F6093EA2170935B
:103EC000EB218093EC219093ED2110922822109207
:103ED0002922FF90EF90DF90CF90089580911822D3
:103EE00090911922A0911A22B0911B228093352023
:103EF00090933620A0933720B093382066D96093F2
:103F00003120709332208093332090933420089591
:103F10000E94281460932A2270932B2280932C22D3
:103F200090932D220E9431146093212070932220BF
:103F300080932320909324200E943A1460932E2291
:103F400070932F2280933022909331220895C6DF00
:103F5000DFCF0895E0E0F9E086A197A1885E934065
:103F600080A791A781E0809341220895E0E0F9E0E5
:103F700086A197A18855924080A791A710924122CF
:103F800008952F923F924F925F926F927F928F92FD
:103F90009F92AF92BF92CF92DF92EF92FF920F93D8
:103FA0001F93CF93DF93CDB7DEB7E997CDBFDEBFC9
:103FB00080911C2290911D22019680931C22909347
:103FC0001D226091E6217091E7218091E821909176
:103FD000E9212091422229834090EA215090EB214F
:103FE0006090EC217090ED218090EE219090EF2177
:103FF000A090F021B090F121C090F221D090F32157
:10400000E090F421F090F5214091F6215091F721B4
:1040100048AF59AF2091F8213091F9214091FA2110
:104020005091FB212A833B834C835D832091F821AF
:104030003091F9214091FA215091FB212E833F8349
:10404000488759872091FC213091FD214091FE2124
:104050005091FF212A873B874C875D872091FC2167
:104060003091FD214091FE215091FF212E873F8705
:10407000488B598B209100223091012240910222DD
:10408000509103222A8B3B8B4C8B5D8B209100221D
:104090003091012240910222509103222E8B3F8BBE
:1040A000488F598F20910422309105224091062299
:1040B000509107222A8F3B8F4C8F5D8F20910422D5
:1040C0003091052240910622509107222E8F3F8F7A
:1040D00048A359A320910422309105224091062241
:1040E000509107222AA33BA34CA35DA320910C224D
:1040F00030910D2240910E2250910F222EA33FA30A
:1041000048A759A7209114223091152240911622D8
:10411000509117222AA73BA74CA75DA720911822F0
:104120003091192240911A2250911B222EA73FA7AD
:1041300048AB59AB209110223091112240911222AC
:10414000509113222AAB3BAB4CAB5DAB00911C22D0
:1041500010911D2220902022309021224091202277
:10416000509121224EAB5FAB0E94E92D7F936F935C
:104170001F9259815F93C301B2010E94E92D7F9381
:104180006F93C501B4010E94E92D7F936F93C7011E
:10419000B6010E94E92D7F936F9389AD8F9398ADFF
:1041A0009F936A817B818C819D810E94E92D9B0177
:1041B000220F331F660F771F660F771F660F771F5B
:1041C000C901860F971F6AE070E00E9409319F9332
:1041D0008F936E817F81888599850E94E92D7F93D9
:1041E0006F9320E034E244E759E46A857B858C854F
:1041F0009D850E94632F0E94E92D20E432E44FE068
:1042000050E00E943E319B01772324F4222733277C
:10421000261B370BC901330FAA0BBB0BBF93AF9300
:104220009F938F936E857F85888999890E94E92D58
:104230007F936F9320E034E244E759E46A897B89F5
:104240008C899D890E94632F0E94E92D20E432E42D
:104250004FE050E00E943E319F938F937F936F9386
:104260006E897F89888D998D0E94E92D7F936F9348
:104270006A8D7B8D8C8D9D8D0E94E92D0F2EF4E62D
:10428000CF2ED12CE12CF12CF02DA70196010E940C
:104290003E317F936F936E8D7F8D88A199A10E948F
:1042A000E92D0F2EF0E18F2EF7E29F2EA12CB12CDD
:1042B000F02DA50194010E943E31A70196010E94B4
:1042C0003E313F932F936AA17BA18CA19DA10E94B7
:1042D000E92DA50194010E943E313F932F936EA1D9
:1042E0007FA188A599A50E94E92D7F936F9323E371
:1042F00033E948E853E46AA57BA58CA59DA50E94F7
:10430000DE2C0E94E92D7F936F936EA57FA588A96F
:1043100099A90E94E92D9F938F937F936F936AA928
:104320007BA98CA99DA90E94E92D7F936F931F9370
:104330000F939101ADECBCEC0E946331969587958B
:1043400096958795969587959C01220F331F880F28
:10435000991F880F991F880F991F820F931F281A82
:10436000390A3F922F922EA93FA90E946331969558
:10437000879596958795969587959F938F9380912E
:104380001E208F9380911D208F9320E932E23F936E
:104390002F930E94C832CDBFDEBF20E932E23F93A7
:1043A0002F930E94B5320F900F90E996CDBFDEBFDC
:1043B000DF91CF911F910F91FF90EF90DF90CF9001
:1043C000BF90AF909F908F907F906F905F904F9035
:1043D0003F902F9008954F925F926F927F928F92AD
:1043E0009F92AF92BF92CF92DF92EF92FF920F9384
:1043F0001F93CF93DF93CDB7DEB7A097CDBFDEBFBE
:10440000A5E3B0E2FC9111965C90119712966C9026
:10441000129713967C90139714968C901497159678
:104420009C9015971696AC90169717964C90A1E312
:10443000B0E2EC911196BC9011971296CC90129725
:104440001396DC9013971496EC9014971596FC90A5
:10445000159716961C9116971796AC91F9832F2FE6
:10446000352D462D572D682D792D8A2D942D08E058
:104470000E9446322A832F2F352D462D572D682D29
:10448000792D8A2D942D00E10E9446322B832F2F07
:10449000352D462D572D682D792D8A2D942D08E127
:1044A0000E9446322C832F2F352D462D572D682DF7
:1044B000792D8A2D942D00E20E9446322D832F2FD4
:1044C000352D462D572D682D792D8A2D942D08E2F6
:1044D0000E9446322E832F2F352D462D572D682DC5
:1044E000792D8A2D942D00E30E9446322F832F2FA1
:1044F000352D462D572D682D792D8A2D942D08E3C5
:104500000E9446322887E9872E2F3B2D4C2D5D2DAA
:104510006E2D7F2D812F9A2F08E00E9446322A8728
:104520002E2F3B2D4C2D5D2D6E2D7F2D812F9A2F03
:1045300000E10E9446322B872E2F3B2D4C2D5D2D06
:104540006E2D7F2D812F9A2F08E10E9446322C87F5
:104550002E2F3B2D4C2D5D2D6E2D7F2D812F9A2FD3
:1045600000E20E9446322D872E2F3B2D4C2D5D2DD3
:104570006E2D7F2D812F9A2F08E20E9446322E87C2
:104580002E2F3B2D4C2D5D2D6E2D7F2D812F9A2FA3
:1045900000E30E9446322F872E2F3B2D4C2D5D2DA0
:1045A0006E2D7F2D812F9A2F08E30E944632288B93
:1045B00080E1E9E3F0E2DE01519601900D928A95E7
:1045C000E1F783E38093CA01FE017196CE01019663
:1045D000AE014F5D5F4F60EC71E02191DB012C93E8
:1045E000DC012D91CD01DB0114962C93E417F50726
:1045F000A1F7E0ECF1E085E38287108280E181831E
:1046000088ED84BF81E0838787858823ECF3A096BB
:10461000CDBFDEBFDF91CF911F910F91FF90EF9043
:10462000DF90CF90BF90AF909F908F907F906F90D2
:104630005F904F9008950F931F93CF93DF93CDB763
:10464000DEB7A497CDBFDEBF60911022709111221A
:1046500080911222909113220E94E92D162F072F8C
:10466000609108227091092280910A2290910B2278
:104670000E94E92DE62FF72F409120225091212210
:104680009A013695279536952795ABE7B4E10E94B8
:1046900063319695879564E6689F9001699F300D18
:1046A0001124CA01821B930B80932222A0911C2209
:1046B000B0911D2260911C2270911D222091202218
:1046C000309121224091202250912122209142229A
:1046D0009091412209831A83BB836C833D834E836F
:1046E000FF83E88789878A872B879C878CE0FE0178
:1046F0003196DE011D9601900D928A95E1F78CE0CE
:10470000E9E4F0E2DE01599601900D928A95E1F715
:1047100083E38093CA0180E090E0E0ECF1E0A9E15E
:10472000B0E0AC0FBD1FA80FB91F2C912083ADE0E6
:10473000B0E0AC0FBD1FA80FB91F2C9124830196C8
:104740008C30910561F7E0ECF1E085E3828710821F
:1047500080E1818388ED84BF81E08387878588231A
:10476000ECF3A496CDBFDEBFDF91CF911F910F91E7
:1047700008952F923F924F925F926F927F928F9205
:104780009F92AF92BF92CF92DF92EF92FF920F93E0
:104790001F93CF93DF93CDB7DEB7EF97CDBFDEBFCB
:1047A00080911C2290911D22019680931C2290934F
:1047B0001D226091E6217091E7218091E82190917E
:1047C000E9212091422229834090EA215090EB2157
:1047D0006090EC217090ED218090EE219090EF217F
:1047E000A090F021B090F121C090F221D090F3215F
:1047F000E090F421F090F5214091F6215091F721BD
:104800004EAF5FAF2091F8213091F9214091FA210C
:104810005091FB212A833B834C835D832091F821B7
:104820003091F9214091FA215091FB212E833F8351
:10483000488759872091FC213091FD214091FE212C
:104840005091FF212A873B874C875D872091FC216F
:104850003091FD214091FE215091FF212E873F870D
:10486000488B598B209100223091012240910222E5
:10487000509103222A8B3B8B4C8B5D8B2091002225
:104880003091012240910222509103222E8B3F8BC6
:10489000488F598F209104223091052240910622A1
:1048A000509107222A8F3B8F4C8F5D8F20910422DD
:1048B0003091052240910622509107222E8F3F8F82
:1048C00048A359A320910422309105224091062249
:1048D000509107222AA33BA34CA35DA320910C2255
:1048E00030910D2240910E2250910F222EA33FA312
:1048F00048A759A720910C2230910D2240910E22F9
:1049000050910F222AA73BA74CA75DA72091142204
:104910003091152240911622509117222EA73FA7C1
:1049200048AB59AB209114223091152240911622A8
:10493000509117222AAB3BAB4CAB5DAB20911822B8
:104940003091192240911A2250911B222EAB3FAB7D
:1049500048AF59AF2091102230911122409112227C
:10496000509113222AAF3BAF4CAF5DAF20901C2279
:1049700030901D2200912022109121220E94E92DC9
:104980007F936F931F9239813F93C301B2010E94BD
:10499000E92D7F936F93C501B4010E94E92D7F93A8
:1049A0006F93C701B6010E94E92D7F936F934FADBE
:1049B0004F935EAD5F936A817B818C819D810E9464
:1049C000E92D9B01220F331F660F771F660F771F9C
:1049D000660F771FC901860F971F6AE070E00E947B
:1049E00009319F938F936E817F81888599850E947D
:1049F000E92D7F936F9320E034E244E759E46A8520
:104A00007B858C859D850E94632F0E94E92D20E483
:104A100032E44FE050E00E943E319B01772324F4C2
:104A200022273327261B370BC901330FAA0BBB0BD9
:104A3000BF93AF939F938F936E857F858889998964
:104A40000E94E92D7F936F9320E034E244E759E41C
:104A50006A897B898C899D890E94632F0E94E92D38
:104A600020E432E44FE050E00E943E319F938F9368
:104A70007F936F936E897F89888D998D0E94E92D30
:104A80007F936F936A8D7B8D8C8D9D8D0E94E92D18
:104A90000F2EF4E6CF2ED12CE12CF12CF02DA70116
:104AA00096010E943E317F936F936E8D7F8D88A11A
:104AB00099A10E94E92D0F2EF0E18F2EF7E29F2E93
:104AC000A12CB12CF02DA50194010E943E31A7012B
:104AD00096010E943E313F932F936AA17BA18CA146
:104AE0009DA10E94E92DA50194010E943E313F93B2
:104AF0002F9320E030E040E251E46EA17FA188A531
:104B000099A50E94632F0E94E92DCB016AE070E015
:104B10000E9409319F938F936AA57BA58CA59DA5C3
:104B20000E94E92D7F936F9320E030E040E251E452
:104B30006EA57FA588A999A90E94632F20E038EB74
:104B40004AE255E43BD70E94E92DCB016AE070E0D0
:104B50000E9409319F938F9323E333E948E853E49C
:104B60006AA97BA98CA99DA929D70E94E92D7F93C9
:104B70006F936EA97FA988AD99AD0E94E92D9F938F
:104B80008F937F936F936AAD7BAD8CAD9DAD0E948B
:104B9000E92D7F936F933F922F921F930F938091F4
:104BA0001E208F9380911D208F9380E992E29F9326
:104BB0008F930E94C832CDBFDEBF3DDD10924022F0
:104BC000EF96CDBFDEBFDF91CF911F910F91FF9088
:104BD000EF90DF90CF90BF90AF909F908F907F909D
:104BE0006F905F904F903F902F900895CF93DF93F9
:104BF000C0ECD1E026E02A878883998388ED84BFC2
:104C000081E08B8766ED74E180E090E00E94991767
:104C10008C81DF91CF9108952F923F924F925F92B6
:104C20006F927F928F929F92AF92BF92CF92DF92BC
:104C3000EF92FF920F931F93CF93DF93CDB7DEB721
:104C40002797CDBFDEBF0E9429176BEA79E280E08B
:104C500090E00E94991778948CEB8093400687E04F
:104C60008093A2000E944A140E94A5156BEA70EB83
:104C700088E290E00E94991780E28093A30A0E9444
:104C8000D4170E9402180E9454140E94EC150E942E
:104C900072150E94AE170E94DE170E944314DBD8E3
:104CA00037D852D882E090E1A1DF89838FE190E18B
:104CB0009DDF8A8399818A819813D8C189818F3F2A
:104CC00009F4D4C180E190E191DF182F8FE090E1E9
:104CD0008DDFB82F212F30E040E050E060E070E041
:104CE00080E090E008E30E942B32122FC32EF42EB6
:104CF000A52FF62FE72FD82EE92E2B2F30E040E0FE
:104D000050E060E070E080E090E000E30E942B3231
:104D1000122BC32AF42A9A2E952AAF2EA62ABE2E2B
:104D2000B72AD82AE92A8EE090E160DF082F8DE0CB
:104D300090E15CDF282E8CE090E158DF382E8BE08C
:104D400090E154DF482E8AE090E150DF582E89E050
:104D500090E14CDF682E202F30E040E050E060E032
:104D600070E080E090E008E20E942B321629122BBE
:104D7000C32AF42AA52FA929F62FFA29E72FEB2910
:104D8000D82AE92A222D30E040E050E060E070E0CF
:104D900080E090E000E20E942B32122BC32AF42A1A
:104DA000A52BF62BE72BD82AE92A232D30E040E06B
:104DB00050E060E070E080E090E008E10E942B327B
:104DC000122BC32AF42AA52BF62BE72BD82AE92A83
:104DD000242D30E040E050E060E070E080E090E0C2
:104DE00000E10E942B32122BC32AF42AA52BF62BAA
:104DF000E72BD82AE92A252D30E040E050E060E09A
:104E000070E080E090E008E00E942B32612E622A80
:104E10007C2C732A8F2C842A9A2E952AAF2EA62AB0
:104E2000BE2EB72AD82AE92A89E190E1DFDE182FC1
:104E300088E190E1DBDE482E212F30E040E050E0B9
:104E400060E070E080E090E008E30E942B32C22E28
:104E5000532EB42FA52FF62FE72FF82E192F242D20
:104E600030E040E050E060E070E080E090E000E39F
:104E70000E942B32C22A532A5F822B2E242A3A2EDA
:104E8000352A4F2E462A5E2E572AF82A192B87E1FB
:104E900090E1ACDE082F86E190E1A8DE8B8385E10E
:104EA00090E1A4DE8C8384E190E1A0DE8D8383E138
:104EB00090E19CDE8E8382E190E198DEE82FA5E30D
:104EC000B0E26C9211967C92119712968C92129786
:104ED00013969C9213971496AC9214971596BC92C5
:104EE00015971696DC9216971796EC92A1E3B0E20E
:104EF000202F30E040E050E060E070E080E090E0A3
:104F000008E20E942B32CE2AC22ABF80B32AD42EB6
:104F1000D228E52EE328F62FF429E72FE529F82AF1
:104F2000192B2B8130E040E050E060E070E080E041
:104F300090E000E20E942B32C22AB32AD42AE52A4A
:104F4000F62BE72BF82A192B2C8130E040E050E0BB
:104F500060E070E080E090E008E10E942B32C22A1D
:104F6000B32AD42AE52AF62BE72BF82A192B2D8110
:104F700030E040E050E060E070E080E090E000E190
:104F80000E942B32C22AB32AD42AE52AF62BE72B19
:104F9000F82A192B2E8130E040E050E060E070E00C
:104FA00080E090E008E00E942B322C292C933B29D2
:104FB00011963C9311974D2912964C9312975E29A6
:104FC00013965C9313976F2B14966C9314977E2B08
:104FD00015967C9315978F2916968C931697912B7F
:104FE00017969C9381E090E101DE182F80E090E11C
:104FF000FDDD612F70E0762F6627682B072E000CF1
:10500000880B990B19D6609310227093112280930C
:1050100012229093132287E090E1E8DD182F86E0BA
:1050200090E1E4DD212F30E0322F2227282B20933E
:1050300020223093212284E090E1D8DD182F83E0F4
:1050400090E1D4DD212F30E0322F2227282B20932E
:105050001C2230931D2285E090E1C8DD809342221E
:1050600088E090E1C3DD8093412217C00E9442187E
:1050700060933520709336208093372090933820AA
:105080000E94E51860933120709332208093332082
:1050900090933420109242229ED90E94881D279618
:1050A000CDBFDEBFDF91CF911F910F91FF90EF90A9
:1050B000DF90CF90BF90AF909F908F907F906F9038
:1050C0005F904F903F902F90089583E38093CA01A3
:1050D00080E0E0ECF1E09FEF808394838F5F80328B
:1050E000D9F7E0ECF1E080E3828788ED84BF81E0CE
:1050F000838787858823ECF30895E7DF8FB7F894DB
:1051000098ED94BF91E0909379008FBF089590E05F
:10511000FC01E156F109E331F105C8F48827E250BA
:10512000FF4F8F4F0C945A31E8CF08950C94A71F6E
:1051300008950C946E1F08950C94881F08950C9484
:10514000AA1F08950C94B61F08950C94C11F0895CA
:10515000CF93DF93CDB7DEB7C856D109CDBFDEBF41
:105160005BDDE0E6F6E08081886080838481886092
:10517000848314E1BE016F5F7F4FFB01812F119289
:105180008A95E9F74AE050E0CE0145960E94621602
:10519000BE01635E7F4F88E2FB0111928A95E9F7B9
:1051A0004AE050E0CE018B5B9F4F0E94EA16BE01A1
:1051B000635B7F4FFB0111921A95E9F74AE050E0DB
:1051C000CE018F599F4F0E94621600E010E0BE0191
:1051D0006B5B7F4FCE0145960E94C91B0E94881DC4
:1051E000CE018F599F4F0E94591CCE018F599F4F5E
:1051F0000E94C31E80914222813041F008F44AC0CF
:10520000823051F0833009F43FC042C0111142C0D6
:105210000E94431411E03EC060911022709111224F
:10522000809112229091132220E030E041EE53E46D
:10523000C5D3CFD49B01772324F422273327261B01
:10524000370B2A303105C4F40E94AA1FCE018F59B2
:105250009F4F0E94591C8091E6219091E721A091D7
:10526000E821B091E92180932E2290932F22A093E0
:105270003022B093312202C08091412211110AC024
:105280000E94431411E006C0011104C001E002C0F5
:105290000E94881D80914022882329F00E94391F96
:1052A00068DA1092402280913F22882339F0809161
:1052B00032222DDF1092322210923F2280911E2244
:1052C00090911F22019680931E2290931F2280911D
:1052D000202290912122892B09F479CF80911E22DE
:1052E00090911F2260912022709121227ED760939D
:1052F0001F20709320206BCF1F920F920FB60F923A
:10530000112408B60F9218BE8F939F93809120228C
:10531000909121220196809320229093212281E076
:10532000809340229F918F910F9008BE0F900FBEE7
:105330000F901F9018951F920F920FB60F92112485
:1053400008B60F9218BE09B60F9219BE0BB60F928F
:105350001BBE2F933F934F935F936F937F938F93D6
:105360009F93AF93BF93EF93FF9380EA9AE00E94DD
:10537000030B8093322281E080933F22FF91EF91D3
:10538000BF91AF919F918F917F916F915F914F915D
:105390003F912F910F900BBE0F9009BE0F9008BE4A
:1053A0000F900FBE0F901F9018951F920F920FB67F
:1053B0000F92112408B60F9218BE09B60F9219BEAB
:1053C0000AB60F921ABE0BB60F921BBE8F929F9217
:1053D000AF92BF92CF92DF92EF92FF921F932F93E3
:1053E0003F934F935F936F937F938F939F93AF936D
:1053F000BF93EF93FF93CF93DF9300D000D0CDB74F
:10540000DEB780EB99E00E94030B182F843251F431
:1054100081E080932722109226221092252210925A
:1054200024225DC28A3229F410922422109227226B
:1054300056C28C3209F053C2ECE7F2E280E280837C
:105440008181803209F07AC280E380937C2276C227
:1054500080917C228E3209F0A6C1ACC180917C2261
:105460008E3209F0F2C0F8C080917C228E3209F0B1
:1054700053C059C091919E3229F401C080E08093BD
:10548000232203C08F5F8F30A9F7E0912322F0E041
:10549000E458FD4D80E28083209123222F5F2F303E
:1054A000C8F4822F90E0FC01E458FD4D3081303289
:1054B00089F040E208C0822F90E0FC01E458FD4DE5
:1054C0003081303239F0FC01E458FD4D40832F5FCC
:1054D0002F3089F7CE0101969F938F9388E491E254
:1054E0009F938F938CE792E29F938F930E94F03269
:1054F00069817A818B819C819FD360930422709310
:10550000052280930622909307220F900F900F9010
:105510000F900F900F90C5C1EDE7F2E281E09191FD
:105520009E3229F401C080E08093232203C08F5F64
:105530008F30A9F7E0912322F0E0E458FD4D80E29E
:105540008083209123222F5F2F3008F5822F90E057
:10555000FC01E458FD4D30813032C9F050E208C002
:10556000822F90E0FC01E458FD4D3081303279F01B
:1055700040912322FC01E41BF109E657FD4D3083E5
:10558000FC01E458FD4D50832F5F2F3049F7809187
:105590008B22803219F480E380938B22CE01019616
:1055A0009F938F9388E491E29F938F938CE792E28D
:1055B0009F938F930E94F032CE0105969F938F9315
:1055C0008CE491E29F938F938BE892E29F938F9369
:1055D0000E94F03289809A80AB80BC806D817E8190
:1055E000072E000C880B990B27D320E030E44CE108
:1055F00056E44DD26B017C01C501B40124E630E0D4
:1056000040E050E03BD649015A0116D39B01AC0162
:10561000C701B601D4D120E030E040E752E437D2F0
:105620006B017C01C501B40107D39B01AC01C7012B
:10563000B601C5D1609300227093012280930222AB
:1056400090930322CDBFDEBF2CC1EDE7F2E281E0F3
:1056500091919E3229F401C080E08093232203C0FF
:105660008F5F8F30A9F7E0912322F0E0E458FD4DE1
:1056700080E28083209123222F5F2F3008F5822F34
:1056800090E0FC01E458FD4D30813032C9F050E229
:1056900008C0822F90E0FC01E458FD4D308130328B
:1056A00079F040912322FC01E41BF109E657FD4DFE
:1056B0003083FC01E458FD4D50832F5F2F3049F7B4
:1056C00080918B22803219F480E380938B22CE016B
:1056D00001969F938F9388E491E29F938F938CE739
:1056E00092E29F938F937CD7CE0105969F938F93E1
:1056F0008CE491E29F938F938BE892E29F938F9338
:105700006FD789809A80AB80BC806D817E81072EA7
:10571000000C880B990B90D220E030E44CE156E469
:10572000B6D16B017C01C501B40124E630E040E054
:1057300050E0A4D549015A017FD29B01AC01C701B9
:10574000B6013DD120E030E040E752E4A0D16B014A
:105750007C01C501B40170D29B01AC01C701B60147
:105760002ED1DC01CB01B0588093FC219093FD2118
:10577000A093FE21B093FF21CDBFDEBF92C086EF84
:1057800091E29F938F938CE491E29F938F938CE7A8
:1057900092E29F938F9324D70F900F900F900F90CA
:1057A0000F900F907EC0EDE7F2E281E091919E3282
:1057B00029F401C080E08093232203C08F5F8F30E3
:1057C000A9F7E0912322F0E0E458FD4D80E28083C8
:1057D000209123222F5F2F3008F5822F90E0FC01CB
:1057E000E458FD4D30813032C9F050E208C0822FBC
:1057F00090E0FC01E458FD4D3081303279F0409169
:105800002322FC01E41BF109E657FD4D3083FC0126
:10581000E458FD4D50832F5F2F3049F780918B2244
:10582000803219F480E380938B22CE0101969F93FE
:105830008F9388E491E29F938F938CE792E29F93FA
:105840008F93CED6CE0105969F938F938CE491E2F1
:105850009F938F938BE892E29F938F93C1D6698138
:105860007A818B819C81E8D16B017C016D817E8185
:10587000072E000C880B990BDFD120E030E040E2CE
:1058800051E405D19B01AC01C701B60198D06093EA
:10589000F8217093F9218093FA219093FB21CDBFD9
:1058A000DEBF809127228823D1F01092232280919D
:1058B00024228F5F8093242210922522ECE7F2E2CB
:1058C0002BE832E280E281932E173F07E1F7EBE805
:1058D000F2E280E280838183828383838483809168
:1058E0002722882309F443C080912622833019F0AF
:1058F000843031F009C0173439F01092272204C0E7
:10590000173411F010922722E0912522F0E0E4589C
:10591000FD4D1083809125228F5F809325228091F9
:1059200026228F5F8093262222C080917C228E3295
:1059300009F4A4CDEDE7F2E281E09CCD19821A8250
:105940001B821C821D821E8280912422843009F4D5
:1059500085CD30F4813049F3823009F485CDA1CF73
:10596000873009F40CCF893009F472CD9ACF26968E
:10597000CDBFDEBFDF91CF91FF91EF91BF91AF918E
:105980009F918F917F916F915F914F913F912F9157
:105990001F91FF90EF90DF90CF90BF90AF909F90BE
:1059A0008F900F900BBE0F900ABE0F9009BE0F9004
:1059B00008BE0F900FBE0F901F9018955058BB2730
:1059C000AA270ED0FDC1EED130F0F3D120F031F492
:1059D0009F3F11F41EF4D3C10EF4E095E7FBC9C15B
:1059E000E92FFFD180F3BA17620773078407950781
:1059F00018F071F49EF517C20EF4E0950B2EBA2F35
:105A0000A02D0B01B90190010C01CA01A0011124C4
:105A1000FF27591B99F0593F50F4503E68F11A1670
:105A2000F040A22F232F342F4427585FF3CF469501
:105A300037952795A795F0405395C9F77EF41F1623
:105A4000BA0B620B730B840BBAF09150A1F0FF0FED
:105A5000BB1F661F771F881FC2F70EC0BA0F621FD9
:105A6000731F841F48F4879577956795B795F795C9
:105A70009E3F08F0B3CF9395880F08F09927EE0F5B
:105A800097958795089551D108F481E008950CD039
:105A900097C18FD140F086D130F021F45F3F19F0EB
:105AA00068C15111C1C16BC19CD198F39923C9F34D
:105AB0005523B1F3951B550BBB27AA276217730714
:105AC000840738F09F5F5F4F220F331F441FAA1FC8
:105AD000A9F333D00E2E3AF0E0E830D09150504088
