S00F0000536B79466972652E7372656358
S113000057C100007BC1000079C1000077C1000026
S113001075C1000073C1000071C100006FC1000010
S11300206DC100006BC1000069C1000067C1000020
S113003065C100000C941E0AF2C3000028C400002D
S11300405EC4000094C40000CAC4000000C50000DF
S113005036C500006CC50000A2C50000D8C500006C
S11300604DC100004BC1000049C1000047C1000060
S113007045C1000043C1000041C100003FC1000070
S11300803DC100003BC1000039C1000037C1000080
S113009035C1000033C1000031C100002FC1000090
S11300A02DC100002BC1000029C1000027C10000A0
S11300B025C1000023C100000C94500A0C9446286A
S11300C00C946F080C94A7080C94DF080C9417097F
S11300D00C944F0913C1000011C100000FC10000AE
S11300E00DC100000BC100000C94652807C100007D
S11300F005C1000003C1000001C10000FFC00000F1
S1130100FDC00000FBC00000F9C00000F7C0000003
S113011021C1000065C10000A9C100008CC200001B
S1130120C7C2000002C300003DC30000E7C00000D6
S1130130E5C00000A4C50000DAC5000010C6000038
S113014046C600007CC60000B2C60000E8C6000037
S11301501EC7000054C700008AC70000CFC00000BB
S1130160CDC00000CBC00000C9C000000C949F2883
S1130170C5C00000C3C00000C1C00000BFC0000073
S1130180BDC00000BBC00000B9C00000B7C0000083
S1130190B5C00000B3C00000B1C00000AFC0000093
S11301A0ADC00000ABC00000A9C00000A7C00000A3
S11301B0A5C00000A3C00000A1C000009FC00000B3
S11301C09DC000009BC0000099C0000097C00000C3
S11301D095C0000093C0000091C000008FC00000D3
S11301E08DC000008BC0000089C0000087C00000E3
S11301F085C0000083C0000081C0000083278027E1
S11302007D2789277A2778278B278B278B278B278E
S11302108B278B278B278B278B278B278B278B274A
S1130220862707634236B79BD8A71A39685618AE93
S1130230BAAB558C1D3CB7CC5763BD6DEDFD753E17
S1130240F6177231BF000000803F08000000BE9224
S11302502449123EABAAAA2ABECDCCCC4C3E000007
S11302600080BEABAAAAAA3E00000000BF000000A6
S1130270803F0000000000084178D3BB4387D113BE
S11302803D190E3CC3BD4282AD2B3E68EC8276BE66
S1130290D98FE1A93E4C80EFFFBE01C4FF7F3F0030
S11302A0000000006364696E6F70737578585B00BA
S11302B011241FBECFEFCDBFDFE3DEBF00E00CBFD4
S11302C018BE19BE1ABE1BBE11E2A0E0B0E2E0EEF9
S11302D0F1E700E00BBF02C007900D92AC39B10703
S11302E0D9F71BBE22E2ACE9B1E201C01D92A63FE0
S11302F0B207E1F70E948C270C94EE3881CECF939D
S1130300DF931F92CDB7DEB78091452290914622AC
S1130310E0914122F0914222BE016F5F7F4F199517
S11303208981082E000C990B0F90DF91CF910895CD
S1130330682F8091452290914622E0914322F091CA
S11303404422199599231CF081E090E008958FEFE1
S11303509FEF08951F920F920FB60F92112408B6C3
S11303600F9218BE09B60F9219BE0BB60F921BBEA0
S11303702F933F934F935F936F937F938F939F93A9
S1130380AF93BF93EF93FF93E0919D21F0919E2152
S1130390309779F08091870384FF06C040E060E0E5
S11303A080E893E0199505C040E860E080E893E0B8
S11303B01995FF91EF91BF91AF919F918F917F918B
S11303C06F915F914F913F912F910F900BBE0F90C2
S11303D009BE0F9008BE0F900FBE0F901F90189586
S11303E01F920F920FB60F92112408B60F9218BEE7
S11303F009B60F9219BE0BB60F921BBE2F933F93F3
S11304004F935F936F937F938F939F93AF93BF9318
S1130410EF93FF93E0919D21F0919E21309779F025
S11304208091870385FF06C040E061E080E893E0A7
S1130430199505C040E861E080E893E01995FF91C3
S1130440EF91BF91AF919F918F917F916F915F9148
S11304504F913F912F910F900BBE0F9009BE0F90BB
S113046008BE0F900FBE0F901F9018951F920F9209
S11304700FB60F92112408B60F9218BE09B60F9248
S113048019BE0BB60F921BBE2F933F934F935F93EE
S11304906F937F938F939F93AF93BF93EF93FF9348
S11304A0E0919D21F0919E21309739F0409187038E
S11304B0407C60E080E893E01995FF91EF91BF9153
S11304C0AF919F918F917F916F915F914F913F91E8
S11304D02F910F900BBE0F9009BE0F9008BE0F9086
S11304E00FBE0F901F901895CF92DF92EF92FF925C
S11304F00F931F93CF93DF931F92CDB7DEB72FB720
S11305002983F894C980803823E09207D9F47A01CA
S1130510D62E8C0180919C21811104C061E081E080
S11305200E944C1780919C218F5F80939C21F7013E
S11305308281F8018583F7018381F8018683DD20B8
S113054019F00BC0CFBE1DC0F7018181F801828371
S1130550F7018081F801808308C0F7018181F801E7
S11305608383F7018081F801818380919C218150EC
S113057080939C21811104C061E081E00E94621794
S1130580CFBE0F90DF91CF911F910F91FF90EF900D
S1130590DF90CF900895EF92FF920F931F93CF9324
S11305A0DF931F921F92CDB7DEB72FB72A83F8943B
S11305B0EA80803823E0920709F5F62E8C018091B9
S11305C09C21811104C061E081E00E944C1780915C
S11305D09C218F5F80939C2180913C228F3F09F462
S11305E0FFCF8FB78983F8949981EBE3F2E281819D
S11305F08F5F81839FBFFF2019F007C0EFBE0AC041
S1130600F80180818160808304C0F8018181816068
S11306108183EFBE0F900F90DF91CF911F910F91C7
S1130620FF90EF9008958038934021F460939D21CA
S113063070939E2108951F920F920FB60F9211246A
S113064008B60F9218BE09B60F9219BE0BB60F92D8
S11306501BBE2F933F934F935F936F937F938F931F
S11306609F93AF93BF93EF93FF93409124025091D4
S11306702502E0914722F091482261E080E092E077
S11306801995FF91EF91BF91AF919F918F917F91B8
S11306906F915F914F913F912F910F900BBE0F90EF
S11306A009BE0F9008BE0F900FBE0F901F901895B3
S11306B01F920F920FB60F92112408B60F9218BE14
S11306C009B60F9219BE0BB60F921BBE2F933F9320
S11306D04F935F936F937F938F939F93AF93BF9346
S11306E0EF93FF9340912C0250912D02E091472209
S11306F0F091482262E080E092E01995FF91EF9139
S1130700BF91AF919F918F917F916F915F914F9125
S11307103F912F910F900BBE0F9009BE0F9008BE12
S11307200F900FBE0F901F9018951F920F920FB647
S11307300F92112408B60F9218BE09B60F9219BE73
S11307400BB60F921BBE2F933F934F935F936F9300
S11307507F938F939F93AF93BF93EF93FF934091B6
S1130760340250913502E0914722F091482264E02E
S113077080E092E01995FF91EF91BF91AF919F9125
S11307808F917F916F915F914F913F912F910F9036
S11307900BBE0F9009BE0F9008BE0F900FBE0F90B6
S11307A01F9018951F920F920FB60F92112408B63E
S11307B00F9218BE09B60F9219BE0BB60F921BBE4C
S11307C02F933F934F935F936F937F938F939F9355
S11307D0AF93BF93EF93FF9340913C0250913D023E
S11307E0E0914722F091482268E080E092E0199578
S11307F0FF91EF91BF91AF919F918F917F916F91F5
S11308005F914F913F912F910F900BBE0F9009BEB6
S11308100F9008BE0F900FBE0F901F9018951F9257
S11308200F920FB60F92112408B60F9218BE09B694
S11308300F9219BE0BB60F921BBE2F933F934F938B
S11308405F936F937F938F939F93AF93BF93EF9334
S1130850FF93E091CF21F091D021309709F01995C1
S1130860FF91EF91BF91AF919F918F917F916F9184
S11308705F914F913F912F910F900BBE0F9009BE46
S11308800F9008BE0F900FBE0F901F9018951F92E7
S11308900F920FB60F92112408B60F9218BE09B624
S11308A00F9219BE0BB60F921BBE2F933F934F931B
S11308B05F936F937F938F939F93AF93BF93EF93C4
S11308C0FF93E091CD21F091CE21309709F0199555
S11308D0FF91EF91BF91AF919F918F917F916F9114
S11308E05F914F913F912F910F900BBE0F9009BED6
S11308F00F9008BE0F900FBE0F901F9018951F9277
S11309000F920FB60F92112408B60F9218BE09B6B3
S11309100F9219BE0BB60F921BBE2F933F934F93AA
S11309205F936F937F938F939F93AF93BF93EF9353
S1130930FF93E091CB21F091CC21309709F01995E8
S1130940FF91EF91BF91AF919F918F917F916F91A3
S11309505F914F913F912F910F900BBE0F9009BE65
S11309600F9008BE0F900FBE0F901F9018951F9206
S11309700F920FB60F92112408B60F9218BE09B643
S11309800F9219BE0BB60F921BBE2F933F934F933A
S11309905F936F937F938F939F93AF93BF93EF93E3
S11309A0FF93E091C921F091CA21309709F019957C
S11309B0FF91EF91BF91AF919F918F917F916F9133
S11309C05F914F913F912F910F900BBE0F9009BEF5
S11309D00F9008BE0F900FBE0F901F9018951F9296
S11309E00F920FB60F92112408B60F9218BE09B6D3
S11309F00F9219BE0BB60F921BBE2F933F934F93CA
S1130A005F936F937F938F939F93AF93BF93EF9372
S1130A10FF93E091C721F091C821309709F019950F
S1130A20FF91EF91BF91AF919F918F917F916F91C2
S1130A305F914F913F912F910F900BBE0F9009BE84
S1130A400F9008BE0F900FBE0F901F9018951F9225
S1130A500F920FB60F92112408B60F9218BE09B662
S1130A600F9219BE0BB60F921BBE2F933F934F9359
S1130A705F936F937F938F939F93AF93BF93EF9302
S1130A80FF93E091C521F091C621309709F01995A3
S1130A90FF91EF91BF91AF919F918F917F916F9152
S1130AA05F914F913F912F910F900BBE0F9009BE14
S1130AB00F9008BE0F900FBE0F901F9018951F92B5
S1130AC00F920FB60F92112408B60F9218BE09B6F2
S1130AD00F9219BE0BB60F921BBE2F933F934F93E9
S1130AE05F936F937F938F939F93AF93BF93EF9392
S1130AF0FF93E091C321F091C421309709F0199537
S1130B00FF91EF91BF91AF919F918F917F916F91E1
S1130B105F914F913F912F910F900BBE0F9009BEA3
S1130B200F9008BE0F900FBE0F901F9018951F9244
S1130B300F920FB60F92112408B60F9218BE09B681
S1130B400F9219BE0BB60F921BBE2F933F934F9378
S1130B505F936F937F938F939F93AF93BF93EF9321
S1130B60FF93E091C121F091C221309709F01995CA
S1130B70FF91EF91BF91AF919F918F917F916F9171
S1130B805F914F913F912F910F900BBE0F9009BE33
S1130B900F9008BE0F900FBE0F901F9018951F92D4
S1130BA00F920FB60F92112408B60F9218BE09B611
S1130BB00F9219BE0BB60F921BBE2F933F934F9308
S1130BC05F936F937F938F939F93AF93BF93EF93B1
S1130BD0FF93E091BF21F091C021309709F019955E
S1130BE0FF91EF91BF91AF919F918F917F916F9101
S1130BF05F914F913F912F910F900BBE0F9009BEC3
S1130C000F9008BE0F900FBE0F901F9018951F9263
S1130C100F920FB60F92112408B60F9218BE09B6A0
S1130C200F9219BE0BB60F921BBE2F933F934F9397
S1130C305F936F937F938F939F93AF93BF93EF9340
S1130C40FF93E091BD21F091BE21309709F01995F1
S1130C50FF91EF91BF91AF919F918F917F916F9190
S1130C605F914F913F912F910F900BBE0F9009BE52
S1130C700F9008BE0F900FBE0F901F9018951F92F3
S1130C800F920FB60F92112408B60F9218BE09B630
S1130C900F9219BE0BB60F921BBE2F933F934F9327
S1130CA05F936F937F938F939F93AF93BF93EF93D0
S1130CB0FF93E091BB21F091BC21309709F0199585
S1130CC0FF91EF91BF91AF919F918F917F916F9120
S1130CD05F914F913F912F910F900BBE0F9009BEE2
S1130CE00F9008BE0F900FBE0F901F9018951F9283
S1130CF00F920FB60F92112408B60F9218BE09B6C0
S1130D000F9219BE0BB60F921BBE2F933F934F93B6
S1130D105F936F937F938F939F93AF93BF93EF935F
S1130D20FF93E091B921F091BA21309709F0199518
S1130D30FF91EF91BF91AF919F918F917F916F91AF
S1130D405F914F913F912F910F900BBE0F9009BE71
S1130D500F9008BE0F900FBE0F901F9018951F9212
S1130D600F920FB60F92112408B60F9218BE09B64F
S1130D700F9219BE0BB60F921BBE2F933F934F9346
S1130D805F936F937F938F939F93AF93BF93EF93EF
S1130D90FF93E091B721F091B821309709F01995AC
S1130DA0FF91EF91BF91AF919F918F917F916F913F
S1130DB05F914F913F912F910F900BBE0F9009BE01
S1130DC00F9008BE0F900FBE0F901F9018951F92A2
S1130DD00F920FB60F92112408B60F9218BE09B6DF
S1130DE00F9219BE0BB60F921BBE2F933F934F93D6
S1130DF05F936F937F938F939F93AF93BF93EF937F
S1130E00FF93E091B521F091B621309709F019953F
S1130E10FF91EF91BF91AF919F918F917F916F91CE
S1130E205F914F913F912F910F900BBE0F9009BE90
S1130E300F9008BE0F900FBE0F901F9018951F9231
S1130E400F920FB60F92112408B60F9218BE09B66E
S1130E500F9219BE0BB60F921BBE2F933F934F9365
S1130E605F936F937F938F939F93AF93BF93EF930E
S1130E70FF93E091B321F091B421309709F01995D3
S1130E80FF91EF91BF91AF919F918F917F916F915E
S1130E905F914F913F912F910F900BBE0F9009BE20
S1130EA00F9008BE0F900FBE0F901F9018951F92C1
S1130EB00F920FB60F92112408B60F9218BE09B6FE
S1130EC00F9219BE0BB60F921BBE2F933F934F93F5
S1130ED05F936F937F938F939F93AF93BF93EF939E
S1130EE0FF93E091B121F091B221309709F0199567
S1130EF0FF91EF91BF91AF919F918F917F916F91EE
S1130F005F914F913F912F910F900BBE0F9009BEAF
S1130F100F9008BE0F900FBE0F901F9018951F9250
S1130F200F920FB60F92112408B60F9218BE09B68D
S1130F300F9219BE0BB60F921BBE2F933F934F9384
S1130F405F936F937F938F939F93AF93BF93EF932D
S1130F50FF93E091AF21F091B021309709F01995FA
S1130F60FF91EF91BF91AF919F918F917F916F917D
S1130F705F914F913F912F910F900BBE0F9009BE3F
S1130F800F9008BE0F900FBE0F901F9018951F92E0
S1130F900F920FB60F92112408B60F9218BE09B61D
S1130FA00F9219BE0BB60F921BBE2F933F934F9314
S1130FB05F936F937F938F939F93AF93BF93EF93BD
S1130FC0FF93E091AD21F091AE21309709F019958E
S1130FD0FF91EF91BF91AF919F918F917F916F910D
S1130FE05F914F913F912F910F900BBE0F9009BECF
S1130FF00F9008BE0F900FBE0F901F9018951F9270
S11310000F920FB60F92112408B60F9218BE09B6AC
S11310100F9219BE0BB60F921BBE2F933F934F93A3
S11310205F936F937F938F939F93AF93BF93EF934C
S1131030FF93E091AB21F091AC21309709F0199521
S1131040FF91EF91BF91AF919F918F917F916F919C
S11310505F914F913F912F910F900BBE0F9009BE5E
S11310600F9008BE0F900FBE0F901F9018951F92FF
S11310700F920FB60F92112408B60F9218BE09B63C
S11310800F9219BE0BB60F921BBE2F933F934F9333
S11310905F936F937F938F939F93AF93BF93EF93DC
S11310A0FF93E091A921F091AA21309709F01995B5
S11310B0FF91EF91BF91AF919F918F917F916F912C
S11310C05F914F913F912F910F900BBE0F9009BEEE
S11310D00F9008BE0F900FBE0F901F9018951F928F
S11310E00F920FB60F92112408B60F9218BE09B6CC
S11310F00F9219BE0BB60F921BBE2F933F934F93C3
S11311005F936F937F938F939F93AF93BF93EF936B
S1131110FF93E091A721F091A821309709F0199548
S1131120FF91EF91BF91AF919F918F917F916F91BB
S11311305F914F913F912F910F900BBE0F9009BE7D
S11311400F9008BE0F900FBE0F901F9018951F921E
S11311500F920FB60F92112408B60F9218BE09B65B
S11311600F9219BE0BB60F921BBE2F933F934F9352
S11311705F936F937F938F939F93AF93BF93EF93FB
S1131180FF93E091A521F091A621309709F01995DC
S1131190FF91EF91BF91AF919F918F917F916F914B
S11311A05F914F913F912F910F900BBE0F9009BE0D
S11311B00F9008BE0F900FBE0F901F9018951F92AE
S11311C00F920FB60F92112408B60F9218BE09B6EB
S11311D00F9219BE0BB60F921BBE2F933F934F93E2
S11311E05F936F937F938F939F93AF93BF93EF938B
S11311F0FF93E091A321F091A421309709F0199570
S1131200FF91EF91BF91AF919F918F917F916F91DA
S11312105F914F913F912F910F900BBE0F9009BE9C
S11312200F9008BE0F900FBE0F901F9018951F923D
S11312300F920FB60F92112408B60F9218BE09B67A
S11312400F9219BE0BB60F921BBE2F933F934F9371
S11312505F936F937F938F939F93AF93BF93EF931A
S1131260FF93E091A121F091A221309709F0199503
S1131270FF91EF91BF91AF919F918F917F916F916A
S11312805F914F913F912F910F900BBE0F9009BE2C
S11312900F9008BE0F900FBE0F901F9018951F92CD
S11312A00F920FB60F92112408B60F9218BE09B60A
S11312B00F9219BE0BB60F921BBE2F933F934F9301
S11312C05F936F937F938F939F93AF93BF93EF93AA
S11312D0FF93E0919F21F091A021309709F0199597
S11312E0FF91EF91BF91AF919F918F917F916F91FA
S11312F05F914F913F912F910F900BBE0F9009BEBC
S11313000F9008BE0F900FBE0F901F901895CF93AB
S1131310DF93E091D121F091D221848183FF08C031
S11313208860848383E0838386EF8093DB2183C09A
S1131330982F947131F083E083838FEF8093DB21C6
S11313407AC086FF43C0C1EDD1E2AA81BB818C8102
S11313509D8114962D913C911597821793076CF4F7
S11313609C012F5F3F4F2093D5213093D621A80FA6
S1131370B91F11968C9187835EC08091D72190917B
S1131380D82118962D913C91199782179307C8F488
S11313902091D921222321F08681816086834BC04C
S11313A016962D913C911797AC014F5F5F4F409378
S11313B0D7215093D821D901A80FB91F8C918783C5
S11313C03AC083E083831092DB2135C0882384F5FF
S11313D0A1EDB1E21296CD91DC91139716968D9101
S11313E09C9117972885398582179307D8F46E81C5
S11313F07F819C012F5F3F4F2093D7213093D821C9
S11314004781DB01A80FB91F4C938885998528175C
S1131410390718F482E083830EC087E08383109237
S1131420DB2109C083E0838389EF8093DB2103C040
S11314308BEF8093DB21DF91CF9108951F920F9260
S11314400FB60F92112408B60F9218BE09B60F9268
S113145019BE0BB60F921BBE2F933F934F935F930E
S11314606F937F938F939F93AF93BF93EF93FF9368
S11314704EDFFF91EF91BF91AF919F918F917F913B
S11314806F915F914F913F912F910F900BBE0F90F1
S113149009BE0F9008BE0F900FBE0F901F901895B5
S11314A01F920F920FB60F92112408B60F9218BE16
S11314B009B60F9219BE0BB60F921BBE2F933F9322
S11314C04F935F936F937F938F939F93AF93BF9348
S11314D0EF93FF931CDFFF91EF91BF91AF919F9129
S11314E08F917F916F915F914F913F912F910F90C9
S11314F00BBE0F9009BE0F9008BE0F900FBE0F9049
S11315001F901895FC01DB0114968C91858388EB60
S1131510818381E08483E1EDF1E211861286E0EAC1
S1131520F0E0828182608283789480E00895CF9392
S1131530DF931F92CDB7DEB79C01FB01892B09F421
S113154051C0309709F450C092858091DA218823E4
S113155019F09923F1F34AC08FB78983F8948981EC
S1131560A1EDB1E291E019969C93199790E81A962F
S11315709C931A978FBF2D933C93119712966D935A
S11315807C93139714961D921C92159716961D9290
S11315901C92179718964C938081880F64817581EB
S11315A0672B11F4411103C0F901868303C08160E4
S11315B0F9018683E1EDF1E292859038E9F3F901CE
S11315C084818370813049F0A1EDB1E2ED91FC9109
S11315D01197848183708130C9F7E1EDF1E282854E
S11315E0118605C088EF03C088EF01C086EF0F9015
S11315F0DF91CF910895FC01918195FFFDCF608328
S113160080E090E00895FC0191819923ECF78081BA
S113161008954F925F926F927F928F929F92AF92B2
S1131620BF92EF92FF920F931F93CF937C014A01D5
S11316305B0128013901FC01848182FF16C0D901B4
S1131640C801689412F8B695A7959795879516944E
S1131650D1F7B901A801032E36E176956795579520
S113166047953A95D1F7302D15C0D901C801689432
S113167013F8B695A795979587951694D1F7B90160
S1131680A801032E37E176956795579547953A95C6
S1131690D1F7302D88159905AA05BB0508F4A6C015
S11316A084169506A606B70608F4A2C0F70184813D
S11316B082FD04C0880C991CAA1CBB1CC301B20186
S11316C0A50194010E94E62F2F3F310541055105E4
S11316D008F490C08FEF90E0A0E0B0E0C9EF05C03F
S11316E0281739074A075B0758F0880F991FAA1F64
S11316F0BB1FCD3F0CF48160CF5FC73089F74FC06B
S1131700CC230CF04CC0D501C401880F991FAA1F2B
S1131710BB1F880F991FAA1FBB1F880F991FAA1FE1
S1131720BB1F481A590A6A0A7B0ACE3FF4F48DEFAC
S11317309FEF8C1B9109C7FD939504C0440C551C65
S1131740661C771C8A95D2F7D501C401B695A79576
S113175097958795BC01CD01640D751D861D971D58
S1131760A50194010E94E62F37C083E08C0FA501E8
S1131770940104C0220F331F441F551F8A95D2F7CA
S1131780DA01C901B695A79597958795BC01CD0156
S1131790640D751D861D971D0E94E62F1DC083E0F4
S11317A08C0FA501940104C0220F331F441F551F41
S11317B08A95D2F7DA01C901B695A79597958795C9
S11317C0BC01CD01640D751D861D971D0E94E62F79
S11317D02150310941095109832F8F70C295C07F6F
S11317E0C82BF701C783268381E018C080E016C0A8
S11317F080E014C0D501C401880F991FAA1FBB1F24
S1131800880F991FAA1FBB1F880F991FAA1FBB1FF0
S1131810481A590A6A0A7B0AC9EF89CFCF911F91E6
S11318200F91FF90EF90BF90AF909F908F907F901B
S11318306F905F904F9008950F931F93CF93DF9312
S1131840EC018B01009709F4D6C0803C910529F482
S113185060E180E00E944C17CEC0C11584E0D80737
S113186029F464E080E00E944C17C5C0C038E1E070
S1131870DE0729F462E080E00E944C17BCC0C11569
S1131880F1E0DF0729F461E080E00E944C17B3C067
S1131890C03883E0D80729F461E081E00E944C1746
S11318A0AAC0C115E2E0DE0729F462E081E00E94EB
S11318B04C17A1C0C032F3E0DF0729F464E082E0F2
S11318C00E944C1798C0C11588E0D80729F461E03C
S11318D083E00E944C178FC0C115E9E0DE0729F4AC
S11318E061E084E00E944C1786C0C115FAE0DF076E
S11318F029F461E085E00E944C177DC0C03488E083
S1131900D80729F462E083E00E944C1774C0C03405
S1131910E9E0DE0729F462E084E00E944C176BC022
S1131920C039F8E0DF0729F464E083E00E944C1733
S113193062C0C03989E0D80729F464E084E00E94D9
S11319404C1759C0C039EAE0DE0729F464E085E0A9
S11319500E944C1750C0C03CF8E0DF0729F468E04F
S113196083E00E944C1747C0C03C89E0D80729F4A3
S113197068E084E00E944C173EC0C03AE8E0DE070D
S113198029F460E183E00E944C1735C0C03AF9E0C5
S1131990DF0729F460E184E00E944C172CC0C03AB0
S11319A08AE0D80729F460E185E00E944C1723C03F
S11319B0C03BE8E0DE0729F460E283E00E944C17B4
S11319C01AC0C03BF9E0DF0729F460E284E00E941A
S11319D04C1711C0C03884E0D80729F460E483E0D0
S11319E00E944C1708C0C03AE4E0DE0721F460E42A
S11319F085E00E944C178D818F738D83F80195814A
S1131A008481892B9681911198E0892B8D83F8012B
S1131A10408151816281738100E018E428EE31E055
S1131A20CE01F7DD9C8198609C839C8190619C83AE
S1131A30DF91CF911F910F9108951F93CF93DF935F
S1131A4000D01F92CDB7DEB719821A821B821C8286
S1131A508093DC219093DD21DC011996ED91FC91BA
S1131A601A9721E0AE014E5F5F4F67E018968C91A4
S1131A701995182FA091DC21B091DD211B96ED91D1
S1131A80FC911C9721E0AE014F5F5F4F60E0189618
S1131A908C911995180FA091DC21B091DD218981D9
S1131AA08C931B96ED91FC911C9721E0AE014F5F46
S1131AB05F4F61E018968C911995180FA091DC2165
S1131AC0B091DD21898114968C9314971B96ED9126
S1131AD0FC911C9721E0AE014F5F5F4F62E01896C6
S1131AE08C911995180FA091DC21B091DD21898189
S1131AF015968C9315971B96ED91FC911C9721E0FC
S1131B00AE014F5F5F4F63E018968C911995180FE3
S1131B10A091DC21B091DD21898116968C931697D2
S1131B201B96ED91FC911C9721E0AE014F5F5F4F36
S1131B3066E018968C911995180FA091DC21B0914C
S1131B40DD21898117968C9317971B96ED91FC9153
S1131B501C9722E0AE014D5F5F4F64E018968C91B4
S1131B601995180FA091DC21B091DD218C8190E0B2
S1131B70982F88272B81822B11968D939C931297F3
S1131B801B96ED91FC911C9721E0AE014F5F5F4FD6
S1131B9067E018968C911995E091DC21F091DD2194
S1131BA099819383810F2496CDBFDEBFDF91CF91BE
S1131BB01F910895A091DC21B091DD21109759F077
S1131BC0242FAB01682F1996ED91FC911A97189662
S1131BD08C911995089581E808951F93CF93DF930D
S1131BE01F92CDB7DEB71982A091DC21B091DD211F
S1131BF0109741F1182F1B96ED91FC911C9721E051
S1131C00AE014F5F5F4F67E018968C911995811173
S1131C101BC01983A091DC21B091DD211996ED91AF
S1131C20FC911A9721E0AE014F5F5F4F67E0189671
S1131C308C911995811109C0E091DC21F091DD218D
S1131C40138303C081E801C08FEF0F90DF91CF9120
S1131C501F9108950F931F93CF93DF9300D000D06B
S1131C60CDB7DEB78C01FE01319696E0DF011D92FF
S1131C709A95E9F7E091DC21F091DD21309709F4A0
S1131C803EC08381882359F080E0A7DF882339F0A0
S1131C90E091DC21F091DD218381811132C0A0919A
S1131CA0DC21B091DD211B96ED91FC911C9726E07F
S1131CB0AE014F5F5F4F6AE118968C9119952A81A6
S1131CC0022E000C330B322F22279981292BF80185
S1131CD0208331832C81022E000C330B322F2227D8
S1131CE09B81292B228333832E81022E000C330BFC
S1131CF0322F22279D81292B2483358303C081E839
S1131D0001C08FEF2696CDBFDEBFDF91CF911F912B
S1131D100F9108950F931F93CF93DF9300D000D0BA
S1131D20CDB7DEB78C01FE01319696E0DF011D923E
S1131D309A95E9F7E091DC21F091DD21309709F4DF
S1131D403EC08381882359F080E047DF882339F03F
S1131D50E091DC21F091DD218381811132C0A091D9
S1131D60DC21B091DD211B96ED91FC911C9726E0BE
S1131D70AE014F5F5F4F68E218968C9119952A81E6
S1131D80022E000C330B322F22279981292BF801C4
S1131D90208331832C81022E000C330B322F222717
S1131DA09B81292B228333832E81022E000C330B3B
S1131DB0322F22279D81292B2483358303C081E878
S1131DC001C08FEF2696CDBFDEBFDF91CF911F916B
S1131DD00F910895FF920F931F93CF93DF9300D039
S1131DE000D0CDB7DEB78C0119821A821B821C8207
S1131DF01D821E82CE0101968DDFF82E81113AC01C
S1131E0069817A81072E000C880B990B0E94E62CBD
S1131E1020E030E048EC52E40E94112CF801608389
S1131E207183828393836B817C81072E000C880BE2
S1131E30990B0E94E62C20E030E048EC52E40E942A
S1131E40112CF80164837583868397836D817E8169
S1131E50072E000C880B990B0E94E62C20E030E042
S1131E6048EC52E40E94112CF80160877187828744
S1131E70938702C0FF24FA948F2D2696CDBFDEBF30
S1131E80DF91CF911F910F91FF9008950F931F93AE
S1131E90CF93DF931F92CDB7DEB71982E091DC2197
S1131EA0F091DD21309721F18C018381882359F051
S1131EB080E093DE882339F0E091DC21F091DD218C
S1131EC08381811117C0A091DC21B091DD211B9683
S1131ED0ED91FC911C9721E0AE014F5F5F4F65E3EC
S1131EE018968C91199599819370F801908303C089
S1131EF081E801C08FEF0F90DF91CF911F910F9177
S1131F0008950F931F93CF93DF931F92CDB7DEB73E
S1131F101982E091DC21F091DD21309749F18C01A7
S1131F208381882359F080E058DE882339F0E091DA
S1131F30DC21F091DD21838181111CC0A091DC2181
S1131F40B091DD211B96ED91FC911C9721E0AE012F
S1131F504F5F5F4F65E318968C91199529812C701A
S1131F6030E03595279535952795F801208303C0F2
S1131F7081E801C08FEF0F90DF91CF911F910F91F6
S1131F8008950F931F93CF93DF931F92CDB7DEB7BE
S1131F901982E091DC21F091DD21309769F18C0107
S1131FA08381882359F080E018DE882339F0E0919A
S1131FB0DC21F091DD218381811120C0A091DC21FD
S1131FC0B091DD211B96ED91FC911C9721E0AE01AF
S1131FD04F5F5F4F65E318968C91199529812073A3
S1131FE030E0359527953595279535952795359581
S1131FF02795F801208303C081E801C08FEF0F907B
S1132000DF91CF911F910F9108950F931F93CF9359
S1132010DF931F92CDB7DEB71982E091DC21F091F6
S1132020DD21309739F18C018381882359F080E0D8
S1132030D4DD882339F0E091DC21F091DD21838126
S113204081111AC0A091DC21B091DD211B96ED9184
S1132050FC911C9721E0AE014F5F5F4F65E318963A
S11320608C91199599819295969596959370F8010E
S1132070908303C081E801C08FEF0F90DF91CF916F
S11320801F910F9108950F931F93CF93DF931F9286
S1132090CDB7DEB71982E091DC21F091DD213097D4
S11320A031F18C018381882359F080E096DD882307
S11320B039F0E091DC21F091DD218381811119C097
S11320C0A091DC21B091DD211B96ED91FC911C9730
S11320D021E0AE014F5F5F4F6BE318968C91199529
S11320E0998192FB992790F9F801908303C081E8C4
S11320F001C08FEF0F90DF91CF911F910F91089541
S11321000F931F93CF93DF931F92CDB7DEB719823E
S1132110E091DC21F091DD21309721F18C01838164
S1132120882359F080E059DD882339F0E091DC21DF
S1132130F091DD218381811117C0A091DC21B09140
S1132140DD211B96ED91FC911C9721E0AE014F5FC0
S11321505F4F6DE318968C91199599819F70F801E2
S1132160908303C081E801C08FEF0F90DF91CF917E
S11321701F910F9108950F931F93CF93DF931F9295
S11321801F92CDB7DEB719821A822091DC213091DB
S1132190DD21232B09F49CC0082FCE010296B0DF69
S11321A0811198C08A81811135C0A091DC21B09140
S11321B0DD211B96ED91FC911C9721E0AE014F5F50
S11321C05F4F6DE318968C911995811185C08981B3
S11321D0982F907F802F8F70892B8983A091DC2189
S11321E0B091DD211996ED91FC911A9721E0AE0191
S11321F04F5F5F4F6DE318968C911995182FE091FE
S1132200DC21F091DD210584F685E02D88E592E05E
S1132210199565C0A091DC21B091DD211B96ED914B
S1132220FC911C9721E0AE014F5F5F4F6DE3189660
S11322308C911995182F811114C08981807F89830D
S113224041E0BE016F5F7F4F8DE3B4DC182FE09156
S1132250DC21F091DD210584F685E02D84E190E018
S113226019950023E1F1A091DC21B091DD211B96A9
S1132270ED91FC911C9721E0AE014F5F5F4F6DE340
S113228018968C911995811129C08981982F907F76
S1132290802F8F70892B8983A091DC21B091DD215F
S11322A01996ED91FC911A9721E0AE014F5F5F4FB3
S11322B06DE318968C911995182FE091DC21F0911B
S11322C0DD210584F685E02D88E592E0199507C0A7
S11322D011E805C01FEF03C0182F01C0182F812F6C
S11322E00F900F90DF91CF911F910F9108950F934D
S11322F01F93CF93DF931F921F92CDB7DEB719823E
S11323001A822091DC213091DD21232B09F444C071
S1132310082FCE010296F4DE811135C08A8188230C
S113232021F080E028DF811130C0A091DC21B09140
S1132330DD211B96ED91FC911C9721E0AE014F5FCE
S11323405F4F6BE318968C911995182F81111EC05D
S11323508981982F9B7F802F880F880F8470892B09
S11323608983A091DC21B091DD211996ED91FC9136
S11323701A9721E0AE014F5F5F4F6BE318968C9183
S11323801995182F03C01FEF01C01FEF8A818823FE
S113239029F0F1DE810F03C081E801C0812F0F9085
S11323A00F90DF91CF911F910F910895EF92FF92BB
S11323B01F93CF93DF93CDB7DEB72797CDBFDEBF93
S11323C07C0119821A821B821C821D821E821F823A
S11323D0CE01079658DE182F8F81882319F080E0EC
S11323E086DF180F11113FC0CE01019633DC811135
S11323F03CC069817A81072E000C880B990B0E94DE
S1132400E62C20E030E040E85DE30E94E82DF7018F
S113241060837183828393836D817E81072E000C98
S1132420880B990B0E94E62C20E030E040E85DE345
S11324300E94E82DF70160877187828793876B81FB
S11324407C81072E000C880B990B0E94E62C20E05F
S113245030E040E85DE30E94E82DF7016483758372
S11324608683978303C01FEF01C01FEF812F279638
S1132470CDBFDEBFDF91CF911F91FF90EF90089504
S11324800F931F93CF93DF931F921F92CDB7DEB7A5
S113249019821A822091DC213091DD21232B09F449
S11324A042C0082FCE0102962BDE811133C08A81EF
S11324B0882321F080E05FDE81112EC0A091DC2111
S11324C0B091DD211B96ED91FC911C9721E0AE01AA
S11324D04F5F5F4F6EE318968C911995182F8111F9
S11324E01CC08981982F9C7F802F8370892B8983BE
S11324F0A091DC21B091DD211996ED91FC911A9700
S113250021E0AE014F5F5F4F6EE318968C911995F1
S1132510182F03C01FEF01C01FEF8A81882329F001
S11325202ADE810F03C081E801C0812F0F900F9034
S1132530DF91CF911F910F91089504C061507109EB
S1132540810991096115710581059105B9F708950E
S1132550AF92BF92CF92DF92EF92FF920F931F93AD
S1132560CF93DF930097D1F1A12C0F2EF8E4BF2E67
S1132570F02D0F2EF8EECF2EF02DDD24D394E12C88
S1132580F12C00E010E0282F392F40E050E060E00B
S113259070E080E090E00E9446300F2EF6E0AF2E0F
S11325A0F02DB12CC12CD12C0E94993029513C4FD3
S11325B04F4F5F4F6F4F7F4F8F4F9F4F0E94212D83
S11325C020E030E04AE754E40E94112C0E947E2C63
S11325D0622F732F842F952FB0DF05C066E070E063
S11325E080E090E0AADFDF91CF911F910F91FF90DF
S11325F0EF90DF90CF90BF90AF900895CF92DF928D
S1132600FF920F931F93CF93DF93CDB7DEB7CB54D5
S1132610D109CDBFDEBFF82E062F6A01122F22305A
S113262040F08EE490E29F938F930E947F310F904D
S11326300F901982F60180818A83015023960FAF8F
S1132640239781E090E027968EAF9FAF279722963D
S1132650FFAE2297CE01019629968EAF9FAF2997A0
S11326601F5F212F30E02B962EAF3FAF2B972C9678
S11326701FAE2C9740E0BE016F5B7F4F80E894E073
S11326800E94970AC55BDF4FCDBFDEBFDF91CF91BC
S11326901F910F91FF90DF90CF900895AF92BF925A
S11326A0DF92EF92FF920F931F93CF93DF93CDB7F7
S11326B0DEB7CB54D109CDBFDEBF5A01AE014F5FA7
S11326C05F4F7A0190E4FA0111929A95E9F7239603
S11326D06FAF239741E050E027964EAF5FAF279747
S11326E022968FAF22972996EEAEFFAE2997022F3E
S11326F010E02B960EAF1FAF2B972C961FAE2C9786
S1132700BE016F5B7F4F80E894E00E94970AD82E49
S1132710A801B701C5010E942C318D2DC55BDF4F87
S1132720CDBFDEBFDF91CF911F910F91FF90EF904E
S1132730DF90BF90AF9008950F931F93CF93DF93D3
S1132740CDB7DEB72A97CDBFDEBF8E010F5F1F4F17
S113275089E0F80111928A95E9F780E89AE1A6E008
S1132760B0E089839A83AB83BC8383E290E0A0E0EA
S1132770B0E08D839E83AF83B88760E483E08CD31D
S1132780B80180E894E00E94820AE0E8F4E08181E4
S113279088608183E9E4F2E28EEF92E18187928797
S11327A08EE493E18387948788EA92E1858796870C
S11327B088E28087CF0141D9882381F0282F082E11
S11327C0000C330B3F938F9384ED90E29F938F9390
S11327D00E947F310F900F900F900F9080E050DE99
S11327E08CE0C9DC182F1A86CE010A9689DC8A850A
S11327F08C3099F0212F012E000C330B3F931F9343
S11328001F929CE09F931F928F9388EF90E29F9377
S11328108F930E947F31CDBFDEBF2A96CDBFDEBF2E
S1132820DF91CF911F910F91089588E592E2D2DA5A
S113283084E692E2BBDD81E792E263DB83E792E226
S1132840A0DB80E792E222DB82E792E2DECB08950E
S1132850609168227091692280916A2290916B2222
S1132860089560916C2270916D2280916E229091F6
S11328706F2208956091642270916522809166228E
S1132880909167220895E0E0F6E0948188E089273A
S113289084830895E0E0F6E0808188608083F3CF4C
S11328A00895FF920F931F93CF93DF9362E081E02B
S11328B0F3D2C0E0D2E0FF24F394F882198280E1DD
S11328C08A8385E08C8361E270E082E010D3082F74
S11328D010E0102F002760E270E082E008D3082B9C
S11328E00C871D87F8A219A2DF91CF911F910F9138
S11328F0FF900895CF93DF93CDB7DEB72797CDBF71
S1132900DEBF60E284E0C8D2E0E6F6E08081806861
S11329108083E6E0F0E284818D8385818E838681E5
S11329208F8380819181A281B38189839A83AB83D0
S1132930BC8360E284E0B0D2BE016F5F7F4F80EB66
S113294099E00E941C0C2796CDBFDEBFDF91CF918A
S1132950089504C0615071098109910961157105D7
S113296081059105B9F70895E0E4F6E0948180E1EA
S1132970892784830895E0E4F6E084818061848378
S1132980F3DF8EE1B9D060E87EE380E090E0E1DF40
S1132990EBDF6BEA79E280E090E0DBCF0895CF9340
S11329A0DF93C82FE1DF8C2FA7D097D0C82FD0E0BA
S11329B0DC2FCC2792D0C82BD7DFCE01DF91CF916B
S11329C00895CF93DF9300D01F92CDB7DEB719825D
S11329D01A821B821C82C8DF88E48ED066E570ED03
S11329E080E090E0B6DFC0DFBFDF80E085D075D047
S11329F090E0A0E0B0E0DC019927882789839A83DE
S1132A00AB83BC836AD049815A816B817C81582B0A
S1132A1049835A836B837C8360D049815A816B815B
S1132A207C81482B49835A836B837C839DDF698136
S1132A307A818B819C812496CDBFDEBFDF91CF91BB
S1132A400895CF93DF9300D01F92CDB7DEB71982DC
S1132A501A821B821C8288DF88E54ED066E570ED01
S1132A6080E090E076DF80DF7FDF80E045D035D006
S1132A7090E0A0E0B0E0DC019927882789839A835D
S1132A80AB83BC832AD049815A816B817C81582BCA
S1132A9049835A836B837C8320D049815A816B811B
S1132AA07C81482B49835A836B837C835DDF6981F6
S1132AB07A818B819C812496CDBFDEBFDF91CF913B
S1132AC00895E0E4F6E08081806B808368E083E031
S1132AD0E3D18CE58093C00808959FB7F8948FEFF5
S1132AE08093C308E0ECF8E082818823ECF77894C3
S1132AF09FBF8091C30808959FB7F8948093C3083B
S1132B00E0ECF8E082818823ECF778949FBF089585
S1132B10CF93DF93EB010E94030B8883DF91CF9166
S1132B2008950C94FB0A0895CF93DF93CDB7DEB7D5
S1132B302797CDBFDEBF60E185E0AED1E0E8F6E0E7
S1132B4080818860808380EA9AE080934522909314
S1132B50462281E995E1809343229093442288E8B8
S1132B6095E18093412290934222EDE0F0E284814A
S1132B708D8385818E8386818F8380819181A281DB
S1132B80B38189839A83AB83BC8360E185E084D17C
S1132B90BE016F5F7F4F80EA9AE00E941C0C6FE7D2
S1132BA071E088E991E00E9435312796CDBFDEBF00
S1132BB0DF91CF910895FF920F931F93CF93DF93EB
S1132BC062E081E069D1C0E0D2E0FF24F394F882AE
S1132BD0198280E18A8385E08C8361E270E082E07F
S1132BE086D1082F10E0102F002760E270E082E009
S1132BF07ED1082B0C871D87F8A619A6DF91CF91EB
S1132C001F910F91FF900895E0E0F2E080A58068A5
S1132C1080A783A58823E9F380912C0290912D024B
S1132C200895CF93DF93FC0141155105B1F180E084
S1132C3090E020E0880F991FDB01A80FB91F8D9148
S1132C409C91A281B381AA0FBB1FC681D781AC0F0F
S1132C50BD1F8D939C93828193810196828393837C
S1132C60A081B1818A179B0711F412821382828199
S1132C709381C481D5818C179D0749F40196A817C7
S1132C80B90719F08483958302C0148215822F5FDB
S1132C90822F90E08417950768F2DF91CF91089511
S1132CA0FC01128213821482158266837783408327
S1132CB051830895DC011296ED91FC911397CB0199
S1132CC00196E817F90778F0E150F048E61BF70B96
S1132CD0EE0FFF1F16968D919C911797E80FF91F21
S1132CE08081918108952D913C911197E20FF31FFA
S1132CF0E150F048E61BF70BEE0FFF1F16968D917F
S1132D009C911797E80FF91F808191810895CF92C4
S1132D10DF92EF92FF92CF93DF93FC0141155105AF
S1132D2009F43FC080E090E020E0880F991F880FED
S1132D30991FDB01A80FB91FCD90DD90ED90FC9099
S1132D40A281B381AA0FBB1FAA0FBB1F86819781E3
S1132D50A80FB91FCD92DD92ED92FC921397828158
S1132D609381019682839383A081B1818A179B0703
S1132D7011F41282138282819381C481D5818C17CC
S1132D809D0749F40196A817B90719F08483958320
S1132D9002C0148215822F5F822F90E0841795075A
S1132DA020F2DF91CF91FF90EF90DF90CF900895C4
S1132DB0FC01128213821482158266837783408316
S1132DC051830895DC011296ED91FC911397CB0188
S1132DD00196E817F90798F0E150F04CE61BF70B61
S1132DE0EE0FFF1FEE0FFF1F16968D919C91179704
S1132DF0E80FF91F608171818281938108952D917B
S1132E003C911197E20FF31FE150F04CE61BF70BD6
S1132E10EE0FFF1FEE0FFF1F16968D919C911797D3
S1132E20E80FF91F60817181828193810895CF93A6
S1132E30DF931F921F92CDB7DEB78FEF80937000A0
S1132E408093710080937200809373008093740068
S1132E5080937500809376008FB78A83F8949A8163
S1132E60E0E5F0E08081826080839FBF818181FF03
S1132E70FDCF61E080E490E044D08FB78983F8947B
S1132E809981E0E5F0E080818E7F80839FBF0F9081
S1132E900F90DF91CF910895CF93DF931F92CDB719
S1132EA0DEB79FB79983F8949981E82FF0E0E05951
S1132EB0FF4F60958081682360839FBF0F90DF91EF
S1132EC0CF910895CF93DF931F92CDB7DEB79FB70D
S1132ED09983F8949981E82FF0E0E059FF4F8081BD
S1132EE0682B60839FBF0F90DF91CF91089540912D
S1132EF0CA01E62FF72F8093CA0184914093CA0137
S1132F0008951BBEFC0128ED24BF6083089504C00E
S1132F106150710981099109611571058105910556
S1132F20B9F70895809120229091212201968093EF
S1132F302022909321220895CF93DF931CDD82EA0F
S1132F4090E02DDDCBE2D2E28883998384EA90E09D
S1132F5026DD8A839B8386EA90E021DD8C839D8332
S1132F6088EA90E01CDD8E839F838AEA90E017DD77
S1132F70888799878CEA90E012DD8A879B87DF91A6
S1132F80CF910895B7DC6BEA79E280E090E0BFDF8F
S1132F9080E38093B309089560E483E07DDF60E417
S1132FA083E07ADFC9DB41DC53DC60932222709337
S1132FB02322809324229093252253DC60931920AA
S1132FC070931A2080931B2090931C2053DC6093F1
S1132FD026227093272280932822909329220895F1
S1132FE0CF93DF9300D01F92CDB7DEB784E0FE010C
S1132FF03196DF01982F1D929A95E9F789838EE324
S11330008B838FE28A8362E977E180E893E00E9410
S113301013038981982F906C99839C81292F2073A5
S113302021F09C7F92609C8303C08F70806E8983A3
S1133030AE014F5F5F4F60E080E893E00E9474024E
S113304060E080E893E00E94CB022496CDBFDEBF0F
S1133050DF91CF9108954F925F926F927F928F92FA
S11330609F92AF92BF92CF92DF92EF92FF92CF9353
S1133070DF93A7DC6B017C01E4DC0E94E42C4B01B0
S11330805C01CBE2D2E26885798580E090E00E9421
S1133090E42C20E030E040E853E40E94E82D9B015A
S11330A0AC01C501B4010E94A82B4B015C016C81E9
S11330B07D8180E090E00E94E42CA50194010E94AF
S11330C0E82D20E030E040E05CE30E94E82D2B0195
S11330D03C016881798180E090E00E94E42C20E04A
S11330E030E040E857E40E94E82D9B01AC01C301A5
S11330F0B2010E94A92B2B013C01C701B6010E9419
S1133100E42C9B01AC01C301B2010E94E82D20E034
S113311030E040E055E30E94E82D6B017C016E81B4
S11331207F8180E090E00E94E42CA50194010E943C
S1133130E82D20E030E040E85CE30E94E82D4B01FC
S11331405C016A817B8180E090E00E94E42C20E0B5
S113315030E040E058E40E94E82D9B01AC01C50139
S1133160B4010E94A92B9B01AC01C701B6010E94C6
S1133170A82B20E030E040E058E30E94E82DDF91E6
S1133180CF91FF90EF90DF90CF90BF90AF909F9042
S11331908F907F906F905F904F9008954F925F92C1
S11331A06F927F928F929F92AF92BF92CF92DF9253
S11331B0EF92FF922B013C01C0902320D090242059
S11331C0E0902520F090262020912720309128207F
S11331D04091292050912A20C701B6010E94E82D70
S11331E020911F20309120204091212050912220B5
S11331F00E94112C4B015C01A301920160912F20CC
S11332007091302080913120909132200E94112CB5
S1133210A50194010E944B2E20E030E040E85FE3DA
S11332200E94A82B20912B2030912C2040912D20FE
S113323050912E200E94E82DA70196010E94112C86
S1133240FF90EF90DF90CF90BF90AF909F908F90C2
S11332507F906F905F904F900895CF92DF92EF929E
S1133260FF92D2DCBC0180E090E00E94E42C23E4D5
S11332703EE242E05AE30E94E82D24EE3AE545ECB2
S11332805DE30E94A82B6B017C012BE235EB42E14C
S113329050E40E94E82D9B01AC01C701B6010E94D5
S11332A0A92BFF90EF90DF90CF9008952F923F923B
S11332B04F925F926F927F928F929F92AF92BF9242
S11332C0CF92DF92EF92FF920F931F93CF93DF93EE
S11332D000D000D0CDB7DEB76C01809114208823D4
S11332E009F46CC000E010E0412C512C3201862E10
S11332F0912CA12CB12C89829A82AB82BC82B80118
S1133300C601D8DC5C0118012FEF221A320AB10180
S1133310C601D0DC7C01B8016E5F7F4FC601CADCF8
S1133320A501BB0C660B770B8A019B01000F111FD3
S1133330221F331F400F511F621F731F8701FF0C91
S1133340220B330B78018901EE0CFF1C001F111FA7
S1133350EE0CFF1C001F111F4A015B018E189F0811
S1133360A00AB10AAC01990F660B770BD501C40111
S1133370840F951FA61FB71F9C01AD0169817A8137
S11333808B819C810E94B02F0E94E62C20E030E0CB
S113339040E05FE30E94E82D9B01AC01C301B20150
S11333A00E94A92B2B013C01809114208101282F1C
S11333B030E02216330608F4A2CF03C0412C512C6E
S11333C03201682F70E080E090E00E94E62C9B01BF
S11333D0AC01C301B2010E94112C20E030E048ECA2
S11333E052E40E94112C2696CDBFDEBFDF91CF910F
S11333F01F910F91FF90EF90DF90CF90BF90AF900F
S11334009F908F907F906F905F904F903F902F9000
S113341008953F924F925F926F927F928F929F9204
S1133420AF92BF92CF92DF92EF92FF920F931F93CE
S1133430CF93DF9300D000D0CDB7DEB78C011982D3
S11334401A82C12CD12C760169817A81C801BADC37
S11334504B015C0121E6821A2EEA920A2AE0A20AB2
S1133460B1082FE782162AE1920626E0A206B104EB
S113347080F40E94E62C20E030E040EA50E40E9410
S1133480112C9B01AC01C701B6010E94A92B6B0151
S11334907C0189819A81019689839A830597A1F693
S11334A019821A82812C912C540169817A81C80174
S11334B089DC2B013C0121E6421A2EEA520A2AE059
S11334C0620A71082FE742162AE1520626E06206D4
S11334D0710490F40E94E62CA70196010E94A82B87
S11334E09B01AC010E94E82D9B01AC01C501B40114
S11334F00E94A92B4B015C0189819A8101968983E1
S11335009A83059791F620E030E040E85EE3C50138
S1133510B4010E94E82D69837A838B839C831D8286
S11335201E82312C412C512C32016D817E81C801C7
S113353049DC4B015C0121E6821A2EEA920A2AE058
S1133540A20AB1082FE782162AE1920626E0A20613
S1133550B10450F50E94E62C4B015C01A7019601D1
S11335600E94A82B0E94B32C9B01772324F42227CA
S11335703327261B370BB901330F880B990B0E9495
S1133580E62C9B01AC0169817A818B819C810E942C
S1133590E42D88234CF0A5019401C301B2010E94DB
S11335A0A92B2B013C0133948D819E8101968D833F
S11335B09E83059709F0B9CF332069F0632D70E03D
S11335C080E090E00E94E42C9B01AC01C301B201B5
S11335D00E94112C04C060E070E080E89FEB269606
S11335E0CDBFDEBFDF91CF911F910F91FF90EF9080
S11335F0DF90CF90BF90AF909F908F907F906F900F
S11336005F904F903F900895AF92BF92CF92DF9218
S1133610EF92FF920F931F93CF93DF9300D000D0CC
S1133620CDB7DEB75C018B0116DD20E030E040E26F
S113363051E40E94E82D0E94B32C69837A838B8322
S11336409C8341E050E0BE016F5F7F4FC8015FDBA8
S1133650C801DFDE20E030E040E251E40E94112C9A
S11336606B017C0120E030E040E85FEB0E940D2C10
S11336708823D1F1C0921022D0921122E09212221A
S1133680F0921322C701B60189DD6093082270937A
S1133690092280930A2290930B2260910822709150
S11336A0092280910A2290910B2220E030E048EC1C
S11336B052E40E94E82D0E94B32C6D837E8341E086
S11336C050E0BE016B5F7F4FC501ABDA60911720FC
S11336D070911820C501EADD6093002270930122E5
S11336E0809302229093032283E393E1A5E9B3E458
S11336F080930C2290930D22A0930E22B0930F225C
S1133700ACDD60930422709305228093062290938B
S113371007222696CDBFDEBFDF91CF911F910F9177
S1133720FF90EF90DF90CF90BF90AF9008954F92AD
S11337305F926F927F928F929F92AF92BF92CF923D
S1133740DF92EF92FF92CF93DF9300D000D0CDB7FA
S1133750DEB76BD87DD8209122223091232240916C
S11337602422509125220E94A82B2B013C0179D8B8
S11337702091192030911A2040911B2050911C2037
S11337800E94A82B4B015C0175D820912622309110
S1133790272240912822509129220E94A82B6B01B4
S11337A07C01C301B2010E94B32C6D837E83772315
S11337B034F422273327261B370B2D833E838D8138
S11337C09E81853B910524F120E030E044EB53E4F5
S11337D0C301B2010E94E82D69837A838B839C83A1
S11337E02D813E81B901330F880B990B0E94E62C81
S11337F09B01AC0169817A818B819C810E94112C8F
S11338009B01AC01C301B2010E94A82B2B013C0116
S1133810C501B4010E94B32C6D837E83772334F4F5
S113382022273327261B370B2D833E838D819E81D0
S11338308B35910524F120E030E044E353E4C501E5
S1133840B4010E94E82D69837A838B839C832D8144
S11338503E81B901330F880B990B0E94E62C9B0122
S1133860AC0169817A818B819C810E94112C9B011E
S1133870AC01C501B4010E94A82B4B015C01C70136
S1133880B6010E94B32C6D837E83772334F4222700
S11338903327261B370B2D833E838D819E81853BE9
S11338A0910524F120E030E044EB53E4C701B60174
S11338B00E94E82D69837A838B839C832D813E81CA
S11338C0B901330F880B990B0E94E62C9B01AC01C4
S11338D069817A818B819C810E94112C9B01AC01AE
S11338E0C701B6010E94A82B6B017C014092E6211E
S11338F05092E7216092E8217092E9218092EA21B6
S11339009092EB21A092EC21B092ED21C092DE21A5
S1133910D092DF21E092E021F092E1212696CDBF02
S1133920DEBFDF91CF91FF90EF90DF90CF90BF90FB
S1133930AF909F908F907F906F905F904F9008957D
S113394080913A22813081F138F0823009F455C0F7
S1133950833009F4FCC07CC0609100227091012284
S1133960809102229091032220E030E040E450E470
S11339700E940D2C88230CF0EAC0609108227091FB
S1133980092280910A2290910B2220E030E041EE3E
S113399053E40E94E42D18160CF0D9C080913A2209
S11339A08F5F80933A2208956091002270910122E2
S11339B0809102229091032220E030E040E450E420
S11339C00E940D2C882384F46091082270910922AE
S11339D080910A2290910B2220E030E041EE53E4E2
S11339E00E940D2C88231CF081E080933922809161
S11339F03A228F5F80933A22089560910022709159
S1133A00012280910222909103220E94B32C9B01F7
S1133A10772324F422273327261B370B2330310541
S1133A208CF0609108227091092280910A22909171
S1133A300B2220E030E040E251E40E940D2C882368
S1133A400CF085C080913A228F5F80933A220895CA
S1133A5060910022709101228091022290910322B0
S1133A6020E030E040E450E40E94E42D181614F401
S1133A7010923A22609108227091092280910A22C0
S1133A8090910B2220E030E041EE53E40E94E42DBB
S1133A9018169CF4609100227091012280910222F8
S1133AA09091032220E030E040E450E40E940D2C89
S1133AB088231CF481E080933A226091082270915B
S1133AC0092280910A2290910B2220E030E041EEFD
S1133AD053E40E940D2C88239CF460910022709181
S1133AE00122809102229091032220E030E040E400
S1133AF050E40E940D2C88231CF482E080933A2227
S1133B0060910022709101228091022290910322FF
S1133B100E94B32C9B01772324F422273327261BEE
S1133B20370B233031059CF46091082270910922EF
S1133B3080910A2290910B2220E030E040E251E48F
S1133B400E940D2C88231CF483E080933A2208956C
S1133B5061E084E0A1D964E084E09ED9E0E6F6E087
S1133B60808187608083E0E0F9E085E0808383E101
S1133B70818380E197E286A397A386A197A18855C4
S1133B80924080A791A708958F929F92AF92BF927F
S1133B90CF92DF92EF92FF920F931F93CF93DF9315
S1133BA07C01C0E0D0E000E010E0BE01C70182D893
S1133BB0080F191F2196CA30D105B9F760E070E0EB
S1133BC0C70178D8EC016091172070911820C701C3
S1133BD06DDB6B017C01BE01DD0F880B990B0E942C
S1133BE0E62C20E030E0A9010E94E82D20E030E03E
S1133BF048EC52E40E94112C4B015C01B801110FF6
S1133C00880B990B0E94E62C20E030E0A9010E9469
S1133C10E82D20E030E048EC52E40E94112C9B0196
S1133C20AC01C501B4010E94A92B4B015C0120E049
S1133C3030E0A901C701B6010E94E82D9B01AC0147
S1133C40C501B4010E94A92B20E030E84BEB54E4F9
S1133C500E94A92B0E94B82C60931D2070931E20F3
S1133C6060911D2070911E2080E090E00E94E42C61
S1133C7020E030E04AE754E40E94112C20E030E0D8
S1133C804AEF53E40E94E82D0E94B82C609328095F
S1133C9070932909DF91CF911F910F91FF90EF90BD
S1133CA0DF90CF90BF90AF909F908F90089561E088
S1133CB085E0F2D8E0E0FAE087E0808381E19AE7EA
S1133CC086A397A381E08683089562E084E0E4D824
S1133CD064E084E0E1D8E0E6F6E0808180618083FE
S1133CE0E0E4F9E085E0808383E1818388EB90E080
S1133CF086A397A38CE590E080A791A70895CF921F
S1133D00DF92EF92FF928091202290912122C09025
S1133D10E221D090E321E090E421F090E5212CE32E
S1133D20289FB001299F700D112480E090E00E942B
S1133D30E42CA70196010E94A92B20E030E040E08A
S1133D405FE30E94E82D6093E2217093E321809366
S1133D50E4219093E5211092202210922122FF90D9
S1133D60EF90DF90CF9008958091102290911122CE
S1133D70A0911222B091132280932F20909330208F
S1133D80A0933120B093322083E393E1A5E9B3E417
S1133D9080932B2090932C20A0932D20B0932E2041
S1133DA008950E943A1460932622709327228093E8
S1133DB02822909329220895D7DFF3CF0895E0E0D5
S1133DC0F9E086A197A1885E934080A791A781E03E
S1133DD0809339220895E0E0F9E086A197A18855FF
S1133DE0924080A791A71092392208952F923F9272
S1133DF04F925F926F927F928F929F92AF92BF92F7
S1133E00CF92DF92EF92FF920F931F93CF93DF93A2
S1133E10CDB7DEB7E997CDBFDEBF80911422909174
S1133E201522019680931422909315226091DE212D
S1133E307091DF218091E0219091E12120913A223B
S1133E4029834090E2215090E3216090E421709016
S1133E50E5218090E6219090E721A090E821B090A0
S1133E60E921C090EA21D090EB21E090EC21F09080
S1133E70ED214091EE215091EF2148AF59AF2091AF
S1133E80F0213091F1214091F2215091F3212A83C4
S1133E903B834C835D832091F0213091F12140914B
S1133EA0F2215091F3212E833F8348875987209133
S1133EB0F4213091F5214091F6215091F7212A8780
S1133EC03B874C875D872091F4213091F521409107
S1133ED0F6215091F7212E873F87488B598B2091EB
S1133EE0F8213091F9214091FA215091FB212A8B3C
S1133EF03B8B4C8B5D8B2091F8213091F9214091C3
S1133F00FA215091FB212E8B3F8B488F598F2091A2
S1133F10FC213091FD214091FE215091FF212A8FF7
S1133F203B8F4C8F5D8F2091FC213091FD2140917E
S1133F30FE215091FF212E8F3F8F48A359A320913A
S1133F40FC213091FD214091FE215091FF212AA3B3
S1133F503BA34CA35DA32091042230910522409100
S1133F600622509107222EA33FA348A759A72091C8
S1133F700C2230910D2240910E2250910F222AA73B
S1133F803BA74CA75DA720911022309111224091AC
S1133F901222509113222EA73FA748AB59AB209170
S1133FA008223091092240910A2250910B222AAB17
S1133FB03BAB4CAB5DAB00911422109115222090C9
S1133FC018223090192240911822509119224EAB98
S1133FD05FAB0E94B32C7F936F931F9259815F93C1
S1133FE0C301B2010E94B32C7F936F93C501B40146
S1133FF00E94B32C7F936F93C701B6010E94B32C28
S11340007F936F9389AD8F9398AD9F936A817B81E2
S11340108C819D810E94B32C9B01220F331F660F5C
S1134020771F660F771F660F771FC901860F971FCB
S11340306AE070E00E94D32F9F938F936E817F81FB
S1134040888599850E94B32C7F936F9320E034E296
S113405044E759E46A857B858C859D850E94E82D1B
S11340600E94B32C20E432E44FE050E00E94083078
S11340709B01772324F422273327261B370BC901FE
S1134080330FAA0BBB0BBF93AF939F938F936E8594
S11340907F85888999890E94B32C7F936F9320E050
S11340A034E244E759E46A897B898C899D890E94BA
S11340B0E82D0E94B32C20E432E44FE050E00E944B
S11340C008309F938F937F936F936E897F89888D38
S11340D0998D0E94B32C7F936F936A8D7B8D8C8D09
S11340E09D8D0E94B32C0F2EF4E6CF2ED12CE12C03
S11340F0F12CF02DA70196010E9408307F936F9355
S11341006E8D7F8D88A199A10E94B32C0F2EF0E1B2
S11341108F2EF7E29F2EA12CB12CF02DA501940136
S11341200E940830A70196010E9408303F932F9304
S11341306AA17BA18CA19DA10E94B32CA50194012D
S11341400E9408303F932F936EA17FA188A599A563
S11341500E94B32C7F936F9323E333E948E853E43D
S11341606AA57BA58CA59DA50E94A82B0E94B32CB3
S11341707F936F936EA57FA588A999A90E94B32CFC
S11341809F938F937F936F936AA97BA98CA99DA911
S11341900E94B32C7F936F931F930F939101ADEC07
S11341A0BCEC0E942D3096958795969587959695AB
S11341B087959C01220F331F880F991F880F991F21
S11341C0880F991F820F931F281A390A3F922F9242
S11341D02EA93FA90E942D3096958795969587958F
S11341E0969587959F938F93809116208F938091B6
S11341F015208F9328E832E23F932F930E94923147
S1134200CDBFDEBF28E832E23F932F930E947F3177
S11342100F900F90E996CDBFDEBFDF91CF911F9134
S11342200F91FF90EF90DF90CF90BF90AF909F9051
S11342308F907F906F905F904F903F902F90089554
S11342404F925F926F927F928F929F92AF92BF92A2
S1134250CF92DF92EF92FF920F931F93CF93DF934E
S1134260CDB7DEB7A097CDBFDEBFAFE2B0E2FC9121
S113427011965C90119712966C90129713967C90FD
S1134280139714968C90149715969C9015971696E0
S1134290AC90169717964C90ABE2B0E2EC91119665
S11342A0BC9011971296CC9012971396DC901397AA
S11342B01496EC9014971596FC90159716961C91ED
S11342C016971796AC91F9832F2F352D462D572D20
S11342D0682D792D8A2D942D08E00E9410312A83AF
S11342E02F2F352D462D572D682D792D8A2D942D60
S11342F000E10E9410312B832F2F352D462D572D91
S1134300682D792D8A2D942D08E10E9410312C837B
S11343102F2F352D462D572D682D792D8A2D942D2F
S113432000E20E9410312D832F2F352D462D572D5D
S1134330682D792D8A2D942D08E20E9410312E8348
S11343402F2F352D462D572D682D792D8A2D942DFF
S113435000E30E9410312F832F2F352D462D572D2A
S1134360682D792D8A2D942D08E30E941031288719
S1134370E9872E2F3B2D4C2D5D2D6E2D7F2D812F0A
S11343809A2F08E00E9410312A872E2F3B2D4C2DA6
S11343905D2D6E2D7F2D812F9A2F00E10E9410310B
S11343A02B872E2F3B2D4C2D5D2D6E2D7F2D812F98
S11343B09A2F08E10E9410312C872E2F3B2D4C2D73
S11343C05D2D6E2D7F2D812F9A2F00E20E941031DA
S11343D02D872E2F3B2D4C2D5D2D6E2D7F2D812F66
S11343E09A2F08E20E9410312E872E2F3B2D4C2D40
S11343F05D2D6E2D7F2D812F9A2F00E30E941031A9
S11344002F872E2F3B2D4C2D5D2D6E2D7F2D812F33
S11344109A2F08E30E941031288B80E1E3E3F0E255
S1134420DE01519601900D928A95E1F783E3809322
S1134430CA01FE017196CE010196AE014F5D5F4F38
S113444060EC71E02191DB012C93DC012D91CD0115
S1134450DB0114962C93E417F507A1F7E0ECF1E0E7
S113446085E38287108280E1818388ED84BF81E0C7
S1134470838787858823ECF3A096CDBFDEBFDF91C9
S1134480CF911F910F91FF90EF90DF90CF90BF904D
S1134490AF909F908F907F906F905F904F90089512
S11344A00F931F93CF93DF93CDB7DEB7A197CDBF03
S11344B0DEBF609108227091092280910A229091B6
S11344C00B220E94B32C162F072F609100227091AB
S11344D0012280910222909103220E94B32C262F64
S11344E0372F80911A2290E0019664E670E00E94D2
S11344F0D32F80931A22A0911422B0911522E09117
S11345001422F09115226091182270911922409181
S113451018225091192290913A2209831A83BB835D
S1134520EC837D834E833F83288789878A879B8793
S11345308BE0FE013196DE011C9601900D928A9566
S1134540E1F78BE0E3E4F0E2DE01579601900D928F
S11345508A95E1F783E38093CA0180E090E0E0EC80
S1134560F1E0A7E1B0E0AC0FBD1FA80FB91F2C917B
S11345702083ACE0B0E0AC0FBD1FA80FB91F2C9195
S1134580248301968A30910561F7E0ECF1E085E33C
S11345908287108280E1818388ED84BF81E08387F4
S11345A087858823ECF3A196CDBFDEBFDF91CF9141
S11345B01F910F9108952F923F924F925F926F92A5
S11345C07F928F929F92AF92BF92CF92DF92EF929F
S11345D0FF920F931F93CF93DF93CDB7DEB7E79787
S11345E0CDBFDEBF80911422909115220196809355
S11345F01422909315226091DE217091DF21809125
S1134600E0219091E12120913A2229834090E221F6
S11346105090E3216090E4217090E5218090E621A0
S11346209090E721A090E821B090E921C090EA2180
S1134630D090EB21E090EC21F090ED214091EE211F
S11346405091EF214EAB5FAB2091F0213091F121DD
S11346504091F2215091F3212A833B834C835D8363
S11346602091F0213091F1214091F2215091F321D8
S11346702E833F83488759872091F4213091F52177
S11346804091F6215091F7212A873B874C875D871B
S11346902091F4213091F5214091F6215091F72198
S11346A02E873F87488B598B2091F8213091F9212F
S11346B04091FA215091FB212A8B3B8B4C8B5D8BD3
S11346C02091F8213091F9214091FA215091FB2158
S11346D02E8B3F8B488F598F2091FC213091FD21E7
S11346E04091FE215091FF212A8F3B8F4C8F5D8F8B
S11346F02091FC213091FD214091FE215091FF2118
S11347002E8F3F8F48A359A32091FC213091FD2186
S11347104091FE215091FF212AA33BA34CA35DA30A
S113472020910422309105224091062250910722C3
S11347302EA33FA348A759A720910C2230910D2204
S113474040910E2250910F222AA73BA74CA75DA7A8
S11347502091102230911122409112225091132263
S11347602EA73FA748AB59AB2091082230910922CC
S113477040910A2250910B222AAB3BAB4CAB5DAB70
S113478020901422309015220091182210911922A1
S11347900E94B32C7F936F931F9239813F93C3017F
S11347A0B2010E94B32C7F936F93C501B4010E94A0
S11347B0B32C7F936F93C701B6010E94B32C7F93F0
S11347C06F934FA94F935EA95F936A817B818C811C
S11347D09D810E94B32C9B01220F331F660F771F0C
S11347E0660F771F660F771FC901860F971F6AE050
S11347F070E00E94D32F9F938F936E817F81888571
S113480099850E94B32C7F936F9320E034E244E7B0
S113481059E46A857B858C859D850E94E82D0E94DC
S1134820B32C20E432E44FE050E00E9408309B01B6
S1134830772324F422273327261B370BC901330F90
S1134840AA0BBB0BBF93AF939F938F936E857F850A
S1134850888999890E94B32C7F936F9320E034E276
S113486044E759E46A897B898C899D890E94E82DF3
S11348700E94B32C20E432E44FE050E00E94083060
S11348809F938F937F936F936E897F89888D998D82
S11348900E94B32C7F936F936A8D7B8D8C8D9D8D3D
S11348A00E94B32C0F2EF4E6CF2ED12CE12CF12C48
S11348B0F02DA70196010E9408307F936F936E8DAF
S11348C07F8D88A199A10E94B32C0F2EF0E18F2E29
S11348D0F7E29F2EA12CB12CF02DA50194010E948A
S11348E00830A70196010E9408303F932F936AA1D4
S11348F07BA18CA19DA10E94B32CA50194010E94CF
S113490008303F932F936EA17FA188A599A50E949B
S1134910B32C7F936F9323E333E948E853E46AA508
S11349207BA58CA59DA514D70E94B32C7F936F9370
S11349306EA57FA588A999A90E94B32C9F938F93F4
S11349407F936F936AA97BA98CA99DA90E94B32C1C
S11349507F936F933F922F921F930F938091162012
S11349608F93809115208F9388E892E29F938F9381
S11349700E949231CDBFDEBF88E892E29F938F936D
S11349800E947F318DDD109238220F900F90E796B0
S1134990CDBFDEBFDF91CF911F910F91FF90EF90BC
S11349A0DF90CF90BF90AF909F908F907F906F904B
S11349B05F904F903F902F900895CF93DF93C0EC7A
S11349C0D1E026E02A878883998388ED84BF81E03B
S11349D08B8766ED74E180E090E00E9487178C81FC
S11349E0DF91CF9108952F923F924F925F926F92F1
S11349F07F928F929F92AF92BF92CF92DF92EF926B
S1134A00FF920F931F93CF93DF93CDB7DEB7279712
S1134A10CDBFDEBF0E9417176BEA79E280E090E019
S1134A200E94871778948CEB8093400687E08093EC
S1134A30A2000E944A140E9494156BEA70EB88E26B
S1134A4090E00E94871780E28093A30A0E94C21715
S1134A503CD90E94F0170E9451140E94DB150E9459
S1134A6061150E949C170E94CC170E9443141FD901
S1134A706FD882E090E1A1DF89838FE190E19DDF2F
S1134A808A8399818A819813D3C189818F3F09F4DC
S1134A90CFC180E190E191DF182F8FE090E18DDFAD
S1134AA0B82F212F30E040E050E060E070E080E07B
S1134AB090E008E30E94F530122FC32EF42EA52FA8
S1134AC0F62FE72FD82EE92E2B2F30E040E050E0D0
S1134AD060E070E080E090E000E30E94F530122B8B
S1134AE0C32AF42A9A2E952AAF2EA62ABE2EB72AB6
S1134AF0D82AE92A8EE090E160DF082F8DE090E16A
S1134B005CDF282E8CE090E158DF382E8BE090E1BA
S1134B1054DF482E8AE090E150DF582E89E090E17E
S1134B204CDF682E202F30E040E050E060E070E081
S1134B3080E090E008E20E94F5301629122BC32A87
S1134B40F42AA52FA929F62FFA29E72FEB29D82A29
S1134B50E92A222D30E040E050E060E070E080E09F
S1134B6090E000E20E94F530122BC32AF42AA52B10
S1134B70F62BE72BD82AE92A232D30E040E050E039
S1134B8060E070E080E090E008E10E94F530122BD4
S1134B90C32AF42AA52BF62BE72BD82AE92A242D9D
S1134BA030E040E050E060E070E080E090E000E160
S1134BB00E94F530122BC32AF42AA52BF62BE72BDF
S1134BC0D82AE92A252D30E040E050E060E070E08A
S1134BD080E090E008E00E94F530612E622A7C2C8F
S1134BE0732A8F2C842A9A2E952AAF2EA62ABE2E9B
S1134BF0B72AD82AE92A89E190E1DFDE182F88E173
S1134C0090E1DBDE482E212F30E040E050E060E010
S1134C1070E080E090E008E30E94F530C22E532E4D
S1134C20B42FA52FF62FE72FF82E192F242D30E0BF
S1134C3040E050E060E070E080E090E000E30E943B
S1134C40F530C22A532A5F822B2E242A3A2E352A83
S1134C504F2E462A5E2E572AF82A192B87E190E117
S1134C60ACDE082F86E190E1A8DE8B8385E190E13C
S1134C70A4DE8C8384E190E1A0DE8D8383E190E166
S1134C809CDE8E8382E190E198DEE82FAFE2B0E211
S1134C906C9211967C92119712968C92129713969D
S1134CA09C9213971496AC9214971596BC921597F0
S1134CB01696DC9216971796EC92ABE2B0E2202F90
S1134CC030E040E050E060E070E080E090E008E236
S1134CD00E94F530CE2AC22ABF80B32AD42ED2280D
S1134CE0E52EE328F62FF429E72FE529F82A192BD6
S1134CF02B8130E040E050E060E070E080E090E044
S1134D0000E20E94F530C22AB32AD42AE52AF62BFF
S1134D10E72BF82A192B2C8130E040E050E060E0CA
S1134D2070E080E090E008E10E94F530C22AB32AE6
S1134D30D42AE52AF62BE72BF82A192B2D8130E00B
S1134D4040E050E060E070E080E090E000E10E942C
S1134D50F530C22AB32AD42AE52AF62BE72BF82AFF
S1134D60192B2E8130E040E050E060E070E080E0FC
S1134D7090E008E00E94F5302C292C933B291196F1
S1134D803C9311974D2912964C9312975E291396D2
S1134D905C9313976F2B14966C9314977E2B159634
S1134DA07C9315978F2916968C931697912B1796AB
S1134DB09C9381E090E101DE182F80E090E1FDDD1D
S1134DC0612F70E0762F6627682B072E000C880B66
S1134DD0990BFCD5609308227093092280930A22D0
S1134DE090930B2287E090E1E8DD182F86E090E1B4
S1134DF0E4DD212F30E0322F2227282B20931822A4
S1134E003093192284E090E1D8DD182F83E090E1FB
S1134E10D4DD212F30E0322F2227282B2093142297
S1134E203093152285E090E1C8DD80933A2219C0C1
S1134E300E942B1860932F20709330208093312090
S1134E409093322083E393E1A5E9B3E480932B208C
S1134E5090932C20A0932D20B0932E2010923A22D0
S1134E60EFD90E94A01C2796CDBFDEBFDF91CF9162
S1134E701F910F91FF90EF90DF90CF90BF90AF9074
S1134E809F908F907F906F905F904F903F902F9066
S1134E90089583E38093CA0180E0E0ECF1E09FEFA2
S1134EA0808394838F5F8032D9F7E0ECF1E080E374
S1134EB0828788ED84BF81E0838787858823ECF32C
S1134EC00895E7DF8FB7F89498ED94BF91E090933D
S1134ED079008FBF089590E0FC01E156F109E331B8
S1134EE0F105C8F48827E250FF4F8F4F0C9424300B
S1134EF0E8CF08950C94DC1E08950C94B41E089514
S1134F000C94D11E08950C94DF1E08950C94EB1E8E
S1134F1008950C94F61E0895CF93DF93CDB7DEB7B2
S1134F20C856D109CDBFDEBF5EDDE0E6F6E0808184
S1134F308860808384818860848314E1BE016F5F0C
S1134F407F4FFB01812F11928A95E9F74AE050E0E7
S1134F50CE0145960E945016BE01635E7F4F88E2E3
S1134F60FB0111928A95E9F74AE050E0CE018B5B90
S1134F709F4F0E94D816BE01635B7F4FFB011192C5
S1134F801A95E9F74AE050E0CE018F599F4F0E94ED
S1134F90501600E010E0BE016B5B7F4FCE014596DA
S1134FA00E94041B0E94A01C0E94971B80913A221D
S1134FB0813031F0C8F1823039F0833079F132C078
S1134FC0111132C011E030C0111101C011E0609123
S1134FD008227091092280910A2290910B2220E0EC
S1134FE030E041EE53E4B4D3BED49B01772324F4E0
S1134FF022273327261B370B2A3031052CF40E9435
S1135000DF1E0E94F01710C080913922882361F0BE
S1135010CE018F599F4F0E94C41D06C0011104C0C8
S113502001E002C00E94A01C80913822882329F04C
S11350300E947F1EC0DA1092382280913722882382
S113504039F080912A2247DF10922A2210923722C7
S113505080911622909117220196809316229093A4
S113506017228091182290911922892B09F493CF49
S11350708091162290911722609118227091192222
S11350807ED7609317207093182085CF1F920F92BC
S11350900FB60F92112408B60F9218BE8F939F93E8
S11350A0809118229091192201968093182290934E
S11350B0192281E0809338229F918F910F9008BE2E
S11350C00F900FBE0F901F9018951F920F920FB65E
S11350D00F92112408B60F9218BE09B60F9219BE8A
S11350E00BB60F921BBE2F933F934F935F936F9317
S11350F07F938F939F93AF93BF93EF93FF9380EA34
S11351009AE00E94030B80932A2281E08093372245
S1135110FF91EF91BF91AF919F918F917F916F918B
S11351205F914F913F912F910F900BBE0F9009BE4D
S11351300F9008BE0F900FBE0F901F9018951F92EE
S11351400F920FB60F92112408B60F9218BE09B62B
S11351500F9219BE0AB60F921ABE0BB60F921BBE5F
S11351608F929F92AF92BF92CF92DF92EF92FF9273
S11351701F932F933F934F935F936F937F938F93DB
S11351809F93AF93BF93EF93FF93CF93DF9300D09D
S113519000D0CDB7DEB780EB99E00E94030B182F47
S11351A0843251F481E080931F2210921E221092C7
S11351B01D2210921C225DC28A3229F410921C22F4
S11351C010921F2256C28C3209F053C2E4E7F2E275
S11351D080E280838181803209F07AC280E3809307
S11351E0742276C2809174228E3209F0A6C1ACC1B9
S11351F0809174228E3209F0F2C0F8C0809174223A
S11352008E3209F053C059C091919E3229F401C0E5
S113521080E080931B2203C08F5F8F30A9F7E09159
S11352201B22F0E0EC58FD4D80E2808320911B228C
S11352302F5F2F30C8F4822F90E0FC01EC58FD4D15
S11352403081303289F040E208C0822F90E0FC01C6
S1135250EC58FD4D3081303239F0FC01EC58FD4DF5
S113526040832F5F2F3089F7CE0101969F938F9350
S113527081E491E29F938F9384E792E29F938F93CB
S11352800E94BA3169817A818B819C819FD360931A
S1135290FC217093FD218093FE219093FF210F90B8
S11352A00F900F900F900F900F90C5C1E5E7F2E2B9
S11352B081E091919E3229F401C080E080931B2209
S11352C003C08F5F8F30A9F7E0911B22F0E0EC5808
S11352D0FD4D80E2808320911B222F5F2F3008F543
S11352E0822F90E0FC01EC58FD4D30813032C9F042
S11352F050E208C0822F90E0FC01EC58FD4D308153
S1135300303279F040911B22FC01E41BF109EE5785
S1135310FD4D3083FC01EC58FD4D50832F5F2F3041
S113532049F780918322803219F480E380938322A9
S1135330CE0101969F938F9381E491E29F938F9383
S113534084E792E29F938F930E94BA31CE0105962F
S11353509F938F9385E491E29F938F9383E892E2E6
S11353609F938F930E94BA3189809A80AB80BC80CE
S11353706D817E81072E000C880B990B27D320E0CA
S113538030E44CE156E44DD26B017C01C501B4011B
S113539024E630E040E050E03BD649015A0116D300
S11353A09B01AC01C701B601D4D120E030E040E755
S11353B052E437D26B017C01C501B40107D39B01D0
S11353C0AC01C701B601C5D16093F8217093F921EE
S11353D08093FA219093FB21CDBFDEBF2CC1E5E77A
S11353E0F2E281E091919E3229F401C080E0809341
S11353F01B2203C08F5F8F30A9F7E0911B22F0E0DE
S1135400EC58FD4D80E2808320911B222F5F2F30CA
S113541008F5822F90E0FC01EC58FD4D30813032CC
S1135420C9F050E208C0822F90E0FC01EC58FD4D19
S11354303081303279F040911B22FC01E41BF109E8
S1135440EE57FD4D3083FC01EC58FD4D50832F5F2A
S11354502F3049F780918322803219F480E38093BE
S11354608322CE0101969F938F9381E491E29F93CF
S11354708F9384E792E29F938F937CD7CE01059616
S11354809F938F9385E491E29F938F9383E892E2B5
S11354909F938F936FD789809A80AB80BC806D81F6
S11354A07E81072E000C880B990B90D220E030E40B
S11354B04CE156E4B6D16B017C01C501B40124E68C
S11354C030E040E050E0A4D549015A017FD29B016D
S11354D0AC01C701B6013DD120E030E040E752E421
S11354E0A0D16B017C01C501B40170D29B01AC0158
S11354F0C701B6012ED1DC01CB01B0588093F42151
S11355009093F521A093F621B093F721CDBFDEBF90
S113551092C08EEE91E29F938F9385E491E29F93E4
S11355208F9384E792E29F938F9324D70F900F90E9
S11355300F900F900F900F907EC0E5E7F2E281E0AC
S113554091919E3229F401C080E080931B2203C014
S11355508F5F8F30A9F7E0911B22F0E0EC58FD4DEE
S113556080E2808320911B222F5F2F3008F5822F49
S113557090E0FC01EC58FD4D30813032C9F050E22E
S113558008C0822F90E0FC01EC58FD4D3081303290
S113559079F040911B22FC01E41BF109EE57FD4D0B
S11355A03083FC01EC58FD4D50832F5F2F3049F7B9
S11355B080918322803219F480E380938322CE0188
S11355C001969F938F9381E491E29F938F9384E755
S11355D092E29F938F93CED6CE0105969F938F939D
S11355E085E491E29F938F9383E892E29F938F9354
S11355F0C1D669817A818B819C81E8D16B017C0160
S11356006D817E81072E000C880B990BDFD120E081
S113561030E040E251E405D19B01AC01C701B60181
S113562098D06093F0217093F1218093F2219093AC
S1135630F321CDBFDEBF80911F228823D1F01092C9
S11356401B2280911C228F5F80931C2210921D22AA
S1135650E4E7F2E223E832E280E281932E173F0787
S1135660E1F7E3E8F2E280E280838183828383834B
S1135670848380911F22882309F443C080911E22D1
S1135680833019F0843031F009C0173439F01092A6
S11356901F2204C0173411F010921F22E0911D2222
S11356A0F0E0EC58FD4D108380911D228F5F8093B4
S11356B01D2280911E228F5F80931E2222C0809122
S11356C074228E3209F4A4CDE5E7F2E281E09CCDA8
S11356D019821A821B821C821D821E8280911C22C6
S11356E0843009F485CD30F4813049F3823009F4F3
S11356F085CDA1CF873009F40CCF893009F472CD60
S11357009ACF2696CDBFDEBFDF91CF91FF91EF9167
S1135710BF91AF919F918F917F916F915F914F91C5
S11357203F912F911F91FF90EF90DF90CF90BF900A
S1135730AF909F908F900F900BBE0F900ABE0F906A
S113574009BE0F9008BE0F900FBE0F901F901895C2
S11357505058BB27AA270ED0FDC1EED130F0F3D1AB
S113576020F031F49F3F11F41EF4D3C10EF4E09500
S1135770E7FBC9C1E92FFFD180F3BA1762077307AA
S11357808407950718F071F49EF517C20EF4E0959E
S11357900B2EBA2FA02D0B01B90190010C01CA01E7
S11357A0A0011124FF27591B99F0593F50F4503E92
S11357B068F11A16F040A22F232F342F4427585F84
S11357C0F3CF469537952795A795F0405395C9F79C
S11357D07EF41F16BA0B620B730B840BBAF0915054
S11357E0A1F0FF0FBB1F661F771F881FC2F70EC0F3
S11357F0BA0F621F731F841F48F4879577956795C6
S1135800B795F7959E3F08F0B3CF9395880F08F0AE
S11358109927EE0F97958795089551D108F481E063
S113582008950CD097C18FD140F086D130F021F487
S11358305F3F19F068C15111C1C16BC19CD198F38C
S11358409923C9F35523B1F3951B550BBB27AA27FD
S113585062177307840738F09F5F5F4F220F331F6F
S1135860441FAA1FA9F333D00E2E3AF0E0E830D03B
S113587091505040E695001CCAF729D0FE2F27D03E
S1135880660F771F881FBB1F261737074807AB070C
S1135890B0E809F0BB0B802DBF01FF2793585F4F81
S11358A02AF09E3F510568F02EC188C15F3FECF39A
S11358B0983EDCF3869577956795B795F7959F5F46
S11358C0C9F7880F911D9695879597F90895E1E09A
S11358D0660F771F881FBB1F621773078407BA07F9
S11358E020F0621B730B840BBA0BEE1F88F7E09554
S11358F00895BEE304D008F490E80895BFE3222796
S11359003327A90140D158F19F5740F1B91738F115
S1135910BFE3B91B9927B8503AF4660F771F881F65
S1135920991FB395D2F316C0B8504AF0232F342FE1
S1135930452F562F672F782F8827B850BAF7B85FAE
S113594049F08695779567955795479537952795A7
S1135950BA95B9F70EF4E0D088940895889460E07D
S113596070E0CB01089504D06894B11127C1089563
S11359700AD188F09F5790F0B92F9927B751A0F01A
S1135980D1F0660F771F881F991F1AF0BA95C9F7CF
S113599012C0B13081F011D1B1E008950EC1672F6A
S11359A0782F8827B85F39F0B93FCCF3869577957F
S11359B06795B395D9F73EF4909580957095619568
S11359C07F4F8F4F9F4F0895E89409C097FB3EF493
S11359D090958095709561957F4F8F4F9F4F992338
S11359E0A9F0F92F96E9BB279395F69587957795B6
S11359F06795B795F111F8CFFAF4BB0F11F460FF76
S1135A001BC06F5F7F4F8F4F9F4F16C0882311F0CD
S1135A1096E911C0772321F09EE8872F762F05C0E1
S1135A20662371F096E8862F70E060E02AF09A957C
S1135A30660F771F881FDAF7880F9695879597F971
S1135A400895E894F92F96EBFF2381F012161306BC
S1135A501406440B9395F695879577956795579516
S1135A604040FF23B9F71BC099270895882351F4B8
S1135A709850D2F7872B762F652F542F432F322F30
S1135A8020E0B1F3121613061406440B88233AF0EF
S1135A909A95440F551F661F771F881FCAF7552311
S1135AA04AF4440F551F11F460FF04C06F5F7F4F29
S1135AB08F4F9F4F880F9695879597F90895990F63
S1135AC00008550FAA0BE0E8FEEF16161706E807C4
S1135AD0F907C0F012161306E407F50798F0621BE5
S1135AE0730B840B950B39F40A2661F0232B242BBA
S1135AF0252B21F408950A2609F4A140A6958FEFD9
S1135B00811D811D089597F99F6780E870E060E02A
S1135B1008959FEF80EC0895909580957095609519
S1135B2050954095309521953F4F4F4F5F4F6F4FA4
S1135B307F4F8F4F9F4F089500240A94161617061F
S1135B4018060906089500240A941216130614066A
S1135B5005060895092E0394000C11F4882352F0CD
S1135B60BB0F40F4BF2B11F460FF04C06F5F7F4F85
S1135B708F4F9F4F089557FD9058440F551F59F06C
S1135B805F3F71F04795880F97FB991F61F09F3F26
S1135B9079F087950895121613061406551FF2CF4F
S1135BA04695F1DF08C0161617061806991FF1CF9F
S1135BB086957105610508940895E894BB276627C6
S1135BC07727CB0197F908957ADF08F48FEF0895CA
S1135BD00BD0C0CFB1DF28F0B6DF18F0952309F061
S1135BE092CF97CF1124EACFC6DFA0F3959FD1F3CC
S1135BF0950F50E0551F629FF001729FBB27F00D77
S1135C00B11D639FAA27F00DB11DAA1F649F6627CB
S1135C10B00DA11D661F829F2227B00DA11D621F1A
S1135C20739FB00DA11D621F839FA00D611D221FD4
S1135C30749F3327A00D611D231F849F600D211DB8
S1135C40822F762F6A2F11249F5750408AF0E1F05B
S1135C5088234AF0EE0FFF1FBB1F661F771F881FA4
S1135C6091505040A9F79E3F510570F04CCFA6CFFC
S1135C705F3FECF3983EDCF3869577956795B7958F
S1135C80F795E7959F5FC1F7FE2B880F911D9695B9
S1135C90879597F90895FA01EE0FFF1F30962105B5
S1135CA0310599F16115710561F48038BFE39B07F3
S1135CB049F168949038810561F08038BFEF9B0703
S1135CC041F0992342F5FF3FE1053105210511F12A
S1135CD0E8940894E795D901AA2329F4AB2FBE2FA1
S1135CE0F85FD0F310C0FF5F70F4A695E0F7F739C2
