S00F0000536B79466972652E7372656358
S113000044C1000068C1000066C1000064C1000072
S113001062C1000060C100005EC100005CC100005C
S11300205AC1000058C1000056C1000054C100006C
S113003052C1000007C300004EC100004CC10000C3
S11300404AC1000048C1000046C1000044C100008C
S113005042C1000040C100003EC100003CC100009C
S11300603AC1000038C1000036C1000034C10000AC
S113007032C1000030C100002EC100002CC10000BC
S11300802AC1000028C1000026C1000024C10000CC
S113009022C1000020C100001EC100001CC10000DC
S11300A01AC1000018C1000016C1000014C10000EC
S11300B012C1000010C10000F7C200000C94BE126F
S11300C00AC1000008C1000006C1000004C100000C
S11300D002C1000000C10000FEC00000FCC000001E
S11300E0FAC00000F8C000000C94D212F4C0000062
S11300F0F2C00000F0C00000EEC00000ECC0000040
S1130100EAC00000E8C00000E6C00000E4C000004F
S1130110E2C00000E0C00000DEC0000008C1000032
S113012043C100007EC10000B9C10000D4C000007A
S1130130D2C00000D0C00000CEC00000CCC000007F
S1130140CAC00000C8C00000C6C00000C4C000008F
S1130150C2C00000C0C00000BEC00000BCC000009F
S1130160BAC00000B8C00000B6C000000C940C1364
S1130170B2C00000B0C00000AEC00000ACC00000BF
S1130180AAC00000A8C00000A6C00000A4C00000CF
S1130190A2C00000A0C000009EC000009CC00000DF
S11301A09AC0000098C0000096C0000094C00000EF
S11301B092C0000090C000008EC000008CC00000FF
S11301C08AC0000088C0000086C0000084C000000F
S11301D082C0000080C000007EC000007CC000001F
S11301E07AC0000078C0000076C0000074C000002F
S11301F072C0000070C000006EC000000763423689
S1130200B79BD8A71A39685618AEBAAB558C1D3CA3
S1130210B7CC5763BD6DEDFD753EF6177231BF0067
S11302200000803F08000000BE922449123EABAAA1
S1130230AA2ABECDCCCC4C3E00000080BEABAAAAFC
S1130240AA3E00000000BF000000803F0000000044
S113025000084178D3BB4387D1133D190E3CC3BD7D
S11302604282AD2B3E68EC8276BED98FE1A93E4C2A
S113027080EFFFBE01C4FF7F3F0000000000636405
S1130280696E6F70737578585B0011241FBECFEFD1
S1130290CDBFDFE3DEBF00E00CBF18BE19BE1ABE3F
S11302A01BBE10E2A0E0B0E2EAE7F4E400E00BBF1A
S11302B002C007900D92A23CB107D9F71BBE21E200
S11302C0A2ECB0E201C01D92AE3AB207E1F70E947F
S11302D002120C943B2294CECF93DF931F92CDB79E
S11302E0DEB78091282190912921E0912421F09179
S11302F02521BE016F5F7F4F19958981082E000C5F
S1130300990B0F90DF91CF910895682F8091282148
S113031090912921E0912621F09127211995992383
S11303201CF081E090E008958FEF9FEF08951F92F5
S11303300F920FB60F92112408B60F9218BE09B689
S11303400F9219BE0BB60F921BBE2F933F934F9380
S11303505F936F937F938F939F93AF93BF93EF9329
S1130360FF934091240250912502E0912A21F091BB
S11303702B2161E080E092E01995FF91EF91BF910C
S1130380AF919F918F917F916F915F914F913F9129
S11303902F910F900BBE0F9009BE0F9008BE0F90C7
S11303A00FBE0F901F9018951F920F920FB60F92C9
S11303B0112408B60F9218BE09B60F9219BE0BB6D7
S11303C00F921BBE2F933F934F935F936F937F9333
S11303D08F939F93AF93BF93EF93FF9340912C021E
S11303E050912D02E0912A21F0912B2162E080E0CE
S11303F092E01995FF91EF91BF91AF919F918F91E9
S11304007F916F915F914F913F912F910F900BBE10
S11304100F9009BE0F9008BE0F900FBE0F901F9053
S113042018951F920F920FB60F92112408B60F92CF
S113043018BE09B60F9219BE0BB60F921BBE2F93AE
S11304403F934F935F936F937F938F939F93AF9358
S1130450BF93EF93FF934091340250913502E091A2
S11304602A21F0912B2164E080E092E01995FF911C
S1130470EF91BF91AF919F918F917F916F915F9118
S11304804F913F912F910F900BBE0F9009BE0F908B
S113049008BE0F900FBE0F901F9018951F920F92D9
S11304A00FB60F92112408B60F9218BE09B60F9218
S11304B019BE0BB60F921BBE2F933F934F935F93BE
S11304C06F937F938F939F93AF93BF93EF93FF9318
S11304D040913C0250913D02E0912A21F0912B2160
S11304E068E080E092E01995FF91EF91BF91AF91A0
S11304F09F918F917F916F915F914F913F912F9138
S11305000F900BBE0F9009BE0F9008BE0F900FBE48
S11305100F901F901895CF93DF93E091C220F09134
S1130520C320848183FF08C08860848383E083833D
S113053086EF8093CC2083C0982F947131F083E0B0
S113054083838FEF8093CC207AC086FF43C0C2ECB4
S1130550D0E2AA81BB818C819D8114962D913C911E
S11305601597821793076CF49C012F5F3F4F2093DC
S1130570C6203093C720A80FB91F11968C9187838A
S11305805EC08091C8209091C92018962D913C910D
S1130590199782179307C8F42091CA20222321F0C7
S11305A08681816086834BC016962D913C91179766
S11305B0AC014F5F5F4F4093C8205093C920D901CD
S11305C0A80FB91F8C9187833AC083E0838310926C
S11305D0CC2035C0882384F5A2ECB0E21296CD91EC
S11305E0DC91139716968D919C91179728853985E0
S11305F082179307D8F46E817F819C012F5F3F4F50
S11306002093C8203093C9204781DB01A80FB91F6C
S11306104C93888599852817390718F482E08383D9
S11306200EC087E083831092CC2009C083E08383CB
S113063089EF8093CC2003C08BEF8093CC20DF9193
S1130640CF9108951F920F920FB60F92112408B6FE
S11306500F9218BE09B60F9219BE0BB60F921BBEAD
S11306602F933F934F935F936F937F938F939F93B6
S1130670AF93BF93EF93FF934EDFFF91EF91BF9141
S1130680AF919F918F917F916F915F914F913F9126
S11306902F910F900BBE0F9009BE0F9008BE0F90C4
S11306A00FBE0F901F9018951F920F920FB60F92C6
S11306B0112408B60F9218BE09B60F9219BE0BB6D4
S11306C00F921BBE2F933F934F935F936F937F9330
S11306D08F939F93AF93BF93EF93FF931CDFFF918F
S11306E0EF91BF91AF919F918F917F916F915F91A6
S11306F04F913F912F910F900BBE0F9009BE0F9019
S113070008BE0F900FBE0F901F901895FC019181A9
S113071095FFFDCF608380E090E00895FC01918116
S11307209923ECF7808108954F925F926F927F92A4
S11307308F929F92AF92BF92EF92FF920F931F936B
S1130740CF937C014A015B0128013901FC018481BA
S113075082FF16C0D901C801689412F8B695A7950E
S1130760979587951694D1F7B901A801032E36E120
S113077076956795579547953A95D1F7302D15C0DD
S1130780D901C801689413F8B695A79597958795EC
S11307901694D1F7B901A801032E37E17695679530
S11307A0579547953A95D1F7302D88159905AA059F
S11307B0BB0508F4A6C084169506A606B70608F479
S11307C0A2C0F701848182FD04C0880C991CAA1C74
S11307D0BB1CC301B201A50194010E94071A2F3F5B
S11307E031054105510508F490C08FEF90E0A0E079
S11307F0B0E0C9EF05C0281739074A075B0758F06E
S1130800880F991FAA1FBB1FCD3F0CF48160CF5FD7
S1130810C73089F74FC0CC230CF04CC0D501C401BC
S1130820880F991FAA1FBB1F880F991FAA1FBB1FE0
S1130830880F991FAA1FBB1F481A590A6A0A7B0A04
S1130840CE3FF4F48DEF9FEF8C1B9109C7FD939578
S113085004C0440C551C661C771C8A95D2F7D5013C
S1130860C401B695A79597958795BC01CD01640DF4
S1130870751D861D971DA50194010E94071A37C096
S113088083E08C0FA501940104C0220F331F441F81
S1130890551F8A95D2F7DA01C901B695A7959795A0
S11308A08795BC01CD01640D751D861D971D0E94A1
S11308B0071A1DC083E08C0FA501940104C0220F08
S11308C0331F441F551F8A95D2F7DA01C901B69523
S11308D0A79597958795BC01CD01640D751D861D5F
S11308E0971D0E94071A2150310941095109832F8C
S11308F08F70C295C07FC82BF701C783268381E020
S113090018C080E016C080E014C0D501C401880F6F
S1130910991FAA1FBB1F880F991FAA1FBB1F880FEF
S1130920991FAA1FBB1F481A590A6A0A7B0AC9EFF2
S113093089CFCF911F910F91FF90EF90BF90AF900F
S11309409F908F907F906F905F904F9008950F933A
S11309501F93CF93DF93EC018B01009709F4BEC082
S1130960803C910521F460E180E041D3B7C0C1151A
S113097084E0D80721F464E080E039D3AFC0C03804
S1130980E1E0DE0721F462E080E031D3A7C0C115C5
S1130990F1E0DF0721F461E080E029D39FC0C03893
S11309A083E0D80721F461E081E021D397C0C11529
S11309B0E2E0DE0721F462E081E019D38FC0C032A7
S11309C0F3E0DF0721F464E082E011D387C0C115AE
S11309D088E0D80721F461E083E009D37FC0C11522
S11309E0E9E0DE0721F461E084E001D377C0C115BA
S11309F0FAE0DF0721F461E085E0F9D26FC0C0348A
S1130A0088E0D80721F462E083E0F1D267C0C03403
S1130A10E9E0DE0721F462E084E0E9D25FC0C03996
S1130A20F8E0DF0721F464E083E0E1D257C0C03985
S1130A3089E0D80721F464E084E0D9D24FC0C039FA
S1130A40EAE0DE0721F464E085E0D1D247C0C03C8F
S1130A50F8E0DF0721F468E083E0C9D23FC0C03C7E
S1130A6089E0D80721F468E084E0C1D237C0C03AF5
S1130A70E8E0DE0721F460E183E0B9D22FC0C03A98
S1130A80F9E0DF0721F460E184E0B1D227C0C03A85
S1130A908AE0D80721F460E185E0A9D21FC0C03BF9
S1130AA0E8E0DE0721F460E283E0A1D217C0C03B96
S1130AB0F9E0DF0721F460E284E099D20FC0C03886
S1130AC084E0D80721F460E483E091D207C0C03AFF
S1130AD0E4E0DE0719F460E485E089D28D818F7348
S1130AE08D83F80195818481892B9681911198E0F9
S1130AF0892B8D83F801408151816281738100E0EB
S1130B0018E428EE31E0CE010FDE9C8198609C83CE
S1130B109C8190619C83DF91CF911F910F910895E7
S1130B200895E0E0F6E0948188E0892784830895BD
S1130B30E0E0F6E0808188608083F3CF0895CF936E
S1130B40DF93CDB7DEB72797CDBFDEBF60E284E089
S1130B504ED2E0E6F6E0808180688083E6E0F0E251
S1130B6084818D8385818E8386818F838081918129
S1130B70A281B38189839A83AB83BC8360E284E0DE
S1130B8036D2BE016F5F7F4F80EB99E0E0DE27969F
S1130B90CDBFDEBFDF91CF91089504C061507109CC
S1130BA0810991096115710581059105B9F70895C8
S1130BB0E0E4F6E0948180E1892784830895E0E409
S1130BC0F6E0848180618483F3DF8EE17DD060E888
S1130BD07EE380E090E0E1DFEBDF6BEA79E280E046
S1130BE090E0DBCF0895CF93DF93C82FE1DF8C2F04
S1130BF06BD05FD0C82FD0E0DC2FCC275AD0C82BC5
S1130C00D7DFCE01DF91CF910895CF92DF92EF929B
S1130C10FF92CEDF88E458D066E570ED80E090E086
S1130C20BCDFC6DFC5DF80E04FD043D0C82ED12C57
S1130C30E12CF12C7601DD24CC243BD0D82A39D008
S1130C40C82AB6DFC701B601FF90EF90DF90CF90BE
S1130C500895CF92DF92EF92FF92AADF88E534D015
S1130C6066E570ED80E090E098DFA2DFA1DF80E030
S1130C702BD01FD0C82ED12CE12CF12C7601DD24F1
S1130C80CC2417D0D82A15D0C82A92DFC701B601C0
S1130C90FF90EF90DF90CF900895E0E4F6E080813C
S1130CA0806B808368E083E0A2D18CE58093C008E8
S1130CB008958FEF8093C308E0ECF8E082818823E5
S1130CC0ECF78091C30808958093C308E0ECF8E042
S1130CD082818823ECF70895CF93DF93EB011EDD27
S1130CE08883DF91CF91089511CD0895CF93DF9339
S1130CF0CDB7DEB72797CDBFDEBF60E185E077D102
S1130D00E0E8F6E080818860808380EA9AE080935E
S1130D1028219093292184E796E0809326219093BB
S1130D2027218CE696E08093242190932521EDE001
S1130D30F0E284818D8385818E8386818F83808197
S1130D409181A281B38189839A83AB83BC8360E15F
S1130D5085E04DD1BE016F5F7F4F80EA9AE0F7DDF9
S1130D606CE671E085E891E00E94821A2796CDBF77
S1130D70DEBFDF91CF910895CF93DF93FC0141153E
S1130D805105B1F180E090E020E0880F991FDB016C
S1130D90A80FB91F8D919C91A281B381AA0FBB1F8B
S1130DA0C681D781AC0FBD1F8D939C9382819381A3
S1130DB0019682839383A081B1818A179B0711F4E2
S1130DC01282138282819381C481D5818C179D07FD
S1130DD049F40196A817B90719F08483958302C0D2
S1130DE0148215822F5F822F90E08417950768F292
S1130DF0DF91CF910895FC0112821382148215822F
S1130E0066837783408351830895DC011296ED91C4
S1130E10FC911397CB010196E817F90778F0E1509C
S1130E20F048E61BF70BEE0FFF1F16968D919C9171
S1130E301797E80FF91F8081918108952D913C91B6
S1130E401197E20FF31FE150F048E61BF70BEE0F8A
S1130E50FF1F16968D919C911797E80FF91F8081BB
S1130E6091810895CF92DF92EF92FF92CF93DF9317
S1130E70FC014115510509F43FC080E090E020E0F9
S1130E80880F991F880F991FDB01A80FB91FCD90F8
S1130E90DD90ED90FC90A281B381AA0FBB1FAA0F35
S1130EA0BB1F86819781A80FB91FCD92DD92ED9269
S1130EB0FC92139782819381019682839383A0810C
S1130EC0B1818A179B0711F4128213828281938164
S1130ED0C481D5818C179D0749F40196A817B907D9
S1130EE019F08483958302C0148215822F5F822FA8
S1130EF090E08417950720F2DF91CF91FF90EF9057
S1130F00DF90CF900895FC0112821382148215821F
S1130F1066837783408351830895DC011296ED91B3
S1130F20FC911397CB010196E817F90798F0E1506B
S1130F30F04CE61BF70BEE0FFF1FEE0FFF1F16968C
S1130F408D919C911797E80FF91F608171818281BF
S1130F50938108952D913C911197E20FF31FE15075
S1130F60F04CE61BF70BEE0FFF1FEE0FFF1F16965C
S1130F708D919C911797E80FF91F6081718182818F
S1130F8093810895CF93DF931F921F92CDB7DEB75D
S1130F908FEF809370008093710080937200809330
S1130FA073008093740080937500809376008FB7EC
S1130FB08A83F8949A81E0E5F0E0808182608083FE
S1130FC09FBF818181FFFDCF61E080E490E025D067
S1130FD08FB78983F8949981E0E5F0E080818E7F72
S1130FE080839FBF0F900F90DF91CF910895CF938F
S1130FF0DF931F92CDB7DEB79FB79983F894998199
S1131000E82FF0E0E059FF4F60958081682360830A
S11310109FBF0F90DF91CF9108951BBEFC0128ED77
S113102024BF6083089504C0615071098109910946
S11310306115710581059105B9F70895CF93DF9383
S1131040BEDD82EA90E0CFDDCFE0D1E288839983F0
S113105084EA90E0C8DD8A839B8386EA90E0C3DD5E
S11310608C839D8388EA90E0BEDD8E839F838AEA29
S113107090E0B9DD888799878CEA90E0B4DD8A87AF
S11310809B879F938F9389858F9388858F938F8177
S11310908F938E818F938D818F938C818F938B818E
S11310A08F938A818F9389818F9388818F9386EA26
S11310B090E29F938F930E94CC1A8DB79EB70E96A1
S11310C08DBF9EBFDF91CF91089539DD6BEA79E240
S11310D080E090E0A8DF80E38093B309089580EB7B
S11310E094E0809328099093290981E08093222138
S11310F008954F925F926F927F928F929F92AF92D8
S1131100BF92CF92DF92EF92FF92CF93DF936BEA7D
S113111076EA80E090E087DF78DD6B017C016BEAA2
S113112076EA80E090E07FDF94DD0E9443174B0174
S11311305C01CFE0D1E26885798580E090E00E948F
S1131140431720E030E040E853E40E9409189B0173
S1131150AC01C501B4010E9407164B015C016C810E
S11311607D8180E090E00E944317A50194010E94D4
S1131170091820E030E040E05CE30E9409182B01EC
S11311803C016881798180E090E00E94431720E06F
S113119030E040E857E40E9409189B01AC01C30108
S11311A0B2010E9408162B013C01C701B6010E943E
S11311B043179B01AC01C301B2010E94091820E04E
S11311C030E040E055E30E9409186B017C016E8118
S11311D07F8180E090E00E944317A50194010E9462
S11311E0091820E030E040E85CE30E9409184B0154
S11311F05C016A817B8180E090E00E94431720E0DB
S113120030E040E058E40E9409189B01AC01C5019C
S1131210B4010E9408169B01AC01C701B6010E94EB
S1131220071620E030E040E058E30E940918DF91FF
S1131230CF91FF90EF90DF90CF90BF90AF909F90B1
S11312408F907F906F905F904F9008954F925F9230
S11312506F927F928F929F92AF92BF92CF92DF92C2
S1131260EF92FF922B013C01C0902120D0902220CC
S1131270E0902320F09024202091252030912620F6
S11312804091272050912820C701B6010E940918D7
S113129020911D2030911E2040911F20509120202C
S11312A00E9470164B015C01A301920160912D20F4
S11312B070912E2080912F20909130200E947016E2
S11312C0A50194010E946C1820E030E040E85FE33F
S11312D00E9407162091292030912A2040912B202A
S11312E050912C200E940918A70196010E947016A3
S11312F020911D2130911E2140911F2150912021C8
S11313000E940716FF90EF90DF90CF90BF90AF90B0
S11313109F908F907F906F905F904F9008952F9241
S11313203F924F925F926F927F928F929F92AF9271
S1131330BF92CF92DF92EF92FF920F931F93CF93BE
S1131340DF9300D000D0CDB7DEB76C0180911620BA
S1131350882309F46CC000E010E0412C512C3201C8
S1131360862E912CA12CB12C89829A82AB82BC82CC
S1131370B801C6014ADD5C0118012FEF221A320AB6
S1131380B101C60142DD7C01B8016E5F7F4FC60129
S11313903CDDA501BB0C660B770B8A019B01000F9A
S11313A0111F221F331F400F511F621F731F87011C
S11313B0FF0C220B330B78018901EE0CFF1C001F7C
S11313C0111FEE0CFF1C001F111F4A015B018E1838
S11313D09F08A00AB10AAC01990F660B770BD501DF
S11313E0C401840F951FA61FB71F9C01AD0169811D
S11313F07A818B819C810E94D1190E94451720E03B
S113140030E040E05FE30E9409189B01AC01C30196
S1131410B2010E9408162B013C0180911620810123
S1131420282F30E02216330608F4A2CF03C0412C43
S1131430512C3201682F70E080E090E00E94451743
S11314409B01AC01C301B2010E94701620E030E0A0
S113145048EC52E40E9470162696CDBFDEBFDF91A1
S1131460CF911F910F91FF90EF90DF90CF90BF909D
S1131470AF909F908F907F906F905F904F903F9030
S11314802F9008953F924F925F926F927F928F9226
S11314909F92AF92BF92CF92DF92EF92FF920F93FF
S11314A01F93CF93DF9300D000D0CDB7DEB78C016C
S11314B019821A82C12CD12C760169817A81C801E2
S11314C02CDD4B015C0121E6821A2EEA920A2AE005
S11314D0A20AB1082FE782162AE1920626E0A206A4
S11314E0B10480F40E94451720E030E040EA50E463
S11314F00E9470169B01AC01C701B6010E94081638
S11315006B017C0189819A81019689839A8305976D
S1131510A1F619821A82812C912C540169817A8155
S1131520C801FBDC2B013C0121E6421A2EEA520AD7
S11315302AE0620A71082FE742162AE1520626E0E1
S11315406206710490F40E944517A70196010E9457
S113155007169B01AC010E9409189B01AC01C5014F
S1131560B4010E9408164B015C0189819A8101969D
S113157089839A83059791F620E030E040E85EE3A2
S1131580C501B4010E94091869837A838B839C8303
S11315901D821E82312C412C512C32016D817E81A1
S11315A0C801BBDC4B015C0121E6821A2EEA920AD7
S11315B02AE0A20AB1082FE782162AE1920626E061
S11315C0A206B10450F50E9445174B015C01A70126
S11315D096010E9407160E9412179B01772324F498
S11315E022273327261B370BB901330F880B990B9E
S11315F00E9445179B01AC0169817A818B819C8192
S11316000E94051888234CF0A5019401C301B2017E
S11316100E9408162B013C0133948D819E81019612
S11316208D839E83059709F0B9CF332069F0632D2C
S113163070E080E090E00E9443179B01AC01C3017D
S1131640B2010E94701604C060E070E080E89FEB75
S11316502696CDBFDEBFDF91CF911F910F91FF90F2
S1131660EF90DF90CF90BF90AF909F908F907F903E
S11316706F905F904F903F900895AF92BF92CF923A
S1131680DF92EF92FF920F931F93CF93DF9300D0DB
S113169000D0CDB7DEB75C018B012BDD20E030E05C
S11316A040E251E40E9409180E94121769837A8368
S11316B08B839C8341E050E0BE016F5F7F4FC80184
S11316C0D1DBC801DFDE20E030E040E251E40E94DB
S11316D070166B017C0120E030E040E85FEB0E9473
S11316E06C16882381F1C092FF20D0920021E092F1
S11316F00121F0920221C701B601A8DD6093F72011
S11317007093F8208093F9209093FA2020E030E041
S113171048EC52E40E9409180E9412176D837E83DC
S113172041E050E0BE016B5F7F4FC50125DB609156
S11317301920C501F4DD6093EF207093F0208093AD
S1131740F1209093F22083E393E9A7E9B3E4809333
S1131750FB209093FC20A093FD20B093FE202696BE
S1131760CDBFDEBFDF91CF911F910F91FF90EF901E
S1131770DF90CF90BF90AF900895CF92DF92EF9219
S1131780FF92C090EF20D090F020E090F120F090F4
S1131790F220C701B6010E9412179B01772324F49B
S11317A022273327261B370B263031058CF020E007
S11317B030E0A901C701B6010E946C16882324F009
S11317C081E08093232124C082E08093232120C0E0
S11317D01092232120E030E048E452E46091F720A5
S11317E07091F8208091F9209091FA200E940518B8
S11317F0181624F080912121882319F081E0809328
S1131800232180912221882319F083E080932321CE
S1131810FF90EF90DF90CF9008958F929F92AF92B8
S1131820BF92CF92DF92EF92FF920F931F93CF93C9
S1131830DF937C01C0E0D0E000E010E0BE01C7010E
S1131840E4DA080F191F2196CA30D105B9F760E010
S113185070E0C701DADAEC0160911920C7015FDD9D
S11318606B017C01BE01DD0F880B990B0E944517AB
S113187020E030E0A9010E94091820E030E048ECA3
S113188052E40E9470164B015C01B801110F880BE1
S1131890990B0E94451720E030E0A9010E94091825
S11318A020E030E048EC52E40E9470169B01AC0149
S11318B0C501B4010E9408164B015C0120E030E030
S11318C0A901C701B6010E9409189B01AC01C50119
S11318D0B4010E94081620E030E84BEB54E40E9467
S11318E008160E94171760931B2070931C2080E039
S11318F090E00E94431720E030E04AE754E40E945D
S1131900701620E030E04AEF53E40E9409180E9468
S113191017176093280970932909DF91CF911F91BC
S11319200F91FF90EF90DF90CF90BF90AF909F907A
S11319308F90089561E085E05ADBE0E0FAE087E00B
S1131940808381E19AE786A397A381E08683089543
S11319508091FF2090910021A0910121B09102215A
S113196080932D2090932E20A0932F20B09330208D
S113197083E393E9A7E9B3E48093292090932A2091
S1131980A0932B20B0932C2008958F929F92AF9216
S1131990BF92CF92DF92EF92FF920F931F93CF9358
S11319A0DF93CDB7DEB7C654D109CDBFDEBF60919A
S11319B0E3207091E4208091E5209091E6200E943C
S11319C01217162F072FC090E720D090E820E09040
S11319D0E920F090EA20A62FB72FBB231CF4B19581
S11319E0A195B10920E432E44FE050E00E945E1A70
S11319F00F2EF0E48F2EF2E49F2EFFE0AF2EB12CD9
S1131A00F02D0E94291A9F938F937F936F930F93C6
S1131A101F9320E034E244E759E4C701B6010E9471
S1131A2009180E941217A50194010E94291A9F9374
S1131A308F937F936F93C701B6010E9412177F9310
S1131A406F93809115208F93809114208F938E0132
S1131A500F5F1F4F1F930F930E94DF1A1F930F9363
S1131A600E94CC1ACDBFDEBFCA5BDF4FCDBFDEBF45
S1131A70DF91CF911F910F91FF90EF90DF90CF9066
S1131A80BF90AF909F908F9008952F923F924F9266
S1131A905F926F927F928F929F92AF92BF92CF92FA
S1131AA0DF92EF92FF920F931F93CF93DF930091F6
S1131AB00321109104210F5F1F4F00930321109302
S1131AC004216091DF207091E0208091E1209091C9
S1131AD0E2200E941217362E272E4090E3205090C9
S1131AE0E4206090E5207090E6208090E7209090BC
S1131AF0E820A090E920B090EA206091EB2070915A
S1131B00EC208091ED209091EE200E9412176B0141
S1131B107C01C0910721D09108216091CD20709162
S1131B20CE208091CF209091D0200E9412177F93D5
S1131B306F93809123211F928F936091D120709194
S1131B40D2208091D3209091D4200E9412177F93A9
S1131B506F936091D5207091D6208091D720909179
S1131B60D8200E9412177F936F936091D9207091AF
S1131B70DA208091DB209091DC200E9412177F9361
S1131B806F938091DE208F938091DD208F93832D3E
S1131B90922D880F991F9C01220F331F220F331F90
S1131BA0820F931F6AE070E00E94F4199F938F9351
S1131BB02F923F9220E034E244E759E4C301B2019A
S1131BC00E9409180E94121720E432E44FE050E00A
S1131BD00E94291A9B01772324F422273327261BEA
S1131BE0370BC901330FAA0BBB0BBF93AF939F9362
S1131BF08F93C301B2010E9412177F936F9320E069
S1131C0034E244E759E4C501B4010E9409180E9472
S1131C10121720E432E44FE050E00E94291A9F9307
S1131C208F937F936F93C501B4010E9412177F9322
S1131C306F930F2EF4E68F2E912CA12CB12CF02D46
S1131C40C701B601A50194010E94291A7F936F93DD
S1131C50C701B60120E137E240E050E00E94291AB2
S1131C60F22EE32EA50194010E94291A3F932F938B
S1131C70EF92FF926091F3207091F4208091F5200F
S1131C809091F6200E9412177F936F9323E333E918
S1131C9048E853E46091FB207091FC208091FD2082
S1131CA09091FE20B4D70E9412177F936F93609196
S1131CB0FF207091002180910121909102210E94C6
S1131CC012179F938F937F936F936091F720709176
S1131CD0F8208091F9209091FA200E9412177F93A6
S1131CE06F931F930F939E01ADECBCEC0E94451AB9
S1131CF09695879596958795969587959C01220F3D
S1131D00331F880F991F880F991F880F991F820FFF
S1131D10931F9E01281B390BC9019F932F939E018A
S1131D200E94451A969587959695879596958795D9
S1131D309F938F93809118208F93809117208F9376
S1131D40C0E4D1E2DF93CF930E94DF1A2DB73EB7F0
S1131D502A5C3F4F2DBF3EBFDF93CF930E94CC1A26
S1131D600F900F90DF91CF911F910F91FF90EF9003
S1131D70DF90CF90BF90AF909F908F907F906F90A7
S1131D805F904F903F902F9008955F926F927F9253
S1131D908F929F92AF92BF92CF92DF92EF92FF9277
S1131DA00F931F93CF93DF93CDB7DEB7A097CDBF2B
S1131DB0DEBF60912D2070912E2080912F20909174
S1131DC03020FBD7122F632E742E852E962EA72E2D
S1131DD0B82EC92E6091292070912A2080912B2041
S1131DE090912C20EAD7E22F532ED42EE52EF62EF6
S1131DF0B72FA82FF92F1983212F362D472D582DB2
S1131E00692D7A2D8B2D9C2D08E00E94661A2A8359
S1131E10212F362D472D582D692D7A2D8B2D9C2D54
S1131E2000E10E94661A2B83212F362D472D582D51
S1131E30692D7A2D8B2D9C2D08E10E94661A2C8326
S1131E40212F362D472D582D692D7A2D8B2D9C2D24
S1131E5000E20E94661A2D83212F362D472D582D1E
S1131E60692D7A2D8B2D9C2D08E20E94661A2E83F3
S1131E70212F362D472D582D692D7A2D8B2D9C2DF4
S1131E8000E30E94661A2F83212F362D472D582DEB
S1131E90692D7A2D8B2D9C2D08E30E94661A2887C4
S1131EA0E9872E2F352D4D2D5E2D6F2D7B2F8A2FFB
S1131EB09F2F08E00E94661A2A872E2F352D4D2D5C
S1131EC05E2D6F2D7B2F8A2F9F2F00E10E94661AB3
S1131ED02B872E2F352D4D2D5E2D6F2D7B2F8A2F89
S1131EE09F2F08E10E94661A2C872E2F352D4D2D29
S1131EF05E2D6F2D7B2F8A2F9F2F00E20E94661A82
S1131F002D872E2F352D4D2D5E2D6F2D7B2F8A2F56
S1131F109F2F08E20E94661A2E872E2F352D4D2DF5
S1131F205E2D6F2D7B2F8A2F9F2F00E30E94661A50
S1131F302F872E2F352D4D2D5E2D6F2D7B2F8A2F24
S1131F409F2F08E30E94661A288B80E1E1E3F0E208
S1131F50DE01519601900D928A95E1F783E3809317
S1131F60CA01FE017196CE010196AE014F5D5F4F2D
S1131F7060EC71E02191DB012C93DC012D91CD010A
S1131F80DB0114962C93E417F507A1F7E0ECF1E0DC
S1131F9085E38287108280E1818388ED84BF81E0BC
S1131FA0838787858823ECF3A096CDBFDEBFDF91BE
S1131FB0CF911F910F91FF90EF90DF90CF90BF9042
S1131FC0AF909F908F907F906F905F9008950E9444
S1131FD0C2076BEA79E280E090E025D878948CEB34
S1131FE08093400687E08093A2000E9498050E9497
S1131FF076066BEA70EB88E290E015D880E2809375
S1132000A30A63D80E944D0619D80E94910592DC58
S113201066E570ED80E090E006D8AFDB6AD86093A7
S11320202D2070932E2080932F209093302083E3D3
S113203093E9A7E9B3E48093292090932A20A093FD
S11320402B20B0932C20A1CE0895CF93DF93CDB74E
S1132050DEB72C97CDBFDEBF6091F7207091F820DA
S11320608091F9209091FA20DDD679836A8380915A
S11320700321909104219B838C838091072190916B
S113208008219D838E8386E0E1E4F0E2DE01179669
S113209001900D928A95E1F783E38093CA01FE01D2
S11320A03796CE010196AE01435F5F4F60EC71E05D
S11320B02191DB012C93DC012D91CD01DB011496E0
S11320C02C93E417F507A1F7E0ECF1E085E38287B0
S11320D0108280E1818388ED84BF81E083878785D6
S11320E08823ECF32C96CDBFDEBFDF91CF9108950A
S11320F02F923F924F925F926F927F928F929F9214
S1132100AF92BF92CF92DF92EF92FF920F931F9301
S1132110CF93DF9300910721109108210F5F1F4F88
S11321200093072110930821C0910321D091042129
S11321302196C0930321D09304216091DF207091F4
S1132140E0208091E1209091E2206CD6362E272E5B
S11321504090E3205090E4206090E5207090E620C9
S11321608090E7209090E820A090E920B090EA20A9
S11321706091EB207091EC208091ED209091EE2005
S113218051D66B017C016091CD207091CE2080915D
S1132190CF209091D02046D67F936F9380912321B6
S11321A01F928F936091D1207091D2208091D3207F
S11321B09091D42037D67F936F936091D5207091FE
S11321C0D6208091D7209091D8202CD67F936F93DE
S11321D06091D9207091DA208091DB209091DC20ED
S11321E021D67F936F938091DE208F938091DD20A1
S11321F08F93832D922D880F991F9C01220F331FDB
S1132200220F331F820F931F6AE070E00E94F419BB
S11322109F938F932F923F9220E034E244E759E456
S1132220C301B201F6D6FED520E432E44FE050E01B
S11322300E94291A9B01772324F422273327261B83
S1132240370BC901330FAA0BBB0BBF93AF939F93FB
S11322508F93C301B201E6D57F936F9320E034E2FC
S113226044E759E4C501B401D4D6DCD520E432E412
S11322704FE050E00E94291A9F938F937F936F93AE
S1132280C501B401CFD57F936F930F2EF4E68F2E43
S1132290912CA12CB12CF02DC701B601A5019401FC
S11322A00E94291A7F936F93C701B60120E137E298
S11322B040E050E00E94291AF22EE32EA501940179
S11322C00E94291A3F932F93EF92FF926091F3207B
S11322D07091F4208091F5209091F620A3D57F93FE
S11322E06F9323E333E948E853E46091FB20709152
S11322F0FC208091FD209091FE2089D493D57F937A
S11323006F936091FF207091002180910121909141
S1132310022188D59F938F937F936F936091F720C9
S11323207091F8208091F9209091FA207BD57F93C9
S11323306F93DF93CF931F930F93809118208F9304
S1132340809117208F93C0E4D1E2DF93CF930E9452
S1132350DF1A8DB79EB7C4968DBF9EBFDF93CF9310
S11323600E94CC1A72DE10921C210F900F90DF9104
S1132370CF911F910F91FF90EF90DF90CF90BF907E
S1132380AF909F908F907F906F905F904F903F9011
S11323902F90089583E38093CA0180E0E0ECF1E09C
S11323A09FEF808394838F5F8032D9F7E0ECF1E074
S11323B080E3828788ED84BF81E0838787858823D3
S11323C0ECF30895E7DF8FB7F89498ED94BF91E0AC
S11323D0909379008FBF0895843691F028F4813664
S11323E069F0833649F00895853621F0863649F43C
S11323F0E9CF0895ADCA0895ABCA0895C6CA089531
S113240044CB0895CF93DF93CDB7DEB7C856D10937
S1132410CDBFDEBFDCDDE0E6F6E08081886080834E
S113242084818860848314E1BE016F5F7F4FFB0168
S1132430812F11928A95E9F74AE050E0CE01459642
S11324400E94FB06BE01635E7F4F88E2FB0111928E
S11324508A95E9F74AE050E0CE018B5B9F4F0E94DA
S11324608307BE01635B7F4FFB0111921A95E9F765
S11324704AE050E0CE018F599F4F0E94FB0600E0D6
S113248010E0BE016B5B7F4FCE014596F6D875D93F
S113249080912321813039F008F442C08230B1F0B8
S11324A08330C1F13BC020E030E046E154E4609168
S11324B0F7207091F8208091F9209091FA20A5D509
S11324C0181674F511112CC011E02AC0111101C0A5
S11324D011E020E030E041EE53E46091F720709188
S11324E0F8208091F9209091FA2091D39BD4675FD2
S11324F07F4F6331710528F40E946F080E94900594
S11325000FC080912221882359F0CE018F599F4F0B
S113251084D906C0011104C001E002C01092232135
S113252080911C21882319F0E3DD10921C218091F5
S11325301B21882339F080910E214EDF10920E2149
S113254010921B2180910521909106210196809380
S1132550052190930621609107217091082161154E
S1132560710529F02DD76093192070931A206BEA16
S113257070EA81E090E00E94130883CF1F920F92CB
S11325800FB60F92112408B60F9218BE8F9381E0F4
S113259080931C218F910F9008BE0F900FBE0F9057
S11325A01F9018951F920F920FB60F92112408B620
S11325B00F9218BE09B60F9219BE0BB60F921BBE2E
S11325C02F933F934F935F936F937F938F939F9337
S11325D0AF93BF93EF93FF9380EA9AE00E948E0338
S11325E080930E2181E080931B21FF91EF91BF9195
S11325F0AF919F918F917F916F915F914F913F9197
S11326002F910F900BBE0F9009BE0F9008BE0F9034
S11326100FBE0F901F9018951F920F920FB60F9236
S1132620112408B60F9218BE09B60F9219BE0AB645
S11326300F921ABE0BB60F921BBE8F929F92AF924F
S1132640BF92CF92DF92EF92FF921F932F933F930B
S11326504F935F936F937F938F939F93AF93BF93A6
S1132660EF93FF93CF93DF9300D000D0CDB7DEB7C5
S113267080EB99E00E948E03182F843249F481E0A4
S113268080930D2110920B2110920A2190E068C2D0
S11326908A3229F410920A2110920D2191C28C32AF
S11326A009F049C2ECE2F1E280E280838181803268
S11326B009F06DC280E380932C2169C280912C21A2
S11326C08E3209F09EC1A4C180912C218E3209F072
S11326D0ECC0F2C080912C218E3209F051C057C059
S11326E091919E3229F401C080E08093092103C0B6
S11326F08F5F8F30A9F720910921E22FF0E0E45D8C
S1132700FE4D80E280832F5F2F30C8F4822F90E04B
S1132710FC01E45DFE4D3081303289F040E208C0B6
S1132720822F90E0FC01E45DFE4D3081303239F0BF
S1132730FC01E45DFE4D40832F5F2F3089F7CE010D
S113274001969F938F938AEB90E29F938F938CE2F1
S113275091E29F938F935BD769817A818B819C816E
S113276094D36093EB207093EC208093ED209093AE
S1132770EE200F900F900F900F900F900F90BDC10F
S1132780EDE2F1E281E091919E3229F401C080E012
S11327908093092103C08F5F8F30A9F7209109210D
S11327A0422F50E0FA01E45DFE4D80E280832F5F0A
S11327B02F30F8F4822F90E0FC01E45DFE4D30816F
S11327C03032B9F060E208C0822F90E0FC01E45D91
S11327D0FE4D3081303269F0FC01E41BF50BE65C00
S11327E0FE4D3083FC01E45DFE4D60832F5F2F308E
S11327F059F780913B21803219F480E380933B2187
S1132800CE0101969F938F938AEB90E29F938F93CF
S11328108CE291E29F938F93FAD6CE0105969F9313
S11328208F938EEB90E29F938F938BE391E29F9330
S11328308F93EDD689809A80AB80BC806D817E8138
S1132840072E000C880B990B20D320E030E44CE1D8
S113285056E446D26B017C01C501B40124E630E0A4
S113286040E050E0F6D549015A010FD39B01AC0179
S1132870C701B601CDD120E030E040E752E430D2C8
S11328806B017C01C501B40100D39B01AC01C701FC
S1132890B601BED16093E7207093E8208093E920CD
S11328A09093EA20CDBFDEBF28C1EDE2F1E281E0E2
S11328B091919E3229F401C080E08093092103C0E4
S11328C08F5F8F30A9F720910921422F50E0FA0140
S11328D0E45DFE4D80E280832F5F2F30F8F4822F79
S11328E090E0FC01E45DFE4D30813032B9F060E2ED
S11328F008C0822F90E0FC01E45DFE4D308130324F
S113290069F0FC01E41BF50BE65CFE4D3083FC0131
S1132910E45DFE4D60832F5F2F3059F780913B219A
S1132920803219F480E380933B21CE0101969F937A
S11329308F938AEB90E29F938F938CE291E29F9323
S11329408F9365D6CE0105969F938F938EEB90E27D
S11329509F938F938BE391E29F938F9358D68980B3
S11329609A80AB80BC806D817E81072E000C880B21
S1132970990B8BD220E030E44CE156E4B1D16B01E9
S11329807C01C501B40124E630E040E050E061D5AB
S113299049015A017AD29B01AC01C701B60138D171
S11329A020E030E040E752E49BD16B017C01C5019B
S11329B0B4016BD29B01AC01C701B60129D1DC0182
S11329C0CB01B0588093E3209093E420A093E520BA
S11329D0B093E620CDBFDEBF90C08DED90E29F9313
S11329E08F938EEB90E29F938F938CE291E29F936F
S11329F08F930DD60F900F900F900F900F900F9014
S1132A007CC0EDE2F1E281E091919E3229F401C0B3
S1132A1080E08093092103C08F5F8F30A9F7209154
S1132A200921422F50E0FA01E45DFE4D80E28083EB
S1132A302F5F2F30F8F4822F90E0FC01E45DFE4D0F
S1132A4030813032B9F060E208C0822F90E0FC019E
S1132A50E45DFE4D3081303269F0FC01E41BF50B7E
S1132A60E65CFE4D3083FC01E45DFE4D60832F5F28
S1132A702F3059F780913B21803219F480E3809301
S1132A803B21CE0101969F938F938AEB90E29F9313
S1132A908F938CE291E29F938F93B9D5CE010596E3
S1132AA09F938F938EEB90E29F938F938BE391E2AE
S1132AB09F938F93ACD569817A818B819C81E5D179
S1132AC06B017C016D817E81072E000C880B990BB4
S1132AD0DCD120E030E040E251E402D19B01AC01C2
S1132AE0C701B60195D06093DF207093E0208093F6
S1132AF0E1209093E220CDBFDEBF80910D21882399
S1132B00D1F01092092180910A218F5F80930A21CC
S1132B1010920B21ECE2F1E22BE331E280E28193AB
S1132B202E173F07E1F7EBE3F1E280E28083818334
S1132B3082838383848380910D21882309F440C098
S1132B4090910C21933019F0943031F009C017346E
S1132B5039F010920D2104C0173411F010920D2198
S1132B6080910B21E82FF0E0E45DFE4D10838F5F30
S1132B7080930B219F5F90930C2122C080912C2184
S1132B808E3209F4B1CDEDE2F1E281E0A9CD1982F2
S1132B901A821B821C821D821E8280910A2184302B
S1132BA009F492CD30F4813049F3823009F492CDA6
S1132BB0A4CF873009F411CF893009F47FCD9DCF9C
S1132BC02696CDBFDEBFDF91CF91FF91EF91BF91EC
S1132BD0AF919F918F917F916F915F914F913F91B1
S1132BE02F911F91FF90EF90DF90CF90BF90AF9007
S1132BF09F908F900F900BBE0F900ABE0F9009BE4E
S1132C000F9008BE0F900FBE0F901F90189550584C
S1132C10BB27AA270ED0BFC1B0D130F0B5D120F068
S1132C2031F49F3F11F41EF495C10EF4E095E7FBD7
S1132C308BC1E92FC1D180F3BA17620773078407E8
S1132C40950718F071F49EF5D9C10EF4E0950B2E9A
S1132C50BA2FA02D0B01B90190010C01CA01A001EA
S1132C601124FF27591B99F0593F50F4503E68F145
S1132C701A16F040A22F232F342F4427585FF3CF86
S1132C80469537952795A795F0405395C9F77EF457
S1132C901F16BA0B620B730B840BBAF09150A1F0A0
S1132CA0FF0FBB1F661F771F881FC2F70EC0BA0F26
S1132CB0621F731F841F48F4879577956795B795AE
S1132CC0F7959E3F08F0B3CF9395880F08F09927A6
S1132CD0EE0F97958795089513D108F481E0089530
S1132CE00CD059C151D140F048D130F021F45F3FAC
S1132CF019F02AC1511183C12DC15ED198F39923D2
S1132D00C9F35523B1F3951B550BBB27AA276217AB
S1132D107307840738F09F5F5F4F220F331F441FF0
S1132D20AA1FA9F333D00E2E3AF0E0E830D0915028
S1132D305040E695001CCAF729D0FE2F27D0660F15
S1132D40771F881FBB1F261737074807AB07B0E854
S1132D5009F0BB0B802DBF01FF2793585F4F2AF06A
S1132D609E3F510568F0F0C04AC15F3FECF3983EC6
S1132D70DCF3869577956795B795F7959F5FC9F7C7
S1132D80880F911D9695879597F90895E1E0660F50
S1132D90771F881FBB1F621773078407BA0720F0C9
S1132DA0621B730B840BBA0BEE1F88F7E095089532
S1132DB0BEE304D008F490E80895BFE32227332744
S1132DC0A90102D158F19F5740F1B91738F1BFE377
S1132DD0B91B9927B8503AF4660F771F881F991FBB
S1132DE0B395D2F316C0B8504AF0232F342F452F91
S1132DF0562F672F782F8827B850BAF7B85F49F055
S1132E008695779567955795479537952795BA95FC
S1132E10B9F70EF4A2D088940895889460E070E025
S1132E20CB01089504D06894B111E9C00895CCD0C1
S1132E3088F09F5790F0B92F9927B751A0F0D1F09F
S1132E40660F771F881F991F1AF0BA95C9F712C029
S1132E50B13081F0D3D0B1E00895D0C0672F782F7E
S1132E608827B85F39F0B93FCCF386957795679595
S1132E70B395D9F73EF490958095709561957F4F01
S1132E808F4F9F4F0895E89409C097FB3EF49095A7
S1132E908095709561957F4F8F4F9F4F9923A9F02F
S1132EA0F92F96E9BB279395F695879577956795BE
S1132EB0B795F111F8CFFAF4BB0F11F460FF1BC002
S1132EC06F5F7F4F8F4F9F4F16C0882311F096E995
S1132ED011C0772321F09EE8872F762F05C0662343
S1132EE071F096E8862F70E060E02AF09A95660FFC
S1132EF0771F881FDAF7880F9695879597F90895B5
S1132F00990F0008550FAA0BE0E8FEEF16161706F6
S1132F10E807F907C0F012161306E407F50798F05E
S1132F20621B730B840B950B39F40A2661F0232B77
S1132F30242B252B21F408950A2609F4A140A695F3
S1132F408FEF811D811D089597F99F6780E870E0D8
S1132F5060E008959FEF80EC0895909580957095BA
S1132F60609550954095309521953F4F4F4F5F4F59
S1132F706F4F7F4F8F4F9F4F089500240A9416166A
S1132F80170618060906089500240A941216130653
S1132F90140605060895092E0394000C11F48823E1
S1132FA052F0BB0F40F4BF2B11F460FF04C06F5FFD
S1132FB07F4F8F4F9F4F089557FD9058440F551FD3
S1132FC059F05F3F71F04795880F97FB991F61F0A7
S1132FD09F3F79F087950895121613061406551F1E
S1132FE0F2CF4695F1DF08C0161617061806991F8A
S1132FF0F1CF86957105610508940895E894BB277F
S113300066277727CB0197F908957ADF08F48FEFC5
S113301008950BD0C0CFB1DF28F0B6DF18F09523A8
S113302009F092CF97CF1124EACFC6DFA0F3959F82
S1133030D1F3950F50E0551F629FF001729FBB279B
S1133040F00DB11D639FAA27F00DB11DAA1F649F47
S11330506627B00DA11D661F829F2227B00DA11DFA
S1133060621F739FB00DA11D621F839FA00D611D80
S1133070221F749F3327A00D611D231F849F600DA1
S1133080211D822F762F6A2F11249F5750408AF0DA
S1133090E1F088234AF0EE0FFF1FBB1F661F771F66
S11330A0881F91505040A9F79E3F510570F04CCFB6
S11330B0A6CF5F3FECF3983EDCF386957795679552
S11330C0B795F795E7959F5FC1F7FE2B880F911D84
S11330D09695879597F90895FA01EE0FFF1F30969C
S11330E02105310599F16115710561F48038BFE35B
S11330F09B0749F168949038810561F08038BFEFEF
S11331009B0741F0992342F5FF3FE1053105210575
S113311011F1E8940894E795D901AA2329F4AB2F77
S1133120BE2FF85FD0F310C0FF5F70F4A695E0F7F0
S1133130F73950F019F0FF3A38F49F779F930CD089
S11331400F9007FC905808953EF004CF60E070E0C3
S113315080E89FE308954FE79F775F934F933F93F2
S11331602F939ED02F913F914F915F9152DF05C0D5
S113317019F40EF0E9CE42CFEDCE26DFC8F396382F
S1133180C0F707F80F92E8942BE33AEA48EB5FE7BD
S11331904EDF0F920F920F924DB75EB70F92C0D0D1
S11331A0ECEFF1E016D04F915F91EF91FF91E5952F
S11331B0EE1FFF1F49F0FE57E0684427EE0F441F3F
S11331C0FA95E1F74195550B32D00F9007FE26C0D2
S11331D00895DF93CF931F930F93FF92EF92DF92A3
S11331E07B018C01689405C0DA2EEF011EDFFE011D
S11331F0E894A5912591359145915591AEF3EF0150
S113320018DDFE019701A801DA9479F7DF90EF90B9
S1133210FF900F911F91CF91DF9108959B01AC0115
S113322060E070E080E89FE35BCD8ECEACC0CCDE86
S1133230E8F39923D9F3940F511DBBF391505040F7
S113324094F059F0882332F0660F771F881F91504D
S11332505040C1F79E3F510544F7880F911D969544
S1133260879597F908955F3FACF0983E9CF0BB2793
S1133270869577956795B79508F4B1609395C1F7EE
S1133280BB0F58F711F460FFE8CF6F5F7F4F8F4F8C
S11332909F4FE3CFB4CE0EF076C05CCE689454CE8C
S11332A093DEC8F39923D1F3C6F3DF93CF931F932F
S11332B00F93FF92C92FDD2788232AF02197660FE9
S11332C0771F881FDAF720E030E040E85FEB9FE3E8
S11332D0883920F0803E30F021968F7799DCE4E243
S11332E0F2E003C095DCE1E5F2E073DF8B01BE019F
S11332F0EC01FB2E6F5771097595771F880B990B9D
S1133300C4DD28E132E741E35FE38FDEAF2D9801AE
S1133310AE01FF900F911F91CF91DF918ADC3BCEDC
S1133320FA01DC01AA0FBB1F9B01AC01BF5728F4B3
S113333022273327442750781FC0B75188F4AB2F76
S11333400024469537952795011CA395D2F30020B8
S113335069F0220F331F441FB395DAF30DD057CC15
S113336061307105A0E88A07B94630F49B01AC01CD
S11333706627772788279078309621F02083318339
S11333804283538308959F3F31F0915020F48795F1
S113339077956795B795880F911D9695879597F9B9
S11333A00895DB018F939F937FD0BF91AF91A29F2C
S11333B0800D911DA39F900DB29F900D112408952F
S11333C0AA1BBB1B51E107C0AA1FBB1FA617B70747
S11333D010F0A61BB70B881F991F5A95A9F7809563
S11333E09095BC01CD01089597FB072E16F4009427
S11333F006D077FD08D0E4DF07FC05D03EF49095B5
S113340081959F4F0895709561957F4F0895A1E22E
S11334101A2EAA1BBB1BFD010DC0AA1FBB1FEE1F4A
S1133420FF1FA217B307E407F50720F0A21BB30B95
S1133430E40BF50B661F771F881F991F1A9469F711
S113344060957095809590959B01AC01BD01CF016D
S11334500895052E97FB16F400940FD057FD05D060
S1133460D6DF07FC02D046F408C05095409530954D
S113347021953F4F4F4F5F4F0895909580957095DC
S113348061957F4F8F4F9F4F0895A29FB001B39FC7
S1133490C001A39F700D811D1124911DB29F700D59
S11334A0811D1124911D0895F0DFA59F900DB49FF7
S11334B0900DA49F800D911D11240895B7FFF4CFA2
S11334C0F3DF821B930B089597FB10F81694000802
S11334D00F93083098F00850232F342F452F562F80
S11334E0672F782F892F902DF4CF05949795879582
S11334F07795679557954795379527950A95AAF730
S11335000F9108950F931F93CF93DF93009731F496
S11335106115710519F480E090E039C08B01EC016C
S11335206EE070E081E090E047D5FC01892B99F3CF
S113353080E883830115110571F00287138781E800
S113354083838091A4219091A521892B21F4E09378
S1133550A421F093A5212097C9F0C087D187838146
S1133560826083838091A6219091A721892B71F495
S1133570E093A621F093A7218091A8219091A921FD
S1133580892B21F4E093A821F093A921CF01DF91A5
S1133590CF911F910F910895CF93DF93CDB7DEB7ED
S11335A0AE014A5F5F4FFA0161917191AF01809161
S11335B0A6219091A72146D0DF91CF9108950F9332
S11335C01F93CF93DF93CDB7DEB72E97CDBFDEBF6A
S11335D00E891F8986E08C8309831A838FEF9FE706
S11335E08D839E83AE01465E5F4F688D798DCE01DB
S11335F0019628D0EF81F885E00FF11F10822E96F6
S1133600CDBFDEBFDF91CF911F910F910895CF936E
S1133610DF93CDB7DEB72E97CDBFDEBF85E08C83B9
S11336208C899D8989839A83AE01485E5F4F6E8938
S11336307F89CE010196A9D32E96CDBFDEBFDF913F
S1133640CF9108952F923F924F925F926F927F9203
S11336508F929F92AF92BF92CF92DF92EF92FF929E
S11336600F931F93CF93DF93CDB7DEB72B97CDBFC7
S1133670DEBF6C017B018A01FC0116821782838103
S113368081FFBFC1CE0101963C01F6019381F70190
S113369093FD859193FF81917F01882309F4ADC146
S11336A0853239F493FD859193FF81917F018532B1
S11336B021F4B60190E029D6E8CF912C212C312CAD
S11336C0FFE1F315D8F08B3279F038F4803279F0D9
S11336D08332A1F4232D20611DC08D3261F080332B
S11336E069F4232D216016C0832D8260382EE32DCA
S11336F0E4603E2E2AC0F32DF8601DC037FC2DC0B7
S113370020ED280F2A3040F08E32B9F436FC75C112
S1133710232D2064322E19C036FE06C08AE0989EFE
S1133720200D1124922E11C0EAE02E9E200D1124AA
S1133730222EF32DF0623F2E08C08C3621F4832D07
S11337408068382E02C0883641F4F70193FD8591D4
S113375093FF81917F018111B3CF982F9F7D955461
S1133760933028F40C5F1F4F9FE399830DC0833679
S113377031F0833771F0833509F055C020C0F8016A
S1133780808189830E5F1F4F88248394912C530179
S113379012C02801F2E04F0E511CF801A080B18044
S11337A036FE03C0692D70E002C06FEF7FEFC501E4
S11337B063D54C018201F32DFF773F2E15C02801FC
S11337C022E0420E511CF801A080B18036FE03C0F5
S11337D0692D70E002C06FEF7FEFC5013BD54C014E
S11337E0F32DF0683F2E820133FC19C0822D90E046
S11337F088169906A0F4B60180E290E086D52A9452
S1133800F5CFF50137FC859137FE81915F01B60153
S113381090E07BD521102A9421E0821A910881142A
S1133820910479F7E1C0843611F0893639F5F8014D
S113383037FE07C060817181828193810C5F1F4FC5
S113384008C060817181072E000C880B990B0E5FF4
S11338501F4FF32DFF763F2E97FF09C0909580955B
S1133860709561957F4F8F4F9F4FF0683F2E2AE0F0
S113387030E0A3019FD5882E861844C0853731F4E3
S1133880232D2F7EB22E2AE030E025C0932D997F80
S1133890B92E8F36C1F018F4883579F0AEC0803770
S11338A019F0883721F0A9C0E92FE061BE2EB4FEDB
S11338B00DC0FB2DF460BF2E09C034FE0AC0292FB1
S11338C02660B22E06C028E030E005C020E130E0DA
S11338D002C020E132E0F801B7FE07C060817181C7
S11338E0828193810C5F1F4F06C06081718180E0EB
S11338F090E00E5F1F4FA3015DD5882E8618FB2D27
S1133900FF773F2E36FE0DC0232D2E7FA22E891465
S113391058F434FE0BC032FC09C0832D8E7EA82ED1
S113392005C0B82CA32C03C0B82C01C0B92CA4FE2C
S11339300FC0FE01E80DF11D8081803321F49A2D22
S1133940997EA92E09C0A2FE06C0B394B39404C004
S11339508A2D867809F0B394A3FC10C0A0FE06C09B
S1133960B21480F4280C922C9B180DC0B21458F495
S1133970B60180E290E0C9D4B394F8CFB21418F43D
S11339802B1802C0982C212CA4FE0FC0B60180E392
S113399090E0BBD4A2FE16C0A1FC03C088E790E06F
S11339A002C088E590E0B6010CC08A2D867851F0FB
S11339B0A1FE02C08BE201C080E2A7FC8DE2B60149
S11339C090E0A3D4891430F4B60180E390E09DD450
S11339D09A94F8CF8A94F301E80DF11D8081B60121
S11339E090E093D48110F6CF222009F44ECEB60194
S11339F080E290E08AD42A94F7CFF60186819781F9
S1133A0002C08FEF9FEF2B96CDBFDEBFDF91CF912A
S1133A101F910F91FF90EF90DF90CF90BF90AF90E8
S1133A209F908F907F906F905F904F903F902F90DA
S1133A30089520FD09C0FC0123FD05C022FF02C03A
S1133A407383628351834083089544FD17C046FD08
S1133A5017C0AB01BC01DA01FB01AA0FBB1FEE1FAB
S1133A60FF1F1094D1F74A0F5B1F6E1F7F1FCB01FE
S1133A70BA01660F771F881F991F09C033E001C080
S1133A8034E0660F771F881F991F3150D1F7620FFA
S1133A90711D811D911D08950F931F93CF93DF9383
S1133AA08C01C801F4D3EC0197FD06C0C0D3892B67
S1133AB0C1F7B801CE0165D4CE01DF91CF911F913A
S1133AC00F9108958F929F92AF92BF92EF92FF92BF
S1133AD00F931F93CF93DF938C01D62F7A01B22ECD
S1133AE0D6D39C0133272B32310531F02D323105E9
S1133AF059F48B2D8068B82ED15011F480E061C048
S1133B00C801C5D397FDFACFCB2DCD7F2B2D2073C4
S1133B10F9F48033E9F4AA24AA94AD0E09F43EC062
S1133B20C801B5D397FD3AC09C012F7D33272835B2
S1133B30310541F4C264D25089F1C801A8D397FF7A
S1133B4007C02CC0B6FE02C0C26001C0C261DA2D3B
S1133B50812C912C540120ED280F283078F0C4FFDB
S1133B6003C0B8010ED417C02A3040F0C6FFF9CF05
S1133B702F7D3FEE320F3630A0F727504C2FC50172
S1133B80B40163DF4B015C01C260D15051F0C80144
S1133B907ED397FFE0CFC1FD04C0B0CF812C912C20
S1133BA05401C7FF08C0B094A09490948094811CE1
S1133BB0911CA11CB11C2C2FB501A401C70139DF34
S1133BC081E0DF91CF911F910F91FF90EF90BF9013
S1133BD0AF909F908F9008955F926F927F928F9293
S1133BE09F92AF92BF92CF92DF92EF92FF920F9388
S1133BF01F93CF93DF93CDB7DEB7A097CDBFDEBFC2
S1133C005C01962E7A01F9018E010F5F1F4F680146
S1133C1080E2D8011D928A95E9F7D50113968C901C
S1133C2080E090E0612C712C30E061E070E083FC76
S1133C30259183FE21918F01522E211103C080E032
S1133C4090E090C02E3511F4009751F1432F50E0CD
S1133C50481759073CF42D3559F12D3219F47720C2
S1133C6009F103C0772009F468C0452D46954695AF
S1133C704695D601A40FB11D452D47708B0102C096
S1133C80000F111F4A95E2F7A8015C91452B4C9354
S1133C90651459F0561410F45394E7CF5A94E5CFB1
S1133CA031E004C07724739401C0712C0196BFCF16
S1133CB0772019F08E8180628E83311103C08824AD
S1133CC0839417C0F6019E012F5D3F4F808180953C
S1133CD081932E173F07D1F7F2CFE114F10429F0B5
S1133CE0D7018C93F70131967F019A94812C992006
S1133CF0E9F0C501CCD297FD17C0FC01FF2723E0F2
S1133D00F595E7952A95E1F7EC0DFD1D208130E04E
S1133D10AC014770552702C0359527954A95E2F7BF
S1133D2020FDDBCFB5012DD3811089CFE114F1043F
S1133D3011F0D7011C92C80115C0422F4695469533
S1133D404695D601A40FB11D422F47708B0102C0C6
S1133D50000F111F4A95E2F7A8015C91452B4C9383
S1133D60622EA4CFA096CDBFDEBFDF91CF911F916D
S1133D700F91FF90EF90DF90CF90BF90AF909F9006
S1133D808F907F906F905F9008955F926F927F9273
S1133D908F929F92AF92BF92CF92DF92EF92FF9257
S1133DA00F931F93CF93DF936C01EB015A01FC0136
S1133DB016821782512CF601E380FE01E3FC859103
S1133DC0E3FE8191182FEF01882309F4E0C090E00D
S1133DD02ED2892B19F0C6015FDEEDCF153241F4E6
S1133DE0FE01E3FC1591E3FE1191EF01153271F42C
S1133DF0C6014DD297FDC9C0412F50E09C01332725
S1133E0024173507C1F2B601BCD2C1C01A3239F445
S1133E10E3FC1591E3FE1191EF0101E001C000E024
S1133E20F12C20ED210F2A3078F402606F2D70E020
S1133E3080E090E040E209DEF62EFE01E3FC1591FD
S1133E40E3FE1191EF01EDCF01FF03C0F11003C0B8
S1133E509EC0FF24FA94183619F01C3651F010C095
S1133E60FE01E3FC1591E3FE1191EF01183641F4D4
S1133E7008600460FE01E3FC1591E3FE1191EF017B
S1133E80112309F484C0612F70E08EE792E0D7D14A
S1133E90892B09F47CC000FD07C0F5018080918066
S1133EA0C50102965C0102C0812C912C1E3649F496
S1133EB0F6014681578160E070E0202FC401B9DD2E
S1133EC07ACF1336A1F401FD02C0FF24F394C60196
S1133ED0DED197FD5AC08114910429F0F401808346
S1133EE0C40101964C01FA94F110F1CF4AC01B357C
S1133EF051F49E01A4016F2DC6016EDEEC01892BE5
S1133F0009F03FC039C0C601C7DD97FD3EC01F366A
S1133F1049F128F4143621F1193639F125C0133743
S1133F2071F01537E9F020C08114910429F0F401EF
S1133F306082C40101964C01FA94FF2059F0C60135
S1133F40A6D13C0197FD06C072D1892B69F3B60155
S1133F50C30117D281149104A1F0F401108211C09D
S1133F60006203C0006101C00064202FA4016F2D12
S1133F70C601A8DD811105C0F6018381807329F48F
S1133F8006C000FD18CF539416CF552019F0852D87
S1133F9090E002C08FEF9FEFDF91CF911F910F91BF
S1133FA0FF90EF90DF90CF90BF90AF909F908F9055
S1133FB07F906F905F9008950F931F93CF93DF933B
S1133FC0869F8001879F100D969F100D1124C801B4
S1133FD00DD0EC01009721F0A80160E070E045D11C
S1133FE0CE01DF91CF911F910F9108950F931F93ED
S1133FF0CF93DF938230910510F482E090E0E0915A
S1134000AC21F091AD2120E030E0A0E0B0E03097A9
S113401019F1408151810281138148175907C8F071
S11340208417950769F4109731F012960C93129740
S113403013961C9327C00093AC211093AD2122C08A
S11340402115310519F04217530718F49A01BD01DF
S1134050EF01DF01F801DBCF21153105F9F0281B51
S1134060390B2430310580F48A819B8161157105F7
S113407021F0FB018283938304C08093AC2190934D
S1134080AD21FE01329644C0FE01E20FF31F81937D
S1134090919322503109288339833AC02091AA216F
S11340A03091AB21232B41F4209102203091032045
S11340B02093AA213093AB2120910020309101203C
S11340C02115310541F42DB73EB74091042050919C
S11340D00520241B350BE091AA21F091AB21E217B6
S11340E0F307A0F42E1B3F0B2817390778F0AC0117
S11340F04E5F5F4F2417350748F04E0F5F1F409304
S1134100AA215093AB218193919302C0E0E0F0E0A7
S1134110CF01DF91CF911F910F910895CF93DF933A
S1134120009709F481C0FC01329712821382A09196
S1134130AC21B091AD21109781F420813181820F9F
S1134140931F2091AA213091AB212817390751F5EB
S1134150E093AA21F093AB2167C0ED0120E030E0A9
S1134160CE17DF0740F44A815B819E01411551055A
S1134170F1F0EA01F5CFC283D38340815181840FEA
S1134180951FC817D90759F488819981840F951F01
S11341900296808391838A819B81828393832115F4
S11341A0310529F4E093AC21F093AD213DC0E90140
S11341B0EA83FB8349915991C40FD51FEC17FD077E
S11341C061F480819181840F951F0296E9018883AF
S11341D09983828193818A839B83E0E0F0E0129645
S11341E08D919C911397009719F0FD01DC01F7CF95
S11341F08D919C9111979D012E5F3F4F820F931FCC
S11342002091AA213091AB212817390769F43097FE
S113421029F41092AC211092AD2102C012821382B3
S1134220A093AA21B093AB21DF91CF91089591116E
S11342301FC1803219F089508550D0F70895FC01D0
S11342400590061621F00020D9F7C0010895319792
S1134250CF010895FC010590615070400110D8F71A
S1134260809590958E0F9F1F0895DC0101C06D937A
S113427041505040E0F70895FC01615070400190B6
S11342800110D8F7809590958E0F9F1F0895CF93B6
S1134290DF93EC012B8120FF33C026FF0AC02F7B64
S11342A02B838E819F8101968E839F838A8190E0E8
S11342B029C022FF0FC0E881F9818081082E000CFB
S11342C0990B009719F420622B831AC03196E88366
S11342D0F9830EC0EA85FB85199597FF09C02B81E8
S11342E0019611F080E201C080E1822B8B8308C02B
S11342F02E813F812F5F3F4F2E833F83992702C03A
S11343008FEF9FEFDF91CF9108950F931F93CF937A
S1134310DF93FB01238121FD03C08FEF9FEF2CC0AE
S113432022FF16C0468157812481358142175307E5
S113433044F4A081B1819D012F5F3F4F20833183DD
S11343408C93268137812F5F3F4F2683378314C098
S11343508B01EC01FB010084F185E02D1995892B7B
S1134360E1F6D80116968D919C91179701961696B1
S11343708D939C931797CE01DF91CF911F910F914D
S11343800895FB01238120FF12C026FD10C08F3F3A
S11343903FEF930761F082832F7D2064238326817E
S11343A037812150310926833783992708958FEF68
S11343B09FEF0895FA01AA27283051F1203181F1A5
S11343C0E8946F936E7F6E5F7F4F8F4F9F4FAF4F19
S11343D0B1E03ED0B4E03CD0670F781F891F9A1F2C
S11343E0A11D680F791F8A1F911DA11D6A0F711DE0
S11343F0811D911DA11D20D009F468943F912AE0EC
S1134400269F11243019305D3193DEF6CF010895D3
S1134410462F4770405D4193B3E00FD0C9F7F6CF04
S1134420462F4F70405D4A3318F0495D31FD4052CC
S1134430419302D0A9F7EACFB4E0A6959795879562
S113444077956795BA95C9F7009761057105089541
S11344509B01AC010A2E06945795479537952795ED
S1134460BA95C9F7620F731F841F951FA01D089585
S10D4470992788270895F894FFCFD8
S113447A0000AE21200080250000030001802500F1
S113448A0003000147200357200A00DC050AE81C40
S113449A41F4FDD4BB69878F433313904380E6C547
S11344AA47090A0B0C0D0E0F1012131415161718C0
S11344BA1901000403070625692E256C692C256950
S11344CA2E256C690A0000353334332C25692C25D2
S11344DA692C25692C256C692C25692C25692C25C0
S11344EA3032693A253032693A253032692C2569E5
S11344FA2E256C692C25692E256C692C25692E2597
S113450A692C25692C25692C25692C25692C256992
S113451A2C25690A00000A25752C25752C25752C6D
S113452A25752C25752C25750A00256C64002564CF
S105453A00007B
S9030000FC
