:1000000057C100007BC1000079C1000077C100002A
:1000100075C1000073C1000071C100006FC1000014
:100020006DC100006BC1000069C1000067C1000024
:1000300065C100000C94450E09C500003FC50000D5
:1000400075C50000ABC50000E1C5000017C6000083
:100050004DC6000083C60000B9C60000EFC6000010
:100060004DC100004BC1000049C1000047C1000064
:1000700045C1000043C1000041C100003FC1000074
:100080003DC100003BC1000039C1000037C1000084
:100090002BC200006FC20000B3C20000E3C3000027
:1000A0001EC4000059C4000094C4000027C1000011
:1000B00025C1000023C100000C94A90E0C94A520BA
:1000C0000C9486090C94BE090C94F6090C942E0A23
:1000D0000C94660A0C949E0A0C94D60A0C940E0B8F
:1000E0000C94460B0BC100000C94F42207C10000D5
:1000F00005C1000003C1000001C10000FFC00000F5
:10010000FDC00000FBC00000F9C00000F7C0000007
:1001100021C1000065C10000A9C10000AFC20000FC
:10012000EAC2000025C3000060C30000E7C0000071
:100130000C94770EBBC60000F1C6000027C7000074
:100140005DC7000093C70000C9C700000C94A60853
:100150000C94DE080C9416090C944E09CFC00000D4
:10016000CDC00000CBC00000C9C000000C942E23FD
:10017000C5C00000C3C00000C1C00000BFC0000077
:10018000BDC00000BBC00000B9C00000B7C0000087
:10019000B5C00000B3C00000B1C00000AFC0000097
:1001A000ADC00000ABC00000A9C000000C94DB0E85
:1001B0000C947E0B0C94B60B0C94EE0B0C94260C4A
:1001C0000C945E0C0C94960C0C94CE0C0C94060DB6
:1001D0000C943E0D0C94760D91C000008FC0000071
:1001E0008DC000008BC0000089C0000087C00000E7
:1001F00085C0000083C0000081C00000EC1FEA1F22
:10020000E81FF01FE61FE41FF11FF11FF11FF11F90
:10021000F11FF11FF11FF11FF11FF11FF11FF11F5E
:10022000EE1F07634236B79BD8A71A39685618AE37
:10023000BAAB558C1D3CB7CC5763BD6DEDFD753E1B
:10024000F6177231BF000000803F08000000BE9228
:100250002449123EABAAAA2ABECDCCCC4C3E00000B
:100260000080BEABAAAAAA3E00000000BF000000AA
:10027000803F0000000000084178D3BB4387D113C2
:100280003D190E3CC3BD4282AD2B3E68EC8276BE6A
:10029000D98FE1A93E4C80EFFFBE01C4FF7F3F0034
:1002A000000000006364696E6F70737578585B00BE
:1002B00011241FBECFEFCDBFDFE3DEBF00E00CBFD8
:1002C00018BE19BE1ABE1BBE10E2A0E0B0E2E8E7FD
:1002D000F4E600E00BBF02C007900D92A43BB1070B
:1002E000D9F71BBE22E2A4EBB0E201C01D92AF31F0
:1002F000B207E1F70E94F21F0C943A3281CECF93FD
:10030000DF931F92CDB7DEB780916C2190916D2164
:10031000E0916821F0916921BE016F5F7F4F1995CF
:100320008981082E000C990B0F90DF91CF910895D1
:10033000682F80916C2190916D21E0916A21F0915C
:100340006B21199599231CF081E090E008958FEFBF
:100350009FEF08951F920F920FB60F92112408B6C7
:100360000F9218BE09B60F9219BE0BB60F921BBEA4
:100370002F933F934F935F936F937F938F939F93AD
:10038000AF93BF93EF93FF93E091B620F091B72026
:10039000309779F08091870384FF06C040E060E0E9
:1003A00080E893E0199505C040E860E080E893E0BC
:1003B0001995FF91EF91BF91AF919F918F917F918F
:1003C0006F915F914F913F912F910F900BBE0F90C6
:1003D00009BE0F9008BE0F900FBE0F901F9018958A
:1003E0001F920F920FB60F92112408B60F9218BEEB
:1003F00009B60F9219BE0BB60F921BBE2F933F93F7
:100400004F935F936F937F938F939F93AF93BF931C
:10041000EF93FF93E091B620F091B720309779F0F9
:100420008091870385FF06C040E061E080E893E0AB
:10043000199505C040E861E080E893E01995FF91C7
:10044000EF91BF91AF919F918F917F916F915F914C
:100450004F913F912F910F900BBE0F9009BE0F90BF
:1004600008BE0F900FBE0F901F9018951F920F920D
:100470000FB60F92112408B60F9218BE09B60F924C
:1004800019BE0BB60F921BBE2F933F934F935F93F2
:100490006F937F938F939F93AF93BF93EF93FF934C
:1004A000E091B620F091B720309739F04091870362
:1004B000407C60E080E893E01995FF91EF91BF9157
:1004C000AF919F918F917F916F915F914F913F91EC
:1004D0002F910F900BBE0F9009BE0F9008BE0F908A
:1004E0000FBE0F901F9018951F920F920FB60F928C
:1004F000112408B60F9218BE09B60F9219BE0BB69A
:100500000F921BBE2F933F934F935F936F937F93F5
:100510008F939F93AF93BF93EF93FF93E091B4209A
:10052000F091B520309779F08091970384FF06C051
:1005300040E060E080E993E0199505C040E860E0A4
:1005400080E993E01995FF91EF91BF91AF919F9151
:100550008F917F916F915F914F913F912F910F906C
:100560000BBE0F9009BE0F9008BE0F900FBE0F90EC
:100570001F9018951F920F920FB60F92112408B674
:100580000F9218BE09B60F9219BE0BB60F921BBE82
:100590002F933F934F935F936F937F938F939F938B
:1005A000AF93BF93EF93FF93E091B420F091B52008
:1005B000309779F08091970385FF06C040E061E0B5
:1005C00080E993E0199505C040E861E080E993E097
:1005D0001995FF91EF91BF91AF919F918F917F916D
:1005E0006F915F914F913F912F910F900BBE0F90A4
:1005F00009BE0F9008BE0F900FBE0F901F90189568
:100600001F920F920FB60F92112408B60F9218BEC8
:1006100009B60F9219BE0BB60F921BBE2F933F93D4
:100620004F935F936F937F938F939F93AF93BF93FA
:10063000EF93FF93E091B420F091B520309739F01B
:1006400040919703407C60E080E993E01995FF9129
:10065000EF91BF91AF919F918F917F916F915F913A
:100660004F913F912F910F900BBE0F9009BE0F90AD
:1006700008BE0F900FBE0F901F9018951F920F92FB
:100680000FB60F92112408B60F9218BE09B60F923A
:1006900019BE0BB60F921BBE2F933F934F935F93E0
:1006A0006F937F938F939F93AF93BF93EF93FF933A
:1006B0004091240250912502E0917021F091712126
:1006C00061E080E092E01995FF91EF91BF91AF91C9
:1006D0009F918F917F916F915F914F913F912F915A
:1006E0000F900BBE0F9009BE0F9008BE0F900FBE6B
:1006F0000F901F9018951F920F920FB60F92112412
:1007000008B60F9218BE09B60F9219BE0BB60F921B
:100710001BBE2F933F934F935F936F937F938F9362
:100720009F93AF93BF93EF93FF9340912C0250910F
:100730002D02E0917021F091712162E080E092E061
:100740001995FF91EF91BF91AF919F918F917F91FB
:100750006F915F914F913F912F910F900BBE0F9032
:1007600009BE0F9008BE0F900FBE0F901F901895F6
:100770001F920F920FB60F92112408B60F9218BE57
:1007800009B60F9219BE0BB60F921BBE2F933F9363
:100790004F935F936F937F938F939F93AF93BF9389
:1007A000EF93FF934091340250913502E091702114
:1007B000F091712164E080E092E01995FF91EF9152
:1007C000BF91AF919F918F917F916F915F914F9169
:1007D0003F912F910F900BBE0F9009BE0F9008BE56
:1007E0000F900FBE0F901F9018951F920F920FB68B
:1007F0000F92112408B60F9218BE09B60F9219BEB7
:100800000BB60F921BBE2F933F934F935F936F9343
:100810007F938F939F93AF93BF93EF93FF934091F9
:100820003C0250913D02E0917021F091712168E00D
:1008300080E092E01995FF91EF91BF91AF919F9168
:100840008F917F916F915F914F913F912F910F9079
:100850000BBE0F9009BE0F9008BE0F900FBE0F90F9
:100860001F9018951F920F920FB60F92112408B681
:100870000F9218BE09B60F9219BE0BB60F921BBE8F
:100880002F933F934F935F936F937F938F939F9398
:10089000AF93BF93EF93FF93409164025091650231
:1008A000E0916E21F0916F2161E080E492E0199572
:1008B000FF91EF91BF91AF919F918F917F916F9138
:1008C0005F914F913F912F910F900BBE0F9009BEFA
:1008D0000F9008BE0F900FBE0F901F9018951F929B
:1008E0000F920FB60F92112408B60F9218BE09B6D8
:1008F0000F9219BE0BB60F921BBE2F933F934F93CF
:100900005F936F937F938F939F93AF93BF93EF9377
:10091000FF9340916C0250916D02E0916E21F09135
:100920006F2162E080E492E01995FF91EF91BF9111
:10093000AF919F918F917F916F915F914F913F9177
:100940002F910F900BBE0F9009BE0F9008BE0F9015
:100950000FBE0F901F9018951F920F920FB60F9217
:10096000112408B60F9218BE09B60F9219BE0BB625
:100970000F921BBE2F933F934F935F936F937F9381
:100980008F939F93AF93BF93EF93FF934091740224
:1009900050917502E0916E21F0916F2164E080E446
:1009A00092E01995FF91EF91BF91AF919F918F9137
:1009B0007F916F915F914F913F912F910F900BBE5F
:1009C0000F9009BE0F9008BE0F900FBE0F901F90A2
:1009D00018951F920F920FB60F92112408B60F921E
:1009E00018BE09B60F9219BE0BB60F921BBE2F93FD
:1009F0003F934F935F936F937F938F939F93AF93A7
:100A0000BF93EF93FF9340917C0250917D02E09160
:100A10006E21F0916F2168E080E492E01995FF91DA
:100A2000EF91BF91AF919F918F917F916F915F9166
:100A30004F913F912F910F900BBE0F9009BE0F90D9
:100A400008BE0F900FBE0F901F9018951F920F9227
:100A50000FB60F92112408B60F9218BE09B60F9266
:100A600019BE0BB60F921BBE2F933F934F935F930C
:100A70006F937F938F939F93AF93BF93EF93FF9366
:100A8000E0910421F0910521309709F01995FF912B
:100A9000EF91BF91AF919F918F917F916F915F91F6
:100AA0004F913F912F910F900BBE0F9009BE0F9069
:100AB00008BE0F900FBE0F901F9018951F920F92B7
:100AC0000FB60F92112408B60F9218BE09B60F92F6
:100AD00019BE0BB60F921BBE2F933F934F935F939C
:100AE0006F937F938F939F93AF93BF93EF93FF93F6
:100AF000E0910221F0910321309709F01995FF91BF
:100B0000EF91BF91AF919F918F917F916F915F9185
:100B10004F913F912F910F900BBE0F9009BE0F90F8
:100B200008BE0F900FBE0F901F9018951F920F9246
:100B30000FB60F92112408B60F9218BE09B60F9285
:100B400019BE0BB60F921BBE2F933F934F935F932B
:100B50006F937F938F939F93AF93BF93EF93FF9385
:100B6000E0910021F0910121309709F01995FF9152
:100B7000EF91BF91AF919F918F917F916F915F9115
:100B80004F913F912F910F900BBE0F9009BE0F9088
:100B900008BE0F900FBE0F901F9018951F920F92D6
:100BA0000FB60F92112408B60F9218BE09B60F9215
:100BB00019BE0BB60F921BBE2F933F934F935F93BB
:100BC0006F937F938F939F93AF93BF93EF93FF9315
:100BD000E091FE20F091FF20309709F01995FF91E8
:100BE000EF91BF91AF919F918F917F916F915F91A5
:100BF0004F913F912F910F900BBE0F9009BE0F9018
:100C000008BE0F900FBE0F901F9018951F920F9265
:100C10000FB60F92112408B60F9218BE09B60F92A4
:100C200019BE0BB60F921BBE2F933F934F935F934A
:100C30006F937F938F939F93AF93BF93EF93FF93A4
:100C4000E091FC20F091FD20309709F01995FF917B
:100C5000EF91BF91AF919F918F917F916F915F9134
:100C60004F913F912F910F900BBE0F9009BE0F90A7
:100C700008BE0F900FBE0F901F9018951F920F92F5
:100C80000FB60F92112408B60F9218BE09B60F9234
:100C900019BE0BB60F921BBE2F933F934F935F93DA
:100CA0006F937F938F939F93AF93BF93EF93FF9334
:100CB000E091FA20F091FB20309709F01995FF910F
:100CC000EF91BF91AF919F918F917F916F915F91C4
:100CD0004F913F912F910F900BBE0F9009BE0F9037
:100CE00008BE0F900FBE0F901F9018951F920F9285
:100CF0000FB60F92112408B60F9218BE09B60F92C4
:100D000019BE0BB60F921BBE2F933F934F935F9369
:100D10006F937F938F939F93AF93BF93EF93FF93C3
:100D2000E091F820F091F920309709F01995FF91A2
:100D3000EF91BF91AF919F918F917F916F915F9153
:100D40004F913F912F910F900BBE0F9009BE0F90C6
:100D500008BE0F900FBE0F901F9018951F920F9214
:100D60000FB60F92112408B60F9218BE09B60F9253
:100D700019BE0BB60F921BBE2F933F934F935F93F9
:100D80006F937F938F939F93AF93BF93EF93FF9353
:100D9000E091F620F091F720309709F01995FF9136
:100DA000EF91BF91AF919F918F917F916F915F91E3
:100DB0004F913F912F910F900BBE0F9009BE0F9056
:100DC00008BE0F900FBE0F901F9018951F920F92A4
:100DD0000FB60F92112408B60F9218BE09B60F92E3
:100DE00019BE0BB60F921BBE2F933F934F935F9389
:100DF0006F937F938F939F93AF93BF93EF93FF93E3
:100E0000E091F420F091F520309709F01995FF91C9
:100E1000EF91BF91AF919F918F917F916F915F9172
:100E20004F913F912F910F900BBE0F9009BE0F90E5
:100E300008BE0F900FBE0F901F9018951F920F9233
:100E40000FB60F92112408B60F9218BE09B60F9272
:100E500019BE0BB60F921BBE2F933F934F935F9318
:100E60006F937F938F939F93AF93BF93EF93FF9372
:100E7000E091F220F091F320309709F01995FF915D
:100E8000EF91BF91AF919F918F917F916F915F9102
:100E90004F913F912F910F900BBE0F9009BE0F9075
:100EA00008BE0F900FBE0F901F9018951F920F92C3
:100EB0000FB60F92112408B60F9218BE09B60F9202
:100EC00019BE0BB60F921BBE2F933F934F935F93A8
:100ED0006F937F938F939F93AF93BF93EF93FF9302
:100EE000E091F020F091F120309709F01995FF91F1
:100EF000EF91BF91AF919F918F917F916F915F9192
:100F00004F913F912F910F900BBE0F9009BE0F9004
:100F100008BE0F900FBE0F901F9018951F920F9252
:100F20000FB60F92112408B60F9218BE09B60F9291
:100F300019BE0BB60F921BBE2F933F934F935F9337
:100F40006F937F938F939F93AF93BF93EF93FF9391
:100F5000E091EE20F091EF20309709F01995FF9184
:100F6000EF91BF91AF919F918F917F916F915F9121
:100F70004F913F912F910F900BBE0F9009BE0F9094
:100F800008BE0F900FBE0F901F9018951F920F92E2
:100F90000FB60F92112408B60F9218BE09B60F9221
:100FA00019BE0BB60F921BBE2F933F934F935F93C7
:100FB0006F937F938F939F93AF93BF93EF93FF9321
:100FC000E091EC20F091ED20309709F01995FF9118
:100FD000EF91BF91AF919F918F917F916F915F91B1
:100FE0004F913F912F910F900BBE0F9009BE0F9024
:100FF00008BE0F900FBE0F901F9018951F920F9272
:101000000FB60F92112408B60F9218BE09B60F92B0
:1010100019BE0BB60F921BBE2F933F934F935F9356
:101020006F937F938F939F93AF93BF93EF93FF93B0
:10103000E091EA20F091EB20309709F01995FF91AB
:10104000EF91BF91AF919F918F917F916F915F9140
:101050004F913F912F910F900BBE0F9009BE0F90B3
:1010600008BE0F900FBE0F901F9018951F920F9201
:101070000FB60F92112408B60F9218BE09B60F9240
:1010800019BE0BB60F921BBE2F933F934F935F93E6
:101090006F937F938F939F93AF93BF93EF93FF9340
:1010A000E091E820F091E920309709F01995FF913F
:1010B000EF91BF91AF919F918F917F916F915F91D0
:1010C0004F913F912F910F900BBE0F9009BE0F9043
:1010D00008BE0F900FBE0F901F9018951F920F9291
:1010E0000FB60F92112408B60F9218BE09B60F92D0
:1010F00019BE0BB60F921BBE2F933F934F935F9376
:101100006F937F938F939F93AF93BF93EF93FF93CF
:10111000E091E620F091E720309709F01995FF91D2
:10112000EF91BF91AF919F918F917F916F915F915F
:101130004F913F912F910F900BBE0F9009BE0F90D2
:1011400008BE0F900FBE0F901F9018951F920F9220
:101150000FB60F92112408B60F9218BE09B60F925F
:1011600019BE0BB60F921BBE2F933F934F935F9305
:101170006F937F938F939F93AF93BF93EF93FF935F
:10118000E091E420F091E520309709F01995FF9166
:10119000EF91BF91AF919F918F917F916F915F91EF
:1011A0004F913F912F910F900BBE0F9009BE0F9062
:1011B00008BE0F900FBE0F901F9018951F920F92B0
:1011C0000FB60F92112408B60F9218BE09B60F92EF
:1011D00019BE0BB60F921BBE2F933F934F935F9395
:1011E0006F937F938F939F93AF93BF93EF93FF93EF
:1011F000E091E220F091E320309709F01995FF91FA
:10120000EF91BF91AF919F918F917F916F915F917E
:101210004F913F912F910F900BBE0F9009BE0F90F1
:1012200008BE0F900FBE0F901F9018951F920F923F
:101230000FB60F92112408B60F9218BE09B60F927E
:1012400019BE0BB60F921BBE2F933F934F935F9324
:101250006F937F938F939F93AF93BF93EF93FF937E
:10126000E091E020F091E120309709F01995FF918D
:10127000EF91BF91AF919F918F917F916F915F910E
:101280004F913F912F910F900BBE0F9009BE0F9081
:1012900008BE0F900FBE0F901F9018951F920F92CF
:1012A0000FB60F92112408B60F9218BE09B60F920E
:1012B00019BE0BB60F921BBE2F933F934F935F93B4
:1012C0006F937F938F939F93AF93BF93EF93FF930E
:1012D000E091DE20F091DF20309709F01995FF9121
:1012E000EF91BF91AF919F918F917F916F915F919E
:1012F0004F913F912F910F900BBE0F9009BE0F9011
:1013000008BE0F900FBE0F901F9018951F920F925E
:101310000FB60F92112408B60F9218BE09B60F929D
:1013200019BE0BB60F921BBE2F933F934F935F9343
:101330006F937F938F939F93AF93BF93EF93FF939D
:10134000E091DC20F091DD20309709F01995FF91B4
:10135000EF91BF91AF919F918F917F916F915F912D
:101360004F913F912F910F900BBE0F9009BE0F90A0
:1013700008BE0F900FBE0F901F9018951F920F92EE
:101380000FB60F92112408B60F9218BE09B60F922D
:1013900019BE0BB60F921BBE2F933F934F935F93D3
:1013A0006F937F938F939F93AF93BF93EF93FF932D
:1013B000E091DA20F091DB20309709F01995FF9148
:1013C000EF91BF91AF919F918F917F916F915F91BD
:1013D0004F913F912F910F900BBE0F9009BE0F9030
:1013E00008BE0F900FBE0F901F9018951F920F927E
:1013F0000FB60F92112408B60F9218BE09B60F92BD
:1014000019BE0BB60F921BBE2F933F934F935F9362
:101410006F937F938F939F93AF93BF93EF93FF93BC
:10142000E091D820F091D920309709F01995FF91DB
:10143000EF91BF91AF919F918F917F916F915F914C
:101440004F913F912F910F900BBE0F9009BE0F90BF
:1014500008BE0F900FBE0F901F9018951F920F920D
:101460000FB60F92112408B60F9218BE09B60F924C
:1014700019BE0BB60F921BBE2F933F934F935F93F2
:101480006F937F938F939F93AF93BF93EF93FF934C
:10149000E091D620F091D720309709F01995FF916F
:1014A000EF91BF91AF919F918F917F916F915F91DC
:1014B0004F913F912F910F900BBE0F9009BE0F904F
:1014C00008BE0F900FBE0F901F9018951F920F929D
:1014D0000FB60F92112408B60F9218BE09B60F92DC
:1014E00019BE0BB60F921BBE2F933F934F935F9382
:1014F0006F937F938F939F93AF93BF93EF93FF93DC
:10150000E091D420F091D520309709F01995FF9102
:10151000EF91BF91AF919F918F917F916F915F916B
:101520004F913F912F910F900BBE0F9009BE0F90DE
:1015300008BE0F900FBE0F901F9018951F920F922C
:101540000FB60F92112408B60F9218BE09B60F926B
:1015500019BE0BB60F921BBE2F933F934F935F9311
:101560006F937F938F939F93AF93BF93EF93FF936B
:10157000E091D220F091D320309709F01995FF9196
:10158000EF91BF91AF919F918F917F916F915F91FB
:101590004F913F912F910F900BBE0F9009BE0F906E
:1015A00008BE0F900FBE0F901F9018951F920F92BC
:1015B0000FB60F92112408B60F9218BE09B60F92FB
:1015C00019BE0BB60F921BBE2F933F934F935F93A1
:1015D0006F937F938F939F93AF93BF93EF93FF93FB
:1015E000E091D020F091D120309709F01995FF912A
:1015F000EF91BF91AF919F918F917F916F915F918B
:101600004F913F912F910F900BBE0F9009BE0F90FD
:1016100008BE0F900FBE0F901F9018951F920F924B
:101620000FB60F92112408B60F9218BE09B60F928A
:1016300019BE0BB60F921BBE2F933F934F935F9330
:101640006F937F938F939F93AF93BF93EF93FF938A
:10165000E091CE20F091CF20309709F01995FF91BD
:10166000EF91BF91AF919F918F917F916F915F911A
:101670004F913F912F910F900BBE0F9009BE0F908D
:1016800008BE0F900FBE0F901F9018951F920F92DB
:101690000FB60F92112408B60F9218BE09B60F921A
:1016A00019BE0BB60F921BBE2F933F934F935F93C0
:1016B0006F937F938F939F93AF93BF93EF93FF931A
:1016C000E091CC20F091CD20309709F01995FF9151
:1016D000EF91BF91AF919F918F917F916F915F91AA
:1016E0004F913F912F910F900BBE0F9009BE0F901D
:1016F00008BE0F900FBE0F901F9018951F920F926B
:101700000FB60F92112408B60F9218BE09B60F92A9
:1017100019BE0BB60F921BBE2F933F934F935F934F
:101720006F937F938F939F93AF93BF93EF93FF93A9
:10173000E091CA20F091CB20309709F01995FF91E4
:10174000EF91BF91AF919F918F917F916F915F9139
:101750004F913F912F910F900BBE0F9009BE0F90AC
:1017600008BE0F900FBE0F901F9018951F920F92FA
:101770000FB60F92112408B60F9218BE09B60F9239
:1017800019BE0BB60F921BBE2F933F934F935F93DF
:101790006F937F938F939F93AF93BF93EF93FF9339
:1017A000E091C820F091C920309709F01995FF9178
:1017B000EF91BF91AF919F918F917F916F915F91C9
:1017C0004F913F912F910F900BBE0F9009BE0F903C
:1017D00008BE0F900FBE0F901F9018951F920F928A
:1017E0000FB60F92112408B60F9218BE09B60F92C9
:1017F00019BE0BB60F921BBE2F933F934F935F936F
:101800006F937F938F939F93AF93BF93EF93FF93C8
:10181000E091C620F091C720309709F01995FF910B
:10182000EF91BF91AF919F918F917F916F915F9158
:101830004F913F912F910F900BBE0F9009BE0F90CB
:1018400008BE0F900FBE0F901F9018951F920F9219
:101850000FB60F92112408B60F9218BE09B60F9258
:1018600019BE0BB60F921BBE2F933F934F935F93FE
:101870006F937F938F939F93AF93BF93EF93FF9358
:10188000E091C420F091C520309709F01995FF919F
:10189000EF91BF91AF919F918F917F916F915F91E8
:1018A0004F913F912F910F900BBE0F9009BE0F905B
:1018B00008BE0F900FBE0F901F9018951F920F92A9
:1018C0000FB60F92112408B60F9218BE09B60F92E8
:1018D00019BE0BB60F921BBE2F933F934F935F938E
:1018E0006F937F938F939F93AF93BF93EF93FF93E8
:1018F000E091C220F091C320309709F01995FF9133
:10190000EF91BF91AF919F918F917F916F915F9177
:101910004F913F912F910F900BBE0F9009BE0F90EA
:1019200008BE0F900FBE0F901F9018951F920F9238
:101930000FB60F92112408B60F9218BE09B60F9277
:1019400019BE0BB60F921BBE2F933F934F935F931D
:101950006F937F938F939F93AF93BF93EF93FF9377
:10196000E091C020F091C120309709F01995FF91C6
:10197000EF91BF91AF919F918F917F916F915F9107
:101980004F913F912F910F900BBE0F9009BE0F907A
:1019900008BE0F900FBE0F901F9018951F920F92C8
:1019A0000FB60F92112408B60F9218BE09B60F9207
:1019B00019BE0BB60F921BBE2F933F934F935F93AD
:1019C0006F937F938F939F93AF93BF93EF93FF9307
:1019D000E091BE20F091BF20309709F01995FF915A
:1019E000EF91BF91AF919F918F917F916F915F9197
:1019F0004F913F912F910F900BBE0F9009BE0F900A
:101A000008BE0F900FBE0F901F9018951F920F9257
:101A10000FB60F92112408B60F9218BE09B60F9296
:101A200019BE0BB60F921BBE2F933F934F935F933C
:101A30006F937F938F939F93AF93BF93EF93FF9396
:101A4000E091BC20F091BD20309709F01995FF91ED
:101A5000EF91BF91AF919F918F917F916F915F9126
:101A60004F913F912F910F900BBE0F9009BE0F9099
:101A700008BE0F900FBE0F901F9018951F920F92E7
:101A80000FB60F92112408B60F9218BE09B60F9226
:101A900019BE0BB60F921BBE2F933F934F935F93CC
:101AA0006F937F938F939F93AF93BF93EF93FF9326
:101AB000E091BA20F091BB20309709F01995FF9181
:101AC000EF91BF91AF919F918F917F916F915F91B6
:101AD0004F913F912F910F900BBE0F9009BE0F9029
:101AE00008BE0F900FBE0F901F9018951F920F9277
:101AF0000FB60F92112408B60F9218BE09B60F92B6
:101B000019BE0BB60F921BBE2F933F934F935F935B
:101B10006F937F938F939F93AF93BF93EF93FF93B5
:101B2000E091B820F091B920309709F01995FF9114
:101B3000EF91BF91AF919F918F917F916F915F9145
:101B40004F913F912F910F900BBE0F9009BE0F90B8
:101B500008BE0F900FBE0F901F901895CF93DF9384
:101B6000E0910621F0910721848183FF08C08860FD
:101B7000848383E0838386EF8093102183C0982F32
:101B8000947131F083E083838FEF809310217AC0CA
:101B900086FF43C0C6E0D1E2AA81BB818C819D81D2
:101BA00014962D913C911597821793076CF49C0124
:101BB0002F5F3F4F20930A2130930B21A80FB91FAD
:101BC00011968C9187835EC080910C2190910D219C
:101BD00018962D913C91199782179307C8F420917C
:101BE0000E21222321F08681816086834BC01696C8
:101BF0002D913C911797AC014F5F5F4F40930C21A3
:101C000050930D21D901A80FB91F8C9187833AC039
:101C100083E083831092102135C0882384F5A6E0E9
:101C2000B1E21296CD91DC91139716968D919C910D
:101C300017972885398582179307D8F46E817F819D
:101C40009C012F5F3F4F20930C2130930D21478142
:101C5000DB01A80FB91F4C93888599852817390790
:101C600018F482E083830EC087E0838310921021F2
:101C700009C083E0838389EF8093102103C08BEF39
:101C800080931021DF91CF9108951F920F920FB68C
:101C90000F92112408B60F9218BE09B60F9219BE02
:101CA0000BB60F921BBE2F933F934F935F936F938F
:101CB0007F938F939F93AF93BF93EF93FF934EDFE9
:101CC000FF91EF91BF91AF919F918F917F916F9114
:101CD0005F914F913F912F910F900BBE0F9009BED6
:101CE0000F9008BE0F900FBE0F901F9018951F9277
:101CF0000F920FB60F92112408B60F9218BE09B6B4
:101D00000F9219BE0BB60F921BBE2F933F934F93AA
:101D10005F936F937F938F939F93AF93BF93EF9353
:101D2000FF931CDFFF91EF91BF91AF919F918F9136
:101D30007F916F915F914F913F912F910F900BBECB
:101D40000F9009BE0F9008BE0F900FBE0F901F900E
:101D500018951F920F920FB60F92112408B60F928A
:101D600018BE09B60F9219BE0BB60F921BBE2F9369
:101D70003F934F935F936F937F938F939F93AF9313
:101D8000BF93EF93FF93EADEFF91EF91BF91AF9185
:101D90009F918F917F916F915F914F913F912F9183
:101DA0000F900BBE0F9009BE0F9008BE0F900FBE94
:101DB0000F901F9018951F920F920FB60F9211243B
:101DC00008B60F9218BE09B60F9219BE0BB60F9245
:101DD0001BBE2F933F934F935F936F937F938F938C
:101DE0009F93AF93BF93EF93FF93B8DEFF91EF9173
:101DF000BF91AF919F918F917F916F915F914F9123
:101E00003F912F910F900BBE0F9009BE0F9008BE0F
:101E10000F900FBE0F901F901895FC01918195FFB8
:101E2000FDCF608380E090E00895FC0191819923CB
:101E3000ECF7808108954F925F926F927F928F921C
:101E40009F92AF92BF92EF92FF920F931F93CF9307
:101E50007C014A015B0128013901FC01848182FF78
:101E600016C0D901C801689412F8B695A795979540
:101E700087951694D1F7B901A801032E36E176951E
:101E80006795579547953A95D1F7302D15C0D901EB
:101E9000C801689413F8B695A795979587951694F9
:101EA000D1F7B901A801032E37E1769567955795CB
:101EB00047953A95D1F7302D88159905AA05BB05A8
:101EC00008F4A6C084169506A606B70608F4A2C0B4
:101ED000F701848182FD04C0880C991CAA1CBB1CDC
:101EE000C301B201A50194010E94EA292F3F3105E7
:101EF0004105510508F490C08FEF90E0A0E0B0E0FC
:101F0000C9EF05C0281739074A075B0758F0880F43
:101F1000991FAA1FBB1FCD3F0CF48160CF5FC73054
:101F200089F74FC0CC230CF04CC0D501C401880FF9
:101F3000991FAA1FBB1F880F991FAA1FBB1F880FBD
:101F4000991FAA1FBB1F481A590A6A0A7B0ACE3F6B
:101F5000F4F48DEF9FEF8C1B9109C7FD939504C09E
:101F6000440C551C661C771C8A95D2F7D501C40118
:101F7000B695A79597958795BC01CD01640D751D04
:101F8000861D971DA50194010E94EA2937C083E0B0
:101F90008C0FA501940104C0220F331F441F551F4D
:101FA0008A95D2F7DA01C901B695A79597958795D5
:101FB000BC01CD01640D751D861D971D0E94EA2987
:101FC0001DC083E08C0FA501940104C0220F331FB4
:101FD000441F551F8A95D2F7DA01C901B695A79516
:101FE00097958795BC01CD01640D751D861D971DC4
:101FF0000E94EA292150310941095109832F8F702C
:10200000C295C07FC82BF701C783268381E018C023
:1020100080E016C080E014C0D501C401880F991F6C
:10202000AA1FBB1F880F991FAA1FBB1F880F991FCC
:10203000AA1FBB1F481A590A6A0A7B0AC9EF89CF2F
:10204000CF911F910F91FF90EF90BF90AF909F9015
:102050008F907F906F905F904F9008950F931F9394
:10206000CF93DF93EC018B01009709F436C1803CDC
:10207000910521F460E180E0C5D32FC1C03484E034
:10208000D80721F468E080E0BDD327C1C115E4E0A2
:10209000DE0721F464E080E0B5D31FC1C038F1E071
:1020A000DF0721F462E080E0ADD317C1C11581E004
:1020B000D80721F461E080E0A5D30FC1C038E3E088
:1020C000DE0721F461E081E09DD307C1C039F3E070
:1020D000DF0721F461E082E095D3FFC0C11582E003
:1020E000D80721F462E081E08DD3F7C0C034E2E08C
:1020F000DE0721F462E082E085D3EFC0C115F3E092
:10210000DF0721F464E081E07DD3E7C0C03283E0E3
:10211000D80721F464E082E075D3DFC0C115E8E0A0
:10212000DE0721F461E083E06DD3D7C0C115F9E08B
:10213000DF0721F461E084E065D3CFC0C1158AE0F8
:10214000D80721F461E085E05DD3C7C0C115EBE09D
:10215000DE0721F461E086E055D3BFC0C034F8E06B
:10216000DF0721F462E083E04DD3B7C0C03489E0DB
:10217000D80721F462E084E045D3AFC0C034EAE080
:10218000DE0721F462E085E03DD3A7C0C034FBE068
:10219000DF0721F462E086E035D39FC0C03988E0D4
:1021A000D80721F464E083E02DD397C0C039E9E07B
:1021B000DE0721F464E084E025D38FC0C039FAE063
:1021C000DF0721F464E085E01DD387C0C0398BE0D0
:1021D000D80721F464E086E015D37FC0C03CE8E076
:1021E000DE0721F468E083E00DD377C0C03CF9E05E
:1021F000DF0721F468E084E005D36FC0C03C8AE0CB
:10220000D80721F468E085E0FDD267C0C03CEBE070
:10221000DE0721F468E086E0F5D25FC0C03AF8E05E
:10222000DF0721F460E183E0EDD257C0C03A89E0D6
:10223000D80721F460E184E0E5D24FC0C03AEAE07B
:10224000DE0721F460E185E0DDD247C0C03AFBE063
:10225000DF0721F460E186E0D5D23FC0C03B88E0D3
:10226000D80721F460E283E0CDD237C0C03BE9E07B
:10227000DE0721F460E284E0C5D22FC0C03BFAE063
:10228000DF0721F460E285E0BDD227C0C03B8BE0D0
:10229000D80721F460E286E0B5D21FC0C038E4E080
:1022A000DE0721F460E483E0ADD217C0C039F4E06A
:1022B000DF0721F460E484E0A5D20FC0C03A84E0D7
:1022C000D80721F460E485E09DD207C0C03BE4E07C
:1022D000DE0719F460E486E095D28D818F738D83DB
:1022E000F80195818481892B9681911198E0892B41
:1022F0008D83F801408151816281738100E018E48F
:1023000028EE31E0CE0197DD9C8198609C839C8112
:1023100090619C83DF91CF911F910F9108956091FF
:102320008D2170918E2180918F219091902108951F
:1023300004C0615071098109910961157105810518
:102340009105B9F70895E0E4F6E0948180E18927EA
:1023500084830895E0E4F6E0848180618483F3DF80
:102360008EE1B9D060E87EE380E090E0E1DFEBDF72
:102370006BEA79E280E090E0DBCF0895CF93DF93C2
:10238000C82FE1DF8C2FA7D097D0C82FD0E0DC2F4B
:10239000CC2792D0C82BD7DFCE01DF91CF91089503
:1023A000CF93DF9300D01F92CDB7DEB719821A8288
:1023B0001B821C82C8DF88E48ED066E570ED80E069
:1023C00090E0B6DFC0DFBFDF80E085D075D090E061
:1023D000A0E0B0E0DC019927882789839A83AB834A
:1023E000BC836AD049815A816B817C81582B498397
:1023F0005A836B837C8360D049815A816B817C8155
:10240000482B49835A836B837C839DDF69817A8162
:102410008B819C812496CDBFDEBFDF91CF91089543
:10242000CF93DF9300D01F92CDB7DEB719821A8207
:102430001B821C8288DF88E54ED066E570ED80E067
:1024400090E076DF80DF7FDF80E045D035D090E020
:10245000A0E0B0E0DC019927882789839A83AB83C9
:10246000BC832AD049815A816B817C81582B498356
:102470005A836B837C8320D049815A816B817C8114
:10248000482B49835A836B837C835DDF69817A8122
:102490008B819C812496CDBFDEBFDF91CF910895C3
:1024A000E0E4F6E08081806B808368E083E0AAD17D
:1024B0008CE58093C00808959FB7F8948FEF8093C0
:1024C000C308E0ECF8E082818823ECF778949FBFA2
:1024D0008091C30808959FB7F8948093C308E0ECF7
:1024E000F8E082818823ECF778949FBF0895CF931A
:1024F000DF93EB019ADC8883DF91CF9108958DCC37
:102500000895CF93DF93CDB7DEB72797CDBFDEBF5A
:1025100060E183E077D1E0E4F6E080818860808349
:1025200080EA98E080936C2190936D218FE792E18F
:1025300080936A2190936B2187E792E180936821D1
:1025400090936921E6E0F0E284818D8385818E831A
:1025500086818F8380819181A281B38189839A83CF
:10256000AB83BC8360E183E04DD1BE016F5F7F4FE1
:1025700080EA98E073DD6FE771E088E991E00E94FE
:10258000812A2796CDBFDEBFDF91CF910895CF93EB
:10259000DF93FC0141155105B1F180E090E020E0AE
:1025A000880F991FDB01A80FB91F8D919C91A28103
:1025B000B381AA0FBB1FC681D781AC0FBD1F8D93FE
:1025C0009C9382819381019682839383A081B181C0
:1025D0008A179B0711F41282138282819381C4812E
:1025E000D5818C179D0749F40196A817B90719F0F2
:1025F0008483958302C0148215822F5F822F90E01E
:102600008417950768F2DF91CF910895FC0112823B
:1026100013821482158266837783408351830895E1
:10262000DC011296ED91FC911397CB010196E8170E
:10263000F90778F0E150F048E61BF70BEE0FFF1FAB
:1026400016968D919C911797E80FF91F80819181C3
:1026500008952D913C911197E20FF31FE150F0483E
:10266000E61BF70BEE0FFF1F16968D919C911797A7
:10267000E80FF91F808191810895CF92DF92EF9248
:10268000FF92CF93DF93FC014115510509F43FC040
:1026900080E090E020E0880F991F880F991FDB01F0
:1026A000A80FB91FCD90DD90ED90FC90A281B38171
:1026B000AA0FBB1FAA0FBB1F86819781A80FB91F46
:1026C000CD92DD92ED92FC921397828193810196D7
:1026D00082839383A081B1818A179B0711F41282B0
:1026E000138282819381C481D5818C179D0749F41F
:1026F0000196A817B90719F08483958302C0148244
:1027000015822F5F822F90E08417950720F2DF91CA
:10271000CF91FF90EF90DF90CF900895FC0112824F
:1027200013821482158266837783408351830895D0
:10273000DC011296ED91FC911397CB010196E817FD
:10274000F90798F0E150F04CE61BF70BEE0FFF1F76
:10275000EE0FFF1F16968D919C911797E80FF91FAA
:10276000608171818281938108952D913C911197AF
:10277000E20FF31FE150F04CE61BF70BEE0FFF1FCB
:10278000EE0FFF1F16968D919C911797E80FF91F7A
:1027900060817181828193810895CF93DF931F922D
:1027A0001F92CDB7DEB78FEF8093700080937100DA
:1027B00080937200809373008093740080937500FF
:1027C000809376008FB78A83F8949A81E0E5F0E0F1
:1027D0008081826080839FBF818181FFFDCF61E026
:1027E00080E490E025D08FB78983F8949981E0E563
:1027F000F0E080818E7F80839FBF0F900F90DF91EC
:10280000CF910895CF93DF931F92CDB7DEB79FB7D7
:102810009983F8949981E82FF0E0E059FF4F609593
:102820008081682360839FBF0F90DF91CF910895CF
:102830001BBEFC0128ED24BF6083089504C06150D5
:102840007109810991096115710581059105B9F732
:102850000895CF93DF937EDD82EA90E08FDDC8E5B7
:10286000D1E28883998384EA90E088DD8A839B8320
:1028700086EA90E083DD8C839D8388EA90E07EDDAC
:102880008E839F838AEA90E079DD888799878CEA36
:1028900090E074DD8A879B87DF91CF9108954F92F6
:1028A0005F926F927F928F929F92AF92BF92CF92E0
:1028B000DF92EF92FF92CF93DF9372DD6B017C0189
:1028C000AFDD0E9436274B015C01C8E5D1E2688587
:1028D000798580E090E00E94362720E030E040E8F3
:1028E00053E40E94EC279B01AC01C501B4010E9496
:1028F00034264B015C016C817D8180E090E00E9478
:102900003627A50194010E94EC2720E030E040E04A
:102910005CE30E94EC272B013C016881798180E017
:1029200090E00E94362720E030E040E857E40E9423
:10293000EC279B01AC01C301B2010E9435262B019B
:102940003C01C701B6010E9436279B01AC01C301BF
:10295000B2010E94EC2720E030E040E055E30E9405
:10296000EC276B017C016E817F8180E090E00E940A
:102970003627A50194010E94EC2720E030E040E8D2
:102980005CE30E94EC274B015C016A817B8180E063
:1029900090E00E94362720E030E040E058E40E94BA
:1029A000EC279B01AC01C501B4010E9435269B01B7
:1029B000AC01C701B6010E94342620E030E040E0BF
:1029C00058E30E94EC27DF91CF91FF90EF90DF90CA
:1029D000CF90BF90AF909F908F907F906F905F90BF
:1029E0004F9008954F925F926F927F928F929F9235
:1029F000AF92BF92CF92DF92EF92FF922B013C01F8
:102A0000C0901820D0901920E0901A20F0901B2040
:102A100020911C2030911D2040911E2050911F209C
:102A2000C701B6010E94EC27209114203091152097
:102A300040911620509117200E949D264B015C0169
:102A4000A30192016091242070912520809126207D
:102A5000909127200E949D26A50194010E944F2855
:102A600020E030E040E85FE30E94342620912020FF
:102A70003091212040912220509123200E94EC2768
:102A8000A70196010E949D26FF90EF90DF90CF90C6
:102A9000BF90AF909F908F907F906F905F904F907E
:102AA00008952F923F924F925F926F927F928F92F2
:102AB0009F92AF92BF92CF92DF92EF92FF920F93CD
:102AC0001F93CF93DF9300D000D0CDB7DEB76C015A
:102AD00080910D20882309F46CC000E010E0412CA7
:102AE000512C3201862E912CA12CB12C89829A82F4
:102AF000AB82BC82B801C60193DD5C0118012FEFE7
:102B0000221A320AB101C6018BDD7C01B8016E5F69
:102B10007F4FC60185DDA501BB0C660B770B8A01D3
:102B20009B01000F111F221F331F400F511F621FF7
:102B3000731F8701FF0C220B330B78018901EE0C08
:102B4000FF1C001F111FEE0CFF1C001F111F4A016C
:102B50005B018E189F08A00AB10AAC01990F660BA1
:102B6000770BD501C401840F951FA61FB71F9C01C9
:102B7000AD0169817A818B819C810E94B4290E9478
:102B8000382720E030E040E05FE30E94EC279B0123
:102B9000AC01C301B2010E9435262B013C0180919A
:102BA0000D208101282F30E02216330608F4A2CF31
:102BB00003C0412C512C3201682F70E080E090E07E
:102BC0000E9438279B01AC01C301B2010E949D26DF
:102BD00020E030E048EC52E40E949D262696CDBFCE
:102BE000DEBFDF91CF911F910F91FF90EF90DF90AB
:102BF000CF90BF90AF909F908F907F906F905F909D
:102C00004F903F902F9008953F924F925F926F9216
:102C10007F928F929F92AF92BF92CF92DF92EF926C
:102C2000FF920F931F93CF93DF9300D000D0CDB7C7
:102C3000DEB78C0119821A82C12CD12C76016981F0
:102C40007A81C80175DD4B015C0121E6821A2EEA0A
:102C5000920A2AE0A20AB1082FE782162AE1920618
:102C600026E0A206B10480F40E94382720E030E07C
:102C700040EA50E40E949D269B01AC01C701B601C9
:102C80000E9435266B017C0189819A810196898396
:102C90009A830597A1F619821A82812C912C5401EE
:102CA00069817A81C80144DD2B013C0121E6421A89
:102CB0002EEA520A2AE0620A71082FE742162AE138
:102CC000520626E06206710490F40E943827A7019C
:102CD00096010E9434269B01AC010E94EC279B01C7
:102CE000AC01C501B4010E9435264B015C0189810C
:102CF0009A81019689839A83059791F620E030E0C6
:102D000040E85EE3C501B4010E94EC2769837A8341
:102D10008B839C831D821E82312C412C512C3201CD
:102D20006D817E81C80104DD4B015C0121E6821AC0
:102D30002EEA920A2AE0A20AB1082FE782162AE1B7
:102D4000920626E0A206B10450F50E9438274B01F6
:102D50005C01A70196010E9434260E9405279B0171
:102D6000772324F422273327261B370BB901330F8F
:102D7000880B990B0E9438279B01AC0169817A81ED
:102D80008B819C810E94E82788234CF0A501940147
:102D9000C301B2010E9435262B013C0133948D8181
:102DA0009E8101968D839E83059709F0B9CF3320CC
:102DB00069F0632D70E080E090E00E9436279B016F
:102DC000AC01C301B2010E949D2604C060E070E026
:102DD00080E89FEB2696CDBFDEBFDF91CF911F919C
:102DE0000F91FF90EF90DF90CF90BF90AF909F90AA
:102DF0008F907F906F905F904F903F900895AF922B
:102E0000BF92CF92DF92EF92FF920F931F93CF93D7
:102E1000DF9300D000D0CDB7DEB75C018B013FDD82
:102E200020E030E040E251E40E94EC270E940527B8
:102E300069837A838B839C8341E050E0BE016F5F9E
:102E40007F4FC8011ADCC801DFDE20E030E040E23D
:102E500051E40E949D266B017C0120E030E040E8B7
:102E60005FEB0E9499268823D1F1C0924321D09232
:102E70004421E0924521F0924621C701B601B2DD1E
:102E800060933B2170933C2180933D2190933E21A0
:102E900060913B2170913C2180913D2190913E2198
:102EA00020E030E048EC52E40E94EC270E94052725
:102EB0006D837E8341E050E0BE016B5F7F4FC501B3
:102EC00066DB6091102070911120C501EADD6093EE
:102ED000332170933421809335219093362183E3FD
:102EE00093E1A5E9B3E480933F2190934021A0931F
:102EF0004121B09342212696CDBFDEBFDF91CF9115
:102F00001F910F91FF90EF90DF90CF90BF90AF9007
:102F1000089580916721813081F138F0823009F481
:102F200055C0833009F4FCC07CC06091332170919E
:102F30003421809135219091362120E030E040E429
:102F400050E40E94992688230CF0EAC060913B214E
:102F500070913C2180913D2190913E2120E030E014
:102F600041EE53E40E94E82718160CF0D9C0809176
:102F700067218F5F8093672108956091332170915D
:102F80003421809135219091362120E030E040E4D9
:102F900050E40E949926882384F460913B2170912B
:102FA0003C2180913D2190913E2120E030E041EE96
:102FB00053E40E94992688231CF081E080936621C7
:102FC000809167218F5F80936721089560913321FD
:102FD0007091342180913521909136210E940527EE
:102FE0009B01772324F422273327261B370B23301A
:102FF00031058CF060913B2170913C2180913D2105
:1030000090913E2120E030E040E251E40E94992678
:1030100088230CF085C0809167218F5F80936721A2
:1030200008956091332170913421809135219091E0
:10303000362120E030E040E450E40E94E8271816F2
:1030400014F41092672160913B2170913C21809192
:103050003D2190913E2120E030E041EE53E40E947A
:10306000E82718169CF460913321709134218091E7
:1030700035219091362120E030E040E450E40E9478
:10308000992688231CF481E08093672160913B217D
:1030900070913C2180913D2190913E2120E030E0D3
:1030A00041EE53E40E94992688239CF460913321D9
:1030B00070913421809135219091362120E030E0CB
:1030C00040E450E40E94992688231CF482E0809317
:1030D0006721609133217091342180913521909145
:1030E00036210E9405279B01772324F422273327CA
:1030F000261B370B233031059CF460913B217091E6
:103100003C2180913D2190913E2120E030E040E241
:1031100051E40E94992688231CF483E08093672160
:1031200008958F929F92AF92BF92CF92DF92EF92CB
:10313000FF920F931F93CF93DF937C01C0E0D0E009
:1031400000E010E0BE01C7016BDA080F191F2196DD
:10315000CA30D105B9F760E070E0C70161DAEC016F
:103160006091102070911120C7019BDC6B017C01E4
:10317000BE01DD0F880B990B0E94382720E030E05C
:10318000A9010E94EC2720E030E048EC52E40E94C4
:103190009D264B015C01B801110F880B990B0E9411
:1031A000382720E030E0A9010E94EC2720E030E041
:1031B00048EC52E40E949D269B01AC01C501B4017C
:1031C0000E9435264B015C0120E030E0A901C701D7
:1031D000B6010E94EC279B01AC01C501B4010E941D
:1031E000352620E030E84BEB54E40E9435260E945F
:1031F0000A2760931220709313206091122070911F
:10320000132080E090E00E94362720E030E04AE77B
:1032100054E40E949D2620E030E04AEF53E40E94EF
:10322000EC270E940A276093280970932909DF91EF
:10323000CF911F910F91FF90EF90DF90CF90BF90B3
:10324000AF909F908F90089561E085E0DBDAE0E039
:10325000FAE087E0808384E39CE086A397A381E083
:10326000868308958091432190914421A091452126
:10327000B09146218093242090932520A09326206E
:10328000B093272083E393E1A5E9B3E48093202062
:1032900090932120A0932220B093232008953FD81B
:1032A000609353217093542180935521909356211C
:1032B0000895D8DFF4CF0895E0E0F9E086A197A162
:1032C000885E934080A791A781E08093662108954E
:1032D000E0E0F9E086A197A18855924080A791A7E8
:1032E0001092662108952F923F924F925F926F92B3
:1032F0007F928F929F92AF92BF92CF92DF92EF9286
:10330000FF920F931F93CF93DF93CDB7DEB7E9976B
:10331000CDBFDEBF809147219091482101968093D7
:103320004721909348216091112170911221809141
:103330001321909114212091672129834090152118
:1033400050901621609017217090182180901921BB
:1033500090901A21A0901B21B0901C21C0901D219B
:10336000D0901E21E0901F21F0902021409121213A
:103370005091222148AF59AF20912321309124212F
:1033800040912521509126212A833B834C835D83E4
:1033900020912321309124214091252150912621F3
:1033A0002E833F83488759872091272130912821F8
:1033B0004091292150912A212A873B874C875D879C
:1033C00020912721309128214091292150912A21B3
:1033D0002E873F87488B598B20912B2130912C21B0
:1033E00040912D2150912E212A8B3B8B4C8B5D8B54
:1033F00020912B2130912C2140912D2150912E2173
:103400002E8B3F8B488F598F20912F213091302167
:1034100040913121509132212A8F3B8F4C8F5D8F0B
:1034200020912F2130913021409131215091322132
:103430002E8F3F8F48A359A320912F213091302107
:1034400040913121509132212AA33BA34CA35DA38B
:1034500020913721309138214091392150913A21E2
:103460002EA33FA348A759A720913F213091402187
:1034700040914121509142212AA73BA74CA75DA72B
:103480002091432130914421409145215091462182
:103490002EA73FA748AB59AB20913B2130913C214F
:1034A00040913D2150913E212AAB3BAB4CAB5DABF3
:1034B000009147211091482120904B2130904C21C0
:1034C00040914B2150914C214EAB5FAB0E940527A0
:1034D0007F936F931F9259815F93C301B2010E9442
:1034E00005277F936F93C501B4010E9405277F9341
:1034F0006F93C701B6010E9405277F936F9389AD33
:103500008F9398AD9F936A817B818C819D810E946E
:1035100005279B01220F331F660F771F660F771F4A
:10352000660F771FC901860F971F6AE070E00E943F
:10353000D7299F938F936E817F81888599850E947B
:1035400005277F936F9320E034E244E759E46A85CE
:103550007B858C859D850E94EC270E94052720E4B1
:1035600032E44FE050E00E940C2A9B01772324F4C0
:1035700022273327261B370BC901330FAA0BBB0B9E
:10358000BF93AF939F938F936E857F858889998929
:103590000E9405277F936F9320E034E244E759E4CB
:1035A0006A897B898C899D890E94EC270E94052766
:1035B00020E432E44FE050E00E940C2A9F938F9366
:1035C0007F936F936E897F89888D998D0E940527DF
:1035D0007F936F936A8D7B8D8C8D9D8D0E940527C7
:1035E0000F2EF4E6CF2ED12CE12CF12CF02DA701DB
:1035F00096010E940C2A7F936F936E8D7F8D88A118
:1036000099A10E9405270F2EF0E18F2EF7E29F2E41
:10361000A12CB12CF02DA50194010E940C2AA70128
:1036200096010E940C2A3F932F936AA17BA18CA143
:103630009DA10E940527A50194010E940C2A3F9399
:103640002F936EA17FA188A599A50E9405277F933E
:103650006F9323E333E948E853E46AA57BA58CA57F
:103660009DA50E9434260E9405277F936F936EA527
:103670007FA588A999A90E9405279F938F937F937F
:103680006F936AA97BA98CA99DA90E9405277F93A6
:103690006F931F930F939101ADECBCEC0E94312A04
:1036A0009695879596958795969587959C01220F77
:1036B000331F880F991F880F991F880F991F820F3A
:1036C000931F281A390A3F922F922EA93FA90E94D0
:1036D000312A9695879596958795969587959F9388
:1036E0008F9380910F208F9380910E208F9321EBE9
:1036F00031E23F932F930E94DE2ACDBFDEBF21EB44
:1037000031E23F932F930E94CB2A0F900F90E996BE
:10371000CDBFDEBFDF91CF911F910F91FF90EF9052
:10372000DF90CF90BF90AF909F908F907F906F90E1
:103730005F904F903F902F9008954F925F926F92BD
:103740007F928F929F92AF92BF92CF92DF92EF9231
:10375000FF920F931F93CF93DF93CDB7DEB7A09760
:10376000CDBFDEBFA4E2B0E2FC9111965C90119750
:1037700012966C90129713967C90139714968C90D7
:10378000149715969C9015971696AC9016971796C9
:103790004C90A0E2B0E2EC911196BC901197129679
:1037A000CC9012971396DC9013971496EC90149784
:1037B0001596FC90159716961C9116971796AC9136
:1037C000F9832F2F352D462D572D682D792D8A2DD4
:1037D000942D08E00E94652A2A832F2F352D462D2F
:1037E000572D682D792D8A2D942D00E10E94652A90
:1037F0002B832F2F352D462D572D682D792D8A2D72
:10380000942D08E10E94652A2C832F2F352D462DFB
:10381000572D682D792D8A2D942D00E20E94652A5E
:103820002D832F2F352D462D572D682D792D8A2D3F
:10383000942D08E20E94652A2E832F2F352D462DC8
:10384000572D682D792D8A2D942D00E30E94652A2D
:103850002F832F2F352D462D572D682D792D8A2D0D
:10386000942D08E30E94652A2887E9872E2F3B2D97
:103870004C2D5D2D6E2D7F2D812F9A2F08E00E94FB
:10388000652A2A872E2F3B2D4C2D5D2D6E2D7F2DE9
:10389000812F9A2F00E10E94652A2B872E2F3B2D26
:1038A0004C2D5D2D6E2D7F2D812F9A2F08E10E94CA
:1038B000652A2C872E2F3B2D4C2D5D2D6E2D7F2DB7
:1038C000812F9A2F00E20E94652A2D872E2F3B2DF3
:1038D0004C2D5D2D6E2D7F2D812F9A2F08E20E9499
:1038E000652A2E872E2F3B2D4C2D5D2D6E2D7F2D85
:1038F000812F9A2F00E30E94652A2F872E2F3B2DC0
:103900004C2D5D2D6E2D7F2D812F9A2F08E30E9467
:10391000652A288B80E1E8E2F0E2DE015196019011
:103920000D928A95E1F783E38093CA01FE017196B7
:10393000CE010196AE014F5D5F4F60EC71E02191C9
:10394000DB012C93DC012D91CD01DB0114962C932E
:10395000E417F507A1F7E0ECF1E085E38287108238
:1039600080E1818388ED84BF81E083878785882318
:10397000ECF3A096CDBFDEBFDF91CF911F910F91E9
:10398000FF90EF90DF90CF90BF90AF909F908F907F
:103990007F906F905F904F9008950F931F93CF93F8
:1039A000DF93CDB7DEB7A197CDBFDEBF60913B21DE
:1039B00070913C2180913D2190913E210E940527EC
:1039C000162F072F6091332170913421809135217A
:1039D000909136210E940527262F372F80914D2167
:1039E00090E0019664E670E00E94D72980934D2113
:1039F000A0914721B0914821E0914721F0914821C1
:103A000060914B2170914C2140914B2150914C2160
:103A10009091672109831A83BB83EC837D834E8356
:103A20003F83288789878A879B878BE0FE013196B1
:103A3000DE011C9601900D928A95E1F78BE0E8E398
:103A4000F0E2DE01579601900D928A95E1F783E34B
:103A50008093CA0180E090E0E0ECF1E0A7E1B0E003
:103A6000AC0FBD1FA80FB91F2C912083ACE0B0E0B4
:103A7000AC0FBD1FA80FB91F2C91248301968A306B
:103A8000910561F7E0ECF1E085E38287108280E147
:103A9000818388ED84BF81E0838787858823ECF369
:103AA000A196CDBFDEBFDF91CF911F910F910895F9
:103AB00074DF109265210895CF93DF93C0ECD1E0BD
:103AC00026E02A878883998388ED84BF81E08B87ED
:103AD00066ED74E180E090E00E941E148C81DF911D
:103AE000CF9108952F923F924F925F926F927F9263
:103AF0008F929F92AF92BF92CF92DF92EF92FF92FE
:103B00000F931F93CF93DF93CDB7DEB72797CDBF2A
:103B1000DEBF0E94CD136BEA79E280E090E00E9464
:103B20001E1478948CEB8093400687E08093A2006B
:103B30000E9481126BEA70EB88E290E00E941E14F2
:103B40000E9450120E9429147FDB82E090E1B4DFD2
:103B500089838FE190E1B0DF8A8399818A8198130C
:103B6000D3C189818F3F09F4CFC180E190E1A4DF07
:103B7000182F8FE090E1A0DFB82F212F30E040E038
:103B800050E060E070E080E090E008E30E944A2AA4
:103B9000122FC32EF42EA52FF62FE72FD82EE92EA5
:103BA0002B2F30E040E050E060E070E080E090E0FB
:103BB00000E30E944A2A122BC32AF42A9A2E952A3D
:103BC000AF2EA62ABE2EB72AD82AE92A8EE090E187
:103BD00073DF082F8DE090E16FDF282E8CE090E1FD
:103BE0006BDF382E8BE090E167DF482E8AE090E1B2
:103BF00063DF582E89E090E15FDF682E202F30E0F0
:103C000040E050E060E070E080E090E008E20E9478
:103C10004A2A1629122BC32AF42AA52FA929F62FDE
:103C2000FA29E72FEB29D82AE92A222D30E040E0B3
:103C300050E060E070E080E090E000E20E944A2AFC
:103C4000122BC32AF42AA52BF62BE72BD82AE92A14
:103C5000232D30E040E050E060E070E080E090E054
:103C600008E10E944A2A122BC32AF42AA52BF62B1C
:103C7000E72BD82AE92A242D30E040E050E060E02C
:103C800070E080E090E000E10E944A2A122BC32AF3
:103C9000F42AA52BF62BE72BD82AE92A252D30E08C
:103CA00040E050E060E070E080E090E008E00E94DA
:103CB0004A2A612E622A7C2C732A8F2C842A9A2EFF
:103CC000952AAF2EA62ABE2EB72AD82AE92A89E13C
:103CD00090E1F2DE182F88E190E1EEDE482E212FF0
:103CE00030E040E050E060E070E080E090E008E329
:103CF0000E944A2AC22E532EB42FA52FF62FE72F4B
:103D0000F82E192F242D30E040E050E060E070E004
:103D100080E090E000E30E944A2AC22A532A5F8290
:103D20002B2E242A3A2E352A4F2E462A5E2E572A2B
:103D3000F82A192B87E190E1BFDE082F86E190E198
:103D4000BBDE8B8385E190E1B7DE8C8384E190E17B
:103D5000B3DE8D8383E190E1AFDE8E8382E190E17B
:103D6000ABDEE82FA4E2B0E26C9211967C92119740
:103D700012968C92129713969C9213971496AC926B
:103D800014971596BC9215971696DC92169717966F
:103D9000EC92A0E2B0E2202F30E040E050E060E0A2
:103DA00070E080E090E008E20E944A2ACE2AC22A0F
:103DB000BF80B32AD42ED228E52EE328F62FF4298B
:103DC000E72FE529F82A192B2B8130E040E050E05D
:103DD00060E070E080E090E000E20E944A2AC22A9F
:103DE000B32AD42AE52AF62BE72BF82A192B2C81A3
:103DF00030E040E050E060E070E080E090E008E11A
:103E00000E944A2AC22AB32AD42AE52AF62BE72B93
:103E1000F82A192B2D8130E040E050E060E070E09E
:103E200080E090E000E10E944A2AC22AB32AD42A04
:103E3000E52AF62BE72BF82A192B2E8130E040E0FB
:103E400050E060E070E080E090E008E00E944A2AE4
:103E50002C292C933B2911963C9311974D291296AE
:103E60004C9312975E2913965C9313976F2B1496BD
:103E70006C9314977E2B15967C9315978F29169625
:103E80008C931697912B17969C9381E090E114DE0A
:103E9000182F80E090E110DE612F70E0762F66270A
:103EA000682B072E000C880B990BE2D760933B21FF
:103EB00070933C2180933D2190933E2187E090E1D7
:103EC000FBDD182F86E090E1F7DD212F30E0322F67
:103ED0002227282B20934B2130934C2184E090E122
:103EE000EBDD182F83E090E1E7DD212F30E0322F6A
:103EF0002227282B209347213093482185E090E109
:103F0000DBDD8093672119C00E944F146093242049
:103F100070932520809326209093272083E393E1BC
:103F2000A5E9B3E48093202090932120A093222040
:103F3000B09323201092672100DC0E9489172796F6
:103F4000CDBFDEBFDF91CF911F910F91FF90EF901A
:103F5000DF90CF90BF90AF909F908F907F906F90A9
:103F60005F904F903F902F90089583E38093CA0114
:103F700080E0E0ECF1E09FEF808394838F5F8032FC
:103F8000D9F7E0ECF1E080E3828788ED84BF81E03F
:103F9000838787858823ECF30895E7DF8FB7F8944C
:103FA00098ED94BF91E0909379008FBF089590E0D1
:103FB000FC01E156F109E331F10598F48827E2505C
:103FC000FF4F8F4F0C94282AE8CF089572C90895A7
:103FD00049C9089564C908956FC9089579C90895B4
:103FE00082C90895CF93DF93CDB7DEB7C856D10904
:103FF000CDBFDEBF77DDE0E6F6E0808188608083BC
:1040000084818860848314E1BE016F5F7F4FFB0170
:10401000812F11928A95E9F74AE050E0CE0145964A
:104020000E940613BE01635E7F4F88E2FB0111927E
:104030008A95E9F74AE050E0CE018B5B9F4F0E94E2
:104040008E13BE01635B7F4FFB0111921A95E9F756
:104050004AE050E0CE018F599F4F0E94061300E0C6
:1040600010E0BE016B5B7F4FCE0145960E94FF16AC
:104070000E94891780916721813031F0A8F1823048
:1040800039F0833059F12EC011112EC011E02CC02F
:10409000111101C011E060913B2170913C21809190
:1040A0003D2190913E2120E030E041EE53E4DCD50B
:1040B000ACD69B01772324F422273327261B370B0A
:1040C0002A30310514F4F8D80FC080916621882376
:1040D00059F0CE018F599F4F24D806C0011104C05A
:1040E00001E002C00E94891780916521882319F0A0
:1040F000DFDC1092652180916421882339F0809162
:10410000572155DF10925721109264218091492147
:1041100090914A2101968093492190934A21809160
:104120004B2190914C21892B09F49BCF80914921FF
:1041300090914A2160914B2170914C210E94C3299A
:1041400060931020709311208CCF1F920F920FB6A6
:104150000F92112408B60F9218BE09B60F9219BE1D
:104160000AB60F921ABE0BB60F921BBE2F923F9249
:104170004F925F926F927F928F929F92AF92BF9277
:10418000CF92DF92EF92FF920F931F932F933F9363
:104190004F935F936F937F938F939F93AF93BF934F
:1041A000EF93FF93CF93DF93CDB7DEB7E997CDBF02
:1041B000DEBF80914B2190914C21019680934B2141
:1041C00090934C21809147219091482101968093B2
:1041D0004721909348216091112170911221809183
:1041E000132190911421209167212983409015215A
:1041F00050901621609017217090182180901921FD
:1042000090901A21A0901B21B0901C21C0901D21DC
:10421000D0901E21E0901F21F0902021409121217B
:104220005091222148AF59AF209123213091242170
:1042300040912521509126212A833B834C835D8325
:104240002091232130912421409125215091262134
:104250002E833F8348875987209127213091282139
:104260004091292150912A212A873B874C875D87DD
:1042700020912721309128214091292150912A21F4
:104280002E873F87488B598B20912B2130912C21F1
:1042900040912D2150912E212A8B3B8B4C8B5D8B95
:1042A00020912B2130912C2140912D2150912E21B4
:1042B0002E8B3F8B488F598F20912F2130913021A9
:1042C00040913121509132212A8F3B8F4C8F5D8F4D
:1042D00020912F2130913021409131215091322174
:1042E0002E8F3F8F48A359A320912F213091302149
:1042F00040913121509132212AA33BA34CA35DA3CD
:1043000020913721309138214091392150913A2123
:104310002EA33FA348A759A720913F2130914021C8
:1043200040914121509142212AA73BA74CA75DA76C
:1043300020914321309144214091452150914621C3
:104340002EA73FA748AB59AB20913B2130913C2190
:1043500040913D2150913E212AAB3BAB4CAB5DAB34
:10436000009147211091482120904B2130904C2101
:1043700040914B2150914C214EAB5FAB46D57F9382
:104380006F931F9259815F93C301B2013ED57F9312
:104390006F93C501B40139D57F936F93C701B601FF
:1043A00034D57F936F9389AD8F9398AD9F936A8136
:1043B0007B818C819D8129D59B01220F331F660F44
:1043C000771F660F771F660F771FC901860F971F2C
:1043D0006AE070E0ECD79F938F936E817F81888530
:1043E000998513D57F936F9320E034E244E759E435
:1043F0006A857B858C859D85EFD507D520E432E4E1
:104400004FE050E00E940C2A9B01772324F42227DE
:104410003327261B370BC901330FAA0BBB0BBF93E6
:10442000AF939F938F936E857F8588899989EDD40B
:104430007F936F9320E034E244E759E46A897B89F3
:104440008C899D89C9D5E1D420E432E44FE050E065
:10445000E3D79F938F937F936F936E897F89888D26
:10446000998DD3D47F936F936A8D7B8D8C8D9D8D29
:10447000CCD40F2EF4E6CF2ED12CE12CF12CF02D44
:10448000A7019601C9D77F936F936E8D7F8D88A109
:1044900099A1BBD40F2EF0E18F2EF7E29F2EA12C15
:1044A000B12CF02DA5019401B7D7A7019601B4D77F
:1044B0003F932F936AA17BA18CA19DA1A6D4A501B6
:1044C0009401AAD73F932F936EA17FA188A599A5A8
:1044D0009CD47F936F9323E333E948E853E46AA5C0
:1044E0007BA58CA59DA5C0D390D47F936F936EA51B
:1044F0007FA588A999A989D49F938F937F936F9360
:104500006AA97BA98CA99DA980D47F936F931F93DF
:104510000F939101ADECBCECA4D796958795969539
:104520008795969587959C01220F331F880F991FB9
:10453000880F991F880F991F820F931F281A390A15
:104540003F922F922EA93FA98CD796958795969545
:104550008795969587959F938F9380910F208F9342
:1045600080910E208F9321EB31E23F932F930E9495
:10457000DE2ACDBFDEBF21EB31E23F932F930E94B5
:10458000CB2A81E0809365210F900F90E996CDBFF3
:10459000DEBFDF91CF91FF91EF91BF91AF919F91DE
:1045A0008F917F916F915F914F913F912F911F91CB
:1045B0000F91FF90EF90DF90CF90BF90AF909F90C2
:1045C0008F907F906F905F904F903F902F900F90C3
:1045D0000BBE0F900ABE0F9009BE0F9008BE0F9041
:1045E0000FBE0F901F9018951F920F920FB60F924B
:1045F000112408B60F9218BE09B60F9219BE0BB659
:104600000F921BBE2F933F934F935F936F937F93B4
:104610008F939F93AF93BF93EF93FF9380EA98E0BC
:104620000E94150F8093572181E080936421FF91B0
:10463000EF91BF91AF919F918F917F916F915F911A
:104640004F913F912F910F900BBE0F9009BE0F908D
:1046500008BE0F900FBE0F901F9018951F920F92DB
:104660000FB60F92112408B60F9218BE09B60F921A
:1046700019BE0AB60F921ABE0BB60F921BBE8F92CE
:104680009F92AF92BF92CF92DF92EF92FF921F93D1
:104690002F933F934F935F936F937F938F939F934A
:1046A000AF93BF93EF93FF93CF93DF9300D000D0EE
:1046B000CDB7DEB780EB99E00E94150F182F84323A
:1046C00051F481E080935221109251211092502197
:1046D00010924F215AC28A3229F410924F2110921F
:1046E000522153C28C3209F050C2EDE9F1E280E26E
:1046F00080838181803209F077C280E380939D219D
:1047000073C280919D218E3209F0A3C1A9C180910D
:104710009D218E3209F0EFC0F5C080919D218E322F
:1047200009F052C058C091919E3229F401C080E036
:1047300080934E2103C08F5F8F30A9F7E0914E2107
:10474000F0E0E356FE4D80E2808320914E212F5F02
:104750002F30C8F4822F90E0FC01E356FE4D3081EB
:10476000303289F040E208C0822F90E0FC01E3562D
:10477000FE4D3081303239F0FC01E356FE4D40836E
:104780002F5F2F3089F7CE0101969F938F9385E598
:1047900090E29F938F938DE991E29F938F9336D709
:1047A00069817A818B819C8163D360932F2170937F
:1047B000302180933121909332210F900F900F90F0
:1047C0000F900F900F90C3C1EEE9F1E281E091915B
:1047D0009E3229F401C080E080934E2103C08F5F98
:1047E0008F30A9F7E0914E21F0E0E356FE4D80E2D4
:1047F000808320914E212F5F2F3008F5822F90E08B
:10480000FC01E356FE4D30813032C9F050E208C061
:10481000822F90E0FC01E356FE4D3081303279F07A
:1048200040914E21FC01E41BF109E555FE4D30831A
:10483000FC01E356FE4D50832F5F2F3049F78091E6
:10484000AC21803219F480E38093AC21CE01019633
:104850009F938F9385E590E29F938F938DE991E2EB
:104860009F938F93D3D6CE0105969F938F9389E51F
:1048700090E29F938F938CEA91E29F938F93C6D699
:1048800089809A80AB80BC806D817E81072E000C70
:10489000880B990BEDD220E030E44CE156E44DD288
:1048A0006B017C01C501B40124E630E040E050E03A
:1048B000B3D549015A01DCD29B01AC01C701B60155
:1048C000D4D120E030E040E752E437D26B017C01E4
:1048D000C501B401CDD29B01AC01C701B601C5D160
:1048E00060932B2170932C2180932D2190932E2166
:1048F000CDBFDEBF2CC1EEE9F1E281E091919E32A5
:1049000029F401C080E080934E2103C08F5F8F3077
:10491000A9F7E0914E21F0E0E356FE4D80E280835E
:1049200020914E212F5F2F3008F5822F90E0FC015F
:10493000E356FE4D30813032C9F050E208C0822F7C
:1049400090E0FC01E356FE4D3081303279F0409129
:104950004E21FC01E41BF109E555FE4D3083FC01BD
:10496000E356FE4D50832F5F2F3049F78091AC21E5
:10497000803219F480E38093AC21CE0101969F939D
:104980008F9385E590E29F938F938DE991E29F93BA
:104990008F933CD6CE0105969F938F9389E590E245
:1049A0009F938F938CEA91E29F938F932FD6898068
:1049B0009A80AB80BC806D817E81072E000C880BB5
:1049C000990B56D220E030E44CE156E4B6D16B01AD
:1049D0007C01C501B40124E630E040E050E01CD584
:1049E00049015A0145D29B01AC01C701B6013DD135
:1049F00020E030E040E752E4A0D16B017C01C5012A
:104A0000B40136D29B01AC01C701B6012ED1DC0145
:104A1000CB01B0588093272190932821A09329217E
:104A2000B0932A21CDBFDEBF92C081E291E29F9375
:104A30008F9389E590E29F938F938DE991E29F9305
:104A40008F93E4D50F900F900F900F900F900F90D1
:104A50007EC0EEE9F1E281E091919E3229F401C03D
:104A600080E080934E2103C08F5F8F30A9F7E091E3
:104A70004E21F0E0E356FE4D80E2808320914E21EE
:104A80002F5F2F3008F5822F90E0FC01E356FE4D9A
:104A900030813032C9F050E208C0822F90E0FC0132
:104AA000E356FE4D3081303279F040914E21FC01C9
:104AB000E41BF109E555FE4D3083FC01E356FE4D44
:104AC00050832F5F2F3049F78091AC21803219F449
:104AD00080E38093AC21CE0101969F938F9385E56F
:104AE00090E29F938F938DE991E29F938F938ED560
:104AF000CE0105969F938F9389E590E29F938F93C4
:104B00008CEA91E29F938F9381D569817A818B8121
:104B10009C81AED16B017C016D817E81072E000CE2
:104B2000880B990BA5D120E030E040E251E405D19B
:104B30009B01AC01C701B60198D06093232170930B
:104B400024218093252190932621CDBFDEBF809123
:104B500052218823D1F010924E2180914F218F5FF6
:104B600080934F2110925021EDE9F1E22CEA31E2DD
:104B700080E281932E173F07E1F7ECEAF1E280E251
:104B800080838183828383838483809152218823DD
:104B900009F443C080915121833019F0843031F001
:104BA00009C0173439F01092522104C0173411F0A3
:104BB00010925221E0915021F0E0E356FE4D108317
:104BC000809150218F5F80935021809151218F5F80
:104BD0008093512122C080919D218E3209F4A7CD6E
:104BE000EEE9F1E281E09FCD19821A821B821C82DC
:104BF0001D821E8280914F21843009F488CD30F4CB
:104C0000813049F3823009F488CDA1CF873009F48F
:104C10000CCF893009F475CD9ACF2696CDBFDEBF73
:104C2000DF91CF91FF91EF91BF91AF919F918F91C4
:104C30007F916F915F914F913F912F911F91FF90C5
:104C4000EF90DF90CF90BF90AF909F908F900F909C
:104C50000BBE0F900ABE0F9009BE0F9008BE0F90BA
:104C60000FBE0F901F9018955058BB27AA270ED043
:104C700075C166D130F06BD120F031F49F3F11F453
:104C80001EF45BC10EF4E095E7FB51C1E92F77D12B
:104C900080F3BA17620773078407950718F071F459
:104CA0009EF58FC10EF4E0950B2EBA2FA02D0B01AF
:104CB000B90190010C01CA01A0011124FF27591B61
:104CC00099F0593F50F4503E68F11A16F040A22F67
:104CD000232F342F4427585FF3CF469537952795D8
:104CE000A795F0405395C9F77EF41F16BA0B620BD7
:104CF000730B840BBAF09150A1F0FF0FBB1F661F1E
:104D0000771F881FC2F70EC0BA0F621F731F841F60
:104D100048F4879577956795B795F7959E3F08F086
:104D2000B3CF9395880F08F09927EE0F9795879545
:104D30000895D9D008F481E008950CD00FC107D1AF
:104D400040F0FED030F021F45F3F19F0F0C0511177
:104D500039C1F3C014D198F39923C9F35523B1F3A2
:104D6000951B550BBB27AA2762177307840738F0DA
:104D70009F5F5F4F220F331F441FAA1FA9F333D039
:104D80000E2E3AF0E0E830D091505040E695001CED
:104D9000CAF729D0FE2F27D0660F771F881FBB1FA9
:104DA000261737074807AB07B0E809F0BB0B802D83
:104DB000BF01FF2793585F4F2AF09E3F510568F0CF
:104DC000B6C000C15F3FECF3983EDCF38695779563
:104DD0006795B795F7959F5FC9F7880F911D9695D1
:104DE000879597F90895E1E0660F771F881FBB1F2D
:104DF000621773078407BA0720F0621B730B840BDA
:104E0000BA0BEE1F88F7E095089504D06894B111AD
:104E1000D9C00895BCD088F09F5790F0B92F99273A
:104E2000B751A0F0D1F0660F771F881F991F1AF0B5
:104E3000BA95C9F712C0B13081F0C3D0B1E008957E
:104E4000C0C0672F782F8827B85F39F0B93FCCF3FF
:104E5000869577956795B395D9F73EF490958095AB
:104E6000709561957F4F8F4F9F4F0895E89409C0CB
:104E700097FB3EF490958095709561957F4F8F4F8D
:104E80009F4F9923A9F0F92F96E9BB279395F695A3
:104E9000879577956795B795F111F8CFFAF4BB0F21
:104EA00011F460FF1BC06F5F7F4F8F4F9F4F16C085
:104EB000882311F096E911C0772321F09EE8872F0F
:104EC000762F05C0662371F096E8862F70E060E0CB
:104ED0002AF09A95660F771F881FDAF7880F969544
:104EE000879597F90895990F0008550FAA0BE0E8E8
:104EF000FEEF16161706E807F907C0F0121613069C
:104F0000E407F50798F0621B730B840B950B39F4DB
:104F10000A2661F0232B242B252B21F408950A2641
:104F200009F4A140A6958FEF811D811D089597F981
:104F30009F6780E870E060E008959FEF80EC08953F
:104F400000240A9416161706180609060895002468
:104F50000A9412161306140605060895092E0394E2
:104F6000000C11F4882352F0BB0F40F4BF2B11F456
:104F700060FF04C06F5F7F4F8F4F9F4F089557FDB5
:104F80009058440F551F59F05F3F71F04795880FB7
:104F900097FB991F61F09F3F79F08795089512164E
:104FA00013061406551FF2CF4695F1DF08C01616FA
:104FB00017061806991FF1CF8695710561050894AB
:104FC0000895E894BB2766277727CB0197F90895C2
:104FD0008ADF08F48FEF08950BD0C0CFB1DF28F03F
:104FE000B6DF18F0952309F0A2CFA7CF1124EACF9E
:104FF000C6DFA0F3959FD1F3950F50E0551F629F38
:10500000F001729FBB27F00DB11D639FAA27F00D21
:10501000B11DAA1F649F6627B00DA11D661F829F48
:105020002227B00DA11D621F739FB00DA11D621F2D
:10503000839FA00D611D221F749F3327A00D611D4A
:10504000231F849F600D211D822F762F6A2F11242C
:105050009F5750408AF0E1F088234AF0EE0FFF1F7F
:10506000BB1F661F771F881F91505040A9F79E3FB6
:10507000510570F05CCFA6CF5F3FECF3983EDCF3B8
:10508000869577956795B795F795E7959F5FC1F7F3
:10509000FE2B880F911D9695879597F90895FA0133
:1050A000EE0FFF1F30962105310599F1611571054D
:1050B00061F48038BFE39B0749F16894903881051B
:1050C00061F08038BFEF9B0741F0992342F5FF3F25
:1050D000E1053105210511F1E8940894E795D9011E
:1050E000AA2329F4AB2FBE2FF85FD0F310C0FF5FC7
:1050F00070F4A695E0F7F73950F019F0FF3A38F45C
:105100009F779F930CD00F9007FC905808953EF026
:1051100014CF60E070E080E89FE308954FE79F7749
:105120005F934F933F932F939ED02F913F914F9139
:105130005F9152DF05C019F40EF0F9CE42CFFDCEDB
:1051400026DFC8F39638C0F707F80F92E8942BE3F0
:105150003AEA48EB5FE74EDF0F920F920F924DB79E
:105160005EB70F92C0D0E2E2F2E016D04F915F91AD
:10517000EF91FF91E595EE1FFF1F49F0FE57E068A4
:105180004427EE0F441FFA95E1F74195550B32D0B5
:105190000F9007FE26C00895DF93CF931F930F93C0
:1051A000FF92EF92DF927B018C01689405C0DA2EAA
:1051B000EF011EDFFE01E894A591259135914591FF
:1051C0005591AEF3EF0162DDFE019701A801DA947B
:1051D00079F7DF90EF90FF900F911F91CF91DF91C2
:1051E00008959B01AC0160E070E080E89FE3A5CDED
:1051F0009ECEACC0CCDEE8F39923D9F3940F511DB9
:10520000BBF39150504094F059F0882332F0660F70
:10521000771F881F91505040C1F79E3F510544F7BA
:10522000880F911D9695879597F908955F3FACF08B
:10523000983E9CF0BB27869577956795B79508F4BF
:10524000B1609395C1F7BB0F58F711F460FFE8CF39
:105250006F5F7F4F8F4F9F4FE3CFB4CE0EF076C07E
:105260006CCE689464CE93DEC8F39923D1F3C6F371
:10527000DF93CF931F930F93FF92C92FDD278823CE
:105280002AF02197660F771F881FDAF720E030E0B9
:1052900040E85FEB9FE3883920F0803E30F02196B4
:1052A0008F77E3DCEAE4F2E003C0DFDCE7E7F2E07B
:1052B00073DF8B01BE01EC01FB2E6F5771097595F1
:1052C000771F880B990BD4DD28E132E741E35FE3D8
:1052D0008FDEAF2D9801AE01FF900F911F91CF91FE
:1052E000DF91D4DC3BCEFA01DC01AA0FBB1F9B018E
:1052F000AC01BF5728F422273327442750781FC01A
:10530000B75188F4AB2F0024469537952795011C9B
:10531000A395D2F3002069F0220F331F441FB395E9
:10532000DAF30DD0A1CC61307105A0E88A07B94647
:1053300030F49B01AC016627772788279078309658
:1053400021F0208331834283538308959F3F31F0BE
:10535000915020F4879577956795B795880F911DA3
:105360009695879597F90895DB018F939F9388D041
:10537000BF91AF91A29F800D911DA39F900DB29FF1
:10538000900D11240895AA1BBB1B51E107C0AA1F51
:10539000BB1FA617B70710F0A61BB70B881F991FD6
:1053A0005A95A9F780959095BC01CD01089597FB7A
:1053B000072E16F4009406D077FD08D0E4DF07FC32
:1053C00005D03EF4909581959F4F08957095619515
:1053D0007F4F0895A1E21A2EAA1BBB1BFD010DC031
:1053E000AA1FBB1FEE1FFF1FA217B307E407F50795
:1053F00020F0A21BB30BE40BF50B661F771F881F71
:10540000991F1A9469F760957095809590959B0106
:10541000AC01BD01CF010895052E97FB16F4009451
:105420000FD057FD05D0D6DF07FC02D046F408C0E8
:1054300050954095309521953F4F4F4F5F4F0895C0
:1054400090958095709561957F4F8F4F9F4F0895F0
:10545000EE0FFF1F881F8BBF0790F691E02D1BBE3C
:105460001994A29FB001B39FC001A39F700D811D2D
:105470001124911DB29F700D811D1124911D08955D
:10548000F0DFA59F900DB49F900DA49F800D911DFE
:10549000112408950F93083090F0982F872F762FBE
:1054A000652F542F432F322F22270850F4CF220F7D
:1054B000331F441F551F661F771F881F991F0A95AA
:1054C000B2F70F91089597FB10F8169400080F9308
:1054D000083098F00850232F342F452F562F672F70
:1054E000782F892F902DF4CF0594979587957795F0
:1054F000679557954795379527950A95AAF70F9180
:1055000008950F931F93CF93DF93009731F46115A4
:10551000710519F480E090E039C08B01EC016EE078
:1055200070E081E090E047D5FC01892B99F380E899
:1055300083830115110571F00287138781E8838346
:105540008091152290911622892B21F4E093152247
:10555000F09316222097C9F0C087D187838182609B
:1055600083838091172290911822892B71F4E09304
:105570001722F09318228091192290911A22892BD8
:1055800021F4E0931922F0931A22CF01DF91CF91F9
:105590001F910F910895CF93DF93CDB7DEB7AE0182
:1055A0004A5F5F4FFA0161917191AF0180911722BB
:1055B0009091182246D0DF91CF9108950F931F93B9
:1055C000CF93DF93CDB7DEB72E97CDBFDEBF0E8969
:1055D0001F8986E08C8309831A838FEF9FE78D8371
:1055E0009E83AE01465E5F4F688D798DCE01019638
:1055F00028D0EF81F885E00FF11F10822E96CDBFE5
:10560000DEBFDF91CF911F910F910895CF93DF936C
:10561000CDB7DEB72E97CDBFDEBF85E08C838C89FA
:105620009D8989839A83AE01485E5F4F6E897F8929
:10563000CE010196A9D32E96CDBFDEBFDF91CF91CB
:1056400008952F923F924F925F926F927F928F9226
:105650009F92AF92BF92CF92DF92EF92FF920F9301
:105660001F93CF93DF93CDB7DEB72B97CDBFDEBFB0
:105670006C017B018A01FC0116821782838181FF04
:10568000BFC1CE0101963C01F6019381F70193FD64
:10569000859193FF81917F01882309F4ADC1853203
:1056A00039F493FD859193FF81917F01853221F437
:1056B000B60190E029D6E8CF912C212C312CFFE1C6
:1056C000F315D8F08B3279F038F4803279F08332E8
:1056D000A1F4232D20611DC08D3261F0803369F467
:1056E000232D216016C0832D8260382EE32DE460C7
:1056F0003E2E2AC0F32DF8601DC037FC2DC020EDD2
:10570000280F2A3040F08E32B9F436FC75C1232DB3
:105710002064322E19C036FE06C08AE0989E200D05
:105720001124922E11C0EAE02E9E200D1124222E6B
:10573000F32DF0623F2E08C08C3621F4832D806853
:10574000382E02C0883641F4F70193FD859193FF0E
:1057500081917F018111B3CF982F9F7D9554933014
:1057600028F40C5F1F4F9FE399830DC0833631F0FF
:10577000833771F0833509F055C020C0F80180816E
:1057800089830E5F1F4F88248394912C530112C08C
:105790002801F2E04F0E511CF801A080B18036FEC6
:1057A00003C0692D70E002C06FEF7FEFC50163D5C4
:1057B0004C018201F32DFF773F2E15C0280122E016
:1057C000420E511CF801A080B18036FE03C0692D45
:1057D00070E002C06FEF7FEFC5013BD54C01F32DA8
:1057E000F0683F2E820133FC19C0822D90E08816AC
:1057F0009906A0F4B60180E290E086D52A94F5CF10
:10580000F50137FC859137FE81915F01B60190E08B
:105810007BD521102A9421E0821A910881149104E9
:1058200079F7E1C0843611F0893639F5F80137FE91
:1058300007C060817181828193810C5F1F4F08C016
:1058400060817181072E000C880B990B0E5F1F4F32
:10585000F32DFF763F2E97FF09C0909580957095A8
:1058600061957F4F8F4F9F4FF0683F2E2AE030E0C9
:10587000A3019FD5882E861844C0853731F4232D87
:105880002F7EB22E2AE030E025C0932D997FB92ECD
:105890008F36C1F018F4883579F0AEC0803719F032
:1058A000883721F0A9C0E92FE061BE2EB4FE0DC0FB
:1058B000FB2DF460BF2E09C034FE0AC0292F2660DC
:1058C000B22E06C028E030E005C020E130E002C082
:1058D00020E132E0F801B7FE07C06081718182816A
:1058E00093810C5F1F4F06C06081718180E090E062
:1058F0000E5F1F4FA3015DD5882E8618FB2DFF7705
:105900003F2E36FE0DC0232D2E7FA22E891458F473
:1059100034FE0BC032FC09C0832D8E7EA82E05C03C
:10592000B82CA32C03C0B82C01C0B92CA4FE0FC006
:10593000FE01E80DF11D8081803321F49A2D997EBE
:10594000A92E09C0A2FE06C0B394B39404C08A2D48
:10595000867809F0B394A3FC10C0A0FE06C0B21470
:1059600080F4280C922C9B180DC0B21458F4B60188
:1059700080E290E0C9D4B394F8CFB21418F42B1895
:1059800002C0982C212CA4FE0FC0B60180E390E049
:10599000BBD4A2FE16C0A1FC03C088E790E002C001
:1059A00088E590E0B6010CC08A2D867851F0A1FE02
:1059B00002C08BE201C080E2A7FC8DE2B60190E05C
:1059C000A3D4891430F4B60180E390E09DD49A9476
:1059D000F8CF8A94F301E80DF11D8081B60190E0C3
:1059E00093D48110F6CF222009F44ECEB60180E286
:1059F00090E08AD42A94F7CFF6018681978102C07D
:105A00008FEF9FEF2B96CDBFDEBFDF91CF911F9120
:105A10000F91FF90EF90DF90CF90BF90AF909F904D
:105A20008F907F906F905F904F903F902F90089550
:105A300020FD09C0FC0123FD05C022FF02C07383C5
:105A4000628351834083089544FD17C046FD17C00B
:105A5000AB01BC01DA01FB01AA0FBB1FEE1FFF1F48
:105A60001094D1F74A0F5B1F6E1F7F1FCB01BA0145
:105A7000660F771F881F991F09C033E001C034E00B
:105A8000660F771F881F991F3150D1F7620F711D64
:105A9000811D911D08950F931F93CF93DF938C0168
:105AA000C801F4D3EC0197FD06C0C0D3892BC1F720
:105AB000B801CE0165D4CE01DF91CF911F910F9136
:105AC00008958F929F92AF92BF92EF92FF920F93A1
:105AD0001F93CF93DF938C01D62F7A01B22ED6D3AA
