:1000000057C100007BC1000079C1000077C100002A
:1000100075C1000073C1000071C100006FC1000014
:100020006DC100006BC1000069C1000067C1000024
:1000300065C100000C941E0AF2C3000028C4000031
:100040005EC4000094C40000CAC4000000C50000E3
:1000500036C500006CC50000A2C50000D8C5000070
:100060004DC100004BC1000049C1000047C1000064
:1000700045C1000043C1000041C100003FC1000074
:100080003DC100003BC1000039C1000037C1000084
:1000900035C1000033C1000031C100002FC1000094
:1000A0002DC100002BC1000029C1000027C10000A4
:1000B00025C1000023C100000C94500A0C94BE2AF4
:1000C0000C946F080C94A7080C94DF080C94170983
:1000D0000C944F0913C1000011C100000FC10000B2
:1000E0000DC100000BC100000C94DD2A07C1000007
:1000F00005C1000003C1000001C10000FFC00000F5
:10010000FDC00000FBC00000F9C00000F7C0000007
:1001100021C1000065C10000A9C100008CC200001F
:10012000C7C2000002C300003DC30000E7C00000DA
:10013000E5C00000A4C50000DAC5000010C600003C
:1001400046C600007CC60000B2C60000E8C600003B
:100150001EC7000054C700008AC70000CFC00000BF
:10016000CDC00000CBC00000C9C000000C94172B0C
:10017000C5C00000C3C00000C1C00000BFC0000077
:10018000BDC00000BBC00000B9C00000B7C0000087
:10019000B5C00000B3C00000B1C00000AFC0000097
:1001A000ADC00000ABC00000A9C00000A7C00000A7
:1001B000A5C00000A3C00000A1C000009FC00000B7
:1001C0009DC000009BC0000099C0000097C00000C7
:1001D00095C0000093C0000091C000008FC00000D7
:1001E0008DC000008BC0000089C0000087C00000E7
:1001F00085C0000083C0000081C0000090298D29C7
:100200008A2996298729852998299829982998291A
:1002100098299829982998299829982998299829D6
:10022000932908000000BE922449123EABAAAA2AD4
:10023000BECDCCCC4C3E00000080BEABAAAAAA3EEC
:1002400000000000BF000000803F00000000000828
:100250004178D3BB4387D1133D190E3CC3BD4282C5
:10026000AD2B3E68EC8276BED98FE1A93E4C80EF83
:10027000FFBE01C4FF7F3F0000000000076342365D
:10028000B79BD8A71A39685618AEBAAB558C1D3C27
:10029000B7CC5763BD6DEDFD753EF6177231BF00EB
:1002A0000000803F6364696E6F70737578585B00FF
:1002B00011241FBECFEFCDBFDFE3DEBF00E00CBFD8
:1002C00018BE19BE1ABE1BBE11E2A0E0B0E2E0EDFE
:1002D000F6E700E00BBF02C007900D92AC3AB10701
:1002E000D9F71BBE23E2ACEAB1E201C01D92A730F0
:1002F000B207E1F70E9499290C94663B81CECF9317
:10030000DF931F92CDB7DEB7809152229091532296
:10031000E0914E22F0914F22BE016F5F7F4F199501
:100320008981082E000C990B0F90DF91CF910895D1
:10033000682F8091522290915322E0915022F091A7
:100340005122199599231CF081E090E008958FEFD8
:100350009FEF08951F920F920FB60F92112408B6C7
:100360000F9218BE09B60F9219BE0BB60F921BBEA4
:100370002F933F934F935F936F937F938F939F93AD
:10038000AF93BF93EF93FF93E091AD21F091AE2136
:10039000309779F08091870384FF06C040E060E0E9
:1003A00080E893E0199505C040E860E080E893E0BC
:1003B0001995FF91EF91BF91AF919F918F917F918F
:1003C0006F915F914F913F912F910F900BBE0F90C6
:1003D00009BE0F9008BE0F900FBE0F901F9018958A
:1003E0001F920F920FB60F92112408B60F9218BEEB
:1003F00009B60F9219BE0BB60F921BBE2F933F93F7
:100400004F935F936F937F938F939F93AF93BF931C
:10041000EF93FF93E091AD21F091AE21309779F009
:100420008091870385FF06C040E061E080E893E0AB
:10043000199505C040E861E080E893E01995FF91C7
:10044000EF91BF91AF919F918F917F916F915F914C
:100450004F913F912F910F900BBE0F9009BE0F90BF
:1004600008BE0F900FBE0F901F9018951F920F920D
:100470000FB60F92112408B60F9218BE09B60F924C
:1004800019BE0BB60F921BBE2F933F934F935F93F2
:100490006F937F938F939F93AF93BF93EF93FF934C
:1004A000E091AD21F091AE21309739F04091870372
:1004B000407C60E080E893E01995FF91EF91BF9157
:1004C000AF919F918F917F916F915F914F913F91EC
:1004D0002F910F900BBE0F9009BE0F9008BE0F908A
:1004E0000FBE0F901F901895CF92DF92EF92FF9260
:1004F0000F931F93CF93DF931F92CDB7DEB72FB724
:100500002983F894C980803823E09207D9F47A01CE
:10051000D62E8C018091AC21811104C061E081E074
:100520000E946A178091AC218F5F8093AC21F70104
:100530008281F8018583F7018381F8018683DD20BC
:1005400019F00BC0CFBE1DC0F7018181F801828375
:10055000F7018081F801808308C0F7018181F801EB
:100560008383F7018081F80181838091AC218150E0
:100570008093AC21811104C061E081E00E9480176A
:10058000CFBE0F90DF91CF911F910F91FF90EF9011
:10059000DF90CF900895EF92FF920F931F93CF9328
:1005A000DF931F921F92CDB7DEB72FB72A83F8943F
:1005B000EA80803823E0920709F5F62E8C018091BD
:1005C000AC21811104C061E081E00E946A17809132
:1005D000AC218F5F8093AC21809149228F3F09F439
:1005E000FFCF8FB78983F8949981E8E4F2E28181A3
:1005F0008F5F81839FBFFF2019F007C0EFBE0AC045
:10060000F80180818160808304C0F801818181606C
:100610008183EFBE0F900F90DF91CF911F910F91CB
:10062000FF90EF9008958038934021F46093AD21BE
:100630007093AE2108951F920F920FB60F9211245E
:1006400008B60F9218BE09B60F9219BE0BB60F92DC
:100650001BBE2F933F934F935F936F937F938F9323
:100660009F93AF93BF93EF93FF93409124025091D8
:100670002502E0915422F091552261E080E092E061
:100680001995FF91EF91BF91AF919F918F917F91BC
:100690006F915F914F913F912F910F900BBE0F90F3
:1006A00009BE0F9008BE0F900FBE0F901F901895B7
:1006B0001F920F920FB60F92112408B60F9218BE18
:1006C00009B60F9219BE0BB60F921BBE2F933F9324
:1006D0004F935F936F937F938F939F93AF93BF934A
:1006E000EF93FF9340912C0250912D02E091542200
:1006F000F091552262E080E092E01995FF91EF9130
:10070000BF91AF919F918F917F916F915F914F9129
:100710003F912F910F900BBE0F9009BE0F9008BE16
:100720000F900FBE0F901F9018951F920F920FB64B
:100730000F92112408B60F9218BE09B60F9219BE77
:100740000BB60F921BBE2F933F934F935F936F9304
:100750007F938F939F93AF93BF93EF93FF934091BA
:10076000340250913502E0915422F091552264E018
:1007700080E092E01995FF91EF91BF91AF919F9129
:100780008F917F916F915F914F913F912F910F903A
:100790000BBE0F9009BE0F9008BE0F900FBE0F90BA
:1007A0001F9018951F920F920FB60F92112408B642
:1007B0000F9218BE09B60F9219BE0BB60F921BBE50
:1007C0002F933F934F935F936F937F938F939F9359
:1007D000AF93BF93EF93FF9340913C0250913D0242
:1007E000E0915422F091552268E080E092E0199562
:1007F000FF91EF91BF91AF919F918F917F916F91F9
:100800005F914F913F912F910F900BBE0F9009BEBA
:100810000F9008BE0F900FBE0F901F9018951F925B
:100820000F920FB60F92112408B60F9218BE09B698
:100830000F9219BE0BB60F921BBE2F933F934F938F
:100840005F936F937F938F939F93AF93BF93EF9338
:10085000FF93E091DF21F091E021309709F01995A5
:10086000FF91EF91BF91AF919F918F917F916F9188
:100870005F914F913F912F910F900BBE0F9009BE4A
:100880000F9008BE0F900FBE0F901F9018951F92EB
:100890000F920FB60F92112408B60F9218BE09B628
:1008A0000F9219BE0BB60F921BBE2F933F934F931F
:1008B0005F936F937F938F939F93AF93BF93EF93C8
:1008C000FF93E091DD21F091DE21309709F0199539
:1008D000FF91EF91BF91AF919F918F917F916F9118
:1008E0005F914F913F912F910F900BBE0F9009BEDA
:1008F0000F9008BE0F900FBE0F901F9018951F927B
:100900000F920FB60F92112408B60F9218BE09B6B7
:100910000F9219BE0BB60F921BBE2F933F934F93AE
:100920005F936F937F938F939F93AF93BF93EF9357
:10093000FF93E091DB21F091DC21309709F01995CC
:10094000FF91EF91BF91AF919F918F917F916F91A7
:100950005F914F913F912F910F900BBE0F9009BE69
:100960000F9008BE0F900FBE0F901F9018951F920A
:100970000F920FB60F92112408B60F9218BE09B647
:100980000F9219BE0BB60F921BBE2F933F934F933E
:100990005F936F937F938F939F93AF93BF93EF93E7
:1009A000FF93E091D921F091DA21309709F0199560
:1009B000FF91EF91BF91AF919F918F917F916F9137
:1009C0005F914F913F912F910F900BBE0F9009BEF9
:1009D0000F9008BE0F900FBE0F901F9018951F929A
:1009E0000F920FB60F92112408B60F9218BE09B6D7
:1009F0000F9219BE0BB60F921BBE2F933F934F93CE
:100A00005F936F937F938F939F93AF93BF93EF9376
:100A1000FF93E091D721F091D821309709F01995F3
:100A2000FF91EF91BF91AF919F918F917F916F91C6
:100A30005F914F913F912F910F900BBE0F9009BE88
:100A40000F9008BE0F900FBE0F901F9018951F9229
:100A50000F920FB60F92112408B60F9218BE09B666
:100A60000F9219BE0BB60F921BBE2F933F934F935D
:100A70005F936F937F938F939F93AF93BF93EF9306
:100A8000FF93E091D521F091D621309709F0199587
:100A9000FF91EF91BF91AF919F918F917F916F9156
:100AA0005F914F913F912F910F900BBE0F9009BE18
:100AB0000F9008BE0F900FBE0F901F9018951F92B9
:100AC0000F920FB60F92112408B60F9218BE09B6F6
:100AD0000F9219BE0BB60F921BBE2F933F934F93ED
:100AE0005F936F937F938F939F93AF93BF93EF9396
:100AF000FF93E091D321F091D421309709F019951B
:100B0000FF91EF91BF91AF919F918F917F916F91E5
:100B10005F914F913F912F910F900BBE0F9009BEA7
:100B20000F9008BE0F900FBE0F901F9018951F9248
:100B30000F920FB60F92112408B60F9218BE09B685
:100B40000F9219BE0BB60F921BBE2F933F934F937C
:100B50005F936F937F938F939F93AF93BF93EF9325
:100B6000FF93E091D121F091D221309709F01995AE
:100B7000FF91EF91BF91AF919F918F917F916F9175
:100B80005F914F913F912F910F900BBE0F9009BE37
:100B90000F9008BE0F900FBE0F901F9018951F92D8
:100BA0000F920FB60F92112408B60F9218BE09B615
:100BB0000F9219BE0BB60F921BBE2F933F934F930C
:100BC0005F936F937F938F939F93AF93BF93EF93B5
:100BD000FF93E091CF21F091D021309709F0199542
:100BE000FF91EF91BF91AF919F918F917F916F9105
:100BF0005F914F913F912F910F900BBE0F9009BEC7
:100C00000F9008BE0F900FBE0F901F9018951F9267
:100C10000F920FB60F92112408B60F9218BE09B6A4
:100C20000F9219BE0BB60F921BBE2F933F934F939B
:100C30005F936F937F938F939F93AF93BF93EF9344
:100C4000FF93E091CD21F091CE21309709F01995D5
:100C5000FF91EF91BF91AF919F918F917F916F9194
:100C60005F914F913F912F910F900BBE0F9009BE56
:100C70000F9008BE0F900FBE0F901F9018951F92F7
:100C80000F920FB60F92112408B60F9218BE09B634
:100C90000F9219BE0BB60F921BBE2F933F934F932B
:100CA0005F936F937F938F939F93AF93BF93EF93D4
:100CB000FF93E091CB21F091CC21309709F0199569
:100CC000FF91EF91BF91AF919F918F917F916F9124
:100CD0005F914F913F912F910F900BBE0F9009BEE6
:100CE0000F9008BE0F900FBE0F901F9018951F9287
:100CF0000F920FB60F92112408B60F9218BE09B6C4
:100D00000F9219BE0BB60F921BBE2F933F934F93BA
:100D10005F936F937F938F939F93AF93BF93EF9363
:100D2000FF93E091C921F091CA21309709F01995FC
:100D3000FF91EF91BF91AF919F918F917F916F91B3
:100D40005F914F913F912F910F900BBE0F9009BE75
:100D50000F9008BE0F900FBE0F901F9018951F9216
:100D60000F920FB60F92112408B60F9218BE09B653
:100D70000F9219BE0BB60F921BBE2F933F934F934A
:100D80005F936F937F938F939F93AF93BF93EF93F3
:100D9000FF93E091C721F091C821309709F0199590
:100DA000FF91EF91BF91AF919F918F917F916F9143
:100DB0005F914F913F912F910F900BBE0F9009BE05
:100DC0000F9008BE0F900FBE0F901F9018951F92A6
:100DD0000F920FB60F92112408B60F9218BE09B6E3
:100DE0000F9219BE0BB60F921BBE2F933F934F93DA
:100DF0005F936F937F938F939F93AF93BF93EF9383
:100E0000FF93E091C521F091C621309709F0199523
:100E1000FF91EF91BF91AF919F918F917F916F91D2
:100E20005F914F913F912F910F900BBE0F9009BE94
:100E30000F9008BE0F900FBE0F901F9018951F9235
:100E40000F920FB60F92112408B60F9218BE09B672
:100E50000F9219BE0BB60F921BBE2F933F934F9369
:100E60005F936F937F938F939F93AF93BF93EF9312
:100E7000FF93E091C321F091C421309709F01995B7
:100E8000FF91EF91BF91AF919F918F917F916F9162
:100E90005F914F913F912F910F900BBE0F9009BE24
:100EA0000F9008BE0F900FBE0F901F9018951F92C5
:100EB0000F920FB60F92112408B60F9218BE09B602
:100EC0000F9219BE0BB60F921BBE2F933F934F93F9
:100ED0005F936F937F938F939F93AF93BF93EF93A2
:100EE000FF93E091C121F091C221309709F019954B
:100EF000FF91EF91BF91AF919F918F917F916F91F2
:100F00005F914F913F912F910F900BBE0F9009BEB3
:100F10000F9008BE0F900FBE0F901F9018951F9254
:100F20000F920FB60F92112408B60F9218BE09B691
:100F30000F9219BE0BB60F921BBE2F933F934F9388
:100F40005F936F937F938F939F93AF93BF93EF9331
:100F5000FF93E091BF21F091C021309709F01995DE
:100F6000FF91EF91BF91AF919F918F917F916F9181
:100F70005F914F913F912F910F900BBE0F9009BE43
:100F80000F9008BE0F900FBE0F901F9018951F92E4
:100F90000F920FB60F92112408B60F9218BE09B621
:100FA0000F9219BE0BB60F921BBE2F933F934F9318
:100FB0005F936F937F938F939F93AF93BF93EF93C1
:100FC000FF93E091BD21F091BE21309709F0199572
:100FD000FF91EF91BF91AF919F918F917F916F9111
:100FE0005F914F913F912F910F900BBE0F9009BED3
:100FF0000F9008BE0F900FBE0F901F9018951F9274
:101000000F920FB60F92112408B60F9218BE09B6B0
:101010000F9219BE0BB60F921BBE2F933F934F93A7
:101020005F936F937F938F939F93AF93BF93EF9350
:10103000FF93E091BB21F091BC21309709F0199505
:10104000FF91EF91BF91AF919F918F917F916F91A0
:101050005F914F913F912F910F900BBE0F9009BE62
:101060000F9008BE0F900FBE0F901F9018951F9203
:101070000F920FB60F92112408B60F9218BE09B640
:101080000F9219BE0BB60F921BBE2F933F934F9337
:101090005F936F937F938F939F93AF93BF93EF93E0
:1010A000FF93E091B921F091BA21309709F0199599
:1010B000FF91EF91BF91AF919F918F917F916F9130
:1010C0005F914F913F912F910F900BBE0F9009BEF2
:1010D0000F9008BE0F900FBE0F901F9018951F9293
:1010E0000F920FB60F92112408B60F9218BE09B6D0
:1010F0000F9219BE0BB60F921BBE2F933F934F93C7
:101100005F936F937F938F939F93AF93BF93EF936F
:10111000FF93E091B721F091B821309709F019952C
:10112000FF91EF91BF91AF919F918F917F916F91BF
:101130005F914F913F912F910F900BBE0F9009BE81
:101140000F9008BE0F900FBE0F901F9018951F9222
:101150000F920FB60F92112408B60F9218BE09B65F
:101160000F9219BE0BB60F921BBE2F933F934F9356
:101170005F936F937F938F939F93AF93BF93EF93FF
:10118000FF93E091B521F091B621309709F01995C0
:10119000FF91EF91BF91AF919F918F917F916F914F
:1011A0005F914F913F912F910F900BBE0F9009BE11
:1011B0000F9008BE0F900FBE0F901F9018951F92B2
:1011C0000F920FB60F92112408B60F9218BE09B6EF
:1011D0000F9219BE0BB60F921BBE2F933F934F93E6
:1011E0005F936F937F938F939F93AF93BF93EF938F
:1011F000FF93E091B321F091B421309709F0199554
:10120000FF91EF91BF91AF919F918F917F916F91DE
:101210005F914F913F912F910F900BBE0F9009BEA0
:101220000F9008BE0F900FBE0F901F9018951F9241
:101230000F920FB60F92112408B60F9218BE09B67E
:101240000F9219BE0BB60F921BBE2F933F934F9375
:101250005F936F937F938F939F93AF93BF93EF931E
:10126000FF93E091B121F091B221309709F01995E7
:10127000FF91EF91BF91AF919F918F917F916F916E
:101280005F914F913F912F910F900BBE0F9009BE30
:101290000F9008BE0F900FBE0F901F9018951F92D1
:1012A0000F920FB60F92112408B60F9218BE09B60E
:1012B0000F9219BE0BB60F921BBE2F933F934F9305
:1012C0005F936F937F938F939F93AF93BF93EF93AE
:1012D000FF93E091AF21F091B021309709F019957B
:1012E000FF91EF91BF91AF919F918F917F916F91FE
:1012F0005F914F913F912F910F900BBE0F9009BEC0
:101300000F9008BE0F900FBE0F901F901895CF93AF
:10131000DF93E091E121F091E221848183FF08C015
:101320008860848383E0838386EF8093EB2183C08E
:10133000982F947131F083E083838FEF8093EB21BA
:101340007AC086FF43C0C1EED1E2AA81BB818C8105
:101350009D8114962D913C911597821793076CF4FB
:101360009C012F5F3F4F2093E5213093E621A80F8A
:10137000B91F11968C9187835EC08091E72190916F
:10138000E82118962D913C91199782179307C8F47C
:101390002091E921222321F08681816086834BC040
:1013A00016962D913C911797AC014F5F5F4F40937C
:1013B000E7215093E821D901A80FB91F8C918783A9
:1013C0003AC083E083831092EB2135C0882384F5F3
:1013D000A1EEB1E21296CD91DC91139716968D9104
:1013E0009C9117972885398582179307D8F46E81C9
:1013F0007F819C012F5F3F4F2093E7213093E821AD
:101400004781DB01A80FB91F4C9388859985281760
:10141000390718F482E083830EC087E0838310923B
:10142000EB2109C083E0838389EF8093EB2103C024
:101430008BEF8093EB21DF91CF9108951F920F9254
:101440000FB60F92112408B60F9218BE09B60F926C
:1014500019BE0BB60F921BBE2F933F934F935F9312
:101460006F937F938F939F93AF93BF93EF93FF936C
:101470004EDFFF91EF91BF91AF919F918F917F913F
:101480006F915F914F913F912F910F900BBE0F90F5
:1014900009BE0F9008BE0F900FBE0F901F901895B9
:1014A0001F920F920FB60F92112408B60F9218BE1A
:1014B00009B60F9219BE0BB60F921BBE2F933F9326
:1014C0004F935F936F937F938F939F93AF93BF934C
:1014D000EF93FF931CDFFF91EF91BF91AF919F912D
:1014E0008F917F916F915F914F913F912F910F90CD
:1014F0000BBE0F9009BE0F9008BE0F900FBE0F904D
:101500001F901895FC01DB0114968C91858388EB64
:10151000818381E08483E1EEF1E211861286E0EAC4
:10152000F0E0828182608283789480E00895CF9396
:10153000DF931F92CDB7DEB79C01FB01892B09F425
:1015400051C0309709F450C092858091EA218823D8
:1015500019F09923F1F34AC08FB78983F8948981F0
:10156000A1EEB1E291E019969C93199790E81A9632
:101570009C931A978FBF2D933C93119712966D935E
:101580007C93139714961D921C92159716961D9294
:101590001C92179718964C938081880F64817581EF
:1015A000672B11F4411103C0F901868303C08160E8
:1015B000F9018683E1EEF1E292859038E9F3F901D1
:1015C00084818370813049F0A1EEB1E2ED91FC910C
:1015D0001197848183708130C9F7E1EEF1E2828551
:1015E000118605C088EF03C088EF01C086EF0F9019
:1015F000DF91CF910895FC01918195FFFDCF60832C
:1016000080E090E00895FC0191819923ECF78081BE
:1016100008954F925F926F927F928F929F92AF92B6
:10162000BF92EF92FF920F931F93CF937C014A01D9
:101630005B0128013901FC01848182FF16C0D901B8
:10164000C801689412F8B695A79597958795169452
:10165000D1F7B901A801032E36E176956795579524
:1016600047953A95D1F7302D15C0D901C801689436
:1016700013F8B695A795979587951694D1F7B90164
:10168000A801032E37E176956795579547953A95CA
:10169000D1F7302D88159905AA05BB0508F4A6C019
:1016A00084169506A606B70608F4A2C0F701848141
:1016B00082FD04C0880C991CAA1CBB1CC301B2018A
:1016C000A50194010E945E322F3F3105410551056D
:1016D00008F490C08FEF90E0A0E0B0E0C9EF05C043
:1016E000281739074A075B0758F0880F991FAA1F68
:1016F000BB1FCD3F0CF48160CF5FC73089F74FC06F
:10170000CC230CF04CC0D501C401880F991FAA1F2F
:10171000BB1F880F991FAA1FBB1F880F991FAA1FE5
:10172000BB1F481A590A6A0A7B0ACE3FF4F48DEFB0
:101730009FEF8C1B9109C7FD939504C0440C551C69
:10174000661C771C8A95D2F7D501C401B695A7957A
:1017500097958795BC01CD01640D751D861D971D5C
:10176000A50194010E945E3237C083E08C0FA50171
:10177000940104C0220F331F441F551F8A95D2F7CE
:10178000DA01C901B695A79597958795BC01CD015A
:10179000640D751D861D971D0E945E321DC083E07D
:1017A0008C0FA501940104C0220F331F441F551F45
:1017B0008A95D2F7DA01C901B695A79597958795CD
:1017C000BC01CD01640D751D861D971D0E945E3202
:1017D0002150310941095109832F8F70C295C07F73
:1017E000C82BF701C783268381E018C080E016C0AC
:1017F00080E014C0D501C401880F991FAA1FBB1F28
:10180000880F991FAA1FBB1F880F991FAA1FBB1FF4
:10181000481A590A6A0A7B0AC9EF89CFCF911F91EA
:101820000F91FF90EF90BF90AF909F908F907F901F
:101830006F905F904F9008950F931F93CF93DF9316
:10184000EC018B01009709F4D6C0803C910529F486
:1018500060E180E00E946A17CEC0C11584E0D8071D
:1018600029F464E080E00E946A17C5C0C038E1E056
:10187000DE0729F462E080E00E946A17BCC0C1154F
:10188000F1E0DF0729F461E080E00E946A17B3C04D
:10189000C03883E0D80729F461E081E00E946A172C
:1018A000AAC0C115E2E0DE0729F462E081E00E94EF
:1018B0006A17A1C0C032F3E0DF0729F464E082E0D8
:1018C0000E946A1798C0C11588E0D80729F461E022
:1018D00083E00E946A178FC0C115E9E0DE0729F492
:1018E00061E084E00E946A1786C0C115FAE0DF0754
:1018F00029F461E085E00E946A177DC0C03488E069
:10190000D80729F462E083E00E946A1774C0C034EB
:10191000E9E0DE0729F462E084E00E946A176BC008
:10192000C039F8E0DF0729F464E083E00E946A1719
:1019300062C0C03989E0D80729F464E084E00E94DD
:101940006A1759C0C039EAE0DE0729F464E085E08F
:101950000E946A1750C0C03CF8E0DF0729F468E035
:1019600083E00E946A1747C0C03C89E0D80729F489
:1019700068E084E00E946A173EC0C03AE8E0DE07F3
:1019800029F460E183E00E946A1735C0C03AF9E0AB
:10199000DF0729F460E184E00E946A172CC0C03A96
:1019A0008AE0D80729F460E185E00E946A1723C025
:1019B000C03BE8E0DE0729F460E283E00E946A179A
:1019C0001AC0C03BF9E0DF0729F460E284E00E941E
:1019D0006A1711C0C03884E0D80729F460E483E0B6
:1019E0000E946A1708C0C03AE4E0DE0721F460E410
:1019F00085E00E946A178D818F738D83F801958130
:101A00008481892B9681911198E0892B8D83F8012F
:101A1000408151816281738100E018E428EE31E059
:101A2000CE01F7DD9C8198609C839C8190619C83B2
:101A3000DF91CF911F910F9108951F93CF93DF9363
:101A400000D01F92CDB7DEB719821A821B821C828A
:101A50008093EC219093ED21DC011996ED91FC919E
:101A60001A9721E0AE014E5F5F4F67E018968C91A8
:101A70001995182FA091EC21B091ED211B96ED91B5
:101A8000FC911C9721E0AE014F5F5F4F60E018961C
:101A90008C911995180FA091EC21B091ED218981BD
:101AA0008C931B96ED91FC911C9721E0AE014F5F4A
:101AB0005F4F61E018968C911995180FA091EC2159
:101AC000B091ED21898114968C9314971B96ED911A
:101AD000FC911C9721E0AE014F5F5F4F62E01896CA
:101AE0008C911995180FA091EC21B091ED2189816D
:101AF00015968C9315971B96ED91FC911C9721E000
:101B0000AE014F5F5F4F63E018968C911995180FE7
:101B1000A091EC21B091ED21898116968C931697B6
:101B20001B96ED91FC911C9721E0AE014F5F5F4F3A
:101B300066E018968C911995180FA091EC21B09140
:101B4000ED21898117968C9317971B96ED91FC9147
:101B50001C9722E0AE014D5F5F4F64E018968C91B8
:101B60001995180FA091EC21B091ED218C8190E096
:101B7000982F88272B81822B11968D939C931297F7
:101B80001B96ED91FC911C9721E0AE014F5F5F4FDA
:101B900067E018968C911995E091EC21F091ED2178
:101BA00099819383810F2496CDBFDEBFDF91CF91C2
:101BB0001F910895A091EC21B091ED21109759F05B
:101BC000242FAB01682F1996ED91FC911A97189666
:101BD0008C911995089581E808951F93CF93DF9311
:101BE0001F92CDB7DEB71982A091EC21B091ED2103
:101BF000109741F1182F1B96ED91FC911C9721E055
:101C0000AE014F5F5F4F67E018968C911995811177
:101C10001BC01983A091EC21B091ED211996ED9193
:101C2000FC911A9721E0AE014F5F5F4F67E0189675
:101C30008C911995811109C0E091EC21F091ED2171
:101C4000138303C081E801C08FEF0F90DF91CF9124
:101C50001F9108950F931F93CF93DF9300D000D06F
:101C6000CDB7DEB78C01FE01319696E0DF011D9203
:101C70009A95E9F7E091EC21F091ED21309709F484
:101C80003EC08381882359F080E0A7DF882339F0A4
:101C9000E091EC21F091ED218381811132C0A0917E
:101CA000EC21B091ED211B96ED91FC911C9726E063
:101CB000AE014F5F5F4F6AE118968C9119952A81AA
:101CC000022E000C330B322F22279981292BF80189
:101CD000208331832C81022E000C330B322F2227DC
:101CE0009B81292B228333832E81022E000C330B00
:101CF000322F22279D81292B2483358303C081E83D
:101D000001C08FEF2696CDBFDEBFDF91CF911F912F
:101D10000F9108950F931F93CF93DF9300D000D0BE
:101D2000CDB7DEB78C01FE01319696E0DF011D9242
:101D30009A95E9F7E091EC21F091ED21309709F4C3
:101D40003EC08381882359F080E047DF882339F043
:101D5000E091EC21F091ED218381811132C0A091BD
:101D6000EC21B091ED211B96ED91FC911C9726E0A2
:101D7000AE014F5F5F4F68E218968C9119952A81EA
:101D8000022E000C330B322F22279981292BF801C8
:101D9000208331832C81022E000C330B322F22271B
:101DA0009B81292B228333832E81022E000C330B3F
:101DB000322F22279D81292B2483358303C081E87C
:101DC00001C08FEF2696CDBFDEBFDF91CF911F916F
:101DD0000F910895FF920F931F93CF93DF9300D03D
:101DE00000D0CDB7DEB78C0119821A821B821C820B
:101DF0001D821E82CE0101968DDFF82E81113AC020
:101E000069817A81072E000C880B990B0E945E2F46
:101E100020E030E048EC52E40E94892EF801608313
:101E20007183828393836B817C81072E000C880BE6
:101E3000990B0E945E2F20E030E048EC52E40E94B3
:101E4000892EF80164837583868397836D817E81F3
:101E5000072E000C880B990B0E945E2F20E030E0CB
:101E600048EC52E40E94892EF801608771878287CE
:101E7000938702C0FF24FA948F2D2696CDBFDEBF34
:101E8000DF91CF911F910F91FF9008950F931F93B2
:101E9000CF93DF931F92CDB7DEB71982E091EC218B
:101EA000F091ED21309721F18C018381882359F045
:101EB00080E093DE882339F0E091EC21F091ED2170
:101EC0008381811117C0A091EC21B091ED211B9667
:101ED000ED91FC911C9721E0AE014F5F5F4F65E3F0
:101EE00018968C91199599819370F801908303C08D
:101EF00081E801C08FEF0F90DF91CF911F910F917B
:101F000008950F931F93CF93DF931F92CDB7DEB742
:101F10001982E091EC21F091ED21309749F18C018B
:101F20008381882359F080E058DE882339F0E091DE
:101F3000EC21F091ED21838181111CC0A091EC2155
:101F4000B091ED211B96ED91FC911C9721E0AE0123
:101F50004F5F5F4F65E318968C91199529812C701E
:101F600030E03595279535952795F801208303C0F6
:101F700081E801C08FEF0F90DF91CF911F910F91FA
:101F800008950F931F93CF93DF931F92CDB7DEB7C2
:101F90001982E091EC21F091ED21309769F18C01EB
:101FA0008381882359F080E018DE882339F0E0919E
:101FB000EC21F091ED218381811120C0A091EC21D1
:101FC000B091ED211B96ED91FC911C9721E0AE01A3
:101FD0004F5F5F4F65E318968C91199529812073A7
:101FE00030E0359527953595279535952795359585
:101FF0002795F801208303C081E801C08FEF0F907F
:10200000DF91CF911F910F9108950F931F93CF935D
:10201000DF931F92CDB7DEB71982E091EC21F091EA
:10202000ED21309739F18C018381882359F080E0CC
:10203000D4DD882339F0E091EC21F091ED2183810A
:1020400081111AC0A091EC21B091ED211B96ED9168
:10205000FC911C9721E0AE014F5F5F4F65E318963E
:102060008C91199599819295969596959370F80112
:10207000908303C081E801C08FEF0F90DF91CF9173
:102080001F910F9108950F931F93CF93DF931F928A
:10209000CDB7DEB71982E091EC21F091ED213097B8
:1020A00031F18C018381882359F080E096DD88230B
:1020B00039F0E091EC21F091ED218381811119C07B
:1020C000A091EC21B091ED211B96ED91FC911C9714
:1020D00021E0AE014F5F5F4F6BE318968C9119952D
:1020E000998192FB992790F9F801908303C081E8C8
:1020F00001C08FEF0F90DF91CF911F910F91089545
:102100000F931F93CF93DF931F92CDB7DEB7198242
:10211000E091EC21F091ED21309721F18C01838148
:10212000882359F080E059DD882339F0E091EC21D3
:10213000F091ED218381811117C0A091EC21B09124
:10214000ED211B96ED91FC911C9721E0AE014F5FB4
:102150005F4F6DE318968C91199599819F70F801E6
:10216000908303C081E801C08FEF0F90DF91CF9182
:102170001F910F9108950F931F93CF93DF931F9299
:102180001F92CDB7DEB719821A822091EC213091CF
:10219000ED21232B09F49CC0082FCE010296B0DF5D
:1021A000811198C08A81811135C0A091EC21B09134
:1021B000ED211B96ED91FC911C9721E0AE014F5F44
:1021C0005F4F6DE318968C911995811185C08981B7
:1021D000982F907F802F8F70892B8983A091EC217D
:1021E000B091ED211996ED91FC911A9721E0AE0185
:1021F0004F5F5F4F6DE318968C911995182FE09102
:10220000EC21F091ED210584F685E02D88E592E042
:10221000199565C0A091EC21B091ED211B96ED912F
:10222000FC911C9721E0AE014F5F5F4F6DE3189664
:102230008C911995182F811114C08981807F898311
:1022400041E0BE016F5F7F4F8DE3B4DC182FE0915A
:10225000EC21F091ED210584F685E02D84E190E0FC
:1022600019950023E1F1A091EC21B091ED211B968D
:10227000ED91FC911C9721E0AE014F5F5F4F6DE344
:1022800018968C911995811129C08981982F907F7A
:10229000802F8F70892B8983A091EC21B091ED2143
:1022A0001996ED91FC911A9721E0AE014F5F5F4FB7
:1022B0006DE318968C911995182FE091EC21F0910F
:1022C000ED210584F685E02D88E592E0199507C09B
:1022D00011E805C01FEF03C0182F01C0182F812F70
:1022E0000F900F90DF91CF911F910F9108950F9351
:1022F0001F93CF93DF931F921F92CDB7DEB7198242
:102300001A822091EC213091ED21232B09F444C055
:10231000082FCE010296F4DE811135C08A81882310
:1023200021F080E028DF811130C0A091EC21B09134
:10233000ED211B96ED91FC911C9721E0AE014F5FC2
:102340005F4F6BE318968C911995182F81111EC061
:102350008981982F9B7F802F880F880F8470892B0D
:102360008983A091EC21B091ED211996ED91FC911A
:102370001A9721E0AE014F5F5F4F6BE318968C9187
:102380001995182F03C01FEF01C01FEF8A81882302
:1023900029F0F1DE810F03C081E801C0812F0F9089
:1023A0000F90DF91CF911F910F910895EF92FF92BF
:1023B0001F93CF93DF93CDB7DEB72797CDBFDEBF97
:1023C0007C0119821A821B821C821D821E821F823E
:1023D000CE01079658DE182F8F81882319F080E0F0
:1023E00086DF180F11113FC0CE01019633DC811139
:1023F0003CC069817A81072E000C880B990B0E94E2
:102400005E2F20E030E040E85DE30E94A530F70158
:1024100060837183828393836D817E81072E000C9C
:10242000880B990B0E945E2F20E030E040E85DE3CE
:102430000E94A530F70160877187828793876B813F
:102440007C81072E000C880B990B0E945E2F20E0E8
:1024500030E040E85DE30E94A530F70164837583B6
:102460008683978303C01FEF01C01FEF812F27963C
:10247000CDBFDEBFDF91CF911F91FF90EF90089508
:102480000F931F93CF93DF931F921F92CDB7DEB7A9
:1024900019821A822091EC213091ED21232B09F42D
:1024A00042C0082FCE0102962BDE811133C08A81F3
:1024B000882321F080E05FDE81112EC0A091EC2105
:1024C000B091ED211B96ED91FC911C9721E0AE019E
:1024D0004F5F5F4F6EE318968C911995182F8111FD
:1024E0001CC08981982F9C7F802F8370892B8983C2
:1024F000A091EC21B091ED211996ED91FC911A97E4
:1025000021E0AE014F5F5F4F6EE318968C911995F5
:10251000182F03C01FEF01C01FEF8A81882329F005
:102520002ADE810F03C081E801C0812F0F900F9038
:10253000DF91CF911F910F91089504C061507109EF
:10254000810991096115710581059105B9F7089512
:10255000AF92BF92CF92DF92EF92FF920F931F93B1
:10256000CF93DF930097D1F1A12C0F2EF8E4BF2E6B
:10257000F02D0F2EF8EECF2EF02DDD24D394E12C8C
:10258000F12C00E010E0282F392F40E050E060E00F
:1025900070E080E090E00E94BE320F2EF6E0AF2E99
:1025A000F02DB12CC12CD12C0E94113329513C4F5C
:1025B0004F4F5F4F6F4F7F4F8F4F9F4F0E94992F0D
:1025C00020E030E04AE754E40E94892E0E94F62E73
:1025D000622F732F842F952FB0DF05C066E070E067
:1025E00080E090E0AADFDF91CF911F910F91FF90E3
:1025F000EF90DF90CF90BF90AF900895CF92DF9291
:10260000FF920F931F93CF93DF93CDB7DEB7CB54D9
:10261000D109CDBFDEBFF82E062F6A01122F22305E
:1026200040F081EB90E29F938F930E94F7330F90DD
:102630000F901982F60180818A83015023960FAF93
:10264000239781E090E027968EAF9FAF2797229641
:10265000FFAE2297CE01019629968EAF9FAF2997A4
:102660001F5F212F30E02B962EAF3FAF2B972C967C
:102670001FAE2C9740E0BE016F5B7F4F80E894E077
:102680000E94970AC55BDF4FCDBFDEBFDF91CF91C0
:102690001F910F91FF90DF90CF900895AF92BF925E
:1026A000DF92EF92FF920F931F93CF93DF93CDB7FB
:1026B000DEB7CB54D109CDBFDEBF5A01AE014F5FAB
:1026C0005F4F7A0190E4FA0111929A95E9F7239607
:1026D0006FAF239741E050E027964EAF5FAF27974B
:1026E00022968FAF22972996EEAEFFAE2997022F42
:1026F00010E02B960EAF1FAF2B972C961FAE2C978A
:10270000BE016F5B7F4F80E894E00E94970AD82E4D
:10271000A801B701C5010E94A4338D2DC55BDF4F11
:10272000CDBFDEBFDF91CF911F910F91FF90EF9052
:10273000DF90BF90AF9008950F931F93CF93DF93D7
:10274000CDB7DEB72A97CDBFDEBF8E010F5F1F4F1B
:1027500089E0F80111928A95E9F780E89AE1A6E00C
:10276000B0E089839A83AB83BC8383E290E0A0E0EE
:10277000B0E08D839E83AF83B88760E483E0AAD303
:10278000B80180E894E00E94820AE0E8F4E08181E8
:1027900088608183E6E5F2E28EEF92E1818792879D
:1027A0008EE493E18387948788EA92E18587968710
:1027B00088E28087CF0141D9882381F0282F082E15
:1027C000000C330B3F938F9387E391E29F938F939A
:1027D0000E94F7330F900F900F900F9080E050DE23
:1027E0008CE0C9DC182F1A86CE010A9689DC8A850E
:1027F0008C3099F0212F012E000C330B3F931F9347
:102800001F929CE09F931F928F938BE591E29F9381
:102810008F930E94F733CDBFDEBF2A96CDBFDEBFB8
:10282000DF91CF911F910F91089585E692E2D2DA60
:1028300081E792E2BBDD8EE792E263DB80E892E221
:10284000A0DB8DE792E222DB8FE792E2DECB0895F8
:1028500060917522709176228091772290917822F2
:1028600008956091792270917A2280917B229091D3
:102870007C2208956091712270917222809173225E
:1028800090917422089504C06150710981099109E1
:102890006115710581059105B9F70895E0E0F6E04D
:1028A00080818860808366E573E288E090E0EBCF0A
:1028B0000895E0E0F6E0948188E089278483089514
:1028C000FF920F931F93CF93DF9362E081E002D3D7
:1028D000C0E0D2E0FF24F394F882198280E18A8379
:1028E00085E08C8361E270E082E01FD3082F10E066
:1028F000102F002760E270E082E017D3082B0C87CE
:102900001D87F8A280E389A3DF91CF911F910F91DA
:10291000FF900895E0E0F2E080A1806880A383A1A9
:102920008823E9F380912402909125020895CF93A2
:10293000DF93CDB7DEB72797CDBFDEBF60E284E07F
:10294000C9D2E0E6F6E0808180688083E6E0F0E2CC
:1029500084818D8385818E8386818F83808191811F
:10296000A281B38189839A83AB83BC8360E284E0D4
:10297000B1D2BE016F5F7F4F80EB99E00E941C0CCB
:102980002796CDBFDEBFDF91CF91089504C061507F
:102990007109810991096115710581059105B9F7E1
:1029A0000895E0E4F6E0948180E189278483089526
:1029B000E0E4F6E0848180618483F3DF8EE1B9D0C6
:1029C00060E87EE380E090E0E1DFEBDF6BEA79E254
:1029D00080E090E0DBCF0895CF93DF93C82FE1DF55
:1029E0008C2FA7D097D0C82FD0E0DC2FCC2792D047
:1029F000C82BD7DFCE01DF91CF910895CF93DF931E
:102A000000D01F92CDB7DEB719821A821B821C82BA
:102A1000C8DF88E48ED066E570ED80E090E0B6DF38
:102A2000C0DFBFDF80E085D075D090E0A0E0B0E0EF
:102A3000DC019927882789839A83AB83BC836AD07A
:102A400049815A816B817C81582B49835A836B83DE
:102A50007C8360D049815A816B817C81482B49837A
:102A60005A836B837C839DDF69817A818B819C8112
:102A70002496CDBFDEBFDF91CF910895CF93DF9332
:102A800000D01F92CDB7DEB719821A821B821C823A
:102A900088DF88E54ED066E570ED80E090E076DF77
:102AA00080DF7FDF80E045D035D090E0A0E0B0E06F
:102AB000DC019927882789839A83AB83BC832AD03A
:102AC00049815A816B817C81582B49835A836B835E
:102AD0007C8320D049815A816B817C81482B49833A
:102AE0005A836B837C835DDF69817A818B819C81D2
:102AF0002496CDBFDEBFDF91CF910895E0E4F6E0EC
:102B00008081806B808368E083E0E4D180E58093FE
:102B1000C00808959FB7F8948FEF8093C308E0EC46
:102B2000F8E082818823ECF778949FBF8091C308F6
:102B300008959FB7F8948093C308E0ECF8E0828191
:102B40008823ECF778949FBF0895CF93DF93EB0130
:102B50000E94030B8883DF91CF9108950C94FB0AA8
:102B60000895CF93DF93CDB7DEB72797CDBFDEBFF4
:102B700060E185E0AFD1E0E8F6E0808188608083A5
:102B800080EA9AE080935222909353228EEA95E154
:102B9000809350229093512285EA95E180934E22B2
:102BA00090934F22EDE0F0E284818D8385818E83C6
:102BB00086818F8380819181A281B38189839A8369
:102BC000AB83BC8360E185E085D1BE016F5F7F4F41
:102BD00080EA9AE00E941C0C6FE771E088E991E0BE
:102BE0000E94AD332796CDBFDEBFDF91CF91089510
:102BF000FF920F931F93CF93DF9362E081E06AD13E
:102C0000C0E0D2E0FF24F394F882198280E18A8345
:102C100085E08C8361E270E082E087D1082F10E0CC
:102C2000102F002760E270E082E07FD1082B0C8734
:102C30001D87F8A688E389A7DF91CF911F910F9197
:102C4000FF900895E0E0F2E080A5806880A783A56A
:102C50008823E9F380912C0290912D020895CF935F
:102C6000DF93FC0141155105B1F180E090E020E0D7
:102C7000880F991FDB01A80FB91F8D919C91A2812C
:102C8000B381AA0FBB1FC681D781AC0FBD1F8D9327
:102C90009C9382819381019682839383A081B181E9
:102CA0008A179B0711F41282138282819381C48157
:102CB000D5818C179D0749F40196A817B90719F01B
:102CC0008483958302C0148215822F5F822F90E047
:102CD0008417950768F2DF91CF910895FC01128265
:102CE000138214821582668377834083518308950B
:102CF000DC011296ED91FC911397CB010196E81738
:102D0000F90778F0E150F048E61BF70BEE0FFF1FD4
:102D100016968D919C911797E80FF91F80819181EC
:102D200008952D913C911197E20FF31FE150F04867
:102D3000E61BF70BEE0FFF1F16968D919C911797D0
:102D4000E80FF91F808191810895CF92DF92EF9271
:102D5000FF92CF93DF93FC014115510509F43FC069
:102D600080E090E020E0880F991F880F991FDB0119
:102D7000A80FB91FCD90DD90ED90FC90A281B3819A
:102D8000AA0FBB1FAA0FBB1F86819781A80FB91F6F
:102D9000CD92DD92ED92FC92139782819381019600
:102DA00082839383A081B1818A179B0711F41282D9
:102DB000138282819381C481D5818C179D0749F448
:102DC0000196A817B90719F08483958302C014826D
:102DD00015822F5F822F90E08417950720F2DF91F4
:102DE000CF91FF90EF90DF90CF900895FC01128279
:102DF00013821482158266837783408351830895FA
:102E0000DC011296ED91FC911397CB010196E81726
:102E1000F90798F0E150F04CE61BF70BEE0FFF1F9F
:102E2000EE0FFF1F16968D919C911797E80FF91FD3
:102E3000608171818281938108952D913C911197D8
:102E4000E20FF31FE150F04CE61BF70BEE0FFF1FF4
:102E5000EE0FFF1F16968D919C911797E80FF91FA3
:102E600060817181828193810895CF93DF931F9256
:102E70001F92CDB7DEB78FEF809370008093710003
:102E80008093720080937300809374008093750028
:102E9000809376008FB78A83F8949A81E0E5F0E01A
:102EA0008081826080839FBF818181FFFDCF61E04F
:102EB00080E490E044D08FB78983F8949981E0E56D
:102EC000F0E080818E7F80839FBF0F900F90DF9115
:102ED000CF910895CF93DF931F92CDB7DEB79FB701
:102EE0009983F8949981E82FF0E0E059FF4F6095BD
:102EF0008081682360839FBF0F90DF91CF910895F9
:102F0000CF93DF931F92CDB7DEB79FB79983F89425
:102F10009981E82FF0E0E059FF4F8081682B6083B2
:102F20009FBF0F90DF91CF9108954091CA01E62F86
:102F3000F72F8093CA0184914093CA0108951BBE64
:102F4000FC0128ED24BF6083089504C0615071091D
:102F5000810991096115710581059105B9F70895F8
:102F6000809130229091312201968093302290936B
:102F700031220895CF93DF931BDD82EA90E02CDDB0
:102F8000C7E3D2E28883998384EA90E025DD8A83CF
:102F90009B8386EA90E020DD8C839D8388EA90E025
:102FA0001BDD8E839F838AEA90E016DD88879987F0
:102FB0008CEA90E011DD8A879B87DF91CF9108959D
:102FC000B6DC6BEA79E280E090E0BFDF80E38093DB
:102FD000B309089560E483E07DDF60E483E07ADF95
:102FE000ABDB23DC35DC6093322270933322809399
:102FF00034229093352235DC609321207093222077
:1030000080932320909324200895CF93DF93C0E9E9
:10301000D2E284E0FE01982F11929A95E9F7888315
:10302000809143228A838FE28983E0E8F3E0808104
:103030008860808360EB77E180E893E00E9413036F
:103040008881982F906C98839B81292F207329F079
:103050009C7F92609093932204C08F70806E8093C7
:10306000902240E952E260E080E893E00E9474021E
:1030700060E080E893E00E94CB02DF91CF91089559
:10308000809143228093850308954F925F926F92BF
:103090007F928F929F92AF92BF92CF92DF92EF92E8
:1030A000FF92CF93DF93AADC6B017C01E7DC0E94E7
:1030B0005C2F4B015C01C7E3D2E26885798580E033
:1030C00090E00E945C2F20E030E040E853E40E9452
:1030D000A5309B01AC01C501B4010E94202E4B011B
:1030E0005C016C817D8180E090E00E945C2FA501F5
:1030F00094010E94A53020E030E040E05CE30E94B3
:10310000A5302B013C016881798180E090E00E942C
:103110005C2F20E030E040E857E40E94A5309B019E
:10312000AC01C301B2010E94212E2B013C01C70159
:10313000B6010E945C2F9B01AC01C301B2010E9449
:10314000A53020E030E040E055E30E94A5306B015F
:103150007C016E817F8180E090E00E945C2FA50160
:1031600094010E94A53020E030E040E85CE30E943A
:10317000A5304B015C016A817B8180E090E00E9478
:103180005C2F20E030E040E058E40E94A5309B0135
:10319000AC01C501B4010E94212E9B01AC01C70105
:1031A000B6010E94202E20E030E040E058E30E946B
:1031B000A530DF91CF91FF90EF90DF90CF90BF903F
:1031C000AF909F908F907F906F905F904F900895F9
:1031D0004F925F926F927F928F929F92AF92BF9227
:1031E000CF92DF92EF92FF92CF93DF931F921F92C5
:1031F000CDB7DEB78FDB89839A8369817A8180E0DE
:1032000090E00E945C2F2091192030911A2040916B
:103210001B2050911C200E94A53020911520309138
:10322000162040911720509118200E94212E6B01EA
:103230007C019B01AC0163E373E383E590E40E94AE
:10324000202E20E030EC46E455E40E94A530A70192
:1032500096010E94892E20E030E44CE156E40E9461
:10326000892E0E9465306B017C0120E030E040E453
:1032700050E40E9408314B015C0121EF3BEB46E832
:1032800059E3C701B6010E94A5302DE03FEC4BE5A4
:103290005BE30E94212E2B013C01A7019601C7018F
:1032A000B6010E94A53022E835ED4FE256E30E94B8
:1032B000A5309B01AC01C301B2010E94212E6B011C
:1032C0007C012AE633E149E853E3C501B4010E94D9
:1032D000A5309B01AC01C701B6010E94212E9B01C4
:1032E000AC0160E070E080E89FE30E94892E0F90BF
:1032F0000F90DF91CF91FF90EF90DF90CF90BF9034
:10330000AF909F908F907F906F905F904F900895B7
:103310004F925F926F927F928F929F92AF92BF92E5
:10332000CF92DF92EF92FF922B013C01C0902D20B3
:10333000D0902E20E0902F20F0903020209131204E
:10334000309132204091332050913420C701B60192
:103350000E94A5302091292030912A2040912B20D5
:1033600050912C200E94892E4B015C01A3019201F7
:103370006091392070913A2080913B2090913C20BF
:103380000E94892EA50194010E94083120E030E0BE
:1033900040E85FE30E94202E2091352030913620B6
:1033A00040913720509138200E94A530A701960106
:1033B0000E94892EFF90EF90DF90CF90BF90AF904A
:1033C0009F908F907F906F905F904F900895CF92D5
:1033D000DF92EF92FF9236DCBC0180E090E00E9429
:1033E0005C2F2091192030911A2040911B20509180
:1033F0001C200E94A530209115203091162040916C
:103400001720509118200E94212E6B017C0120E092
:1034100030E447EE56E40E94A53020E030EF43E46C
:1034200056E40E94892E9B01AC01C701B6010E949F
:10343000212EFF90EF90DF90CF9008952F923F9232
:103440004F925F926F927F928F929F92AF92BF92B4
:10345000CF92DF92EF92FF920F931F93CF93DF9360
:1034600000D000D0CDB7DEB76C0180911420882346
:1034700009F46CC000E010E0412C512C3201862E82
:10348000912CA12CB12C89829A82AB82BC82B8018A
:10349000C6012EDC5C0118012FEF221A320AB1019D
:1034A000C60126DC7C01B8016E5F7F4FC60120DCBF
:1034B000A501BB0C660B770B8A019B01000F111F46
:1034C000221F331F400F511F621F731F8701FF0C04
:1034D000220B330B78018901EE0CFF1C001F111F1A
:1034E000EE0CFF1C001F111F4A015B018E189F0884
:1034F000A00AB10AAC01990F660B770BD501C40184
:10350000840F951FA61FB71F9C01AD0169817A81A9
:103510008B819C810E9428320E945E2F20E030E047
:1035200040E05FE30E94A5309B01AC01C301B20102
:103530000E94212E2B013C01809114208101282F13
:1035400030E02216330608F4A2CF03C0412C512CE0
:103550003201682F70E080E090E00E945E2F9B01B6
:10356000AC01C301B2010E94892E20E030E048EC9A
:1035700052E40E94892E2696CDBFDEBFDF91CF9107
:103580001F910F91FF90EF90DF90CF90BF90AF9081
:103590009F908F907F906F905F904F903F902F9073
:1035A00008953F924F925F926F927F928F929F9277
:1035B000AF92BF92CF92DF92EF92FF920F931F9341
:1035C000CF93DF9300D000D0CDB7DEB78C01198246
:1035D0001A82C12CD12C760169817A81C80110DC54
:1035E0004B015C0121E6821A2EEA920A2AE0A20A25
:1035F000B1082FE782162AE1920626E0A206B1045E
:1036000080F40E945E2F20E030E040EA50E40E9407
:10361000892E9B01AC01C701B6010E94212E6B01CE
:103620007C0189819A81019689839A830597A1F605
:1036300019821A82812C912C540169817A81C801E6
:10364000DFDB2B013C0121E6421A2EEA520A2AE076
:10365000620A71082FE742162AE1520626E0620646
:10366000710490F40E945E2FA70196010E94202E03
:103670009B01AC010E94A5309B01AC01C501B401C6
:103680000E94212E4B015C0189819A8101968983D8
:103690009A83059791F620E030E040E85EE3C501AB
:1036A000B4010E94A53069837A838B839C831D8239
:1036B0001E82312C412C512C32016D817E81C8013A
:1036C0009FDB4B015C0121E6821A2EEA920A2AE076
:1036D000A20AB1082FE782162AE1920626E0A20686
:1036E000B10450F50E945E2F4B015C01A7019601C9
:1036F0000E94202E0E942B2F9B01772324F4222747
:103700003327261B370BB901330F880B990B0E9407
:103710005E2F9B01AC0169817A818B819C810E9423
:103720005C3088234CF0A5019401C301B2010E94D2
:10373000212E2B013C0133948D819E8101968D8336
:103740009E83059709F0B9CF332069F0632D70E0AF
:1037500080E090E00E945C2F9B01AC01C301B201AC
:103760000E94892E04C060E070E080E89FEB2696FE
:10377000CDBFDEBFDF91CF911F910F91FF90EF90F2
:10378000DF90CF90BF90AF909F908F907F906F9081
:103790005F904F903F900895AF92BF92CF92DF928B
:1037A000EF92FF920F931F93CF93DF9300D000D03F
:1037B000CDB7DEB75C018B0168DC20E030E040E291
:1037C00051E40E94A5300E942B2F69837A838B835A
:1037D0009C8341E050E0BE016F5F7F4FC801B5DAC6
:1037E000C801DFDE20E030E040E251E40E94892E93
:1037F0006B017C0120E030E040E85FEB0E94852E09
:103800008823D1F1C0922022D0922122E09222225C
:10381000F0922322C701B6017BDD609318227093DA
:10382000192280931A2290931B2260911822709182
:10383000192280911A2290911B2220E030E048EC5E
:1038400052E40E94A5300E942B2F6D837E8341E0BD
:1038500050E0BE016B5F7F4FC50101DA60911F2010
:1038600070912020C501EADD60931022709311222F
:1038700080931222909313222696CDBFDEBFDF9154
:10388000CF911F910F91FF90EF90DF90CF90BF905D
:10389000AF9008954F925F926F927F928F929F9216
:1038A000AF92BF92CF92DF92EF92FF92CF93DF93CE
:1038B00000D000D0CDB7DEB70E9415140E942814A6
:1038C000209132223091332240913422509135227E
:1038D0000E94202E6B017C010E9431142091212036
:1038E0003091222040912320509124200E94202EAC
:1038F0004B015C010E943A142B013C01C701B60147
:103900000E942B2F6D837E83772334F42227332765
:10391000261B370B2D833E838D819E81853B910530
:1039200024F120E030E044EB53E4C701B6010E94EB
:10393000A53069837A838B839C832D813E81B90175
:10394000330F880B990B0E945E2F9B01AC0169819C
:103950007A818B819C810E94892E9B01AC01C701D9
:10396000B6010E94202E6B017C01C501B4010E94AA
:103970002B2F6D837E83772334F422273327261B56
:10398000370B2D833E838D819E818B35910524F1EC
:1039900020E030E044E353E4C501B4010E94A530C7
:1039A00069837A838B839C832D813E81B901330F98
:1039B000880B990B0E945E2F9B01AC0169817A8173
:1039C0008B819C810E94892E9B01AC01C501B401B1
:1039D0000E94202E4B015C01C701B6010E942B2FD3
:1039E0006D547F4F6736714008F5C501B4010E94E0
:1039F0002B2F675A7F4F633B7105C0F4C092F621AD
:103A0000D092F721E092F821F092F9218092FA21E8
:103A10009092FB21A092FC21B092FD214092EE21D8
:103A20005092EF216092F0217092F1212696CDBF45
:103A3000DEBFDF91CF91FF90EF90DF90CF90BF90EE
:103A4000AF909F908F907F906F905F904F90089570
:103A50004F925F926F927F92AF92BF92CF92DF921E
:103A6000EF92FF920F931F93CF93DF931F921F92BA
:103A7000CDB7DEB75C016091EE217091EF218091AE
:103A8000F0219091F1212091252030912620409124
:103A90002720509128200E94202E6B017C010E943B
:103AA0002B2F8B01772324F400271127061B170BDC
:103AB000053B1105F4F020E030E044EB53E4C7018E
:103AC000B6010E94A5302B013C01B801110F880BF3
:103AD000990B0E945E2F9B01AC01C301B2010E94B1
:103AE000892E9B01AC01C701B6010E94202E6B01FB
:103AF0007C0120E030E048EC52E4C701B6010E94AE
:103B0000A5300E942B2F69837A8341E050E0BE01EB
:103B10006F5F7F4FC501A3D80F900F90DF91CF91BA
:103B20001F910F91FF90EF90DF90CF90BF90AF90DB
:103B30007F906F905F904F900895809147228130E1
:103B400081F138F0823009F457C0833009F4AFC0F6
:103B50007EC060911022709111228091122290916A
:103B6000132220E030E040EA50E40E94852E8823B2
:103B70000CF09DC0609118227091192280911A2238
:103B800090911B2220E030E041EE53E40E945C3033
:103B900018160CF08CC0809147228F5F80934722CB
:103BA00008956091102270911122809112229091BB
:103BB000132220E030E040EA50E40E94852E882362
:103BC00084F4609118227091192280911A229091A8
:103BD0001B2220E030E041EE53E40E94852E882332
:103BE0002CF080914622882309F461C080914722FD
:103BF0008F5F809347220895609110227091112267
:103C000080911222909113220E942B2F9B017723E7
:103C100024F422273327261B370B253031050CF0DF
:103C200046C0609118227091192280911A229091B9
:103C30001B2220E030E048EC51E40E94852E8823CE
:103C4000B4F5809147228F5F809347220895809139
:103C500046228823B9F082E080934722609118229F
:103C60007091192280911A2290911B2220E030E05D
:103C700040E251E40E94852E8823CCF483E08093B7
:103C800047220895109247226091102270911122CC
:103C9000809112229091132220E030E040EA50E41B
:103CA0000E94852E88231CF481E08093472208958A
:103CB00061E084E00FD964E084E00CD9E0E6F6E04E
:103CC000808187608083E0E0F9E085E0808383E2A3
:103CD000818380E197E286A397A386A197A1885567
:103CE000924084A795A70895E0E0F6E08081846083
:103CF0008083848184608483E0E0F9E08181806551
:103D0000818386A197A1895E924080A791A780A513
:103D100091A582A793A708954F925F926F927F9289
:103D20008F929F92AF92BF92CF92DF92EF92FF92CB
:103D30000F931F93CF93DF937C01C0E0D0E000E0AE
:103D400010E0BE01C7010E947816080F191F2196C6
:103D5000CA30D105B1F760E070E0C7010E94781663
:103D60006C0160911F2070912020C70167DB4B011F
:103D70005C010F2EE12CF9E0FF2EF02DF701C6A11A
:103D8000D7A12596B601DD0C880B990B0E945E2FFA
:103D900023E333E343E35FE30E94A53020E030E018
:103DA00048EC52E40E94892E2B013C01B801110F0E
:103DB000880B990B0E945E2F2DEC3CEC4CEC5DE3E4
:103DC0000E94A53020E030E048EC52E40E94892EA9
:103DD0009B01AC01C301B2010E94212E2B013C01C9
:103DE00023E333E343EB5EEBC501B4010E94A5304E
:103DF0009B01AC01C301B2010E94212E20E030E8FA
:103E00004BE354E40E94212E0E94302FC61BD70B97
:103E1000F701C0A7D1A780A591A582A793A7DF919D
:103E2000CF911F910F91FF90EF90DF90CF90BF90B7
:103E3000AF909F908F907F906F905F904F9008957C
:103E400061E085E047D8E0E0FAE087E0808381E147
:103E50009AE786A397A381E08683089562E084E0D1
:103E600039D864E084E036D8E0E6F6E0808180610D
:103E70008083E0E4F9E085E0808383E1818388EB5F
:103E800090E086A397A38CE590E080A791A7089582
:103E9000E0E4F9E016A217A210A611A60895CF92A9
:103EA000DF92EF92FF928091302290913122C09068
:103EB000F221D090F321E090F421F090F5212CE351
:103EC000289FB001299F700D112480E090E00E948E
:103ED0005C2FA70196010E94212E20E030E040E0F7
:103EE0005FE30E94A5306093F2217093F3218093E9
:103EF000F4219093F5211092302210923122FF90FC
:103F0000EF90DF90CF900895609114227091152268
:103F1000809116229091172222E03DED49ED5EE35B
:103F20000E94A53027E43EED4CEC5DE30E94202E7C
:103F300020E030E040E852E40E94A53023E333E380
:103F400043E550E40E94892E20E030E040E85FE342
:103F50000E94202E0E94302F6093432291C8089522
:103F60008091202290912122A0912222B09123229F
:103F70008093392090933A20A0933B20B0933C202B
:103F800027D9609335207093362080933720909303
:103F9000382008950E9428146093322270933322AF
:103FA00080933422909335220E9431146093212013
:103FB0007093222080932320909324200E943A140F
:103FC00060932520709326208093272090932820AB
:103FD0000895C6DFDFCF0895E0E0F9E086A197A15C
:103FE0008B56934084A795A781E08093462208953D
:103FF000E0E0F9E086A197A18855924084A795A7B3
:104000001092462208952F923F924F925F926F92A4
:104010007F928F929F92AF92BF92CF92DF92EF9258
:10402000FF920F931F93CF93DF93CDB7DEB7C354A7
:10403000D109CDBFDEBF8091242290912522019627
:1040400080932422909325226091EE217091EF219C
:104050008091F0219091F121209147222983409075
:10406000F2215090F3216090F4217090F52180901E
:10407000F6219090F721A090F821B090F921C090FE
:10408000FA21D090FB21E090FC21F090FD2140919D
:10409000FE215091FF2124964EAF5FAF24972091CF
:1040A00000223091012240910222509103222A8362
:1040B0003B834C835D83209100223091012240910B
:1040C0000222509103222E833F83488759872091F3
:1040D00004223091052240910622509107222A871E
:1040E0003B874C875D8720910422309105224091C7
:1040F0000622509107222E873F87488B598B2091AB
:1041000008223091092240910A2250910B222A8BD9
:104110003B8B4C8B5D8B2091082230910922409182
:104120000A2250910B222E8B3F8B488F598F209162
:104130000C2230910D2240910E2250910F222A8F95
:104140003B8F4C8F5D8F20910C2230910D2240913E
:104150000E2250910F222E8F3F8F48A359A32091FA
:104160000C2230910D2240910E2250910F222AA351
:104170003BA34CA35DA320911422309115224091C2
:104180001622509117222EA33FA348A759A720918A
:1041900014223091152240911622509117222AA7FD
:1041A0003BA74CA75DA720911C2230911D22409176
:1041B0001E2250911F222EA73FA748AB59AB20913A
:1041C0001C2230911D2240911E2250911F222AABA9
:1041D0003BAB4CAB5DAB2091202230912122409132
:1041E0002222509123222EAB3FAB48AF59AF2091F2
:1041F00018223091192240911A2250911B222AAF85
:104200003BAF4CAF5DAF2091182230911922409105
:104210001A2250911B2222962CAF3DAF4EAF5FAFBA
:10422000229720902422309025220091282210915C
:1042300029220E942B2F7F936F931F9239813F93E6
:10424000C301B2010E942B2F7F936F93C501B4016C
:104250000E942B2F7F936F93C701B6010E942B2FD3
:104260007F936F9324964FAD24974F9323965FAD22
:1042700023975F936A817B818C819D810E942B2F84
:104280009B01220F331F660F771F660F771F660F84
:10429000771FC901860F971F6AE070E00E944B32BA
:1042A0009F938F936E817F81888599850E942B2FA4
:1042B0007F936F9320E034E244E759E46A857B857D
:1042C0008C859D850E94A5300E942B2F20E432E42E
:1042D0004FE050E00E9480329B01772324F4222794
:1042E0003327261B370BC901330FAA0BBB0BBF9318
:1042F000AF939F938F936E857F85888999890E945C
:104300002B2F7F936F9320E034E244E759E46A89CE
:104310007B898C899D890E94A5300E942B2F20E4E7
:1043200032E44FE050E00E9480329F938F937F935E
:104330006F936E897F89888D998D0E942B2F7F9333
:104340006F936A8D7B8D8C8D9D8D0E942B2F0F2EF0
:10435000F4E6CF2ED12CE12CF12CF02DA701960103
:104360000E9480327F936F936E8D7F8D88A199A17B
:104370000E942B2F0F2EF0E18F2EF7E29F2EA12C03
:10438000B12CF02DA50194010E948032A701960165
:104390000E9480323F932F936AA17BA18CA19DA1A3
:1043A0000E942B2FA50194010E9480323F932F93EE
:1043B00020E030E040E251E46EA17FA188A599A5FC
:1043C0000E94A5300E942B2FCB016AE070E00E9472
:1043D0004B329F938F936AA57BA58CA59DA50E94C8
:1043E0002B2F7F936F9320E030E040E251E46EA5E5
:1043F0007FA588A999A90E94A53020E038EB4AE260
:1044000055E40E94202E0E942B2FCB016AE070E021
:104410000E944B329F938F9323E333E948E853E4A0
:104420006AA97BA98CA99DA90E94202E0E942B2FEE
:104430007F936F936EA97FA988AD99AD0E942B2FB2
:104440009F938F937F936F9320E030E040E251E49D
:104450006AAD7BAD8CAD9DAD0E94A5300E942B2F27
:104460009B01772324F422273327261B370BC9010E
:104470006AE070E00E944B329F938F9322966CAD5E
:104480007DAD8EAD9FAD22970E942B2F7F936F93B2
:104490003F922F921F930F9380911E208F938091B4
:1044A0001D208F9389E992E29F938F930E940A3493
:1044B000CDBFDEBF89E992E29F938F930E94F733CD
:1044C0000F900F90CD5BDF4FCDBFDEBFDF91CF915F
:1044D0001F910F91FF90EF90DF90CF90BF90AF9022
:1044E0009F908F907F906F905F904F903F902F9014
:1044F00008954F925F926F927F928F929F92AF92A8
:10450000BF92CF92DF92EF92FF920F931F93CF93C0
:10451000DF93CDB7DEB7A097CDBFDEBFA9E3B0E292
:10452000FC9111965C90119712966C9012971396CD
:104530007C90139714968C90149715969C901597D1
:104540001696AC90169717964C90A5E3B0E2EC91B6
:104550001196BC9011971296CC9012971396DC90FE
:1045600013971496EC9014971596FC901597169641
:104570001C9116971796AC91F9832F2F352D462D48
:10458000572D682D792D8A2D942D08E00E948833AF
:104590002A832F2F352D462D572D682D792D8A2DC5
:1045A000942D00E10E9488332B832F2F352D462D2B
:1045B000572D682D792D8A2D942D08E10E9488337E
:1045C0002C832F2F352D462D572D682D792D8A2D93
:1045D000942D00E20E9488332D832F2F352D462DF8
:1045E000572D682D792D8A2D942D08E20E9488334D
:1045F0002E832F2F352D462D572D682D792D8A2D61
:10460000942D00E30E9488332F832F2F352D462DC4
:10461000572D682D792D8A2D942D08E30E9488331B
:104620002887E9872E2F3B2D4C2D5D2D6E2D7F2D5C
:10463000812F9A2F08E00E9488332A872E2F3B2D46
:104640004C2D5D2D6E2D7F2D812F9A2F00E10E9424
:1046500088332B872E2F3B2D4C2D5D2D6E2D7F2DDE
:10466000812F9A2F08E10E9488332C872E2F3B2D13
:104670004C2D5D2D6E2D7F2D812F9A2F00E20E94F3
:1046800088332D872E2F3B2D4C2D5D2D6E2D7F2DAC
:10469000812F9A2F08E20E9488332E872E2F3B2DE0
:1046A0004C2D5D2D6E2D7F2D812F9A2F00E30E94C2
:1046B00088332F872E2F3B2D4C2D5D2D6E2D7F2D7A
:1046C000812F9A2F08E30E948833288B80E1EDE345
:1046D000F0E2DE01519601900D928A95E1F783E3B5
:1046E0008093CA01FE017196CE010196AE014F5D25
:1046F0005F4F60EC71E02191DB012C93DC012D9187
:10470000CD01DB0114962C93E417F507A1F7E0EC3B
:10471000F1E085E38287108280E1818388ED84BFA8
:1047200081E0838787858823ECF3A096CDBFDEBF29
:10473000DF91CF911F910F91FF90EF90DF90CF907D
:10474000BF90AF909F908F907F906F905F904F90B1
:104750000895EF92FF920F931F93CF93DF93CDB7FE
:10476000DEB7A497CDBFDEBF6091182270911922E9
:1047700080911A2290911B220E942B2F162F072F17
:104780006091102270911122809112229091132237
:104790000E942B2FE62FF72F40912822509129229B
:1047A0009A013695279536952795ABE7B4E10E9497
:1047B000A5329695879564E6689F9001699F300DB4
:1047C0001124421B530B40932A22E0902422F090A4
:1047D0002522A0912422B091252260912822709157
:1047E0002922409128225091292230912A22209179
:1047F0002A22909147228091462209831A83FB82C4
:10480000AC837D834E83FF83E88739872A879B8724
:104810008C878CE0FE013196DE011D9601900D9291
:104820008A95E1F78CE0EDE4F0E2DE015996019023
:104830000D928A95E1F783E38093CA0180E090E0CE
:10484000E0ECF1E0A9E1B0E0AC0FBD1FA80FB91F8B
:104850002C912083ADE0B0E0AC0FBD1FA80FB91FB5
:104860002C91248301968C30910561F7E0ECF1E006
:1048700085E38287108280E1818388ED84BF81E0B7
:10488000838787858823ECF3A496CDBFDEBFDF91B5
:10489000CF911F910F91FF90EF9008952F923F922B
:1048A0004F925F926F927F928F929F92AF92BF9240
:1048B000CF92DF92EF92FF920F931F93CF93DF93EC
:1048C000CDB7DEB7C354D109CDBFDEBF809124225E
:1048D0009091252201968093242290932522609125
:1048E000EE217091EF218091F0219091F1212091A2
:1048F000472229834090F2215090F3216090F421C7
:104900007090F5218090F6219090F721A090F821E9
:10491000B090F921C090FA21D090FB21E090FC21C9
:10492000F090FD214091FE215091FF2124964EAF41
:104930005FAF249720910022309101224091022202
:10494000509103222A833B834C835D832091002274
:104950003091012240910222509103222E833F8305
:1049600048875987209104223091052240910622E0
:10497000509107222A873B874C875D87209104222C
:104980003091052240910622509107222E873F87C1
:10499000488B598B209108223091092240910A229C
:1049A00050910B222A8B3B8B4C8B5D8B20910822E4
:1049B0003091092240910A2250910B222E8B3F8B7D
:1049C000488F598F20910C2230910D2240910E2258
:1049D00050910F222A8F3B8F4C8F5D8F20910C229C
:1049E00030910D2240910E2250910F222E8F3F8F39
:1049F00048A359A320910C2230910D2240910E2200
:104A000050910F222AA33BA34CA35DA32091142213
:104A10003091152240911622509117222EA33FA3C8
:104A200048A759A7209114223091152240911622AF
:104A3000509117222AA73BA74CA75DA720911C22C3
:104A400030911D2240911E2250911F222EA73FA778
:104A500048AB59AB20911C2230911D2240911E225F
:104A600050911F222AAB3BAB4CAB5DAB2091202277
:104A70003091212240912222509123222EAB3FAB34
:104A800048AF59AF209118223091192240911A2233
:104A900050911B222AAF3BAF4CAF5DAF2091182243
:104AA0003091192240911A2250911B2222962CAF4C
:104AB0003DAF4EAF5FAF2297209024223090252249
:104AC00000912822109129220E942B2F7F936F930F
:104AD0001F9239813F93C301B2010E942B2F7F9314
:104AE0006F93C501B4010E942B2F7F936F93C70171
:104AF000B6010E942B2F7F936F9324964FAD24977E
:104B00004F9323965FAD23975F936A817B818C815E
:104B10009D810E942B2F9B01220F331F660F771F51
:104B2000660F771F660F771FC901860F971F6AE010
:104B300070E00E944B329F938F936E817F818885B6
:104B400099850E942B2F7F936F9320E034E244E7F6
:104B500059E46A857B858C859D850E94A5300E94DD
:104B60002B2F9B01772324F422273327261B370B77
:104B7000B901330F880B990B0F2EF0E4CF2EF2E41E
:104B8000DF2EFFE0EF2EF12CF02DA70196010E9401
:104B900080329F938F937F936F936E857F858889F3
:104BA00099890E942B2F7F936F9320E034E244E792
:104BB00059E46A897B898C899D890E94A5300E946D
:104BC0002B2FA70196010E9480329F938F937F9392
:104BD0006F936E897F89888D998D0E942B2F7F938B
:104BE0006F936A8D7B8D8C8D9D8D0E942B2F0F2E48
:104BF000F4E6CF2ED12CE12CF12CF02DA70196015B
:104C00000E9480327F936F936E8D7F8D88A199A1D2
:104C10000E942B2F0F2EF0E18F2EF7E29F2EA12C5A
:104C2000B12CF02DA50194010E948032A7019601BC
:104C30000E9480323F932F936AA17BA18CA19DA1FA
:104C40000E942B2FA50194010E9480323F932F9345
:104C500020E030E040E251E46EA17FA188A599A553
:104C60000E94A5300E942B2FCB016AE070E00E94C9
:104C70004B329F938F936AA57BA58CA59DA50E941F
:104C80002B2F7F936F9320E030E040E251E46EA53C
:104C90007FA588A999A90E94A53020E038EB4AE2B7
:104CA00055E4CED70E942B2FCB016AE070E00E9422
:104CB0004B329F938F9323E333E948E853E46AA987
:104CC0007BA98CA99DA9BCD70E942B2F7F936F93A2
:104CD0006EA97FA988AD99AD0E942B2F9F938F93CA
:104CE0007F936F9320E030E040E251E46AAD7BAD0A
:104CF0008CAD9DAD0E94A5300E942B2F9B01772388
:104D000024F422273327261B370BC9016AE070E001
:104D10000E944B329F938F9322966CAD7DAD8EADEA
:104D20009FAD22970E942B2F7F936F933F922F92DC
:104D30001F930F9380911E208F9380911D208F933E
:104D400089E992E29F938F930E940A34CDBFDEBF20
:104D500089E992E29F938F930E94F733FADC1092D5
:104D600045220F900F90CD5BDF4FCDBFDEBFDF91AF
:104D7000CF911F910F91FF90EF90DF90CF90BF9058
:104D8000AF909F908F907F906F905F904F903F90EB
:104D90002F900895CF93DF93C0ECD1E026E02A87CF
:104DA0008883998388ED84BF81E08B8766ED74E109
:104DB00080E090E00E94A5178C81DF91CF9108954B
:104DC0002F923F924F925F926F927F928F929F921B
:104DD000AF92BF92CF92DF92EF92FF920F931F9309
:104DE000CF93DF93CDB7DEB72597CDBFDEBF0E944F
:104DF00035176BEA79E280E090E00E94A51778947D
:104E00008CEB8093400687E08093A2000E944E14B2
:104E10000E94B1156BEA70EB88E290E00E94A51742
:104E200080E28093A30A0E94E0170E9405180E9466
:104E300060140E94F8150E947E150E94BA170E9405
:104E4000EA170E94201F0E94581E0E94741E82E0D2
:104E500090E1A0DF89838FE190E19CDF2981281315
:104E6000E0C12F3F09F4DDC180E190E193DF898348
:104E70008FE090E18FDFF82F298130E040E050E0B3
:104E800060E070E080E090E008E30E946D332983E9
:104E9000932EA42EE52E6A83E72FF82E192F2F2F9D
:104EA00030E040E050E060E070E080E090E000E35F
:104EB0000E946D33F981F22BF983932AA42AE52A03
:104EC0002A81262B2A83DE2ED72AF82A192B8EE058
:104ED00090E160DF082F8DE090E15CDF482E8CE0F0
:104EE00090E158DF582E8BE090E154DF682E8AE085
:104EF00090E150DF782E89E090E14CDF882E202F62
:104F000030E040E050E060E070E080E090E008E2F7
:104F10000E946D33E981E829E22BE983932AA42AD0
:104F2000E52AFA81F62BFA83E72FED29F82A192BC7
:104F3000242D30E040E050E060E070E080E090E060
:104F400000E20E946D33F981F22BF983932AA42A9F
:104F5000E52AFA81F62BFA83E72BF82A192B252D5F
:104F600030E040E050E060E070E080E090E008E198
:104F70000E946D33F981F22BF983932AA42AE52A42
:104F8000FA81F62BFA83E72BF82A192B262D30E02D
:104F900040E050E060E070E080E090E000E10E94DE
:104FA0006D33F981F22BF983932AA42AE52AFA8139
:104FB000F62BE72BF82A192B272D30E040E050E0A4
:104FC00060E070E080E090E008E00E946D3389804E
:104FD000822A932AA42ABE2CB52ACF2EC62ADE2ED8
:104FE000D72AF82A192B89E190E1D4DE898388E158
:104FF00090E1D0DEE82E298130E040E050E060E032
:1050000070E080E090E008E30E946D33B22F332E11
:10501000242EA52FF62FE72F8A8399832E2D30E09B
:1050200040E050E060E070E080E090E000E30E944B
:105030006D33EB2EE22A332A242A5A2E552A6F2E5C
:10504000662A7E2E772A2A81282B2D838981892B17
:105050008C8387E190E19EDE082F86E190E19ADE65
:10506000482E85E190E196DE898384E190E192DE2D
:105070008A8383E190E18EDE8B8382E190E18ADE98
:10508000A82FE9E3F0E280829182A282B382C482F7
:10509000D582F6821783E5E3F0E2202F30E040E08E
:1050A00050E060E070E080E090E008E20E946D3344
:1050B000EA2AE22A332A242AF52EF528162F162961
:1050C000B72FB7292D81282B2D838C81892B8C8399
:1050D000242D30E040E050E060E070E080E090E0BF
:1050E00000E20E946D33E22A332A242AF52A162B85
:1050F000B72B2D81282B2D838C81892B8C832981A3
:1051000030E040E050E060E070E080E090E008E1F6
:105110000E946D33E22A332A242AF52A162BB72B54
:105120002D81282B2D838C81892B89832A8130E046
:1051300040E050E060E070E080E090E000E10E943C
:105140006D33E22A332A242AF52A162BB72B2D8118
:10515000282B2A838981892B89832B8130E040E0A9
:1051600050E060E070E080E090E008E00E946D3385
:105170002E29208333293183422942835F29538397
:10518000612B64837B2B75832A81822B86838981A3
:10519000982B978381E090E1FDDD898380E090E1A9
:1051A000F9DD9981692F70E0762F6627682B072E2D
:1051B000000C880B990B82D66093182270931922E9
:1051C00080931A2290931B2287E090E1E3DD89838C
:1051D00086E090E1DFDDE9812E2F30E0322F2227BB
:1051E000282B209328223093292284E090E1D2DDDD
:1051F000898383E090E1CEDDF9812F2F30E0322FDB
:105200002227282B209324223093252285E090E129
:10521000C1DD8093472288E090E1BCDD8093462287
:1052200017C00E9445186093392070933A208093EC
:105230003B2090933C200E94E818609335207093A7
:10524000362080933720909338201092472251D9EE
:105250000E94E81860931C2270931D2280931E22E6
:1052600090931F220E94E7196093142270931522D5
:1052700080931622909317220E94841F0E949D1DE6
:105280002596CDBFDEBFDF91CF911F910F91FF908B
:10529000EF90DF90CF90BF90AF909F908F907F90D6
:1052A0006F905F904F903F902F90089583E380938D
:1052B000CA0180E0E0ECF1E09FEF808394838F5F90
:1052C0008032D9F7E0ECF1E080E3828788ED84BF9B
:1052D00081E0838787858823ECF30895E7DF8FB724
:1052E000F89498ED94BF91E0909379008FBF089562
:1052F00090E0FC01E156F109E331F105C8F488279B
:10530000E250FF4F8F4F0C949C32E8CF08950C94DD
:10531000E91F08950C94B01F08950C94CA1F0895B6
:105320000C94EC1F08950C94F81F08950C9403201E
:105330000895CF93DF93CDB7DEB7C856D109CDBF5F
:10534000DEBF3EDD66E573E288E090E00E94A517CF
:10535000E0E6F6E0808188608083848188608483D1
:105360000E942E1F6BE27CE28AE090E00E94A5176B
:105370000E94481F14E1BE016F5F7F4FFB01812F28
:1053800011928A95E9F74AE050E0CE0145960E94D5
:105390006E16BE01635E7F4F88E2FB0111928A9513
:1053A000E9F74AE050E0CE018B5B9F4F0E94F61672
:1053B000BE01635B7F4FFB0111921A95E9F74AE04A
:1053C00050E0CE018F599F4F0E946E160DEF1FEFD8
:1053D000E12CF12C0F2EFDEFCF2EF02DDD24DA94F1
:1053E000BE016B5B7F4FCE0145960E94CC1B0E9495
:1053F0009D1D0E944A1C8091282290912922801B89
:10540000910B029721F40E9459140C2D1D2D8091AF
:105410004722813041F008F469C0823079F083304E
:1054200009F455C061C0F11061C00E945914009187
:10543000282210912922FF24F39458C06091182249
:105440007091192280911A2290911B2220E030E065
:1054500041EE53E4F5D3FFD49B01772324F42227B4
:105460003327261B370B2A303105C4F40E94EC1F6A
:10547000CE018F599F4F0E94281D8091EE2190915F
:10548000EF21A091F021B091F121809325209093FC
:105490002620A0932720B09328200EC0809146227A
:1054A000882351F0CE018F599F4F0E94281DCE01B5
:1054B0008F599F4F0E948C1EF11018C00E945914E2
:1054C0000091282210912922FF24F3940FC0E110AB
:1054D0000DC00E942E1F0E94591400912822109185
:1054E0002922EE24E39402C00E949D1D8091452252
:1054F0008823D9F00E94E81860931C2270931D2223
:1055000080931E2290931F220E94E7196093142219
:105510007093152280931622909317220E94841F65
:105520000E944F1FBBD910924522809144228823AC
:1055300039F080913622DCDE10923622109244221D
:105540008091262290912722019680932622909383
:1055500027228091282290912922892B09F440CF7B
:1055600080912622909127226091282270912922F1
:105570007ED760931F207093202032CF1F920F920E
:105580000FB60F92112408B60F9218BE8F939F93F7
:10559000809128229091292201968093282290932D
:1055A000292281E0809345229F918F910F9008BE20
:1055B0000F900FBE0F901F9018951F920F920FB66D
:1055C0000F92112408B60F9218BE09B60F9219BE99
:1055D0000BB60F921BBE2F933F934F935F936F9326
:1055E0007F938F939F93AF93BF93EF93FF9380EA43
:1055F0009AE00E94030B8093362281E0809344223C
:10560000FF91EF91BF91AF919F918F917F916F919A
:105610005F914F913F912F910F900BBE0F9009BE5C
:105620000F9008BE0F900FBE0F901F9018951F92FD
:105630000F920FB60F92112408B60F9218BE09B63A
:105640000F9219BE0AB60F921ABE0BB60F921BBE6E
:105650008F929F92AF92BF92CF92DF92EF92FF9282
:105660001F932F933F934F935F936F937F938F93EA
:105670009F93AF93BF93EF93FF93CF93DF9300D0AC
:1056800000D0CDB7DEB780EB99E00E94030B182F56
:10569000843251F481E080932F2210922E221092B6
:1056A0002D2210922C225DC28A3229F410922C22D3
:1056B00010922F2256C28C3209F053C2E1E8F2E276
:1056C00080E280838181803209F07AC280E3809316
:1056D000812276C2809181228E3209F0A6C1ACC1AE
:1056E000809181228E3209F0F2C0F8C0809181222F
:1056F0008E3209F053C059C091919E3229F401C0F5
:1057000080E080932B2203C08F5F8F30A9F7E09158
:105710002B22F0E0EF57FD4D80E2808320912B2279
:105720002F5F2F30C8F4822F90E0FC01EF57FD4D22
:105730003081303289F040E208C0822F90E0FC01D5
:10574000EF57FD4D3081303239F0FC01EF57FD4D00
:1057500040832F5F2F3089F7CE0101969F938F935F
:1057600084EA91E29F938F9381E892E29F938F93D3
:105770000E94323469817A818B819C819FD36093AE
:105780000C2270930D2280930E2290930F220F9083
:105790000F900F900F900F900F90C5C1E2E8F2E2CA
:1057A00081E091919E3229F401C080E080932B2208
:1057B00003C08F5F8F30A9F7E0912B22F0E0EF5705
:1057C000FD4D80E2808320912B222F5F2F3008F542
:1057D000822F90E0FC01EF57FD4D30813032C9F04F
:1057E00050E208C0822F90E0FC01EF57FD4D308160
:1057F000303279F040912B22FC01E41BF109ED5687
:10580000FD4D3083FC01EF57FD4D50832F5F2F304E
:1058100049F780919422803219F480E38093942296
:10582000CE0101969F938F9384EA91E29F938F9389
:1058300081E892E29F938F930E943234CE010596C5
:105840009F938F9388EA91E29F938F9384E992E2EA
:105850009F938F930E94323489809A80AB80BC8062
:105860006D817E81072E000C880B990B27D320E0D9
:1058700030E44CE156E44DD26B017C01C501B4012A
:1058800024E630E040E050E03BD649015A0116D30F
:105890009B01AC01C701B601D4D120E030E040E764
:1058A00052E437D26B017C01C501B40107D39B01DF
:1058B000AC01C701B601C5D16093082270930922DB
:1058C00080930A2290930B22CDBFDEBF2CC1E2E869
:1058D000F2E281E091919E3229F401C080E0809350
:1058E0002B2203C08F5F8F30A9F7E0912B22F0E0CD
:1058F000EF57FD4D80E2808320912B222F5F2F30C8
:1059000008F5822F90E0FC01EF57FD4D30813032D9
:10591000C9F050E208C0822F90E0FC01EF57FD4D26
:105920003081303279F040912B22FC01E41BF109E7
:10593000ED56FD4D3083FC01EF57FD4D50832F5F39
:105940002F3049F780919422803219F480E38093BC
:105950009422CE0101969F938F9384EA91E29F93C4
:105960008F9381E892E29F938F937CD7CE01059627
:105970009F938F9388EA91E29F938F9384E992E2B9
:105980009F938F936FD789809A80AB80BC806D8105
:105990007E81072E000C880B990B90D220E030E41A
:1059A0004CE156E4B6D16B017C01C501B40124E69B
:1059B00030E040E050E0A4D549015A017FD29B017C
:1059C000AC01C701B6013DD120E030E040E752E430
:1059D000A0D16B017C01C501B40170D29B01AC0167
:1059E000C701B6012ED1DC01CB01B058809304224F
:1059F00090930522A0930622B0930722CDBFDEBF6D
:105A000092C08EEF91E29F938F9388EA91E29F93E9
:105A10008F9381E892E29F938F9324D70F900F90FA
:105A20000F900F900F900F907EC0E2E8F2E281E0BD
:105A300091919E3229F401C080E080932B2203C013
:105A40008F5F8F30A9F7E0912B22F0E0EF57FD4DEB
:105A500080E2808320912B222F5F2F3008F5822F48
:105A600090E0FC01EF57FD4D30813032C9F050E23B
:105A700008C0822F90E0FC01EF57FD4D308130329D
:105A800079F040912B22FC01E41BF109ED56FD4D0C
:105A90003083FC01EF57FD4D50832F5F2F3049F7C6
:105AA00080919422803219F480E380939422CE0175
:105AB00001969F938F9384EA91E29F938F9381E85D
:105AC00092E29F938F93CED6CE0105969F938F93AC
:105AD00088EA91E29F938F9384E992E29F938F9358
