S00F0000536B79466972652E7372656358
S113000057C100007BC1000079C1000077C1000026
S113001075C1000073C1000071C100006FC1000010
S11300206DC100006BC1000069C1000067C1000020
S113003065C100001AC3000061C100005FC1000077
S11300405DC100005BC1000059C1000057C1000040
S113005055C1000053C1000051C100004FC1000050
S11300604DC100004BC1000049C1000047C1000060
S113007045C1000043C1000041C100003FC1000070
S11300803DC100003BC1000039C1000037C1000080
S113009035C1000033C1000031C100002FC1000090
S11300A02DC100002BC1000029C1000027C10000A0
S11300B025C1000023C100000AC300000C942D18C0
S11300C01DC100001BC1000019C1000017C10000C0
S11300D015C1000013C1000011C100000FC10000D0
S11300E00DC100000BC100000C944C1807C10000A6
S11300F005C1000003C1000001C10000FFC00000F1
S1130100FDC00000FBC00000F9C00000F7C0000003
S1130110F5C00000F3C00000F1C000001BC10000E6
S113012056C1000091C10000CCC10000E7C000002E
S1130130E5C00000E3C00000E1C00000DFC0000033
S1130140DDC00000DBC00000D9C00000D7C0000043
S1130150D5C00000D3C00000D1C00000CFC0000053
S1130160CDC00000CBC00000C9C000000C948618AC
S1130170C5C00000C3C00000C1C00000BFC0000073
S1130180BDC00000BBC00000B9C00000B7C0000083
S1130190B5C00000B3C00000B1C00000AFC0000093
S11301A0ADC00000ABC00000A9C00000A7C00000A3
S11301B0A5C00000A3C00000A1C000009FC00000B3
S11301C09DC000009BC0000099C0000097C00000C3
S11301D095C0000093C0000091C000008FC00000D3
S11301E08DC000008BC0000089C0000087C00000E3
S11301F085C0000083C0000081C00000661763173B
S1130200601774175D175B177617761776177617CE
S11302107617761776177617761776177617761772
S11302206D1707634236B79BD8A71A39685618AEBC
S1130230BAAB558C1D3CB7CC5763BD6DEDFD753E17
S1130240F6177231BF000000803F08000000BE9224
S11302502449123EABAAAA2ABECDCCCC4C3E000007
S11302600080BEABAAAAAA3E00000000BF000000A6
S1130270803F0000000000084178D3BB4387D113BE
S11302803D190E3CC3BD4282AD2B3E68EC8276BE66
S1130290D98FE1A93E4C80EFFFBE01C4FF7F3F0030
S11302A0000000006364696E6F70737578585B00BA
S11302B011241FBECFEFCDBFDFE3DEBF00E00CBFD4
S11302C018BE19BE1ABE1BBE10E2A0E0B0E2E8E8F8
S11302D0FFE400E00BBF02C007900D92AE3DB107F2
S11302E0D9F71BBE21E2AEEDB0E201C01D92AC3FD6
S11302F0B207E1F70E9477170C94C22781CECF93FF
S1130300DF931F92CDB7DEB780914B2190914C21A2
S1130310E0914721F0914821BE016F5F7F4F19950D
S11303208981082E000C990B0F90DF91CF910895CD
S1130330682F80914B2190914C21E0914921F091BB
S11303404A21199599231CF081E090E008958FEFDC
S11303509FEF08951F920F920FB60F92112408B6C3
S11303600F9218BE09B60F9219BE0BB60F921BBEA0
S11303702F933F934F935F936F937F938F939F93A9
S1130380AF93BF93EF93FF934091240250912502C2
S1130390E0914D21F0914E2161E080E092E01995C9
S11303A0FF91EF91BF91AF919F918F917F916F9149
S11303B05F914F913F912F910F900BBE0F9009BE0B
S11303C00F9008BE0F900FBE0F901F9018951F92AC
S11303D00F920FB60F92112408B60F9218BE09B6E9
S11303E00F9219BE0BB60F921BBE2F933F934F93E0
S11303F05F936F937F938F939F93AF93BF93EF9389
S1130400FF9340912C0250912D02E0914D21F091E7
S11304104E2162E080E092E01995FF91EF91BF9147
S1130420AF919F918F917F916F915F914F913F9188
S11304302F910F900BBE0F9009BE0F9008BE0F9026
S11304400FBE0F901F9018951F920F920FB60F9228
S1130450112408B60F9218BE09B60F9219BE0BB636
S11304600F921BBE2F933F934F935F936F937F9392
S11304708F939F93AF93BF93EF93FF934091340275
S113048050913502E0914D21F0914E2164E080E0DD
S113049092E01995FF91EF91BF91AF919F918F9148
S11304A07F916F915F914F913F912F910F900BBE70
S11304B00F9009BE0F9008BE0F900FBE0F901F90B3
S11304C018951F920F920FB60F92112408B60F922F
S11304D018BE09B60F9219BE0BB60F921BBE2F930E
S11304E03F934F935F936F937F938F939F93AF93B8
S11304F0BF93EF93FF9340913C0250913D02E091F2
S11305004D21F0914E2168E080E092E01995FF9131
S1130510EF91BF91AF919F918F917F916F915F9177
S11305204F913F912F910F900BBE0F9009BE0F90EA
S113053008BE0F900FBE0F901F901895CF93DF93B6
S1130540E091DE20F091DF20848183FF08C0886081
S1130550848383E0838386EF8093E82083C0982F8D
S1130560947131F083E083838FEF8093E8207AC025
S113057086FF43C0CEEDD0E2AA81BB818C819D81F0
S113058014962D913C911597821793076CF49C0156
S11305902F5F3F4F2093E2203093E320A80FB91F31
S11305A011968C9187835EC08091E4209091E52020
S11305B018962D913C91199782179307C8F42091AE
S11305C0E620222321F08681816086834BC0169623
S11305D02D913C911797AC014F5F5F4F4093E420FE
S11305E05093E520D901A80FB91F8C9187833AC095
S11305F083E083831092E82035C0882384F5AEED30
S1130600B0E21296CD91DC91139716968D919C9140
S113061017972885398582179307D8F46E817F81CF
S11306209C012F5F3F4F2093E4203093E5204781C6
S1130630DB01A80FB91F4C938885998528173907C2
S113064018F482E083830EC087E083831092E8204D
S113065009C083E0838389EF8093E82003C08BEF94
S11306608093E820DF91CF9108951F920F920FB6E7
S11306700F92112408B60F9218BE09B60F9219BE34
S11306800BB60F921BBE2F933F934F935F936F93C1
S11306907F938F939F93AF93BF93EF93FF934EDF1B
S11306A0FF91EF91BF91AF919F918F917F916F9146
S11306B05F914F913F912F910F900BBE0F9009BE08
S11306C00F9008BE0F900FBE0F901F9018951F92A9
S11306D00F920FB60F92112408B60F9218BE09B6E6
S11306E00F9219BE0BB60F921BBE2F933F934F93DD
S11306F05F936F937F938F939F93AF93BF93EF9386
S1130700FF931CDFFF91EF91BF91AF919F918F9168
S11307107F916F915F914F913F912F910F900BBEFD
S11307200F9009BE0F9008BE0F900FBE0F901F9040
S11307301895FC01918195FFFDCF608380E090E0E6
S11307400895FC0191819923ECF7808108954F92DB
S11307505F926F927F928F929F92AF92BF92EF922D
S1130760FF920F931F93CF937C014A015B012801F1
S11307703901FC01848182FF16C0D901C801689443
S113078012F8B695A795979587951694D1F7B90160
S1130790A801032E36E176956795579547953A95C6
S11307A0D1F7302D15C0D901C801689413F8B69556
S11307B0A795979587951694D1F7B901A801032EAB
S11307C037E176956795579547953A95D1F7302D4A
S11307D088159905AA05BB0508F4A6C084169506D4
S11307E0A606B70608F4A2C0F701848182FD04C0FE
S11307F0880C991CAA1CBB1CC301B201A50194015D
S11308000E94421F2F3F31054105510508F490C055
S11308108FEF90E0A0E0B0E0C9EF05C028173907DA
S11308204A075B0758F0880F991FAA1FBB1FCD3FCB
S11308300CF48160CF5FC73089F74FC0CC230CF034
S11308404CC0D501C401880F991FAA1FBB1F880F74
S1130850991FAA1FBB1F880F991FAA1FBB1F481AE5
S1130860590A6A0A7B0ACE3FF4F48DEF9FEF8C1B82
S11308709109C7FD939504C0440C551C661C771C54
S11308808A95D2F7D501C401B695A7959795879512
S1130890BC01CD01640D751D861D971DA501940134
S11308A00E94421F37C083E08C0FA501940104C04D
S11308B0220F331F441F551F8A95D2F7DA01C9014D
S11308C0B695A79597958795BC01CD01640D751DC7
S11308D0861D971D0E94421F1DC083E08C0FA50139
S11308E0940104C0220F331F441F551F8A95D2F769
S11308F0DA01C901B695A79597958795BC01CD01F5
S1130900640D751D861D971D0E94421F21503109DB
S113091041095109832F8F70C295C07FC82BF701FD
S1130920C783268381E018C080E016C080E014C02D
S1130930D501C401880F991FAA1FBB1F880F991FD7
S1130940AA1FBB1F880F991FAA1FBB1F481A590A49
S11309506A0A7B0AC9EF89CFCF911F910F91FF904B
S1130960EF90BF90AF909F908F907F906F905F902B
S11309704F9008950F931F93CF93DF93EC018B0156
S1130980009709F4BEC0803C910521F460E180E049
S1130990FBD3B7C0C11584E0D80721F464E080E03C
S11309A0F3D3AFC0C038E1E0DE0721F462E080E0B9
S11309B0EBD3A7C0C115F1E0DF0721F461E080E0CB
S11309C0E3D39FC0C03883E0D80721F461E081E01D
S11309D0DBD397C0C115E2E0DE0721F462E081E0D9
S11309E0D3D38FC0C032F3E0DF0721F464E082E0A8
S11309F0CBD387C0C11588E0D80721F461E083E038
S1130A00C3D37FC0C115E9E0DE0721F461E084E0CF
S1130A10BBD377C0C115FAE0DF0721F461E085E0BC
S1130A20B3D36FC0C03488E0D80721F462E083E018
S1130A30ABD367C0C034E9E0DE0721F462E084E0B0
S1130A40A3D35FC0C039F8E0DF0721F464E083E09A
S1130A509BD357C0C03989E0D80721F464E084E00F
S1130A6093D34FC0C039EAE0DE0721F464E085E0A7
S1130A708BD347C0C03CF8E0DF0721F468E083E093
S1130A8083D33FC0C03C89E0D80721F468E084E008
S1130A907BD337C0C03AE8E0DE0721F460E183E0AD
S1130AA073D32FC0C03AF9E0DF0721F460E184E09A
S1130AB06BD327C0C03A8AE0D80721F460E185E00F
S1130AC063D31FC0C03BE8E0DE0721F460E283E0AB
S1130AD05BD317C0C03BF9E0DF0721F460E284E098
S1130AE053D30FC0C03884E0D80721F460E483E016
S1130AF04BD307C0C03AE4E0DE0719F460E485E0B4
S1130B0043D38D818F738D83F80195818481892BE3
S1130B109681911198E0892B8D83F8014081518150
S1130B206281738100E018E428EE31E0CE010FDE2B
S1130B309C8198609C839C8190619C83DF91CF9180
S1130B401F910F910895089560916E2170916F2106
S1130B50809170219091712108956091722170911A
S1130B6073218091742190917521089560916A2177
S1130B7070916B2180916C2190916D210895E0E03A
S1130B80F6E0948188E0892784830895E0E0F6E024
S1130B90808188608083F3CF0895FF920F931F9321
S1130BA0CF93DF9362E081E0EFD2C0E0D2E0FF2494
S1130BB0F394F882198280E18A8385E08C8361E270
S1130BC070E082E0F7D2082F10E0102F002760E2D7
S1130BD070E082E0EFD2082B0C871D87F8A219A2DF
S1130BE0DF91CF911F910F91FF900895CF93DF93E1
S1130BF0CDB7DEB72797CDBFDEBF60E284E0C4D2B5
S1130C00E0E6F6E0808180688083E6E0F0E28481BB
S1130C108D8385818E8386818F8380819181A2815A
S1130C20B38189839A83AB83BC8360E284E0ACD2D2
S1130C30BE016F5F7F4F80EB99E09CDE2796CDBFAE
S1130C40DEBFDF91CF91089504C06150710981091D
S1130C5091096115710581059105B9F70895E0E4DD
S1130C60F6E0948180E1892784830895E0E4F6E046
S1130C70848180618483F3DF8EE1B9D060E87EE310
S1130C8080E090E0E1DFEBDF6BEA79E280E090E086
S1130C90DBCF0895CF93DF93C82FE1DF8C2FA7D04C
S1130CA097D0C82FD0E0DC2FCC2792D0C82BD7DF29
S1130CB0CE01DF91CF910895CF93DF9300D01F929F
S1130CC0CDB7DEB719821A821B821C82C8DF88E482
S1130CD08ED066E570ED80E090E0B6DFC0DFBFDF68
S1130CE080E085D075D090E0A0E0B0E0DC019927E9
S1130CF0882789839A83AB83BC836AD049815A81CC
S1130D006B817C81582B49835A836B837C8360D0AD
S1130D1049815A816B817C81482B49835A836B8337
S1130D207C839DDF69817A818B819C812496CDBFF0
S1130D30DEBFDF91CF910895CF93DF9300D01F9250
S1130D40CDB7DEB719821A821B821C8288DF88E540
S1130D504ED066E570ED80E090E076DF80DF7FDFE7
S1130D6080E045D035D090E0A0E0B0E0DC019927E8
S1130D70882789839A83AB83BC832AD049815A818B
S1130D806B817C81582B49835A836B837C8320D06D
S1130D9049815A816B817C81482B49835A836B83B7
S1130DA07C835DDF69817A818B819C812496CDBFB0
S1130DB0DEBFDF91CF910895E0E4F6E08081806B9F
S1130DC0808368E083E0E0D18CE58093C0080895D7
S1130DD09FB7F8948FEF8093C308E0ECF8E082812A
S1130DE08823ECF778949FBF8091C30808959FB738
S1130DF0F8948093C308E0ECF8E082818823ECF750
S1130E0078949FBF0895CF93DF93EB019ADC888396
S1130E10DF91CF9108958DCC0895CF93DF93CDB713
S1130E20DEB72797CDBFDEBF60E185E0ADD1E0E856
S1130E30F6E080818860808380EA9AE080934B2189
S1130E4090934C218BE097E08093492190934A2121
S1130E5083E097E08093472190934821EDE0F0E20E
S1130E6084818D8385818E8386818F838081918126
S1130E70A281B38189839A83AB83BC8360E185E0DB
S1130E8083D1BE016F5F7F4F80EA9AE073DD6FE725
S1130E9071E088E991E00E94D91F2796CDBFDEBF9B
S1130EA0DF91CF910895FF920F931F93CF93DF9318
S1130EB062E081E069D1C0E0D2E0FF24F394F882DB
S1130EC0198280E18A8385E08C8361E270E082E0AC
S1130ED071D1082F10E0102F002760E270E082E04B
S1130EE069D1082B0C871D87F8A619A6DF91CF912D
S1130EF01F910F91FF900895E0E0F2E080A58068D3
S1130F0080A783A58823E9F380912C0290912D0278
S1130F100895CF93DF93FC0141155105B1F180E0B1
S1130F2090E020E0880F991FDB01A80FB91F8D9175
S1130F309C91A281B381AA0FBB1FC681D781AC0F3C
S1130F40BD1F8D939C9382819381019682839383A9
S1130F50A081B1818A179B0711F4128213828281C6
S1130F609381C481D5818C179D0749F40196A817F4
S1130F70B90719F08483958302C0148215822F5F08
S1130F80822F90E08417950768F2DF91CF9108953E
S1130F90FC01128213821482158266837783408354
S1130FA051830895DC011296ED91FC911397CB01C6
S1130FB00196E817F90778F0E150F048E61BF70BC3
S1130FC0EE0FFF1F16968D919C911797E80FF91F4E
S1130FD08081918108952D913C911197E20FF31F27
S1130FE0E150F048E61BF70BEE0FFF1F16968D91AC
S1130FF09C911797E80FF91F808191810895CF92F2
S1131000DF92EF92FF92CF93DF93FC0141155105DC
S113101009F43FC080E090E020E0880F991F880F1A
S1131020991FDB01A80FB91FCD90DD90ED90FC90C6
S1131030A281B381AA0FBB1FAA0FBB1F8681978110
S1131040A80FB91FCD92DD92ED92FC921397828185
S11310509381019682839383A081B1818A179B0730
S113106011F41282138282819381C481D5818C17F9
S11310709D0749F40196A817B90719F0848395834D
S113108002C0148215822F5F822F90E08417950787
S113109020F2DF91CF91FF90EF90DF90CF900895F1
S11310A0FC01128213821482158266837783408343
S11310B051830895DC011296ED91FC911397CB01B5
S11310C00196E817F90798F0E150F04CE61BF70B8E
S11310D0EE0FFF1FEE0FFF1F16968D919C91179731
S11310E0E80FF91F608171818281938108952D91A8
S11310F03C911197E20FF31FE150F04CE61BF70B04
S1131100EE0FFF1FEE0FFF1F16968D919C91179700
S1131110E80FF91F60817181828193810895CF93D3
S1131120DF931F921F92CDB7DEB78FEF80937000CD
S11311308093710080937200809373008093740095
S113114080937500809376008FB78A83F8949A8190
S1131150E0E5F0E08081826080839FBF818181FF30
S1131160FDCF61E080E490E02FD08FB78983F894BD
S11311709981E0E5F0E080818E7F80839FBF0F90AE
S11311800F90DF91CF910895CF93DF931F92CDB746
S1131190DEB79FB79983F8949981E82FF0E0E0597E
S11311A0FF4F60958081682360839FBF0F90DF911C
S11311B0CF9108954091CA01E62FF72F8093CA0179
S11311C084914093CA0108951BBEFC0128ED24BFFD
S11311D06083089504C06150710981099109611502
S11311E0710581059105B9F70895CF93DF933EDD2D
S11311F082EA90E04FDDC7E3D1E28883998384EAF1
S113120090E048DD8A839B8386EA90E043DD8C830B
S11312109D8388EA90E03EDD8E839F838AEA90E096
S113122039DD888799878CEA90E034DD8A879B874B
S1131230DF91CF910895DADC6BEA79E280E090E007
S1131240C9DF80E38093B309089580EB94E0809331
S113125028099093290981E08093452108954F92AC
S11312605F926F927F928F929F92AF92BF92CF9232
S1131270DF92EF92FF92CF93DF931EDD6B017C012F
S11312805BDD0E948E1C4B015C01C7E3D1E26885E3
S1131290798580E090E00E948E1C20E030E040E8F8
S11312A053E40E94441D9B01AC01C501B4010E949A
S11312B08C1B4B015C016C817D8180E090E00E947D
S11312C08E1CA50194010E94441D20E030E040E002
S11312D05CE30E94441D2B013C016881798180E01C
S11312E090E00E948E1C20E030E040E857E40E9429
S11312F0441D9B01AC01C301B2010E948D1B2B0153
S11313003C01C701B6010E948E1C9B01AC01C301C4
S1131310B2010E94441D20E030E040E055E30E9409
S1131320441D6B017C016E817F8180E090E00E940E
S11313308E1CA50194010E94441D20E030E040E889
S11313405CE30E94441D4B015C016A817B8180E067
S113135090E00E948E1C20E030E040E058E40E94BF
S1131360441D9B01AC01C501B4010E948D1B9B016E
S1131370AC01C701B6010E948C1B20E030E040E0C4
S113138058E30E94441DDF91CF91FF90EF90DF90CE
S1131390CF90BF90AF909F908F907F906F905F9011
S11313A04F9008954F925F926F927F928F929F9287
S11313B0AF92BF92CF92DF92EF92FF922B013C014A
S11313C0C0901F20D0902020E0902120F090222077
S11313D020912320309124204091252050912620D3
S11313E0C701B6010E94441D20911B2030911C208E
S11313F040911D2050911E200E94F51B4B015C0161
S1131400A301920160912B2070912C2080912D20BA
S113141090912E200E94F51BA50194010E94A71D06
S113142020E030E040E85FE30E948C1B20912720FD
S1131430309128204091292050912A200E94441D57
S1131440A70196010E94F51BFF90EF90DF90CF90CB
S1131450BF90AF909F908F907F906F905F904F90D0
S11314600895CF92DF92EF92FF9246DDBC0180E0B7
S113147090E00E948E1C23E43EE242E05AE30E9484
S1131480441D24EE3AE545EC5DE30E948C1B6B01A0
S11314907C012BE235EB42E150E40E94441D9B01A8
S11314A0AC01C701B6010E948D1BFF90EF90DF9045
S11314B0CF9008952F923F924F925F926F927F92B6
S11314C08F929F92AF92BF92CF92DF92EF92FF9250
S11314D00F931F93CF93DF9300D000D0CDB7DEB727
S11314E06C0180911420882309F46CC000E010E0A2
S11314F0412C512C3201862E912CA12CB12C8982A5
S11315009A82AB82BC82B801C6014CDD5C01180131
S11315102FEF221A320AB101C60144DD7C01B80161
S11315206E5F7F4FC6013EDDA501BB0C660B770BDA
S11315308A019B01000F111F221F331F400F511FEF
S1131540621F731F8701FF0C220B330B7801890183
S1131550EE0CFF1C001F111FEE0CFF1C001F111FBF
S11315604A015B018E189F08A00AB10AAC01990FC9
S1131570660B770BD501C401840F951FA61FB71FF7
S11315809C01AD0169817A818B819C810E940C1F31
S11315900E94901C20E030E040E05FE30E94441D84
S11315A09B01AC01C301B2010E948D1B2B013C01C4
S11315B0809114208101282F30E02216330608F48C
S11315C0A2CF03C0412C512C3201682F70E080E07F
S11315D090E00E94901C9B01AC01C301B2010E94E7
S11315E0F51B20E030E048EC52E40E94F51B2696FF
S11315F0CDBFDEBFDF91CF911F910F91FF90EF9090
S1131600DF90CF90BF90AF909F908F907F906F901E
S11316105F904F903F902F9008953F924F925F922A
S11316206F927F928F929F92AF92BF92CF92DF92EE
S1131630EF92FF920F931F93CF93DF9300D000D0CC
S1131640CDB7DEB78C0119821A82C12CD12C760158
S113165069817A81C8012EDD4B015C0121E6821A81
S11316602EEA920A2AE0A20AB1082FE782162AE19A
S1131670920626E0A206B10480F40E94901C20E0A9
S113168030E040EA50E40E94F51B9B01AC01C70125
S1131690B6010E948D1B6B017C0189819A810196A0
S11316A089839A830597A1F619821A82812C912C39
S11316B0540169817A81C801FDDC2B013C0121E6DA
S11316C0421A2EEA520A2AE0620A71082FE74216E9
S11316D02AE1520626E06206710490F40E94901CEE
S11316E0A70196010E948C1B9B01AC010E94441D22
S11316F09B01AC01C501B4010E948D1B4B015C012F
S113170089819A81019689839A83059791F620E0CD
S113171030E040E85EE3C501B4010E94441D6983E2
S11317207A838B839C831D821E82312C412C512C05
S113173032016D817E81C801BDDC4B015C0121E673
S1131740821A2EEA920A2AE0A20AB1082FE7821628
S11317502AE1920626E0A206B10450F50E94901CEC
S11317604B015C01A70196010E948C1B0E945D1C29
S11317709B01772324F422273327261B370BB90137
S1131780330F880B990B0E94901C9B01AC0169815B
S11317907A818B819C810E94401D88234CF0A50195
S11317A09401C301B2010E948D1B2B013C013394AF
S11317B08D819E8101968D839E83059709F0B9CF13
S11317C0332069F0632D70E080E090E00E948E1C6D
S11317D09B01AC01C301B2010E94F51B04C060E08F
S11317E070E080E89FEB2696CDBFDEBFDF91CF91FE
S11317F01F910F91FF90EF90DF90CF90BF90AF902B
S11318009F908F907F906F905F904F903F9008953E
S1131810AF92BF92CF92DF92EF92FF920F931F93FA
S1131820CF93DF9300D000D0CDB7DEB75C018B013E
S113183016DD20E030E040E251E40E94441D0E94A5
S11318405D1C69837A838B839C8341E050E0BE01F5
S11318506F5F7F4FC801D3DBC801DFDE20E030E0DB
S113186040E251E40E94F51B6B017C0120E030E072
S113187040E85FEB0E94F11B8823D1F1C0921B2149
S1131880D0921C21E0921D21F0921E21C701B601C5
S113189089DD609313217093142180931521909313
S11318A0162160911321709114218091152190913A
S11318B0162120E030E048EC52E40E94441D0E94CE
S11318C05D1C6D837E8341E050E0BE016B5F7F4F02
S11318D0C5011FDB6091172070911820C501EADD56
S11318E060930B2170930C2180930D2190930E2112
S11318F083E393E1A5E9B3E480931721909318213E
S1131900A0931921B0931A21ACDD60930F21709339
S1131910102180931121909312212696CDBFDEBF12
S1131920DF91CF911F910F91FF90EF90DF90CF90B7
S1131930BF90AF90089580914621813081F138F0B5
S1131940823009F455C0833009F4FCC07CC0609136
S11319500B2170910C2180910D2190910E2120E09A
S113196030E040E450E40E94F11B88230CF0EAC00C
S11319706091132170911421809115219091162169
S113198020E030E041EE53E40E94401D18160CF0B4
S1131990D9C0809146218F5F80934621089560913C
S11319A00B2170910C2180910D2190910E2120E04A
S11319B030E040E450E40E94F11B882384F46091F9
S11319C0132170911421809115219091162120E00A
S11319D030E041EE53E40E94F11B88231CF081E0C7
S11319E080934521809146218F5F809346210895FD
S11319F060910B2170910C2180910D2190910E2109
S1131A000E945D1C9B01772324F422273327261B85
S1131A10370B233031058CF0609113217091142120
S1131A20809115219091162120E030E040E251E4AC
S1131A300E94F11B88230CF085C0809146218F5FA2
S1131A4080934621089560910B2170910C2180911F
S1131A500D2190910E2120E030E040E450E40E94FA
S1131A60401D181614F410924621609113217091B0
S1131A701421809115219091162120E030E041EE4F
S1131A8053E40E94401D18169CF460910B21709140
S1131A900C2180910D2190910E2120E030E040E452
S1131AA050E40E94F11B88231CF481E080934621BA
S1131AB06091132170911421809115219091162128
S1131AC020E030E041EE53E40E94F11B88239CF4B3
S1131AD060910B2170910C2180910D2190910E2128
S1131AE020E030E040E450E40E94F11B88231CF421
S1131AF082E08093462160910B2170910C218091AA
S1131B000D2190910E210E945D1C9B01772324F4EA
S1131B1022273327261B370B233031059CF4609191
S1131B20132170911421809115219091162120E0A8
S1131B3030E040E251E40E94F11B88231CF483E06E
S1131B4080934621089561E084E01EDB64E084E034
S1131B501BDBE0E6F6E0808181608083E0E0F9E071
S1131B6085E0808383E1818380E197E286A397A364
S1131B708EEE92E080A791A708958F929F92AF92E4
S1131B80BF92CF92DF92EF92FF920F931F93CF9366
S1131B90DF937C01C0E0D0E000E010E0BE01C701AB
S1131BA001DA080F191F2196CA30D105B9F760E090
S1131BB070E0C701F7D9EC016091172070911820EB
S1131BC0C70178DC6B017C01BE01DD0F880B990B2A
S1131BD00E94901C20E030E0A9010E94441D20E0F6
S1131BE030E048EC52E40E94F51B4B015C01B80163
S1131BF0110F880B990B0E94901C20E030E0A90182
S1131C000E94441D20E030E048EC52E40E94F51BA1
S1131C109B01AC01C501B4010E948D1B4B015C0109
S1131C2020E030E0A901C701B6010E94441D9B01D8
S1131C30AC01C501B4010E948D1B20E030E84BEBE0
S1131C4054E40E948D1B0E94621C609319207093BF
S1131C501A206091192070911A2080E090E00E946F
S1131C608E1C20E030E04AE754E40E94F51B20E09B
S1131C7030E04AEF53E40E94441D0E94621C6093CA
S1131C80280970932909DF91CF911F910F91FF903B
S1131C90EF90DF90CF90BF90AF909F908F9008957A
S1131CA061E085E071DAE0E0FAE087E0808381E1D9
S1131CB09AE786A397A381E08683089580911B21E8
S1131CC090911C21A0911D21B0911E2180932B2065
S1131CD090932C20A0932D20B0932E2083E393E1A6
S1131CE0A5E9B3E48093272090932820A09329208A
S1131CF0B0932A2008950E94A40560932E21709326
S1131D002F2180933021909331210E94AD0560935F
S1131D102A2170932B2180932C2190932D210E94B2
S1131D20B6056093322170933321809334219093CC
S1131D3035210895C3DFDFCF08952F923F924F924C
S1131D405F926F927F928F929F92AF92BF92CF9247
S1131D50DF92EF92FF920F931F93CF93DF93CDB750
S1131D60DEB7E997CDBFDEBF80911F21909120217E
S1131D70019680931F21909320216091E920709116
S1131D80EA208091EB209091EC2020914621298338
S1131D904090ED205090EE206090EF207090F02065
S1131DA08090F1209090F220A090F320B090F42045
S1131DB0C090F520D090F620E090F720F090F82025
S1131DC04091F9205091FA2048AF59AF2091FB205F
S1131DD03091FC204091FD205091FE202A833B83CA
S1131DE04C835D832091FB203091FC204091FD20A9
S1131DF05091FE202E833F83488759872091FF20EE
S1131E003091002140910121509102212A873B8782
S1131E104C875D872091FF20309100214091012162
S1131E20509102212E873F87488B598B20910321A3
S1131E303091042140910521509106212A8B3B8B3E
S1131E404C8B5D8B2091032130910421409105211D
S1131E50509106212E8B3F8B488F598F209107215B
S1131E60309108214091092150910A212A8F3B8FFA
S1131E704C8F5D8F209107213091082140910921D9
S1131E8050910A212E8F3F8F48A359A320910721F7
S1131E90309108214091092150910A212AA33BA3A2
S1131EA04CA35DA320910F21309110214091112169
S1131EB0509112212EA33FA348A759A7209117217F
S1131EC0309118214091192150911A212AA73BA73A
S1131ED04CA75DA720911B2130911C2140911D210D
S1131EE050911E212EA73FA748AB59AB2091132137
S1131EF03091142140911521509116212AAB3BAB0E
S1131F004CAB5DAB00911F21109120212090232127
S1131F103090242140912321509124214EAB5FAB7A
S1131F200E945D1C7F936F931F9259815F93C3013D
S1131F30B2010E945D1C7F936F93C501B4010E949E
S1131F405D1C7F936F93C701B6010E945D1C7F9354
S1131F506F9389AD8F9398AD9F936A817B818C81B8
S1131F609D810E945D1C9B01220F331F660F771F0A
S1131F70660F771F660F771FC901860F971F6AE0E8
S1131F8070E00E942F1F9F938F936E817F818885BD
S1131F9099850E945D1C7F936F9320E034E244E7AF
S1131FA059E46A857B858C859D850E94441D0E9429
S1131FB05D1C20E432E44FE050E00E94641F9B016A
S1131FC0772324F422273327261B370BC901330F29
S1131FD0AA0BBB0BBF93AF939F938F936E857F85A3
S1131FE0888999890E945D1C7F936F9320E034E275
S1131FF044E759E46A897B898C899D890E94441D40
S11320000E945D1C20E432E44FE050E00E94641F13
S11320109F938F937F936F936E897F89888D998D1A
S11320200E945D1C7F936F936A8D7B8D8C8D9D8D3B
S11320300E945D1C0F2EF4E6CF2ED12CE12CF12C46
S1132040F02DA70196010E94641F7F936F936E8DFC
S11320507F8D88A199A10E945D1C0F2EF0E18F2E27
S1132060F7E29F2EA12CB12CF02DA50194010E9422
S1132070641FA70196010E94641F3F932F936AA1D6
S11320807BA18CA19DA10E945D1CA50194010E94CD
S1132090641F3F932F936EA17FA188A599A50E94E9
S11320A05D1C7F936F9323E333E948E853E46AA507
S11320B07BA58CA59DA50E948C1B0E945D1C7F9313
S11320C06F936EA57FA588A999A90E945D1C9F9313
S11320D08F937F936F936AA97BA98CA99DA90E9472
S11320E05D1C7F936F931F930F939101ADECBCEC38
S11320F00E94891F969587959695879596958795BD
S11321009C01220F331F880F991F880F991F880F76
S1132110991F820F931F281A390A3F922F922EA9D2
S11321203FA90E94891F96958795969587959695C0
S113213087959F938F93809116208F93809115207C
S11321408F932EE831E23F932F930E946620CDBFF8
S1132150DEBF2EE831E23F932F930E9423200F909D
S11321600F90E996CDBFDEBFDF91CF911F910F9104
S1132170FF90EF90DF90CF90BF90AF909F908F90A3
S11321807F906F905F904F903F902F9008954F9263
S11321905F926F927F928F929F92AF92BF92CF92F3
S11321A0DF92EF92FF920F931F93CF93DF93CDB7FC
S11321B0DEB7A097CDBFDEBFABE2B0E2FC911196D3
S11321C05C90119712966C90129713967C901397CB
S11321D014968C90149715969C9015971696AC901F
S11321E0169717964C90A7E2B0E2EC911196BC902A
S11321F011971296CC9012971396DC90139714961D
S1132200EC9014971596FC90159716961C911697BA
S11322101796AC91F9832F2F352D462D572D682D08
S1132220792D8A2D942D08E00E94BD1F2A832F2F1B
S1132230352D462D572D682D792D8A2D942D00E1AD
S11322400E94BD1F2B832F2F352D462D572D682D12
S1132250792D8A2D942D08E10E94BD1F2C832F2FE8
S1132260352D462D572D682D792D8A2D942D00E27C
S11322700E94BD1F2D832F2F352D462D572D682DE0
S1132280792D8A2D942D08E20E94BD1F2E832F2FB5
S1132290352D462D572D682D792D8A2D942D00E34B
S11322A00E94BD1F2F832F2F352D462D572D682DAE
S11322B0792D8A2D942D08E30E94BD1F2887E98774
S11322C02E2F3B2D4C2D5D2D6E2D7F2D812F9A2F82
S11322D008E00E94BD1F2A872E2F3B2D4C2D5D2D1B
S11322E06E2D7F2D812F9A2F00E10E94BD1F2B8719
S11322F02E2F3B2D4C2D5D2D6E2D7F2D812F9A2F52
S113230008E10E94BD1F2C872E2F3B2D4C2D5D2DE7
S11323106E2D7F2D812F9A2F00E20E94BD1F2D87E5
S11323202E2F3B2D4C2D5D2D6E2D7F2D812F9A2F21
S113233008E20E94BD1F2E872E2F3B2D4C2D5D2DB4
S11323406E2D7F2D812F9A2F00E30E94BD1F2F87B2
S11323502E2F3B2D4C2D5D2D6E2D7F2D812F9A2FF1
S113236008E30E94BD1F288B80E1EFE2F0E2DE016A
S1132370519601900D928A95E1F783E38093CA0107
S1132380FE017196CE010196AE014F5D5F4F60EC88
S113239071E02191DB012C93DC012D91CD01DB0156
S11323A014962C93E417F507A1F7E0ECF1E085E32C
S11323B08287108280E1818388ED84BF81E08387F6
S11323C087858823ECF3A096CDBFDEBFDF91CF9144
S11323D01F910F91FF90EF90DF90CF90BF90AF903F
S11323E09F908F907F906F905F904F9008950F9380
S11323F01F93CF93DF93CDB7DEB76097CDBFDEBF1A
S113240060911321709114218091152190911621CE
S11324100E945D1C162F072F60910B2170910C21D7
S113242080910D2190910E210E945D1C09831A83D5
S113243080911F21909120219B8380911F21909155
S113244020218C8380912321909124219D8380914C
S11324502321909124218E837F83688788E0EFE392
S1132460F0E2DE01199601900D928A95E1F783E37B
S11324708093CA01FE013996CE010196AE014F5EEA
S11324805F4F60EC71E02191DB012C93DC012D9115
S1132490CD01DB0114962C93E417F507A1F7E0ECCA
S11324A0F1E085E38287108280E1818388ED84BF37
S11324B081E0838787858823ECF36096CDBFDEBFF8
S11324C0DF91CF911F910F9108952F923F924F92D8
S11324D05F926F927F928F929F92AF92BF92CF92B0
S11324E0DF92EF92FF920F931F93CF93DF93CDB7B9
S11324F0DEB7EF97CDBFDEBF80911F2190912021E1
S1132500019680931F21909320216091E92070917E
S1132510EA208091EB209091EC20209146212983A0
S11325204090ED205090EE206090EF207090F020CD
S11325308090F1209090F220A090F320B090F420AD
S1132540C090F520D090F620E090F720F090F8208D
S11325504091F9205091FA204EAF5FAF2091FB20BB
S11325603091FC204091FD205091FE202A833B8332
S11325704C835D832091FB203091FC204091FD2011
S11325805091FE202E833F83488759872091FF2056
S11325903091002140910121509102212A873B87EB
S11325A04C875D872091FF203091002140910121CB
S11325B0509102212E873F87488B598B209103210C
S11325C03091042140910521509106212A8B3B8BA7
S11325D04C8B5D8B20910321309104214091052186
S11325E0509106212E8B3F8B488F598F20910721C4
S11325F0309108214091092150910A212A8F3B8F63
S11326004C8F5D8F20910721309108214091092141
S113261050910A212E8F3F8F48A359A3209107215F
S1132620309108214091092150910A212AA33BA30A
S11326304CA35DA320910F213091102140911121D1
S1132640509112212EA33FA348A759A720910F21EF
S11326503091102140911121509112212AA73BA7BA
S11326604CA75DA720911721309118214091192181
S113267050911A212EA73FA748AB59AB209117219F
S1132680309118214091192150911A212AAB3BAB6A
S11326904CAB5DAB20911B2130911C2140911D213D
S11326A050911E212EAB3FAB48AF59AF209113215F
S11326B03091142140911521509116212AAF3BAF3E
S11326C04CAF5DAF20901F21309020210091232139
S11326D0109124210E945D1C7F936F931F92398176
S11326E03F93C301B2010E945D1C7F936F93C501A8
S11326F0B4010E945D1C7F936F93C701B6010E94D1
S11327005D1C7F936F934FAD4F935EAD5F936A8172
S11327107B818C819D810E945D1C9B01220F331F54
S1132720660F771F660F771F660F771FC901860F25
S1132730971F6AE070E00E942F1F9F938F936E8112
S11327407F81888599850E945D1C7F936F9320E02B
S113275034E244E759E46A857B858C859D850E9433
S1132760441D0E945D1C20E432E44FE050E00E94CE
S1132770641F9B01772324F422273327261B370B5E
S1132780C901330FAA0BBB0BBF93AF939F938F93D6
S11327906E857F85888999890E945D1C7F936F93DC
S11327A020E034E244E759E46A897B898C899D8975
S11327B00E94441D0E945D1C20E432E44FE050E07E
S11327C00E94641F9F938F937F936F936E897F8979
S11327D0888D998D0E945D1C7F936F936A8D7B8D8C
S11327E08C8D9D8D0E945D1C0F2EF4E6CF2ED12C76
S11327F0E12CF12CF02DA70196010E94641F7F9318
S11328006F936E8D7F8D88A199A10E945D1C0F2E00
S1132810F0E18F2EF7E29F2EA12CB12CF02DA50113
S113282094010E94641FA70196010E94641F3F93B4
S11328302F936AA17BA18CA19DA10E945D1CA5017F
S113284094010E94641F3F932F9320E030E040E204
S113285051E46EA17FA188A599A50E94441D0E9400
S11328605D1CCB016AE070E00E942F1F9F938F9341
S11328706AA57BA58CA59DA50E945D1C7F936F9383
S113288020E030E040E251E46EA57FA588A999A933
S11328900E94441D20E038EB4AE255E43DD70E94F3
S11328A05D1CCB016AE070E00E942F1F9F938F9301
S11328B023E333E948E853E46AA97BA98CA99DA9D9
S11328C02BD7FBD77F936F936EA97FA988AD99AD62
S11328D0F4D79F938F937F936F936AAD7BAD8CAD49
S11328E09DADEBD77F936F933F922F921F930F93DE
S11328F0809116208F93809115208F938EE891E21A
S11329009F938F930E946620CDBFDEBF8EE891E235
S11329109F938F930E9423206ADD109244210F908D
S11329200F90EF96CDBFDEBFDF91CF911F910F9136
S1132930FF90EF90DF90CF90BF90AF909F908F90DB
S11329407F906F905F904F903F902F900895CF931A
S1132950DF93C0ECD1E026E02A878883998388ED51
S113296084BF81E08B8766ED74E180E090E00E9493
S1132970EA088C81DF91CF9108952F923F924F9274
S11329805F926F927F928F929F92AF92BF92CF92FB
S1132990DF92EF92FF920F931F93CF93DF93CDB704
S11329A0DEB72597CDBFDEBF0E948F086BEA79E2C0
S11329B080E090E00E94EA0878948CEB80934006D3
S11329C087E08093A2000E94C6050E940D076BEA6F
S11329D070EB88E290E00E94EA0880E28093A30A08
S11329E00E941B090E94CD050E9453070E94DC0629
S11329F00E94F5080E94BF0553D9A5D887E090E14D
S1132A00A6DF8F3F09F4F9C187E490E20E943620E3
S1132A1080E190E19CDF89838FE090E198DFF82FDB
S1132A20298130E040E050E060E070E080E090E038
S1132A3008E30E94A21F2983C32ED42EE52E6A83A5
S1132A40E72FF82E192F2F2F30E040E050E060E000
S1132A5070E080E090E000E30E94A21FF981F22B75
S1132A60F983C32AD42AE52A2A81262B2A83BE2E57
S1132A70B72AF82A192B8EE090E169DF082F8DE040
S1132A8090E165DF482E8CE090E161DF582E8BE009
S1132A9090E15DDF682E8AE090E159DF782E89E0CD
S1132AA090E155DF282E202F30E040E050E060E038
S1132AB070E080E090E008E20E94A21FE981E22930
S1132AC0E22BE983C32AD42AE52AFA81F62BFA8376
S1132AD0E72FEB29F82A192B242D30E040E050E0B1
S1132AE060E070E080E090E000E20E94A21FF981C3
S1132AF0F22BF983C32AD42AE52AFA81F62BFA8326
S1132B00E72BF82A192B252D30E040E050E060E057
S1132B1070E080E090E008E10E94A21FF981F22BAE
S1132B20F983C32AD42AE52AFA81F62BFA83E72B00
S1132B30F82A192B262D30E040E050E060E070E0E8
S1132B4080E090E000E10E94A21FF981F22BF9835A
S1132B50C32AD42AE52AFA81F62BE72BF82A192B63
S1132B60272D30E040E050E060E070E080E090E04D
S1132B7008E00E94A21F2980222A3C2C332A8D2C93
S1132B80842A9E2C952AAF2EA62ABE2EB72AF82A6E
S1132B90192B89E190E1DBDE898388E190E1D7DEBE
S1132BA0E82E298130E040E050E060E070E080E011
S1132BB090E008E30E94A21FB22FC32ED42EA52FAB
S1132BC0F62FE72F8A8399832E2D30E040E050E0E2
S1132BD060E070E080E090E000E30E94A21FEB2E32
S1132BE0E22AC32AD42A5A2E552A6F2E662A7E2E0A
S1132BF0772A2A81282B2D838981892B8C8387E14D
S1132C0090E1A5DE082F86E190E1A1DE482E85E162
S1132C1090E19DDE898384E190E199DE8A8383E1FA
S1132C2090E195DE8B8382E190E191DEA82FEBE2C7
S1132C30F0E22082318282829382A482B582F6827B
S1132C401783E7E2F0E2202F30E040E050E060E05C
S1132C5070E080E090E008E20E94A21FEA2AE22AE3
S1132C60C32AD42AF52EF528162F1629B72FB729EB
S1132C702D81282B2D838C81892B8C83242D30E06E
S1132C8040E050E060E070E080E090E000E20E940C
S1132C90A21FE22AC32AD42AF52A162BB72B2D8188
S1132CA0282B2D838C81892B8C83298130E040E073
S1132CB050E060E070E080E090E008E10E94A21F34
S1132CC0E22AC32AD42AF52A162BB72B2D81282BC6
S1132CD02D838C81892B89832A8130E040E050E068
S1132CE060E070E080E090E000E10E94A21FE22A30
S1132CF0C32AD42AF52A162BB72B2D81282B2A83F5
S1132D008981892B89832B8130E040E050E060E0A9
S1132D1070E080E090E008E00E94A21F2E2920834A
S1132D203C2931834D2942835F295383612B64837A
S1132D307B2B75832A81822B86838981982B9783A9
S1132D4081E090E104DE898380E090E100DE9981F6
S1132D50692F70E0762F6627682B072E000C880BEE
S1132D60990BDED560931321709314218093152160
S1132D709093162187E090E1EADD898386E090E173
S1132D80E6DDE9812E2F30E0322F2227282B2093F5
S1132D9023213093242184E090E1D9DD898383E0E9
S1132DA090E1D5DDF9812F2F30E0322F2227282B17
S1132DB020931F2130932021609127207091282097
S1132DC08091292090912A2078D57F936F936091E8
S1132DD02B2070912C2080912D2090912E206DD548
S1132DE09F938F937F936F9386E590E29F938F9346
S1132DF00E942320CDBFDEBF17C00E942F0960931D
S1132E002B2070932C2080932D2090932E2083E3ED
S1132E1093E1A5E9B3E48093272090932820A0931D
S1132E202920B0932A20B3D90E949B0C2596CDBFAC
S1132E30DEBFDF91CF911F910F91FF90EF90DF9054
S1132E40CF90BF90AF909F908F907F906F905F9046
S1132E504F903F902F90089583E38093CA0180E0C0
S1132E60E0ECF1E09FEF808394838F5F8032D9F7A9
S1132E70E0ECF1E080E3828788ED84BF81E0838722
S1132E8087858823ECF30895E7DF8FB7F89498EDEE
S1132E9094BF91E0909379008FBF089590E0FC0176
S1132EA0E156F109E331F10508F58827E250FF4FB7
S1132EB08F4F0C94801FE8CF08950C949A0E0895B8
S1132EC00C945E0E08950C947B0E089580EB94E0B0
S1132ED0809328099093290908958EEE92E08093B7
S1132EE028099093290908950C949D0E0895CF9371
S1132EF0DF93CDB7DEB7C856D109CDBFDEBF3DDD08
S1132F00E0E6F6E080818860808384818860848341
S1132F1014E1BE016F5F7F4FFB01812F11928A95EF
S1132F20E9F74AE050E0CE0145960E94C807BE0189
S1132F30635E7F4F88E2FB0111928A95E9F74AE0CC
S1132F4050E0CE018B5B9F4F0E945008BE01635B33
S1132F507F4FFB0111921A95E9F74AE050E0CE0148
S1132F608F599F4F0E94C80700E010E0BE016B5BC1
S1132F707F4FCE0145960E94080C0E949B0C8091C5
S1132F804621813031F0C8F1823039F0833079F153
S1132F9032C0111132C011E030C0111101C011E072
S1132FA06091132170911421809115219091162123
S1132FB020E030E041EE53E4AFD37FD49B0177238C
S1132FC024F422273327261B370B2A3031052CF40F
S1132FD00E9425090E94A30510C0809145218823E1
S1132FE061F0CE018F599F4F0E94BD0D06C00111A3
S1132FF004C001E002C00E949B0C809144218823FC
S113300019F063DA1092442180914321882339F026
S11330108091362143DF1092362110924321809112
S113302021219091222101968093212190932221A4
S11330308091232190912421892B09F497CF8091A9
S11330402121909122216091232170912421F3D692
S1133050609317207093182089CF1F920F920FB698
S11330600F92112408B60F9218BE8F939F938091EC
S1133070232190912421019680932321909324214C
S113308081E0809344219F918F910F9008BE0F900F
S11330900FBE0F901F9018951F920F920FB60F92AC
S11330A0112408B60F9218BE09B60F9219BE0BB6BA
S11330B00F921BBE2F933F934F935F936F937F9316
S11330C08F939F93AF93BF93EF93FF9380EA9AE01C
S11330D00E94A1038093362181E080934321FF91D4
S11330E0EF91BF91AF919F918F917F916F915F917C
S11330F04F913F912F910F900BBE0F9009BE0F90EF
S113310008BE0F900FBE0F901F9018951F920F923C
S11331100FB60F92112408B60F9218BE09B60F927B
S113312019BE0AB60F921ABE0BB60F921BBE8F922F
S11331309F92AF92BF92CF92DF92EF92FF921F9332
S11331402F933F934F935F936F937F938F939F93AB
S1133150AF93BF93EF93FF93CF93DF9300D000D04F
S1133160CDB7DEB780EB99E00E94A103182F84321B
S113317051F481E080932921109228211092272173
S1133180109226215AC28A3229F4109226211092D2
S1133190292153C28C3209F050C2EAE7F1E280E2FD
S11331A080838181803209F077C280E380937A2121
S11331B073C280917A218E3209F0A3C1A9C1809192
S11331C07A218E3209F0EFC0F5C080917A218E32D7
S11331D009F052C058C091919E3229F401C080E098
S11331E08093252103C08F5F8F30A9F7E0912521BB
S11331F0F0E0E658FE4D80E28083209125212F5F88
S11332002F30C8F4822F90E0FC01E658FE4D308147
S1133210303289F040E208C0822F90E0FC01E65889
S1133220FE4D3081303239F0FC01E658FE4D4083CA
S11332302F5F2F3089F7CE0101969F938F9383E8F8
S113324090E29F938F938AE791E29F938F9366D73F
S113325069817A818B819C8163D360930721709308
S113326008218093092190930A210F900F900F90C9
S11332700F900F900F90C3C1EBE7F1E281E09191C1
S11332809E3229F401C080E08093252103C08F5F22
S11332908F30A9F7E0912521F0E0E658FE4D80E259
S11332A08083209125212F5F2F3008F5822F90E015
S11332B0FC01E658FE4D30813032C9F050E208C0BE
S11332C0822F90E0FC01E658FE4D3081303279F0D7
S11332D040912521FC01E41BF109E857FE4D3083A0
S11332E0FC01E658FE4D50832F5F2F3049F7809143
S11332F08921803219F480E380938921CE010196DB
S11333009F938F9383E890E29F938F938AE791E250
S11333109F938F9303D7CE0105969F938F9387E84E
S113332090E29F938F9389E891E29F938F93F6D6CF
S113333089809A80AB80BC806D817E81072E000CD1
S1133340880B990BEDD220E030E44CE156E44DD2E9
S11333506B017C01C501B40124E630E040E050E09B
S1133360B3D549015A01DCD29B01AC01C701B601B6
S1133370D4D120E030E040E752E437D26B017C0145
S1133380C501B401CDD29B01AC01C701B601C5D1C1
S11333906093032170930421809305219093062167
S11333A0CDBFDEBF2CC1EBE7F1E281E091919E320B
S11333B029F401C080E08093252103C08F5F8F3002
S11333C0A9F7E0912521F0E0E658FE4D80E28083E4
S11333D0209125212F5F2F3008F5822F90E0FC01EA
S11333E0E658FE4D30813032C9F050E208C0822FD9
S11333F090E0FC01E658FE4D3081303279F0409186
S11334002521FC01E41BF109E857FE4D3083FC0142
S1133410E658FE4D50832F5F2F3049F78091892164
S1133420803219F480E380938921CE0101969F9321
S11334308F9383E890E29F938F938AE791E29F931F
S11334408F936CD6CE0105969F938F9387E890E275
S11334509F938F9389E891E29F938F935FD689809E
S11334609A80AB80BC806D817E81072E000C880B16
S1133470990B56D220E030E44CE156E4B6D16B010E
S11334807C01C501B40124E630E040E050E01CD5E5
S113349049015A0145D29B01AC01C701B6013DD196
S11334A020E030E040E752E4A0D16B017C01C5018B
S11334B0B40136D29B01AC01C701B6012ED1DC01A7
S11334C0CB01B0588093FF2090930021A093012159
S11334D0B0930221CDBFDEBF92C089EF90E29F93EB
S11334E08F9387E890E29F938F938AE791E29F936B
S11334F08F9314D60F900F900F900F900F900F9002
S11335007EC0EBE7F1E281E091919E3229F401C0A3
S113351080E08093252103C08F5F8F30A9F7E0916D
S11335202521F0E0E658FE4D80E28083209125219C
S11335302F5F2F3008F5822F90E0FC01E658FE4DF6
S113354030813032C9F050E208C0822F90E0FC0193
S1133550E658FE4D3081303279F040912521FC014E
S1133560E41BF109E857FE4D3083FC01E658FE4D9B
S113357050832F5F2F3049F780918921803219F4CD
S113358080E380938921CE0101969F938F9383E8F2
S113359090E29F938F938AE791E29F938F93BED596
S11335A0CE0105969F938F9387E890E29F938F9324
S11335B089E891E29F938F93B1D569817A818B8158
S11335C09C81AED16B017C016D817E81072E000C44
S11335D0880B990BA5D120E030E040E251E405D1FD
S11335E09B01AC01C701B60198D06093FB20709396
S11335F0FC208093FD209093FE20CDBFDEBF809100
S113360029218823D1F010922521809126218F5FD2
S11336108093262110922721EAE7F1E229E831E29A
S113362080E281932E173F07E1F7E9E8F1E280E2B7
S11336308083818382838383848380912921882367
S113364009F443C080912821833019F0843031F08B
S113365009C0173439F01092292104C0173411F02D
S113366010922921E0912721F0E0E658FE4D1083C5
S1133670809127218F5F80932721809128218F5F5C
S11336808093282122C080917A218E3209F4A7CD1B
S1133690EBE7F1E281E09FCD19821A821B821C8242
S11336A01D821E8280912621843009F488CD30F455
S11336B0813049F3823009F488CDA1CF873009F4F1
S11336C00CCF893009F475CD9ACF2696CDBFDEBFD5
S11336D0DF91CF91FF91EF91BF91AF919F918F9126
S11336E07F916F915F914F913F912F911F91FF9027
S11336F0EF90DF90CF90BF90AF909F908F900F90FE
S11337000BBE0F900ABE0F9009BE0F9008BE0F901B
S11337100FBE0F901F9018955058BB27AA270ED0A4
S113372075C166D130F06BD120F031F49F3F11F4B4
S11337301EF45BC10EF4E095E7FB51C1E92F77D18C
S113374080F3BA17620773078407950718F071F4BA
S11337509EF58FC10EF4E0950B2EBA2FA02D0B0110
S1133760B90190010C01CA01A0011124FF27591BC2
S113377099F0593F50F4503E68F11A16F040A22FC8
S1133780232F342F4427585FF3CF46953795279539
S1133790A795F0405395C9F77EF41F16BA0B620B38
S11337A0730B840BBAF09150A1F0FF0FBB1F661F7F
S11337B0771F881FC2F70EC0BA0F621F731F841FC2
S11337C048F4879577956795B795F7959E3F08F0E8
S11337D0B3CF9395880F08F09927EE0F97958795A7
S11337E00895D9D008F481E008950CD00FC107D111
S11337F040F0FED030F021F45F3F19F0F0C05111D9
S113380039C1F3C014D198F39923C9F35523B1F303
S1133810951B550BBB27AA2762177307840738F03B
S11338209F5F5F4F220F331F441FAA1FA9F333D09A
S11338300E2E3AF0E0E830D091505040E695001C4E
S1133840CAF729D0FE2F27D0660F771F881FBB1F0A
S1133850261737074807AB07B0E809F0BB0B802DE4
S1133860BF01FF2793585F4F2AF09E3F510568F030
S1133870B6C000C15F3FECF3983EDCF386957795C4
S11338806795B795F7959F5FC9F7880F911D969532
S1133890879597F90895E1E0660F771F881FBB1F8E
S11338A0621773078407BA0720F0621B730B840B3B
S11338B0BA0BEE1F88F7E095089504D06894B1110F
S11338C0D9C00895BCD088F09F5790F0B92F99279C
S11338D0B751A0F0D1F0660F771F881F991F1AF017
S11338E0BA95C9F712C0B13081F0C3D0B1E00895E0
S11338F0C0C0672F782F8827B85F39F0B93FCCF361
S1133900869577956795B395D9F73EF4909580950C
S1133910709561957F4F8F4F9F4F0895E89409C02C
S113392097FB3EF490958095709561957F4F8F4FEE
S11339309F4F9923A9F0F92F96E9BB279395F69504
S1133940879577956795B795F111F8CFFAF4BB0F82
S113395011F460FF1BC06F5F7F4F8F4F9F4F16C0E6
S1133960882311F096E911C0772321F09EE8872F70
S1133970762F05C0662371F096E8862F70E060E02C
S11339802AF09A95660F771F881FDAF7880F9695A5
S1133990879597F90895990F0008550FAA0BE0E849
S11339A0FEEF16161706E807F907C0F012161306FD
S11339B0E407F50798F0621B730B840B950B39F43D
S11339C00A2661F0232B242B252B21F408950A26A3
S11339D009F4A140A6958FEF811D811D089597F9E3
S11339E09F6780E870E060E008959FEF80EC0895A1
S11339F000240A94161617061806090608950024CA
S1133A000A9412161306140605060895092E039443
S1133A10000C11F4882352F0BB0F40F4BF2B11F4B7
S1133A2060FF04C06F5F7F4F8F4F9F4F089557FD16
S1133A309058440F551F59F05F3F71F04795880F18
S1133A4097FB991F61F09F3F79F0879508951216AF
S1133A5013061406551FF2CF4695F1DF08C016165B
S1133A6017061806991FF1CF86957105610508940C
S1133A700895E894BB2766277727CB0197F9089523
S1133A808ADF08F48FEF08950BD0C0CFB1DF28F0A0
S1133A90B6DF18F0952309F0A2CFA7CF1124EACFFF
S1133AA0C6DFA0F3959FD1F3950F50E0551F629F99
S1133AB0F001729FBB27F00DB11D639FAA27F00D83
S1133AC0B11DAA1F649F6627B00DA11D661F829FAA
S1133AD02227B00DA11D621F739FB00DA11D621F8F
S1133AE0839FA00D611D221F749F3327A00D611DAC
S1133AF0231F849F600D211D822F762F6A2F11248E
S1133B009F5750408AF0E1F088234AF0EE0FFF1FE0
S1133B10BB1F661F771F881F91505040A9F79E3F17
S1133B20510570F05CCFA6CF5F3FECF3983EDCF319
S1133B30869577956795B795F795E7959F5FC1F754
S1133B40FE2B880F911D9695879597F90895FA0194
S1133B50EE0FFF1F30962105310599F161157105AE
S1133B6061F48038BFE39B0749F16894903881057C
S1133B7061F08038BFEF9B0741F0992342F5FF3F86
S1133B80E1053105210511F1E8940894E795D9017F
S1133B90AA2329F4AB2FBE2FF85FD0F310C0FF5F28
S1133BA070F4A695E0F7F73950F019F0FF3A38F4BD
S1133BB09F779F930CD00F9007FC905808953EF088
S1133BC014CF60E070E080E89FE308954FE79F77AB
S1133BD05F934F933F932F939ED02F913F914F919B
S1133BE05F9152DF05C019F40EF0F9CE42CFFDCE3D
S1133BF026DFC8F39638C0F707F80F92E8942BE352
S1133C003AEA48EB5FE74EDF0F920F920F924DB7FF
S1133C105EB70F92C0D0E2E2F2E016D04F915F910E
S1133C20EF91FF91E595EE1FFF1F49F0FE57E06805
S1133C304427EE0F441FFA95E1F74195550B32D016
S1133C400F9007FE26C00895DF93CF931F930F9321
S1133C50FF92EF92DF927B018C01689405C0DA2E0B
S1133C60EF011EDFFE01E894A59125913591459160
S1133C705591AEF3EF0162DDFE019701A801DA94DC
S1133C8079F7DF90EF90FF900F911F91CF91DF9123
S1133C9008959B01AC0160E070E080E89FE3A5CD4E
S1133CA09ECEACC0CCDEE8F39923D9F3940F511D1A
S1133CB0BBF39150504094F059F0882332F0660FD2
S1133CC0771F881F91505040C1F79E3F510544F71C
S1133CD0880F911D9695879597F908955F3FACF0ED
S1133CE0983E9CF0BB27869577956795B79508F421
S1133CF0B1609395C1F7BB0F58F711F460FFE8CF9B
S1133D006F5F7F4F8F4F9F4FE3CFB4CE0EF076C0DF
S1133D106CCE689464CE93DEC8F39923D1F3C6F3D2
S1133D20DF93CF931F930F93FF92C92FDD2788232F
S1133D302AF02197660F771F881FDAF720E030E01A
S1133D4040E85FEB9FE3883920F0803E30F0219615
S1133D508F77E3DCEAE4F2E003C0DFDCE7E7F2E0DC
S1133D6073DF8B01BE01EC01FB2E6F577109759552
S1133D70771F880B990BD4DD28E132E741E35FE339
S1133D808FDEAF2D9801AE01FF900F911F91CF915F
S1133D90DF91D4DC3BCEFA01DC01AA0FBB1F9B01EF
S1133DA0AC01BF5728F422273327442750781FC07B
S1133DB0B75188F4AB2F0024469537952795011CFD
S1133DC0A395D2F3002069F0220F331F441FB3954B
S1133DD0DAF30DD0A1CC61307105A0E88A07B946A9
S1133DE030F49B01AC0166277727882790783096BA
S1133DF021F0208331834283538308959F3F31F020
S1133E00915020F4879577956795B795880F911D04
S1133E109695879597F90895DB018F939F9388D0A2
S1133E20BF91AF91A29F800D911DA39F900DB29F52
S1133E30900D11240895AA1BBB1B51E107C0AA1FB2
S1133E40BB1FA617B70710F0A61BB70B881F991F37
S1133E505A95A9F780959095BC01CD01089597FBDB
S1133E60072E16F4009406D077FD08D0E4DF07FC93
S1133E7005D03EF4909581959F4F08957095619576
S1133E807F4F0895A1E21A2EAA1BBB1BFD010DC092
S1133E90AA1FBB1FEE1FFF1FA217B307E407F507F6
S1133EA020F0A21BB30BE40BF50B661F771F881FD2
S1133EB0991F1A9469F760957095809590959B0168
S1133EC0AC01BD01CF010895052E97FB16F40094B3
S1133ED00FD057FD05D0D6DF07FC02D046F408C04A
S1133EE050954095309521953F4F4F4F5F4F089522
S1133EF090958095709561957F4F8F4F9F4F089552
S1133F00EE0FFF1F881F8BBF0790F691E02D1BBE9D
S1133F101994A29FB001B39FC001A39F700D811D8E
S1133F201124911DB29F700D811D1124911D0895BE
S1133F30F0DFA59F900DB49F900DA49F800D911D5F
S1133F40112408950F93083090F0982F872F762F1F
S1133F50652F542F432F322F22270850F4CF220FDE
S1133F60331F441F551F661F771F881F991F0A950B
S1133F70B2F70F91089597FB10F8169400080F9369
S1133F80083098F00850232F342F452F562F672FD1
S1133F90782F892F902DF4CF059497958795779551
S1133FA0679557954795379527950A95AAF70F91E1
S1133FB008950F931F93CF93DF93009731F4611506
S1133FC0710519F480E090E039C08B01EC016EE0DA
S1133FD070E081E090E077D5FC01892B99F380E8CB
S1133FE083830115110571F00287138781E88383A8
S1133FF08091F2219091F321892B21F4E093F22115
S1134000F093F3212097C9F0C087D1878381826020
S113401083838091F4219091F521892B71F4E093AD
S1134020F421F093F5218091F6219091F721892BC9
S113403021F4E093F621F093F721CF01DF91CF91A2
S11340401F910F910895CF93DF93CDB7DEB7AE01E3
S11340504A5F5F4FFA0161917191AF018091F42140
S11340609091F52176D0DF91CF9108950F931F930E
S1134070CF93DF93E091F421F091F521238121FF87
S11340801BC08C01D0E0C0E0F80181918F016091E8
S1134090F4217091F521DB011896ED91FC911997AB
S11340A0882331F01995892B79F3DFEFCFEFECCF2B
S11340B08AE01995892B19F08FEF9FEF02C08D2F9D
S11340C09C2FDF91CF911F910F9108950F931F9310
S11340D0CF93DF93CDB7DEB72E97CDBFDEBF0E896A
S11340E01F8986E08C8309831A838FEF9FE78D8372
S11340F09E83AE01465E5F4F688D798DCE01019639
S113410028D0EF81F885E00FF11F10822E96CDBFE5
S1134110DEBFDF91CF911F910F910895CF93DF936D
S1134120CDB7DEB72E97CDBFDEBF85E08C838C89FB
S11341309D8989839A83AE01485E5F4F6E897F892A
S1134140CE010196A9D32E96CDBFDEBFDF91CF91CC
S113415008952F923F924F925F926F927F928F9227
S11341609F92AF92BF92CF92DF92EF92FF920F9302
S11341701F93CF93DF93CDB7DEB72B97CDBFDEBFB1
S11341806C017B018A01FC0116821782838181FF05
S1134190BFC1CE0101963C01F6019381F70193FD65
S11341A0859193FF81917F01882309F4ADC1853204
S11341B039F493FD859193FF81917F01853221F438
S11341C0B60190E029D6E8CF912C212C312CFFE1C7
S11341D0F315D8F08B3279F038F4803279F08332E9
S11341E0A1F4232D20611DC08D3261F0803369F468
S11341F0232D216016C0832D8260382EE32DE460C8
S11342003E2E2AC0F32DF8601DC037FC2DC020EDD2
S1134210280F2A3040F08E32B9F436FC75C1232DB4
S11342202064322E19C036FE06C08AE0989E200D06
S11342301124922E11C0EAE02E9E200D1124222E6C
S1134240F32DF0623F2E08C08C3621F4832D806854
S1134250382E02C0883641F4F70193FD859193FF0F
S113426081917F018111B3CF982F9F7D9554933015
S113427028F40C5F1F4F9FE399830DC0833631F000
S1134280833771F0833509F055C020C0F80180816F
S113429089830E5F1F4F88248394912C530112C08D
S11342A02801F2E04F0E511CF801A080B18036FEC7
S11342B003C0692D70E002C06FEF7FEFC50163D5C5
S11342C04C018201F32DFF773F2E15C0280122E017
S11342D0420E511CF801A080B18036FE03C0692D46
S11342E070E002C06FEF7FEFC5013BD54C01F32DA9
S11342F0F0683F2E820133FC19C0822D90E08816AD
S11343009906A0F4B60180E290E086D52A94F5CF10
S1134310F50137FC859137FE81915F01B60190E08C
S11343207BD521102A9421E0821A910881149104EA
S113433079F7E1C0843611F0893639F5F80137FE92
S113434007C060817181828193810C5F1F4F08C017
S113435060817181072E000C880B990B0E5F1F4F33
S1134360F32DFF763F2E97FF09C0909580957095A9
S113437061957F4F8F4F9F4FF0683F2E2AE030E0CA
S1134380A3019FD5882E861844C0853731F4232D88
S11343902F7EB22E2AE030E025C0932D997FB92ECE
S11343A08F36C1F018F4883579F0AEC0803719F033
S11343B0883721F0A9C0E92FE061BE2EB4FE0DC0FC
S11343C0FB2DF460BF2E09C034FE0AC0292F2660DD
S11343D0B22E06C028E030E005C020E130E002C083
S11343E020E132E0F801B7FE07C06081718182816B
S11343F093810C5F1F4F06C06081718180E090E063
S11344000E5F1F4FA3015DD5882E8618FB2DFF7705
S11344103F2E36FE0DC0232D2E7FA22E891458F474
S113442034FE0BC032FC09C0832D8E7EA82E05C03D
S1134430B82CA32C03C0B82C01C0B92CA4FE0FC007
S1134440FE01E80DF11D8081803321F49A2D997EBF
S1134450A92E09C0A2FE06C0B394B39404C08A2D49
S1134460867809F0B394A3FC10C0A0FE06C0B21471
S113447080F4280C922C9B180DC0B21458F4B60189
S113448080E290E0C9D4B394F8CFB21418F42B1896
S113449002C0982C212CA4FE0FC0B60180E390E04A
S11344A0BBD4A2FE16C0A1FC03C088E790E002C002
S11344B088E590E0B6010CC08A2D867851F0A1FE03
S11344C002C08BE201C080E2A7FC8DE2B60190E05D
S11344D0A3D4891430F4B60180E390E09DD49A9477
S11344E0F8CF8A94F301E80DF11D8081B60190E0C4
S11344F093D48110F6CF222009F44ECEB60180E287
S113450090E08AD42A94F7CFF6018681978102C07D
S11345108FEF9FEF2B96CDBFDEBFDF91CF911F9121
S11345200F91FF90EF90DF90CF90BF90AF909F904E
S11345308F907F906F905F904F903F902F90089551
S113454020FD09C0FC0123FD05C022FF02C07383C6
S1134550628351834083089544FD17C046FD17C00C
S1134560AB01BC01DA01FB01AA0FBB1FEE1FFF1F49
S11345701094D1F74A0F5B1F6E1F7F1FCB01BA0146
S1134580660F771F881F991F09C033E001C034E00C
S1134590660F771F881F991F3150D1F7620F711D65
S11345A0811D911D08950F931F93CF93DF938C0169
S11345B0C801F4D3EC0197FD06C0C0D3892BC1F721
S11345C0B801CE0165D4CE01DF91CF911F910F9137
S11345D008958F929F92AF92BF92EF92FF920F93A2
S11345E01F93CF93DF938C01D62F7A01B22ED6D3AB
S11345F09C0133272B32310531F02D32310559F42A
S11346008B2D8068B82ED15011F480E061C0C801B0
S1134610C5D397FDFACFCB2DCD7F2B2D2073F9F485
S11346208033E9F4AA24AA94AD0E09F43EC0C8016B
S1134630B5D397FD3AC09C012F7D3327283531052A
S113464041F4C264D25089F1C801A8D397FF07C0CE
S11346502CC0B6FE02C0C26001C0C261DA2D812C3A
S1134660912C540120ED280F283078F0C4FF03C0AA
S1134670B8010ED417C02A3040F0C6FFF9CF2F7D01
S11346803FEE320F3630A0F727504C2FC501B4014E
S113469063DF4B015C01C260D15051F0C8017ED38D
S11346A097FFE0CFC1FD04C0B0CF812C912C540101
S11346B0C7FF08C0B094A09490948094811C911C6E
S11346C0A11CB11C2C2FB501A401C70139DF81E065
S11346D0DF91CF911F910F91FF90EF90BF90AF901A
S11346E09F908F9008955F926F927F928F929F9286
S11346F0AF92BF92CF92DF92EF92FF920F931F93EC
S1134700CF93DF93CDB7DEB7A097CDBFDEBF5C01FB
S1134710962E7A01F9018E010F5F1F4F680180E226
S1134720D8011D928A95E9F7D50113968C9080E003
S113473090E0612C712C30E061E070E083FC259105
S113474083FE21918F01522E211103C080E090E05D
S113475090C02E3511F4009751F1432F50E04817C3
S113476059073CF42D3559F12D3219F4772009F10C
S113477003C0772009F468C0452D469546954695B3
S1134780D601A40FB11D452D47708B0102C0000F47
S1134790111F4A95E2F7A8015C91452B4C936514CF
S11347A059F0561410F45394E7CF5A94E5CF31E0FE
S11347B004C07724739401C0712C0196BFCF772075
S11347C019F08E8180628E83311103C08824839412
S11347D017C0F6019E012F5D3F4F80818095819324
S11347E02E173F07D1F7F2CFE114F10429F0D701D6
S11347F08C93F70131967F019A94812C9920E9F0EA
S1134800C501CCD297FD17C0FC01FF2723E0F59525
S1134810E7952A95E1F7EC0DFD1D208130E0AC0110
S11348204770552702C0359527954A95E2F720FD34
S1134830DBCFB5012DD3811089CFE114F10411F040
S1134840D7011C92C80115C0422F4695469546953E
S1134850D601A40FB11D422F47708B0102C0000F77
S1134860111F4A95E2F7A8015C91452B4C93622EE7
S1134870A4CFA096CDBFDEBFDF91CF911F910F9142
S1134880FF90EF90DF90CF90BF90AF909F908F906C
S11348907F906F905F9008955F926F927F928F9256
S11348A09F92AF92BF92CF92DF92EF92FF920F93BB
S11348B01F93CF93DF936C01EB015A01FC01168225
S11348C01782512CF601E380FE01E3FC8591E3FE9F
S11348D08191182FEF01882309F4E0C090E02ED2D3
S11348E0892B19F0C6015FDEEDCF153241F4FE01CC
S11348F0E3FC1591E3FE1191EF01153271F4C60149
S11349004DD297FDC9C0412F50E09C013327241795
S11349103507C1F2B601BCD2C1C01A3239F4E3FC86
S11349201591E3FE1191EF0101E001C000E0F12CCB
S113493020ED210F2A3078F402606F2D70E080E0C2
S113494090E040E209DEF62EFE01E3FC1591E3FE61
S11349501191EF01EDCF01FF03C0F11003C09EC020
S1134960FF24FA94183619F01C3651F010C0FE01D9
S1134970E3FC1591E3FE1191EF01183641F4086050
S11349800460FE01E3FC1591E3FE1191EF01112394
S113499009F484C0612F70E084EA92E0D7D1892BB6
S11349A009F47CC000FD07C0F50180809180C50139
S11349B002965C0102C0812C912C1E3649F4F6014A
S11349C04681578160E070E0202FC401B9DD7ACFC1
S11349D01336A1F401FD02C0FF24F394C601DED115
S11349E097FD5AC08114910429F0F4018083C40115
S11349F001964C01FA94F110F1CF4AC01B3551F4E1
S1134A009E01A4016F2DC6016EDEEC01892B09F015
S1134A103FC039C0C601C7DD97FD3EC01F3649F10E
S1134A2028F4143621F1193639F125C0133771F001
S1134A301537E9F020C08114910429F0F401608253
S1134A40C40101964C01FA94FF2059F0C601A6D185
S1134A503C0197FD06C072D1892B69F3B601C301ED
S1134A6017D281149104A1F0F401108211C00062E4
S1134A7003C0006101C00064202FA4016F2DC60192
S1134A80A8DD811105C0F6018381807329F406C075
S1134A9000FD18CF539416CF552019F0852D90E0C2
S1134AA002C08FEF9FEFDF91CF911F910F91FF9085
S1134AB0EF90DF90CF90BF90AF909F908F907F90BA
S1134AC06F905F9008950F931F93CF93DF93869F0A
S1134AD08001879F100D969F100D1124C8010DD0E1
S1134AE0EC01009721F0A80160E070E045D1CE010F
S1134AF0DF91CF911F910F9108950F931F93CF933F
S1134B00DF938230910510F482E090E0E091FA2185
S1134B10F091FB2120E030E0A0E0B0E0309719F103
S1134B20408151810281138148175907C8F08417C5
S1134B30950769F4109731F012960C931297139617
S1134B401C9327C00093FA211093FB2122C0211546
S1134B50310519F04217530718F49A01BD01EF010A
S1134B60DF01F801DBCF21153105F9F0281B390BE2
S1134B702430310580F48A819B816115710521F00F
S1134B80FB018283938304C08093FA219093FB21D9
S1134B90FE01329644C0FE01E20FF31F819391930C
S1134BA022503109288339833AC02091F821309169
S1134BB0F921232B41F420910220309103202093EA
S1134BC0F8213093F9212091002030910120211502
S1134BD0310541F42DB73EB7409104205091052092
S1134BE0241B350BE091F821F091F921E217F3072A
S1134BF0A0F42E1B3F0B2817390778F0AC014E5F49
S1134C005F4F2417350748F04E0F5F1F4093F8217C
S1134C105093F9218193919302C0E0E0F0E0CF0139
S1134C20DF91CF911F910F910895CF93DF93009758
S1134C3009F481C0FC01329712821382A091FA21F7
S1134C40B091FB21109781F420813181820F931F51
S1134C502091F8213091F9212817390751F5E09373
S1134C60F821F093F92167C0ED0120E030E0CE1780
S1134C70DF0740F44A815B819E0141155105F1F043
S1134C80EA01F5CFC283D38340815181840F951FFC
S1134C90C817D90759F488819981840F951F029602
S1134CA0808391838A819B8182839383211531053B
S1134CB029F4E093FA21F093FB213DC0E901EA8352
S1134CC0FB8349915991C40FD51FEC17FD0761F47B
S1134CD080819181840F951F0296E90188839983CD
S1134CE0828193818A839B83E0E0F0E012968D9128
S1134CF09C911397009719F0FD01DC01F7CF8D917A
S1134D009C9111979D012E5F3F4F820F931F20911D
S1134D10F8213091F9212817390769F4309729F4DB
S1134D201092FA211092FB2102C012821382A093E6
S1134D30F821B093F921DF91CF91089591111FC10A
S1134D40803219F089508550D0F70895FC01059000
S1134D50061621F00020D9F7C00108953197CF013C
S1134D600895FC010590615070400110D8F78095BA
S1134D7090958E0F9F1F0895DC0101C06D934150E3
S1134D805040E0F70895FC0161507040019001101B
S1134D90D8F7809590958E0F9F1F0895CF93DF933A
S1134DA0EC012B8120FF33C026FF0AC02F7B2B830D
S1134DB08E819F8101968E839F838A8190E029C092
S1134DC022FF0FC0E881F9818081082E000C990B25
S1134DD0009719F420622B831AC03196E883F98373
S1134DE00EC0EA85FB85199597FF09C02B810196B2
S1134DF011F080E201C080E1822B8B8308C02E81F8
S1134E003F812F5F3F4F2E833F83992702C08FEF4F
S1134E109FEFDF91CF9108950F931F93CF93DF936B
S1134E20FB01238121FD03C08FEF9FEF2CC022FFE4
S1134E3016C046815781248135814217530744F4B3
S1134E40A081B1819D012F5F3F4F208331838C93DB
S1134E50268137812F5F3F4F2683378314C08B0110
S1134E60EC01FB010084F185E02D1995892BE1F615
S1134E70D80116968D919C911797019616968D934D
S1134E809C931797CE01DF91CF911F910F910895B5
S1134E90FB01238120FF12C026FD10C08F3F3FEF8E
S1134EA0930761F082832F7D2064238326813781D9
S1134EB02150310926833783992708958FEF9FEF77
S1134EC00895FA01AA27283051F1203181F1E8949C
S1134ED06F936E7F6E5F7F4F8F4F9F4FAF4FB1E0E9
S1134EE03ED0B4E03CD0670F781F891F9A1FA11DE4
S1134EF0680F791F8A1F911DA11D6A0F711D811DE5
S1134F00911DA11D20D009F468943F912AE0269FA9
S1134F1011243019305D3193DEF6CF010895462F08
S1134F204770405D4193B3E00FD0C9F7F6CF462FE9
S1134F304F70405D4A3318F0495D31FD4052419352
S1134F4002D0A9F7EACFB4E0A6959795879577950F
S1134F506795BA95C9F700976105710508959B0196
S1134F60AC010A2E06945795479537952795BA951F
S1134F70C9F7620F731F841F951FA01D08959927F9
S10B4F8088270895F894FFCF7F
S1134F880000FC212000802500000300018025008A
S1134F9800030001038A200A00DC050AE81C41F426
S1134FA8FDD4BB69878F433313904380E6C5470913
S1134FB80A0B0C0D0E0F10121314151617181901DD
S1134FC800040307062C2B52656164696E6720454B
S1134FD84550524F4D0047726F756E64205072658C
S1134FE873737572653A20256C690A47726F756E1A
S1134FF8642054656D70657261747572653A202514
S1135008690A00256C6400256400353334332C2583
S1135018692C25692C25692C256C692C25692E2574
S1135028692C25692E25692C253032693A253032B8
S1135038693A253032692C25692E256C692C256935
S11350482E256C692C25692E25692C25692C256942
S11150582C25692C25692C25692C25690A0054
S9030000FC
