:1000000057C100007BC1000079C1000077C100002A
:1000100075C1000073C1000071C100006FC1000014
:100020006DC100006BC1000069C1000067C1000024
:1000300065C100000C941E0AF2C3000028C4000031
:100040005EC4000094C40000CAC4000000C50000E3
:1000500036C500006CC50000A2C50000D8C5000070
:100060004DC100004BC1000049C1000047C1000064
:1000700045C1000043C1000041C100003FC1000074
:100080003DC100003BC1000039C1000037C1000084
:1000900035C1000033C1000031C100002FC1000094
:1000A0002DC100002BC1000029C1000027C10000A4
:1000B00025C1000023C100000C94500A0C94D91FE4
:1000C0000C946F080C94A7080C94DF080C94170983
:1000D0000C944F0913C1000011C100000FC10000B2
:1000E0000DC100000BC100000C94F81F07C10000F7
:1000F00005C1000003C1000001C10000FFC00000F5
:10010000FDC00000FBC00000F9C00000F7C0000007
:1001100021C1000065C10000A9C100008CC200001F
:10012000C7C2000002C300003DC30000E7C00000DA
:10013000E5C00000A4C50000DAC5000010C600003C
:1001400046C600007CC60000B2C60000E8C600003B
:100150001EC7000054C700008AC70000CFC00000BF
:10016000CDC00000CBC00000C9C000000C943220FC
:10017000C5C00000C3C00000C1C00000BFC0000077
:10018000BDC00000BBC00000B9C00000B7C0000087
:10019000B5C00000B3C00000B1C00000AFC0000097
:1001A000ADC00000ABC00000A9C00000A7C00000A7
:1001B000A5C00000A3C00000A1C000009FC00000B7
:1001C0009DC000009BC0000099C0000097C00000C7
:1001D00095C0000093C0000091C000008FC00000D7
:1001E0008DC000008BC0000089C0000087C00000E7
:1001F00085C0000083C0000081C00000181F151FCB
:10020000121F1E1F0F1F0D1F201F201F201F201F2A
:10021000201F201F201F201F201F201F201F201FE6
:100220001B1F07634236B79BD8A71A39685618AE0A
:10023000BAAB558C1D3CB7CC5763BD6DEDFD753E1B
:10024000F6177231BF000000803F08000000BE9228
:100250002449123EABAAAA2ABECDCCCC4C3E00000B
:100260000080BEABAAAAAA3E00000000BF000000AA
:10027000803F0000000000084178D3BB4387D113C2
:100280003D190E3CC3BD4282AD2B3E68EC8276BE6A
:10029000D98FE1A93E4C80EFFFBE01C4FF7F3F0034
:1002A000000000006364696E6F70737578585B00BE
:1002B00011241FBECFEFCDBFDFE3DEBF00E00CBFD8
:1002C00018BE19BE1ABE1BBE10E2A0E0B0E2E0E804
:1002D000FEE500E00BBF02C007900D92AA3BB107FC
:1002E000D9F71BBE22E2AAEBB0E201C01D92AE30EC
:1002F000B207E1F70E94211F0C943E2F81CECF93CD
:10030000DF931F92CDB7DEB780915D2190915E2182
:10031000E0915921F0915A21BE016F5F7F4F1995ED
:100320008981082E000C990B0F90DF91CF910895D1
:10033000682F80915D2190915E21E0915B21F09189
:100340005C21199599231CF081E090E008958FEFCE
:100350009FEF08951F920F920FB60F92112408B6C7
:100360000F9218BE09B60F9219BE0BB60F921BBEA4
:100370002F933F934F935F936F937F938F939F93AD
:10038000AF93BF93EF93FF93E091BB20F091BC201C
:10039000309779F08091870384FF06C040E060E0E9
:1003A00080E893E0199505C040E860E080E893E0BC
:1003B0001995FF91EF91BF91AF919F918F917F918F
:1003C0006F915F914F913F912F910F900BBE0F90C6
:1003D00009BE0F9008BE0F900FBE0F901F9018958A
:1003E0001F920F920FB60F92112408B60F9218BEEB
:1003F00009B60F9219BE0BB60F921BBE2F933F93F7
:100400004F935F936F937F938F939F93AF93BF931C
:10041000EF93FF93E091BB20F091BC20309779F0EF
:100420008091870385FF06C040E061E080E893E0AB
:10043000199505C040E861E080E893E01995FF91C7
:10044000EF91BF91AF919F918F917F916F915F914C
:100450004F913F912F910F900BBE0F9009BE0F90BF
:1004600008BE0F900FBE0F901F9018951F920F920D
:100470000FB60F92112408B60F9218BE09B60F924C
:1004800019BE0BB60F921BBE2F933F934F935F93F2
:100490006F937F938F939F93AF93BF93EF93FF934C
:1004A000E091BB20F091BC20309739F04091870358
:1004B000407C60E080E893E01995FF91EF91BF9157
:1004C000AF919F918F917F916F915F914F913F91EC
:1004D0002F910F900BBE0F9009BE0F9008BE0F908A
:1004E0000FBE0F901F901895CF92DF92EF92FF9260
:1004F0000F931F93CF93DF931F92CDB7DEB72FB724
:100500002983F894C980803823E09207D9F47A01CE
:10051000D62E8C018091BA20811104C061E081E067
:100520000E94A70F8091BA208F5F8093BA20F701B5
:100530008281F8018583F7018381F8018683DD20BC
:1005400019F00BC0CFBE1DC0F7018181F801828375
:10055000F7018081F801808308C0F7018181F801EB
:100560008383F7018081F80181838091BA208150D3
:100570008093BA20811104C061E081E00E94BD0F28
:10058000CFBE0F90DF91CF911F910F91FF90EF9011
:10059000DF90CF900895EF92FF920F931F93CF9328
:1005A000DF931F921F92CDB7DEB72FB72A83F8943F
:1005B000EA80803823E0920709F5F62E8C018091BD
:1005C000BA20811104C061E081E00E94A70F8091F0
:1005D000BA208F5F8093BA20809154218F3F09F415
:1005E000FFCF8FB78983F8949981E3E5F1E28181A8
:1005F0008F5F81839FBFFF2019F007C0EFBE0AC045
:10060000F80180818160808304C0F801818181606C
:100610008183EFBE0F900F90DF91CF911F910F91CB
:10062000FF90EF9008958038934021F46093BB20B1
:100630007093BC2008951F920F920FB60F92112451
:1006400008B60F9218BE09B60F9219BE0BB60F92DC
:100650001BBE2F933F934F935F936F937F938F9323
:100660009F93AF93BF93EF93FF93409124025091D8
:100670002502E0915F21F091602161E080E092E04D
:100680001995FF91EF91BF91AF919F918F917F91BC
:100690006F915F914F913F912F910F900BBE0F90F3
:1006A00009BE0F9008BE0F900FBE0F901F901895B7
:1006B0001F920F920FB60F92112408B60F9218BE18
:1006C00009B60F9219BE0BB60F921BBE2F933F9324
:1006D0004F935F936F937F938F939F93AF93BF934A
:1006E000EF93FF9340912C0250912D02E0915F21F6
:1006F000F091602162E080E092E01995FF91EF9126
:10070000BF91AF919F918F917F916F915F914F9129
:100710003F912F910F900BBE0F9009BE0F9008BE16
:100720000F900FBE0F901F9018951F920F920FB64B
:100730000F92112408B60F9218BE09B60F9219BE77
:100740000BB60F921BBE2F933F934F935F936F9304
:100750007F938F939F93AF93BF93EF93FF934091BA
:10076000340250913502E0915F21F091602164E004
:1007700080E092E01995FF91EF91BF91AF919F9129
:100780008F917F916F915F914F913F912F910F903A
:100790000BBE0F9009BE0F9008BE0F900FBE0F90BA
:1007A0001F9018951F920F920FB60F92112408B642
:1007B0000F9218BE09B60F9219BE0BB60F921BBE50
:1007C0002F933F934F935F936F937F938F939F9359
:1007D000AF93BF93EF93FF9340913C0250913D0242
:1007E000E0915F21F091602168E080E092E019954E
:1007F000FF91EF91BF91AF919F918F917F916F91F9
:100800005F914F913F912F910F900BBE0F9009BEBA
:100810000F9008BE0F900FBE0F901F9018951F925B
:100820000F920FB60F92112408B60F9218BE09B698
:100830000F9219BE0BB60F921BBE2F933F934F938F
:100840005F936F937F938F939F93AF93BF93EF9338
:10085000FF93E091ED20F091EE20309709F019958B
:10086000FF91EF91BF91AF919F918F917F916F9188
:100870005F914F913F912F910F900BBE0F9009BE4A
:100880000F9008BE0F900FBE0F901F9018951F92EB
:100890000F920FB60F92112408B60F9218BE09B628
:1008A0000F9219BE0BB60F921BBE2F933F934F931F
:1008B0005F936F937F938F939F93AF93BF93EF93C8
:1008C000FF93E091EB20F091EC20309709F019951F
:1008D000FF91EF91BF91AF919F918F917F916F9118
:1008E0005F914F913F912F910F900BBE0F9009BEDA
:1008F0000F9008BE0F900FBE0F901F9018951F927B
:100900000F920FB60F92112408B60F9218BE09B6B7
:100910000F9219BE0BB60F921BBE2F933F934F93AE
:100920005F936F937F938F939F93AF93BF93EF9357
:10093000FF93E091E920F091EA20309709F01995B2
:10094000FF91EF91BF91AF919F918F917F916F91A7
:100950005F914F913F912F910F900BBE0F9009BE69
:100960000F9008BE0F900FBE0F901F9018951F920A
:100970000F920FB60F92112408B60F9218BE09B647
:100980000F9219BE0BB60F921BBE2F933F934F933E
:100990005F936F937F938F939F93AF93BF93EF93E7
:1009A000FF93E091E720F091E820309709F0199546
:1009B000FF91EF91BF91AF919F918F917F916F9137
:1009C0005F914F913F912F910F900BBE0F9009BEF9
:1009D0000F9008BE0F900FBE0F901F9018951F929A
:1009E0000F920FB60F92112408B60F9218BE09B6D7
:1009F0000F9219BE0BB60F921BBE2F933F934F93CE
:100A00005F936F937F938F939F93AF93BF93EF9376
:100A1000FF93E091E520F091E620309709F01995D9
:100A2000FF91EF91BF91AF919F918F917F916F91C6
:100A30005F914F913F912F910F900BBE0F9009BE88
:100A40000F9008BE0F900FBE0F901F9018951F9229
:100A50000F920FB60F92112408B60F9218BE09B666
:100A60000F9219BE0BB60F921BBE2F933F934F935D
:100A70005F936F937F938F939F93AF93BF93EF9306
:100A8000FF93E091E320F091E420309709F019956D
:100A9000FF91EF91BF91AF919F918F917F916F9156
:100AA0005F914F913F912F910F900BBE0F9009BE18
:100AB0000F9008BE0F900FBE0F901F9018951F92B9
:100AC0000F920FB60F92112408B60F9218BE09B6F6
:100AD0000F9219BE0BB60F921BBE2F933F934F93ED
:100AE0005F936F937F938F939F93AF93BF93EF9396
:100AF000FF93E091E120F091E220309709F0199501
:100B0000FF91EF91BF91AF919F918F917F916F91E5
:100B10005F914F913F912F910F900BBE0F9009BEA7
:100B20000F9008BE0F900FBE0F901F9018951F9248
:100B30000F920FB60F92112408B60F9218BE09B685
:100B40000F9219BE0BB60F921BBE2F933F934F937C
:100B50005F936F937F938F939F93AF93BF93EF9325
:100B6000FF93E091DF20F091E020309709F0199594
:100B7000FF91EF91BF91AF919F918F917F916F9175
:100B80005F914F913F912F910F900BBE0F9009BE37
:100B90000F9008BE0F900FBE0F901F9018951F92D8
:100BA0000F920FB60F92112408B60F9218BE09B615
:100BB0000F9219BE0BB60F921BBE2F933F934F930C
:100BC0005F936F937F938F939F93AF93BF93EF93B5
:100BD000FF93E091DD20F091DE20309709F0199528
:100BE000FF91EF91BF91AF919F918F917F916F9105
:100BF0005F914F913F912F910F900BBE0F9009BEC7
:100C00000F9008BE0F900FBE0F901F9018951F9267
:100C10000F920FB60F92112408B60F9218BE09B6A4
:100C20000F9219BE0BB60F921BBE2F933F934F939B
:100C30005F936F937F938F939F93AF93BF93EF9344
:100C4000FF93E091DB20F091DC20309709F01995BB
:100C5000FF91EF91BF91AF919F918F917F916F9194
:100C60005F914F913F912F910F900BBE0F9009BE56
:100C70000F9008BE0F900FBE0F901F9018951F92F7
:100C80000F920FB60F92112408B60F9218BE09B634
:100C90000F9219BE0BB60F921BBE2F933F934F932B
:100CA0005F936F937F938F939F93AF93BF93EF93D4
:100CB000FF93E091D920F091DA20309709F019954F
:100CC000FF91EF91BF91AF919F918F917F916F9124
:100CD0005F914F913F912F910F900BBE0F9009BEE6
:100CE0000F9008BE0F900FBE0F901F9018951F9287
:100CF0000F920FB60F92112408B60F9218BE09B6C4
:100D00000F9219BE0BB60F921BBE2F933F934F93BA
:100D10005F936F937F938F939F93AF93BF93EF9363
:100D2000FF93E091D720F091D820309709F01995E2
:100D3000FF91EF91BF91AF919F918F917F916F91B3
:100D40005F914F913F912F910F900BBE0F9009BE75
:100D50000F9008BE0F900FBE0F901F9018951F9216
:100D60000F920FB60F92112408B60F9218BE09B653
:100D70000F9219BE0BB60F921BBE2F933F934F934A
:100D80005F936F937F938F939F93AF93BF93EF93F3
:100D9000FF93E091D520F091D620309709F0199576
:100DA000FF91EF91BF91AF919F918F917F916F9143
:100DB0005F914F913F912F910F900BBE0F9009BE05
:100DC0000F9008BE0F900FBE0F901F9018951F92A6
:100DD0000F920FB60F92112408B60F9218BE09B6E3
:100DE0000F9219BE0BB60F921BBE2F933F934F93DA
:100DF0005F936F937F938F939F93AF93BF93EF9383
:100E0000FF93E091D320F091D420309709F0199509
:100E1000FF91EF91BF91AF919F918F917F916F91D2
:100E20005F914F913F912F910F900BBE0F9009BE94
:100E30000F9008BE0F900FBE0F901F9018951F9235
:100E40000F920FB60F92112408B60F9218BE09B672
:100E50000F9219BE0BB60F921BBE2F933F934F9369
:100E60005F936F937F938F939F93AF93BF93EF9312
:100E7000FF93E091D120F091D220309709F019959D
:100E8000FF91EF91BF91AF919F918F917F916F9162
:100E90005F914F913F912F910F900BBE0F9009BE24
:100EA0000F9008BE0F900FBE0F901F9018951F92C5
:100EB0000F920FB60F92112408B60F9218BE09B602
:100EC0000F9219BE0BB60F921BBE2F933F934F93F9
:100ED0005F936F937F938F939F93AF93BF93EF93A2
:100EE000FF93E091CF20F091D020309709F0199531
:100EF000FF91EF91BF91AF919F918F917F916F91F2
:100F00005F914F913F912F910F900BBE0F9009BEB3
:100F10000F9008BE0F900FBE0F901F9018951F9254
:100F20000F920FB60F92112408B60F9218BE09B691
:100F30000F9219BE0BB60F921BBE2F933F934F9388
:100F40005F936F937F938F939F93AF93BF93EF9331
:100F5000FF93E091CD20F091CE20309709F01995C4
:100F6000FF91EF91BF91AF919F918F917F916F9181
:100F70005F914F913F912F910F900BBE0F9009BE43
:100F80000F9008BE0F900FBE0F901F9018951F92E4
:100F90000F920FB60F92112408B60F9218BE09B621
:100FA0000F9219BE0BB60F921BBE2F933F934F9318
:100FB0005F936F937F938F939F93AF93BF93EF93C1
:100FC000FF93E091CB20F091CC20309709F0199558
:100FD000FF91EF91BF91AF919F918F917F916F9111
:100FE0005F914F913F912F910F900BBE0F9009BED3
:100FF0000F9008BE0F900FBE0F901F9018951F9274
:101000000F920FB60F92112408B60F9218BE09B6B0
:101010000F9219BE0BB60F921BBE2F933F934F93A7
:101020005F936F937F938F939F93AF93BF93EF9350
:10103000FF93E091C920F091CA20309709F01995EB
:10104000FF91EF91BF91AF919F918F917F916F91A0
:101050005F914F913F912F910F900BBE0F9009BE62
:101060000F9008BE0F900FBE0F901F9018951F9203
:101070000F920FB60F92112408B60F9218BE09B640
:101080000F9219BE0BB60F921BBE2F933F934F9337
:101090005F936F937F938F939F93AF93BF93EF93E0
:1010A000FF93E091C720F091C820309709F019957F
:1010B000FF91EF91BF91AF919F918F917F916F9130
:1010C0005F914F913F912F910F900BBE0F9009BEF2
:1010D0000F9008BE0F900FBE0F901F9018951F9293
:1010E0000F920FB60F92112408B60F9218BE09B6D0
:1010F0000F9219BE0BB60F921BBE2F933F934F93C7
:101100005F936F937F938F939F93AF93BF93EF936F
:10111000FF93E091C520F091C620309709F0199512
:10112000FF91EF91BF91AF919F918F917F916F91BF
:101130005F914F913F912F910F900BBE0F9009BE81
:101140000F9008BE0F900FBE0F901F9018951F9222
:101150000F920FB60F92112408B60F9218BE09B65F
:101160000F9219BE0BB60F921BBE2F933F934F9356
:101170005F936F937F938F939F93AF93BF93EF93FF
:10118000FF93E091C320F091C420309709F01995A6
:10119000FF91EF91BF91AF919F918F917F916F914F
:1011A0005F914F913F912F910F900BBE0F9009BE11
:1011B0000F9008BE0F900FBE0F901F9018951F92B2
:1011C0000F920FB60F92112408B60F9218BE09B6EF
:1011D0000F9219BE0BB60F921BBE2F933F934F93E6
:1011E0005F936F937F938F939F93AF93BF93EF938F
:1011F000FF93E091C120F091C220309709F019953A
:10120000FF91EF91BF91AF919F918F917F916F91DE
:101210005F914F913F912F910F900BBE0F9009BEA0
:101220000F9008BE0F900FBE0F901F9018951F9241
:101230000F920FB60F92112408B60F9218BE09B67E
:101240000F9219BE0BB60F921BBE2F933F934F9375
:101250005F936F937F938F939F93AF93BF93EF931E
:10126000FF93E091BF20F091C020309709F01995CD
:10127000FF91EF91BF91AF919F918F917F916F916E
:101280005F914F913F912F910F900BBE0F9009BE30
:101290000F9008BE0F900FBE0F901F9018951F92D1
:1012A0000F920FB60F92112408B60F9218BE09B60E
:1012B0000F9219BE0BB60F921BBE2F933F934F9305
:1012C0005F936F937F938F939F93AF93BF93EF93AE
:1012D000FF93E091BD20F091BE20309709F0199561
:1012E000FF91EF91BF91AF919F918F917F916F91FE
:1012F0005F914F913F912F910F900BBE0F9009BEC0
:101300000F9008BE0F900FBE0F901F901895CF93AF
:10131000DF93E091EF20F091F020848183FF08C0FB
:101320008860848383E0838386EF8093F92083C081
:10133000982F947131F083E083838FEF8093F920AD
:101340007AC086FF43C0CFEED0E2AA81BB818C81F8
:101350009D8114962D913C911597821793076CF4FB
:101360009C012F5F3F4F2093F3203093F420A80F70
:10137000B91F11968C9187835EC08091F520909162
:10138000F62018962D913C91199782179307C8F46F
:101390002091F720222321F08681816086834BC033
:1013A00016962D913C911797AC014F5F5F4F40937C
:1013B000F5205093F620D901A80FB91F8C9187838F
:1013C0003AC083E083831092F92035C0882384F5E6
:1013D000AFEEB0E21296CD91DC91139716968D91F7
:1013E0009C9117972885398582179307D8F46E81C9
:1013F0007F819C012F5F3F4F2093F5203093F62093
:101400004781DB01A80FB91F4C9388859985281760
:10141000390718F482E083830EC087E0838310923B
:10142000F92009C083E0838389EF8093F92003C00A
:101430008BEF8093F920DF91CF9108951F920F9247
:101440000FB60F92112408B60F9218BE09B60F926C
:1014500019BE0BB60F921BBE2F933F934F935F9312
:101460006F937F938F939F93AF93BF93EF93FF936C
:101470004EDFFF91EF91BF91AF919F918F917F913F
:101480006F915F914F913F912F910F900BBE0F90F5
:1014900009BE0F9008BE0F900FBE0F901F901895B9
:1014A0001F920F920FB60F92112408B60F9218BE1A
:1014B00009B60F9219BE0BB60F921BBE2F933F9326
:1014C0004F935F936F937F938F939F93AF93BF934C
:1014D000EF93FF931CDFFF91EF91BF91AF919F912D
:1014E0008F917F916F915F914F913F912F910F90CD
:1014F0000BBE0F9009BE0F9008BE0F900FBE0F904D
:101500001F901895FC01918195FFFDCF608380E0CD
:1015100090E00895FC0191819923ECF78081089572
:101520004F925F926F927F928F929F92AF92BF92F3
:10153000EF92FF920F931F93CF937C014A015B01BF
:1015400028013901FC01848182FF16C0D901C8013C
:10155000689412F8B695A795979587951694D1F744
:10156000B901A801032E36E1769567955795479501
:101570003A95D1F7302D15C0D901C801689413F8F8
:10158000B695A795979587951694D1F7B901A801B7
:10159000032E37E176956795579547953A95D1F79C
:1015A000302D88159905AA05BB0508F4A6C0841638
:1015B0009506A606B70608F4A2C0F701848182FD4D
:1015C00004C0880C991CAA1CBB1CC301B201A50154
:1015D00094010E94EE262F3F31054105510508F484
:1015E00090C08FEF90E0A0E0B0E0C9EF05C02817F1
:1015F00039074A075B0758F0880F991FAA1FBB1FBE
:10160000CD3F0CF48160CF5FC73089F74FC0CC234A
:101610000CF04CC0D501C401880F991FAA1FBB1F35
:10162000880F991FAA1FBB1F880F991FAA1FBB1FD6
:10163000481A590A6A0A7B0ACE3FF4F48DEF9FEFED
:101640008C1B9109C7FD939504C0440C551C661C66
:10165000771C8A95D2F7D501C401B695A7959795C1
:101660008795BC01CD01640D751D861D971DA501D3
:1016700094010E94EE2637C083E08C0FA5019401EF
:1016800004C0220F331F441F551F8A95D2F7DA0179
:10169000C901B695A79597958795BC01CD01640DB5
:1016A000751D861D971D0E94EE261DC083E08C0FC0
:1016B000A501940104C0220F331F441F551F8A95B2
:1016C000D2F7DA01C901B695A79597958795BC0120
:1016D000CD01640D751D861D971D0E94EE262150BB
:1016E000310941095109832F8F70C295C07FC82BE2
:1016F000F701C783268381E018C080E016C080E030
:1017000014C0D501C401880F991FAA1FBB1F880FE1
:10171000991FAA1FBB1F880F991FAA1FBB1F481A1A
:10172000590A6A0A7B0AC9EF89CFCF911F910F919D
:10173000FF90EF90BF90AF909F908F907F906F90B1
:101740005F904F9008950F931F93CF93DF93EC0119
:101750008B01009709F4BEC0803C910521F460E143
:1017600080E0F5D3B7C0C11584E0D80721F464E068
:1017700080E0EDD3AFC0C038E1E0DE0721F462E0E5
:1017800080E0E5D3A7C0C115F1E0DF0721F461E0F7
:1017900080E0DDD39FC0C03883E0D80721F461E04A
:1017A00081E0D5D397C0C115E2E0DE0721F462E005
:1017B00081E0CDD38FC0C032F3E0DF0721F464E0D5
:1017C00082E0C5D387C0C11588E0D80721F461E065
:1017D00083E0BDD37FC0C115E9E0DE0721F461E0FD
:1017E00084E0B5D377C0C115FAE0DF0721F461E0EA
:1017F00085E0ADD36FC0C03488E0D80721F462E043
:1018000083E0A5D367C0C034E9E0DE0721F462E0DD
:1018100084E09DD35FC0C039F8E0DF0721F464E0C5
:1018200083E095D357C0C03989E0D80721F464E03C
:1018300084E08DD34FC0C039EAE0DE0721F464E0D4
:1018400085E085D347C0C03CF8E0DF0721F468E0BD
:1018500083E07DD33FC0C03C89E0D80721F468E035
:1018600084E075D337C0C03AE8E0DE0721F460E1D8
:1018700083E06DD32FC0C03AF9E0DF0721F460E1C7
:1018800084E065D327C0C03A8AE0D80721F460E13C
:1018900085E05DD31FC0C03BE8E0DE0721F460E2D5
:1018A00083E055D317C0C03BF9E0DF0721F460E2C5
:1018B00084E04DD30FC0C03884E0D80721F460E441
:1018C00083E045D307C0C03AE4E0DE0719F460E4E2
:1018D00085E03DD38D818F738D83F801958184815F
:1018E000892B9681911198E0892B8D83F801408195
:1018F00051816281738100E018E428EE31E0CE016D
:101900000FDE9C8198609C839C8190619C83DF9119
:10191000CF911F910F91089560917C2170917D214D
:1019200080917E2190917F210895E0E0F6E09481FE
:1019300088E0892784830895E0E0F6E0808188606C
:101940008083F3CF0895FF920F931F93CF93DF937C
:1019500062E081E0FCD2C0E0D2E0FF24F394F882A0
:10196000198280E18A8385E08C8361E270E082E005
:1019700019D3082F10E0102F002760E270E082E0FA
:1019800011D3082B0C871D87F8A219A2DF91CF91E4
:101990001F910F91FF900895E0E0F2E080A1806830
:1019A00080A383A18823E9F38091240290912502EA
:1019B0000895CF93DF93CDB7DEB72797CDBFDEBFB6
:1019C00060E284E0C4D2E0E6F6E080818068808353
:1019D000E6E0F0E284818D8385818E8386818F832A
:1019E00080819181A281B38189839A83AB83BC83F7
:1019F00060E284E0ACD2BE016F5F7F4F80EB99E084
:101A0000A2DE2796CDBFDEBFDF91CF91089504C03F
:101A1000615071098109910961157105810591056F
:101A2000B9F70895E0E4F6E0948180E189278483A2
:101A30000895E0E4F6E0848180618483F3DF8EE141
:101A4000B9D060E87EE380E090E0E1DFEBDF6BEAB5
:101A500079E280E090E0DBCF0895CF93DF93C82F49
:101A6000E1DF8C2FA7D097D0C82FD0E0DC2FCC2778
:101A700092D0C82BD7DFCE01DF91CF910895CF93BD
:101A8000DF9300D01F92CDB7DEB719821A821B8276
:101A90001C82C8DF88E48ED066E570ED80E090E0BF
:101AA000B6DFC0DFBFDF80E085D075D090E0A0E07A
:101AB000B0E0DC019927882789839A83AB83BC83B4
:101AC0006AD049815A816B817C81582B49835A8322
:101AD0006B837C8360D049815A816B817C81482BE8
:101AE00049835A836B837C839DDF69817A818B81F3
:101AF0009C812496CDBFDEBFDF91CF910895CF9317
:101B0000DF9300D01F92CDB7DEB719821A821B82F5
:101B10001C8288DF88E54ED066E570ED80E090E0BD
:101B200076DF80DF7FDF80E045D035D090E0A0E039
:101B3000B0E0DC019927882789839A83AB83BC8333
:101B40002AD049815A816B817C81582B49835A83E1
:101B50006B837C8320D049815A816B817C81482BA7
:101B600049835A836B837C835DDF69817A818B81B2
:101B70009C812496CDBFDEBFDF91CF910895E0E434
:101B8000F6E08081806B808368E083E0E0D18CE5C3
:101B90008093C00808959FB7F8948FEF8093C3088F
:101BA000E0ECF8E082818823ECF778949FBF809185
:101BB000C30808959FB7F8948093C308E0ECF8E059
:101BC00082818823ECF778949FBF0895CF93DF93A9
:101BD000EB01A0DC8883DF91CF91089593CC089529
:101BE000CF93DF93CDB7DEB72797CDBFDEBF60E1E0
:101BF00085E0ADD1E0E8F6E080818860808380EA0E
:101C00009AE080935D2190935E218EEE9DE080931B
:101C10005B2190935C2186EE9DE080935921909307
:101C20005A21EDE0F0E284818D8385818E83868167
:101C30008F8380819181A281B38189839A83AB83D1
:101C4000BC8360E185E083D1BE016F5F7F4F80EA96
:101C50009AE079DD6FE771E088E991E00E948527DD
:101C60002796CDBFDEBFDF91CF910895FF920F93EE
:101C70001F93CF93DF9362E081E069D1C0E0D2E0AF
:101C8000FF24F394F882198280E18A8385E08C83B3
:101C900061E270E082E086D1082F10E0102F00276B
:101CA00060E270E082E07ED1082B0C871D87F8A6E9
:101CB00019A6DF91CF911F910F91FF900895E0E059
:101CC000F2E080A5806880A783A58823E9F380914E
:101CD0002C0290912D020895CF93DF93FC014115C2
:101CE0005105B1F180E090E020E0880F991FDB0101
:101CF000A80FB91F8D919C91A281B381AA0FBB1F20
:101D0000C681D781AC0FBD1F8D939C938281938137
:101D1000019682839383A081B1818A179B0711F476
:101D20001282138282819381C481D5818C179D0791
:101D300049F40196A817B90719F08483958302C066
:101D4000148215822F5F822F90E08417950768F226
:101D5000DF91CF910895FC011282138214821582C3
:101D600066837783408351830895DC011296ED9159
:101D7000FC911397CB010196E817F90778F0E15031
:101D8000F048E61BF70BEE0FFF1F16968D919C9106
:101D90001797E80FF91F8081918108952D913C914B
:101DA0001197E20FF31FE150F048E61BF70BEE0F1F
:101DB000FF1F16968D919C911797E80FF91F808150
:101DC00091810895CF92DF92EF92FF92CF93DF93AC
:101DD000FC014115510509F43FC080E090E020E08E
:101DE000880F991F880F991FDB01A80FB91FCD908D
:101DF000DD90ED90FC90A281B381AA0FBB1FAA0FCA
:101E0000BB1F86819781A80FB91FCD92DD92ED92FD
:101E1000FC92139782819381019682839383A081A0
:101E2000B1818A179B0711F41282138282819381F8
:101E3000C481D5818C179D0749F40196A817B9076D
:101E400019F08483958302C0148215822F5F822F3C
:101E500090E08417950720F2DF91CF91FF90EF90EB
:101E6000DF90CF900895FC011282138214821582B4
:101E700066837783408351830895DC011296ED9148
:101E8000FC911397CB010196E817F90798F0E15000
:101E9000F04CE61BF70BEE0FFF1FEE0FFF1F169621
:101EA0008D919C911797E80FF91F60817181828154
:101EB000938108952D913C911197E20FF31FE1500A
:101EC000F04CE61BF70BEE0FFF1FEE0FFF1F1696F1
:101ED0008D919C911797E80FF91F60817181828124
:101EE00093810895CF93DF931F921F92CDB7DEB7F2
:101EF0008FEF8093700080937100809372008093C5
:101F000073008093740080937500809376008FB780
:101F10008A83F8949A81E0E5F0E080818260808392
:101F20009FBF818181FFFDCF61E080E490E044D0DC
:101F30008FB78983F8949981E0E5F0E080818E7F06
:101F400080839FBF0F900F90DF91CF910895CF9323
:101F5000DF931F92CDB7DEB79FB79983F89499812D
:101F6000E82FF0E0E059FF4F60958081682360839F
:101F70009FBF0F90DF91CF910895CF93DF931F9272
:101F8000CDB7DEB79FB79983F8949981E82FF0E039
:101F9000E059FF4F8081682B60839FBF0F90DF91D6
:101FA000CF9108954091CA01E62FF72F8093CA017F
:101FB00084914093CA0108951BBEFC0128ED24BF03
:101FC0006083089504C06150710981099109611508
:101FD000710581059105B9F7089580913C21909193
:101FE0003D21019680933C2190933D210895CF930C
:101FF000DF931FDD82EA90E030DDC3E4D1E2888325
:10200000998384EA90E029DD8A839B8386EA90E0C5
:1020100024DD8C839D8388EA90E01FDD8E839F837F
:102020008AEA90E01ADD888799878CEA90E015DDCE
:102030008A879B879F938F9389858F9388858F93BA
:102040008F818F938E818F938D818F938C818F93CE
:102050008B818F938A818F9389818F9388818F93CE
:102060008AE490E29F938F930E94CF278DB79EB70B
:102070000E968DBF9EBFDF91CF9108959ADC6BEADB
:1020800079E280E090E09EDF80E38093B3090895D9
:10209000CF93DF9300D01F92CDB7DEB784E0FE016F
:1020A0003196DF01982F1D929A95E9F789838EE387
:1020B0008B838FE28A83E0E8F3E08081886080830D
:1020C0006DEE7FE080E893E00E9413038981982FF2
:1020D000906C99839C81292F207321F09C7F9260C2
:1020E0009C8303C08F70806E8983AE014F5F5F4F0A
:1020F00060E080E893E00E94740260E080E893E092
:102100000E94CB022496CDBFDEBFDF91CF91089510
:102110004F925F926F927F928F929F92AF92BF92F7
:10212000CF92DF92EF92FF92CF93DF93A8DC6B0107
:102130007C01E5DC0E943A244B015C01C3E4D1E25E
:102140006885798580E090E00E943A2420E030E0C4
:1021500040E853E40E94F0249B01AC01C501B401A6
:102160000E9438234B015C016C817D8180E090E00E
:102170000E943A24A50194010E94F02420E030E05E
:1021800040E05CE30E94F0242B013C0168817981EE
:1021900080E090E00E943A2420E030E040E857E4FC
:1021A0000E94F0249B01AC01C301B2010E943923BB
:1021B0002B013C01C701B6010E943A249B01AC01EE
:1021C000C301B2010E94F02420E030E040E055E37A
:1021D0000E94F0246B017C016E817F8180E090E0A1
:1021E0000E943A24A50194010E94F02420E030E0EE
:1021F00040E85CE30E94F0244B015C016A817B8132
:1022000080E090E00E943A2420E030E040E058E492
:102210000E94F0249B01AC01C501B4010E94392346
:102220009B01AC01C701B6010E94382320E030E0D9
:1022300040E058E30E94F024DF91CF91FF90EF90AF
:10224000DF90CF90BF90AF909F908F907F906F90D6
:102250005F904F9008954F925F926F927F928F920E
:102260009F92AF92BF92CF92DF92EF92FF922B019B
:102270003C01C0901F20D0902020E0902120F090C1
:10228000222020912320309124204091252050911C
:102290002620C701B6010E94F02420911B20309116
:1022A0001C2040911D2050911E200E94A1234B0113
:1022B0005C01A301920160912B2070912C208091F0
:1022C0002D2090912E200E94A123A50194010E940F
:1022D000532520E030E040E85FE30E94382320915E
:1022E0002720309128204091292050912A200E94B7
:1022F000F024A70196010E94A123FF90EF90DF90A8
:10230000CF90BF90AF909F908F907F906F905F9095
:102310004F900895CF92DF92EF92FF92D0DCBC01F4
:1023200080E090E00E943A2423E43EE242E05AE357
:102330000E94F02424EE3AE545EC5DE30E94382348
:102340006B017C012BE235EB42E150E40E94F0246A
:102350009B01AC01C701B6010E943923FF90EF90A9
:10236000DF90CF9008952F923F924F925F926F929D
:102370007F928F929F92AF92BF92CF92DF92EF9215
:10238000FF920F931F93CF93DF9300D000D0CDB770
:10239000DEB76C0180911420882309F46CC000E042
:1023A00010E0412C512C3201862E912CA12CB12C05
:1023B00089829A82AB82BC82B801C601D6DC5C01FC
:1023C00018012FEF221A320AB101C601CEDC7C01BE
:1023D000B8016E5F7F4FC601C8DCA501BB0C660B60
:1023E000770B8A019B01000F111F221F331F400F23
:1023F000511F621F731F8701FF0C220B330B7801E3
:102400008901EE0CFF1C001F111FEE0CFF1C001FAA
:10241000111F4A015B018E189F08A00AB10AAC0186
:10242000990F660B770BD501C401840F951FA61F6A
:10243000B71F9C01AD0169817A818B819C810E94CB
:10244000B8260E943C2420E030E040E05FE30E9498
:10245000F0249B01AC01C301B2010E9439232B017E
:102460003C01809114208101282F30E02216330690
:1024700008F4A2CF03C0412C512C3201682F70E028
:1024800080E090E00E943C249B01AC01C301B201BA
:102490000E94A12320E030E048EC52E40E94A123F6
:1024A0002696CDBFDEBFDF91CF911F910F91FF9098
:1024B000EF90DF90CF90BF90AF909F908F907F90E4
:1024C0006F905F904F903F902F9008953F924F9262
:1024D0005F926F927F928F929F92AF92BF92CF92B4
:1024E000DF92EF92FF920F931F93CF93DF9300D071
:1024F00000D0CDB7DEB78C0119821A82C12CD12C45
:10250000760169817A81C801B8DC4B015C0121E662
:10251000821A2EEA920A2AE0A20AB1082FE782164E
:102520002AE1920626E0A206B10480F40E943C242F
:1025300020E030E040EA50E40E94A1239B01AC017E
:10254000C701B6010E9439236B017C0189819A8100
:10255000019689839A830597A1F619821A82812CA4
:10256000912C540169817A81C80187DC2B013C01DF
:1025700021E6421A2EEA520A2AE0620A71082FE77F
:1025800042162AE1520626E06206710490F40E9487
:102590003C24A70196010E9438239B01AC010E94B4
:1025A000F0249B01AC01C501B4010E9439234B0109
:1025B0005C0189819A81019689839A83059791F6B6
:1025C00020E030E040E85EE3C501B4010E94F02461
:1025D00069837A838B839C831D821E82312C412CDC
:1025E000512C32016D817E81C80147DC4B015C01B9
:1025F00021E6821A2EEA920A2AE0A20AB1082FE7FF
:1026000082162AE1920626E0A206B10450F50E9445
:102610003C244B015C01A70196010E9438230E94D3
:1026200009249B01772324F422273327261B370B09
:10263000B901330F880B990B0E943C249B01AC011C
:1026400069817A818B819C810E94EC2488234CF0E3
:10265000A5019401C301B2010E9439232B013C0161
:1026600033948D819E8101968D839E83059709F019
:10267000B9CF332069F0632D70E080E090E00E94D4
:102680003A249B01AC01C301B2010E94A12304C002
:1026900060E070E080E89FEB2696CDBFDEBFDF9163
:1026A000CF911F910F91FF90EF90DF90CF90BF904F
:1026B000AF909F908F907F906F905F904F903F90E2
:1026C0000895AF92BF92CF92DF92EF92FF920F9355
:1026D0001F93CF93DF9300D000D0CDB7DEB75C015E
:1026E0008B0116DD20E030E040E251E40E94F0244E
:1026F0000E94092469837A838B839C8341E050E0A4
:10270000BE016F5F7F4FC8015DDBC801DFDE20E0E7
:1027100030E040E251E40E94A1236B017C0120E003
:1027200030E040E85FEB0E949D238823D1F1C09206
:102730002C21D0922D21E0922E21F0922F21C70141
:10274000B60189DD60932421709325218093262191
:102750009093272160912421709125218091262139
:102760009091272120E030E048EC52E40E94F024D0
:102770000E9409246D837E8341E050E0BE016B5FBF
:102780007F4FC501A9DA6091172070911820C5010B
:10279000EADD60931C2170931D2180931E2190938C
:1027A0001F21FAD88D839E8383E393E1A5E9B3E4E7
:1027B0008093282190932921A0932A21B0932B2143
:1027C000A9DD609320217093212180932221909391
:1027D00023212696CDBFDEBFDF91CF911F910F91B0
:1027E000FF90EF90DF90CF90BF90AF9008958091D1
:1027F0005221813081F138F0823009F455C08330A4
:1028000009F4FCC07CC060911C2170911D21809155
:102810001E2190911F2120E030E040E450E40E940E
:102820009D2388230CF0EAC060912421709125211A
:10283000809126219091272120E030E041EE53E461
:102840000E94EC2418160CF0D9C0809152218F5FA1
:1028500080935221089560911C2170911D218091D7
:102860001E2190911F2120E030E040E450E40E94BE
:102870009D23882384F460912421709125218091E7
:1028800026219091272120E030E041EE53E40E9480
:102890009D2388231CF081E0809351218091522157
:1028A0008F5F80935221089560911C2170911D21AA
:1028B00080911E2190911F210E9409249B01772362
:1028C00024F422273327261B370B233031058CF0C5
:1028D00060912421709125218091262190912721BA
:1028E00020E030E040E251E40E949D2388230CF078
:1028F00085C0809152218F5F80935221089560910D
:102900001C2170911D2180911E2190911F2120E09A
:1029100030E040E450E40E94EC24181614F41092C5
:10292000522160912421709125218091262190913E
:10293000272120E030E041EE53E40E94EC241816F9
:102940009CF460911C2170911D2180911E21909119
:102950001F2120E030E040E450E40E949D238823C2
:102960001CF481E0809352216091242170912521F3
:10297000809126219091272120E030E041EE53E420
:102980000E949D2388239CF460911C2170911D213D
:1029900080911E2190911F2120E030E040E450E41E
:1029A0000E949D2388231CF482E080935221609131
:1029B0001C2170911D2180911E2190911F210E9448
:1029C00009249B01772324F422273327261B370B66
:1029D000233031059CF46091242170912521809150
:1029E00026219091272120E030E040E251E40E942E
:1029F0009D2388231CF483E080935221089561E095
:102A000084E0A5DA64E084E0A2DAE0E6F6E0808122
:102A100087608083E0E0F9E085E0808383E1818363
:102A200080E197E286A397A386A197A1885592405B
:102A300080A791A70895E0E0F6E08081846080831C
:102A400084818460848308958F929F92AF92BF9215
:102A5000CF92DF92EF92FF920F931F93CF93DF936A
:102A60007C01C0E0D0E000E010E0BE01C7017DD9EC
:102A7000080F191F2196CA30D105B9F760E070E040
:102A8000C70173D9EC016091172070911820C7011C
:102A90006ADC6B017C01BE01DD0F880B990B0E9483
:102AA0003C2420E030E0A9010E94F02420E030E046
:102AB00048EC52E40E94A1234B015C01B801110FC4
:102AC000880B990B0E943C2420E030E0A9010E9471
:102AD000F02420E030E048EC52E40E94A1239B0166
:102AE000AC01C501B4010E9439234B015C0120E017
:102AF00030E0A901C701B6010E94F0249B01AC019E
:102B0000C501B4010E94392320E030E84BEB54E4C6
:102B10000E9439230E940E246093192070931A207A
:102B20006091192070911A2080E090E00E943A2470
:102B300020E030E04AE754E40E94A12320E030E0A6
:102B40004AEF53E40E94F0240E940E246093280967
:102B500070932909DF91CF911F910F91FF90EF9012
:102B6000DF90CF90BF90AF909F908F90089561E0DD
:102B700085E0EDD9E0E0FAE087E0808381E19AE743
:102B800086A397A381E086830895CF92DF92EF9288
:102B9000FF9280913C2190913D21C090FE20D090E9
:102BA000FF20E0900021F09001212CE3289FB0014C
:102BB000299F700D112480E090E00E943A24A70123
:102BC00096010E94392320E030E040E05FE30E945C
:102BD000F0246093FE207093FF2080930021909357
:102BE000012110923C2110923D21FF90EF90DF9047
:102BF000CF900895CF93DF931F921F92CDB7DEB78A
:102C000080912C2190912D21A0912E21B0912F21E6
:102C100080932B2090932C20A0932D20B0932E20D6
:102C20000E94CC0C89839A8383E393E1A5E9B3E402
:102C30008093272090932820A0932920B0932A20C6
:102C40000F900F90DF91CF9108950E948C0C6093AC
:102C50003E2170933F21809340219093412108951C
:102C6000C9DFF3CF0895E0E0F9E086A197A1885E7F
:102C7000934080A791A781E0809351210895E0E0DF
:102C8000F9E086A197A18855924080A791A710925C
:102C9000512108952F923F924F925F926F927F92AF
:102CA0008F929F92AF92BF92CF92DF92EF92FF925C
:102CB0000F931F93CF93DF93CDB7DEB7E997CDBFC7
:102CC000DEBF809130219091312101968093302197
:102CD000909331216091FA207091FB208091FC202B
:102CE0009091FD202091522129834090FE20509008
:102CF000FF2060900021709001218090022190902F
:102D00000321A0900421B0900521C0900621D0900D
:102D10000721E0900821F090092140910A2150916B
:102D20000B2148AF59AF20910C2130910D214091DA
:102D30000E2150910F212A833B834C835D83209188
:102D40000C2130910D2140910E2150910F212E83A5
:102D50003F8348875987209110213091112140915C
:102D60001221509113212A873B874C875D87209140
:102D700010213091112140911221509113212E8761
:102D80003F87488B598B2091142130911521409118
:102D90001621509117212A8B3B8B4C8B5D8B2091F8
:102DA00014213091152140911621509117212E8B1D
:102DB0003F8B488F598F20911821309119214091D4
:102DC0001A2150911B212A8F3B8F4C8F5D8F2091B0
:102DD00018213091192140911A2150911B212E8FD9
:102DE0003F8F48A359A32091182130911921409178
:102DF0001A2150911B212AA33BA34CA35DA3209130
:102E000020213091212140912221509123212EA374
:102E10003FA348A759A7209128213091292140910B
:102E20002A2150912B212AA73BA74CA75DA72091CF
:102E30002C2130912D2140912E2150912F212EA710
:102E40003FA748AB59AB20912421309125214091D7
:102E50002621509127212AAB3BAB4CAB5DAB0091B7
:102E60003021109131212090342130903521409132
:102E70003421509135214EAB5FAB0E9409247F93E2
:102E80006F931F9259815F93C301B2010E9409247D
:102E90007F936F93C501B4010E9409247F936F93C0
:102EA000C701B6010E9409247F936F9389AD8F9368
:102EB00098AD9F936A817B818C819D810E940924BA
:102EC0009B01220F331F660F771F660F771F660F58
:102ED000771FC901860F971F6AE070E00E94DB260A
:102EE0009F938F936E817F81888599850E940924A5
:102EF0007F936F9320E034E244E759E46A857B8551
:102F00008C859D850E94F0240E94092420E432E4EF
:102F10004FE050E00E9410279B01772324F42227E2
:102F20003327261B370BC901330FAA0BBB0BBF93EB
:102F3000AF939F938F936E857F85888999890E942F
:102F400009247F936F9320E034E244E759E46A89CF
:102F50007B898C899D890E94F0240E94092420E4A9
:102F600032E44FE050E00E9410279F938F937F93AD
:102F70006F936E897F89888D998D0E9409247F9334
:102F80006F936A8D7B8D8C8D9D8D0E9409240F2EF1
:102F9000F4E6CF2ED12CE12CF12CF02DA7019601D7
:102FA0000E9410277F936F936E8D7F8D88A199A1CA
:102FB0000E9409240F2EF0E18F2EF7E29F2EA12C04
:102FC000B12CF02DA50194010E941027A7019601B4
:102FD0000E9410273F932F936AA17BA18CA19DA1F2
:102FE0000E940924A50194010E9410273F932F936A
:102FF0006EA17FA188A599A50E9409247F936F9354
:1030000023E333E948E853E46AA57BA58CA59DA595
:103010000E9438230E9409247F936F936EA57FA599
:1030200088A999A90E9409249F938F937F936F93F6
:103030006AA97BA98CA99DA90E9409247F936F93FB
:103040001F930F939101ADECBCEC0E943527969530
:10305000879596958795969587959C01220F331FA6
:10306000880F991F880F991F880F991F820F931F30
:10307000281A390A3F922F922EA93FA90E9435277C
:103080009695879596958795969587959F938F9317
:10309000809116208F93809115208F9320EA31E242
:1030A0003F932F930E94E227CDBFDEBF20EA31E29B
:1030B0003F932F930E94CF270F900F90E996CDBF9B
:1030C000DEBFDF91CF911F910F91FF90EF90DF90C6
:1030D000CF90BF90AF909F908F907F906F905F90B8
:1030E0004F903F902F9008954F925F926F927F92F2
:1030F0008F929F92AF92BF92CF92DF92EF92FF9208
:103100000F931F93CF93DF93CDB7DEB7A097CDBFBB
:10311000DEBFABE2B0E2FC9111965C901197129683
:103120006C90129713967C90139714968C9014972A
:1031300015969C9015971696AC90169717964C90EE
:10314000A7E2B0E2EC911196BC9011971296CC9048
:1031500012971396DC9013971496EC90149715968B
:10316000FC90159716961C9116971796AC91F983BB
:103170002F2F352D462D572D682D792D8A2D942DE5
:1031800008E00E9469272A832F2F352D462D572DC1
:10319000682D792D8A2D942D00E10E9469272B83BB
:1031A0002F2F352D462D572D682D792D8A2D942DB5
:1031B00008E10E9469272C832F2F352D462D572D8E
:1031C000682D792D8A2D942D00E20E9469272D8388
:1031D0002F2F352D462D572D682D792D8A2D942D85
:1031E00008E20E9469272E832F2F352D462D572D5B
:1031F000682D792D8A2D942D00E30E9469272F8355
:103200002F2F352D462D572D682D792D8A2D942D54
:1032100008E30E9469272887E9872E2F3B2D4C2D34
:103220005D2D6E2D7F2D812F9A2F08E00E9469273A
:103230002A872E2F3B2D4C2D5D2D6E2D7F2D812F1E
:103240009A2F00E10E9469272B872E2F3B2D4C2DB2
:103250005D2D6E2D7F2D812F9A2F08E10E94692709
:103260002C872E2F3B2D4C2D5D2D6E2D7F2D812FEC
:103270009A2F00E20E9469272D872E2F3B2D4C2D7F
:103280005D2D6E2D7F2D812F9A2F08E20E946927D8
:103290002E872E2F3B2D4C2D5D2D6E2D7F2D812FBA
:1032A0009A2F00E30E9469272F872E2F3B2D4C2D4C
:1032B0005D2D6E2D7F2D812F9A2F08E30E946927A7
:1032C000288B80E1EFE2F0E2DE01519601900D9251
:1032D0008A95E1F783E38093CA01FE017196CE01DE
:1032E0000196AE014F5D5F4F60EC71E02191DB0113
:1032F0002C93DC012D91CD01DB0114962C93E41766
:10330000F507A1F7E0ECF1E085E38287108280E128
:10331000818388ED84BF81E0838787858823ECF3F0
:10332000A096CDBFDEBFDF91CF911F910F91FF908F
:10333000EF90DF90CF90BF90AF909F908F907F9055
:103340006F905F904F9008950F931F93CF93DF93EB
:10335000CDB7DEB7A197CDBFDEBF609124217091BC
:10336000252180912621909127210E940924162F42
:10337000072F60911C2170911D2180911E21909139
:103380001F210E940924262F372F8091362190E09B
:10339000019664E670E00E94DB2680933621A091BE
:1033A0003021B0913121E0913021F09131216091B3
:1033B00034217091352140913421509135219091E3
:1033C000522109831A83BB83EC837D834E833F8321
:1033D000288789878A879B878BE0FE013196DE01EB
:1033E0001C9601900D928A95E1F78BE0EFE3F0E2F5
:1033F000DE01579601900D928A95E1F783E3809361
:10340000CA0180E090E0E0ECF1E0A7E1B0E0AC0FB1
:10341000BD1FA80FB91F2C912083ACE0B0E0AC0F0A
:10342000BD1FA80FB91F2C91248301968A309105E6
:1034300061F7E0ECF1E085E38287108280E181832F
:1034400088ED84BF81E0838787858823ECF3A1968C
:10345000CDBFDEBFDF91CF911F910F9108952F92C5
:103460003F924F925F926F927F928F929F92AF9214
:10347000BF92CF92DF92EF92FF920F931F93CF9361
:10348000DF93CDB7DEB7EF97CDBFDEBF80913021A0
:103490009091312101968093302190933121609158
:1034A000FA207091FB208091FC209091FD202091CA
:1034B000522129834090FE205090FF2060900021EF
:1034C000709001218090022190900321A09004210E
:1034D000B0900521C0900621D0900721E0900821EE
:1034E000F090092140910A2150910B214EAF5FAF1E
:1034F00020910C2130910D2140910E2150910F21EE
:103500002A833B834C835D8320910C2130910D21D4
:1035100040910E2150910F212E833F834887598778
:1035200020911021309111214091122150911321AD
:103530002A873B874C875D8720911021309111218C
:1035400040911221509113212E873F87488B598B30
:10355000209114213091152140911621509117216D
:103560002A8B3B8B4C8B5D8B209114213091152144
:1035700040911621509117212E8B3F8B488F598FE8
:10358000209118213091192140911A2150911B212D
:103590002A8F3B8F4C8F5D8F2091182130911921FC
:1035A00040911A2150911B212E8F3F8F48A359A380
:1035B000209118213091192140911A2150911B21FD
:1035C0002AA33BA34CA35DA320912021309121216C
:1035D00040912221509123212EA33FA348A759A710
:1035E00020912021309121214091222150912321AD
:1035F0002AA73BA74CA75DA720912821309129211C
:1036000040912A2150912B212EA73FA748AB59ABBF
:10361000209128213091292140912A2150912B215C
:103620002AAB3BAB4CAB5DAB20912C2130912D21D3
:1036300040912E2150912F212EAB3FAB48AF59AF77
:10364000209124213091252140912621509127213C
:103650002AAF3BAF4CAF5DAF20903021309031218D
:1036600000913421109135210E9409247F936F939A
:103670001F9239813F93C301B2010E9409247F93B5
:103680006F93C501B4010E9409247F936F93C70112
:10369000B6010E9409247F936F934FAD4F935EADA7
:1036A0005F936A817B818C819D810E9409249B01AB
:1036B000220F331F660F771F660F771F660F771F66
:1036C000C901860F971F6AE070E00E94DB269F9376
:1036D0008F936E817F81888599850E9409247F93CD
:1036E0006F9320E034E244E759E46A857B858C855A
:1036F0009D850E94F0240E94092420E432E44FE0DA
:1037000050E00E9410279B01772324F422273327BF
:10371000261B370BC901330FAA0BBB0BBF93AF930B
:103720009F938F936E857F85888999890E9409244C
:103730007F936F9320E034E244E759E46A897B8900
:103740008C899D890E94F0240E94092420E432E49F
:103750004FE050E00E9410279F938F937F936F93C9
:103760006E897F89888D998D0E9409247F936F933C
:103770006A8D7B8D8C8D9D8D0E9409240F2EF4E621
:10378000CF2ED12CE12CF12CF02DA70196010E9417
:1037900010277F936F936E8D7F8D88A199A10E94D2
:1037A00009240F2EF0E18F2EF7E29F2EA12CB12CD1
:1037B000F02DA50194010E941027A70196010E94F7
:1037C00010273F932F936AA17BA18CA19DA10E94FA
:1037D0000924A50194010E9410273F932F9320E014
:1037E00030E040E251E46EA17FA188A599A50E9436
:1037F000F0240E940924CB016AE070E00E94DB26DD
:103800009F938F936AA57BA58CA59DA50E940924F3
:103810007F936F9320E030E040E251E46EA57FA5F6
:1038200088A999A90E94F02420E038EB4AE255E4E7
:103830001FD7EFD7CB016AE070E00E94DB269F9391
:103840008F9323E333E948E853E46AA97BA98CA961
:103850009DA90ED7DED77F936F936EA97FA988AD00
:1038600099ADD7D79F938F937F936F936AAD7BADBD
:103870008CAD9DADCED77F936F933F922F921F93C8
:103880000F93809116208F93809115208F9380EA5B
:1038900091E29F938F930E94E227CDBFDEBF80EA23
:1038A00091E29F938F930E94CF274EDD109250217B
:1038B0000F900F90EF96CDBFDEBFDF91CF911F919C
:1038C0000F91FF90EF90DF90CF90BF90AF909F90BF
:1038D0008F907F906F905F904F903F902F900895C2
:1038E000CF93DF93C0ECD1E026E02A8788839983C9
:1038F00088ED84BF81E08B8766ED74E180E090E025
:103900000E94E20F8C81DF91CF9108952F923F9218
:103910004F925F926F927F928F929F92AF92BF92DF
:10392000CF92DF92EF92FF920F931F93CF93DF938B
:10393000CDB7DEB72997CDBFDEBF0E94720F6BEA0D
:1039400079E280E090E00E94E20F78948CEB809323
:10395000400687E08093A2000E949C0C0E94F00D1C
:103960006BEA70EB88E290E00E94E20F80E28093C5
:10397000A30A0E943E100E9448100E94A30C0E94BD
:10398000360E0E94BF0D0E94F70F0E94950CEFD8D3
:1039900036D851D882E090E1A3DF89838FE190E1AE
:1039A0009FDF8A8399818A819813D3C189818F3F50
:1039B00009F4CFC180E190E193DF182F8FE090E10F
:1039C0008FDFB82F212F30E040E050E060E070E062
:1039D00080E090E008E30E944E27122FC32EF42EC1
:1039E000A52FF62FE72FD82EE92E2B2F30E040E021
:1039F00050E060E070E080E090E000E30E944E273D
:103A0000122BC32AF42A9A2E952AAF2EA62ABE2E4E
:103A1000B72AD82AE92A8EE090E162DF082F8DE0EC
:103A200090E15EDF282E8CE090E15ADF382E8BE0AB
:103A300090E156DF482E8AE090E152DF582E89E06F
:103A400090E14EDF682E202F30E040E050E060E053
:103A500070E080E090E008E20E944E271629122BC9
:103A6000C32AF42AA52FA929F62FFA29E72FEB2933
:103A7000D82AE92A222D30E040E050E060E070E0F2
:103A800080E090E000E20E944E27122BC32AF42A25
:103A9000A52BF62BE72BD82AE92A232D30E040E08E
:103AA00050E060E070E080E090E008E10E944E2786
:103AB000122BC32AF42AA52BF62BE72BD82AE92AA6
:103AC000242D30E040E050E060E070E080E090E0E5
:103AD00000E10E944E27122BC32AF42AA52BF62BB5
:103AE000E72BD82AE92A252D30E040E050E060E0BD
:103AF00070E080E090E008E00E944E27612E622A8C
:103B00007C2C732A8F2C842A9A2E952AAF2EA62AD3
:103B1000BE2EB72AD82AE92A89E190E1E1DE182FE2
:103B200088E190E1DDDE482E212F30E040E050E0DA
:103B300060E070E080E090E008E30E944E27C22E33
:103B4000532EB42FA52FF62FE72FF82E192F242D43
:103B500030E040E050E060E070E080E090E000E3C2
:103B60000E944E27C22A532A59862B2E242A3A2EE7
:103B7000352A4F2E462A5E2E572AF82A192B87E11E
:103B800090E1AEDE082F86E190E1AADE8D8385E12B
:103B900090E1A6DE8E8384E190E1A2DE8F8383E153
:103BA00090E19EDE888782E190E19ADEE82FABE229
:103BB000B0E26C9211967C92119712968C921297A9
:103BC00013969C9213971496AC9214971596BC92E8
:103BD00015971696DC9216971796EC92A7E2B0E22C
:103BE000202F30E040E050E060E070E080E090E0C6
:103BF00008E20E944E27CE2AC22AB984B32AD42EC4
:103C0000D228E52EE328F62FF429E72FE529F82A14
:103C1000192B2D8130E040E050E060E070E080E062
:103C200090E000E20E944E27C22AB32AD42AE52A55
:103C3000F62BE72BF82A192B2E8130E040E050E0DC
:103C400060E070E080E090E008E10E944E27C22A28
:103C5000B32AD42AE52AF62BE72BF82A192B2F8131
:103C600030E040E050E060E070E080E090E000E1B3
:103C70000E944E27C22AB32AD42AE52AF62BE72B24
:103C8000F82A192B288530E040E050E060E070E031
:103C900080E090E008E00E944E272C292C933B29DD
:103CA00011963C9311974D2912964C9312975E29C9
:103CB00013965C9313976F2B14966C9314977E2B2B
:103CC00015967C9315978F2916968C931697912BA2
:103CD00017969C9381E090E103DE182F80E090E13D
:103CE000FFDD612F70E0762F6627682B072E000C12
:103CF000880B990BC1D56093242170932521809363
:103D000026219093272187E090E1EADD182F86E0B5
:103D100090E1E6DD212F30E0322F2227282B20935F
:103D200034213093352184E090E1DADD182F83E0EF
:103D300090E1D6DD212F30E0322F2227282B20934F
:103D400030213093312185E090E1CADD809352210A
:103D50001DC00E94881060932B2070932C208093AC
:103D60002D2090932E200E94CC0C8B839C8383E388
:103D700093E1A5E9B3E48093272090932820A093B2
:103D80002920B0932A2010925221AED90E94F71315
:103D90002996CDBFDEBFDF91CF911F910F91FF908C
:103DA000EF90DF90CF90BF90AF909F908F907F90DB
:103DB0006F905F904F903F902F90089583E3809392
:103DC000CA0180E0E0ECF1E09FEF808394838F5F95
:103DD0008032D9F7E0ECF1E080E3828788ED84BFA0
:103DE00081E0838787858823ECF30895E7DF8FB729
:103DF000F89498ED94BF91E0909379008FBF089567
:103E000090E0FC01E156F109E331F105C8F488279F
:103E1000E250FF4F8F4F0C942C27E8CF08950C945D
:103E2000301608950C94FA1508950C9425160895EB
:103E30000C94331608950C943F1608950C944A166A
:103E40000895CF93DF93CDB7DEB7C856D109CDBF64
:103E5000DEBF5CDDE0E6F6E08081886080838481FF
:103E60008860848314E1BE016F5F7F4FFB01812F67
:103E700011928A95E9F74AE050E0CE0145960E94FA
:103E8000AB0EBE01635E7F4F88E2FB0111928A9503
:103E9000E9F74AE050E0CE018B5B9F4F0E94330F61
:103EA000BE01635B7F4FFB0111921A95E9F74AE06F
:103EB00050E0CE018F599F4F0E94AB0E00E010E002
:103EC000BE016B5B7F4FCE0145960E9461130E943D
:103ED000F71380915221813031F0C8F1823039F0EE
:103EE000833079F132C0111132C011E030C01111AC
:103EF00001C011E06091242170912521809126213B
:103F00009091272120E030E041EE53E4B1D381D4F9
:103F10009B01772324F422273327261B370B2A30D3
:103F200031052CF40E9433160E94481010C0809175
:103F30005121882361F0CE018F599F4F0E94241593
:103F400006C0011104C001E002C00E94F713809175
:103F50005021882329F00E94C51581DA1092502142
:103F600080914F21882339F08091422149DF1092BE
:103F7000422110924F21809132219091332101965C
:103F80008093322190933321809134219091352177
:103F9000892B09F495CF8091322190913321609142
:103FA000342170913521F3D6609317207093182037
:103FB00087CF1F920F920FB60F92112408B60F925F
:103FC00018BE8F939F938091342190913521019653
:103FD000809334219093352181E0809350219F91EB
:103FE0008F910F9008BE0F900FBE0F901F901895E5
:103FF0001F920F920FB60F92112408B60F9218BE9F
:1040000009B60F9219BE0BB60F921BBE2F933F93AA
:104010004F935F936F937F938F939F93AF93BF93D0
:10402000EF93FF9380EA9AE00E948A0A80934221EC
:1040300081E080934F21FF91EF91BF91AF919F91CC
:104040008F917F916F915F914F913F912F910F9041
:104050000BBE0F9009BE0F9008BE0F900FBE0F90C1
:104060001F9018951F920F920FB60F92112408B649
:104070000F9218BE09B60F9219BE0AB60F921ABE59
:104080000BB60F921BBE8F929F92AF92BF92CF92B0
:10409000DF92EF92FF921F932F933F934F935F9383
:1040A0006F937F938F939F93AF93BF93EF93FF9300
:1040B000CF93DF9300D000D0CDB7DEB780EB99E08F
:1040C0000E948A0A182F843251F481E080933B21A8
:1040D00010923A2110923921109238215AC28A3214
:1040E00029F41092382110923B2153C28C3209F0EE
:1040F00050C2ECE8F1E280E280838181803209F0F5
:1041000077C280E380938C2173C280918C218E32A0
:1041100009F0A3C1A9C180918C218E3209F0EFC0B2
:10412000F5C080918C218E3209F052C058C0919117
:104130009E3229F401C080E08093372103C08F5F55
:104140008F30A9F7E0913721F0E0E457FE4D80E28F
:104150008083209137212F5F2F30C8F4822F90E089
:10416000FC01E457FE4D3081303289F040E208C056
:10417000822F90E0FC01E457FE4D3081303239F05F
:10418000FC01E457FE4D40832F5F2F3089F7CE01AD
:1041900001969F938F938EE590E29F938F938CE887
:1041A00091E29F938F9336D769817A818B819C812D
:1041B00063D3609318217093192180931A219093EF
:1041C0001B210F900F900F900F900F900F90C3C175
:1041D000EDE8F1E281E091919E3229F401C080E0A6
:1041E0008093372103C08F5F8F30A9F7E09137218B
:1041F000F0E0E457FE4D80E28083209137212F5F6D
:104200002F3008F5822F90E0FC01E457FE4D3081FD
:104210003032C9F050E208C0822F90E0FC01E45730
:10422000FE4D3081303279F040913721FC01E41BA2
:10423000F109E656FE4D3083FC01E457FE4D5083F4
:104240002F5F2F3049F780919B21803219F480E352
:1042500080939B21CE0101969F938F938EE590E2F0
:104260009F938F938CE891E29F938F93D3D6CE0147
:1042700005969F938F9382E690E29F938F938BE9AD
:1042800091E29F938F93C6D689809A80AB80BC8041
:104290006D817E81072E000C880B990BEDD220E0FA
:1042A00030E44CE156E44DD26B017C01C501B40110
:1042B00024E630E040E050E0B3D549015A01DCD2B9
:1042C0009B01AC01C701B601D4D120E030E040E74A
:1042D00052E437D26B017C01C501B401CDD29B0100
:1042E000AC01C701B601C5D16093142170931521AB
:1042F0008093162190931721CDBFDEBF2CC1EDE82E
:10430000F1E281E091919E3229F401C080E0809336
:10431000372103C08F5F8F30A9F7E0913721F0E09C
:10432000E457FE4D80E28083209137212F5F2F30AC
:1043300008F5822F90E0FC01E457FE4D30813032C9
:10434000C9F050E208C0822F90E0FC01E457FE4D16
:104350003081303279F040913721FC01E41BF109C2
:10436000E656FE4D3083FC01E457FE4D50832F5F2F
:104370002F3049F780919B21803219F480E380939C
:104380009B21CE0101969F938F938EE590E29F93A0
:104390008F938CE891E29F938F933CD6CE01059644
:1043A0009F938F9382E690E29F938F938BE991E2A4
:1043B0009F938F932FD689809A80AB80BC806D812C
:1043C0007E81072E000C880B990B56D220E030E43A
:1043D0004CE156E4B6D16B017C01C501B40124E681
:1043E00030E040E050E01CD549015A0145D29B0124
:1043F000AC01C701B6013DD120E030E040E752E416
:10440000A0D16B017C01C501B40136D29B01AC0186
:10441000C701B6012ED1DC01CB01B0588093102129
:1044200090931121A0931221B0931321CDBFDEBF31
:1044300092C08AE091E29F938F9382E690E29F93ED
:104440008F938CE891E29F938F93E4D50F900F9018
:104450000F900F900F900F907EC0EDE8F1E281E099
:1044600091919E3229F401C080E08093372103C0EE
:104470008F5F8F30A9F7E0913721F0E0E457FE4DD0
:1044800080E28083209137212F5F2F3008F5822F23
:1044900090E0FC01E457FE4D30813032C9F050E22B
:1044A00008C0822F90E0FC01E457FE4D308130328D
:1044B00079F040913721FC01E41BF109E656FE4DED
:1044C0003083FC01E457FE4D50832F5F2F3049F7B6
:1044D00080919B21803219F480E380939B21CE014F
:1044E00001969F938F938EE590E29F938F938CE834
:1044F00091E29F938F938ED5CE0105969F938F93D4
:1045000082E690E29F938F938BE991E29F938F9342
:1045100081D569817A818B819C81AED16B017C01CF
:104520006D817E81072E000C880B990BA5D120E0B0
:1045300030E040E251E405D19B01AC01C701B60176
:1045400098D060930C2170930D2180930E2190934D
:104550000F21CDBFDEBF80913B218823D1F0109287
:104560003721809138218F5F809338211092392133
:10457000ECE8F1E22BE931E280E281932E173F076C
:10458000E1F7EBE9F1E280E2808381838283838338
:10459000848380913B21882309F443C080913A2190
:1045A000833019F0843031F009C0173439F010929B
:1045B0003B2104C0173411F010923B21E0913921C6
:1045C000F0E0E457FE4D1083809139218F5F809396
:1045D000392180913A218F5F80933A2122C08091C6
:1045E0008C218E3209F4A7CDEDE8F1E281E09FCD78
:1045F00019821A821B821C821D821E8280913821A0
:10460000843009F488CD30F4813049F3823009F4E4
:1046100088CDA1CF873009F40CCF893009F475CD4E
:104620009ACF2696CDBFDEBFDF91CF91FF91EF915C
:10463000BF91AF919F918F917F916F915F914F91BA
:104640003F912F911F91FF90EF90DF90CF90BF90FF
:10465000AF909F908F900F900BBE0F900ABE0F905F
:1046600009BE0F9008BE0F900FBE0F901F901895B7
:104670005058BB27AA270ED075C166D130F06BD138
:1046800020F031F49F3F11F41EF45BC10EF4E0956D
:10469000E7FB51C1E92F77D180F3BA17620773079F
:1046A0008407950718F071F49EF58FC10EF4E0951C
:1046B0000B2EBA2FA02D0B01B90190010C01CA01DC
:1046C000A0011124FF27591B99F0593F50F4503E87
:1046D00068F11A16F040A22F232F342F4427585F79
:1046E000F3CF469537952795A795F0405395C9F791
:1046F0007EF41F16BA0B620B730B840BBAF0915049
:10470000A1F0FF0FBB1F661F771F881FC2F70EC0E7
:10471000BA0F621F731F841F48F4879577956795BA
:10472000B795F7959E3F08F0B3CF9395880F08F0A3
:104730009927EE0F979587950895D9D008F481E0D1
:1047400008950CD00FC107D140F0FED030F021F415
:104750005F3F19F0F0C0511139C1F3C014D198F383
:104760009923C9F35523B1F3951B550BBB27AA27F2
:1047700062177307840738F09F5F5F4F220F331F64
:10478000441FAA1FA9F333D00E2E3AF0E0E830D030
:1047900091505040E695001CCAF729D0FE2F27D033
:1047A000660F771F881FBB1F261737074807AB0701
:1047B000B0E809F0BB0B802DBF01FF2793585F4F76
:1047C0002AF09E3F510568F0B6C000C15F3FECF390
:1047D000983EDCF3869577956795B795F7959F5F3B
:1047E000C9F7880F911D9695879597F90895E1E08F
:1047F000660F771F881FBB1F621773078407BA07EE
:1048000020F0621B730B840BBA0BEE1F88F7E09548
:10481000089504D06894B111D9C00895BCD088F02F
:104820009F5790F0B92F9927B751A0F0D1F0660F9C
:10483000771F881F991F1AF0BA95C9F712C0B130B7
:1048400081F0C3D0B1E00895C0C0672F782F8827CA
:10485000B85F39F0B93FCCF3869577956795B395F6
:10486000D9F73EF490958095709561957F4F8F4F65
:104870009F4F0895E89409C097FB3EF4909580956A
:10488000709561957F4F8F4F9F4F9923A9F0F92F16
:1048900096E9BB279395F695879577956795B79594
:1048A000F111F8CFFAF4BB0F11F460FF1BC06F5F7A
:1048B0007F4F8F4F9F4F16C0882311F096E911C08C
:1048C000772321F09EE8872F762F05C0662371F0AD
:1048D00096E8862F70E060E02AF09A95660F771FC1
:1048E000881FDAF7880F9695879597F90895990F9D
:1048F0000008550FAA0BE0E8FEEF16161706E807AA
:10490000F907C0F012161306E407F50798F0621BCA
:10491000730B840B950B39F40A2661F0232B242B9F
:10492000252B21F408950A2609F4A140A6958FEFBE
:10493000811D811D089597F99F6780E870E060E010
:1049400008959FEF80EC089500240A941616170628
:1049500018060906089500240A9412161306140670
:1049600005060895092E0394000C11F4882352F0D3
:10497000BB0F40F4BF2B11F460FF04C06F5F7F4F8B
:104980008F4F9F4F089557FD9058440F551F59F072
:104990005F3F71F04795880F97FB991F61F09F3F2C
:1049A00079F087950895121613061406551FF2CF55
:1049B0004695F1DF08C0161617061806991FF1CFA5
:1049C00086957105610508940895E894BB276627CC
:1049D0007727CB0197F908958ADF08F48FEF0895C0
:1049E0000BD0C0CFB1DF28F0B6DF18F0952309F067
:1049F000A2CFA7CF1124EACFC6DFA0F3959FD1F3B2
:104A0000950F50E0551F629FF001729FBB27F00D7C
:104A1000B11D639FAA27F00DB11DAA1F649F6627D1
:104A2000B00DA11D661F829F2227B00DA11D621F20
:104A3000739FB00DA11D621F839FA00D611D221FDA
:104A4000749F3327A00D611D231F849F600D211DBE
:104A5000822F762F6A2F11249F5750408AF0E1F061
:104A600088234AF0EE0FFF1FBB1F661F771F881FAA
:104A700091505040A9F79E3F510570F05CCFA6CFF2
:104A80005F3FECF3983EDCF3869577956795B79595
:104A9000F795E7959F5FC1F7FE2B880F911D9695BF
:104AA000879597F90895FA01EE0FFF1F30962105BB
:104AB000310599F16115710561F48038BFE39B07F9
:104AC00049F168949038810561F08038BFEF9B0709
:104AD00041F0992342F5FF3FE1053105210511F130
:104AE000E8940894E795D901AA2329F4AB2FBE2FA7
:104AF000F85FD0F310C0FF5F70F4A695E0F7F739C8
:104B000050F019F0FF3A38F49F779F930CD00F9034
:104B100007FC905808953EF014CF60E070E080E804
:104B20009FE308954FE79F775F934F933F932F93B2
:104B30009ED02F913F914F915F9152DF05C019F4A4
:104B40000EF0F9CE42CFFDCE26DFC8F39638C0F77F
:104B500007F80F92E8942BE33AEA48EB5FE74EDF61
:104B60000F920F920F924DB75EB70F92C0D0E2E254
:104B7000F2E016D04F915F91EF91FF91E595EE1F16
:104B8000FF1F49F0FE57E0684427EE0F441FFA95D7
:104B9000E1F74195550B32D00F9007FE26C00895DE
:104BA000DF93CF931F930F93FF92EF92DF927B01DE
:104BB0008C01689405C0DA2EEF011EDFFE01E89437
:104BC000A5912591359145915591AEF3EF0162DDA7
:104BD000FE019701A801DA9479F7DF90EF90FF903A
:104BE0000F911F91CF91DF9108959B01AC0160E07F
:104BF00070E080E89FE3A5CD9ECEACC0CCDEE8F3AC
:104C00009923D9F3940F511DBBF39150504094F068
:104C100059F0882332F0660F771F881F915050405B
:104C2000C1F79E3F510544F7880F911D96958795D2
:104C300097F908955F3FACF0983E9CF0BB278695AE
:104C400077956795B79508F4B1609395C1F7BB0F59
:104C500058F711F460FFE8CF6F5F7F4F8F4F9F4F82
:104C6000E3CFB4CE0EF076C06CCE689464CE93DE03
:104C7000C8F39923D1F3C6F3DF93CF931F930F9318
:104C8000FF92C92FDD2788232AF02197660F771F0F
:104C9000881FDAF720E030E040E85FEB9FE38839D7
:104CA00020F0803E30F021968F77E3DCEAE4F2E0FA
:104CB00003C0DFDCE7E7F2E073DF8B01BE01EC014C
:104CC000FB2E6F5771097595771F880B990BD4DDF3
:104CD00028E132E741E35FE38FDEAF2D9801AE01BB
:104CE000FF900F911F91CF91DF91D4DC3BCEFA0161
:104CF000DC01AA0FBB1F9B01AC01BF5728F4222780
:104D00003327442750781FC0B75188F4AB2F0024B5
:104D1000469537952795011CA395D2F3002069F09D
:104D2000220F331F441FB395DAF30DD0A1CC6130AD
:104D30007105A0E88A07B94630F49B01AC016627EB
:104D4000772788279078309621F02083318342831B
:104D5000538308959F3F31F0915020F487957795C4
:104D60006795B795880F911D9695879597F9089542
:104D7000DB018F939F9388D0BF91AF91A29F800D4D
:104D8000911DA39F900DB29F900D11240895AA1B11
:104D9000BB1B51E107C0AA1FBB1FA617B70710F026
:104DA000A61BB70B881F991F5A95A9F78095909558
:104DB000BC01CD01089597FB072E16F4009406D090
:104DC00077FD08D0E4DF07FC05D03EF4909581958F
:104DD0009F4F0895709561957F4F0895A1E21A2E17
:104DE000AA1BBB1BFD010DC0AA1FBB1FEE1FFF1F8F
:104DF000A217B307E407F50720F0A21BB30BE40BDF
:104E0000F50B661F771F881F991F1A9469F7609525
:104E10007095809590959B01AC01BD01CF010895DF
:104E2000052E97FB16F400940FD057FD05D0D6DF62
:104E300007FC02D046F408C0509540953095219566
:104E40003F4F4F4F5F4F08959095809570956195B6
:104E50007F4F8F4F9F4F0895EE0FFF1F881F8BBF0F
:104E60000790F691E02D1BBE1994A29FB001B39F4D
:104E7000C001A39F700D811D1124911DB29F700D63
:104E8000811D1124911D0895F0DFA59F900DB49F01
:104E9000900DA49F800D911D112408950F9308304B
:104EA00090F0982F872F762F652F542F432F322F76
:104EB00022270850F4CF220F331F441F551F661FAF
:104EC000771F881F991F0A95B2F70F91089597FBD6
:104ED00010F8169400080F93083098F00850232F0C
:104EE000342F452F562F672F782F892F902DF4CFF1
:104EF0000594979587957795679557954795379535
:104F000027950A95AAF70F9108950F931F93CF93B2
:104F1000DF93009731F46115710519F480E090E09A
:104F200039C08B01EC016EE070E081E090E047D584
:104F3000FC01892B99F380E883830115110571F039
:104F40000287138781E88383809104229091052250
:104F5000892B21F4E0930422F09305222097C9F0D5
:104F6000C087D1878381826083838091062290915C
:104F70000722892B71F4E0930622F0930722809197
:104F8000082290910922892B21F4E0930822F093C2
:104F90000922CF01DF91CF911F910F910895CF93F7
:104FA000DF93CDB7DEB7AE014A5F5F4FFA01619183
:104FB0007191AF01809106229091072246D0DF9136
:104FC000CF9108950F931F93CF93DF93CDB7DEB7A3
:104FD0002E97CDBFDEBF0E891F8986E08C830983A3
:104FE0001A838FEF9FE78D839E83AE01465E5F4FEE
:104FF000688D798DCE01019628D0EF81F885E00F7C
:10500000F11F10822E96CDBFDEBFDF91CF911F9191
:105010000F910895CF93DF93CDB7DEB72E97CDBF15
:10502000DEBF85E08C838C899D8989839A83AE015C
:10503000485E5F4F6E897F89CE010196A9D32E9677
:10504000CDBFDEBFDF91CF9108952F923F924F9257
:105050005F926F927F928F929F92AF92BF92CF9208
:10506000DF92EF92FF920F931F93CF93DF93CDB711
:10507000DEB72B97CDBFDEBF6C017B018A01FC013F
:1050800016821782838181FFBFC1CE0101963C0148
:10509000F6019381F70193FD859193FF81917F0143
:1050A000882309F4ADC1853239F493FD859193FFCE
:1050B00081917F01853221F4B60190E029D6E8CFB5
:1050C000912C212C312CFFE1F315D8F08B3279F0A3
:1050D00038F4803279F08332A1F4232D20611DC091
:1050E0008D3261F0803369F4232D216016C0832D49
:1050F0008260382EE32DE4603E2E2AC0F32DF86046
:105100001DC037FC2DC020ED280F2A3040F08E3214
:10511000B9F436FC75C1232D2064322E19C036FE39
:1051200006C08AE0989E200D1124922E11C0EAE05C
:105130002E9E200D1124222EF32DF0623F2E08C04A
:105140008C3621F4832D8068382E02C0883641F4D5
:10515000F70193FD859193FF81917F018111B3CF79
:10516000982F9F7D9554933028F40C5F1F4F9FE339
:1051700099830DC0833631F0833771F0833509F0A0
:1051800055C020C0F801808189830E5F1F4F88249D
:105190008394912C530112C02801F2E04F0E511C50
:1051A000F801A080B18036FE03C0692D70E002C016
:1051B0006FEF7FEFC50163D54C018201F32DFF77BF
:1051C0003F2E15C0280122E0420E511CF801A0809C
:1051D000B18036FE03C0692D70E002C06FEF7FEF33
:1051E000C5013BD54C01F32DF0683F2E820133FC05
:1051F00019C0822D90E088169906A0F4B60180E2CD
:1052000090E086D52A94F5CFF50137FC859137FEDD
:1052100081915F01B60190E07BD521102A9421E0B5
:10522000821A91088114910479F7E1C0843611F053
:10523000893639F5F80137FE07C0608171818281B6
:1052400093810C5F1F4F08C060817181072E000C95
:10525000880B990B0E5F1F4FF32DFF763F2E97FFA4
:1052600009C090958095709561957F4F8F4F9F4FA6
:10527000F0683F2E2AE030E0A3019FD5882E8618E3
:1052800044C0853731F4232D2F7EB22E2AE030E042
:1052900025C0932D997FB92E8F36C1F018F488352B
:1052A00079F0AEC0803719F0883721F0A9C0E92F16
:1052B000E061BE2EB4FE0DC0FB2DF460BF2E09C010
:1052C00034FE0AC0292F2660B22E06C028E030E046
:1052D00005C020E130E002C020E132E0F801B7FE75
:1052E00007C060817181828193810C5F1F4F06C06E
:1052F0006081718180E090E00E5F1F4FA3015DD55A
:10530000882E8618FB2DFF773F2E36FE0DC0232DED
:105310002E7FA22E891458F434FE0BC032FC09C033
:10532000832D8E7EA82E05C0B82CA32C03C0B82CCC
:1053300001C0B92CA4FE0FC0FE01E80DF11D808153
:10534000803321F49A2D997EA92E09C0A2FE06C0B1
:10535000B394B39404C08A2D867809F0B394A3FC67
:1053600010C0A0FE06C0B21480F4280C922C9B182A
:105370000DC0B21458F4B60180E290E0C9D4B394E1
:10538000F8CFB21418F42B1802C0982C212CA4FECC
:105390000FC0B60180E390E0BBD4A2FE16C0A1FC12
:1053A00003C088E790E002C088E590E0B6010CC039
:1053B0008A2D867851F0A1FE02C08BE201C080E206
:1053C000A7FC8DE2B60190E0A3D4891430F4B601B5
:1053D00080E390E09DD49A94F8CF8A94F301E80D8D
:1053E000F11D8081B60190E093D48110F6CF222088
:1053F00009F44ECEB60180E290E08AD42A94F7CF29
:10540000F6018681978102C08FEF9FEF2B96CDBF6B
:10541000DEBFDF91CF911F910F91FF90EF90DF9052
:10542000CF90BF90AF909F908F907F906F905F9044
:105430004F903F902F90089520FD09C0FC0123FD5F
:1054400005C022FF02C073836283518340830895A5
:1054500044FD17C046FD17C0AB01BC01DA01FB01DA
:10546000AA0FBB1FEE1FFF1F1094D1F74A0F5B1F3F
:105470006E1F7F1FCB01BA01660F771F881F991F10
:1054800009C033E001C034E0660F771F881F991F01
:105490003150D1F7620F711D811D911D08950F9339
:1054A0001F93CF93DF938C01C801F4D3EC0197FDD8
:1054B00006C0C0D3892BC1F7B801CE0165D4CE0197
:1054C000DF91CF911F910F9108958F929F92AF928C
:1054D000BF92EF92FF920F931F93CF93DF938C01B4
:1054E000D62F7A01B22ED6D39C0133272B32310529
:1054F00031F02D32310559F48B2D8068B82ED15002
:1055000011F480E061C0C801C5D397FDFACFCB2D5F
:10551000CD7F2B2D2073F9F48033E9F4AA24AA94CB
:10552000AD0E09F43EC0C801B5D397FD3AC09C0149
:105530002F7D33272835310541F4C264D25089F1DB
:10554000C801A8D397FF07C02CC0B6FE02C0C26036
:1055500001C0C261DA2D812C912C540120ED280F5D
:10556000283078F0C4FF03C0B8010ED417C02A3029
:1055700040F0C6FFF9CF2F7D3FEE320F3630A0F757
:1055800027504C2FC501B40163DF4B015C01C260A1
:10559000D15051F0C8017ED397FFE0CFC1FD04C0C8
:1055A000B0CF812C912C5401C7FF08C0B094A094B7
:1055B00090948094811C911CA11CB11C2C2FB501CE
:1055C000A401C70139DF81E0DF91CF911F910F91D5
:1055D000FF90EF90BF90AF909F908F9008955F9253
:1055E0006F927F928F929F92AF92BF92CF92DF92F3
:1055F000EF92FF920F931F93CF93DF93CDB7DEB758
:10560000A097CDBFDEBF5C01962E7A01F9018E0115
:105610000F5F1F4F680180E2D8011D928A95E9F75C
:10562000D50113968C9080E090E0612C712C30E0D5
:1056300061E070E083FC259183FE21918F01522E61
:10564000211103C080E090E090C02E3511F4009746
:1056500051F1432F50E0481759073CF42D3559F1CB
:105660002D3219F4772009F103C0772009F468C0BE
:10567000452D469546954695D601A40FB11D452D5D
:1056800047708B0102C0000F111F4A95E2F7A80175
:105690005C91452B4C93651459F0561410F45394B7
:1056A000E7CF5A94E5CF31E004C07724739401C06A
:1056B000712C0196BFCF772019F08E8180628E8386
:1056C000311103C08824839417C0F6019E012F5D19
:1056D0003F4F8081809581932E173F07D1F7F2CFFE
:1056E000E114F10429F0D7018C93F70131967F0181
:1056F0009A94812C9920E9F0C501CCD297FD17C06E
:10570000FC01FF2723E0F595E7952A95E1F7EC0DDD
:10571000FD1D208130E0AC014770552702C0359552
:1057200027954A95E2F720FDDBCFB5012DD38110F7
:1057300089CFE114F10411F0D7011C92C80115C002
:10574000422F469546954695D601A40FB11D422F8E
:1057500047708B0102C0000F111F4A95E2F7A801A4
:105760005C91452B4C93622EA4CFA096CDBFDEBF9B
:10577000DF91CF911F910F91FF90EF90DF90CF902D
:10578000BF90AF909F908F907F906F905F900895A3
:105790005F926F927F928F929F92AF92BF92CF92C1
:1057A000DF92EF92FF920F931F93CF93DF936C01E1
:1057B000EB015A01FC0116821782512CF601E3809D
:1057C000FE01E3FC8591E3FE8191182FEF01882310
:1057D00009F4E0C090E02ED2892B19F0C6015FDEFB
:1057E000EDCF153241F4FE01E3FC1591E3FE11917A
:1057F000EF01153271F4C6014DD297FDC9C0412F9A
:1058000050E09C01332724173507C1F2B601BCD202
:10581000C1C01A3239F4E3FC1591E3FE1191EF0196
:1058200001E001C000E0F12C20ED210F2A3078F4D6
:1058300002606F2D70E080E090E040E209DEF62E1D
:10584000FE01E3FC1591E3FE1191EF01EDCF01FFA5
:1058500003C0F11003C09EC0FF24FA94183619F05B
:105860001C3651F010C0FE01E3FC1591E3FE1191CE
:10587000EF01183641F408600460FE01E3FC159165
:10588000E3FE1191EF01112309F484C0612F70E050
:1058900084EA92E0D7D1892B09F47CC000FD07C0CF
:1058A000F50180809180C50102965C0102C0812CC7
:1058B000912C1E3649F4F6014681578160E070E074
:1058C000202FC401B9DD7ACF1336A1F401FD02C047
:1058D000FF24F394C601DED197FD5AC081149104D0
:1058E00029F0F4018083C40101964C01FA94F1106F
:1058F000F1CF4AC01B3551F49E01A4016F2DC601A2
:105900006EDEEC01892B09F03FC039C0C601C7DD4E
:1059100097FD3EC01F3649F128F4143621F119369F
:1059200039F125C0133771F01537E9F020C0811423
:10593000910429F0F4016082C40101964C01FA94AB
:10594000FF2059F0C601A6D13C0197FD06C072D1D7
:10595000892B69F3B601C30117D281149104A1F018
:10596000F401108211C0006203C0006101C0006434
:10597000202FA4016F2DC601A8DD811105C0F601FD
:105980008381807329F406C000FD18CF539416CF8D
:10599000552019F0852D90E002C08FEF9FEFDF9129
:1059A000CF911F910F91FF90EF90DF90CF90BF901C
:1059B000AF909F908F907F906F905F9008950F931E
:1059C0001F93CF93DF93869F8001879F100D969F33
:1059D000100D1124C8010DD0EC01009721F0A80191
:1059E00060E070E045D1CE01DF91CF911F910F9122
:1059F00008950F931F93CF93DF938230910510F496
:105A000082E090E0E0910C22F0910D2220E030E065
:105A1000A0E0B0E0309719F14081518102811381FB
:105A200048175907C8F08417950769F4109731F0A3
:105A300012960C93129713961C9327C000930C2276
:105A400010930D2222C02115310519F0421753077A
:105A500018F49A01BD01EF01DF01F801DBCF211538
:105A60003105F9F0281B390B2430310580F48A8187
:105A70009B816115710521F0FB018283938304C032
:105A800080930C2290930D22FE01329644C0FE01B9
:105A9000E20FF31F819391932250310928833983B8
:105AA0003AC020910A2230910B22232B41F42091FD
:105AB00002203091032020930A2230930B22209160
:105AC0000020309101202115310541F42DB73EB75A
:105AD0004091042050910520241B350BE0910A22AF
