:1000000057C100007BC1000079C1000077C100002A
:1000100075C1000073C1000071C100006FC1000014
:100020006DC100006BC1000069C1000067C1000024
:1000300065C100000C941E0AF2C3000028C4000031
:100040005EC4000094C40000CAC4000000C50000E3
:1000500036C500006CC50000A2C50000D8C5000070
:100060004DC100004BC1000049C1000047C1000064
:1000700045C1000043C1000041C100003FC1000074
:100080003DC100003BC1000039C1000037C1000084
:1000900035C1000033C1000031C100002FC1000094
:1000A0002DC100002BC1000029C1000027C10000A4
:1000B00025C1000023C100000C94500A0C94B529FE
:1000C0000C946F080C94A7080C94DF080C94170983
:1000D0000C944F0913C1000011C100000FC10000B2
:1000E0000DC100000BC100000C94D42907C1000011
:1000F00005C1000003C1000001C10000FFC00000F5
:10010000FDC00000FBC00000F9C00000F7C0000007
:1001100021C1000065C10000A9C100008CC200001F
:10012000C7C2000002C300003DC30000E7C00000DA
:10013000E5C00000A4C50000DAC5000010C600003C
:1001400046C600007CC60000B2C60000E8C600003B
:100150001EC7000054C700008AC70000CFC00000BF
:10016000CDC00000CBC00000C9C000000C940E2A16
:10017000C5C00000C3C00000C1C00000BFC0000077
:10018000BDC00000BBC00000B9C00000B7C0000087
:10019000B5C00000B3C00000B1C00000AFC0000097
:1001A000ADC00000ABC00000A9C00000A7C00000A7
:1001B000A5C00000A3C00000A1C000009FC00000B7
:1001C0009DC000009BC0000099C0000097C00000C7
:1001D00095C0000093C0000091C000008FC00000D7
:1001E0008DC000008BC0000089C0000087C00000E7
:1001F00085C0000083C0000081C00000CB28C82853
:10020000C528D128C228C028D328D328D328D3284A
:10021000D328D328D328D328D328D328D328D32806
:10022000CE2808000000BE922449123EABAAAA2A9A
:10023000BECDCCCC4C3E00000080BEABAAAAAA3EEC
:1002400000000000BF000000803F00000000000828
:100250004178D3BB4387D1133D190E3CC3BD4282C5
:10026000AD2B3E68EC8276BED98FE1A93E4C80EF83
:10027000FFBE01C4FF7F3F0000000000076342365D
:10028000B79BD8A71A39685618AEBAAB558C1D3C27
:10029000B7CC5763BD6DEDFD753EF6177231BF00EB
:1002A0000000803F6364696E6F70737578585B00FF
:1002B00011241FBECFEFCDBFDFE3DEBF00E00CBFD8
:1002C00018BE19BE1ABE1BBE11E2A0E0B0E2EEEBF2
:1002D000F4E700E00BBF02C007900D92A43AB1070B
:1002E000D9F71BBE22E2A4EAB1E201C01D92AE3FE3
:1002F000B207E1F70E94D4280C945D3A81CECF93E7
:10030000DF931F92CDB7DEB780914D2290914E22A0
:10031000E0914922F0914A22BE016F5F7F4F19950B
:100320008981082E000C990B0F90DF91CF910895D1
:10033000682F80914D2290914E22E0914B22F091B6
:100340004C22199599231CF081E090E008958FEFDD
:100350009FEF08951F920F920FB60F92112408B6C7
:100360000F9218BE09B60F9219BE0BB60F921BBEA4
:100370002F933F934F935F936F937F938F939F93AD
:10038000AF93BF93EF93FF93E091A521F091A62146
:10039000309779F08091870384FF06C040E060E0E9
:1003A00080E893E0199505C040E860E080E893E0BC
:1003B0001995FF91EF91BF91AF919F918F917F918F
:1003C0006F915F914F913F912F910F900BBE0F90C6
:1003D00009BE0F9008BE0F900FBE0F901F9018958A
:1003E0001F920F920FB60F92112408B60F9218BEEB
:1003F00009B60F9219BE0BB60F921BBE2F933F93F7
:100400004F935F936F937F938F939F93AF93BF931C
:10041000EF93FF93E091A521F091A621309779F019
:100420008091870385FF06C040E061E080E893E0AB
:10043000199505C040E861E080E893E01995FF91C7
:10044000EF91BF91AF919F918F917F916F915F914C
:100450004F913F912F910F900BBE0F9009BE0F90BF
:1004600008BE0F900FBE0F901F9018951F920F920D
:100470000FB60F92112408B60F9218BE09B60F924C
:1004800019BE0BB60F921BBE2F933F934F935F93F2
:100490006F937F938F939F93AF93BF93EF93FF934C
:1004A000E091A521F091A621309739F04091870382
:1004B000407C60E080E893E01995FF91EF91BF9157
:1004C000AF919F918F917F916F915F914F913F91EC
:1004D0002F910F900BBE0F9009BE0F9008BE0F908A
:1004E0000FBE0F901F901895CF92DF92EF92FF9260
:1004F0000F931F93CF93DF931F92CDB7DEB72FB724
:100500002983F894C980803823E09207D9F47A01CE
:10051000D62E8C018091A421811104C061E081E07C
:100520000E945B178091A4218F5F8093A421F70123
:100530008281F8018583F7018381F8018683DD20BC
:1005400019F00BC0CFBE1DC0F7018181F801828375
:10055000F7018081F801808308C0F7018181F801EB
:100560008383F7018081F80181838091A4218150E8
:100570008093A421811104C061E081E00E94711781
:10058000CFBE0F90DF91CF911F910F91FF90EF9011
:10059000DF90CF900895EF92FF920F931F93CF9328
:1005A000DF931F921F92CDB7DEB72FB72A83F8943F
:1005B000EA80803823E0920709F5F62E8C018091BD
:1005C000A421811104C061E081E00E945B17809149
:1005D000A4218F5F8093A421809144228F3F09F44E
:1005E000FFCF8FB78983F8949981E3E4F2E28181A8
:1005F0008F5F81839FBFFF2019F007C0EFBE0AC045
:10060000F80180818160808304C0F801818181606C
:100610008183EFBE0F900F90DF91CF911F910F91CB
:10062000FF90EF9008958038934021F46093A521C6
:100630007093A62108951F920F920FB60F92112466
:1006400008B60F9218BE09B60F9219BE0BB60F92DC
:100650001BBE2F933F934F935F936F937F938F9323
:100660009F93AF93BF93EF93FF93409124025091D8
:100670002502E0914F22F091502261E080E092E06B
:100680001995FF91EF91BF91AF919F918F917F91BC
:100690006F915F914F913F912F910F900BBE0F90F3
:1006A00009BE0F9008BE0F900FBE0F901F901895B7
:1006B0001F920F920FB60F92112408B60F9218BE18
:1006C00009B60F9219BE0BB60F921BBE2F933F9324
:1006D0004F935F936F937F938F939F93AF93BF934A
:1006E000EF93FF9340912C0250912D02E0914F2205
:1006F000F091502262E080E092E01995FF91EF9135
:10070000BF91AF919F918F917F916F915F914F9129
:100710003F912F910F900BBE0F9009BE0F9008BE16
:100720000F900FBE0F901F9018951F920F920FB64B
:100730000F92112408B60F9218BE09B60F9219BE77
:100740000BB60F921BBE2F933F934F935F936F9304
:100750007F938F939F93AF93BF93EF93FF934091BA
:10076000340250913502E0914F22F091502264E022
:1007700080E092E01995FF91EF91BF91AF919F9129
:100780008F917F916F915F914F913F912F910F903A
:100790000BBE0F9009BE0F9008BE0F900FBE0F90BA
:1007A0001F9018951F920F920FB60F92112408B642
:1007B0000F9218BE09B60F9219BE0BB60F921BBE50
:1007C0002F933F934F935F936F937F938F939F9359
:1007D000AF93BF93EF93FF9340913C0250913D0242
:1007E000E0914F22F091502268E080E092E019956C
:1007F000FF91EF91BF91AF919F918F917F916F91F9
:100800005F914F913F912F910F900BBE0F9009BEBA
:100810000F9008BE0F900FBE0F901F9018951F925B
:100820000F920FB60F92112408B60F9218BE09B698
:100830000F9219BE0BB60F921BBE2F933F934F938F
:100840005F936F937F938F939F93AF93BF93EF9338
:10085000FF93E091D721F091D821309709F01995B5
:10086000FF91EF91BF91AF919F918F917F916F9188
:100870005F914F913F912F910F900BBE0F9009BE4A
:100880000F9008BE0F900FBE0F901F9018951F92EB
:100890000F920FB60F92112408B60F9218BE09B628
:1008A0000F9219BE0BB60F921BBE2F933F934F931F
:1008B0005F936F937F938F939F93AF93BF93EF93C8
:1008C000FF93E091D521F091D621309709F0199549
:1008D000FF91EF91BF91AF919F918F917F916F9118
:1008E0005F914F913F912F910F900BBE0F9009BEDA
:1008F0000F9008BE0F900FBE0F901F9018951F927B
:100900000F920FB60F92112408B60F9218BE09B6B7
:100910000F9219BE0BB60F921BBE2F933F934F93AE
:100920005F936F937F938F939F93AF93BF93EF9357
:10093000FF93E091D321F091D421309709F01995DC
:10094000FF91EF91BF91AF919F918F917F916F91A7
:100950005F914F913F912F910F900BBE0F9009BE69
:100960000F9008BE0F900FBE0F901F9018951F920A
:100970000F920FB60F92112408B60F9218BE09B647
:100980000F9219BE0BB60F921BBE2F933F934F933E
:100990005F936F937F938F939F93AF93BF93EF93E7
:1009A000FF93E091D121F091D221309709F0199570
:1009B000FF91EF91BF91AF919F918F917F916F9137
:1009C0005F914F913F912F910F900BBE0F9009BEF9
:1009D0000F9008BE0F900FBE0F901F9018951F929A
:1009E0000F920FB60F92112408B60F9218BE09B6D7
:1009F0000F9219BE0BB60F921BBE2F933F934F93CE
:100A00005F936F937F938F939F93AF93BF93EF9376
:100A1000FF93E091CF21F091D021309709F0199503
:100A2000FF91EF91BF91AF919F918F917F916F91C6
:100A30005F914F913F912F910F900BBE0F9009BE88
:100A40000F9008BE0F900FBE0F901F9018951F9229
:100A50000F920FB60F92112408B60F9218BE09B666
:100A60000F9219BE0BB60F921BBE2F933F934F935D
:100A70005F936F937F938F939F93AF93BF93EF9306
:100A8000FF93E091CD21F091CE21309709F0199597
:100A9000FF91EF91BF91AF919F918F917F916F9156
:100AA0005F914F913F912F910F900BBE0F9009BE18
:100AB0000F9008BE0F900FBE0F901F9018951F92B9
:100AC0000F920FB60F92112408B60F9218BE09B6F6
:100AD0000F9219BE0BB60F921BBE2F933F934F93ED
:100AE0005F936F937F938F939F93AF93BF93EF9396
:100AF000FF93E091CB21F091CC21309709F019952B
:100B0000FF91EF91BF91AF919F918F917F916F91E5
:100B10005F914F913F912F910F900BBE0F9009BEA7
:100B20000F9008BE0F900FBE0F901F9018951F9248
:100B30000F920FB60F92112408B60F9218BE09B685
:100B40000F9219BE0BB60F921BBE2F933F934F937C
:100B50005F936F937F938F939F93AF93BF93EF9325
:100B6000FF93E091C921F091CA21309709F01995BE
:100B7000FF91EF91BF91AF919F918F917F916F9175
:100B80005F914F913F912F910F900BBE0F9009BE37
:100B90000F9008BE0F900FBE0F901F9018951F92D8
:100BA0000F920FB60F92112408B60F9218BE09B615
:100BB0000F9219BE0BB60F921BBE2F933F934F930C
:100BC0005F936F937F938F939F93AF93BF93EF93B5
:100BD000FF93E091C721F091C821309709F0199552
:100BE000FF91EF91BF91AF919F918F917F916F9105
:100BF0005F914F913F912F910F900BBE0F9009BEC7
:100C00000F9008BE0F900FBE0F901F9018951F9267
:100C10000F920FB60F92112408B60F9218BE09B6A4
:100C20000F9219BE0BB60F921BBE2F933F934F939B
:100C30005F936F937F938F939F93AF93BF93EF9344
:100C4000FF93E091C521F091C621309709F01995E5
:100C5000FF91EF91BF91AF919F918F917F916F9194
:100C60005F914F913F912F910F900BBE0F9009BE56
:100C70000F9008BE0F900FBE0F901F9018951F92F7
:100C80000F920FB60F92112408B60F9218BE09B634
:100C90000F9219BE0BB60F921BBE2F933F934F932B
:100CA0005F936F937F938F939F93AF93BF93EF93D4
:100CB000FF93E091C321F091C421309709F0199579
:100CC000FF91EF91BF91AF919F918F917F916F9124
:100CD0005F914F913F912F910F900BBE0F9009BEE6
:100CE0000F9008BE0F900FBE0F901F9018951F9287
:100CF0000F920FB60F92112408B60F9218BE09B6C4
:100D00000F9219BE0BB60F921BBE2F933F934F93BA
:100D10005F936F937F938F939F93AF93BF93EF9363
:100D2000FF93E091C121F091C221309709F019950C
:100D3000FF91EF91BF91AF919F918F917F916F91B3
:100D40005F914F913F912F910F900BBE0F9009BE75
:100D50000F9008BE0F900FBE0F901F9018951F9216
:100D60000F920FB60F92112408B60F9218BE09B653
:100D70000F9219BE0BB60F921BBE2F933F934F934A
:100D80005F936F937F938F939F93AF93BF93EF93F3
:100D9000FF93E091BF21F091C021309709F01995A0
:100DA000FF91EF91BF91AF919F918F917F916F9143
:100DB0005F914F913F912F910F900BBE0F9009BE05
:100DC0000F9008BE0F900FBE0F901F9018951F92A6
:100DD0000F920FB60F92112408B60F9218BE09B6E3
:100DE0000F9219BE0BB60F921BBE2F933F934F93DA
:100DF0005F936F937F938F939F93AF93BF93EF9383
:100E0000FF93E091BD21F091BE21309709F0199533
:100E1000FF91EF91BF91AF919F918F917F916F91D2
:100E20005F914F913F912F910F900BBE0F9009BE94
:100E30000F9008BE0F900FBE0F901F9018951F9235
:100E40000F920FB60F92112408B60F9218BE09B672
:100E50000F9219BE0BB60F921BBE2F933F934F9369
:100E60005F936F937F938F939F93AF93BF93EF9312
:100E7000FF93E091BB21F091BC21309709F01995C7
:100E8000FF91EF91BF91AF919F918F917F916F9162
:100E90005F914F913F912F910F900BBE0F9009BE24
:100EA0000F9008BE0F900FBE0F901F9018951F92C5
:100EB0000F920FB60F92112408B60F9218BE09B602
:100EC0000F9219BE0BB60F921BBE2F933F934F93F9
:100ED0005F936F937F938F939F93AF93BF93EF93A2
:100EE000FF93E091B921F091BA21309709F019955B
:100EF000FF91EF91BF91AF919F918F917F916F91F2
:100F00005F914F913F912F910F900BBE0F9009BEB3
:100F10000F9008BE0F900FBE0F901F9018951F9254
:100F20000F920FB60F92112408B60F9218BE09B691
:100F30000F9219BE0BB60F921BBE2F933F934F9388
:100F40005F936F937F938F939F93AF93BF93EF9331
:100F5000FF93E091B721F091B821309709F01995EE
:100F6000FF91EF91BF91AF919F918F917F916F9181
:100F70005F914F913F912F910F900BBE0F9009BE43
:100F80000F9008BE0F900FBE0F901F9018951F92E4
:100F90000F920FB60F92112408B60F9218BE09B621
:100FA0000F9219BE0BB60F921BBE2F933F934F9318
:100FB0005F936F937F938F939F93AF93BF93EF93C1
:100FC000FF93E091B521F091B621309709F0199582
:100FD000FF91EF91BF91AF919F918F917F916F9111
:100FE0005F914F913F912F910F900BBE0F9009BED3
:100FF0000F9008BE0F900FBE0F901F9018951F9274
:101000000F920FB60F92112408B60F9218BE09B6B0
:101010000F9219BE0BB60F921BBE2F933F934F93A7
:101020005F936F937F938F939F93AF93BF93EF9350
:10103000FF93E091B321F091B421309709F0199515
:10104000FF91EF91BF91AF919F918F917F916F91A0
:101050005F914F913F912F910F900BBE0F9009BE62
:101060000F9008BE0F900FBE0F901F9018951F9203
:101070000F920FB60F92112408B60F9218BE09B640
:101080000F9219BE0BB60F921BBE2F933F934F9337
:101090005F936F937F938F939F93AF93BF93EF93E0
:1010A000FF93E091B121F091B221309709F01995A9
:1010B000FF91EF91BF91AF919F918F917F916F9130
:1010C0005F914F913F912F910F900BBE0F9009BEF2
:1010D0000F9008BE0F900FBE0F901F9018951F9293
:1010E0000F920FB60F92112408B60F9218BE09B6D0
:1010F0000F9219BE0BB60F921BBE2F933F934F93C7
:101100005F936F937F938F939F93AF93BF93EF936F
:10111000FF93E091AF21F091B021309709F019953C
:10112000FF91EF91BF91AF919F918F917F916F91BF
:101130005F914F913F912F910F900BBE0F9009BE81
:101140000F9008BE0F900FBE0F901F9018951F9222
:101150000F920FB60F92112408B60F9218BE09B65F
:101160000F9219BE0BB60F921BBE2F933F934F9356
:101170005F936F937F938F939F93AF93BF93EF93FF
:10118000FF93E091AD21F091AE21309709F01995D0
:10119000FF91EF91BF91AF919F918F917F916F914F
:1011A0005F914F913F912F910F900BBE0F9009BE11
:1011B0000F9008BE0F900FBE0F901F9018951F92B2
:1011C0000F920FB60F92112408B60F9218BE09B6EF
:1011D0000F9219BE0BB60F921BBE2F933F934F93E6
:1011E0005F936F937F938F939F93AF93BF93EF938F
:1011F000FF93E091AB21F091AC21309709F0199564
:10120000FF91EF91BF91AF919F918F917F916F91DE
:101210005F914F913F912F910F900BBE0F9009BEA0
:101220000F9008BE0F900FBE0F901F9018951F9241
:101230000F920FB60F92112408B60F9218BE09B67E
:101240000F9219BE0BB60F921BBE2F933F934F9375
:101250005F936F937F938F939F93AF93BF93EF931E
:10126000FF93E091A921F091AA21309709F01995F7
:10127000FF91EF91BF91AF919F918F917F916F916E
:101280005F914F913F912F910F900BBE0F9009BE30
:101290000F9008BE0F900FBE0F901F9018951F92D1
:1012A0000F920FB60F92112408B60F9218BE09B60E
:1012B0000F9219BE0BB60F921BBE2F933F934F9305
:1012C0005F936F937F938F939F93AF93BF93EF93AE
:1012D000FF93E091A721F091A821309709F019958B
:1012E000FF91EF91BF91AF919F918F917F916F91FE
:1012F0005F914F913F912F910F900BBE0F9009BEC0
:101300000F9008BE0F900FBE0F901F901895CF93AF
:10131000DF93E091D921F091DA21848183FF08C025
:101320008860848383E0838386EF8093E32183C096
:10133000982F947131F083E083838FEF8093E321C2
:101340007AC086FF43C0C9EDD1E2AA81BB818C81FE
:101350009D8114962D913C911597821793076CF4FB
:101360009C012F5F3F4F2093DD213093DE21A80F9A
:10137000B91F11968C9187835EC08091DF21909177
:10138000E02118962D913C91199782179307C8F484
:101390002091E121222321F08681816086834BC048
:1013A00016962D913C911797AC014F5F5F4F40937C
:1013B000DF215093E021D901A80FB91F8C918783B9
:1013C0003AC083E083831092E32135C0882384F5FB
:1013D000A9EDB1E21296CD91DC91139716968D91FD
:1013E0009C9117972885398582179307D8F46E81C9
:1013F0007F819C012F5F3F4F2093DF213093E021BD
:101400004781DB01A80FB91F4C9388859985281760
:10141000390718F482E083830EC087E0838310923B
:10142000E32109C083E0838389EF8093E32103C034
:101430008BEF8093E321DF91CF9108951F920F925C
:101440000FB60F92112408B60F9218BE09B60F926C
:1014500019BE0BB60F921BBE2F933F934F935F9312
:101460006F937F938F939F93AF93BF93EF93FF936C
:101470004EDFFF91EF91BF91AF919F918F917F913F
:101480006F915F914F913F912F910F900BBE0F90F5
:1014900009BE0F9008BE0F900FBE0F901F901895B9
:1014A0001F920F920FB60F92112408B60F9218BE1A
:1014B00009B60F9219BE0BB60F921BBE2F933F9326
:1014C0004F935F936F937F938F939F93AF93BF934C
:1014D000EF93FF931CDFFF91EF91BF91AF919F912D
:1014E0008F917F916F915F914F913F912F910F90CD
:1014F0000BBE0F9009BE0F9008BE0F900FBE0F904D
:101500001F901895FC01DB0114968C91858388EB64
:10151000818381E08483E9EDF1E211861286E0EABD
:10152000F0E0828182608283789480E00895CF9396
:10153000DF931F92CDB7DEB79C01FB01892B09F425
:1015400051C0309709F450C092858091E2218823E0
:1015500019F09923F1F34AC08FB78983F8948981F0
:10156000A9EDB1E291E019969C93199790E81A962B
:101570009C931A978FBF2D933C93119712966D935E
:101580007C93139714961D921C92159716961D9294
:101590001C92179718964C938081880F64817581EF
:1015A000672B11F4411103C0F901868303C08160E8
:1015B000F9018683E9EDF1E292859038E9F3F901CA
:1015C00084818370813049F0A9EDB1E2ED91FC9105
:1015D0001197848183708130C9F7E9EDF1E282854A
:1015E000118605C088EF03C088EF01C086EF0F9019
:1015F000DF91CF910895FC01918195FFFDCF60832C
:1016000080E090E00895FC0191819923ECF78081BE
:1016100008954F925F926F927F928F929F92AF92B6
:10162000BF92EF92FF920F931F93CF937C014A01D9
:101630005B0128013901FC01848182FF16C0D901B8
:10164000C801689412F8B695A79597958795169452
:10165000D1F7B901A801032E36E176956795579524
:1016600047953A95D1F7302D15C0D901C801689436
:1016700013F8B695A795979587951694D1F7B90164
:10168000A801032E37E176956795579547953A95CA
:10169000D1F7302D88159905AA05BB0508F4A6C019
:1016A00084169506A606B70608F4A2C0F701848141
:1016B00082FD04C0880C991CAA1CBB1CC301B2018A
:1016C000A50194010E9455312F3F31054105510577
:1016D00008F490C08FEF90E0A0E0B0E0C9EF05C043
:1016E000281739074A075B0758F0880F991FAA1F68
:1016F000BB1FCD3F0CF48160CF5FC73089F74FC06F
:10170000CC230CF04CC0D501C401880F991FAA1F2F
:10171000BB1F880F991FAA1FBB1F880F991FAA1FE5
:10172000BB1F481A590A6A0A7B0ACE3FF4F48DEFB0
:101730009FEF8C1B9109C7FD939504C0440C551C69
:10174000661C771C8A95D2F7D501C401B695A7957A
:1017500097958795BC01CD01640D751D861D971D5C
:10176000A50194010E94553137C083E08C0FA5017B
:10177000940104C0220F331F441F551F8A95D2F7CE
:10178000DA01C901B695A79597958795BC01CD015A
:10179000640D751D861D971D0E9455311DC083E087
:1017A0008C0FA501940104C0220F331F441F551F45
:1017B0008A95D2F7DA01C901B695A79597958795CD
:1017C000BC01CD01640D751D861D971D0E9455310C
:1017D0002150310941095109832F8F70C295C07F73
:1017E000C82BF701C783268381E018C080E016C0AC
:1017F00080E014C0D501C401880F991FAA1FBB1F28
:10180000880F991FAA1FBB1F880F991FAA1FBB1FF4
:10181000481A590A6A0A7B0AC9EF89CFCF911F91EA
:101820000F91FF90EF90BF90AF909F908F907F901F
:101830006F905F904F9008950F931F93CF93DF9316
:10184000EC018B01009709F4D6C0803C910529F486
:1018500060E180E00E945B17CEC0C11584E0D8072C
:1018600029F464E080E00E945B17C5C0C038E1E065
:10187000DE0729F462E080E00E945B17BCC0C1155E
:10188000F1E0DF0729F461E080E00E945B17B3C05C
:10189000C03883E0D80729F461E081E00E945B173B
:1018A000AAC0C115E2E0DE0729F462E081E00E94EF
:1018B0005B17A1C0C032F3E0DF0729F464E082E0E7
:1018C0000E945B1798C0C11588E0D80729F461E031
:1018D00083E00E945B178FC0C115E9E0DE0729F4A1
:1018E00061E084E00E945B1786C0C115FAE0DF0763
:1018F00029F461E085E00E945B177DC0C03488E078
:10190000D80729F462E083E00E945B1774C0C034FA
:10191000E9E0DE0729F462E084E00E945B176BC017
:10192000C039F8E0DF0729F464E083E00E945B1728
:1019300062C0C03989E0D80729F464E084E00E94DD
:101940005B1759C0C039EAE0DE0729F464E085E09E
:101950000E945B1750C0C03CF8E0DF0729F468E044
:1019600083E00E945B1747C0C03C89E0D80729F498
:1019700068E084E00E945B173EC0C03AE8E0DE0702
:1019800029F460E183E00E945B1735C0C03AF9E0BA
:10199000DF0729F460E184E00E945B172CC0C03AA5
:1019A0008AE0D80729F460E185E00E945B1723C034
:1019B000C03BE8E0DE0729F460E283E00E945B17A9
:1019C0001AC0C03BF9E0DF0729F460E284E00E941E
:1019D0005B1711C0C03884E0D80729F460E483E0C5
:1019E0000E945B1708C0C03AE4E0DE0721F460E41F
:1019F00085E00E945B178D818F738D83F80195813F
:101A00008481892B9681911198E0892B8D83F8012F
:101A1000408151816281738100E018E428EE31E059
:101A2000CE01F7DD9C8198609C839C8190619C83B2
:101A3000DF91CF911F910F9108951F93CF93DF9363
:101A400000D01F92CDB7DEB719821A821B821C828A
:101A50008093E4219093E521DC011996ED91FC91AE
:101A60001A9721E0AE014E5F5F4F67E018968C91A8
:101A70001995182FA091E421B091E5211B96ED91C5
:101A8000FC911C9721E0AE014F5F5F4F60E018961C
:101A90008C911995180FA091E421B091E5218981CD
:101AA0008C931B96ED91FC911C9721E0AE014F5F4A
:101AB0005F4F61E018968C911995180FA091E42161
:101AC000B091E521898114968C9314971B96ED9122
:101AD000FC911C9721E0AE014F5F5F4F62E01896CA
:101AE0008C911995180FA091E421B091E52189817D
:101AF00015968C9315971B96ED91FC911C9721E000
:101B0000AE014F5F5F4F63E018968C911995180FE7
:101B1000A091E421B091E521898116968C931697C6
:101B20001B96ED91FC911C9721E0AE014F5F5F4F3A
:101B300066E018968C911995180FA091E421B09148
:101B4000E521898117968C9317971B96ED91FC914F
:101B50001C9722E0AE014D5F5F4F64E018968C91B8
:101B60001995180FA091E421B091E5218C8190E0A6
:101B7000982F88272B81822B11968D939C931297F7
:101B80001B96ED91FC911C9721E0AE014F5F5F4FDA
:101B900067E018968C911995E091E421F091E52188
:101BA00099819383810F2496CDBFDEBFDF91CF91C2
:101BB0001F910895A091E421B091E521109759F06B
:101BC000242FAB01682F1996ED91FC911A97189666
:101BD0008C911995089581E808951F93CF93DF9311
:101BE0001F92CDB7DEB71982A091E421B091E52113
:101BF000109741F1182F1B96ED91FC911C9721E055
:101C0000AE014F5F5F4F67E018968C911995811177
:101C10001BC01983A091E421B091E5211996ED91A3
:101C2000FC911A9721E0AE014F5F5F4F67E0189675
:101C30008C911995811109C0E091E421F091E52181
:101C4000138303C081E801C08FEF0F90DF91CF9124
:101C50001F9108950F931F93CF93DF9300D000D06F
:101C6000CDB7DEB78C01FE01319696E0DF011D9203
:101C70009A95E9F7E091E421F091E521309709F494
:101C80003EC08381882359F080E0A7DF882339F0A4
:101C9000E091E421F091E5218381811132C0A0918E
:101CA000E421B091E5211B96ED91FC911C9726E073
:101CB000AE014F5F5F4F6AE118968C9119952A81AA
:101CC000022E000C330B322F22279981292BF80189
:101CD000208331832C81022E000C330B322F2227DC
:101CE0009B81292B228333832E81022E000C330B00
:101CF000322F22279D81292B2483358303C081E83D
:101D000001C08FEF2696CDBFDEBFDF91CF911F912F
:101D10000F9108950F931F93CF93DF9300D000D0BE
:101D2000CDB7DEB78C01FE01319696E0DF011D9242
:101D30009A95E9F7E091E421F091E521309709F4D3
:101D40003EC08381882359F080E047DF882339F043
:101D5000E091E421F091E5218381811132C0A091CD
:101D6000E421B091E5211B96ED91FC911C9726E0B2
:101D7000AE014F5F5F4F68E218968C9119952A81EA
:101D8000022E000C330B322F22279981292BF801C8
:101D9000208331832C81022E000C330B322F22271B
:101DA0009B81292B228333832E81022E000C330B3F
:101DB000322F22279D81292B2483358303C081E87C
:101DC00001C08FEF2696CDBFDEBFDF91CF911F916F
:101DD0000F910895FF920F931F93CF93DF9300D03D
:101DE00000D0CDB7DEB78C0119821A821B821C820B
:101DF0001D821E82CE0101968DDFF82E81113AC020
:101E000069817A81072E000C880B990B0E94552E50
:101E100020E030E048EC52E40E94802DF80160831D
:101E20007183828393836B817C81072E000C880BE6
:101E3000990B0E94552E20E030E048EC52E40E94BD
:101E4000802DF80164837583868397836D817E81FD
:101E5000072E000C880B990B0E94552E20E030E0D5
:101E600048EC52E40E94802DF801608771878287D8
:101E7000938702C0FF24FA948F2D2696CDBFDEBF34
:101E8000DF91CF911F910F91FF9008950F931F93B2
:101E9000CF93DF931F92CDB7DEB71982E091E42193
:101EA000F091E521309721F18C018381882359F04D
:101EB00080E093DE882339F0E091E421F091E52180
:101EC0008381811117C0A091E421B091E5211B9677
:101ED000ED91FC911C9721E0AE014F5F5F4F65E3F0
:101EE00018968C91199599819370F801908303C08D
:101EF00081E801C08FEF0F90DF91CF911F910F917B
:101F000008950F931F93CF93DF931F92CDB7DEB742
:101F10001982E091E421F091E521309749F18C019B
:101F20008381882359F080E058DE882339F0E091DE
:101F3000E421F091E521838181111CC0A091E4216D
:101F4000B091E5211B96ED91FC911C9721E0AE012B
:101F50004F5F5F4F65E318968C91199529812C701E
:101F600030E03595279535952795F801208303C0F6
:101F700081E801C08FEF0F90DF91CF911F910F91FA
:101F800008950F931F93CF93DF931F92CDB7DEB7C2
:101F90001982E091E421F091E521309769F18C01FB
:101FA0008381882359F080E018DE882339F0E0919E
:101FB000E421F091E5218381811120C0A091E421E9
:101FC000B091E5211B96ED91FC911C9721E0AE01AB
:101FD0004F5F5F4F65E318968C91199529812073A7
:101FE00030E0359527953595279535952795359585
:101FF0002795F801208303C081E801C08FEF0F907F
:10200000DF91CF911F910F9108950F931F93CF935D
:10201000DF931F92CDB7DEB71982E091E421F091F2
:10202000E521309739F18C018381882359F080E0D4
:10203000D4DD882339F0E091E421F091E52183811A
:1020400081111AC0A091E421B091E5211B96ED9178
:10205000FC911C9721E0AE014F5F5F4F65E318963E
:102060008C91199599819295969596959370F80112
:10207000908303C081E801C08FEF0F90DF91CF9173
:102080001F910F9108950F931F93CF93DF931F928A
:10209000CDB7DEB71982E091E421F091E5213097C8
:1020A00031F18C018381882359F080E096DD88230B
:1020B00039F0E091E421F091E5218381811119C08B
:1020C000A091E421B091E5211B96ED91FC911C9724
:1020D00021E0AE014F5F5F4F6BE318968C9119952D
:1020E000998192FB992790F9F801908303C081E8C8
:1020F00001C08FEF0F90DF91CF911F910F91089545
:102100000F931F93CF93DF931F92CDB7DEB7198242
:10211000E091E421F091E521309721F18C01838158
:10212000882359F080E059DD882339F0E091E421DB
:10213000F091E5218381811117C0A091E421B09134
:10214000E5211B96ED91FC911C9721E0AE014F5FBC
:102150005F4F6DE318968C91199599819F70F801E6
:10216000908303C081E801C08FEF0F90DF91CF9182
:102170001F910F9108950F931F93CF93DF931F9299
:102180001F92CDB7DEB719821A822091E4213091D7
:10219000E521232B09F49CC0082FCE010296B0DF65
:1021A000811198C08A81811135C0A091E421B0913C
:1021B000E5211B96ED91FC911C9721E0AE014F5F4C
:1021C0005F4F6DE318968C911995811185C08981B7
:1021D000982F907F802F8F70892B8983A091E42185
:1021E000B091E5211996ED91FC911A9721E0AE018D
:1021F0004F5F5F4F6DE318968C911995182FE09102
:10220000E421F091E5210584F685E02D88E592E052
:10221000199565C0A091E421B091E5211B96ED913F
:10222000FC911C9721E0AE014F5F5F4F6DE3189664
:102230008C911995182F811114C08981807F898311
:1022400041E0BE016F5F7F4F8DE3B4DC182FE0915A
:10225000E421F091E5210584F685E02D84E190E00C
:1022600019950023E1F1A091E421B091E5211B969D
:10227000ED91FC911C9721E0AE014F5F5F4F6DE344
:1022800018968C911995811129C08981982F907F7A
:10229000802F8F70892B8983A091E421B091E52153
:1022A0001996ED91FC911A9721E0AE014F5F5F4FB7
:1022B0006DE318968C911995182FE091E421F09117
:1022C000E5210584F685E02D88E592E0199507C0A3
:1022D00011E805C01FEF03C0182F01C0182F812F70
:1022E0000F900F90DF91CF911F910F9108950F9351
:1022F0001F93CF93DF931F921F92CDB7DEB7198242
:102300001A822091E4213091E521232B09F444C065
:10231000082FCE010296F4DE811135C08A81882310
:1023200021F080E028DF811130C0A091E421B0913C
:10233000E5211B96ED91FC911C9721E0AE014F5FCA
:102340005F4F6BE318968C911995182F81111EC061
:102350008981982F9B7F802F880F880F8470892B0D
:102360008983A091E421B091E5211996ED91FC912A
:102370001A9721E0AE014F5F5F4F6BE318968C9187
:102380001995182F03C01FEF01C01FEF8A81882302
:1023900029F0F1DE810F03C081E801C0812F0F9089
:1023A0000F90DF91CF911F910F910895EF92FF92BF
:1023B0001F93CF93DF93CDB7DEB72797CDBFDEBF97
:1023C0007C0119821A821B821C821D821E821F823E
:1023D000CE01079658DE182F8F81882319F080E0F0
:1023E00086DF180F11113FC0CE01019633DC811139
:1023F0003CC069817A81072E000C880B990B0E94E2
:10240000552E20E030E040E85DE30E949C2FF7016C
:1024100060837183828393836D817E81072E000C9C
:10242000880B990B0E94552E20E030E040E85DE3D8
:102430000E949C2FF70160877187828793876B8149
:102440007C81072E000C880B990B0E94552E20E0F2
:1024500030E040E85DE30E949C2FF70164837583C0
:102460008683978303C01FEF01C01FEF812F27963C
:10247000CDBFDEBFDF91CF911F91FF90EF90089508
:102480000F931F93CF93DF931F921F92CDB7DEB7A9
:1024900019821A822091E4213091E521232B09F43D
:1024A00042C0082FCE0102962BDE811133C08A81F3
:1024B000882321F080E05FDE81112EC0A091E4210D
:1024C000B091E5211B96ED91FC911C9721E0AE01A6
:1024D0004F5F5F4F6EE318968C911995182F8111FD
:1024E0001CC08981982F9C7F802F8370892B8983C2
:1024F000A091E421B091E5211996ED91FC911A97F4
:1025000021E0AE014F5F5F4F6EE318968C911995F5
:10251000182F03C01FEF01C01FEF8A81882329F005
:102520002ADE810F03C081E801C0812F0F900F9038
:10253000DF91CF911F910F91089504C061507109EF
:10254000810991096115710581059105B9F7089512
:10255000AF92BF92CF92DF92EF92FF920F931F93B1
:10256000CF93DF930097D1F1A12C0F2EF8E4BF2E6B
:10257000F02D0F2EF8EECF2EF02DDD24D394E12C8C
:10258000F12C00E010E0282F392F40E050E060E00F
:1025900070E080E090E00E94B5310F2EF6E0AF2EA3
:1025A000F02DB12CC12CD12C0E94083229513C4F66
:1025B0004F4F5F4F6F4F7F4F8F4F9F4F0E94902E17
:1025C00020E030E04AE754E40E94802D0E94ED2D87
:1025D000622F732F842F952FB0DF05C066E070E067
:1025E00080E090E0AADFDF91CF911F910F91FF90E3
:1025F000EF90DF90CF90BF90AF900895CF92DF9291
:10260000FF920F931F93CF93DF93CDB7DEB7CB54D9
:10261000D109CDBFDEBFF82E062F6A01122F22305E
:1026200040F086E590E29F938F930E94EE320F90E8
:102630000F901982F60180818A83015023960FAF93
:10264000239781E090E027968EAF9FAF2797229641
:10265000FFAE2297CE01019629968EAF9FAF2997A4
:102660001F5F212F30E02B962EAF3FAF2B972C967C
:102670001FAE2C9740E0BE016F5B7F4F80E894E077
:102680000E94970AC55BDF4FCDBFDEBFDF91CF91C0
:102690001F910F91FF90DF90CF900895AF92BF925E
:1026A000DF92EF92FF920F931F93CF93DF93CDB7FB
:1026B000DEB7CB54D109CDBFDEBF5A01AE014F5FAB
:1026C0005F4F7A0190E4FA0111929A95E9F7239607
:1026D0006FAF239741E050E027964EAF5FAF27974B
:1026E00022968FAF22972996EEAEFFAE2997022F42
:1026F00010E02B960EAF1FAF2B972C961FAE2C978A
:10270000BE016F5B7F4F80E894E00E94970AD82E4D
:10271000A801B701C5010E949B328D2DC55BDF4F1B
:10272000CDBFDEBFDF91CF911F910F91FF90EF9052
:10273000DF90BF90AF9008950F931F93CF93DF93D7
:10274000CDB7DEB72A97CDBFDEBF8E010F5F1F4F1B
:1027500089E0F80111928A95E9F780E89AE1A6E00C
:10276000B0E089839A83AB83BC8383E290E0A0E0EE
:10277000B0E08D839E83AF83B88760E483E09BD312
:10278000B80180E894E00E94820AE0E8F4E08181E8
:1027900088608183E1E5F2E28EEF92E181879287A2
:1027A0008EE493E18387948788EA92E18587968710
:1027B00088E28087CF0141D9882381F0282F082E15
:1027C000000C330B3F938F938CED90E29F938F938C
:1027D0000E94EE320F900F900F900F9080E050DE2D
:1027E0008CE0C9DC182F1A86CE010A9689DC8A850E
:1027F0008C3099F0212F012E000C330B3F931F9347
:102800001F929CE09F931F928F9380E091E29F9391
:102810008F930E94EE32CDBFDEBF2A96CDBFDEBFC2
:10282000DF91CF911F910F91089580E692E2D2DA65
:102830008CE692E2BBDD89E792E263DB8BE792E212
:10284000A0DB88E792E222DB8AE792E2DECB089502
:102850006091702270917122809172229091732206
:1028600008956091742270917522809176229091E2
:102870007722089560916C2270916D2280916E2272
:1028800090916F220895E0E0F6E0948188E0892736
:1028900084830895E0E0F6E0808188608083F3CF50
:1028A0000895FF920F931F93CF93DF9362E081E02F
:1028B00002D3C0E0D2E0FF24F394F882198280E1D1
:1028C0008A8385E08C8361E270E082E01FD3082F69
:1028D00010E0102F002760E270E082E017D3082B91
:1028E0000C871D87F8A280E389A3DF91CF911F9108
:1028F0000F91FF900895E0E0F2E080A1806880A34E
:1029000083A18823E9F38091240290912502089500
:10291000CF93DF93CDB7DEB72797CDBFDEBF60E2A1
:1029200084E0C9D2E0E6F6E0808180688083E6E05A
:10293000F0E284818D8385818E8386818F8380817F
:102940009181A281B38189839A83AB83BC8360E246
:1029500084E0B1D2BE016F5F7F4F80EB99E00E94AF
:102960001C0C2796CDBFDEBFDF91CF91089504C028
:102970006150710981099109611571058105910500
:10298000B9F70895E0E4F6E0948180E18927848333
:102990000895E0E4F6E0848180618483F3DF8EE1D2
:1029A000B9D060E87EE380E090E0E1DFEBDF6BEA46
:1029B00079E280E090E0DBCF0895CF93DF93C82FDA
:1029C000E1DF8C2FA7D097D0C82FD0E0DC2FCC2709
:1029D00092D0C82BD7DFCE01DF91CF910895CF934E
:1029E000DF9300D01F92CDB7DEB719821A821B8207
:1029F0001C82C8DF88E48ED066E570ED80E090E050
:102A0000B6DFC0DFBFDF80E085D075D090E0A0E00A
:102A1000B0E0DC019927882789839A83AB83BC8344
:102A20006AD049815A816B817C81582B49835A83B2
:102A30006B837C8360D049815A816B817C81482B78
:102A400049835A836B837C839DDF69817A818B8183
:102A50009C812496CDBFDEBFDF91CF910895CF93A7
:102A6000DF9300D01F92CDB7DEB719821A821B8286
:102A70001C8288DF88E54ED066E570ED80E090E04E
:102A800076DF80DF7FDF80E045D035D090E0A0E0CA
:102A9000B0E0DC019927882789839A83AB83BC83C4
:102AA0002AD049815A816B817C81582B49835A8372
:102AB0006B837C8320D049815A816B817C81482B38
:102AC00049835A836B837C835DDF69817A818B8143
:102AD0009C812496CDBFDEBFDF91CF910895E0E4C5
:102AE000F6E08081806B808368E083E0E4D18CE550
:102AF0008093C00808959FB7F8948FEF8093C30820
:102B0000E0ECF8E082818823ECF778949FBF809115
:102B1000C30808959FB7F8948093C308E0ECF8E0E9
:102B200082818823ECF778949FBF0895CF93DF9339
:102B3000EB010E94030B8883DF91CF9108950C94E1
:102B4000FB0A0895CF93DF93CDB7DEB72797CDBFAC
:102B5000DEBF60E185E0AFD1E0E8F6E0808188602B
:102B6000808380EA9AE080934D2290934E228FE9F1
:102B700095E180934B2290934C2286E995E18093D6
:102B8000492290934A22EDE0F0E284818D83858191
:102B90008E8386818F8380819181A281B381898395
:102BA0009A83AB83BC8360E185E085D1BE016F5F12
:102BB0007F4F80EA9AE00E941C0C6FE771E088E981
:102BC00091E00E94A4322796CDBFDEBFDF91CF9166
:102BD0000895FF920F931F93CF93DF9362E081E0FC
:102BE0006AD1C0E0D2E0FF24F394F882198280E138
:102BF0008A8385E08C8361E270E082E087D1082FD0
:102C000010E0102F002760E270E082E07FD1082BF7
:102C10000C871D87F8A688E389A7DF91CF911F91C4
:102C20000F91FF900895E0E0F2E080A5806880A712
:102C300083A58823E9F380912C0290912D020895B9
:102C4000CF93DF93FC0141155105B1F180E090E095
:102C500020E0880F991FDB01A80FB91F8D919C916F
:102C6000A281B381AA0FBB1FC681D781AC0FBD1F44
:102C70008D939C9382819381019682839383A0811B
:102C8000B1818A179B0711F412821382828193818A
:102C9000C481D5818C179D0749F40196A817B907FF
:102CA00019F08483958302C0148215822F5F822FCE
:102CB00090E08417950768F2DF91CF910895FC01A9
:102CC0001282138214821582668377834083518334
:102CD0000895DC011296ED91FC911397CB010196BA
:102CE000E817F90778F0E150F048E61BF70BEE0F14
:102CF000FF1F16968D919C911797E80FF91F808101
:102D0000918108952D913C911197E20FF31FE150AD
:102D1000F048E61BF70BEE0FFF1F16968D919C9166
:102D20001797E80FF91F808191810895CF92DF9264
:102D3000EF92FF92CF93DF93FC014115510509F407
:102D40003FC080E090E020E0880F991F880F991F16
:102D5000DB01A80FB91FCD90DD90ED90FC90A28112
:102D6000B381AA0FBB1FAA0FBB1F86819781A80F33
:102D7000B91FCD92DD92ED92FC92139782819381DF
:102D8000019682839383A081B1818A179B0711F4F6
:102D90001282138282819381C481D5818C179D0711
:102DA00049F40196A817B90719F08483958302C0E6
:102DB000148215822F5F822F90E08417950720F2EE
:102DC000DF91CF91FF90EF90DF90CF900895FC01BD
:102DD0001282138214821582668377834083518323
:102DE0000895DC011296ED91FC911397CB010196A9
:102DF000E817F90798F0E150F04CE61BF70BEE0FDF
:102E0000FF1FEE0FFF1F16968D919C911797E80FED
:102E1000F91F608171818281938108952D913C9188
:102E20001197E20FF31FE150F04CE61BF70BEE0F8A
:102E3000FF1FEE0FFF1F16968D919C911797E80FBD
:102E4000F91F60817181828193810895CF93DF930F
:102E50001F921F92CDB7DEB78FEF809370008093E3
:102E6000710080937200809373008093740080934C
:102E70007500809376008FB78A83F8949A81E0E595
:102E8000F0E08081826080839FBF818181FFFDCFE0
:102E900061E080E490E044D08FB78983F894998111
:102EA000E0E5F0E080818E7F80839FBF0F900F90E0
:102EB000DF91CF910895CF93DF931F92CDB7DEB707
:102EC0009FB79983F8949981E82FF0E0E059FF4F7C
:102ED00060958081682360839FBF0F90DF91CF91C1
:102EE0000895CF93DF931F92CDB7DEB79FB7998335
:102EF000F8949981E82FF0E0E059FF4F8081682B2A
:102F000060839FBF0F90DF91CF9108954091CA01D8
:102F1000E62FF72F8093CA0184914093CA01089548
:102F20001BBEFC0128ED24BF6083089504C06150DE
:102F30007109810991096115710581059105B9F73B
:102F40000895809128229091292201968093282229
:102F5000909329220895CF93DF931BDD82EA90E0BE
:102F60002CDDC3E3D2E28883998384EA90E025DDF7
:102F70008A839B8386EA90E020DD8C839D8388EAA8
:102F800090E01BDD8E839F838AEA90E016DD8887C0
:102F900099878CEA90E011DD8A879B87DF91CF913A
:102FA0000895B6DC6BEA79E280E090E0BFDF80E371
:102FB0008093B309089560E483E07DDF60E483E0FB
:102FC0007ADFBADB32DC44DC60932A2270932B2256
:102FD00080932C2290932D2244DC609321207093C7
:102FE0002220809323209093242044DC60932E227F
:102FF00070932F2280933022909331220895CF93A3
:10300000DF9300D01F92CDB7DEB784E0FE0131968A
:10301000DF01982F1D929A95E9F789838DE28B83C2
:103020008FE28A8361EA77E180E893E00E941303EC
:103030008981982F906C99839C81292F207321F08E
:103040009C7F92609C8303C08F70806E8983AE01E9
:103050004F5F5F4F60E080E893E00E94740260E0A1
:1030600080E893E00E94CB022496CDBFDEBFDF91C3
:10307000CF9108954F925F926F927F928F929F921D
:10308000AF92BF92CF92DF92EF92FF92CF93DF93F6
:10309000A6DC6B017C01E3DC0E94532E4B015C013A
:1030A000C3E3D2E26885798580E090E00E94532EE8
:1030B00020E030E040E853E40E949C2F9B01AC01EB
:1030C000C501B4010E94172D4B015C016C817D810B
:1030D00080E090E00E94532EA50194010E949C2F55
:1030E00020E030E040E05CE30E949C2F2B013C019B
:1030F0006881798180E090E00E94532E20E030E0EA
:1031000040E857E40E949C2F9B01AC01C301B2012F
:103110000E94182D2B013C01C701B6010E94532EBD
:103120009B01AC01C301B2010E949C2F20E030E062
:1031300040E055E30E949C2F6B017C016E817F81F2
:1031400080E090E00E94532EA50194010E949C2FE4
:1031500020E030E040E85CE30E949C2F4B015C01E2
:103160006A817B8180E090E00E94532E20E030E075
:1031700040E058E40E949C2F9B01AC01C501B401C2
:103180000E94182D9B01AC01C701B6010E94172DAA
:1031900020E030E040E058E30E949C2FDF91CF9187
:1031A000FF90EF90DF90CF90BF90AF909F908F9067
:1031B0007F906F905F904F9008954F925F926F92C3
:1031C0007F928F929F92AF92BF92CF92DF92EF92B7
:1031D000FF92CF93DF931F921F92CDB7DEB78BDBA9
:1031E00089839A8369817A8180E090E00E94532EDE
:1031F0002091192030911A2040911B2050911C20C1
:103200000E949C2F2091152030911620409117206C
:10321000509118200E94182D6B017C019B01AC017C
:1032200063E373E383E590E40E94172D20E030E42C
:103230004EE455E40E949C2FA70196010E94802D28
:1032400020E030E44CE156E40E94802D0E945C2F87
:103250006B017C0120E030E040E450E40E94FF2F4D
:103260004B015C0121EF3BEB46E859E3C701B60196
:103270000E949C2F2DE03FEC4BE55BE30E94182D54
:103280002B013C01A7019601C701B6010E949C2FAA
:1032900022E835ED4FE256E30E949C2F9B01AC01E2
:1032A000C301B2010E94182D6B017C012AE633E1B3
:1032B00049E853E3C501B4010E949C2F9B01AC0176
:1032C000C701B6010E94182D9B01AC0160E070E0BF
:1032D00080E89FE30E94802D0F900F90DF91CF91A7
:1032E000FF90EF90DF90CF90BF90AF909F908F9026
:1032F0007F906F905F904F9008954F925F926F9282
:103300007F928F929F92AF92BF92CF92DF92EF9275
:10331000FF922B013C01C0902B20D0902C20E090FC
:103320002D20F0902E2020912F20309130204091A0
:10333000312050913220C701B6010E949C2F20916C
:103340002720309128204091292050912A200E9446
:10335000802D4B015C01A301920160913720709197
:1033600038208091392090913A200E94802DA5012B
:1033700094010E94FF2F20E030E040E85FE30E94CC
:10338000172D2091332030913420409135205091D9
:1033900036200E949C2FA70196010E94802DFF904D
:1033A000EF90DF90CF90BF90AF909F908F907F90E5
:1033B0006F905F904F900895CF92DF92EF92FF92BF
:1033C00032DCBC0180E090E00E94532E2091192055
:1033D00030911A2040911B2050911C200E949C2F5C
:1033E00020911520309116204091172050911820DF
:1033F0000E94182D6B017C012BE235EB42E150E479
:103400000E949C2F9B01AC01C701B6010E94182DA0
:10341000FF90EF90DF90CF9008952F923F924F92C0
:103420005F926F927F928F929F92AF92BF92CF9254
:10343000DF92EF92FF920F931F93CF93DF9300D011
:1034400000D0CDB7DEB76C0180911420882309F439
:103450006CC000E010E0412C512C3201862E912CE2
:10346000A12CB12C89829A82AB82BC82B801C601A0
:1034700030DC5C0118012FEF221A320AB101C601BB
:1034800028DC7C01B8016E5F7F4FC60122DCA501FC
:10349000BB0C660B770B8A019B01000F111F221FCB
:1034A000331F400F511F621F731F8701FF0C220B38
:1034B000330B78018901EE0CFF1C001F111FEE0C6D
:1034C000FF1C001F111F4A015B018E189F08A00AF4
:1034D000B10AAC01990F660B770BD501C401840FBB
:1034E000951FA61FB71F9C01AD0169817A818B8151
:1034F0009C810E941F310E94552E20E030E040E068
:103500005FE30E949C2F9B01AC01C301B2010E94AA
:10351000182D2B013C01809114208101282F30E0CF
:103520002216330608F4A2CF03C0412C512C3201DD
:10353000682F70E080E090E00E94552E9B01AC0166
:10354000C301B2010E94802D20E030E048EC52E43B
:103550000E94802D2696CDBFDEBFDF91CF911F91B7
:103560000F91FF90EF90DF90CF90BF90AF909F9022
:103570008F907F906F905F904F903F902F90089525
:103580003F924F925F926F927F928F929F92AF92F3
:10359000BF92CF92DF92EF92FF920F931F93CF9340
:1035A000DF9300D000D0CDB7DEB78C0119821A822C
:1035B000C12CD12C760169817A81C80112DC4B01C2
:1035C0005C0121E6821A2EEA920A2AE0A20AB108D8
:1035D0002FE782162AE1920626E0A206B10480F4C3
:1035E0000E94552E20E030E040EA50E40E94802DF9
:1035F0009B01AC01C701B6010E94182D6B017C0133
:1036000089819A81019689839A830597A1F6198207
:103610001A82812C912C540169817A81C801E1DBE5
:103620002B013C0121E6421A2EEA520A2AE0620AE4
:1036300071082FE742162AE1520626E0620671045D
:1036400090F40E94552EA70196010E94172D9B0110
:10365000AC010E949C2F9B01AC01C501B4010E94EA
:10366000182D4B015C0189819A81019689839A8387
:10367000059791F620E030E040E85EE3C501B40133
:103680000E949C2F69837A838B839C831D821E8278
:10369000312C412C512C32016D817E81C801A1DB7E
:1036A0004B015C0121E6821A2EEA920A2AE0A20A64
:1036B000B1082FE782162AE1920626E0A206B1049D
:1036C00050F50E94552E4B015C01A70196010E9406
:1036D000172D0E94222E9B01772324F422273327C3
:1036E000261B370BB901330F880B990B0E94552EFF
:1036F0009B01AC0169817A818B819C810E94532F4F
:1037000088234CF0A5019401C301B2010E94182D39
:103710002B013C0133948D819E8101968D839E8384
:10372000059709F0B9CF332069F0632D70E080E090
:1037300090E00E94532E9B01AC01C301B2010E9494
:10374000802D04C060E070E080E89FEB2696CDBF3E
:10375000DEBFDF91CF911F910F91FF90EF90DF902F
:10376000CF90BF90AF909F908F907F906F905F9021
:103770004F903F900895AF92BF92CF92DF92EF9219
:10378000FF920F931F93CF93DF9300D000D0CDB75C
:10379000DEB75C018B016EDC20E030E040E251E4FA
:1037A0000E949C2F0E94222E69837A838B839C83A4
:1037B00041E050E0BE016F5F7F4FC801B7DAC8013A
:1037C000DFDE20E030E040E251E40E94802D6B011A
:1037D0007C0120E030E040E85FEB0E947C2D8823F4
:1037E000D1F1C0921822D0921922E0921A22F092BE
:1037F0001B22C701B60181DD609310227093112254
:1038000080931222909313226091102270911122C2
:10381000809112229091132220E030E048EC52E493
:103820000E949C2F0E94222E6D837E8341E050E0F7
:10383000BE016B5F7F4FC50103DA60911F2070915D
:103840002020C501EADD609308227093092280934D
:103850000A2290930B22B1DC6093142270931522FC
:103860008093162290931722A7DD60930C22709309
:103870000D2280930E2290930F222696CDBFDEBF9D
:10388000DF91CF911F910F91FF90EF90DF90CF903C
:10389000BF90AF9008954F925F926F927F928F92F8
:1038A0009F92AF92BF92CF92DF92EF92FF92CF930F
:1038B000DF9300D000D0CDB7DEB70E9415140E9470
:1038C000281420912A2230912B2240912C225091B1
:1038D0002D220E94172D6B017C010E943114209132
:1038E00021203091222040912320509124200E94B9
:1038F000172D4B015C010E943A1420912E22309129
:103900002F2240913022509131220E94172D2B01FD
:103910003C01C701B6010E94222E6D837E8377236E
:1039200034F422273327261B370B2D833E838D81CA
:103930009E81853B910524F120E030E044EB53E487
:10394000C701B6010E949C2F69837A838B839C8375
:103950002D813E81B901330F880B990B0E94552EA2
:103960009B01AC0169817A818B819C810E94802DB1
:103970009B01AC01C701B6010E94172D6B017C01B0
:10398000C501B4010E94222E6D837E83772334F417
:1039900022273327261B370B2D833E838D819E8163
:1039A0008B35910524F120E030E044E353E4C50178
:1039B000B4010E949C2F69837A838B839C832D8121
:1039C0003E81B901330F880B990B0E94552E9B0144
:1039D000AC0169817A818B819C810E94802D9B0141
:1039E000AC01C501B4010E94172D4B015C01C3015C
:1039F000B2010E94222E6D837E83772334F4222726
:103A00003327261B370B2D833E838D819E81853B7B
:103A1000910524F120E030E044EB53E4C301B2010E
:103A20000E949C2F69837A838B839C832D813E81A6
:103A3000B901330F880B990B0E94552E9B01AC01E5
:103A400069817A818B819C810E94802D9B01AC01D0
:103A5000C301B2010E94172D2B013C01C701B60121
:103A60000E94222E6D547F4F6736714050F5C5017C
:103A7000B4010E94222E675A7F4F633B710508F5FF
:103A8000C301B2010E94222E6D547F4F67367140F0
:103A9000C0F4C092EE21D092EF21E092F021F0929A
:103AA000F1218092F2219092F321A092F421B09220
:103AB000F5214092E6215092E7216092E821709230
:103AC000E9212696CDBFDEBFDF91CF91FF90EF9029
:103AD000DF90CF90BF90AF909F908F907F906F902E
:103AE0005F904F90089580914222813081F138F0AB
:103AF000823009F455C0833009F4FCC07CC0609169
:103B000008227091092280910A2290910B2220E0D4
:103B100030E040EA50E40E947C2D88230CF0EAC09B
:103B200060911022709111228091122290911322A3
:103B300020E030E041EE53E40E94532F18160CF0C1
:103B4000D9C0809142228F5F809342220895609174
:103B500008227091092280910A2290910B2220E084
:103B600030E040EA50E40E947C2D882384F4609188
:103B7000102270911122809112229091132220E044
:103B800030E041EE53E40E947C2D88231CF081E05C
:103B900080934122809142228F5F80934222089538
:103BA000609108227091092280910A2290910B2243
:103BB0000E94222E9B01772324F422273327261BE1
:103BC000370B253031058CF0609110227091112255
:103BD000809112229091132220E030E040E251E4E3
:103BE0000E947C2D88230CF085C0809142228F5F3B
:103BF0008093422208956091082270910922809159
:103C00000A2290910B2220E030E040EA50E40E942A
:103C1000532F181614F410924222609110227091C2
:103C20001122809112229091132220E030E041EE87
:103C300053E40E94532F18169CF46091082270914F
:103C4000092280910A2290910B2220E030E040EA84
:103C500050E40E947C2D88231CF481E08093422252
:103C60006091102270911122809112229091132262
:103C700020E030E041EE53E40E947C2D88239CF448
:103C8000609108227091092280910A2290910B2262
:103C900020E030E040EA50E40E947C2D88231CF4B0
:103CA00082E08093422260910822709109228091E3
:103CB0000A2290910B220E94222E9B01772324F44A
:103CC00022273327261B370B253031059CF46091C2
:103CD000102270911122809112229091132220E0E3
:103CE00030E040E251E40E947C2D88231CF483E004
:103CF00080934222089561E084E0DDD864E084E0AE
:103D0000DAD8E0E6F6E0808187608083E0E0F9E0E1
:103D100085E0808383E1818380E197E286A397A396
:103D200086A197A18855924080A791A70895E0E0C9
:103D3000F6E0808184608083848184608483E0E015
:103D4000F9E086A197A18E5E924082A793A786A1F3
:103D500097A18E5E924084A795A708958F929F9217
:103D6000AF92BF92CF92DF92EF92FF920F931F9389
:103D7000CF93DF937C01C0E0D0E000E010E0BE0113
:103D8000C7010E946916080F191F2196CA30D10574
:103D9000B1F760E070E0C7010E946916EC01609124
:103DA0001F2070912020C70138DB6B017C01BE0110
:103DB000DD0F880B990B0E94552E20E030E0A90101
:103DC0000E949C2F20E030E048EC52E40E94802DBD
:103DD0004B015C01B801110F880B990B0E94552E05
:103DE00020E030E0A9010E949C2F20E030E048EC68
:103DF00052E40E94802D9B01AC01C501B4010E94D8
:103E0000182D4B015C0120E030E0A901C701B6018B
:103E10000E949C2F9B01AC01C501B4010E94182D8A
:103E200020E030E84BEB54E40E94182D0E94272E2E
:103E30006093252070932620609125207091262084
:103E400080E090E00E94532E20E030E04AE754E406
:103E50000E94802D20E030E04AEF53E40E949C2F26
:103E60000E94272EE0E0F9E062A773A764A775A778
:103E7000DF91CF911F910F91FF90EF90DF90CF9046
:103E8000BF90AF909F908F90089561E085E013D828
:103E9000E0E0FAE087E0808381E19AE786A397A3D8
:103EA00081E08683089562E084E005D864E084E0E0
:103EB00002D8E0E6F6E0808180618083E0E4F9E00A
:103EC00085E0808383E1818388EB90E086A397A3DC
:103ED0008CE590E080A791A70895E0E4F9E016A2B0
:103EE00017A210A611A60895CF92DF92EF92FF922B
:103EF0008091282290912922C090EA21D090EB2134
:103F0000E090EC21F090ED212CE3289FB001299F57
:103F1000700D112480E090E00E94532EA7019601BD
:103F20000E94182D20E030E040E05FE30E949C2FCB
:103F30006093EA217093EB218093EC219093ED2123
:103F40001092282210922922FF90EF90DF90CF90BC
:103F500008958091182290911922A0911A22B0916F
:103F60001B228093372090933820A0933920B09360
:103F70003A2023D9609333207093342080933520E6
:103F80009093362008950E94281460932A227093FB
:103F90002B2280932C2290932D220E943114609327
:103FA00021207093222080932320909324200E942C
:103FB0003A1460932E2270932F2280933022909394
:103FC00031220895C6DFDFCF0895E0E0F9E086A151
:103FD00097A1885E934080A791A781E080934122BA
:103FE0000895E0E0F9E086A197A18855924080A766
:103FF00091A71092412208952F923F924F925F9283
:104000006F927F928F929F92AF92BF92CF92DF92E8
:10401000EF92FF920F931F93CF93DF93CDB7DEB74D
:10402000E997CDBFDEBF80911C2290911D220196A1
:1040300080931C2290931D226091E6217091E721CC
:104040008091E8219091E92120914222298340909A
:10405000EA215090EB216090EC217090ED2180904E
:10406000EE219090EF21A090F021B090F121C0902E
:10407000F221D090F321E090F421F090F5214091CD
:10408000F6215091F72148AF59AF2091F821309196
:10409000F9214091FA215091FB212A833B834C83E3
:1040A0005D832091F8213091F9214091FA215091BE
:1040B000FB212E833F83488759872091FC21309133
:1040C000FD214091FE215091FF212A873B874C879B
:1040D0005D872091FC213091FD214091FE2150917E
:1040E000FF212E873F87488B598B209100223091EA
:1040F000012240910222509103222A8B3B8B4C8B50
:104100005D8B20910022309101224091022250913A
:1041100003222E8B3F8B488F598F209104223091A0
:10412000052240910622509107222A8F3B8F4C8F07
:104130005D8F2091042230910522409106225091FA
:1041400007222E8F3F8F48A359A32091042230913C
:10415000052240910622509107222AA33BA34CA39B
:104160005DA320910C2230910D2240910E2250919E
:104170000F222EA33FA348A759A7209114223091C4
:10418000152240911622509117222AA73BA74CA72F
:104190005DA7209118223091192240911A22509146
:1041A0001B222EA73FA748AB59AB2091102230917C
:1041B000112240911222509113222AAB3BAB4CABFF
:1041C0005DAB00911C2210911D2220902022309086
:1041D000212240912022509121224EAB5FAB0E94C0
:1041E000222E7F936F931F9259815F93C301B20177
:1041F0000E94222E7F936F93C501B4010E94222E4C
:104200007F936F93C701B6010E94222E7F936F9315
:1042100089AD8F9398AD9F936A817B818C819D81BD
:104220000E94222E9B01220F331F660F771F660FFD
:10423000771F660F771FC901860F971F6AE070E02E
:104240000E9442319F938F936E817F8188859985EB
:104250000E94222E7F936F9320E034E244E759E4DA
:104260006A857B858C859D850E949C2F0E94222ECD
:1042700020E432E44FE050E00E9477319B01772345
:1042800024F422273327261B370BC901330FAA0B2F
:10429000BB0BBF93AF939F938F936E857F85888968
:1042A00099890E94222E7F936F9320E034E244E7A5
:1042B00059E46A897B898C899D890E949C2F0E9480
:1042C000222E20E432E44FE050E00E9477319F93A9
:1042D0008F937F936F936E897F89888D998D0E94CC
:1042E000222E7F936F936A8D7B8D8C8D9D8D0E9486
:1042F000222E0F2EF4E6CF2ED12CE12CF12CF02D16
:10430000A70196010E9477317F936F936E8D7F8D09
:1043100088A199A10E94222E0F2EF0E18F2EF7E2A4
:104320009F2EA12CB12CF02DA50194010E94773174
:10433000A70196010E9477313F932F936AA17BA139
:104340008CA19DA10E94222EA50194010E9477318B
:104350003F932F936EA17FA188A599A50E94222E3D
:104360007F936F9323E333E948E853E46AA57BA581
:104370008CA59DA50E94172D0E94222E7F936F93DE
:104380006EA57FA588A999A90E94222E9F938F933D
:104390007F936F936AA97BA98CA99DA90E94222E65
:1043A0007F936F931F930F939101ADECBCEC0E9430
:1043B0009C319695879596958795969587959C01BE
:1043C000220F331F880F991F880F991F880F991F7D
:1043D000820F931F281A390A3F922F922EA93FA9C4
:1043E0000E949C3196958795969587959695879589
:1043F0009F938F9380911E208F9380911D208F9388
:1044000020E932E23F932F930E940133CDBFDEBFFC
:1044100020E932E23F932F930E94EE320F900F90EB
:10442000E996CDBFDEBFDF91CF911F910F91FF9035
:10443000EF90DF90CF90BF90AF909F908F907F9044
:104440006F905F904F903F902F9008954F925F92A2
:104450006F927F928F929F92AF92BF92CF92DF9294
:10446000EF92FF920F931F93CF93DF93CDB7DEB7F9
:10447000A097CDBFDEBFA7E3B0E2FC9111965C90A0
:10448000119712966C90129713967C90139714962E
:104490008C90149715969C9015971696AC9016973D
:1044A00017964C90A3E3B0E2EC911196BC90119753
:1044B0001296CC9012971396DC9013971496EC906A
:1044C00014971596FC90159716961C9116971796AB
:1044D000AC91F9832F2F352D462D572D682D792D31
:1044E0008A2D942D08E00E947F322A832F2F352DAC
:1044F000462D572D682D792D8A2D942D00E10E948F
:104500007F322B832F2F352D462D572D682D792D5A
:104510008A2D942D08E10E947F322C832F2F352D78
:10452000462D572D682D792D8A2D942D00E20E945D
:104530007F322D832F2F352D462D572D682D792D28
:104540008A2D942D08E20E947F322E832F2F352D45
:10455000462D572D682D792D8A2D942D00E30E942C
:104560007F322F832F2F352D462D572D682D792DF6
:104570008A2D942D08E30E947F322887E9872E2F09
:104580003B2D4C2D5D2D6E2D7F2D812F9A2F08E018
:104590000E947F322A872E2F3B2D4C2D5D2D6E2DB4
:1045A0007F2D812F9A2F00E10E947F322B872E2FA3
:1045B0003B2D4C2D5D2D6E2D7F2D812F9A2F08E1E7
:1045C0000E947F322C872E2F3B2D4C2D5D2D6E2D82
:1045D0007F2D812F9A2F00E20E947F322D872E2F70
:1045E0003B2D4C2D5D2D6E2D7F2D812F9A2F08E2B6
:1045F0000E947F322E872E2F3B2D4C2D5D2D6E2D50
:104600007F2D812F9A2F00E30E947F322F872E2F3C
:104610003B2D4C2D5D2D6E2D7F2D812F9A2F08E384
:104620000E947F32288B80E1EBE3F0E2DE015196BD
:1046300001900D928A95E1F783E38093CA01FE0110
:104640007196CE010196AE014F5D5F4F60EC71E057
:104650002191DB012C93DC012D91CD01DB0114961E
:104660002C93E417F507A1F7E0ECF1E085E38287EE
:10467000108280E1818388ED84BF81E08387878514
:104680008823ECF3A096CDBFDEBFDF91CF911F91C1
:104690000F91FF90EF90DF90CF90BF90AF909F90E1
:1046A0008F907F906F905F904F9008950F931F931E
:1046B000CF93DF93CDB7DEB7A197CDBFDEBF6091BB
:1046C00010227091112280911222909113220E9447
:1046D000222E162F072F60910822709109228091B7
:1046E0000A2290910B220E94222E262F372F809192
:1046F000222290E0019664E670E00E9442318093AD
:104700002222A0911C22B0911D22E0911C22F09146
:104710001D226091202270912122409120225091EF
:1047200021229091422209831A83BB83EC837D83EB
:104730004E833F83288789878A879B878BE0FE018A
:104740003196DE011C9601900D928A95E1F78BE07F
:10475000EBE4F0E2DE01579601900D928A95E1F7C5
:1047600083E38093CA0180E090E0E0ECF1E0A7E110
:10477000B0E0AC0FBD1FA80FB91F2C912083ACE097
:10478000B0E0AC0FBD1FA80FB91F2C912483019678
:104790008A30910561F7E0ECF1E085E382871082D1
:1047A00080E1818388ED84BF81E0838787858823CA
:1047B000ECF3A196CDBFDEBFDF91CF911F910F919A
:1047C00008952F923F924F925F926F927F928F92B5
:1047D0009F92AF92BF92CF92DF92EF92FF920F9390
:1047E0001F93CF93DF93CDB7DEB7EF97CDBFDEBF7B
:1047F00080911C2290911D22019680931C229093FF
:104800001D226091E6217091E7218091E82190912D
:10481000E9212091422229834090EA215090EB2106
:104820006090EC217090ED218090EE219090EF212E
:10483000A090F021B090F121C090F221D090F3210E
:10484000E090F421F090F5214091F6215091F7216C
:104850004EAF5FAF2091F8213091F9214091FA21BC
:104860005091FB212A833B834C835D832091F82167
:104870003091F9214091FA215091FB212E833F8301
:10488000488759872091FC213091FD214091FE21DC
:104890005091FF212A873B874C875D872091FC211F
:1048A0003091FD214091FE215091FF212E873F87BD
:1048B000488B598B20910022309101224091022295
:1048C000509103222A8B3B8B4C8B5D8B20910022D5
:1048D0003091012240910222509103222E8B3F8B76
:1048E000488F598F20910422309105224091062251
:1048F000509107222A8F3B8F4C8F5D8F209104228D
:104900003091052240910622509107222E8F3F8F31
:1049100048A359A3209104223091052240910622F8
:10492000509107222AA33BA34CA35DA320910C2204
:1049300030910D2240910E2250910F222EA33FA3C1
:1049400048A759A720910C2230910D2240910E22A8
:1049500050910F222AA73BA74CA75DA720911422B4
:104960003091152240911622509117222EA73FA771
:1049700048AB59AB20911422309115224091162258
:10498000509117222AAB3BAB4CAB5DAB2091182268
:104990003091192240911A2250911B222EAB3FAB2D
:1049A00048AF59AF2091102230911122409112222C
:1049B000509113222AAF3BAF4CAF5DAF20901C2229
:1049C00030901D2200912022109121220E94222E3F
:1049D0007F936F931F9239813F93C301B2010E946D
:1049E000222E7F936F93C501B4010E94222E7F93E4
:1049F0006F93C701B6010E94222E7F936F934FAD34
:104A00004F935EAD5F936A817B818C819D810E9413
:104A1000222E9B01220F331F660F771F660F771F11
:104A2000660F771FC901860F971F6AE070E00E942A
:104A300042319F938F936E817F81888599850E94F3
:104A4000222E7F936F9320E034E244E759E46A8595
:104A50007B858C859D850E949C2F0E94222E20E4C0
:104A600032E44FE050E00E9477319B01772324F439
:104A700022273327261B370BC901330FAA0BBB0B89
:104A8000BF93AF939F938F936E857F858889998914
:104A90000E94222E7F936F9320E034E244E759E492
:104AA0006A897B898C899D890E949C2F0E94222E75
:104AB00020E432E44FE050E00E9477319F938F93DF
:104AC0007F936F936E897F89888D998D0E94222EA6
:104AD0007F936F936A8D7B8D8C8D9D8D0E94222E8E
:104AE0000F2EF4E6CF2ED12CE12CF12CF02DA701C6
:104AF00096010E9477317F936F936E8D7F8D88A191
:104B000099A10E94222E0F2EF0E18F2EF7E29F2E08
:104B1000A12CB12CF02DA50194010E947731A701A1
:104B200096010E9477313F932F936AA17BA18CA1BC
:104B30009DA10E94222EA50194010E9477313F93EE
:104B40002F9320E030E040E251E46EA17FA188A5E0
:104B500099A50E949C2F0E94222ECB016AE070E052
:104B60000E9442319F938F936AA57BA58CA59DA53A
:104B70000E94222E7F936F9320E030E040E251E4C8
:104B80006EA57FA588A999A90E949C2F20E038EBEB
:104B90004AE255E44CD70E94222ECB016AE070E035
:104BA0000E9442319F938F9323E333E948E853E413
:104BB0006AA97BA98CA99DA93AD70E94222E7F932E
:104BC0006F936EA97FA988AD99AD0E94222E9F9305
:104BD0008F937F936F936AAD7BAD8CAD9DAD0E943B
:104BE000222E7F936F933F922F921F930F9380916A
:104BF0001E208F9380911D208F9380E992E29F93D6
:104C00008F930E940133CDBFDEBF80E992E29F9374
:104C10008F930E94EE324ADD109240220F900F9047
:104C2000EF96CDBFDEBFDF91CF911F910F91FF9027
:104C3000EF90DF90CF90BF90AF909F908F907F903C
:104C40006F905F904F903F902F900895CF93DF9398
:104C5000C0ECD1E026E02A878883998388ED84BF61
:104C600081E08B8766ED74E180E090E00E9496170A
:104C70008C81DF91CF9108952F923F924F925F9256
:104C80006F927F928F929F92AF92BF92CF92DF925C
:104C9000EF92FF920F931F93CF93DF93CDB7DEB7C1
:104CA0002797CDBFDEBF0E9426176BEA79E280E02E
:104CB00090E00E94961778948CEB8093400687E0F2
:104CC0008093A2000E944A140E94A2156BEA70EB26
:104CD00088E290E00E94961780E28093A30A0E94E7
:104CE000D1170E94FF170E9451140E94E9150E94DB
:104CF0006F150E94AB170E94DB170E944314C5D8A2
:104D00000E947B1E14D882E090E1A0DF89838FE1AE
:104D100090E19CDF8A8399818A819813D3C189812C
:104D20008F3F09F4CFC180E190E190DF182F8FE031
:104D300090E18CDFB82F212F30E040E050E060E0C0
:104D400070E080E090E008E30E946432122FC32EEE
:104D5000F42EA52FF62FE72FD82EE92E2B2F30E09B
:104D600040E050E060E070E080E090E000E30E940E
:104D70006432122BC32AF42A9A2E952AAF2EA62A21
:104D8000BE2EB72AD82AE92A8EE090E15FDF082FED
:104D90008DE090E15BDF282E8CE090E157DF382E2C
:104DA0008BE090E153DF482E8AE090E14FDF582EF0
:104DB00089E090E14BDF682E202F30E040E050E0AA
:104DC00060E070E080E090E008E20E946432162922
:104DD000122BC32AF42AA52FA929F62FFA29E72F87
:104DE000EB29D82AE92A222D30E040E050E060E0AB
:104DF00070E080E090E000E20E946432122BC32A4F
:104E0000F42AA52BF62BE72BD82AE92A232D30E00C
:104E100040E050E060E070E080E090E008E10E9457
:104E20006432122BC32AF42AA52BF62BE72BD82A9F
:104E3000E92A242D30E040E050E060E070E080E0BE
:104E400090E000E10E946432122BC32AF42AA52BC1
:104E5000F62BE72BD82AE92A252D30E040E050E058
:104E600060E070E080E090E008E00E946432612E33
:104E7000622A7C2C732A8F2C842A9A2E952AAF2E94
:104E8000A62ABE2EB72AD82AE92A89E190E1DEDED9
:104E9000182F88E190E1DADE482E212F30E040E043
:104EA00050E060E070E080E090E008E30E9464324F
:104EB000C22E532EB42FA52FF62FE72FF82E192F21
:104EC000242D30E040E050E060E070E080E090E0D1
:104ED00000E30E946432C22A532A5F822B2E242AC6
:104EE0003A2E352A4F2E462A5E2E572AF82A192B9B
:104EF00087E190E1ABDE082F86E190E1A7DE8B83AE
:104F000085E190E1A3DE8C8384E190E19FDE8D83D7
:104F100083E190E19BDE8E8382E190E197DEE82FD2
:104F2000A7E3B0E26C9211967C92119712968C9244
:104F3000129713969C9213971496AC921497159609
:104F4000BC9215971696DC9216971796EC92A3E3EF
:104F5000B0E2202F30E040E050E060E070E080E020
:104F600090E008E20E946432CE2AC22ABF80B32AAF
:104F7000D42ED228E52EE328F62FF429E72FE529B1
:104F8000F82A192B2B8130E040E050E060E070E01F
:104F900080E090E000E20E946432C22AB32AD42A60
:104FA000E52AF62BE72BF82A192B2C8130E040E07C
:104FB00050E060E070E080E090E008E10E94643240
:104FC000C22AB32AD42AE52AF62BE72BF82A192B72
:104FD0002D8130E040E050E060E070E080E090E063
:104FE00000E10E946432C22AB32AD42AE52AF62BB1
:104FF000E72BF82A192B2E8130E040E050E060E0EA
:1050000070E080E090E008E00E9464322C292C934C
:105010003B2911963C9311974D2912964C93129768
:105020005E2913965C9313976F2B14966C931497C9
:105030007E2B15967C9315978F2916968C93169731
:10504000912B17969C9381E090E100DE182F80E071
:1050500090E1FCDD612F70E0762F6627682B072E2C
:10506000000C880B990B21D66093102270931122AB
:10507000809312229093132287E090E1E7DD182FAE
:1050800086E090E1E3DD212F30E0322F2227282B2C
:10509000209320223093212284E090E1D7DD182F45
:1050A00083E090E1D3DD212F30E0322F2227282B1F
:1050B00020931C2230931D2285E090E1C7DD809370
:1050C000422217C00E943A1860933720709338200C
:1050D0008093392090933A200E94DD18609333200A
:1050E0007093342080933520909336201092422282
:1050F000ADD90E94731D2796CDBFDEBFDF91CF9142
:105100001F910F91FF90EF90DF90CF90BF90AF90E5
:105110009F908F907F906F905F904F903F902F90D7
:10512000089583E38093CA0180E0E0ECF1E09FEF13
:10513000808394838F5F8032D9F7E0ECF1E080E3E5
:10514000828788ED84BF81E0838787858823ECF39D
:105150000895E7DF8FB7F89498ED94BF91E09093AE
:1051600079008FBF089590E0FC01E156F109E33129
:10517000F105C8F48827E250FF4F8F4F0C9493310C
:10518000E8CF08950C94E21F08950C94A91F089588
:105190000C94C31F08950C94E51F08950C94F11FFF
:1051A00008950C94FC1F0895CF93DF93CDB7DEB71D
:1051B000C856D109CDBFDEBF5FDDE0E6F6E08081F5
:1051C000886080838481886084830E94531F6BE29F
:1051D0007CE28AE090E00E9496170E946D1F14E125
:1051E000BE016F5F7F4FFB01812F11928A95E9F716
:1051F0004AE050E0CE0145960E945F16BE01635E14
:105200007F4F88E2FB0111928A95E9F74AE050E06E
:10521000CE018B5B9F4F0E94E716BE01635B7F4F01
:10522000FB0111921A95E9F74AE050E0CE018F593F
:105230009F4F0E945F1600E010E0BE016B5B7F4F46
:10524000CE0145960E94BB1B0E94731D0E944B1C01
:1052500080914222813041F008F450C0823051F0F8
:10526000833009F445C048C0111148C00E9443145E
:1052700011E044C0111103C00E94431411E0609179
:10528000102270911122809112229091132220E01D
:1052900030E041EE53E4CBD3D5D49B01772324F403
:1052A00022273327261B370B2A303105BCF40E94F6
:1052B000E51F0E94FF170E944B1C8091E6219091F0
:1052C000E721A091E821B091E92180932E229093CB
:1052D0002F22A0933022B093312210C0809141221E
:1052E000882361F0CE018F599F4F0E94AE1E06C0E9
:1052F000011104C001E002C00E94731D8091402290
:10530000882329F00E94741F5CDA10924022809159
:105310003F22882339F08091322225DF10923222F9
:1053200010923F2280911E2290911F22019680931D
:105330001E2290931F228091202290912122892B5E
:1053400069F080911E2290911F226091202270911D
:10535000212284D760931F207093202066E573E29A
:1053600088E090E00E94961768CF1F920F920FB6C8
:105370000F92112408B60F9218BE8F939F938091BD
:105380002022909121220196809320229093212225
:1053900081E0809340229F918F910F9008BE0F90E3
:1053A0000FBE0F901F9018951F920F920FB60F927D
:1053B000112408B60F9218BE09B60F9219BE0BB68B
:1053C0000F921BBE2F933F934F935F936F937F93E7
:1053D0008F939F93AF93BF93EF93FF9380EA9AE0ED
:1053E0000E94030B8093322281E080933F22FF9141
:1053F000EF91BF91AF919F918F917F916F915F914D
:105400004F913F912F910F900BBE0F9009BE0F90BF
:1054100008BE0F900FBE0F901F9018951F920F920D
:105420000FB60F92112408B60F9218BE09B60F924C
:1054300019BE0AB60F921ABE0BB60F921BBE8F9200
:105440009F92AF92BF92CF92DF92EF92FF921F9303
:105450002F933F934F935F936F937F938F939F937C
:10546000AF93BF93EF93FF93CF93DF9300D000D020
:10547000CDB7DEB780EB99E00E94030B182F843282
:1054800051F481E080932722109226221092252247
:10549000109224225DC28A3229F4109224221092A2
:1054A000272256C28C3209F053C2ECE7F2E280E2C6
:1054B00080838181803209F07AC280E380937C22EC
:1054C00076C280917C228E3209F0A6C1ACC1809157
:1054D0007C228E3209F0F2C0F8C080917C228E329C
:1054E00009F053C059C091919E3229F401C080E067
:1054F0008093232203C08F5F8F30A9F7E09123228E
:10550000F0E0E458FD4D80E28083209123222F5F5C
:105510002F30C8F4822F90E0FC01E458FD4D30811B
:10552000303289F040E208C0822F90E0FC01E4585C
:10553000FD4D3081303239F0FC01E458FD4D40839F
:105540002F5F2F3089F7CE0101969F938F9389E4C7
:1055500091E29F938F938CE792E29F938F930E94A7
:10556000293369817A818B819C819FD36093042246
:105570007093052280930622909307220F900F903C
:105580000F900F900F900F90C5C1EDE7F2E281E010
:1055900091919E3229F401C080E08093232203C0C0
:1055A0008F5F8F30A9F7E0912322F0E0E458FD4DA2
:1055B00080E28083209123222F5F2F3008F5822FF5
:1055C00090E0FC01E458FD4D30813032C9F050E2EA
:1055D00008C0822F90E0FC01E458FD4D308130324C
:1055E00079F040912322FC01E41BF109E657FD4DBF
:1055F0003083FC01E458FD4D50832F5F2F3049F775
:1056000080918B22803219F480E380938B22CE012B
:1056100001969F938F9389E491E29F938F938CE7F8
:1056200092E29F938F930E942933CE0105969F9318
:105630008F938DE491E29F938F938BE892E29F93F7
:105640008F930E94293389809A80AB80BC806D81C2
:105650007E81072E000C880B990B27D320E030E4C5
:105660004CE156E44DD26B017C01C501B40124E646
:1056700030E040E050E03BD649015A0116D39B018F
:10568000AC01C701B601D4D120E030E040E752E4DC
:1056900037D26B017C01C501B40107D39B01AC017A
:1056A000C701B601C5D16093002270930122809397
:1056B000022290930322CDBFDEBF2CC1EDE7F2E2C0
:1056C00081E091919E3229F401C080E080932322F1
:1056D00003C08F5F8F30A9F7E0912322F0E0E458F8
:1056E000FD4D80E28083209123222F5F2F3008F52B
:1056F000822F90E0FC01E458FD4D30813032C9F03A
:1057000050E208C0822F90E0FC01E458FD4D30814A
:10571000303279F040912322FC01E41BF109E65775
:10572000FD4D3083FC01E458FD4D50832F5F2F3039
:1057300049F780918B22803219F480E380938B2289
:10574000CE0101969F938F9389E491E29F938F936B
:105750008CE792E29F938F937CD7CE0105969F931F
:105760008F938DE491E29F938F938BE892E29F93C6
:105770008F936FD789809A80AB80BC806D817E814A
:10578000072E000C880B990B90D220E030E44CE1FE
:1057900056E4B6D16B017C01C501B40124E630E0CA
:1057A00040E050E0A4D549015A017FD29B01AC01F1
:1057B000C701B6013DD120E030E040E752E4A0D17E
:1057C0006B017C01C501B40170D29B01AC01C70122
:1057D000B6012ED1DC01CB01B0588093FC2190930F
:1057E000FD21A093FE21B093FF21CDBFDEBF92C06B
:1057F00086EF91E29F938F938DE491E29F938F9335
:105800008CE792E29F938F9324D70F900F900F9085
:105810000F900F900F907EC0EDE7F2E281E0919142
:105820009E3229F401C080E08093232203C08F5F61
:105830008F30A9F7E0912322F0E0E458FD4D80E29B
:105840008083209123222F5F2F3008F5822F90E054
:10585000FC01E458FD4D30813032C9F050E208C0FF
:10586000822F90E0FC01E458FD4D3081303279F018
:1058700040912322FC01E41BF109E657FD4D3083E2
:10588000FC01E458FD4D50832F5F2F3049F7809184
:105890008B22803219F480E380938B22CE01019613
:1058A0009F938F9389E491E29F938F938CE792E289
:1058B0009F938F93CED6CE0105969F938F938DE4C1
:1058C00091E29F938F938BE892E29F938F93C1D63F
:1058D00069817A818B819C81E8D16B017C016D812A
:1058E0007E81072E000C880B990BDFD120E030E081
:1058F00040E251E405D19B01AC01C701B60198D04B
:105900006093F8217093F9218093FA219093FB2101
:10591000CDBFDEBF809127228823D1F010922322B1
:10592000809124228F5F8093242210922522ECE71D
:10593000F2E22BE832E280E281932E173F07E1F793
:10594000EBE8F2E280E28083818382838383848335
:1059500080912722882309F443C080912622833036
:1059600019F0843031F009C0173439F01092272231
:1059700004C0173411F010922722E0912522F0E0A4
:10598000E458FD4D1083809125228F5F809325225E
:10599000809126228F5F8093262222C080917C22D4
:1059A0008E3209F4A4CDEDE7F2E281E09CCD1982BC
:1059B0001A821B821C821D821E82809124228430C6
:1059C00009F485CD30F4813049F3823009F485CD76
:1059D000A1CF873009F40CCF893009F472CD9ACF6A
:1059E0002696CDBFDEBFDF91CF91FF91EF91BF91A2
:1059F000AF919F918F917F916F915F914F913F9167
:105A00002F911F91FF90EF90DF90CF90BF90AF90BC
:105A10009F908F900F900BBE0F900ABE0F9009BE03
:105A20000F9008BE0F900FBE0F901F901895505802
:105A3000BB27AA270ED0FDC1EED130F0F3D120F064
:105A400031F49F3F11F41EF4D3C10EF4E095E7FB4F
:105A5000C9C1E92FFFD180F3BA1762077307840722
:105A6000950718F071F49EF517C20EF4E0950B2E11
:105A7000BA2FA02D0B01B90190010C01CA01A001A0
:105A80001124FF27591B99F0593F50F4503E68F1FB
:105A90001A16F040A22F232F342F4427585FF3CF3C
:105AA000469537952795A795F0405395C9F77EF40D
:105AB0001F16BA0B620B730B840BBAF09150A1F056
:105AC000FF0FBB1F661F771F881FC2F70EC0BA0FDC
:105AD000621F731F841F48F4879577956795B79564
