:1000000057C100007BC1000079C1000077C100002A
:1000100075C1000073C1000071C100006FC1000014
:100020006DC100006BC1000069C1000067C1000024
:1000300065C100000C941E0AF2C3000028C4000031
:100040005EC4000094C40000CAC4000000C50000E3
:1000500036C500006CC50000A2C50000D8C5000070
:100060004DC100004BC1000049C1000047C1000064
:1000700045C1000043C1000041C100003FC1000074
:100080003DC100003BC1000039C1000037C1000084
:1000900035C1000033C1000031C100002FC1000094
:1000A0002DC100002BC1000029C1000027C10000A4
:1000B00025C1000023C100000C94500A0C94402A72
:1000C0000C946F080C94A7080C94DF080C94170983
:1000D0000C944F0913C1000011C100000FC10000B2
:1000E0000DC100000BC100000C945F2A07C1000085
:1000F00005C1000003C1000001C10000FFC00000F5
:10010000FDC00000FBC00000F9C00000F7C0000007
:1001100021C1000065C10000A9C100008CC200001F
:10012000C7C2000002C300003DC30000E7C00000DA
:10013000E5C00000A4C50000DAC5000010C600003C
:1001400046C600007CC60000B2C60000E8C600003B
:100150001EC7000054C700008AC70000CFC00000BF
:10016000CDC00000CBC00000C9C000000C94992A8B
:10017000C5C00000C3C00000C1C00000BFC0000077
:10018000BDC00000BBC00000B9C00000B7C0000087
:10019000B5C00000B3C00000B1C00000AFC0000097
:1001A000ADC00000ABC00000A9C00000A7C00000A7
:1001B000A5C00000A3C00000A1C000009FC00000B7
:1001C0009DC000009BC0000099C0000097C00000C7
:1001D00095C0000093C0000091C000008FC00000D7
:1001E0008DC000008BC0000089C0000087C00000E7
:1001F00085C0000083C0000081C000003729342979
:1002000031293D292E292C293F293F293F293F29E2
:100210003F293F293F293F293F293F293F293F299E
:100220003A2908000000BE922449123EABAAAA2A2D
:10023000BECDCCCC4C3E00000080BEABAAAAAA3EEC
:1002400000000000BF000000803F00000000000828
:100250004178D3BB4387D1133D190E3CC3BD4282C5
:10026000AD2B3E68EC8276BED98FE1A93E4C80EF83
:10027000FFBE01C4FF7F3F0000000000076342365D
:10028000B79BD8A71A39685618AEBAAB558C1D3C27
:10029000B7CC5763BD6DEDFD753EF6177231BF00EB
:1002A0000000803F6364696E6F70737578585B00FF
:1002B00011241FBECFEFCDBFDFE3DEBF00E00CBFD8
:1002C00018BE19BE1ABE1BBE11E2A0E0B0E2E4EDFA
:1002D000F5E700E00BBF02C007900D92AC3AB10702
:1002E000D9F71BBE23E2ACEAB1E201C01D92A730F0
:1002F000B207E1F70E9440290C94E83A81CECF93EF
:10030000DF931F92CDB7DEB7809152229091532296
:10031000E0914E22F0914F22BE016F5F7F4F199501
:100320008981082E000C990B0F90DF91CF910895D1
:10033000682F8091522290915322E0915022F091A7
:100340005122199599231CF081E090E008958FEFD8
:100350009FEF08951F920F920FB60F92112408B6C7
:100360000F9218BE09B60F9219BE0BB60F921BBEA4
:100370002F933F934F935F936F937F938F939F93AD
:10038000AF93BF93EF93FF93E091AD21F091AE2136
:10039000309779F08091870384FF06C040E060E0E9
:1003A00080E893E0199505C040E860E080E893E0BC
:1003B0001995FF91EF91BF91AF919F918F917F918F
:1003C0006F915F914F913F912F910F900BBE0F90C6
:1003D00009BE0F9008BE0F900FBE0F901F9018958A
:1003E0001F920F920FB60F92112408B60F9218BEEB
:1003F00009B60F9219BE0BB60F921BBE2F933F93F7
:100400004F935F936F937F938F939F93AF93BF931C
:10041000EF93FF93E091AD21F091AE21309779F009
:100420008091870385FF06C040E061E080E893E0AB
:10043000199505C040E861E080E893E01995FF91C7
:10044000EF91BF91AF919F918F917F916F915F914C
:100450004F913F912F910F900BBE0F9009BE0F90BF
:1004600008BE0F900FBE0F901F9018951F920F920D
:100470000FB60F92112408B60F9218BE09B60F924C
:1004800019BE0BB60F921BBE2F933F934F935F93F2
:100490006F937F938F939F93AF93BF93EF93FF934C
:1004A000E091AD21F091AE21309739F04091870372
:1004B000407C60E080E893E01995FF91EF91BF9157
:1004C000AF919F918F917F916F915F914F913F91EC
:1004D0002F910F900BBE0F9009BE0F9008BE0F908A
:1004E0000FBE0F901F901895CF92DF92EF92FF9260
:1004F0000F931F93CF93DF931F92CDB7DEB72FB724
:100500002983F894C980803823E09207D9F47A01CE
:10051000D62E8C018091AC21811104C061E081E074
:100520000E946B178091AC218F5F8093AC21F70103
:100530008281F8018583F7018381F8018683DD20BC
:1005400019F00BC0CFBE1DC0F7018181F801828375
:10055000F7018081F801808308C0F7018181F801EB
:100560008383F7018081F80181838091AC218150E0
:100570008093AC21811104C061E081E00E94811769
:10058000CFBE0F90DF91CF911F910F91FF90EF9011
:10059000DF90CF900895EF92FF920F931F93CF9328
:1005A000DF931F921F92CDB7DEB72FB72A83F8943F
:1005B000EA80803823E0920709F5F62E8C018091BD
:1005C000AC21811104C061E081E00E946B17809131
:1005D000AC218F5F8093AC21809149228F3F09F439
:1005E000FFCF8FB78983F8949981E8E4F2E28181A3
:1005F0008F5F81839FBFFF2019F007C0EFBE0AC045
:10060000F80180818160808304C0F801818181606C
:100610008183EFBE0F900F90DF91CF911F910F91CB
:10062000FF90EF9008958038934021F46093AD21BE
:100630007093AE2108951F920F920FB60F9211245E
:1006400008B60F9218BE09B60F9219BE0BB60F92DC
:100650001BBE2F933F934F935F936F937F938F9323
:100660009F93AF93BF93EF93FF93409124025091D8
:100670002502E0915422F091552261E080E092E061
:100680001995FF91EF91BF91AF919F918F917F91BC
:100690006F915F914F913F912F910F900BBE0F90F3
:1006A00009BE0F9008BE0F900FBE0F901F901895B7
:1006B0001F920F920FB60F92112408B60F9218BE18
:1006C00009B60F9219BE0BB60F921BBE2F933F9324
:1006D0004F935F936F937F938F939F93AF93BF934A
:1006E000EF93FF9340912C0250912D02E091542200
:1006F000F091552262E080E092E01995FF91EF9130
:10070000BF91AF919F918F917F916F915F914F9129
:100710003F912F910F900BBE0F9009BE0F9008BE16
:100720000F900FBE0F901F9018951F920F920FB64B
:100730000F92112408B60F9218BE09B60F9219BE77
:100740000BB60F921BBE2F933F934F935F936F9304
:100750007F938F939F93AF93BF93EF93FF934091BA
:10076000340250913502E0915422F091552264E018
:1007700080E092E01995FF91EF91BF91AF919F9129
:100780008F917F916F915F914F913F912F910F903A
:100790000BBE0F9009BE0F9008BE0F900FBE0F90BA
:1007A0001F9018951F920F920FB60F92112408B642
:1007B0000F9218BE09B60F9219BE0BB60F921BBE50
:1007C0002F933F934F935F936F937F938F939F9359
:1007D000AF93BF93EF93FF9340913C0250913D0242
:1007E000E0915422F091552268E080E092E0199562
:1007F000FF91EF91BF91AF919F918F917F916F91F9
:100800005F914F913F912F910F900BBE0F9009BEBA
:100810000F9008BE0F900FBE0F901F9018951F925B
:100820000F920FB60F92112408B60F9218BE09B698
:100830000F9219BE0BB60F921BBE2F933F934F938F
:100840005F936F937F938F939F93AF93BF93EF9338
:10085000FF93E091DF21F091E021309709F01995A5
:10086000FF91EF91BF91AF919F918F917F916F9188
:100870005F914F913F912F910F900BBE0F9009BE4A
:100880000F9008BE0F900FBE0F901F9018951F92EB
:100890000F920FB60F92112408B60F9218BE09B628
:1008A0000F9219BE0BB60F921BBE2F933F934F931F
:1008B0005F936F937F938F939F93AF93BF93EF93C8
:1008C000FF93E091DD21F091DE21309709F0199539
:1008D000FF91EF91BF91AF919F918F917F916F9118
:1008E0005F914F913F912F910F900BBE0F9009BEDA
:1008F0000F9008BE0F900FBE0F901F9018951F927B
:100900000F920FB60F92112408B60F9218BE09B6B7
:100910000F9219BE0BB60F921BBE2F933F934F93AE
:100920005F936F937F938F939F93AF93BF93EF9357
:10093000FF93E091DB21F091DC21309709F01995CC
:10094000FF91EF91BF91AF919F918F917F916F91A7
:100950005F914F913F912F910F900BBE0F9009BE69
:100960000F9008BE0F900FBE0F901F9018951F920A
:100970000F920FB60F92112408B60F9218BE09B647
:100980000F9219BE0BB60F921BBE2F933F934F933E
:100990005F936F937F938F939F93AF93BF93EF93E7
:1009A000FF93E091D921F091DA21309709F0199560
:1009B000FF91EF91BF91AF919F918F917F916F9137
:1009C0005F914F913F912F910F900BBE0F9009BEF9
:1009D0000F9008BE0F900FBE0F901F9018951F929A
:1009E0000F920FB60F92112408B60F9218BE09B6D7
:1009F0000F9219BE0BB60F921BBE2F933F934F93CE
:100A00005F936F937F938F939F93AF93BF93EF9376
:100A1000FF93E091D721F091D821309709F01995F3
:100A2000FF91EF91BF91AF919F918F917F916F91C6
:100A30005F914F913F912F910F900BBE0F9009BE88
:100A40000F9008BE0F900FBE0F901F9018951F9229
:100A50000F920FB60F92112408B60F9218BE09B666
:100A60000F9219BE0BB60F921BBE2F933F934F935D
:100A70005F936F937F938F939F93AF93BF93EF9306
:100A8000FF93E091D521F091D621309709F0199587
:100A9000FF91EF91BF91AF919F918F917F916F9156
:100AA0005F914F913F912F910F900BBE0F9009BE18
:100AB0000F9008BE0F900FBE0F901F9018951F92B9
:100AC0000F920FB60F92112408B60F9218BE09B6F6
:100AD0000F9219BE0BB60F921BBE2F933F934F93ED
:100AE0005F936F937F938F939F93AF93BF93EF9396
:100AF000FF93E091D321F091D421309709F019951B
:100B0000FF91EF91BF91AF919F918F917F916F91E5
:100B10005F914F913F912F910F900BBE0F9009BEA7
:100B20000F9008BE0F900FBE0F901F9018951F9248
:100B30000F920FB60F92112408B60F9218BE09B685
:100B40000F9219BE0BB60F921BBE2F933F934F937C
:100B50005F936F937F938F939F93AF93BF93EF9325
:100B6000FF93E091D121F091D221309709F01995AE
:100B7000FF91EF91BF91AF919F918F917F916F9175
:100B80005F914F913F912F910F900BBE0F9009BE37
:100B90000F9008BE0F900FBE0F901F9018951F92D8
:100BA0000F920FB60F92112408B60F9218BE09B615
:100BB0000F9219BE0BB60F921BBE2F933F934F930C
:100BC0005F936F937F938F939F93AF93BF93EF93B5
:100BD000FF93E091CF21F091D021309709F0199542
:100BE000FF91EF91BF91AF919F918F917F916F9105
:100BF0005F914F913F912F910F900BBE0F9009BEC7
:100C00000F9008BE0F900FBE0F901F9018951F9267
:100C10000F920FB60F92112408B60F9218BE09B6A4
:100C20000F9219BE0BB60F921BBE2F933F934F939B
:100C30005F936F937F938F939F93AF93BF93EF9344
:100C4000FF93E091CD21F091CE21309709F01995D5
:100C5000FF91EF91BF91AF919F918F917F916F9194
:100C60005F914F913F912F910F900BBE0F9009BE56
:100C70000F9008BE0F900FBE0F901F9018951F92F7
:100C80000F920FB60F92112408B60F9218BE09B634
:100C90000F9219BE0BB60F921BBE2F933F934F932B
:100CA0005F936F937F938F939F93AF93BF93EF93D4
:100CB000FF93E091CB21F091CC21309709F0199569
:100CC000FF91EF91BF91AF919F918F917F916F9124
:100CD0005F914F913F912F910F900BBE0F9009BEE6
:100CE0000F9008BE0F900FBE0F901F9018951F9287
:100CF0000F920FB60F92112408B60F9218BE09B6C4
:100D00000F9219BE0BB60F921BBE2F933F934F93BA
:100D10005F936F937F938F939F93AF93BF93EF9363
:100D2000FF93E091C921F091CA21309709F01995FC
:100D3000FF91EF91BF91AF919F918F917F916F91B3
:100D40005F914F913F912F910F900BBE0F9009BE75
:100D50000F9008BE0F900FBE0F901F9018951F9216
:100D60000F920FB60F92112408B60F9218BE09B653
:100D70000F9219BE0BB60F921BBE2F933F934F934A
:100D80005F936F937F938F939F93AF93BF93EF93F3
:100D9000FF93E091C721F091C821309709F0199590
:100DA000FF91EF91BF91AF919F918F917F916F9143
:100DB0005F914F913F912F910F900BBE0F9009BE05
:100DC0000F9008BE0F900FBE0F901F9018951F92A6
:100DD0000F920FB60F92112408B60F9218BE09B6E3
:100DE0000F9219BE0BB60F921BBE2F933F934F93DA
:100DF0005F936F937F938F939F93AF93BF93EF9383
:100E0000FF93E091C521F091C621309709F0199523
:100E1000FF91EF91BF91AF919F918F917F916F91D2
:100E20005F914F913F912F910F900BBE0F9009BE94
:100E30000F9008BE0F900FBE0F901F9018951F9235
:100E40000F920FB60F92112408B60F9218BE09B672
:100E50000F9219BE0BB60F921BBE2F933F934F9369
:100E60005F936F937F938F939F93AF93BF93EF9312
:100E7000FF93E091C321F091C421309709F01995B7
:100E8000FF91EF91BF91AF919F918F917F916F9162
:100E90005F914F913F912F910F900BBE0F9009BE24
:100EA0000F9008BE0F900FBE0F901F9018951F92C5
:100EB0000F920FB60F92112408B60F9218BE09B602
:100EC0000F9219BE0BB60F921BBE2F933F934F93F9
:100ED0005F936F937F938F939F93AF93BF93EF93A2
:100EE000FF93E091C121F091C221309709F019954B
:100EF000FF91EF91BF91AF919F918F917F916F91F2
:100F00005F914F913F912F910F900BBE0F9009BEB3
:100F10000F9008BE0F900FBE0F901F9018951F9254
:100F20000F920FB60F92112408B60F9218BE09B691
:100F30000F9219BE0BB60F921BBE2F933F934F9388
:100F40005F936F937F938F939F93AF93BF93EF9331
:100F5000FF93E091BF21F091C021309709F01995DE
:100F6000FF91EF91BF91AF919F918F917F916F9181
:100F70005F914F913F912F910F900BBE0F9009BE43
:100F80000F9008BE0F900FBE0F901F9018951F92E4
:100F90000F920FB60F92112408B60F9218BE09B621
:100FA0000F9219BE0BB60F921BBE2F933F934F9318
:100FB0005F936F937F938F939F93AF93BF93EF93C1
:100FC000FF93E091BD21F091BE21309709F0199572
:100FD000FF91EF91BF91AF919F918F917F916F9111
:100FE0005F914F913F912F910F900BBE0F9009BED3
:100FF0000F9008BE0F900FBE0F901F9018951F9274
:101000000F920FB60F92112408B60F9218BE09B6B0
:101010000F9219BE0BB60F921BBE2F933F934F93A7
:101020005F936F937F938F939F93AF93BF93EF9350
:10103000FF93E091BB21F091BC21309709F0199505
:10104000FF91EF91BF91AF919F918F917F916F91A0
:101050005F914F913F912F910F900BBE0F9009BE62
:101060000F9008BE0F900FBE0F901F9018951F9203
:101070000F920FB60F92112408B60F9218BE09B640
:101080000F9219BE0BB60F921BBE2F933F934F9337
:101090005F936F937F938F939F93AF93BF93EF93E0
:1010A000FF93E091B921F091BA21309709F0199599
:1010B000FF91EF91BF91AF919F918F917F916F9130
:1010C0005F914F913F912F910F900BBE0F9009BEF2
:1010D0000F9008BE0F900FBE0F901F9018951F9293
:1010E0000F920FB60F92112408B60F9218BE09B6D0
:1010F0000F9219BE0BB60F921BBE2F933F934F93C7
:101100005F936F937F938F939F93AF93BF93EF936F
:10111000FF93E091B721F091B821309709F019952C
:10112000FF91EF91BF91AF919F918F917F916F91BF
:101130005F914F913F912F910F900BBE0F9009BE81
:101140000F9008BE0F900FBE0F901F9018951F9222
:101150000F920FB60F92112408B60F9218BE09B65F
:101160000F9219BE0BB60F921BBE2F933F934F9356
:101170005F936F937F938F939F93AF93BF93EF93FF
:10118000FF93E091B521F091B621309709F01995C0
:10119000FF91EF91BF91AF919F918F917F916F914F
:1011A0005F914F913F912F910F900BBE0F9009BE11
:1011B0000F9008BE0F900FBE0F901F9018951F92B2
:1011C0000F920FB60F92112408B60F9218BE09B6EF
:1011D0000F9219BE0BB60F921BBE2F933F934F93E6
:1011E0005F936F937F938F939F93AF93BF93EF938F
:1011F000FF93E091B321F091B421309709F0199554
:10120000FF91EF91BF91AF919F918F917F916F91DE
:101210005F914F913F912F910F900BBE0F9009BEA0
:101220000F9008BE0F900FBE0F901F9018951F9241
:101230000F920FB60F92112408B60F9218BE09B67E
:101240000F9219BE0BB60F921BBE2F933F934F9375
:101250005F936F937F938F939F93AF93BF93EF931E
:10126000FF93E091B121F091B221309709F01995E7
:10127000FF91EF91BF91AF919F918F917F916F916E
:101280005F914F913F912F910F900BBE0F9009BE30
:101290000F9008BE0F900FBE0F901F9018951F92D1
:1012A0000F920FB60F92112408B60F9218BE09B60E
:1012B0000F9219BE0BB60F921BBE2F933F934F9305
:1012C0005F936F937F938F939F93AF93BF93EF93AE
:1012D000FF93E091AF21F091B021309709F019957B
:1012E000FF91EF91BF91AF919F918F917F916F91FE
:1012F0005F914F913F912F910F900BBE0F9009BEC0
:101300000F9008BE0F900FBE0F901F901895CF93AF
:10131000DF93E091E121F091E221848183FF08C015
:101320008860848383E0838386EF8093EB2183C08E
:10133000982F947131F083E083838FEF8093EB21BA
:101340007AC086FF43C0C1EED1E2AA81BB818C8105
:101350009D8114962D913C911597821793076CF4FB
:101360009C012F5F3F4F2093E5213093E621A80F8A
:10137000B91F11968C9187835EC08091E72190916F
:10138000E82118962D913C91199782179307C8F47C
:101390002091E921222321F08681816086834BC040
:1013A00016962D913C911797AC014F5F5F4F40937C
:1013B000E7215093E821D901A80FB91F8C918783A9
:1013C0003AC083E083831092EB2135C0882384F5F3
:1013D000A1EEB1E21296CD91DC91139716968D9104
:1013E0009C9117972885398582179307D8F46E81C9
:1013F0007F819C012F5F3F4F2093E7213093E821AD
:101400004781DB01A80FB91F4C9388859985281760
:10141000390718F482E083830EC087E0838310923B
:10142000EB2109C083E0838389EF8093EB2103C024
:101430008BEF8093EB21DF91CF9108951F920F9254
:101440000FB60F92112408B60F9218BE09B60F926C
:1014500019BE0BB60F921BBE2F933F934F935F9312
:101460006F937F938F939F93AF93BF93EF93FF936C
:101470004EDFFF91EF91BF91AF919F918F917F913F
:101480006F915F914F913F912F910F900BBE0F90F5
:1014900009BE0F9008BE0F900FBE0F901F901895B9
:1014A0001F920F920FB60F92112408B60F9218BE1A
:1014B00009B60F9219BE0BB60F921BBE2F933F9326
:1014C0004F935F936F937F938F939F93AF93BF934C
:1014D000EF93FF931CDFFF91EF91BF91AF919F912D
:1014E0008F917F916F915F914F913F912F910F90CD
:1014F0000BBE0F9009BE0F9008BE0F900FBE0F904D
:101500001F901895FC01DB0114968C91858388EB64
:10151000818381E08483E1EEF1E211861286E0EAC4
:10152000F0E0828182608283789480E00895CF9396
:10153000DF931F92CDB7DEB79C01FB01892B09F425
:1015400051C0309709F450C092858091EA218823D8
:1015500019F09923F1F34AC08FB78983F8948981F0
:10156000A1EEB1E291E019969C93199790E81A9632
:101570009C931A978FBF2D933C93119712966D935E
:101580007C93139714961D921C92159716961D9294
:101590001C92179718964C938081880F64817581EF
:1015A000672B11F4411103C0F901868303C08160E8
:1015B000F9018683E1EEF1E292859038E9F3F901D1
:1015C00084818370813049F0A1EEB1E2ED91FC910C
:1015D0001197848183708130C9F7E1EEF1E2828551
:1015E000118605C088EF03C088EF01C086EF0F9019
:1015F000DF91CF910895FC01918195FFFDCF60832C
:1016000080E090E00895FC0191819923ECF78081BE
:1016100008954F925F926F927F928F929F92AF92B6
:10162000BF92EF92FF920F931F93CF937C014A01D9
:101630005B0128013901FC01848182FF16C0D901B8
:10164000C801689412F8B695A79597958795169452
:10165000D1F7B901A801032E36E176956795579524
:1016600047953A95D1F7302D15C0D901C801689436
:1016700013F8B695A795979587951694D1F7B90164
:10168000A801032E37E176956795579547953A95CA
:10169000D1F7302D88159905AA05BB0508F4A6C019
:1016A00084169506A606B70608F4A2C0F701848141
:1016B00082FD04C0880C991CAA1CBB1CC301B2018A
:1016C000A50194010E94E0312F3F310541055105EC
:1016D00008F490C08FEF90E0A0E0B0E0C9EF05C043
:1016E000281739074A075B0758F0880F991FAA1F68
:1016F000BB1FCD3F0CF48160CF5FC73089F74FC06F
:10170000CC230CF04CC0D501C401880F991FAA1F2F
:10171000BB1F880F991FAA1FBB1F880F991FAA1FE5
:10172000BB1F481A590A6A0A7B0ACE3FF4F48DEFB0
:101730009FEF8C1B9109C7FD939504C0440C551C69
:10174000661C771C8A95D2F7D501C401B695A7957A
:1017500097958795BC01CD01640D751D861D971D5C
:10176000A50194010E94E03137C083E08C0FA501F0
:10177000940104C0220F331F441F551F8A95D2F7CE
:10178000DA01C901B695A79597958795BC01CD015A
:10179000640D751D861D971D0E94E0311DC083E0FC
:1017A0008C0FA501940104C0220F331F441F551F45
:1017B0008A95D2F7DA01C901B695A79597958795CD
:1017C000BC01CD01640D751D861D971D0E94E03181
:1017D0002150310941095109832F8F70C295C07F73
:1017E000C82BF701C783268381E018C080E016C0AC
:1017F00080E014C0D501C401880F991FAA1FBB1F28
:10180000880F991FAA1FBB1F880F991FAA1FBB1FF4
:10181000481A590A6A0A7B0AC9EF89CFCF911F91EA
:101820000F91FF90EF90BF90AF909F908F907F901F
:101830006F905F904F9008950F931F93CF93DF9316
:10184000EC018B01009709F4D6C0803C910529F486
:1018500060E180E00E946B17CEC0C11584E0D8071C
:1018600029F464E080E00E946B17C5C0C038E1E055
:10187000DE0729F462E080E00E946B17BCC0C1154E
:10188000F1E0DF0729F461E080E00E946B17B3C04C
:10189000C03883E0D80729F461E081E00E946B172B
:1018A000AAC0C115E2E0DE0729F462E081E00E94EF
:1018B0006B17A1C0C032F3E0DF0729F464E082E0D7
:1018C0000E946B1798C0C11588E0D80729F461E021
:1018D00083E00E946B178FC0C115E9E0DE0729F491
:1018E00061E084E00E946B1786C0C115FAE0DF0753
:1018F00029F461E085E00E946B177DC0C03488E068
:10190000D80729F462E083E00E946B1774C0C034EA
:10191000E9E0DE0729F462E084E00E946B176BC007
:10192000C039F8E0DF0729F464E083E00E946B1718
:1019300062C0C03989E0D80729F464E084E00E94DD
:101940006B1759C0C039EAE0DE0729F464E085E08E
:101950000E946B1750C0C03CF8E0DF0729F468E034
:1019600083E00E946B1747C0C03C89E0D80729F488
:1019700068E084E00E946B173EC0C03AE8E0DE07F2
:1019800029F460E183E00E946B1735C0C03AF9E0AA
:10199000DF0729F460E184E00E946B172CC0C03A95
:1019A0008AE0D80729F460E185E00E946B1723C024
:1019B000C03BE8E0DE0729F460E283E00E946B1799
:1019C0001AC0C03BF9E0DF0729F460E284E00E941E
:1019D0006B1711C0C03884E0D80729F460E483E0B5
:1019E0000E946B1708C0C03AE4E0DE0721F460E40F
:1019F00085E00E946B178D818F738D83F80195812F
:101A00008481892B9681911198E0892B8D83F8012F
:101A1000408151816281738100E018E428EE31E059
:101A2000CE01F7DD9C8198609C839C8190619C83B2
:101A3000DF91CF911F910F9108951F93CF93DF9363
:101A400000D01F92CDB7DEB719821A821B821C828A
:101A50008093EC219093ED21DC011996ED91FC919E
:101A60001A9721E0AE014E5F5F4F67E018968C91A8
:101A70001995182FA091EC21B091ED211B96ED91B5
:101A8000FC911C9721E0AE014F5F5F4F60E018961C
:101A90008C911995180FA091EC21B091ED218981BD
:101AA0008C931B96ED91FC911C9721E0AE014F5F4A
:101AB0005F4F61E018968C911995180FA091EC2159
:101AC000B091ED21898114968C9314971B96ED911A
:101AD000FC911C9721E0AE014F5F5F4F62E01896CA
:101AE0008C911995180FA091EC21B091ED2189816D
:101AF00015968C9315971B96ED91FC911C9721E000
:101B0000AE014F5F5F4F63E018968C911995180FE7
:101B1000A091EC21B091ED21898116968C931697B6
:101B20001B96ED91FC911C9721E0AE014F5F5F4F3A
:101B300066E018968C911995180FA091EC21B09140
:101B4000ED21898117968C9317971B96ED91FC9147
:101B50001C9722E0AE014D5F5F4F64E018968C91B8
:101B60001995180FA091EC21B091ED218C8190E096
:101B7000982F88272B81822B11968D939C931297F7
:101B80001B96ED91FC911C9721E0AE014F5F5F4FDA
:101B900067E018968C911995E091EC21F091ED2178
:101BA00099819383810F2496CDBFDEBFDF91CF91C2
:101BB0001F910895A091EC21B091ED21109759F05B
:101BC000242FAB01682F1996ED91FC911A97189666
:101BD0008C911995089581E808951F93CF93DF9311
:101BE0001F92CDB7DEB71982A091EC21B091ED2103
:101BF000109741F1182F1B96ED91FC911C9721E055
:101C0000AE014F5F5F4F67E018968C911995811177
:101C10001BC01983A091EC21B091ED211996ED9193
:101C2000FC911A9721E0AE014F5F5F4F67E0189675
:101C30008C911995811109C0E091EC21F091ED2171
:101C4000138303C081E801C08FEF0F90DF91CF9124
:101C50001F9108950F931F93CF93DF9300D000D06F
:101C6000CDB7DEB78C01FE01319696E0DF011D9203
:101C70009A95E9F7E091EC21F091ED21309709F484
:101C80003EC08381882359F080E0A7DF882339F0A4
:101C9000E091EC21F091ED218381811132C0A0917E
:101CA000EC21B091ED211B96ED91FC911C9726E063
:101CB000AE014F5F5F4F6AE118968C9119952A81AA
:101CC000022E000C330B322F22279981292BF80189
:101CD000208331832C81022E000C330B322F2227DC
:101CE0009B81292B228333832E81022E000C330B00
:101CF000322F22279D81292B2483358303C081E83D
:101D000001C08FEF2696CDBFDEBFDF91CF911F912F
:101D10000F9108950F931F93CF93DF9300D000D0BE
:101D2000CDB7DEB78C01FE01319696E0DF011D9242
:101D30009A95E9F7E091EC21F091ED21309709F4C3
:101D40003EC08381882359F080E047DF882339F043
:101D5000E091EC21F091ED218381811132C0A091BD
:101D6000EC21B091ED211B96ED91FC911C9726E0A2
:101D7000AE014F5F5F4F68E218968C9119952A81EA
:101D8000022E000C330B322F22279981292BF801C8
:101D9000208331832C81022E000C330B322F22271B
:101DA0009B81292B228333832E81022E000C330B3F
:101DB000322F22279D81292B2483358303C081E87C
:101DC00001C08FEF2696CDBFDEBFDF91CF911F916F
:101DD0000F910895FF920F931F93CF93DF9300D03D
:101DE00000D0CDB7DEB78C0119821A821B821C820B
:101DF0001D821E82CE0101968DDFF82E81113AC020
:101E000069817A81072E000C880B990B0E94E02EC5
:101E100020E030E048EC52E40E940B2EF801608391
:101E20007183828393836B817C81072E000C880BE6
:101E3000990B0E94E02E20E030E048EC52E40E9432
:101E40000B2EF80164837583868397836D817E8171
:101E5000072E000C880B990B0E94E02E20E030E04A
:101E600048EC52E40E940B2EF8016087718782874C
:101E7000938702C0FF24FA948F2D2696CDBFDEBF34
:101E8000DF91CF911F910F91FF9008950F931F93B2
:101E9000CF93DF931F92CDB7DEB71982E091EC218B
:101EA000F091ED21309721F18C018381882359F045
:101EB00080E093DE882339F0E091EC21F091ED2170
:101EC0008381811117C0A091EC21B091ED211B9667
:101ED000ED91FC911C9721E0AE014F5F5F4F65E3F0
:101EE00018968C91199599819370F801908303C08D
:101EF00081E801C08FEF0F90DF91CF911F910F917B
:101F000008950F931F93CF93DF931F92CDB7DEB742
:101F10001982E091EC21F091ED21309749F18C018B
:101F20008381882359F080E058DE882339F0E091DE
:101F3000EC21F091ED21838181111CC0A091EC2155
:101F4000B091ED211B96ED91FC911C9721E0AE0123
:101F50004F5F5F4F65E318968C91199529812C701E
:101F600030E03595279535952795F801208303C0F6
:101F700081E801C08FEF0F90DF91CF911F910F91FA
:101F800008950F931F93CF93DF931F92CDB7DEB7C2
:101F90001982E091EC21F091ED21309769F18C01EB
:101FA0008381882359F080E018DE882339F0E0919E
:101FB000EC21F091ED218381811120C0A091EC21D1
:101FC000B091ED211B96ED91FC911C9721E0AE01A3
:101FD0004F5F5F4F65E318968C91199529812073A7
:101FE00030E0359527953595279535952795359585
:101FF0002795F801208303C081E801C08FEF0F907F
:10200000DF91CF911F910F9108950F931F93CF935D
:10201000DF931F92CDB7DEB71982E091EC21F091EA
:10202000ED21309739F18C018381882359F080E0CC
:10203000D4DD882339F0E091EC21F091ED2183810A
:1020400081111AC0A091EC21B091ED211B96ED9168
:10205000FC911C9721E0AE014F5F5F4F65E318963E
:102060008C91199599819295969596959370F80112
:10207000908303C081E801C08FEF0F90DF91CF9173
:102080001F910F9108950F931F93CF93DF931F928A
:10209000CDB7DEB71982E091EC21F091ED213097B8
:1020A00031F18C018381882359F080E096DD88230B
:1020B00039F0E091EC21F091ED218381811119C07B
:1020C000A091EC21B091ED211B96ED91FC911C9714
:1020D00021E0AE014F5F5F4F6BE318968C9119952D
:1020E000998192FB992790F9F801908303C081E8C8
:1020F00001C08FEF0F90DF91CF911F910F91089545
:102100000F931F93CF93DF931F92CDB7DEB7198242
:10211000E091EC21F091ED21309721F18C01838148
:10212000882359F080E059DD882339F0E091EC21D3
:10213000F091ED218381811117C0A091EC21B09124
:10214000ED211B96ED91FC911C9721E0AE014F5FB4
:102150005F4F6DE318968C91199599819F70F801E6
:10216000908303C081E801C08FEF0F90DF91CF9182
:102170001F910F9108950F931F93CF93DF931F9299
:102180001F92CDB7DEB719821A822091EC213091CF
:10219000ED21232B09F49CC0082FCE010296B0DF5D
:1021A000811198C08A81811135C0A091EC21B09134
:1021B000ED211B96ED91FC911C9721E0AE014F5F44
:1021C0005F4F6DE318968C911995811185C08981B7
:1021D000982F907F802F8F70892B8983A091EC217D
:1021E000B091ED211996ED91FC911A9721E0AE0185
:1021F0004F5F5F4F6DE318968C911995182FE09102
:10220000EC21F091ED210584F685E02D88E592E042
:10221000199565C0A091EC21B091ED211B96ED912F
:10222000FC911C9721E0AE014F5F5F4F6DE3189664
:102230008C911995182F811114C08981807F898311
:1022400041E0BE016F5F7F4F8DE3B4DC182FE0915A
:10225000EC21F091ED210584F685E02D84E190E0FC
:1022600019950023E1F1A091EC21B091ED211B968D
:10227000ED91FC911C9721E0AE014F5F5F4F6DE344
:1022800018968C911995811129C08981982F907F7A
:10229000802F8F70892B8983A091EC21B091ED2143
:1022A0001996ED91FC911A9721E0AE014F5F5F4FB7
:1022B0006DE318968C911995182FE091EC21F0910F
:1022C000ED210584F685E02D88E592E0199507C09B
:1022D00011E805C01FEF03C0182F01C0182F812F70
:1022E0000F900F90DF91CF911F910F9108950F9351
:1022F0001F93CF93DF931F921F92CDB7DEB7198242
:102300001A822091EC213091ED21232B09F444C055
:10231000082FCE010296F4DE811135C08A81882310
:1023200021F080E028DF811130C0A091EC21B09134
:10233000ED211B96ED91FC911C9721E0AE014F5FC2
:102340005F4F6BE318968C911995182F81111EC061
:102350008981982F9B7F802F880F880F8470892B0D
:102360008983A091EC21B091ED211996ED91FC911A
:102370001A9721E0AE014F5F5F4F6BE318968C9187
:102380001995182F03C01FEF01C01FEF8A81882302
:1023900029F0F1DE810F03C081E801C0812F0F9089
:1023A0000F90DF91CF911F910F910895EF92FF92BF
:1023B0001F93CF93DF93CDB7DEB72797CDBFDEBF97
:1023C0007C0119821A821B821C821D821E821F823E
:1023D000CE01079658DE182F8F81882319F080E0F0
:1023E00086DF180F11113FC0CE01019633DC811139
:1023F0003CC069817A81072E000C880B990B0E94E2
:10240000E02E20E030E040E85DE30E942730F70155
:1024100060837183828393836D817E81072E000C9C
:10242000880B990B0E94E02E20E030E040E85DE34D
:102430000E942730F70160877187828793876B81BD
:102440007C81072E000C880B990B0E94E02E20E067
:1024500030E040E85DE30E942730F7016483758334
:102460008683978303C01FEF01C01FEF812F27963C
:10247000CDBFDEBFDF91CF911F91FF90EF90089508
:102480000F931F93CF93DF931F921F92CDB7DEB7A9
:1024900019821A822091EC213091ED21232B09F42D
:1024A00042C0082FCE0102962BDE811133C08A81F3
:1024B000882321F080E05FDE81112EC0A091EC2105
:1024C000B091ED211B96ED91FC911C9721E0AE019E
:1024D0004F5F5F4F6EE318968C911995182F8111FD
:1024E0001CC08981982F9C7F802F8370892B8983C2
:1024F000A091EC21B091ED211996ED91FC911A97E4
:1025000021E0AE014F5F5F4F6EE318968C911995F5
:10251000182F03C01FEF01C01FEF8A81882329F005
:102520002ADE810F03C081E801C0812F0F900F9038
:10253000DF91CF911F910F91089504C061507109EF
:10254000810991096115710581059105B9F7089512
:10255000AF92BF92CF92DF92EF92FF920F931F93B1
:10256000CF93DF930097D1F1A12C0F2EF8E4BF2E6B
:10257000F02D0F2EF8EECF2EF02DDD24D394E12C8C
:10258000F12C00E010E0282F392F40E050E060E00F
:1025900070E080E090E00E9440320F2EF6E0AF2E17
:1025A000F02DB12CC12CD12C0E94933229513C4FDB
:1025B0004F4F5F4F6F4F7F4F8F4F9F4F0E941B2F8B
:1025C00020E030E04AE754E40E940B2E0E94782E6F
:1025D000622F732F842F952FB0DF05C066E070E067
:1025E00080E090E0AADFDF91CF911F910F91FF90E3
:1025F000EF90DF90CF90BF90AF900895CF92DF9291
:10260000FF920F931F93CF93DF93CDB7DEB7CB54D9
:10261000D109CDBFDEBFF82E062F6A01122F22305E
:1026200040F081EB90E29F938F930E9479330F905B
:102630000F901982F60180818A83015023960FAF93
:10264000239781E090E027968EAF9FAF2797229641
:10265000FFAE2297CE01019629968EAF9FAF2997A4
:102660001F5F212F30E02B962EAF3FAF2B972C967C
:102670001FAE2C9740E0BE016F5B7F4F80E894E077
:102680000E94970AC55BDF4FCDBFDEBFDF91CF91C0
:102690001F910F91FF90DF90CF900895AF92BF925E
:1026A000DF92EF92FF920F931F93CF93DF93CDB7FB
:1026B000DEB7CB54D109CDBFDEBF5A01AE014F5FAB
:1026C0005F4F7A0190E4FA0111929A95E9F7239607
:1026D0006FAF239741E050E027964EAF5FAF27974B
:1026E00022968FAF22972996EEAEFFAE2997022F42
:1026F00010E02B960EAF1FAF2B972C961FAE2C978A
:10270000BE016F5B7F4F80E894E00E94970AD82E4D
:10271000A801B701C5010E9426338D2DC55BDF4F8F
:10272000CDBFDEBFDF91CF911F910F91FF90EF9052
:10273000DF90BF90AF9008950F931F93CF93DF93D7
:10274000CDB7DEB72A97CDBFDEBF8E010F5F1F4F1B
:1027500089E0F80111928A95E9F780E89AE1A6E00C
:10276000B0E089839A83AB83BC8383E290E0A0E0EE
:10277000B0E08D839E83AF83B88760E483E0ABD302
:10278000B80180E894E00E94820AE0E8F4E08181E8
:1027900088608183E6E5F2E28EEF92E1818792879D
:1027A0008EE493E18387948788EA92E18587968710
:1027B00088E28087CF0141D9882381F0282F082E15
:1027C000000C330B3F938F9387E391E29F938F939A
:1027D0000E9479330F900F900F900F9080E050DEA1
:1027E0008CE0C9DC182F1A86CE010A9689DC8A850E
:1027F0008C3099F0212F012E000C330B3F931F9347
:102800001F929CE09F931F928F938BE591E29F9381
:102810008F930E947933CDBFDEBF2A96CDBFDEBF36
:10282000DF91CF911F910F91089585E692E2D2DA60
:1028300081E792E2BBDD8EE792E263DB80E892E221
:10284000A0DB8DE792E222DB8FE792E2DECB0895F8
:1028500060917522709176228091772290917822F2
:1028600008956091792270917A2280917B229091D3
:102870007C2208956091712270917222809173225E
:1028800090917422089504C06150710981099109E1
:102890006115710581059105B9F70895E0E0F6E04D
:1028A000948188E0892784830895E0E0F6E08081C0
:1028B0008860808366E573E288E090E0E4DFEECF35
:1028C0000895FF920F931F93CF93DF9362E081E00F
:1028D00002D3C0E0D2E0FF24F394F882198280E1B1
:1028E0008A8385E08C8361E270E082E01FD3082F49
:1028F00010E0102F002760E270E082E017D3082B71
:102900000C871D87F8A280E389A3DF91CF911F91E7
:102910000F91FF900895E0E0F2E080A1806880A32D
:1029200083A18823E9F380912402909125020895E0
:10293000CF93DF93CDB7DEB72797CDBFDEBF60E281
:1029400084E0C9D2E0E6F6E0808180688083E6E03A
:10295000F0E284818D8385818E8386818F8380815F
:102960009181A281B38189839A83AB83BC8360E226
:1029700084E0B1D2BE016F5F7F4F80EB99E00E948F
:102980001C0C2796CDBFDEBFDF91CF91089504C008
:1029900061507109810991096115710581059105E0
:1029A000B9F70895E0E4F6E0948180E18927848313
:1029B0000895E0E4F6E0848180618483F3DF8EE1B2
:1029C000B9D060E87EE380E090E0E1DFEBDF6BEA26
:1029D00079E280E090E0DBCF0895CF93DF93C82FBA
:1029E000E1DF8C2FA7D097D0C82FD0E0DC2FCC27E9
:1029F00092D0C82BD7DFCE01DF91CF910895CF932E
:102A0000DF9300D01F92CDB7DEB719821A821B82E6
:102A10001C82C8DF88E48ED066E570ED80E090E02F
:102A2000B6DFC0DFBFDF80E085D075D090E0A0E0EA
:102A3000B0E0DC019927882789839A83AB83BC8324
:102A40006AD049815A816B817C81582B49835A8392
:102A50006B837C8360D049815A816B817C81482B58
:102A600049835A836B837C839DDF69817A818B8163
:102A70009C812496CDBFDEBFDF91CF910895CF9387
:102A8000DF9300D01F92CDB7DEB719821A821B8266
:102A90001C8288DF88E54ED066E570ED80E090E02E
:102AA00076DF80DF7FDF80E045D035D090E0A0E0AA
:102AB000B0E0DC019927882789839A83AB83BC83A4
:102AC0002AD049815A816B817C81582B49835A8352
:102AD0006B837C8320D049815A816B817C81482B18
:102AE00049835A836B837C835DDF69817A818B8123
:102AF0009C812496CDBFDEBFDF91CF910895E0E4A5
:102B0000F6E08081806B808368E083E0E4D180E53B
:102B10008093C00808959FB7F8948FEF8093C308FF
:102B2000E0ECF8E082818823ECF778949FBF8091F5
:102B3000C30808959FB7F8948093C308E0ECF8E0C9
:102B400082818823ECF778949FBF0895CF93DF9319
:102B5000EB010E94030B8883DF91CF9108950C94C1
:102B6000FB0A0895CF93DF93CDB7DEB72797CDBF8C
:102B7000DEBF60E185E0AFD1E0E8F6E0808188600B
:102B8000808380EA9AE080935222909353228FEAC6
:102B900095E1809350229093512286EA95E18093AB
:102BA0004E2290934F22EDE0F0E284818D83858167
:102BB0008E8386818F8380819181A281B381898375
:102BC0009A83AB83BC8360E185E085D1BE016F5FF2
:102BD0007F4F80EA9AE00E941C0C6FE771E088E961
:102BE00091E00E942F332796CDBFDEBFDF91CF91BA
:102BF0000895FF920F931F93CF93DF9362E081E0DC
:102C00006AD1C0E0D2E0FF24F394F882198280E117
:102C10008A8385E08C8361E270E082E087D1082FAF
:102C200010E0102F002760E270E082E07FD1082BD7
:102C30000C871D87F8A688E389A7DF91CF911F91A4
:102C40000F91FF900895E0E0F2E080A5806880A7F2
:102C500083A58823E9F380912C0290912D02089599
:102C6000CF93DF93FC0141155105B1F180E090E075
:102C700020E0880F991FDB01A80FB91F8D919C914F
:102C8000A281B381AA0FBB1FC681D781AC0FBD1F24
:102C90008D939C9382819381019682839383A081FB
:102CA000B1818A179B0711F412821382828193816A
:102CB000C481D5818C179D0749F40196A817B907DF
:102CC00019F08483958302C0148215822F5F822FAE
:102CD00090E08417950768F2DF91CF910895FC0189
:102CE0001282138214821582668377834083518314
:102CF0000895DC011296ED91FC911397CB0101969A
:102D0000E817F90778F0E150F048E61BF70BEE0FF3
:102D1000FF1F16968D919C911797E80FF91F8081E0
:102D2000918108952D913C911197E20FF31FE1508D
:102D3000F048E61BF70BEE0FFF1F16968D919C9146
:102D40001797E80FF91F808191810895CF92DF9244
:102D5000EF92FF92CF93DF93FC014115510509F4E7
:102D60003FC080E090E020E0880F991F880F991FF6
:102D7000DB01A80FB91FCD90DD90ED90FC90A281F2
:102D8000B381AA0FBB1FAA0FBB1F86819781A80F13
:102D9000B91FCD92DD92ED92FC92139782819381BF
:102DA000019682839383A081B1818A179B0711F4D6
:102DB0001282138282819381C481D5818C179D07F1
:102DC00049F40196A817B90719F08483958302C0C6
:102DD000148215822F5F822F90E08417950720F2CE
:102DE000DF91CF91FF90EF90DF90CF900895FC019D
:102DF0001282138214821582668377834083518303
:102E00000895DC011296ED91FC911397CB01019688
:102E1000E817F90798F0E150F04CE61BF70BEE0FBE
:102E2000FF1FEE0FFF1F16968D919C911797E80FCD
:102E3000F91F608171818281938108952D913C9168
:102E40001197E20FF31FE150F04CE61BF70BEE0F6A
:102E5000FF1FEE0FFF1F16968D919C911797E80F9D
:102E6000F91F60817181828193810895CF93DF93EF
:102E70001F921F92CDB7DEB78FEF809370008093C3
:102E8000710080937200809373008093740080932C
:102E90007500809376008FB78A83F8949A81E0E575
:102EA000F0E08081826080839FBF818181FFFDCFC0
:102EB00061E080E490E044D08FB78983F8949981F1
:102EC000E0E5F0E080818E7F80839FBF0F900F90C0
:102ED000DF91CF910895CF93DF931F92CDB7DEB7E7
:102EE0009FB79983F8949981E82FF0E0E059FF4F5C
:102EF00060958081682360839FBF0F90DF91CF91A1
:102F00000895CF93DF931F92CDB7DEB79FB7998314
:102F1000F8949981E82FF0E0E059FF4F8081682B09
:102F200060839FBF0F90DF91CF9108954091CA01B8
:102F3000E62FF72F8093CA0184914093CA01089528
:102F40001BBEFC0128ED24BF6083089504C06150BE
:102F50007109810991096115710581059105B9F71B
:102F600008958091302290913122019680933022F1
:102F7000909331220895CF93DF931BDD82EA90E096
:102F80002CDDC7E3D2E28883998384EA90E025DDD3
:102F90008A839B8386EA90E020DD8C839D8388EA88
:102FA00090E01BDD8E839F838AEA90E016DD8887A0
:102FB00099878CEA90E011DD8A879B87DF91CF911A
:102FC0000895B6DC6BEA79E280E090E0BFDF80E351
:102FD0008093B309089560E483E07DDF60E483E0DB
:102FE0007ADFAADB22DC34DC609332227093332256
:102FF000809334229093352234DC609321207093A7
:10300000222080932320909324200895CF93DF9350
:10301000C0E9D2E284E0FE01982F11929A95E9F777
:103020008883809143228A838FE28983E0E8F3E0FA
:1030300080818860808361EB77E180E893E00E9483
:1030400013038881982F906C98839B81292F20737C
:1030500029F09C7F92609093932204C08F70806EC1
:103060008093902240E952E260E080E893E00E9481
:10307000740260E080E893E00E94CB02DF91CF9180
:103080000895809143228093850308954F925F9223
:103090006F927F928F929F92AF92BF92CF92DF9268
:1030A000EF92FF92CF93DF93AADC6B017C01E7DC08
:1030B0000E94DE2E4B015C01C7E3D2E26885798570
:1030C00080E090E00E94DE2E20E030E040E853E413
:1030D0000E9427309B01AC01C501B4010E94A22DC2
:1030E0004B015C016C817D8180E090E00E94DE2ECE
:1030F000A50194010E94273020E030E040E05CE32D
:103100000E9427302B013C016881798180E090E0AA
:103110000E94DE2E20E030E040E857E40E94273095
:103120009B01AC01C301B2010E94A32D2B013C0104
:10313000C701B6010E94DE2E9B01AC01C301B201A2
:103140000E94273020E030E040E055E30E94273025
:103150006B017C016E817F8180E090E00E94DE2E19
:10316000A50194010E94273020E030E040E85CE3B4
:103170000E9427304B015C016A817B8180E090E0F6
:103180000E94DE2E20E030E040E058E40E9427302C
:103190009B01AC01C501B4010E94A32D9B01AC01B0
:1031A000C701B6010E94A22D20E030E040E058E3C4
:1031B0000E942730DF91CF91FF90EF90DF90CF906A
:1031C000BF90AF909F908F907F906F905F904F9047
:1031D00008954F925F926F927F928F929F92AF92DB
:1031E000BF92CF92DF92EF92FF92CF93DF931F9225
:1031F0001F92CDB7DEB78FDB89839A8369817A818D
:1032000080E090E00E94DE2E2091192030911A205B
:1032100040911B2050911C200E94273020911520A6
:103220003091162040911720509118200E94A32D14
:103230006B017C019B01AC0163E373E383E590E4E4
:103240000E94A22D20E030EC46E455E40E94273095
:10325000A70196010E940B2E20E030E44CE156E4D9
:103260000E940B2E0E94E72F6B017C0120E030E0D2
:1032700040E450E40E948A304B015C0121EF3BEBBB
:1032800046E859E3C701B6010E9427302DE03FEC24
:103290004BE55BE30E94A32D2B013C01A7019601A6
:1032A000C701B6010E94273022E835ED4FE256E310
:1032B0000E9427309B01AC01C301B2010E94A32DE3
:1032C0006B017C012AE633E149E853E3C501B4010F
:1032D0000E9427309B01AC01C701B6010E94A32DBB
:1032E0009B01AC0160E070E080E89FE30E940B2E40
:1032F0000F900F90DF91CF91FF90EF90DF90CF90E4
:10330000BF90AF909F908F907F906F905F904F9005
:1033100008954F925F926F927F928F929F92AF9299
:10332000BF92CF92DF92EF92FF922B013C01C090AF
:103330002D20D0902E20E0902F20F0903020209152
:103340003120309132204091332050913420C701F8
:10335000B6010E9427302091292030912A204091E7
:103360002B2050912C200E940B2E4B015C01A301BD
:1033700092016091392070913A2080913B20909188
:103380003C200E940B2EA50194010E948A3020E06F
:1033900030E040E85FE30E94A22D2091352030917B
:1033A000362040913720509138200E942730A701C5
:1033B00096010E940B2EFF90EF90DF90CF90BF9070
:1033C000AF909F908F907F906F905F904F900895F7
:1033D000CF92DF92EF92FF9236DCBC0180E090E06A
:1033E0000E94DE2E2091192030911A2040911B203E
:1033F00050911C200E9427302091152030911620DA
:1034000040911720509118200E94A32D6B017C0140
:1034100020E030E447EE56E40E94273020E030EF11
:1034200043E456E40E940B2E9B01AC01C701B60198
:103430000E94A32DFF90EF90DF90CF9008952F92E0
:103440003F924F925F926F927F928F929F92AF9234
:10345000BF92CF92DF92EF92FF920F931F93CF9381
:10346000DF9300D000D0CDB7DEB76C01809114207F
:10347000882309F46CC000E010E0412C512C32018B
:10348000862E912CA12CB12C89829A82AB82BC828F
:10349000B801C6012EDC5C0118012FEF221A320A96
:1034A000B101C60126DC7C01B8016E5F7F4FC60109
:1034B00020DCA501BB0C660B770B8A019B01000F7A
:1034C000111F221F331F400F511F621F731F8701DF
:1034D000FF0C220B330B78018901EE0CFF1C001F3F
:1034E000111FEE0CFF1C001F111F4A015B018E18FB
:1034F0009F08A00AB10AAC01990F660B770BD501A2
:10350000C401840F951FA61FB71F9C01AD016981DF
:103510007A818B819C810E94AA310E94E02E20E05A
:1035200030E040E05FE30E9427309B01AC01C30123
:10353000B2010E94A32D2B013C0180911420810136
:10354000282F30E02216330608F4A2CF03C0412C06
:10355000512C3201682F70E080E090E00E94E02E54
:103560009B01AC01C301B2010E940B2E20E030E0B0
:1035700048EC52E40E940B2E2696CDBFDEBFDF91B1
:10358000CF911F910F91FF90EF90DF90CF90BF9060
:10359000AF909F908F907F906F905F904F903F90F3
:1035A0002F9008953F924F925F926F927F928F92E9
:1035B0009F92AF92BF92CF92DF92EF92FF920F93C2
:1035C0001F93CF93DF9300D000D0CDB7DEB78C012F
:1035D00019821A82C12CD12C760169817A81C801A5
:1035E00010DC4B015C0121E6821A2EEA920A2AE0E5
:1035F000A20AB1082FE782162AE1920626E0A20667
:10360000B10480F40E94E02E20E030E040EA50E473
:103610000E940B2E9B01AC01C701B6010E94A32D95
:103620006B017C0189819A81019689839A83059730
:10363000A1F619821A82812C912C540169817A8118
:10364000C801DFDB2B013C0121E6421A2EEA520AB7
:103650002AE0620A71082FE742162AE1520626E0A4
:103660006206710490F40E94E02EA70196010E9468
:10367000A22D9B01AC010E9427309B01AC01C5012A
:10368000B4010E94A32D4B015C0189819A810196AE
:1036900089839A83059791F620E030E040E85EE365
:1036A000C501B4010E94273069837A838B839C8390
:1036B0001D821E82312C412C512C32016D817E8164
:1036C000C8019FDB4B015C0121E6821A2EEA920AB7
:1036D0002AE0A20AB1082FE782162AE1920626E024
:1036E000A206B10450F50E94E02E4B015C01A70137
:1036F00096010E94A22D0E94AD2E9B01772324F4F7
:1037000022273327261B370BB901330F880B990B60
:103710000E94E02E9B01AC0169817A818B819C81A2
:103720000E94DE2F88234CF0A5019401C301B20151
:103730000E94A32D2B013C0133948D819E81019623
:103740008D839E83059709F0B9CF332069F0632DEF
:1037500070E080E090E00E94DE2E9B01AC01C3018E
:10376000B2010E940B2E04C060E070E080E89FEB85
:103770002696CDBFDEBFDF91CF911F910F91FF90B5
:10378000EF90DF90CF90BF90AF909F908F907F9001
:103790006F905F904F903F900895AF92BF92CF92FD
:1037A000DF92EF92FF920F931F93CF93DF9300D09E
:1037B00000D0CDB7DEB75C018B0168DC20E030E0E3
:1037C00040E251E40E9427300E94AD2E69837A8343
:1037D0008B839C8341E050E0BE016F5F7F4FC80147
:1037E000B5DAC801DFDE20E030E040E251E40E94BB
:1037F0000B2E6B017C0120E030E040E85FEB0E9483
:10380000072E8823D1F1C0922022D0922122E0926B
:103810002222F0922322C701B6017BDD6093182299
:103820007093192280931A2290931B226091182280
:103830007091192280911A2290911B2220E030E091
:1038400048EC52E40E9427300E94AD2E6D837E83A7
:1038500041E050E0BE016B5F7F4FC50101DA60912E
:103860001F2070912020C501EADD60931022709323
:10387000112280931222909313222696CDBFDEBF91
:10388000DF91CF911F910F91FF90EF90DF90CF903C
:10389000BF90AF9008954F925F926F927F928F92F8
:1038A0009F92AF92BF92CF92DF92EF92FF92CF930F
:1038B000DF9300D000D0CDB7DEB70E9415140E9470
:1038C0002814209132223091332240913422509199
:1038D00035220E94A22D6B017C010E94311420919F
:1038E00021203091222040912320509124200E94B9
:1038F000A22D4B015C010E943A142B013C01C7012F
:10390000B6010E94AD2E6D837E83772334F4222787
:103910003327261B370B2D833E838D819E81853B6C
:10392000910524F120E030E044EB53E4C701B601F7
:103930000E94273069837A838B839C832D813E810B
:10394000B901330F880B990B0E94E02E9B01AC014B
:1039500069817A818B819C810E940B2E9B01AC0135
:10396000C701B6010E94A22D6B017C01C501B40103
:103970000E94AD2E6D837E83772334F42227332774
:10398000261B370B2D833E838D819E818B359105C0
:1039900024F120E030E044E353E4C501B4010E9487
:1039A000273069837A838B839C832D813E81B90183
:1039B000330F880B990B0E94E02E9B01AC016981AB
:1039C0007A818B819C810E940B2E9B01AC01C501E9
:1039D000B4010E94A22D4B015C01C701B6010E94F7
:1039E000AD2E6D547F4F6736714008F5C501B401A7
:1039F0000E94AD2E675A7F4F633B7105C0F4C092A1
:103A0000F621D092F721E092F821F092F9218092EC
:103A1000FA219092FB21A092FC21B092FD214092CC
:103A2000EE215092EF216092F0217092F1212696C2
:103A3000CDBFDEBFDF91CF91FF90EF90DF90CF90B1
:103A4000BF90AF909F908F907F906F905F904F90BE
:103A500008954F925F926F927F92AF92BF92CF92F2
:103A6000DF92EF92FF920F931F93CF93DF931F92FA
:103A70001F92CDB7DEB75C016091EE217091EF210E
:103A80008091F0219091F1212091252030912620E4
:103A900040912720509128200E94A22D6B017C018B
:103AA0000E94AD2E8B01772324F400271127061BDB
:103AB000170B053B1105F4F020E030E044EB53E434
:103AC000C701B6010E9427302B013C01B801110F3C
:103AD000880B990B0E94E02E9B01AC01C301B2013F
:103AE0000E940B2E9B01AC01C701B6010E94A22DC2
:103AF0006B017C0120E030E048EC52E4C701B601E4
:103B00000E9427300E94AD2E69837A8341E050E005
:103B1000BE016F5F7F4FC501A3D80F900F90DF915B
:103B2000CF911F910F91FF90EF90DF90CF90BF90BA
:103B3000AF907F906F905F904F9008958091472253
:103B4000813081F138F0823009F457C0833009F4B4
:103B5000AEC07DC06091102270911122809112221E
:103B60009091132220E030E040EA50E40E94072EBA
:103B700088230CF09CC060911822709119228091CA
:103B80001A2290911B2220E030E041EE53E40E9483
:103B9000DE2F18160CF08BC0809147228F5F809328
:103BA0004722089560911022709111228091122273
:103BB0009091132220E030E040EA50E40E94072E6A
:103BC000882384F4609118227091192280911A221E
:103BD00090911B2220E030E041EE53E40E94072E3A
:103BE00088232CF080914622882309F460C08091BC
:103BF00047228F5F80934722089560911022709131
:103C0000112280911222909113220E94AD2E9B01CD
:103C1000772324F422273327261B370B2530310541
:103C200084F0609118227091192280911A2290914B
:103C30001B2220E030E040E251E40E94072E88235E
:103C4000B4F5809147228F5F809347220895809139
:103C500046228823B9F082E080934722609118229F
:103C60007091192280911A2290911B2220E030E05D
:103C700040E251E40E94072E8823CCF483E0809335
:103C800047220895109247226091102270911122CC
:103C9000809112229091132220E030E040EA50E41B
:103CA0000E94072E88231CF481E080934722089508
:103CB00061E084E010D964E084E00DD9E0E6F6E04C
:103CC000808187608083E0E0F9E085E0808383E2A3
:103CD000818380E197E286A397A386A197A1885567
:103CE000924084A795A70895E0E0F6E08081846083
:103CF0008083848184608483E0E0F9E08181806551
:103D0000818386A197A18B51934080A791A780A51D
:103D100091A582A793A708954F925F926F927F9289
:103D20008F929F92AF92BF92CF92DF92EF92FF92CB
:103D30000F931F93CF93DF937C01C0E0D0E000E0AE
:103D400010E0BE01C7010E947916080F191F2196C5
:103D5000CA30D105B1F760E070E0C7010E94791662
:103D60006C0160911F2070912020C70168DB4B011E
:103D70005C010F2EE12CF9E0FF2EF02DF701C6A11A
:103D8000D7A1AD97B601DD0C880B990B0E94E02EF0
:103D900020E030E040E45FE30E94273020E030E0A4
:103DA00048EC52E40E940B2E2B013C01B801110F8C
:103DB000880B990B0E94E02E2DEC3CEC4CEC5DE363
:103DC0000E94273020E030E048EC52E40E940B2EA5
:103DD0009B01AC01C301B2010E94A32D2B013C0148
:103DE00020E030E040E85EEBC501B4010E942730DE
:103DF0009B01AC01C301B2010E94A32D20E030E879
:103E00004BE354E40E94A32D0E94B22EC61BD70B95
:103E1000F701C0A7D1A780A591A582A793A7DF919D
:103E2000CF911F910F91FF90EF90DF90CF90BF90B7
:103E3000AF909F908F907F906F905F904F9008957C
:103E400061E085E048D8E0E0FAE087E0808381E146
:103E50009AE786A397A381E08683089562E084E0D1
:103E60003AD864E084E037D8E0E6F6E0808180610B
:103E70008083E0E4F9E085E0808383E1818388EB5F
:103E800090E086A397A38CE590E080A791A7089582
:103E9000CF92DF92EF92FF92809130229091312267
:103EA000C090F221D090F321E090F421F090F52120
:103EB0002CE3289FB001299F700D112480E090E031
:103EC0000E94DE2EA70196010E94A32D20E030E083
:103ED00040E05FE30E9427306093F2217093F3216A
:103EE0008093F4219093F521109230221092312288
:103EF000FF90EF90DF90CF90089560911422709121
:103F00001522809116229091172222E03DED49ED75
:103F10005EE30E94273027E43EED4CEC5DE30E9417
:103F2000A22D20E030E040E852E40E94273023E355
:103F300033E343E550E40E940B2E20E030E040E8FC
:103F40005FE30E94A22D0E94B22E6093432299C883
:103F500008958091202290912122A0912222B09157
:103F600023228093392090933A20A0933B20B09352
:103F70003C202FD9609335207093362080933720D2
:103F80009093382008950E942814609332227093F1
:103F9000332280933422909335220E94311460930F
:103FA00021207093222080932320909324200E942C
:103FB0003A146093252070932620809327209093B5
:103FC00028200895C6DFDFCF0895E0E0F9E086A15C
:103FD00097A1885E934084A795A781E080934622AD
:103FE0000895E0E0F9E086A197A18855924084A762
:103FF00095A71092462208952F923F924F925F927A
:104000006F927F928F929F92AF92BF92CF92DF92E8
:10401000EF92FF920F931F93CF93DF93CDB7DEB74D
:10402000E997CDBFDEBF8091242290912522019691
:1040300080932422909325226091EE217091EF21AC
:104040008091F0219091F121209147222983409085
:10405000F2215090F3216090F4217090F52180902E
:10406000F6219090F721A090F821B090F921C0900E
:10407000FA21D090FB21E090FC21F090FD214091AD
:10408000FE215091FF2148AF59AF2091002230917D
:10409000012240910222509103222A833B834C83C8
:1040A0005D832091002230910122409102225091A3
:1040B00003222E833F834887598720910422309121
:1040C000052240910622509107222A873B874C8780
:1040D0005D87209104223091052240910622509163
:1040E00007222E873F87488B598B209108223091D9
:1040F000092240910A2250910B222A8B3B8B4C8B38
:104100005D8B209108223091092240910A22509122
:104110000B222E8B3F8B488F598F20910C22309190
:104120000D2240910E2250910F222A8F3B8F4C8FEF
:104130005D8F20910C2230910D2240910E225091E2
:104140000F222E8F3F8F48A359A320910C2230912C
:104150000D2240910E2250910F222AA33BA34CA383
:104160005DA3209114223091152240911622509186
:1041700017222EA33FA348A759A720911C223091B4
:104180001D2240911E2250911F222AA73BA74CA717
:104190005DA720912022309121224091222250912E
:1041A00023222EA73FA748AB59AB2091182230916C
:1041B000192240911A2250911B222AAB3BAB4CABE7
:1041C0005DAB00912422109125222090282230906E
:1041D000292240912822509129224EAB5FAB0E94A8
:1041E000AD2E7F936F931F9259815F93C301B201EC
:1041F0000E94AD2E7F936F93C501B4010E94AD2E36
:104200007F936F93C701B6010E94AD2E7F936F938A
:1042100089AD8F9398AD9F936A817B818C819D81BD
:104220000E94AD2E9B01220F331F660F771F660F72
:10423000771F660F771FC901860F971F6AE070E02E
:104240000E94CD319F938F936E817F818885998560
:104250000E94AD2E7F936F9320E034E244E759E44F
:104260006A857B858C859D850E9427300E94AD2EB6
:1042700020E432E44FE050E00E9402329B017723B9
:1042800024F422273327261B370BC901330FAA0B2F
:10429000BB0BBF93AF939F938F936E857F85888968
:1042A00099890E94AD2E7F936F9320E034E244E71A
:1042B00059E46A897B898C899D890E9427300E94F4
:1042C000AD2E20E432E44FE050E00E9402329F9392
:1042D0008F937F936F936E897F89888D998D0E94CC
:1042E000AD2E7F936F936A8D7B8D8C8D9D8D0E94FB
:1042F000AD2E0F2EF4E6CF2ED12CE12CF12CF02D8B
:10430000A70196010E9402327F936F936E8D7F8D7D
:1043100088A199A10E94AD2E0F2EF0E18F2EF7E219
:104320009F2EA12CB12CF02DA50194010E940232E8
:10433000A70196010E9402323F932F936AA17BA1AD
:104340008CA19DA10E94AD2EA50194010E94023274
:104350003F932F936EA17FA188A599A50E94AD2EB2
:104360007F936F9323E333E948E853E46AA57BA581
:104370008CA59DA50E94A22D0E94AD2E7F936F93C8
:104380006EA57FA588A999A90E94AD2E9F938F93B2
:104390007F936F936AA97BA98CA99DA90E94AD2EDA
:1043A0007F936F931F930F939101ADECBCEC0E9430
:1043B00027329695879596958795969587959C0132
:1043C000220F331F880F991F880F991F880F991F7D
:1043D000820F931F281A390A3F922F922EA93FA9C4
:1043E0000E942732969587959695879596958795FD
:1043F0009F938F9380911E208F9380911D208F9388
:1044000029E932E23F932F930E948C33CDBFDEBF68
:1044100029E932E23F932F930E9479330F900F9056
:10442000E996CDBFDEBFDF91CF911F910F91FF9035
:10443000EF90DF90CF90BF90AF909F908F907F9044
:104440006F905F904F903F902F9008954F925F92A2
:104450006F927F928F929F92AF92BF92CF92DF9294
:10446000EF92FF920F931F93CF93DF93CDB7DEB7F9
:10447000A097CDBFDEBFA9E3B0E2FC9111965C909E
:10448000119712966C90129713967C90139714962E
:104490008C90149715969C9015971696AC9016973D
:1044A00017964C90A5E3B0E2EC911196BC90119751
:1044B0001296CC9012971396DC9013971496EC906A
:1044C00014971596FC90159716961C9116971796AB
:1044D000AC91F9832F2F352D462D572D682D792D31
:1044E0008A2D942D08E00E940A332A832F2F352D20
:1044F000462D572D682D792D8A2D942D00E10E948F
:104500000A332B832F2F352D462D572D682D792DCE
:104510008A2D942D08E10E940A332C832F2F352DEC
:10452000462D572D682D792D8A2D942D00E20E945D
:104530000A332D832F2F352D462D572D682D792D9C
:104540008A2D942D08E20E940A332E832F2F352DB9
:10455000462D572D682D792D8A2D942D00E30E942C
:104560000A332F832F2F352D462D572D682D792D6A
:104570008A2D942D08E30E940A332887E9872E2F7D
:104580003B2D4C2D5D2D6E2D7F2D812F9A2F08E018
:104590000E940A332A872E2F3B2D4C2D5D2D6E2D28
:1045A0007F2D812F9A2F00E10E940A332B872E2F17
:1045B0003B2D4C2D5D2D6E2D7F2D812F9A2F08E1E7
:1045C0000E940A332C872E2F3B2D4C2D5D2D6E2DF6
:1045D0007F2D812F9A2F00E20E940A332D872E2FE4
:1045E0003B2D4C2D5D2D6E2D7F2D812F9A2F08E2B6
:1045F0000E940A332E872E2F3B2D4C2D5D2D6E2DC4
:104600007F2D812F9A2F00E30E940A332F872E2FB0
:104610003B2D4C2D5D2D6E2D7F2D812F9A2F08E384
:104620000E940A33288B80E1EDE3F0E2DE0151962F
:1046300001900D928A95E1F783E38093CA01FE0110
:104640007196CE010196AE014F5D5F4F60EC71E057
:104650002191DB012C93DC012D91CD01DB0114961E
:104660002C93E417F507A1F7E0ECF1E085E38287EE
:10467000108280E1818388ED84BF81E08387878514
:104680008823ECF3A096CDBFDEBFDF91CF911F91C1
:104690000F91FF90EF90DF90CF90BF90AF909F90E1
:1046A0008F907F906F905F904F900895EF92FF9260
:1046B0000F931F93CF93DF93CDB7DEB7A497CDBFF2
:1046C000DEBF609118227091192280911A22909178
:1046D0001B220E94AD2E162F072F60911022709181
:1046E000112280911222909113220E94AD2EE62F6A
:1046F000F72F40912822509129229A01369527952B
:1047000036952795ABE7B4E10E94273296958795B9
:1047100064E6689F9001699F300D1124421B530B82
:1047200040932A22E0902422F0902522A091242276
:10473000B09125226091282270912922409128224F
:104740005091292230912A2220912A2290914722A9
:104750008091462209831A83FB82AC837D834E833A
:10476000FF83E88739872A879B878C878CE0FE0147
:104770003196DE011D9601900D928A95E1F78CE04D
:10478000EDE4F0E2DE01599601900D928A95E1F791
:1047900083E38093CA0180E090E0E0ECF1E0A9E1DE
:1047A000B0E0AC0FBD1FA80FB91F2C912083ADE066
:1047B000B0E0AC0FBD1FA80FB91F2C912483019648
:1047C0008C30910561F7E0ECF1E085E3828710829F
:1047D00080E1818388ED84BF81E08387878588239A
:1047E000ECF3A496CDBFDEBFDF91CF911F910F9167
:1047F000FF90EF9008952F923F924F925F926F92A9
:104800007F928F929F92AF92BF92CF92DF92EF9260
:10481000FF920F931F93CF93DF93CDB7DEB7C354AF
:10482000D109CDBFDEBF809124229091252201962F
:1048300080932422909325226091EE217091EF21A4
:104840008091F0219091F12120914722298340907D
:10485000F2215090F3216090F4217090F521809026
:10486000F6219090F721A090F821B090F921C09006
:10487000FA21D090FB21E090FC21F090FD214091A5
:10488000FE215091FF2124964EAF5FAF24972091D7
:1048900000223091012240910222509103222A836A
:1048A0003B834C835D832091002230910122409113
:1048B0000222509103222E833F83488759872091FB
:1048C00004223091052240910622509107222A8726
:1048D0003B874C875D8720910422309105224091CF
:1048E0000622509107222E873F87488B598B2091B3
:1048F00008223091092240910A2250910B222A8BE2
:104900003B8B4C8B5D8B209108223091092240918A
:104910000A2250910B222E8B3F8B488F598F20916A
:104920000C2230910D2240910E2250910F222A8F9D
:104930003B8F4C8F5D8F20910C2230910D22409146
:104940000E2250910F222E8F3F8F48A359A3209102
:104950000C2230910D2240910E2250910F222AA359
:104960003BA34CA35DA320911422309115224091CA
:104970001622509117222EA33FA348A759A7209192
:1049800014223091152240911622509117222AA705
:104990003BA74CA75DA720911C2230911D2240917E
:1049A0001E2250911F222EA73FA748AB59AB209142
:1049B0001C2230911D2240911E2250911F222AABB1
:1049C0003BAB4CAB5DAB209120223091212240913A
:1049D0002222509123222EAB3FAB48AF59AF2091FA
:1049E00018223091192240911A2250911B222AAF8D
:1049F0003BAF4CAF5DAF209118223091192240910E
:104A00001A2250911B2222962CAF3DAF4EAF5FAFC2
:104A10002297209024223090252200912822109164
:104A200029220E94AD2E7F936F931F9239813F936D
:104A3000C301B2010E94AD2E7F936F93C501B401F3
:104A40000E94AD2E7F936F93C701B6010E94AD2ED9
:104A50007F936F9324964FAD24974F9323965FAD2A
:104A600023975F936A817B818C819D810E94AD2E0B
:104A70009B01220F331F660F771F660F771F660F8C
:104A8000771FC901860F971F6AE070E00E94CD3141
:104A90009F938F936E817F81888599850E94AD2E2B
:104AA0007F936F9320E034E244E759E46A857B8585
:104AB0008C859D850E9427300E94AD2E20E432E433
:104AC0004FE050E00E9402329B01772324F422271A
:104AD0003327261B370BC901330FAA0BBB0BBF9320
:104AE000AF939F938F936E857F85888999890E9464
:104AF000AD2E7F936F9320E034E244E759E46A8956
:104B00007B898C899D890E9427300E94AD2E20E4EC
:104B100032E44FE050E00E9402329F938F937F93E4
:104B20006F936E897F89888D998D0E94AD2E7F93BA
:104B30006F936A8D7B8D8C8D9D8D0E94AD2E0F2E77
:104B4000F4E6CF2ED12CE12CF12CF02DA70196010B
:104B50000E9402327F936F936E8D7F8D88A199A101
:104B60000E94AD2E0F2EF0E18F2EF7E29F2EA12C8A
:104B7000B12CF02DA50194010E940232A7019601EB
:104B80000E9402323F932F936AA17BA18CA19DA129
:104B90000E94AD2EA50194010E9402323F932F93F3
:104BA00020E030E040E251E46EA17FA188A599A504
:104BB0000E9427300E94AD2ECB016AE070E00E9477
:104BC000CD319F938F936AA57BA58CA59DA50E944F
:104BD000AD2E7F936F9320E030E040E251E46EA56C
:104BE0007FA588A999A90E94273020E038EB4AE2E6
:104BF00055E4A8D70E94AD2ECB016AE070E00E9478
:104C0000CD319F938F9323E333E948E853E46AA9B6
:104C10007BA98CA99DA996D70E94AD2E7F936F93F7
:104C20006EA97FA988AD99AD0E94AD2E9F938F93F9
:104C30007F936F9320E030E040E251E46AAD7BADBA
:104C40008CAD9DAD0E9427300E94AD2E9B01772335
:104C500024F422273327261B370BC9016AE070E0B2
:104C60000E94CD319F938F9322966CAD7DAD8EAD1A
:104C70009FAD22970E94AD2E7F936F933F922F920C
:104C80001F930F9380911E208F9380911D208F93EF
:104C900089E992E29F938F930E948C33CDBFDEBF50
:104CA00089E992E29F938F930E947933FFDC1092FF
:104CB00045220F900F90CD5BDF4FCDBFDEBFDF9160
:104CC000CF911F910F91FF90EF90DF90CF90BF9009
:104CD000AF909F908F907F906F905F904F903F909C
:104CE0002F900895CF93DF93C0ECD1E026E02A8780
:104CF0008883998388ED84BF81E08B8766ED74E1BA
:104D000080E090E00E94A6178C81DF91CF910895FA
:104D10002F923F924F925F926F927F928F929F92CB
:104D2000AF92BF92CF92DF92EF92FF920F931F93B9
:104D3000CF93DF93CDB7DEB72597CDBFDEBF0E94FF
:104D400036176BEA79E280E090E00E94A61778942B
:104D50008CEB8093400687E08093A2000E9455145C
:104D60000E94B2156BEA70EB88E290E00E94A617F1
:104D700080E28093A30A0E94E1170E9406180E9415
:104D800061140E94F9150E947F150E94BB170E94B2
:104D9000EB1756D80E94581E0E94741E82E090E1C4
:104DA000A1DF89838FE190E19DDF29812813E0C194
:104DB0002F3F09F4DDC180E190E194DF89838FE02A
:104DC00090E190DFF82F298130E040E050E060E092
:104DD00070E080E090E008E30E94EF322983932E98
:104DE000A42EE52E6A83E72FF82E192F2F2F30E0FF
:104DF00040E050E060E070E080E090E000E30E947E
:104E0000EF32F981F22BF983932AA42AE52A2A8129
:104E1000262B2A83DE2ED72AF82A192B8EE090E142
:104E200061DF082F8DE090E15DDF482E8CE090E19E
:104E300059DF582E8BE090E155DF682E8AE090E133
:104E400051DF782E89E090E14DDF882E202F30E071
:104E500040E050E060E070E080E090E008E20E9416
:104E6000EF32E981E829E22BE983932AA42AE52A93
:104E7000FA81F62BFA83E72FED29F82A192B242D36
:104E800030E040E050E060E070E080E090E000E280
:104E90000E94EF32F981F22BF983932AA42AE52AA2
:104EA000FA81F62BFA83E72BF82A192B252D30E00F
:104EB00040E050E060E070E080E090E008E10E94B7
:104EC000EF32F981F22BF983932AA42AE52AFA8199
:104ED000F62BFA83E72BF82A192B262D30E040E039
:104EE00050E060E070E080E090E000E10E94EF328E
:104EF000F981F22BF983932AA42AE52AFA81F62B69
:104F0000E72BF82A192B272D30E040E050E060E035
:104F100070E080E090E008E00E94EF328980822A11
:104F2000932AA42ABE2CB52ACF2EC62ADE2ED72A33
:104F3000F82A192B89E190E1D5DE898388E190E197
:104F4000D1DEE82E298130E040E050E060E070E002
:104F500080E090E008E30E94EF32B22F332E242E3F
:104F6000A52FF62FE72F8A8399832E2D30E040E07E
:104F700050E060E070E080E090E000E30E94EF32FB
:104F8000EB2EE22A332A242A5A2E552A6F2E662A1D
:104F90007E2E772A2A81282B2D838981892B8C8349
:104FA00087E190E19FDE082F86E190E19BDE482EAD
:104FB00085E190E197DE898384E190E193DE8A8345
:104FC00083E190E18FDE8B8382E190E18BDEA82F7D
:104FD000E9E3F0E280829182A282B382C482D58228
:104FE000F6821783E5E3F0E2202F30E040E050E066
:104FF00060E070E080E090E008E20E94EF32EA2A90
:10500000E22A332A242AF52EF528162F1629B72F3F
:10501000B7292D81282B2D838C81892B8C83242DDE
:1050200030E040E050E060E070E080E090E000E2DE
:105030000E94EF32E22A332A242AF52A162BB72BB4
:105040002D81282B2D838C81892B8C83298130E025
:1050500040E050E060E070E080E090E008E10E9415
:10506000EF32E22A332A242AF52A162BB72B2D8178
:10507000282B2D838C81892B89832A8130E040E085
:1050800050E060E070E080E090E000E10E94EF32EC
:10509000E22A332A242AF52A162BB72B2D81282B16
:1050A0002A838981892B89832B8130E040E050E07D
:1050B00060E070E080E090E008E00E94EF322E298E
:1050C000208333293183422942835F295383612B13
:1050D00064837B2B75832A81822B86838981982B1D
:1050E000978381E090E1FEDD898380E090E1FADD45
:1050F0009981692F70E0762F6627682B072E000CA8
:10510000880B990B5DD660931822709319228093B7
:105110001A2290931B2287E090E1E4DD898386E0E8
:1051200090E1E0DDE9812E2F30E0322F2227282B7D
:10513000209328223093292284E090E1D3DD8983D3
:1051400083E090E1CFDDF9812F2F30E0322F22274D
:10515000282B209324223093252285E090E1C2DD84
:105160008093472288E090E1BDDD8093462217C0FE
:105170000E9446186093392070933A2080933B2018
:1051800090933C200E94E91860933520709336205C
:1051900080933720909338201092472257D90E944D
:1051A000E91860931C2270931D2280931E22909315
:1051B0001F220E94E8196093142270931522809395
:1051C0001622909317220E947D1F0E949E1D2596F5
:1051D000CDBFDEBFDF91CF911F910F91FF90EF9078
:1051E000DF90CF90BF90AF909F908F907F906F9007
:1051F0005F904F903F902F90089583E38093CA0172
:1052000080E0E0ECF1E09FEF808394838F5F803259
:10521000D9F7E0ECF1E080E3828788ED84BF81E09C
:10522000838787858823ECF30895E7DF8FB7F894A9
:1052300098ED94BF91E0909379008FBF089590E02E
:10524000FC01E156F109E331F105C8F48827E25089
:10525000FF4F8F4F0C941E32E8CF08950C94E21F3D
:1052600008950C94A91F08950C94C31F08950C94DD
:10527000E51F08950C94F11F08950C94FC1F0895E8
:10528000CF93DF93CDB7DEB7C856D109CDBFDEBF10
:105290003FDDE0E6F6E0808188608083848188607D
:1052A00084836BE27CE28AE090E00E94A61714E11E
:1052B000BE016F5F7F4FFB01812F11928A95E9F745
:1052C0004AE050E0CE0145960E946F16BE01635E33
:1052D0007F4F88E2FB0111928A95E9F74AE050E09E
:1052E000CE018B5B9F4F0E94F716BE01635B7F4F21
:1052F000FB0111921A95E9F74AE050E0CE018F596F
:105300009F4F0E946F1600E010E0BE016B5B7F4F65
:10531000CE0145960E94CD1B0E949E1D0E944B1CF3
:1053200080914722813041F008F462C0823091F0D0
:10533000833009F453C05AC011115AC00E944E1450
:1053400066E573E288E090E00E94A6170E944E1482
:1053500011E04EC0609118227091192280911A229A
:1053600090911B2220E030E041EE53E4EBD3F5D4E2
:105370009B01772324F422273327261B370B2A305F
:105380003105C4F40E94E51FCE018F599F4F0E9442
:10539000291D8091EE219091EF21A091F021B091F3
:1053A000F1218093252090932620A0932720B0936D
:1053B00028200EC080914622882351F0CE018F59BB
:1053C0009F4F0E94291DCE018F599F4F0E948C1E16
:1053D00011110EC00E944E1411E00AC0011108C044
:1053E0000E942E1F0E944E1401E002C00E949E1DCA
:1053F000809145228823D9F00E94E91860931C22ED
:1054000070931D2280931E2290931F220E94E81900
:105410006093142270931522809316229093172282
:105420000E947D1F0E94481FE6D91092452280915C
:105430004422882339F08091362201DF10923622EF
:1054400010924422809126229091272201968093E7
:105450002622909327228091282290912922892B1D
:1054600009F453CF8091262290912722609128221F
:10547000709129227ED760931F207093202045CF02
:105480001F920F920FB60F92112408B60F9218BEFA
:105490008F939F9380912822909129220196809347
:1054A00028229093292281E0809345229F918F9119
:1054B0000F9008BE0F900FBE0F901F9018951F926F
:1054C0000F920FB60F92112408B60F9218BE09B6AC
:1054D0000F9219BE0BB60F921BBE2F933F934F93A3
:1054E0005F936F937F938F939F93AF93BF93EF934C
:1054F000FF9380EA9AE00E94030B8093362281E0BA
:1055000080934422FF91EF91BF91AF919F918F9132
:105510007F916F915F914F913F912F910F900BBEB3
:105520000F9009BE0F9008BE0F900FBE0F901F90F6
:1055300018951F920F920FB60F92112408B60F9272
:1055400018BE09B60F9219BE0AB60F921ABE0BB654
:105550000F921BBE8F929F92AF92BF92CF92DF921B
:10556000EF92FF921F932F933F934F935F936F930D
:105570007F938F939F93AF93BF93EF93FF93CF93BB
:10558000DF9300D000D0CDB7DEB780EB99E00E946A
:10559000030B182F843251F481E080932F22109254
:1055A0002E2210922D2210922C225DC28A3229F4D2
:1055B00010922C2210922F2256C28C3209F053C224
:1055C000E1E8F2E280E280838181803209F07AC2F0
:1055D00080E38093812276C2809181228E3209F00D
:1055E000A6C1ACC1809181228E3209F0F2C0F8C010
:1055F000809181228E3209F053C059C091919E3220
:1056000029F401C080E080932B2203C08F5F8F308C
:10561000A9F7E0912B22F0E0EF57FD4D80E2808367
:1056200020912B222F5F2F30C8F4822F90E0FC01B5
:10563000EF57FD4D3081303289F040E208C0822FB3
:1056400090E0FC01EF57FD4D3081303239F0FC0124
:10565000EF57FD4D40832F5F2F3089F7CE01019624
:105660009F938F9384EA91E29F938F9381E892E2D4
:105670009F938F930E94B43369817A818B819C813F
:105680009FD360930C2270930D2280930E229093EF
:105690000F220F900F900F900F900F900F90C5C199
:1056A000E2E8F2E281E091919E3229F401C080E0CB
:1056B00080932B2203C08F5F8F30A9F7E0912B22BC
:1056C000F0E0EF57FD4D80E2808320912B222F5F89
:1056D0002F3008F5822F90E0FC01EF57FD4D30810F
:1056E0003032C9F050E208C0822F90E0FC01EF5741
:1056F000FD4D3081303279F040912B22FC01E41BCA
:10570000F109ED56FD4D3083FC01EF57FD4D5083FF
:105710002F5F2F3049F780919422803219F480E373
:1057200080939422CE0101969F938F9384EA91E215
:105730009F938F9381E892E29F938F930E94B4335B
:10574000CE0105969F938F9388EA91E29F938F9362
:1057500084E992E29F938F930E94B43389809A8068
:10576000AB80BC806D817E81072E000C880B990B6D
:1057700027D320E030E44CE156E44DD26B017C01AC
:10578000C501B40124E630E040E050E03BD64901D9
:105790005A0116D39B01AC01C701B601D4D120E058
:1057A00030E040E752E437D26B017C01C501B4011F
:1057B00007D39B01AC01C701B601C5D16093082294
:1057C0007093092280930A2290930B22CDBFDEBFF3
:1057D0002CC1E2E8F2E281E091919E3229F401C00D
:1057E00080E080932B2203C08F5F8F30A9F7E09178
:1057F0002B22F0E0EF57FD4D80E2808320912B2299
:105800002F5F2F3008F5822F90E0FC01EF57FD4D00
:1058100030813032C9F050E208C0822F90E0FC01A4
:10582000EF57FD4D3081303279F040912B22FC0151
:10583000E41BF109ED56FD4D3083FC01EF57FD4DA2
:1058400050832F5F2F3049F780919422803219F4D2
:1058500080E380939422CE0101969F938F9384EAF4
:1058600091E29F938F9381E892E29F938F937CD7ED
:10587000CE0105969F938F9388EA91E29F938F9331
:1058800084E992E29F938F936FD789809A80AB804F
:10589000BC806D817E81072E000C880B990B90D205
:1058A00020E030E44CE156E4B6D16B017C01C50147
:1058B000B40124E630E040E050E0A4D549015A01AB
:1058C0007FD29B01AC01C701B6013DD120E030E0A1
:1058D00040E752E4A0D16B017C01C501B40170D254
:1058E0009B01AC01C701B6012ED1DC01CB01B05840
:1058F0008093042290930522A0930622B09307225E
:10590000CDBFDEBF92C08EEF91E29F938F9388EA66
:1059100091E29F938F9381E892E29F938F9324D794
:105920000F900F900F900F900F900F907EC0E2E8B5
:10593000F2E281E091919E3229F401C080E08093EF
:105940002B2203C08F5F8F30A9F7E0912B22F0E06C
:10595000EF57FD4D80E2808320912B222F5F2F3067
:1059600008F5822F90E0FC01EF57FD4D3081303279
:10597000C9F050E208C0822F90E0FC01EF57FD4DC6
:105980003081303279F040912B22FC01E41BF10987
:10599000ED56FD4D3083FC01EF57FD4D50832F5FD9
:1059A0002F3049F780919422803219F480E380935C
:1059B0009422CE0101969F938F9384EA91E29F9364
:1059C0008F9381E892E29F938F93CED6CE01059676
:1059D0009F938F9388EA91E29F938F9384E992E259
:1059E0009F938F93C1D669817A818B819C81E8D105
:1059F0006B017C016D817E81072E000C880B990B59
:105A0000DFD120E030E040E251E405D19B01AC0160
:105A1000C701B60198D06093002270930122809351
:105A2000022290930322CDBFDEBF80912F228823D4
:105A3000D1F010922B2280912C228F5F80932C2208
:105A400010922D22E1E8F2E220E932E280E2819335
:105A50002E173F07E1F7E4E9F2E280E280838183D9
:105A600082838383848380912F22882309F443C017
:105A700080912E22833019F0843031F009C0173420
:105A800039F010922F2204C0173411F010922F22F7
:105A9000E0912D22F0E0EF57FD4D108380912D22F3
:105AA0008F5F80932D2280912E228F5F80932E22F4
:105AB00022C0809181228E3209F4A4CDE2E8F2E284
:105AC00081E09CCD19821A821B821C821D821E825B
:105AD00080912C22843009F485CD30F4813049F353
