:1000000057C100007BC1000079C1000077C100002A
:1000100075C1000073C1000071C100006FC1000014
:100020006DC100006BC1000069C1000067C1000024
:1000300065C100000C941E0AF2C3000028C4000031
:100040005EC4000094C40000CAC4000000C50000E3
:1000500036C500006CC50000A2C50000D8C5000070
:100060004DC100004BC1000049C1000047C1000064
:1000700045C1000043C1000041C100003FC1000074
:100080003DC100003BC1000039C1000037C1000084
:1000900035C1000033C1000031C100002FC1000094
:1000A0002DC100002BC1000029C1000027C10000A4
:1000B00025C1000023C100000C94500A0C943F2875
:1000C0000C946F080C94A7080C94DF080C94170983
:1000D0000C944F0913C1000011C100000FC10000B2
:1000E0000DC100000BC100000C945E2807C1000088
:1000F00005C1000003C1000001C10000FFC00000F5
:10010000FDC00000FBC00000F9C00000F7C0000007
:1001100021C1000065C10000A9C100008CC200001F
:10012000C7C2000002C300003DC30000E7C00000DA
:10013000E5C00000A4C50000DAC5000010C600003C
:1001400046C600007CC60000B2C60000E8C600003B
:100150001EC7000054C700008AC70000CFC00000BF
:10016000CDC00000CBC00000C9C000000C9498288E
:10017000C5C00000C3C00000C1C00000BFC0000077
:10018000BDC00000BBC00000B9C00000B7C0000087
:10019000B5C00000B3C00000B1C00000AFC0000097
:1001A000ADC00000ABC00000A9C00000A7C00000A7
:1001B000A5C00000A3C00000A1C000009FC00000B7
:1001C0009DC000009BC0000099C0000097C00000C7
:1001D00095C0000093C0000091C000008FC00000D7
:1001E0008DC000008BC0000089C0000087C00000E7
:1001F00085C0000083C0000081C0000072276F2707
:100200006C277827692767277A277A277A277A271A
:100210007A277A277A277A277A277A277A277A27D6
:10022000752708000000BE922449123EABAAAA2AF4
:10023000BECDCCCC4C3E00000080BEABAAAAAA3EEC
:1002400000000000BF000000803F00000000000828
:100250004178D3BB4387D1133D190E3CC3BD4282C5
:10026000AD2B3E68EC8276BED98FE1A93E4C80EF83
:10027000FFBE01C4FF7F3F0000000000076342365D
:10028000B79BD8A71A39685618AEBAAB558C1D3C27
:10029000B7CC5763BD6DEDFD753EF6177231BF00EB
:1002A0000000803F6364696E6F70737578585B00FF
:1002B00011241FBECFEFCDBFDFE3DEBF00E00CBFD8
:1002C00018BE19BE1ABE1BBE11E2A0E0B0E2E2EDFC
:1002D000F1E700E00BBF02C007900D92A83BB10709
:1002E000D9F71BBE23E2A8EBB1E201C01D92A231F7
:1002F000B207E1F70E947B270C94E73881CECF93B9
:10030000DF931F92CDB7DEB7809161229091622278
:10031000E0915D22F0915E22BE016F5F7F4F1995E3
:100320008981082E000C990B0F90DF91CF910895D1
:10033000682F8091612290916222E0915F22F0917A
:100340006022199599231CF081E090E008958FEFC9
:100350009FEF08951F920F920FB60F92112408B6C7
:100360000F9218BE09B60F9219BE0BB60F921BBEA4
:100370002F933F934F935F936F937F938F939F93AD
:10038000AF93BF93EF93FF93E091B921F091BA211E
:10039000309779F08091870384FF06C040E060E0E9
:1003A00080E893E0199505C040E860E080E893E0BC
:1003B0001995FF91EF91BF91AF919F918F917F918F
:1003C0006F915F914F913F912F910F900BBE0F90C6
:1003D00009BE0F9008BE0F900FBE0F901F9018958A
:1003E0001F920F920FB60F92112408B60F9218BEEB
:1003F00009B60F9219BE0BB60F921BBE2F933F93F7
:100400004F935F936F937F938F939F93AF93BF931C
:10041000EF93FF93E091B921F091BA21309779F0F1
:100420008091870385FF06C040E061E080E893E0AB
:10043000199505C040E861E080E893E01995FF91C7
:10044000EF91BF91AF919F918F917F916F915F914C
:100450004F913F912F910F900BBE0F9009BE0F90BF
:1004600008BE0F900FBE0F901F9018951F920F920D
:100470000FB60F92112408B60F9218BE09B60F924C
:1004800019BE0BB60F921BBE2F933F934F935F93F2
:100490006F937F938F939F93AF93BF93EF93FF934C
:1004A000E091B921F091BA21309739F0409187035A
:1004B000407C60E080E893E01995FF91EF91BF9157
:1004C000AF919F918F917F916F915F914F913F91EC
:1004D0002F910F900BBE0F9009BE0F9008BE0F908A
:1004E0000FBE0F901F901895CF92DF92EF92FF9260
:1004F0000F931F93CF93DF931F92CDB7DEB72FB724
:100500002983F894C980803823E09207D9F47A01CE
:10051000D62E8C018091B821811104C061E081E068
:100520000E94DB168091B8218F5F8093B821F7017C
:100530008281F8018583F7018381F8018683DD20BC
:1005400019F00BC0CFBE1DC0F7018181F801828375
:10055000F7018081F801808308C0F7018181F801EB
:100560008383F7018081F80181838091B8218150D4
:100570008093B821811104C061E081E00E94F116EE
:10058000CFBE0F90DF91CF911F910F91FF90EF9011
:10059000DF90CF900895EF92FF920F931F93CF9328
:1005A000DF931F921F92CDB7DEB72FB72A83F8943F
:1005B000EA80803823E0920709F5F62E8C018091BD
:1005C000B821811104C061E081E00E94DB168091B6
:1005D000B8218F5F8093B821809158228F3F09F412
:1005E000FFCF8FB78983F8949981E7E5F2E28181A3
:1005F0008F5F81839FBFFF2019F007C0EFBE0AC045
:10060000F80180818160808304C0F801818181606C
:100610008183EFBE0F900F90DF91CF911F910F91CB
:10062000FF90EF9008958038934021F46093B921B2
:100630007093BA2108951F920F920FB60F92112452
:1006400008B60F9218BE09B60F9219BE0BB60F92DC
:100650001BBE2F933F934F935F936F937F938F9323
:100660009F93AF93BF93EF93FF93409124025091D8
:100670002502E0916322F091642261E080E092E043
:100680001995FF91EF91BF91AF919F918F917F91BC
:100690006F915F914F913F912F910F900BBE0F90F3
:1006A00009BE0F9008BE0F900FBE0F901F901895B7
:1006B0001F920F920FB60F92112408B60F9218BE18
:1006C00009B60F9219BE0BB60F921BBE2F933F9324
:1006D0004F935F936F937F938F939F93AF93BF934A
:1006E000EF93FF9340912C0250912D02E0916322F1
:1006F000F091642262E080E092E01995FF91EF9121
:10070000BF91AF919F918F917F916F915F914F9129
:100710003F912F910F900BBE0F9009BE0F9008BE16
:100720000F900FBE0F901F9018951F920F920FB64B
:100730000F92112408B60F9218BE09B60F9219BE77
:100740000BB60F921BBE2F933F934F935F936F9304
:100750007F938F939F93AF93BF93EF93FF934091BA
:10076000340250913502E0916322F091642264E0FA
:1007700080E092E01995FF91EF91BF91AF919F9129
:100780008F917F916F915F914F913F912F910F903A
:100790000BBE0F9009BE0F9008BE0F900FBE0F90BA
:1007A0001F9018951F920F920FB60F92112408B642
:1007B0000F9218BE09B60F9219BE0BB60F921BBE50
:1007C0002F933F934F935F936F937F938F939F9359
:1007D000AF93BF93EF93FF9340913C0250913D0242
:1007E000E0916322F091642268E080E092E0199544
:1007F000FF91EF91BF91AF919F918F917F916F91F9
:100800005F914F913F912F910F900BBE0F9009BEBA
:100810000F9008BE0F900FBE0F901F9018951F925B
:100820000F920FB60F92112408B60F9218BE09B698
:100830000F9219BE0BB60F921BBE2F933F934F938F
:100840005F936F937F938F939F93AF93BF93EF9338
:10085000FF93E091EB21F091EC21309709F019958D
:10086000FF91EF91BF91AF919F918F917F916F9188
:100870005F914F913F912F910F900BBE0F9009BE4A
:100880000F9008BE0F900FBE0F901F9018951F92EB
:100890000F920FB60F92112408B60F9218BE09B628
:1008A0000F9219BE0BB60F921BBE2F933F934F931F
:1008B0005F936F937F938F939F93AF93BF93EF93C8
:1008C000FF93E091E921F091EA21309709F0199521
:1008D000FF91EF91BF91AF919F918F917F916F9118
:1008E0005F914F913F912F910F900BBE0F9009BEDA
:1008F0000F9008BE0F900FBE0F901F9018951F927B
:100900000F920FB60F92112408B60F9218BE09B6B7
:100910000F9219BE0BB60F921BBE2F933F934F93AE
:100920005F936F937F938F939F93AF93BF93EF9357
:10093000FF93E091E721F091E821309709F01995B4
:10094000FF91EF91BF91AF919F918F917F916F91A7
:100950005F914F913F912F910F900BBE0F9009BE69
:100960000F9008BE0F900FBE0F901F9018951F920A
:100970000F920FB60F92112408B60F9218BE09B647
:100980000F9219BE0BB60F921BBE2F933F934F933E
:100990005F936F937F938F939F93AF93BF93EF93E7
:1009A000FF93E091E521F091E621309709F0199548
:1009B000FF91EF91BF91AF919F918F917F916F9137
:1009C0005F914F913F912F910F900BBE0F9009BEF9
:1009D0000F9008BE0F900FBE0F901F9018951F929A
:1009E0000F920FB60F92112408B60F9218BE09B6D7
:1009F0000F9219BE0BB60F921BBE2F933F934F93CE
:100A00005F936F937F938F939F93AF93BF93EF9376
:100A1000FF93E091E321F091E421309709F01995DB
:100A2000FF91EF91BF91AF919F918F917F916F91C6
:100A30005F914F913F912F910F900BBE0F9009BE88
:100A40000F9008BE0F900FBE0F901F9018951F9229
:100A50000F920FB60F92112408B60F9218BE09B666
:100A60000F9219BE0BB60F921BBE2F933F934F935D
:100A70005F936F937F938F939F93AF93BF93EF9306
:100A8000FF93E091E121F091E221309709F019956F
:100A9000FF91EF91BF91AF919F918F917F916F9156
:100AA0005F914F913F912F910F900BBE0F9009BE18
:100AB0000F9008BE0F900FBE0F901F9018951F92B9
:100AC0000F920FB60F92112408B60F9218BE09B6F6
:100AD0000F9219BE0BB60F921BBE2F933F934F93ED
:100AE0005F936F937F938F939F93AF93BF93EF9396
:100AF000FF93E091DF21F091E021309709F0199503
:100B0000FF91EF91BF91AF919F918F917F916F91E5
:100B10005F914F913F912F910F900BBE0F9009BEA7
:100B20000F9008BE0F900FBE0F901F9018951F9248
:100B30000F920FB60F92112408B60F9218BE09B685
:100B40000F9219BE0BB60F921BBE2F933F934F937C
:100B50005F936F937F938F939F93AF93BF93EF9325
:100B6000FF93E091DD21F091DE21309709F0199596
:100B7000FF91EF91BF91AF919F918F917F916F9175
:100B80005F914F913F912F910F900BBE0F9009BE37
:100B90000F9008BE0F900FBE0F901F9018951F92D8
:100BA0000F920FB60F92112408B60F9218BE09B615
:100BB0000F9219BE0BB60F921BBE2F933F934F930C
:100BC0005F936F937F938F939F93AF93BF93EF93B5
:100BD000FF93E091DB21F091DC21309709F019952A
:100BE000FF91EF91BF91AF919F918F917F916F9105
:100BF0005F914F913F912F910F900BBE0F9009BEC7
:100C00000F9008BE0F900FBE0F901F9018951F9267
:100C10000F920FB60F92112408B60F9218BE09B6A4
:100C20000F9219BE0BB60F921BBE2F933F934F939B
:100C30005F936F937F938F939F93AF93BF93EF9344
:100C4000FF93E091D921F091DA21309709F01995BD
:100C5000FF91EF91BF91AF919F918F917F916F9194
:100C60005F914F913F912F910F900BBE0F9009BE56
:100C70000F9008BE0F900FBE0F901F9018951F92F7
:100C80000F920FB60F92112408B60F9218BE09B634
:100C90000F9219BE0BB60F921BBE2F933F934F932B
:100CA0005F936F937F938F939F93AF93BF93EF93D4
:100CB000FF93E091D721F091D821309709F0199551
:100CC000FF91EF91BF91AF919F918F917F916F9124
:100CD0005F914F913F912F910F900BBE0F9009BEE6
:100CE0000F9008BE0F900FBE0F901F9018951F9287
:100CF0000F920FB60F92112408B60F9218BE09B6C4
:100D00000F9219BE0BB60F921BBE2F933F934F93BA
:100D10005F936F937F938F939F93AF93BF93EF9363
:100D2000FF93E091D521F091D621309709F01995E4
:100D3000FF91EF91BF91AF919F918F917F916F91B3
:100D40005F914F913F912F910F900BBE0F9009BE75
:100D50000F9008BE0F900FBE0F901F9018951F9216
:100D60000F920FB60F92112408B60F9218BE09B653
:100D70000F9219BE0BB60F921BBE2F933F934F934A
:100D80005F936F937F938F939F93AF93BF93EF93F3
:100D9000FF93E091D321F091D421309709F0199578
:100DA000FF91EF91BF91AF919F918F917F916F9143
:100DB0005F914F913F912F910F900BBE0F9009BE05
:100DC0000F9008BE0F900FBE0F901F9018951F92A6
:100DD0000F920FB60F92112408B60F9218BE09B6E3
:100DE0000F9219BE0BB60F921BBE2F933F934F93DA
:100DF0005F936F937F938F939F93AF93BF93EF9383
:100E0000FF93E091D121F091D221309709F019950B
:100E1000FF91EF91BF91AF919F918F917F916F91D2
:100E20005F914F913F912F910F900BBE0F9009BE94
:100E30000F9008BE0F900FBE0F901F9018951F9235
:100E40000F920FB60F92112408B60F9218BE09B672
:100E50000F9219BE0BB60F921BBE2F933F934F9369
:100E60005F936F937F938F939F93AF93BF93EF9312
:100E7000FF93E091CF21F091D021309709F019959F
:100E8000FF91EF91BF91AF919F918F917F916F9162
:100E90005F914F913F912F910F900BBE0F9009BE24
:100EA0000F9008BE0F900FBE0F901F9018951F92C5
:100EB0000F920FB60F92112408B60F9218BE09B602
:100EC0000F9219BE0BB60F921BBE2F933F934F93F9
:100ED0005F936F937F938F939F93AF93BF93EF93A2
:100EE000FF93E091CD21F091CE21309709F0199533
:100EF000FF91EF91BF91AF919F918F917F916F91F2
:100F00005F914F913F912F910F900BBE0F9009BEB3
:100F10000F9008BE0F900FBE0F901F9018951F9254
:100F20000F920FB60F92112408B60F9218BE09B691
:100F30000F9219BE0BB60F921BBE2F933F934F9388
:100F40005F936F937F938F939F93AF93BF93EF9331
:100F5000FF93E091CB21F091CC21309709F01995C6
:100F6000FF91EF91BF91AF919F918F917F916F9181
:100F70005F914F913F912F910F900BBE0F9009BE43
:100F80000F9008BE0F900FBE0F901F9018951F92E4
:100F90000F920FB60F92112408B60F9218BE09B621
:100FA0000F9219BE0BB60F921BBE2F933F934F9318
:100FB0005F936F937F938F939F93AF93BF93EF93C1
:100FC000FF93E091C921F091CA21309709F019955A
:100FD000FF91EF91BF91AF919F918F917F916F9111
:100FE0005F914F913F912F910F900BBE0F9009BED3
:100FF0000F9008BE0F900FBE0F901F9018951F9274
:101000000F920FB60F92112408B60F9218BE09B6B0
:101010000F9219BE0BB60F921BBE2F933F934F93A7
:101020005F936F937F938F939F93AF93BF93EF9350
:10103000FF93E091C721F091C821309709F01995ED
:10104000FF91EF91BF91AF919F918F917F916F91A0
:101050005F914F913F912F910F900BBE0F9009BE62
:101060000F9008BE0F900FBE0F901F9018951F9203
:101070000F920FB60F92112408B60F9218BE09B640
:101080000F9219BE0BB60F921BBE2F933F934F9337
:101090005F936F937F938F939F93AF93BF93EF93E0
:1010A000FF93E091C521F091C621309709F0199581
:1010B000FF91EF91BF91AF919F918F917F916F9130
:1010C0005F914F913F912F910F900BBE0F9009BEF2
:1010D0000F9008BE0F900FBE0F901F9018951F9293
:1010E0000F920FB60F92112408B60F9218BE09B6D0
:1010F0000F9219BE0BB60F921BBE2F933F934F93C7
:101100005F936F937F938F939F93AF93BF93EF936F
:10111000FF93E091C321F091C421309709F0199514
:10112000FF91EF91BF91AF919F918F917F916F91BF
:101130005F914F913F912F910F900BBE0F9009BE81
:101140000F9008BE0F900FBE0F901F9018951F9222
:101150000F920FB60F92112408B60F9218BE09B65F
:101160000F9219BE0BB60F921BBE2F933F934F9356
:101170005F936F937F938F939F93AF93BF93EF93FF
:10118000FF93E091C121F091C221309709F01995A8
:10119000FF91EF91BF91AF919F918F917F916F914F
:1011A0005F914F913F912F910F900BBE0F9009BE11
:1011B0000F9008BE0F900FBE0F901F9018951F92B2
:1011C0000F920FB60F92112408B60F9218BE09B6EF
:1011D0000F9219BE0BB60F921BBE2F933F934F93E6
:1011E0005F936F937F938F939F93AF93BF93EF938F
:1011F000FF93E091BF21F091C021309709F019953C
:10120000FF91EF91BF91AF919F918F917F916F91DE
:101210005F914F913F912F910F900BBE0F9009BEA0
:101220000F9008BE0F900FBE0F901F9018951F9241
:101230000F920FB60F92112408B60F9218BE09B67E
:101240000F9219BE0BB60F921BBE2F933F934F9375
:101250005F936F937F938F939F93AF93BF93EF931E
:10126000FF93E091BD21F091BE21309709F01995CF
:10127000FF91EF91BF91AF919F918F917F916F916E
:101280005F914F913F912F910F900BBE0F9009BE30
:101290000F9008BE0F900FBE0F901F9018951F92D1
:1012A0000F920FB60F92112408B60F9218BE09B60E
:1012B0000F9219BE0BB60F921BBE2F933F934F9305
:1012C0005F936F937F938F939F93AF93BF93EF93AE
:1012D000FF93E091BB21F091BC21309709F0199563
:1012E000FF91EF91BF91AF919F918F917F916F91FE
:1012F0005F914F913F912F910F900BBE0F9009BEC0
:101300000F9008BE0F900FBE0F901F901895CF93AF
:10131000DF93E091ED21F091EE21848183FF08C0FD
:101320008860848383E0838386EF8093F72183C082
:10133000982F947131F083E083838FEF8093F721AE
:101340007AC086FF43C0CDEED1E2AA81BB818C81F9
:101350009D8114962D913C911597821793076CF4FB
:101360009C012F5F3F4F2093F1213093F221A80F72
:10137000B91F11968C9187835EC08091F321909163
:10138000F42118962D913C91199782179307C8F470
:101390002091F521222321F08681816086834BC034
:1013A00016962D913C911797AC014F5F5F4F40937C
:1013B000F3215093F421D901A80FB91F8C91878391
:1013C0003AC083E083831092F72135C0882384F5E7
:1013D000ADEEB1E21296CD91DC91139716968D91F8
:1013E0009C9117972885398582179307D8F46E81C9
:1013F0007F819C012F5F3F4F2093F3213093F42195
:101400004781DB01A80FB91F4C9388859985281760
:10141000390718F482E083830EC087E0838310923B
:10142000F72109C083E0838389EF8093F72103C00C
:101430008BEF8093F721DF91CF9108951F920F9248
:101440000FB60F92112408B60F9218BE09B60F926C
:1014500019BE0BB60F921BBE2F933F934F935F9312
:101460006F937F938F939F93AF93BF93EF93FF936C
:101470004EDFFF91EF91BF91AF919F918F917F913F
:101480006F915F914F913F912F910F900BBE0F90F5
:1014900009BE0F9008BE0F900FBE0F901F901895B9
:1014A0001F920F920FB60F92112408B60F9218BE1A
:1014B00009B60F9219BE0BB60F921BBE2F933F9326
:1014C0004F935F936F937F938F939F93AF93BF934C
:1014D000EF93FF931CDFFF91EF91BF91AF919F912D
:1014E0008F917F916F915F914F913F912F910F90CD
:1014F0000BBE0F9009BE0F9008BE0F900FBE0F904D
:101500001F901895FC01DB0114968C91858388EB64
:10151000818381E08483EDEEF1E211861286E0EAB8
:10152000F0E0828182608283789480E00895CF9396
:10153000DF931F92CDB7DEB79C01FB01892B09F425
:1015400051C0309709F450C092858091F6218823CC
:1015500019F09923F1F34AC08FB78983F8948981F0
:10156000ADEEB1E291E019969C93199790E81A9626
:101570009C931A978FBF2D933C93119712966D935E
:101580007C93139714961D921C92159716961D9294
:101590001C92179718964C938081880F64817581EF
:1015A000672B11F4411103C0F901868303C08160E8
:1015B000F9018683EDEEF1E292859038E9F3F901C5
:1015C00084818370813049F0ADEEB1E2ED91FC9100
:1015D0001197848183708130C9F7EDEEF1E2828545
:1015E000118605C088EF03C088EF01C086EF0F9019
:1015F000DF91CF910895FC01918195FFFDCF60832C
:1016000080E090E00895FC0191819923ECF78081BE
:1016100008954F925F926F927F928F929F92AF92B6
:10162000BF92EF92FF920F931F93CF937C014A01D9
:101630005B0128013901FC01848182FF16C0D901B8
:10164000C801689412F8B695A79597958795169452
:10165000D1F7B901A801032E36E176956795579524
:1016600047953A95D1F7302D15C0D901C801689436
:1016700013F8B695A795979587951694D1F7B90164
:10168000A801032E37E176956795579547953A95CA
:10169000D1F7302D88159905AA05BB0508F4A6C019
:1016A00084169506A606B70608F4A2C0F701848141
:1016B00082FD04C0880C991CAA1CBB1CC301B2018A
:1016C000A50194010E94DF2F2F3F310541055105EF
:1016D00008F490C08FEF90E0A0E0B0E0C9EF05C043
:1016E000281739074A075B0758F0880F991FAA1F68
:1016F000BB1FCD3F0CF48160CF5FC73089F74FC06F
:10170000CC230CF04CC0D501C401880F991FAA1F2F
:10171000BB1F880F991FAA1FBB1F880F991FAA1FE5
:10172000BB1F481A590A6A0A7B0ACE3FF4F48DEFB0
:101730009FEF8C1B9109C7FD939504C0440C551C69
:10174000661C771C8A95D2F7D501C401B695A7957A
:1017500097958795BC01CD01640D751D861D971D5C
:10176000A50194010E94DF2F37C083E08C0FA501F3
:10177000940104C0220F331F441F551F8A95D2F7CE
:10178000DA01C901B695A79597958795BC01CD015A
:10179000640D751D861D971D0E94DF2F1DC083E0FF
:1017A0008C0FA501940104C0220F331F441F551F45
:1017B0008A95D2F7DA01C901B695A79597958795CD
:1017C000BC01CD01640D751D861D971D0E94DF2F84
:1017D0002150310941095109832F8F70C295C07F73
:1017E000C82BF701C783268381E018C080E016C0AC
:1017F00080E014C0D501C401880F991FAA1FBB1F28
:10180000880F991FAA1FBB1F880F991FAA1FBB1FF4
:10181000481A590A6A0A7B0AC9EF89CFCF911F91EA
:101820000F91FF90EF90BF90AF909F908F907F901F
:101830006F905F904F9008950F931F93CF93DF9316
:10184000EC018B01009709F4D6C0803C910529F486
:1018500060E180E00E94DB16CEC0C11584E0D807AD
:1018600029F464E080E00E94DB16C5C0C038E1E0E6
:10187000DE0729F462E080E00E94DB16BCC0C115DF
:10188000F1E0DF0729F461E080E00E94DB16B3C0DD
:10189000C03883E0D80729F461E081E00E94DB16BC
:1018A000AAC0C115E2E0DE0729F462E081E00E94EF
:1018B000DB16A1C0C032F3E0DF0729F464E082E068
:1018C0000E94DB1698C0C11588E0D80729F461E0B2
:1018D00083E00E94DB168FC0C115E9E0DE0729F422
:1018E00061E084E00E94DB1686C0C115FAE0DF07E4
:1018F00029F461E085E00E94DB167DC0C03488E0F9
:10190000D80729F462E083E00E94DB1674C0C0347B
:10191000E9E0DE0729F462E084E00E94DB166BC098
:10192000C039F8E0DF0729F464E083E00E94DB16A9
:1019300062C0C03989E0D80729F464E084E00E94DD
:10194000DB1659C0C039EAE0DE0729F464E085E01F
:101950000E94DB1650C0C03CF8E0DF0729F468E0C5
:1019600083E00E94DB1647C0C03C89E0D80729F419
:1019700068E084E00E94DB163EC0C03AE8E0DE0783
:1019800029F460E183E00E94DB1635C0C03AF9E03B
:10199000DF0729F460E184E00E94DB162CC0C03A26
:1019A0008AE0D80729F460E185E00E94DB1623C0B5
:1019B000C03BE8E0DE0729F460E283E00E94DB162A
:1019C0001AC0C03BF9E0DF0729F460E284E00E941E
:1019D000DB1611C0C03884E0D80729F460E483E046
:1019E0000E94DB1608C0C03AE4E0DE0721F460E4A0
:1019F00085E00E94DB168D818F738D83F8019581C0
:101A00008481892B9681911198E0892B8D83F8012F
:101A1000408151816281738100E018E428EE31E059
:101A2000CE01F7DD9C8198609C839C8190619C83B2
:101A3000DF91CF911F910F9108951F93CF93DF9363
:101A400000D01F92CDB7DEB719821A821B821C828A
:101A50008093F8219093F921DC011996ED91FC9186
:101A60001A9721E0AE014E5F5F4F67E018968C91A8
:101A70001995182FA091F821B091F9211B96ED919D
:101A8000FC911C9721E0AE014F5F5F4F60E018961C
:101A90008C911995180FA091F821B091F9218981A5
:101AA0008C931B96ED91FC911C9721E0AE014F5F4A
:101AB0005F4F61E018968C911995180FA091F8214D
:101AC000B091F921898114968C9314971B96ED910E
:101AD000FC911C9721E0AE014F5F5F4F62E01896CA
:101AE0008C911995180FA091F821B091F921898155
:101AF00015968C9315971B96ED91FC911C9721E000
:101B0000AE014F5F5F4F63E018968C911995180FE7
:101B1000A091F821B091F921898116968C9316979E
:101B20001B96ED91FC911C9721E0AE014F5F5F4F3A
:101B300066E018968C911995180FA091F821B09134
:101B4000F921898117968C9317971B96ED91FC913B
:101B50001C9722E0AE014D5F5F4F64E018968C91B8
:101B60001995180FA091F821B091F9218C8190E07E
:101B7000982F88272B81822B11968D939C931297F7
:101B80001B96ED91FC911C9721E0AE014F5F5F4FDA
:101B900067E018968C911995E091F821F091F92160
:101BA00099819383810F2496CDBFDEBFDF91CF91C2
:101BB0001F910895A091F821B091F921109759F043
:101BC000242FAB01682F1996ED91FC911A97189666
:101BD0008C911995089581E808951F93CF93DF9311
:101BE0001F92CDB7DEB71982A091F821B091F921EB
:101BF000109741F1182F1B96ED91FC911C9721E055
:101C0000AE014F5F5F4F67E018968C911995811177
:101C10001BC01983A091F821B091F9211996ED917B
:101C2000FC911A9721E0AE014F5F5F4F67E0189675
:101C30008C911995811109C0E091F821F091F92159
:101C4000138303C081E801C08FEF0F90DF91CF9124
:101C50001F9108950F931F93CF93DF9300D000D06F
:101C6000CDB7DEB78C01FE01319696E0DF011D9203
:101C70009A95E9F7E091F821F091F921309709F46C
:101C80003EC08381882359F080E0A7DF882339F0A4
:101C9000E091F821F091F9218381811132C0A09166
:101CA000F821B091F9211B96ED91FC911C9726E04B
:101CB000AE014F5F5F4F6AE118968C9119952A81AA
:101CC000022E000C330B322F22279981292BF80189
:101CD000208331832C81022E000C330B322F2227DC
:101CE0009B81292B228333832E81022E000C330B00
:101CF000322F22279D81292B2483358303C081E83D
:101D000001C08FEF2696CDBFDEBFDF91CF911F912F
:101D10000F9108950F931F93CF93DF9300D000D0BE
:101D2000CDB7DEB78C01FE01319696E0DF011D9242
:101D30009A95E9F7E091F821F091F921309709F4AB
:101D40003EC08381882359F080E047DF882339F043
:101D5000E091F821F091F9218381811132C0A091A5
:101D6000F821B091F9211B96ED91FC911C9726E08A
:101D7000AE014F5F5F4F68E218968C9119952A81EA
:101D8000022E000C330B322F22279981292BF801C8
:101D9000208331832C81022E000C330B322F22271B
:101DA0009B81292B228333832E81022E000C330B3F
:101DB000322F22279D81292B2483358303C081E87C
:101DC00001C08FEF2696CDBFDEBFDF91CF911F916F
:101DD0000F910895FF920F931F93CF93DF9300D03D
:101DE00000D0CDB7DEB78C0119821A821B821C820B
:101DF0001D821E82CE0101968DDFF82E81113AC020
:101E000069817A81072E000C880B990B0E94DF2CC8
:101E100020E030E048EC52E40E940A2CF801608394
:101E20007183828393836B817C81072E000C880BE6
:101E3000990B0E94DF2C20E030E048EC52E40E9435
:101E40000A2CF80164837583868397836D817E8174
:101E5000072E000C880B990B0E94DF2C20E030E04D
:101E600048EC52E40E940A2CF8016087718782874F
:101E7000938702C0FF24FA948F2D2696CDBFDEBF34
:101E8000DF91CF911F910F91FF9008950F931F93B2
:101E9000CF93DF931F92CDB7DEB71982E091F8217F
:101EA000F091F921309721F18C018381882359F039
:101EB00080E093DE882339F0E091F821F091F92158
:101EC0008381811117C0A091F821B091F9211B964F
:101ED000ED91FC911C9721E0AE014F5F5F4F65E3F0
:101EE00018968C91199599819370F801908303C08D
:101EF00081E801C08FEF0F90DF91CF911F910F917B
:101F000008950F931F93CF93DF931F92CDB7DEB742
:101F10001982E091F821F091F921309749F18C0173
:101F20008381882359F080E058DE882339F0E091DE
:101F3000F821F091F921838181111CC0A091F82131
:101F4000B091F9211B96ED91FC911C9721E0AE0117
:101F50004F5F5F4F65E318968C91199529812C701E
:101F600030E03595279535952795F801208303C0F6
:101F700081E801C08FEF0F90DF91CF911F910F91FA
:101F800008950F931F93CF93DF931F92CDB7DEB7C2
:101F90001982E091F821F091F921309769F18C01D3
:101FA0008381882359F080E018DE882339F0E0919E
:101FB000F821F091F9218381811120C0A091F821AD
:101FC000B091F9211B96ED91FC911C9721E0AE0197
:101FD0004F5F5F4F65E318968C91199529812073A7
:101FE00030E0359527953595279535952795359585
:101FF0002795F801208303C081E801C08FEF0F907F
:10200000DF91CF911F910F9108950F931F93CF935D
:10201000DF931F92CDB7DEB71982E091F821F091DE
:10202000F921309739F18C018381882359F080E0C0
:10203000D4DD882339F0E091F821F091F9218381F2
:1020400081111AC0A091F821B091F9211B96ED9150
:10205000FC911C9721E0AE014F5F5F4F65E318963E
:102060008C91199599819295969596959370F80112
:10207000908303C081E801C08FEF0F90DF91CF9173
:102080001F910F9108950F931F93CF93DF931F928A
:10209000CDB7DEB71982E091F821F091F9213097A0
:1020A00031F18C018381882359F080E096DD88230B
:1020B00039F0E091F821F091F9218381811119C063
:1020C000A091F821B091F9211B96ED91FC911C97FC
:1020D00021E0AE014F5F5F4F6BE318968C9119952D
:1020E000998192FB992790F9F801908303C081E8C8
:1020F00001C08FEF0F90DF91CF911F910F91089545
:102100000F931F93CF93DF931F92CDB7DEB7198242
:10211000E091F821F091F921309721F18C01838130
:10212000882359F080E059DD882339F0E091F821C7
:10213000F091F9218381811117C0A091F821B0910C
:10214000F9211B96ED91FC911C9721E0AE014F5FA8
:102150005F4F6DE318968C91199599819F70F801E6
:10216000908303C081E801C08FEF0F90DF91CF9182
:102170001F910F9108950F931F93CF93DF931F9299
:102180001F92CDB7DEB719821A822091F8213091C3
:10219000F921232B09F49CC0082FCE010296B0DF51
:1021A000811198C08A81811135C0A091F821B09128
:1021B000F9211B96ED91FC911C9721E0AE014F5F38
:1021C0005F4F6DE318968C911995811185C08981B7
:1021D000982F907F802F8F70892B8983A091F82171
:1021E000B091F9211996ED91FC911A9721E0AE0179
:1021F0004F5F5F4F6DE318968C911995182FE09102
:10220000F821F091F9210584F685E02D88E592E02A
:10221000199565C0A091F821B091F9211B96ED9117
:10222000FC911C9721E0AE014F5F5F4F6DE3189664
:102230008C911995182F811114C08981807F898311
:1022400041E0BE016F5F7F4F8DE3B4DC182FE0915A
:10225000F821F091F9210584F685E02D84E190E0E4
:1022600019950023E1F1A091F821B091F9211B9675
:10227000ED91FC911C9721E0AE014F5F5F4F6DE344
:1022800018968C911995811129C08981982F907F7A
:10229000802F8F70892B8983A091F821B091F9212B
:1022A0001996ED91FC911A9721E0AE014F5F5F4FB7
:1022B0006DE318968C911995182FE091F821F09103
:1022C000F9210584F685E02D88E592E0199507C08F
:1022D00011E805C01FEF03C0182F01C0182F812F70
:1022E0000F900F90DF91CF911F910F9108950F9351
:1022F0001F93CF93DF931F921F92CDB7DEB7198242
:102300001A822091F8213091F921232B09F444C03D
:10231000082FCE010296F4DE811135C08A81882310
:1023200021F080E028DF811130C0A091F821B09128
:10233000F9211B96ED91FC911C9721E0AE014F5FB6
:102340005F4F6BE318968C911995182F81111EC061
:102350008981982F9B7F802F880F880F8470892B0D
:102360008983A091F821B091F9211996ED91FC9102
:102370001A9721E0AE014F5F5F4F6BE318968C9187
:102380001995182F03C01FEF01C01FEF8A81882302
:1023900029F0F1DE810F03C081E801C0812F0F9089
:1023A0000F90DF91CF911F910F910895EF92FF92BF
:1023B0001F93CF93DF93CDB7DEB72797CDBFDEBF97
:1023C0007C0119821A821B821C821D821E821F823E
:1023D000CE01079658DE182F8F81882319F080E0F0
:1023E00086DF180F11113FC0CE01019633DC811139
:1023F0003CC069817A81072E000C880B990B0E94E2
:10240000DF2C20E030E040E85DE30E94262EF7015B
:1024100060837183828393836D817E81072E000C9C
:10242000880B990B0E94DF2C20E030E040E85DE350
:102430000E94262EF70160877187828793876B81C0
:102440007C81072E000C880B990B0E94DF2C20E06A
:1024500030E040E85DE30E94262EF7016483758337
:102460008683978303C01FEF01C01FEF812F27963C
:10247000CDBFDEBFDF91CF911F91FF90EF90089508
:102480000F931F93CF93DF931F921F92CDB7DEB7A9
:1024900019821A822091F8213091F921232B09F415
:1024A00042C0082FCE0102962BDE811133C08A81F3
:1024B000882321F080E05FDE81112EC0A091F821F9
:1024C000B091F9211B96ED91FC911C9721E0AE0192
:1024D0004F5F5F4F6EE318968C911995182F8111FD
:1024E0001CC08981982F9C7F802F8370892B8983C2
:1024F000A091F821B091F9211996ED91FC911A97CC
:1025000021E0AE014F5F5F4F6EE318968C911995F5
:10251000182F03C01FEF01C01FEF8A81882329F005
:102520002ADE810F03C081E801C0812F0F900F9038
:10253000DF91CF911F910F91089504C061507109EF
:10254000810991096115710581059105B9F7089512
:10255000AF92BF92CF92DF92EF92FF920F931F93B1
:10256000CF93DF930097D1F1A12C0F2EF8E4BF2E6B
:10257000F02D0F2EF8EECF2EF02DDD24D394E12C8C
:10258000F12C00E010E0282F392F40E050E060E00F
:1025900070E080E090E00E943F300F2EF6E0AF2E1A
:1025A000F02DB12CC12CD12C0E94923029513C4FDE
:1025B0004F4F5F4F6F4F7F4F8F4F9F4F0E941A2D8E
:1025C00020E030E04AE754E40E940A2C0E94772C75
:1025D000622F732F842F952FB0DF05C066E070E067
:1025E00080E090E0AADFDF91CF911F910F91FF90E3
:1025F000EF90DF90CF90BF90AF900895CF92DF9291
:10260000FF920F931F93CF93DF93CDB7DEB7CB54D9
:10261000D109CDBFDEBFF82E062F6A01122F22305E
:1026200040F086E590E29F938F930E9478310F905F
:102630000F901982F60180818A83015023960FAF93
:10264000239781E090E027968EAF9FAF2797229641
:10265000FFAE2297CE01019629968EAF9FAF2997A4
:102660001F5F212F30E02B962EAF3FAF2B972C967C
:102670001FAE2C9740E0BE016F5B7F4F80E894E077
:102680000E94970AC55BDF4FCDBFDEBFDF91CF91C0
:102690001F910F91FF90DF90CF900895AF92BF925E
:1026A000DF92EF92FF920F931F93CF93DF93CDB7FB
:1026B000DEB7CB54D109CDBFDEBF5A01AE014F5FAB
:1026C0005F4F7A0190E4FA0111929A95E9F7239607
:1026D0006FAF239741E050E027964EAF5FAF27974B
:1026E00022968FAF22972996EEAEFFAE2997022F42
:1026F00010E02B960EAF1FAF2B972C961FAE2C978A
:10270000BE016F5B7F4F80E894E00E94970AD82E4D
:10271000A801B701C5010E9425318D2DC55BDF4F92
:10272000CDBFDEBFDF91CF911F910F91FF90EF9052
:10273000DF90BF90AF9008950F931F93CF93DF93D7
:10274000CDB7DEB72A97CDBFDEBF8E010F5F1F4F1B
:1027500089E0F80111928A95E9F780E89AE1A6E00C
:10276000B0E089839A83AB83BC8383E290E0A0E0EE
:10277000B0E08D839E83AF83B88760E483E01BD392
:10278000B80180E894E00E94820AE0E8F4E08181E8
:1027900088608183E5E6F2E28EEF92E1818792879D
:1027A0008EE493E18387948788EA92E18587968710
:1027B00088E28087CF0141D9882381F0282F082E15
:1027C000000C330B3F938F938CED90E29F938F938C
:1027D0000E9478310F900F900F900F9080E050DEA4
:1027E0008CE0C9DC182F1A86CE010A9689DC8A850E
:1027F0008C3099F0212F012E000C330B3F931F9347
:102800001F929CE09F931F928F9380E091E29F9391
:102810008F930E947831CDBFDEBF2A96CDBFDEBF39
:10282000DF91CF911F910F91089584E792E2D2DA60
:1028300080E892E2BBDD8DE892E263DB8FE892E212
:10284000A0DB8CE892E222DB8EE892E2DECB0895F8
:1028500060918422709185228091862290918722B6
:102860000895609188227091892280918A229091A6
:102870008B22089560918022709181228091822222
:10288000909183220895E0E0F6E0948188E0892722
:1028900084830895E0E0F6E0808188608083F3CF50
:1028A0000895FF920F931F93CF93DF9362E081E02F
:1028B00082D2C0E0D2E0FF24F394F882198280E152
:1028C0008A8385E08C8361E270E082E09FD2082FEA
:1028D00010E0102F002760E270E082E097D2082B12
:1028E0000C871D87F8A280E389A3DF91CF911F9108
:1028F0000F91FF900895E0E0F2E080A1806880A34E
:1029000083A18823E9F38091240290912502089500
:10291000CF93DF93CDB7DEB72797CDBFDEBF60E2A1
:1029200084E049D2E0E6F6E0808180688083E6E0DA
:10293000F0E284818D8385818E8386818F8380817F
:102940009181A281B38189839A83AB83BC8360E246
:1029500084E031D2BE016F5F7F4F80EB99E00E942F
:102960001C0C2796CDBFDEBFDF91CF91089504C028
:102970006150710981099109611571058105910500
:10298000B9F70895E0E4F6E0948180E18927848333
:102990000895E0E4F6E0848180618483F3DF8EE1D2
:1029A00039D060E87EE380E090E0E1DFEBDF6BEAC6
:1029B00079E280E090E0DBCF0895CF93DF93C82FDA
:1029C000E1DF8C2F27D017D0C82FD0E0DC2FCC2709
:1029D00012D0C82BD7DFCE01DF91CF910895E0E46C
:1029E000F6E08081806B808368E083E0E4D18CE551
:1029F0008093C00808959FB7F8948FEF8093C30821
:102A0000E0ECF8E082818823ECF778949FBF809116
:102A1000C30808959FB7F8948093C308E0ECF8E0EA
:102A200082818823ECF778949FBF0895CF93DF933A
:102A3000EB010E94030B8883DF91CF9108950C94E2
:102A4000FB0A0895CF93DF93CDB7DEB72797CDBFAD
:102A5000DEBF60E185E0AFD1E0E8F6E0808188602C
:102A6000808380EA9AE080936122909362228FE1D2
:102A700095E180935F229093602286E195E18093B7
:102A80005D2290935E22EDE0F0E284818D8385816A
:102A90008E8386818F8380819181A281B381898396
:102AA0009A83AB83BC8360E185E085D1BE016F5F13
:102AB0007F4F80EA9AE00E941C0C6FE771E088E982
:102AC00091E00E942E312796CDBFDEBFDF91CF91DE
:102AD0000895FF920F931F93CF93DF9362E081E0FD
:102AE0006AD1C0E0D2E0FF24F394F882198280E139
:102AF0008A8385E08C8361E270E082E087D1082FD1
:102B000010E0102F002760E270E082E07FD1082BF8
:102B10000C871D87F8A688E389A7DF91CF911F91C5
:102B20000F91FF900895E0E0F2E080A5806880A713
:102B300083A58823E9F380912C0290912D020895BA
:102B4000CF93DF93FC0141155105B1F180E090E096
:102B500020E0880F991FDB01A80FB91F8D919C9170
:102B6000A281B381AA0FBB1FC681D781AC0FBD1F45
:102B70008D939C9382819381019682839383A0811C
:102B8000B1818A179B0711F412821382828193818B
:102B9000C481D5818C179D0749F40196A817B90700
:102BA00019F08483958302C0148215822F5F822FCF
:102BB00090E08417950768F2DF91CF910895FC01AA
:102BC0001282138214821582668377834083518335
:102BD0000895DC011296ED91FC911397CB010196BB
:102BE000E817F90778F0E150F048E61BF70BEE0F15
:102BF000FF1F16968D919C911797E80FF91F808102
:102C0000918108952D913C911197E20FF31FE150AE
:102C1000F048E61BF70BEE0FFF1F16968D919C9167
:102C20001797E80FF91F808191810895CF92DF9265
:102C3000EF92FF92CF93DF93FC014115510509F408
:102C40003FC080E090E020E0880F991F880F991F17
:102C5000DB01A80FB91FCD90DD90ED90FC90A28113
:102C6000B381AA0FBB1FAA0FBB1F86819781A80F34
:102C7000B91FCD92DD92ED92FC92139782819381E0
:102C8000019682839383A081B1818A179B0711F4F7
:102C90001282138282819381C481D5818C179D0712
:102CA00049F40196A817B90719F08483958302C0E7
:102CB000148215822F5F822F90E08417950720F2EF
:102CC000DF91CF91FF90EF90DF90CF900895FC01BE
:102CD0001282138214821582668377834083518324
:102CE0000895DC011296ED91FC911397CB010196AA
:102CF000E817F90798F0E150F04CE61BF70BEE0FE0
:102D0000FF1FEE0FFF1F16968D919C911797E80FEE
:102D1000F91F608171818281938108952D913C9189
:102D20001197E20FF31FE150F04CE61BF70BEE0F8B
:102D3000FF1FEE0FFF1F16968D919C911797E80FBE
:102D4000F91F60817181828193810895CF93DF9310
:102D50001F921F92CDB7DEB78FEF809370008093E4
:102D6000710080937200809373008093740080934D
:102D70007500809376008FB78A83F8949A81E0E596
:102D8000F0E08081826080839FBF818181FFFDCFE1
:102D900061E080E490E044D08FB78983F894998112
:102DA000E0E5F0E080818E7F80839FBF0F900F90E1
:102DB000DF91CF910895CF93DF931F92CDB7DEB708
:102DC0009FB79983F8949981E82FF0E0E059FF4F7D
:102DD00060958081682360839FBF0F90DF91CF91C2
:102DE0000895CF93DF931F92CDB7DEB79FB7998336
:102DF000F8949981E82FF0E0E059FF4F8081682B2B
:102E000060839FBF0F90DF91CF9108954091CA01D9
:102E1000E62FF72F8093CA0184914093CA01089549
:102E20001BBEFC0128ED24BF6083089504C06150DF
:102E30007109810991096115710581059105B9F73C
:102E4000089580913C2290913D22019680933C22EE
:102E500090933D220895CF93DF939BDD82EA90E02B
:102E6000ACDDC7E4D2E28883998384EA90E0A5DDF3
:102E70008A839B8386EA90E0A0DD8C839D8388EA29
:102E800090E09BDD8E839F838AEA90E096DD8887C1
:102E900099878CEA90E091DD8A879B879F938F9337
:102EA00089858F9388858F938F818F938E818F9360
:102EB0008D818F938C818F938B818F938A818F9358
:102EC00089818F9388818F9389E491E29F938F9377
:102ED0000E9478318DB79EB70E968DBF9EBFDF9151
:102EE000CF91089515DD6BEA79E280E090E09EDFF6
:102EF00080E38093B309089560E483E05CDF60E4DD
:102F000083E059DF19DC91DCA3DC60933E227093EF
:102F10003F228093402290934122A3DC60932120A2
:102F2000709322208093232090932420A3DC60932D
:102F30004222709343228093442290934522089525
:102F4000CF93DF9300D01F92CDB7DEB784E0FE01B0
:102F50003196DF01982F1D929A95E9F789838EE3C8
:102F60008B838FE28A83E0E8F3E08081886080834E
:102F700061E277E180E893E00E9413038981982F52
:102F8000906C99839C81292F207321F09C7F926003
:102F90009C8303C08F70806E8983AE014F5F5F4F4B
:102FA00060E080E893E00E94740260E080E893E0D3
:102FB0000E94CB022496CDBFDEBFDF91CF91089552
:102FC0004F925F926F927F928F929F92AF92BF9239
:102FD000CF92DF92EF92FF92CF93DF931F921F92D7
:102FE000CDB7DEB788DC89839A8369817A8180E0F6
:102FF00090E00E94DD2C2091192030911A20409100
:103000001B2050911C200E94262E209115203091CB
:10301000162040911720509118200E94A22B6B017E
:103020007C019B01AC016EEA77E481E590E40E94AB
:10303000A12B20E038E14CE156E40E94262EA701A6
:1030400096010E940A2C20E030E44CE156E40E94F4
:103050000A2C0E94E62D6B017C0120E030E040E468
:1030600050E40E94892E4B015C0121EF3BEB46E8C6
:1030700059E3C701B6010E94262E2DE03FEC4BE537
:103080005BE30E94A22B2B013C01A7019601C70123
:10309000B6010E94262E22E835ED4FE256E30E944B
:1030A000262E9B01AC01C301B2010E94A22B6B0131
:1030B0007C012AE633E149E853E3C501B4010E94EB
:1030C000262E9B01AC01C701B6010E94A22B9B01D9
:1030D000AC0160E070E080E89FE30E940A2C0F9052
:1030E0000F90DF91CF91FF90EF90DF90CF90BF9046
:1030F000AF909F908F907F906F905F904F900895CA
:103100004F925F926F927F928F929F92AF92BF92F7
:10311000CF92DF92EF92FF922B013C01C0902B20C7
:10312000D0902C20E0902D20F0902E2020912F2068
:10313000309130204091312050913220C701B601AA
:103140000E94262E2091272030912820409129206E
:1031500050912A200E940A2C4B015C01A30192018C
:1031600060913720709138208091392090913A20D9
:103170000E940A2CA50194010E94892E20E030E0D3
:1031800040E85FE30E94A12B20913320309134204E
:1031900040913520509136200E94262EA70196019D
:1031A0000E940A2CFF90EF90DF90CF90BF90AF90DD
:1031B0009F908F907F906F905F904F900895CF92E7
:1031C000DF92EF92FF92AFDCBC0180E090E00E94C2
:1031D000DD2C2091192030911A2040911B20509114
:1031E0001C200E94262E20911520309116204091FF
:1031F0001720509118200E94A22B6B017C012BE21A
:1032000035EB42E150E40E94262E9B01AC01C70140
:10321000B6010E94A22BFF90EF90DF90CF9008950F
:103220002F923F924F925F926F927F928F929F92D6
:10323000AF92BF92CF92DF92EF92FF920F931F93C4
:10324000CF93DF9300D000D0CDB7DEB76C01809173
:103250001420882309F46CC000E010E0412C512CAC
:103260003201862E912CA12CB12C89829A82AB82BC
:10327000BC82B801C601ADDC5C0118012FEF221A37
:10328000320AB101C601A5DC7C01B8016E5F7F4F37
:10329000C6019FDCA501BB0C660B770B8A019B0165
:1032A000000F111F221F331F400F511F621F731F7A
:1032B0008701FF0C220B330B78018901EE0CFF1CF8
:1032C000001F111FEE0CFF1C001F111F4A015B01A4
:1032D0008E189F08A00AB10AAC01990F660B770BF4
:1032E000D501C401840F951FA61FB71F9C01AD0116
:1032F00069817A818B819C810E94A92F0E94DF2C99
:1033000020E030E040E05FE30E94262E9B01AC010C
:10331000C301B2010E94A22B2B013C018091142019
:103320008101282F30E02216330608F4A2CF03C013
:10333000412C512C3201682F70E080E090E00E9417
:10334000DF2C9B01AC01C301B2010E940A2C20E0DA
:1033500030E048EC52E40E940A2C2696CDBFDEBF36
:10336000DF91CF911F910F91FF90EF90DF90CF9061
:10337000BF90AF909F908F907F906F905F904F9095
:103380003F902F9008953F924F925F926F927F925D
:103390008F929F92AF92BF92CF92DF92EF92FF9265
:1033A0000F931F93CF93DF9300D000D0CDB7DEB73C
:1033B0008C0119821A82C12CD12C760169817A8103
:1033C000C8018FDC4B015C0121E6821A2EEA920AC9
:1033D0002AE0A20AB1082FE782162AE1920626E027
:1033E000A206B10480F40E94DF2C20E030E040EA25
:1033F00050E40E940A2C9B01AC01C701B6010E9457
:10340000A22B6B017C0189819A81019689839A8321
:103410000597A1F619821A82812C912C5401698199
:103420007A81C8015EDC2B013C0121E6421A2EEABA
:10343000520A2AE0620A71082FE742162AE1520670
:1034400026E06206710490F40E94DF2CA701960129
:103450000E94A12B9B01AC010E94262E9B01AC0176
:10346000C501B4010E94A22B4B015C0189819A81A4
:10347000019689839A83059791F620E030E040E831
:103480005EE3C501B4010E94262E69837A838B8393
:103490009C831D821E82312C412C512C32016D8166
:1034A0007E81C8011EDC4B015C0121E6821A2EEAF6
:1034B000920A2AE0A20AB1082FE782162AE19206B0
:1034C00026E0A206B10450F50E94DF2C4B015C01FE
:1034D000A70196010E94A12B0E94AC2C9B0177238F
:1034E00024F422273327261B370BB901330F880B0F
:1034F000990B0E94DF2C9B01AC0169817A818B8141
:103500009C810E94DD2D88234CF0A5019401C3010C
:10351000B2010E94A22B2B013C0133948D819E812C
:1035200001968D839E83059709F0B9CF332069F00A
:10353000632D70E080E090E00E94DD2C9B01AC01E7
:10354000C301B2010E940A2C04C060E070E080E870
:103550009FEB2696CDBFDEBFDF91CF911F910F91DC
:10356000FF90EF90DF90CF90BF90AF909F908F90A3
:103570007F906F905F904F903F900895AF92BF9271
:10358000CF92DF92EF92FF920F931F93CF93DF932F
:1035900000D000D0CDB7DEB75C018B0182E096E7AA
:1035A000AFE0B0E089839A83AB83BC8341E050E015
:1035B000BE016F5F7F4FC80139DBC801E4DE20E048
:1035C00030E040E251E40E940A2C6B017C0120E0D3
:1035D00030E040E85FEB0E94062C8823D1F1C092D6
:1035E0002C22D0922D22E0922E22F0922F22C7017F
:1035F000B60186DD609324227093252280932622D3
:103600009093272260912422709125228091262276
:103610009091272220E030E048EC52E40E94262ED0
:103620000E94AC2C6D837E8341E050E0BE016B5F55
:103630007F4FC50185DA60911F2070912020C50160
:10364000EFDD60931C2270931D2280931E229093C5
:103650001F22B6DC609328227093292280932A22AD
:1036600090932B22ACDD60932022709321228093D3
:103670002222909323222696CDBFDEBFDF91CF91E9
:103680001F910F91FF90EF90DF90CF90BF90AF9080
:1036900008954F925F926F927F928F929F92AF9216
:1036A000BF92CF92DF92EF92FF92CF93DF9300D041
:1036B00000D0CDB7DEB7B9D8CBD820913E2230911B
:1036C0003F2240914022509141220E94A12B2B0188
:1036D0003C01C7D820912120309122204091232005
:1036E000509124200E94A12B4B015C01C3D8209152
:1036F00042223091432240914422509145220E941F
:10370000A12B6B017C01C301B2010E94AC2C6D8323
:103710007E83772334F422273327261B370B2D8310
:103720003E838D819E81853B910524F120E030E030
:1037300044EB53E4C301B2010E94262E69837A83CD
:103740008B839C832D813E81B901330F880B990BAC
:103750000E94DF2C9B01AC0169817A818B819C8165
:103760000E940A2C9B01AC01C301B2010E94A12B53
:103770002B013C01C501B4010E94AC2C6D837E83FA
:10378000772334F422273327261B370B2D833E83E0
:103790008D819E818B35910524F120E030E044E35A
:1037A00053E4C501B4010E94262E69837A838B837A
:1037B0009C832D813E81B901330F880B990B0E94A8
:1037C000DF2C9B01AC0169817A818B819C810E94F5
:1037D0000A2C9B01AC01C501B4010E94A12B4B0135
:1037E0005C01C701B6010E94AC2C6D837E837723F8
:1037F00034F422273327261B370B2D833E838D81FC
:103800009E81853B910524F120E030E044EB53E4B8
:10381000C701B6010E94262E69837A838B839C831D
:103820002D813E81B901330F880B990B0E94DF2C4B
:103830009B01AC0169817A818B819C810E940A2C59
:103840009B01AC01C701B6010E94A12B6B017C0159
:10385000409202225092032260920422709205222A
:103860008092062290920722A0920822B09209220A
:10387000C092FA21D092FB21E092FC21F092FD212E
:103880002696CDBFDEBFDF91CF91FF90EF90DF9006
:10389000CF90BF90AF909F908F907F906F905F90F0
:1038A0004F90089580915622813081F138F0823016
:1038B00009F455C0833009F4FCC07CC060911C221F
:1038C00070911D2280911E2290911F2220E030E0F5
:1038D00040E450E40E94062C88230CF0EAC060917A
:1038E000242270912522809126229091272220E087
:1038F00030E041EE53E40E94DD2D18160CF0D9C0E3
:10390000809156228F5F80935622089560911C22E9
:1039100070911D2280911E2290911F2220E030E0A4
:1039200040E450E40E94062C882384F46091242211
:1039300070912522809126229091272220E030E06C
:1039400041EE53E40E94062C88231CF081E0809312
:103950005522809156228F5F809356220895609160
:103960001C2270911D2280911E2290911F220E9484
:10397000AC2C9B01772324F422273327261B370BFB
:10398000233031058CF060912422709125228091A2
:1039900026229091272220E030E040E251E40E946C
:1039A000062C88230CF085C0809156228F5F80936F
:1039B0005622089560911C2270911D2280911E2232
:1039C00090911F2220E030E040E450E40E94DD2D81
:1039D000181614F410925622609124227091252218
:1039E000809126229091272220E030E041EE53E49E
:1039F0000E94DD2D18169CF460911C2270911D22EE
:103A000080911E2290911F2220E030E040E450E49B
:103A10000E94062C88231CF481E08093562260913A
:103A2000242270912522809126229091272220E045
:103A300030E041EE53E40E94062C88239CF4609110
:103A40001C2270911D2280911E2290911F2220E045
:103A500030E040E450E40E94062C88231CF482E00D
:103A60008093562260911C2270911D2280911E220B
:103A700090911F220E94AC2C9B01772324F42227D3
:103A80003327261B370B233031059CF46091242209
:103A900070912522809126229091272220E030E00B
:103AA00040E251E40E94062C88231CF483E08093BA
:103AB0005622089561E084E07ED964E084E07BD9F9
:103AC000E0E6F6E0808187608083E0E0F9E085E071
:103AD000808383E1818380E197E286A397A386A117
:103AE00097A18855924080A791A786A197A18E5E45
:103AF000924082A793A786A197A18E5E924084A749
:103B000095A70895E0E0F6E0808184608083848159
:103B10008460848308958F929F92AF92BF92CF92D8
:103B2000DF92EF92FF920F931F93CF93DF937C016D
:103B3000C0E0D0E000E010E0BE01C7014AD8080FA5
:103B4000191F2196CA30D105B9F760E070E0C701AE
:103B500040D8EC0160911F2070912020C70160DBEC
:103B60006B017C01BE01DD0F880B990B0E94DF2CDD
:103B700020E030E0A9010E94262E20E030E048EC51
:103B800052E40E940A2C4B015C01B801110F880B12
:103B9000990B0E94DF2C20E030E0A9010E94262E24
:103BA00020E030E048EC52E40E940A2C9B01AC017A
:103BB000C501B4010E94A22B4B015C0120E030E062
:103BC000A901C701B6010E94262E9B01AC01C501C7
:103BD000B4010E94A22B20E030E84BEB54E40E9499
:103BE000A22B0E94B12C6093252070932620609117
:103BF00025207091262080E090E00E94DD2C20E0BE
:103C000030E04AE754E40E940A2C20E030E04AEF1A
:103C100053E40E94262E0E94B12CE0E0F9E062A756
:103C200073A764A775A7DF91CF911F910F91FF90A4
:103C3000EF90DF90CF90BF90AF909F908F900895BE
:103C400061E085E0B8D8E0E0FAE087E0808381E1D8
:103C50009AE786A397A381E086830895CF92DF92A7
:103C6000EF92FF9280913C2290913D22C090FE21E4
:103C7000D090FF21E0900022F09001222CE3289FB9
:103C8000B001299F700D112480E090E00E94DD2C8E
:103C9000A70196010E94A22B20E030E040E05FE304
:103CA0000E94262E6093FE217093FF2180930022B4
:103CB0009093012210923C2210923D22FF90EF90AF
:103CC000DF90CF90089580912C2290912D22A09189
:103CD0002E22B0912F228093372090933820A093EA
:103CE0003920B0933A206CD96093332070933420FC
:103CF000809335209093362008950E943A14609363
:103D00004222709343228093442290934522089547
:103D1000DADFF3CF0895E0E0F9E086A197A1885EAD
:103D2000934080A791A781E0809355220895E0E019
:103D3000F9E086A197A18855924080A791A710929B
:103D4000552208952F923F924F925F926F927F92E9
:103D50008F929F92AF92BF92CF92DF92EF92FF929B
:103D60000F931F93CF93DF93CDB7DEB7E997CDBF06
:103D7000DEBF8091302290913122019680933022D3
:103D8000909331226091FA217091FB218091FC2166
:103D90009091FD212091562229834090FE21509040
:103DA000FF2160900022709001228090022290906A
:103DB0000322A0900422B0900522C0900622D09049
:103DC0000722E0900822F090092240910A225091A7
:103DD0000B2248AF59AF20910C2230910D22409117
:103DE0000E2250910F222A833B834C835D832091C6
:103DF0000C2230910D2240910E2250910F222E83E1
:103E00003F83488759872091102230911122409199
:103E10001222509113222A873B874C875D8720917D
:103E200010223091112240911222509113222E879C
:103E30003F87488B598B2091142230911522409155
:103E40001622509117222A8B3B8B4C8B5D8B209135
:103E500014223091152240911622509117222E8B58
:103E60003F8B488F598F2091182230911922409111
:103E70001A2250911B222A8F3B8F4C8F5D8F2091ED
:103E800018223091192240911A2250911B222E8F14
:103E90003F8F48A359A320911822309119224091B5
:103EA0001A2250911B222AA33BA34CA35DA320916D
:103EB00020223091212240912222509123222EA3B0
:103EC0003FA348A759A72091282230912922409149
:103ED0002A2250912B222AA73BA74CA75DA720910D
:103EE0002C2230912D2240912E2250912F222EA74C
:103EF0003FA748AB59AB2091242230912522409115
:103F00002622509127222AAB3BAB4CAB5DAB0091F4
:103F1000302210913122209034223090352240916D
:103F20003422509135224EAB5FAB0E94AC2C7F9374
:103F30006F931F9259815F93C301B2010E94AC2C11
:103F40007F936F93C501B4010E94AC2C7F936F9354
:103F5000C701B6010E94AC2C7F936F9389AD8F93FC
:103F600098AD9F936A817B818C819D810E94AC2C4E
:103F70009B01220F331F660F771F660F771F660F97
:103F8000771FC901860F971F6AE070E00E94CC2F4F
:103F90009F938F936E817F81888599850E94AC2C39
:103FA0007F936F9320E034E244E759E46A857B8590
:103FB0008C859D850E94262E0E94AC2C20E432E444
:103FC0004FE050E00E9401309B01772324F4222728
:103FD0003327261B370BC901330FAA0BBB0BBF932B
:103FE000AF939F938F936E857F85888999890E946F
:103FF000AC2C7F936F9320E034E244E759E46A8964
:104000007B898C899D890E94262E0E94AC2C20E4FD
:1040100032E44FE050E00E9401309F938F937F93F2
:104020006F936E897F89888D998D0E94AC2C7F93C8
:104030006F936A8D7B8D8C8D9D8D0E94AC2C0F2E85
:10404000F4E6CF2ED12CE12CF12CF02DA701960116
:104050000E9401307F936F936E8D7F8D88A199A10F
:104060000E94AC2C0F2EF0E18F2EF7E29F2EA12C98
:10407000B12CF02DA50194010E940130A7019601F9
:104080000E9401303F932F936AA17BA18CA19DA137
:104090000E94AC2CA50194010E9401303F932F9304
:1040A0006EA17FA188A599A50E94AC2C7F936F93E8
:1040B00023E333E948E853E46AA57BA58CA59DA5D5
:1040C0000E94A12B0E94AC2C7F936F936EA57FA5BD
:1040D00088A999A90E94AC2C9F938F937F936F938B
:1040E0006AA97BA98CA99DA90E94AC2C7F936F9390
:1040F0001F930F939101ADECBCEC0E942630969576
:10410000879596958795969587959C01220F331FE5
:10411000880F991F880F991F880F991F820F931F6F
:10412000281A390A3F922F922EA93FA90E942630C1
:104130009695879596958795969587959F938F9356
:1041400080911E208F9380911D208F9324EA32E26C
:104150003F932F930E948B31CDBFDEBF24EA32E222
:104160003F932F930E9478310F900F90E996CDBF27
:10417000DEBFDF91CF911F910F91FF90EF90DF9005
:10418000CF90BF90AF909F908F907F906F905F90F7
:104190004F903F902F9008954F925F926F927F9231
:1041A0008F929F92AF92BF92CF92DF92EF92FF9247
:1041B0000F931F93CF93DF93CDB7DEB7A097CDBFFB
:1041C000DEBFA7E3B0E2FC9111965C9011971296C6
:1041D0006C90129713967C90139714968C9014976A
:1041E00015969C9015971696AC90169717964C902E
:1041F000A3E3B0E2EC911196BC9011971296CC908B
:1042000012971396DC9013971496EC9014971596CA
:10421000FC90159716961C9116971796AC91F983FA
:104220002F2F352D462D572D682D792D8A2D942D24
:1042300008E00E9409312A832F2F352D462D572D56
:10424000682D792D8A2D942D00E10E9409312B8350
:104250002F2F352D462D572D682D792D8A2D942DF4
:1042600008E10E9409312C832F2F352D462D572D23
:10427000682D792D8A2D942D00E20E9409312D831D
:104280002F2F352D462D572D682D792D8A2D942DC4
:1042900008E20E9409312E832F2F352D462D572DF0
:1042A000682D792D8A2D942D00E30E9409312F83EA
:1042B0002F2F352D462D572D682D792D8A2D942D94
:1042C00008E30E9409312887E9872E2F3B2D4C2DCA
:1042D0005D2D6E2D7F2D812F9A2F08E00E940931D0
:1042E0002A872E2F3B2D4C2D5D2D6E2D7F2D812F5E
:1042F0009A2F00E10E9409312B872E2F3B2D4C2D48
:104300005D2D6E2D7F2D812F9A2F08E10E9409319E
:104310002C872E2F3B2D4C2D5D2D6E2D7F2D812F2B
:104320009A2F00E20E9409312D872E2F3B2D4C2D14
:104330005D2D6E2D7F2D812F9A2F08E20E9409316D
:104340002E872E2F3B2D4C2D5D2D6E2D7F2D812FF9
:104350009A2F00E30E9409312F872E2F3B2D4C2DE1
:104360005D2D6E2D7F2D812F9A2F08E30E9409313C
:10437000288B80E1EBE3F0E2DE01519601900D9293
:104380008A95E1F783E38093CA01FE017196CE011D
:104390000196AE014F5D5F4F60EC71E02191DB0152
:1043A0002C93DC012D91CD01DB0114962C93E417A5
:1043B000F507A1F7E0ECF1E085E38287108280E168
:1043C000818388ED84BF81E0838787858823ECF330
:1043D000A096CDBFDEBFDF91CF911F910F91FF90CF
:1043E000EF90DF90CF90BF90AF909F908F907F9095
:1043F0006F905F904F9008950F931F93CF93DF932B
:10440000CDB7DEB7A197CDBFDEBF609124227091FA
:10441000252280912622909127220E94AC2C162FD3
:10442000072F60911C2270911D2280911E22909175
:104430001F220E94AC2C262F372F8091362290E02D
:10444000019664E670E00E94CC2F80933622A09102
:104450003022B0913122E0913022F09131226091EE
:10446000342270913522409134225091352290911E
:10447000562209831A83BB83EC837D834E833F835B
:10448000288789878A879B878BE0FE013196DE012A
:104490001C9601900D928A95E1F78BE0EBE4F0E237
:1044A000DE01579601900D928A95E1F783E38093A0
:1044B000CA0180E090E0E0ECF1E0A7E1B0E0AC0FF1
:1044C000BD1FA80FB91F2C912083ACE0B0E0AC0F4A
:1044D000BD1FA80FB91F2C91248301968A30910526
:1044E00061F7E0ECF1E085E38287108280E181836F
:1044F00088ED84BF81E0838787858823ECF3A196CC
:10450000CDBFDEBFDF91CF911F910F9108952F9204
:104510003F924F925F926F927F928F929F92AF9253
:10452000BF92CF92DF92EF92FF920F931F93CF93A0
:10453000DF93CDB7DEB7EF97CDBFDEBF80913022DE
:104540009091312201968093302290933122609194
:10455000FA217091FB218091FC219091FD21209105
:10456000562229834090FE215090FF216090002226
:10457000709001228090022290900322A090042249
:10458000B0900522C0900622D0900722E090082229
:10459000F090092240910A2250910B224EAF5FAF5A
:1045A00020910C2230910D2240910E2250910F2229
:1045B0002A833B834C835D8320910C2230910D2212
:1045C00040910E2250910F222E833F8348875987B6
:1045D00020911022309111224091122250911322E9
:1045E0002A873B874C875D872091102230911122CA
:1045F00040911222509113222E873F87488B598B6E
:1046000020911422309115224091162250911722A8
:104610002A8B3B8B4C8B5D8B209114223091152281
:1046200040911622509117222E8B3F8B488F598F25
:10463000209118223091192240911A2250911B2268
:104640002A8F3B8F4C8F5D8F209118223091192239
:1046500040911A2250911B222E8F3F8F48A359A3BD
:10466000209118223091192240911A2250911B2238
:104670002AA33BA34CA35DA32091202230912122A9
:1046800040912222509123222EA33FA348A759A74D
:1046900020912022309121224091222250912322E8
:1046A0002AA73BA74CA75DA7209128223091292259
:1046B00040912A2250912B222EA73FA748AB59ABFD
:1046C000209128223091292240912A2250912B2298
:1046D0002AAB3BAB4CAB5DAB20912C2230912D2211
:1046E00040912E2250912F222EAB3FAB48AF59AFB5
:1046F0002091242230912522409126225091272278
:104700002AAF3BAF4CAF5DAF2090302230903122CA
:1047100000913422109135220E94AC2C7F936F932C
:104720001F9239813F93C301B2010E94AC2C7F9349
:104730006F93C501B4010E94AC2C7F936F93C701A6
:10474000B6010E94AC2C7F936F934FAD4F935EAD3B
:104750005F936A817B818C819D810E94AC2C9B013F
:10476000220F331F660F771F660F771F660F771FA5
:10477000C901860F971F6AE070E00E94CC2F9F93BB
:104780008F936E817F81888599850E94AC2C7F9361
:104790006F9320E034E244E759E46A857B858C8599
:1047A0009D850E94262E0E94AC2C20E432E44FE02E
:1047B00050E00E9401309B01772324F42227332705
:1047C000261B370BC901330FAA0BBB0BBF93AF934B
:1047D0009F938F936E857F85888999890E94AC2CE1
:1047E0007F936F9320E034E244E759E46A897B8940
:1047F0008C899D890E94262E0E94AC2C20E432E4F4
:104800004FE050E00E9401309F938F937F936F930E
:104810006E897F89888D998D0E94AC2C7F936F93D0
:104820006A8D7B8D8C8D9D8D0E94AC2C0F2EF4E6B5
:10483000CF2ED12CE12CF12CF02DA70196010E9456
:1048400001307F936F936E8D7F8D88A199A10E9417
:10485000AC2C0F2EF0E18F2EF7E29F2EA12CB12C65
:10486000F02DA50194010E940130A70196010E943C
:1048700001303F932F936AA17BA18CA19DA10E943F
:10488000AC2CA50194010E9401303F932F9320E0AE
:1048900030E040E251E46EA17FA188A599A50E9475
:1048A000262E0E94AC2CCB016AE070E00E94CC2F37
:1048B0009F938F936AA57BA58CA59DA50E94AC2C88
:1048C0007F936F9320E030E040E251E46EA57FA536
:1048D00088A999A90E94262E20E038EB4AE255E4E7
:1048E00030D70E94AC2CCB016AE070E00E94CC2F44
:1048F0009F938F9323E333E948E853E46AA97BA9A4
:104900008CA99DA91ED70E94AC2C7F936F936EA992
:104910007FA988AD99AD0E94AC2C9F938F937F9314
:104920006F936AAD7BAD8CAD9DAD0E94AC2C7F9337
:104930006F933F922F921F930F9380911E208F931E
:1049400080911D208F9384EA92E29F938F930E941F
:104950008B31CDBFDEBF84EA92E29F938F930E949A
:1049600078314ADD109254220F900F90EF96CDBF10
:10497000DEBFDF91CF911F910F91FF90EF90DF90FD
:10498000CF90BF90AF909F908F907F906F905F90EF
:104990004F903F902F900895CF93DF93C0ECD1E0DC
:1049A00026E02A878883998388ED84BF81E08B87FE
:1049B00066ED74E180E090E00E9416178C81DF9133
:1049C000CF9108952F923F924F925F926F927F9274
:1049D0008F929F92AF92BF92CF92DF92EF92FF920F
:1049E0000F931F93CF93DF93CDB7DEB72797CDBF3C
:1049F000DEBF0E94A6166BEA79E280E090E00E949A
:104A0000161778948CEB8093400687E08093A20081
:104A10000E944A140E9422156BEA70EB88E290E033
:104A20000E94161780E28093A30A0E9472170E94C8
:104A3000A0170E9451140E9469150E94EF140E9451
:104A40002B170E947C170E944314FAD833D85AD8E7
:104A500082E090E1A1DF89838FE190E19DDF8A838D
:104A600099818A819813D3C189818F3F09F4CFC17D
:104A700080E190E191DF182F8FE090E18DDFB82F7A
:104A8000212F30E040E050E060E070E080E090E016
:104A900008E30E94EE30122FC32EF42EA52FF62F1E
:104AA000E72FD82EE92E2B2F30E040E050E060E0D9
:104AB00070E080E090E000E30E94EE30122BC32A09
:104AC000F42A9A2E952AAF2EA62ABE2EB72AD82AC5
:104AD000E92A8EE090E160DF082F8DE090E15CDF55
:104AE000282E8CE090E158DF382E8BE090E154DFE7
:104AF000482E8AE090E150DF582E89E090E14CDFAB
:104B0000682E202F30E040E050E060E070E080E070
:104B100090E008E20E94EE301629122BC32AF42AF4
:104B2000A52FA929F62FFA29E72FEB29D82AE92A58
:104B3000222D30E040E050E060E070E080E090E066
:104B400000E20E94EE30122BC32AF42AA52BF62B8A
:104B5000E72BD82AE92A232D30E040E050E060E03E
:104B600070E080E090E008E10E94EE30122BC32A52
:104B7000F42AA52BF62BE72BD82AE92A242D30E09E
:104B800040E050E060E070E080E090E000E10E94F2
:104B9000EE30122BC32AF42AA52BF62BE72BD82AAA
:104BA000E92A252D30E040E050E060E070E080E050
:104BB00090E008E00E94EE30612E622A7C2C732A7D
:104BC0008F2C842A9A2E952AAF2EA62ABE2EB72A7B
:104BD000D82AE92A89E190E1DFDE182F88E190E107
:104BE000DBDE482E212F30E040E050E060E070E056
:104BF00080E090E008E30E94EE30C22E532EB42FE6
:104C0000A52FF62FE72FF82E192F242D30E040E0A6
:104C100050E060E070E080E090E000E30E94EE3061
:104C2000C22A532A5F822B2E242A3A2E352A4F2E4F
:104C3000462A5E2E572AF82A192B87E190E1ACDE2E
:104C4000082F86E190E1A8DE8B8385E190E1A4DE68
:104C50008C8384E190E1A0DE8D8383E190E19CDE92
:104C60008E8382E190E198DEE82FA7E3B0E26C92B8
:104C700011967C92119712968C92129713969C9291
:104C800013971496AC9214971596BC921597169696
:104C9000DC9216971796EC92A3E3B0E2202F30E057
:104CA00040E050E060E070E080E090E008E20E94C8
:104CB000EE30CE2AC22ABF80B32AD42ED228E52EC7
:104CC000E328F62FF429E72FE529F82A192B2B8161
:104CD00030E040E050E060E070E080E090E000E232
:104CE0000E94EE30C22AB32AD42AE52AF62BE72BFB
:104CF000F82A192B2C8130E040E050E060E070E0B1
:104D000080E090E008E10E94EE30C22AB32AD42A63
:104D1000E52AF62BE72BF82A192B2D8130E040E00D
:104D200050E060E070E080E090E000E10E94EE3052
:104D3000C22AB32AD42AE52AF62BE72BF82A192B04
:104D40002E8130E040E050E060E070E080E090E0F4
:104D500008E00E94EE302C292C933B2911963C93BD
:104D600011974D2912964C9312975E2913965C93D6
:104D700013976F2B14966C9314977E2B15967C9338
:104D800015978F2916968C931697912B17969C93AF
:104D900081E090E101DE182F80E090E1FDDD612FE0
:104DA00070E0762F6627682B072E000C880B990B76
:104DB00006D6609324227093252280932622909316
:104DC000272287E090E1E8DD182F86E090E1E4DD1E
:104DD000212F30E0322F2227282B209334223093AA
:104DE000352284E090E1D8DD182F83E090E1D4DD16
:104DF000212F30E0322F2227282B2093302230938E
:104E0000312285E090E1C8DD8093562219C080E808
:104E100096EEA5ECB7E48093372090933820A093CA
:104E20003920B0933A200E94E017609333207093AA
:104E30003420809335209093362010925622ACD99E
:104E40000E94521C2796CDBFDEBFDF91CF911F91EC
:104E50000F91FF90EF90DF90CF90BF90AF909F9019
:104E60008F907F906F905F904F903F902F9008951C
:104E700083E38093CA0180E0E0ECF1E09FEF808360
:104E800094838F5F8032D9F7E0ECF1E080E3828792
:104E900088ED84BF81E0838787858823ECF30895BC
:104EA000E7DF8FB7F89498ED94BF91E09093790085
:104EB0008FBF089590E0FC01E156F109E331F1055F
:104EC000C8F48827E250FF4F8F4F0C941D30E8CF75
:104ED00008950C94881E08950C94631E08950C94F4
:104EE0007D1E08950C948B1E08950C94971E0895B2
:104EF0000C94A21E0895CF93DF93CDB7DEB7C856AA
:104F0000D109CDBFDEBF5EDDE0E6F6E080818860DE
:104F1000808384818860848314E1BE016F5F7F4F4A
:104F2000FB01812F11928A95E9F74AE050E0CE010A
:104F300045960E94DF15BE01635E7F4F88E2FB014C
:104F400011928A95E9F74AE050E0CE018B5B9F4FC2
:104F50000E946716BE01635B7F4FFB0111921A9599
:104F6000E9F74AE050E0CE018F599F4F0E94DF15CC
:104F700000E010E0BE016B5B7F4FCE0145960E94C2
:104F8000BE1A0E94521C0E94491B809156228130F9
:104F900039F008F43DC0823049F0833099F136C0D1
:104FA000111136C00E94431411E032C0111103C028
:104FB0000E94431411E06091242270912522809177
:104FC00026229091272220E030E041EE53E4B9D32D
:104FD000C3D49B01772324F422273327261B370BC6
:104FE0002A3031052CF40E948B1E0E94A01710C09D
:104FF00080915522882361F0CE018F599F4F0E94E6
:105000008B1D06C0011104C001E002C00E94521CA9
:1050100080915422882329F00E942E1E78DA109263
:10502000542280915322882339F08091462242DF16
:105030001092462210925322809132229091332274
:105040000196809332229093332280913422909162
:105050003522892B69F08091322290913322609120
:1050600034227091352284D760931F2070932020C2
:1050700066E573E288E090E00E9416177BCF1F92EE
:105080000F920FB60F92112408B60F9218BE8F938D
:105090009F938091342290913522019680933422FF
:1050A0009093352281E0809354229F918F910F90AD
:1050B00008BE0F900FBE0F901F9018951F920F9271
:1050C0000FB60F92112408B60F9218BE09B60F92B0
:1050D00019BE0BB60F921BBE2F933F934F935F9356
:1050E0006F937F938F939F93AF93BF93EF93FF93B0
:1050F00080EA9AE00E94030B8093462281E080932D
:105100005322FF91EF91BF91AF919F918F917F912A
:105110006F915F914F913F912F910F900BBE0F9028
:1051200009BE0F9008BE0F900FBE0F901F901895EC
:105130001F920F920FB60F92112408B60F9218BE4D
:1051400009B60F9219BE0AB60F921ABE0BB60F928D
:105150001BBE8F929F92AF92BF92CF92DF92EF923F
:10516000FF921F932F933F934F935F936F937F9380
:105170008F939F93AF93BF93EF93FF93CF93DF935F
:1051800000D000D0CDB7DEB780EB99E00E94030BD2
:10519000182F843251F481E080933B2210923A22FE
:1051A00010923922109238225DC28A3229F410926C
:1051B000382210923B2256C28C3209F053C2E0E9E9
:1051C000F2E280E280838181803209F07AC280E35A
:1051D0008093902276C2809190228E3209F0A6C1EF
:1051E000ACC1809190228E3209F0F2C0F8C080915B
:1051F00090228E3209F053C059C091919E3229F409
:1052000001C080E08093372203C08F5F8F30A9F701
:10521000E0913722F0E0E057FD4D80E2808320915D
:1052200037222F5F2F30C8F4822F90E0FC01E05727
:10523000FD4D3081303289F040E208C0822F90E08D
:10524000FC01E057FD4D3081303239F0FC01E05770
:10525000FD4D40832F5F2F3089F7CE0101969F933C
:105260008F938DE591E29F938F9380E992E29F93D4
:105270008F930E94B33169817A818B819C819FD306
:10528000609318227093192280931A2290931B2204
:105290000F900F900F900F900F900F90C5C1E1E904
:1052A000F2E281E091919E3229F401C080E0809386
:1052B000372203C08F5F8F30A9F7E0913722F0E0EB
:1052C000E057FD4D80E28083209137222F5F2F3001
:1052D00008F5822F90E0FC01E057FD4D308130321F
:1052E000C9F050E208C0822F90E0FC01E057FD4D6C
:1052F0003081303279F040913722FC01E41BF10912
:10530000E256FD4D3083FC01E057FD4D50832F5F89
:105310002F3049F780919F22803219F480E38093E7
:105320009F22CE0101969F938F938DE591E29F93EB
:105330008F9380E992E29F938F930E94B331CE01C5
:1053400005969F938F9381E691E29F938F938FE9C8
:1053500092E29F938F930E94B33189809A80AB80B1
:10536000BC806D817E81072E000C880B990B27D3A2
:1053700020E030E44CE156E44DD26B017C01C501E4
:10538000B40124E630E040E050E03BD649015A0148
:1053900016D39B01AC01C701B601D4D120E030E0A7
:1053A00040E752E437D26B017C01C501B40107D359
:1053B0009B01AC01C701B601C5D160931422709363
:1053C00015228093162290931722CDBFDEBF2CC1E9
:1053D000E1E9F2E281E091919E3229F401C080E09E
:1053E0008093372203C08F5F8F30A9F7E091372277
:1053F000F0E0E057FD4D80E28083209137222F5F5F
:105400002F3008F5822F90E0FC01E057FD4D3081F0
:105410003032C9F050E208C0822F90E0FC01E05722
:10542000FD4D3081303279F040913722FC01E41B90
:10543000F109E256FD4D3083FC01E057FD4D5083EC
:105440002F5F2F3049F780919F22803219F480E33B
:1054500080939F22CE0101969F938F938DE591E2D9
:105460009F938F9380E992E29F938F937CD7CE0195
:1054700005969F938F9381E691E29F938F938FE997
:1054800092E29F938F936FD789809A80AB80BC8084
:105490006D817E81072E000C880B990B90D220E045
:1054A00030E44CE156E4B6D16B017C01C501B40196
:1054B00024E630E040E050E0A4D549015A017FD213
:1054C0009B01AC01C701B6013DD120E030E040E7CF
:1054D00052E4A0D16B017C01C501B40170D29B01E3
:1054E000AC01C701B6012ED1DC01CB01B0588093CD
:1054F000102290931122A0931222B0931322CDBFB9
:10550000DEBF92C08AE092E29F938F9381E691E2A0
:105510009F938F9380E992E29F938F9324D70F906C
:105520000F900F900F900F900F907EC0E1E9F2E284
:1055300081E091919E3229F401C080E0809337226E
:1055400003C08F5F8F30A9F7E0913722F0E0E0577A
:10555000FD4D80E28083209137222F5F2F3008F5A8
:10556000822F90E0FC01E057FD4D30813032C9F0D0
:1055700050E208C0822F90E0FC01E057FD4D3081E1
:10558000303279F040913722FC01E41BF109E256F8
:10559000FD4D3083FC01E057FD4D50832F5F2F30D0
:1055A00049F780919F22803219F480E380939F22F3
:1055B000CE0101969F938F938DE591E29F938F93F8
:1055C00080E992E29F938F93CED6CE0105969F936A
:1055D0008F9381E691E29F938F938FE992E29F935D
:1055E0008F93C1D669817A818B819C81E8D16B01CF
:1055F0007C016D817E81072E000C880B990BDFD119
:1056000020E030E040E251E405D19B01AC01C7014C
:10561000B60198D060930C2270930D2280930E22D5
:1056200090930F22CDBFDEBF80913B228823D1F023
:1056300010923722809138228F5F80933822109207
:105640003922E0E9F2E22FE932E280E281932E177B
:105650003F07E1F7EFE9F2E280E280838183828312
:105660008383848380913B22882309F443C0809103
:105670003A22833019F0843031F009C0173439F000
:1056800010923B2204C0173411F010923B22E0919B
:105690003922F0E0E057FD4D1083809139228F5F71
:1056A0008093392280913A228F5F80933A2222C0E0
:1056B000809190228E3209F4A4CDE1E9F2E281E0FA
:1056C0009CCD19821A821B821C821D821E828091AF
:1056D0003822843009F485CD30F4813049F38230AA
:1056E00009F485CDA1CF873009F40CCF893009F4B6
:1056F00072CD9ACF2696CDBFDEBFDF91CF91FF91BD
:10570000EF91BF91AF919F918F917F916F915F9139
:105710004F913F912F911F91FF90EF90DF90CF908D
:10572000BF90AF909F908F900F900BBE0F900ABECE
:105730000F9009BE0F9008BE0F900FBE0F901F90E4
:1057400018955058BB27AA270ED0FDC1EED130F0D6
:10575000F3D120F031F49F3F11F41EF4D3C10EF4C5
:10576000E095E7FBC9C1E92FFFD180F3BA176207C3
:1057700073078407950718F071F49EF517C20EF4AD
:10578000E0950B2EBA2FA02D0B01B90190010C0151
:10579000CA01A0011124FF27591B99F0593F50F469
:1057A000503E68F11A16F040A22F232F342F4427C1
:1057B000585FF3CF469537952795A795F0405395B9
:1057C000C9F77EF41F16BA0B620B730B840BBAF089
:1057D0009150A1F0FF0FBB1F661F771F881FC2F7F4
:1057E0000EC0BA0F621F731F841F48F48795779508
:1057F0006795B795F7959E3F08F0B3CF9395880FBF
:1058000008F09927EE0F97958795089551D108F4E0
:1058100081E008950CD097C18FD140F086D130F04F
:1058200021F45F3F19F068C15111C1C16BC19CD116
:1058300098F39923C9F35523B1F3951B550BBB2757
:10584000AA2762177307840738F09F5F5F4F220F04
:10585000331F441FAA1FA9F333D00E2E3AF0E0E8FD
:1058600030D091505040E695001CCAF729D0FE2F49
:1058700027D0660F771F881FBB1F261737074807DB
:10588000AB07B0E809F0BB0B802DBF01FF27935891
:105890005F4F2AF09E3F510568F02EC188C15F3FDF
:1058A000ECF3983EDCF3869577956795B795F79579
:1058B0009F5FC9F7880F911D9695879597F9089571
:1058C000E1E0660F771F881FBB1F6217730784070D
:1058D000BA0720F0621B730B840BBA0BEE1F88F71C
:1058E000E0950895BEE304D008F490E80895BFE37E
:1058F00022273327A90140D158F19F5740F1B9170A
:1059000038F1BFE3B91B9927B8503AF4660F771FF7
:10591000881F991FB395D2F316C0B8504AF0232FB1
:10592000342F452F562F672F782F8827B850BAF776
:10593000B85F49F086957795679557954795379560
:105940002795BA95B9F70EF4E0D088940895889415
:1059500060E070E0CB01089504D06894B11127C1D4
:1059600008950AD188F09F5790F0B92F9927B75121
:10597000A0F0D1F0660F771F881F991F1AF0BA9513
:10598000C9F712C0B13081F011D1B1E008950EC154
:10599000672F782F8827B85F39F0B93FCCF3869509
:1059A00077956795B395D9F73EF490958095709566
:1059B00061957F4F8F4F9F4F0895E89409C097FBE3
:1059C0003EF490958095709561957F4F8F4F9F4FD6
:1059D0009923A9F0F92F96E9BB279395F69587951A
:1059E00077956795B795F111F8CFFAF4BB0F11F4DD
:1059F00060FF1BC06F5F7F4F8F4F9F4F16C0882384
:105A000011F096E911C0772321F09EE8872F762FB9
:105A100005C0662371F096E8862F70E060E02AF0FA
:105A20009A95660F771F881FDAF7880F96958795E6
:105A300097F90895E894F92F96EBFF2381F0121659
:105A400013061406440B9395F695879577956795FD
:105A500057954040FF23B9F71BC099270895882325
:105A600051F49850D2F7872B762F652F542F432F60
:105A7000322F20E0B1F3121613061406440B8823CC
:105A80003AF09A95440F551F661F771F881FCAF773
:105A900055234AF4440F551F11F460FF04C06F5F93
:105AA0007F4F8F4F9F4F880F9695879597F9089551
:105AB000990F0008550FAA0BE0E8FEEF161617061F
:105AC000E807F907C0F012161306E407F50798F087
:105AD000621B730B840B950B39F40A2661F0232BA0
